{
	"contracts/RealEstate.sol": {
		"HopDongThueCanHo": {
			"abi": [
				{
					"inputs": [
						{
							"internalType": "uint256",
							"name": "_chiPhiHangThang",
							"type": "uint256"
						},
						{
							"internalType": "uint256",
							"name": "_thoiGianThueThang",
							"type": "uint256"
						}
					],
					"stateMutability": "nonpayable",
					"type": "constructor"
				},
				{
					"inputs": [],
					"name": "chamDutHopDong",
					"outputs": [],
					"stateMutability": "nonpayable",
					"type": "function"
				},
				{
					"inputs": [
						{
							"internalType": "uint256",
							"name": "soThangThem",
							"type": "uint256"
						}
					],
					"name": "giaHanHopDong",
					"outputs": [],
					"stateMutability": "payable",
					"type": "function"
				},
				{
					"inputs": [],
					"name": "kyHopDong",
					"outputs": [],
					"stateMutability": "payable",
					"type": "function"
				},
				{
					"inputs": [
						{
							"internalType": "uint256",
							"name": "soThangMuonRut",
							"type": "uint256"
						}
					],
					"name": "rutTien",
					"outputs": [],
					"stateMutability": "nonpayable",
					"type": "function"
				},
				{
					"inputs": [
						{
							"internalType": "address",
							"name": "",
							"type": "address"
						}
					],
					"name": "soDuTaiKhoan",
					"outputs": [
						{
							"internalType": "uint256",
							"name": "",
							"type": "uint256"
						}
					],
					"stateMutability": "view",
					"type": "function"
				},
				{
					"inputs": [],
					"name": "thongTinNha",
					"outputs": [
						{
							"internalType": "address",
							"name": "chuNha",
							"type": "address"
						},
						{
							"internalType": "uint256",
							"name": "chiPhiHangThang",
							"type": "uint256"
						},
						{
							"internalType": "uint256",
							"name": "thoiGianThueThang",
							"type": "uint256"
						},
						{
							"internalType": "bool",
							"name": "hopDongDuocKy",
							"type": "bool"
						}
					],
					"stateMutability": "view",
					"type": "function"
				},
				{
					"inputs": [],
					"name": "xemTinhTrangThue",
					"outputs": [
						{
							"internalType": "address",
							"name": "nguoiThue",
							"type": "address"
						},
						{
							"internalType": "uint256",
							"name": "thoiDiemBatDau",
							"type": "uint256"
						},
						{
							"internalType": "uint256",
							"name": "soThangDaThanhToan",
							"type": "uint256"
						},
						{
							"internalType": "uint256",
							"name": "thoiGianConLai",
							"type": "uint256"
						}
					],
					"stateMutability": "view",
					"type": "function"
				}
			],
			"devdoc": {
				"kind": "dev",
				"methods": {},
				"version": 1
			},
			"evm": {
				"assembly": "    /* \"contracts/RealEstate.sol\":57:7054  contract HopDongThueCanHo {... */\n  mstore(0x40, 0x80)\n    /* \"contracts/RealEstate.sol\":531:943  constructor(uint256 _chiPhiHangThang, uint256 _thoiGianThueThang) {... */\n  callvalue\n  dup1\n  iszero\n  tag_1\n  jumpi\n  revert(0x00, 0x00)\ntag_1:\n  pop\n  mload(0x40)\n  sub(codesize, bytecodeSize)\n  dup1\n  bytecodeSize\n  dup4\n  codecopy\n  dup2\n  dup2\n  add\n  0x40\n  mstore\n  dup2\n  add\n  swap1\n  tag_2\n  swap2\n  swap1\n  tag_3\n  jump\t// in\ntag_2:\n    /* \"contracts/RealEstate.sol\":634:635  0 */\n  0x00\n    /* \"contracts/RealEstate.sol\":615:631  _chiPhiHangThang */\n  dup3\n    /* \"contracts/RealEstate.sol\":615:635  _chiPhiHangThang > 0 */\n  gt\n    /* \"contracts/RealEstate.sol\":607:667  require(_chiPhiHangThang > 0, \"Chi phi hang thang phai > 0\") */\n  tag_6\n  jumpi\n  mload(0x40)\n  0x08c379a000000000000000000000000000000000000000000000000000000000\n  dup2\n  mstore\n  0x04\n  add\n  tag_7\n  swap1\n  tag_8\n  jump\t// in\ntag_7:\n  mload(0x40)\n  dup1\n  swap2\n  sub\n  swap1\n  revert\ntag_6:\n    /* \"contracts/RealEstate.sol\":706:707  0 */\n  0x00\n    /* \"contracts/RealEstate.sol\":685:703  _thoiGianThueThang */\n  dup2\n    /* \"contracts/RealEstate.sol\":685:707  _thoiGianThueThang > 0 */\n  gt\n    /* \"contracts/RealEstate.sol\":677:735  require(_thoiGianThueThang > 0, \"Thoi gian thue phai > 0\") */\n  tag_9\n  jumpi\n  mload(0x40)\n  0x08c379a000000000000000000000000000000000000000000000000000000000\n  dup2\n  mstore\n  0x04\n  add\n  tag_10\n  swap1\n  tag_11\n  jump\t// in\ntag_10:\n  mload(0x40)\n  dup1\n  swap2\n  sub\n  swap1\n  revert\ntag_9:\n    /* \"contracts/RealEstate.sol\":767:777  msg.sender */\n  caller\n    /* \"contracts/RealEstate.sol\":746:757  thongTinNha */\n  0x00\n    /* \"contracts/RealEstate.sol\":746:764  thongTinNha.chuNha */\n  0x00\n  add\n  0x00\n    /* \"contracts/RealEstate.sol\":746:777  thongTinNha.chuNha = msg.sender */\n  0x0100\n  exp\n  dup2\n  sload\n  dup2\n  0xffffffffffffffffffffffffffffffffffffffff\n  mul\n  not\n  and\n  swap1\n  dup4\n  0xffffffffffffffffffffffffffffffffffffffff\n  and\n  mul\n  or\n  swap1\n  sstore\n  pop\n    /* \"contracts/RealEstate.sol\":817:833  _chiPhiHangThang */\n  dup2\n    /* \"contracts/RealEstate.sol\":787:798  thongTinNha */\n  0x00\n    /* \"contracts/RealEstate.sol\":787:814  thongTinNha.chiPhiHangThang */\n  0x01\n  add\n    /* \"contracts/RealEstate.sol\":787:833  thongTinNha.chiPhiHangThang = _chiPhiHangThang */\n  dup2\n  swap1\n  sstore\n  pop\n    /* \"contracts/RealEstate.sol\":875:893  _thoiGianThueThang */\n  dup1\n    /* \"contracts/RealEstate.sol\":843:854  thongTinNha */\n  0x00\n    /* \"contracts/RealEstate.sol\":843:872  thongTinNha.thoiGianThueThang */\n  0x02\n  add\n    /* \"contracts/RealEstate.sol\":843:893  thongTinNha.thoiGianThueThang = _thoiGianThueThang */\n  dup2\n  swap1\n  sstore\n  pop\n    /* \"contracts/RealEstate.sol\":931:936  false */\n  0x00\n    /* \"contracts/RealEstate.sol\":903:914  thongTinNha */\n  0x00\n    /* \"contracts/RealEstate.sol\":903:928  thongTinNha.hopDongDuocKy */\n  0x03\n  add\n  0x00\n    /* \"contracts/RealEstate.sol\":903:936  thongTinNha.hopDongDuocKy = false */\n  0x0100\n  exp\n  dup2\n  sload\n  dup2\n  0xff\n  mul\n  not\n  and\n  swap1\n  dup4\n  iszero\n  iszero\n  mul\n  or\n  swap1\n  sstore\n  pop\n    /* \"contracts/RealEstate.sol\":531:943  constructor(uint256 _chiPhiHangThang, uint256 _thoiGianThueThang) {... */\n  pop\n  pop\n    /* \"contracts/RealEstate.sol\":57:7054  contract HopDongThueCanHo {... */\n  jump(tag_12)\n    /* \"#utility.yul\":88:205   */\ntag_14:\n    /* \"#utility.yul\":197:198   */\n  0x00\n    /* \"#utility.yul\":194:195   */\n  0x00\n    /* \"#utility.yul\":187:199   */\n  revert\n    /* \"#utility.yul\":334:411   */\ntag_16:\n    /* \"#utility.yul\":371:378   */\n  0x00\n    /* \"#utility.yul\":400:405   */\n  dup2\n    /* \"#utility.yul\":389:405   */\n  swap1\n  pop\n    /* \"#utility.yul\":334:411   */\n  swap2\n  swap1\n  pop\n  jump\t// out\n    /* \"#utility.yul\":417:539   */\ntag_17:\n    /* \"#utility.yul\":490:514   */\n  tag_30\n    /* \"#utility.yul\":508:513   */\n  dup2\n    /* \"#utility.yul\":490:514   */\n  tag_16\n  jump\t// in\ntag_30:\n    /* \"#utility.yul\":483:488   */\n  dup2\n    /* \"#utility.yul\":480:515   */\n  eq\n    /* \"#utility.yul\":470:533   */\n  tag_31\n  jumpi\n    /* \"#utility.yul\":529:530   */\n  0x00\n    /* \"#utility.yul\":526:527   */\n  0x00\n    /* \"#utility.yul\":519:531   */\n  revert\n    /* \"#utility.yul\":470:533   */\ntag_31:\n    /* \"#utility.yul\":417:539   */\n  pop\n  jump\t// out\n    /* \"#utility.yul\":545:688   */\ntag_18:\n    /* \"#utility.yul\":602:607   */\n  0x00\n    /* \"#utility.yul\":633:639   */\n  dup2\n    /* \"#utility.yul\":627:640   */\n  mload\n    /* \"#utility.yul\":618:640   */\n  swap1\n  pop\n    /* \"#utility.yul\":649:682   */\n  tag_33\n    /* \"#utility.yul\":676:681   */\n  dup2\n    /* \"#utility.yul\":649:682   */\n  tag_17\n  jump\t// in\ntag_33:\n    /* \"#utility.yul\":545:688   */\n  swap3\n  swap2\n  pop\n  pop\n  jump\t// out\n    /* \"#utility.yul\":694:1201   */\ntag_3:\n    /* \"#utility.yul\":773:779   */\n  0x00\n    /* \"#utility.yul\":781:787   */\n  0x00\n    /* \"#utility.yul\":830:832   */\n  0x40\n    /* \"#utility.yul\":818:827   */\n  dup4\n    /* \"#utility.yul\":809:816   */\n  dup6\n    /* \"#utility.yul\":805:828   */\n  sub\n    /* \"#utility.yul\":801:833   */\n  slt\n    /* \"#utility.yul\":798:917   */\n  iszero\n  tag_35\n  jumpi\n    /* \"#utility.yul\":836:915   */\n  tag_36\n  tag_14\n  jump\t// in\ntag_36:\n    /* \"#utility.yul\":798:917   */\ntag_35:\n    /* \"#utility.yul\":956:957   */\n  0x00\n    /* \"#utility.yul\":981:1045   */\n  tag_37\n    /* \"#utility.yul\":1037:1044   */\n  dup6\n    /* \"#utility.yul\":1028:1034   */\n  dup3\n    /* \"#utility.yul\":1017:1026   */\n  dup7\n    /* \"#utility.yul\":1013:1035   */\n  add\n    /* \"#utility.yul\":981:1045   */\n  tag_18\n  jump\t// in\ntag_37:\n    /* \"#utility.yul\":971:1045   */\n  swap3\n  pop\n    /* \"#utility.yul\":927:1055   */\n  pop\n    /* \"#utility.yul\":1094:1096   */\n  0x20\n    /* \"#utility.yul\":1120:1184   */\n  tag_38\n    /* \"#utility.yul\":1176:1183   */\n  dup6\n    /* \"#utility.yul\":1167:1173   */\n  dup3\n    /* \"#utility.yul\":1156:1165   */\n  dup7\n    /* \"#utility.yul\":1152:1174   */\n  add\n    /* \"#utility.yul\":1120:1184   */\n  tag_18\n  jump\t// in\ntag_38:\n    /* \"#utility.yul\":1110:1184   */\n  swap2\n  pop\n    /* \"#utility.yul\":1065:1194   */\n  pop\n    /* \"#utility.yul\":694:1201   */\n  swap3\n  pop\n  swap3\n  swap1\n  pop\n  jump\t// out\n    /* \"#utility.yul\":1207:1376   */\ntag_19:\n    /* \"#utility.yul\":1291:1302   */\n  0x00\n    /* \"#utility.yul\":1325:1331   */\n  dup3\n    /* \"#utility.yul\":1320:1323   */\n  dup3\n    /* \"#utility.yul\":1313:1332   */\n  mstore\n    /* \"#utility.yul\":1365:1369   */\n  0x20\n    /* \"#utility.yul\":1360:1363   */\n  dup3\n    /* \"#utility.yul\":1356:1370   */\n  add\n    /* \"#utility.yul\":1341:1370   */\n  swap1\n  pop\n    /* \"#utility.yul\":1207:1376   */\n  swap3\n  swap2\n  pop\n  pop\n  jump\t// out\n    /* \"#utility.yul\":1382:1559   */\ntag_20:\n    /* \"#utility.yul\":1522:1551   */\n  0x436869207068692068616e67207468616e672070686169203e20300000000000\n    /* \"#utility.yul\":1518:1519   */\n  0x00\n    /* \"#utility.yul\":1510:1516   */\n  dup3\n    /* \"#utility.yul\":1506:1520   */\n  add\n    /* \"#utility.yul\":1499:1552   */\n  mstore\n    /* \"#utility.yul\":1382:1559   */\n  pop\n  jump\t// out\n    /* \"#utility.yul\":1565:1931   */\ntag_21:\n    /* \"#utility.yul\":1707:1710   */\n  0x00\n    /* \"#utility.yul\":1728:1795   */\n  tag_42\n    /* \"#utility.yul\":1792:1794   */\n  0x1b\n    /* \"#utility.yul\":1787:1790   */\n  dup4\n    /* \"#utility.yul\":1728:1795   */\n  tag_19\n  jump\t// in\ntag_42:\n    /* \"#utility.yul\":1721:1795   */\n  swap2\n  pop\n    /* \"#utility.yul\":1804:1897   */\n  tag_43\n    /* \"#utility.yul\":1893:1896   */\n  dup3\n    /* \"#utility.yul\":1804:1897   */\n  tag_20\n  jump\t// in\ntag_43:\n    /* \"#utility.yul\":1922:1924   */\n  0x20\n    /* \"#utility.yul\":1917:1920   */\n  dup3\n    /* \"#utility.yul\":1913:1925   */\n  add\n    /* \"#utility.yul\":1906:1925   */\n  swap1\n  pop\n    /* \"#utility.yul\":1565:1931   */\n  swap2\n  swap1\n  pop\n  jump\t// out\n    /* \"#utility.yul\":1937:2356   */\ntag_8:\n    /* \"#utility.yul\":2103:2107   */\n  0x00\n    /* \"#utility.yul\":2141:2143   */\n  0x20\n    /* \"#utility.yul\":2130:2139   */\n  dup3\n    /* \"#utility.yul\":2126:2144   */\n  add\n    /* \"#utility.yul\":2118:2144   */\n  swap1\n  pop\n    /* \"#utility.yul\":2190:2199   */\n  dup2\n    /* \"#utility.yul\":2184:2188   */\n  dup2\n    /* \"#utility.yul\":2180:2200   */\n  sub\n    /* \"#utility.yul\":2176:2177   */\n  0x00\n    /* \"#utility.yul\":2165:2174   */\n  dup4\n    /* \"#utility.yul\":2161:2178   */\n  add\n    /* \"#utility.yul\":2154:2201   */\n  mstore\n    /* \"#utility.yul\":2218:2349   */\n  tag_45\n    /* \"#utility.yul\":2344:2348   */\n  dup2\n    /* \"#utility.yul\":2218:2349   */\n  tag_21\n  jump\t// in\ntag_45:\n    /* \"#utility.yul\":2210:2349   */\n  swap1\n  pop\n    /* \"#utility.yul\":1937:2356   */\n  swap2\n  swap1\n  pop\n  jump\t// out\n    /* \"#utility.yul\":2362:2535   */\ntag_22:\n    /* \"#utility.yul\":2502:2527   */\n  0x54686f69206769616e20746875652070686169203e2030000000000000000000\n    /* \"#utility.yul\":2498:2499   */\n  0x00\n    /* \"#utility.yul\":2490:2496   */\n  dup3\n    /* \"#utility.yul\":2486:2500   */\n  add\n    /* \"#utility.yul\":2479:2528   */\n  mstore\n    /* \"#utility.yul\":2362:2535   */\n  pop\n  jump\t// out\n    /* \"#utility.yul\":2541:2907   */\ntag_23:\n    /* \"#utility.yul\":2683:2686   */\n  0x00\n    /* \"#utility.yul\":2704:2771   */\n  tag_48\n    /* \"#utility.yul\":2768:2770   */\n  0x17\n    /* \"#utility.yul\":2763:2766   */\n  dup4\n    /* \"#utility.yul\":2704:2771   */\n  tag_19\n  jump\t// in\ntag_48:\n    /* \"#utility.yul\":2697:2771   */\n  swap2\n  pop\n    /* \"#utility.yul\":2780:2873   */\n  tag_49\n    /* \"#utility.yul\":2869:2872   */\n  dup3\n    /* \"#utility.yul\":2780:2873   */\n  tag_22\n  jump\t// in\ntag_49:\n    /* \"#utility.yul\":2898:2900   */\n  0x20\n    /* \"#utility.yul\":2893:2896   */\n  dup3\n    /* \"#utility.yul\":2889:2901   */\n  add\n    /* \"#utility.yul\":2882:2901   */\n  swap1\n  pop\n    /* \"#utility.yul\":2541:2907   */\n  swap2\n  swap1\n  pop\n  jump\t// out\n    /* \"#utility.yul\":2913:3332   */\ntag_11:\n    /* \"#utility.yul\":3079:3083   */\n  0x00\n    /* \"#utility.yul\":3117:3119   */\n  0x20\n    /* \"#utility.yul\":3106:3115   */\n  dup3\n    /* \"#utility.yul\":3102:3120   */\n  add\n    /* \"#utility.yul\":3094:3120   */\n  swap1\n  pop\n    /* \"#utility.yul\":3166:3175   */\n  dup2\n    /* \"#utility.yul\":3160:3164   */\n  dup2\n    /* \"#utility.yul\":3156:3176   */\n  sub\n    /* \"#utility.yul\":3152:3153   */\n  0x00\n    /* \"#utility.yul\":3141:3150   */\n  dup4\n    /* \"#utility.yul\":3137:3154   */\n  add\n    /* \"#utility.yul\":3130:3177   */\n  mstore\n    /* \"#utility.yul\":3194:3325   */\n  tag_51\n    /* \"#utility.yul\":3320:3324   */\n  dup2\n    /* \"#utility.yul\":3194:3325   */\n  tag_23\n  jump\t// in\ntag_51:\n    /* \"#utility.yul\":3186:3325   */\n  swap1\n  pop\n    /* \"#utility.yul\":2913:3332   */\n  swap2\n  swap1\n  pop\n  jump\t// out\n    /* \"contracts/RealEstate.sol\":57:7054  contract HopDongThueCanHo {... */\ntag_12:\n  dataSize(sub_0)\n  dup1\n  dataOffset(sub_0)\n  0x00\n  codecopy\n  0x00\n  return\nstop\n\nsub_0: assembly {\n        /* \"contracts/RealEstate.sol\":57:7054  contract HopDongThueCanHo {... */\n      mstore(0x40, 0x80)\n      jumpi(tag_1, lt(calldatasize, 0x04))\n      shr(0xe0, calldataload(0x00))\n      dup1\n      0xb7650127\n      gt\n      tag_9\n      jumpi\n      dup1\n      0xb7650127\n      eq\n      tag_5\n      jumpi\n      dup1\n      0xddca361f\n      eq\n      tag_6\n      jumpi\n      dup1\n      0xf17b93a8\n      eq\n      tag_7\n      jumpi\n      dup1\n      0xf57967c0\n      eq\n      tag_8\n      jumpi\n      jump(tag_1)\n    tag_9:\n      dup1\n      0x4ead34\n      eq\n      tag_2\n      jumpi\n      dup1\n      0x185c8b8d\n      eq\n      tag_3\n      jumpi\n      dup1\n      0x619089d3\n      eq\n      tag_4\n      jumpi\n    tag_1:\n      revert(0x00, 0x00)\n        /* \"contracts/RealEstate.sol\":5439:7052  function chamDutHopDong() external {... */\n    tag_2:\n      callvalue\n      dup1\n      iszero\n      tag_10\n      jumpi\n      revert(0x00, 0x00)\n    tag_10:\n      pop\n      tag_11\n      tag_12\n      jump\t// in\n    tag_11:\n      stop\n        /* \"contracts/RealEstate.sol\":2744:4041  function rutTien(uint256 soThangMuonRut) external {... */\n    tag_3:\n      callvalue\n      dup1\n      iszero\n      tag_13\n      jumpi\n      revert(0x00, 0x00)\n    tag_13:\n      pop\n      tag_14\n      0x04\n      dup1\n      calldatasize\n      sub\n      dup2\n      add\n      swap1\n      tag_15\n      swap2\n      swap1\n      tag_16\n      jump\t// in\n    tag_15:\n      tag_17\n      jump\t// in\n    tag_14:\n      stop\n        /* \"contracts/RealEstate.sol\":1983:2738  function kyHopDong() external payable {... */\n    tag_4:\n      tag_18\n      tag_19\n      jump\t// in\n    tag_18:\n      stop\n        /* \"contracts/RealEstate.sol\":4047:5433  function giaHanHopDong(uint256 soThangThem) external payable {... */\n    tag_5:\n      tag_20\n      0x04\n      dup1\n      calldatasize\n      sub\n      dup2\n      add\n      swap1\n      tag_21\n      swap2\n      swap1\n      tag_16\n      jump\t// in\n    tag_21:\n      tag_22\n      jump\t// in\n    tag_20:\n      stop\n        /* \"contracts/RealEstate.sol\":949:1977  function xemTinhTrangThue()... */\n    tag_6:\n      callvalue\n      dup1\n      iszero\n      tag_23\n      jumpi\n      revert(0x00, 0x00)\n    tag_23:\n      pop\n      tag_24\n      tag_25\n      jump\t// in\n    tag_24:\n      mload(0x40)\n      tag_26\n      swap5\n      swap4\n      swap3\n      swap2\n      swap1\n      tag_27\n      jump\t// in\n    tag_26:\n      mload(0x40)\n      dup1\n      swap2\n      sub\n      swap1\n      return\n        /* \"contracts/RealEstate.sol\":402:432  ThongTinNha public thongTinNha */\n    tag_7:\n      callvalue\n      dup1\n      iszero\n      tag_28\n      jumpi\n      revert(0x00, 0x00)\n    tag_28:\n      pop\n      tag_29\n      tag_30\n      jump\t// in\n    tag_29:\n      mload(0x40)\n      tag_31\n      swap5\n      swap4\n      swap3\n      swap2\n      swap1\n      tag_32\n      jump\t// in\n    tag_31:\n      mload(0x40)\n      dup1\n      swap2\n      sub\n      swap1\n      return\n        /* \"contracts/RealEstate.sol\":477:524  mapping(address => uint256) public soDuTaiKhoan */\n    tag_8:\n      callvalue\n      dup1\n      iszero\n      tag_33\n      jumpi\n      revert(0x00, 0x00)\n    tag_33:\n      pop\n      tag_34\n      0x04\n      dup1\n      calldatasize\n      sub\n      dup2\n      add\n      swap1\n      tag_35\n      swap2\n      swap1\n      tag_36\n      jump\t// in\n    tag_35:\n      tag_37\n      jump\t// in\n    tag_34:\n      mload(0x40)\n      tag_38\n      swap2\n      swap1\n      tag_39\n      jump\t// in\n    tag_38:\n      mload(0x40)\n      dup1\n      swap2\n      sub\n      swap1\n      return\n        /* \"contracts/RealEstate.sol\":5439:7052  function chamDutHopDong() external {... */\n    tag_12:\n        /* \"contracts/RealEstate.sol\":5492:5503  thongTinNha */\n      0x00\n        /* \"contracts/RealEstate.sol\":5492:5517  thongTinNha.hopDongDuocKy */\n      0x03\n      add\n      0x00\n      swap1\n      sload\n      swap1\n      0x0100\n      exp\n      swap1\n      div\n      0xff\n      and\n        /* \"contracts/RealEstate.sol\":5484:5538  require(thongTinNha.hopDongDuocKy, \"Chua co hop dong\") */\n      tag_41\n      jumpi\n      mload(0x40)\n      0x08c379a000000000000000000000000000000000000000000000000000000000\n      dup2\n      mstore\n      0x04\n      add\n      tag_42\n      swap1\n      tag_43\n      jump\t// in\n    tag_42:\n      mload(0x40)\n      dup1\n      swap2\n      sub\n      swap1\n      revert\n    tag_41:\n        /* \"contracts/RealEstate.sol\":5583:5595  thongTinThue */\n      0x04\n        /* \"contracts/RealEstate.sol\":5583:5605  thongTinThue.nguoiThue */\n      0x00\n      add\n      0x00\n      swap1\n      sload\n      swap1\n      0x0100\n      exp\n      swap1\n      div\n      0xffffffffffffffffffffffffffffffffffffffff\n      and\n        /* \"contracts/RealEstate.sol\":5569:5605  msg.sender == thongTinThue.nguoiThue */\n      0xffffffffffffffffffffffffffffffffffffffff\n      and\n        /* \"contracts/RealEstate.sol\":5569:5579  msg.sender */\n      caller\n        /* \"contracts/RealEstate.sol\":5569:5605  msg.sender == thongTinThue.nguoiThue */\n      0xffffffffffffffffffffffffffffffffffffffff\n      and\n      eq\n        /* \"contracts/RealEstate.sol\":5569:5657  msg.sender == thongTinThue.nguoiThue ||... */\n      dup1\n      tag_44\n      jumpi\n      pop\n        /* \"contracts/RealEstate.sol\":5639:5650  thongTinNha */\n      0x00\n        /* \"contracts/RealEstate.sol\":5639:5657  thongTinNha.chuNha */\n      0x00\n      add\n      0x00\n      swap1\n      sload\n      swap1\n      0x0100\n      exp\n      swap1\n      div\n      0xffffffffffffffffffffffffffffffffffffffff\n      and\n        /* \"contracts/RealEstate.sol\":5625:5657  msg.sender == thongTinNha.chuNha */\n      0xffffffffffffffffffffffffffffffffffffffff\n      and\n        /* \"contracts/RealEstate.sol\":5625:5635  msg.sender */\n      caller\n        /* \"contracts/RealEstate.sol\":5625:5657  msg.sender == thongTinNha.chuNha */\n      0xffffffffffffffffffffffffffffffffffffffff\n      and\n      eq\n        /* \"contracts/RealEstate.sol\":5569:5657  msg.sender == thongTinThue.nguoiThue ||... */\n    tag_44:\n        /* \"contracts/RealEstate.sol\":5548:5723  require(... */\n      tag_45\n      jumpi\n      mload(0x40)\n      0x08c379a000000000000000000000000000000000000000000000000000000000\n      dup2\n      mstore\n      0x04\n      add\n      tag_46\n      swap1\n      tag_47\n      jump\t// in\n    tag_46:\n      mload(0x40)\n      dup1\n      swap2\n      sub\n      swap1\n      revert\n    tag_45:\n        /* \"contracts/RealEstate.sol\":5734:5755  uint256 tongThangThue */\n      0x00\n        /* \"contracts/RealEstate.sol\":5758:5769  thongTinNha */\n      0x00\n        /* \"contracts/RealEstate.sol\":5758:5787  thongTinNha.thoiGianThueThang */\n      0x02\n      add\n      sload\n        /* \"contracts/RealEstate.sol\":5734:5787  uint256 tongThangThue = thongTinNha.thoiGianThueThang */\n      swap1\n      pop\n        /* \"contracts/RealEstate.sol\":5797:5820  uint256 soThangDaSuDung */\n      0x00\n        /* \"contracts/RealEstate.sol\":5885:5895  10 seconds */\n      0x0a\n        /* \"contracts/RealEstate.sol\":5854:5866  thongTinThue */\n      0x04\n        /* \"contracts/RealEstate.sol\":5854:5881  thongTinThue.thoiDiemBatDau */\n      0x01\n      add\n      sload\n        /* \"contracts/RealEstate.sol\":5824:5839  block.timestamp */\n      timestamp\n        /* \"contracts/RealEstate.sol\":5824:5881  block.timestamp -... */\n      tag_48\n      swap2\n      swap1\n      tag_49\n      jump\t// in\n    tag_48:\n        /* \"contracts/RealEstate.sol\":5823:5895  (block.timestamp -... */\n      tag_50\n      swap2\n      swap1\n      tag_51\n      jump\t// in\n    tag_50:\n        /* \"contracts/RealEstate.sol\":5797:5895  uint256 soThangDaSuDung = (block.timestamp -... */\n      swap1\n      pop\n        /* \"contracts/RealEstate.sol\":5928:5941  tongThangThue */\n      dup2\n        /* \"contracts/RealEstate.sol\":5910:5925  soThangDaSuDung */\n      dup2\n        /* \"contracts/RealEstate.sol\":5910:5941  soThangDaSuDung > tongThangThue */\n      gt\n        /* \"contracts/RealEstate.sol\":5906:5999  if (soThangDaSuDung > tongThangThue) {... */\n      iszero\n      tag_52\n      jumpi\n        /* \"contracts/RealEstate.sol\":5975:5988  tongThangThue */\n      dup2\n        /* \"contracts/RealEstate.sol\":5957:5988  soThangDaSuDung = tongThangThue */\n      swap1\n      pop\n        /* \"contracts/RealEstate.sol\":5906:5999  if (soThangDaSuDung > tongThangThue) {... */\n    tag_52:\n        /* \"contracts/RealEstate.sol\":6009:6036  uint256 soTienChuaThanhToan */\n      0x00\n        /* \"contracts/RealEstate.sol\":6105:6116  thongTinNha */\n      0x00\n        /* \"contracts/RealEstate.sol\":6105:6132  thongTinNha.chiPhiHangThang */\n      0x01\n      add\n      sload\n        /* \"contracts/RealEstate.sol\":6070:6082  thongTinThue */\n      0x04\n        /* \"contracts/RealEstate.sol\":6070:6101  thongTinThue.soThangDaThanhToan */\n      0x02\n      add\n      sload\n        /* \"contracts/RealEstate.sol\":6040:6055  soThangDaSuDung */\n      dup4\n        /* \"contracts/RealEstate.sol\":6040:6101  soThangDaSuDung -... */\n      tag_53\n      swap2\n      swap1\n      tag_49\n      jump\t// in\n    tag_53:\n        /* \"contracts/RealEstate.sol\":6039:6132  (soThangDaSuDung -... */\n      tag_54\n      swap2\n      swap1\n      tag_55\n      jump\t// in\n    tag_54:\n        /* \"contracts/RealEstate.sol\":6009:6132  uint256 soTienChuaThanhToan = (soThangDaSuDung -... */\n      swap1\n      pop\n        /* \"contracts/RealEstate.sol\":6143:6162  uint256 tienHoanLai */\n      0x00\n        /* \"contracts/RealEstate.sol\":6216:6235  soTienChuaThanhToan */\n      dup2\n        /* \"contracts/RealEstate.sol\":6165:6177  soDuTaiKhoan */\n      0x08\n        /* \"contracts/RealEstate.sol\":6165:6201  soDuTaiKhoan[thongTinThue.nguoiThue] */\n      0x00\n        /* \"contracts/RealEstate.sol\":6178:6190  thongTinThue */\n      0x04\n        /* \"contracts/RealEstate.sol\":6178:6200  thongTinThue.nguoiThue */\n      0x00\n      add\n      0x00\n      swap1\n      sload\n      swap1\n      0x0100\n      exp\n      swap1\n      div\n      0xffffffffffffffffffffffffffffffffffffffff\n      and\n        /* \"contracts/RealEstate.sol\":6165:6201  soDuTaiKhoan[thongTinThue.nguoiThue] */\n      0xffffffffffffffffffffffffffffffffffffffff\n      and\n      0xffffffffffffffffffffffffffffffffffffffff\n      and\n      dup2\n      mstore\n      0x20\n      add\n      swap1\n      dup2\n      mstore\n      0x20\n      add\n      0x00\n      keccak256\n      sload\n        /* \"contracts/RealEstate.sol\":6165:6235  soDuTaiKhoan[thongTinThue.nguoiThue] -... */\n      tag_56\n      swap2\n      swap1\n      tag_49\n      jump\t// in\n    tag_56:\n        /* \"contracts/RealEstate.sol\":6143:6235  uint256 tienHoanLai = soDuTaiKhoan[thongTinThue.nguoiThue] -... */\n      swap1\n      pop\n        /* \"contracts/RealEstate.sol\":6335:6336  0 */\n      0x00\n        /* \"contracts/RealEstate.sol\":6321:6332  tienHoanLai */\n      dup2\n        /* \"contracts/RealEstate.sol\":6321:6336  tienHoanLai > 0 */\n      gt\n        /* \"contracts/RealEstate.sol\":6317:6563  if (tienHoanLai > 0) {... */\n      iszero\n      tag_57\n      jumpi\n        /* \"contracts/RealEstate.sol\":6353:6365  bool success */\n      0x00\n        /* \"contracts/RealEstate.sol\":6379:6389  msg.sender */\n      caller\n        /* \"contracts/RealEstate.sol\":6371:6395  payable(msg.sender).call */\n      0xffffffffffffffffffffffffffffffffffffffff\n      and\n        /* \"contracts/RealEstate.sol\":6403:6414  tienHoanLai */\n      dup3\n        /* \"contracts/RealEstate.sol\":6371:6419  payable(msg.sender).call{value: tienHoanLai}(\"\") */\n      mload(0x40)\n      tag_58\n      swap1\n      tag_59\n      jump\t// in\n    tag_58:\n      0x00\n      mload(0x40)\n      dup1\n      dup4\n      sub\n      dup2\n      dup6\n      dup8\n      gas\n      call\n      swap3\n      pop\n      pop\n      pop\n      returndatasize\n      dup1\n      0x00\n      dup2\n      eq\n      tag_62\n      jumpi\n      mload(0x40)\n      swap2\n      pop\n      and(add(returndatasize, 0x3f), not(0x1f))\n      dup3\n      add\n      0x40\n      mstore\n      returndatasize\n      dup3\n      mstore\n      returndatasize\n      0x00\n      0x20\n      dup5\n      add\n      returndatacopy\n      jump(tag_61)\n    tag_62:\n      0x60\n      swap2\n      pop\n    tag_61:\n      pop\n        /* \"contracts/RealEstate.sol\":6352:6419  (bool success, ) = payable(msg.sender).call{value: tienHoanLai}(\"\") */\n      pop\n      swap1\n      pop\n        /* \"contracts/RealEstate.sol\":6441:6448  success */\n      dup1\n        /* \"contracts/RealEstate.sol\":6433:6473  require(success, \"Chuyen tien that bai\") */\n      tag_63\n      jumpi\n      mload(0x40)\n      0x08c379a000000000000000000000000000000000000000000000000000000000\n      dup2\n      mstore\n      0x04\n      add\n      tag_64\n      swap1\n      tag_65\n      jump\t// in\n    tag_64:\n      mload(0x40)\n      dup1\n      swap2\n      sub\n      swap1\n      revert\n    tag_63:\n        /* \"contracts/RealEstate.sol\":6526:6527  0 */\n      0x00\n        /* \"contracts/RealEstate.sol\":6487:6499  soDuTaiKhoan */\n      0x08\n        /* \"contracts/RealEstate.sol\":6487:6523  soDuTaiKhoan[thongTinThue.nguoiThue] */\n      0x00\n        /* \"contracts/RealEstate.sol\":6500:6512  thongTinThue */\n      0x04\n        /* \"contracts/RealEstate.sol\":6500:6522  thongTinThue.nguoiThue */\n      0x00\n      add\n      0x00\n      swap1\n      sload\n      swap1\n      0x0100\n      exp\n      swap1\n      div\n      0xffffffffffffffffffffffffffffffffffffffff\n      and\n        /* \"contracts/RealEstate.sol\":6487:6523  soDuTaiKhoan[thongTinThue.nguoiThue] */\n      0xffffffffffffffffffffffffffffffffffffffff\n      and\n      0xffffffffffffffffffffffffffffffffffffffff\n      and\n      dup2\n      mstore\n      0x20\n      add\n      swap1\n      dup2\n      mstore\n      0x20\n      add\n      0x00\n      keccak256\n        /* \"contracts/RealEstate.sol\":6487:6527  soDuTaiKhoan[thongTinThue.nguoiThue] = 0 */\n      dup2\n      swap1\n      sstore\n      pop\n        /* \"contracts/RealEstate.sol\":6338:6563  {... */\n      pop\n        /* \"contracts/RealEstate.sol\":6317:6563  if (tienHoanLai > 0) {... */\n    tag_57:\n        /* \"contracts/RealEstate.sol\":6664:6665  0 */\n      0x00\n        /* \"contracts/RealEstate.sol\":6642:6661  soTienChuaThanhToan */\n      dup3\n        /* \"contracts/RealEstate.sol\":6642:6665  soTienChuaThanhToan > 0 */\n      gt\n        /* \"contracts/RealEstate.sol\":6638:6747  if (soTienChuaThanhToan > 0) {... */\n      iszero\n      tag_66\n      jumpi\n        /* \"contracts/RealEstate.sol\":6717:6736  soTienChuaThanhToan */\n      dup2\n        /* \"contracts/RealEstate.sol\":6681:6693  soDuTaiKhoan */\n      0x08\n        /* \"contracts/RealEstate.sol\":6681:6713  soDuTaiKhoan[thongTinNha.chuNha] */\n      0x00\n        /* \"contracts/RealEstate.sol\":6694:6705  thongTinNha */\n      0x00\n        /* \"contracts/RealEstate.sol\":6694:6712  thongTinNha.chuNha */\n      0x00\n      add\n      0x00\n      swap1\n      sload\n      swap1\n      0x0100\n      exp\n      swap1\n      div\n      0xffffffffffffffffffffffffffffffffffffffff\n      and\n        /* \"contracts/RealEstate.sol\":6681:6713  soDuTaiKhoan[thongTinNha.chuNha] */\n      0xffffffffffffffffffffffffffffffffffffffff\n      and\n      0xffffffffffffffffffffffffffffffffffffffff\n      and\n      dup2\n      mstore\n      0x20\n      add\n      swap1\n      dup2\n      mstore\n      0x20\n      add\n      0x00\n      keccak256\n      0x00\n        /* \"contracts/RealEstate.sol\":6681:6736  soDuTaiKhoan[thongTinNha.chuNha] += soTienChuaThanhToan */\n      dup3\n      dup3\n      sload\n      tag_67\n      swap2\n      swap1\n      tag_68\n      jump\t// in\n    tag_67:\n      swap3\n      pop\n      pop\n      dup2\n      swap1\n      sstore\n      pop\n        /* \"contracts/RealEstate.sol\":6638:6747  if (soTienChuaThanhToan > 0) {... */\n    tag_66:\n        /* \"contracts/RealEstate.sol\":6823:6828  false */\n      0x00\n        /* \"contracts/RealEstate.sol\":6795:6806  thongTinNha */\n      0x00\n        /* \"contracts/RealEstate.sol\":6795:6820  thongTinNha.hopDongDuocKy */\n      0x03\n      add\n      0x00\n        /* \"contracts/RealEstate.sol\":6795:6828  thongTinNha.hopDongDuocKy = false */\n      0x0100\n      exp\n      dup2\n      sload\n      dup2\n      0xff\n      mul\n      not\n      and\n      swap1\n      dup4\n      iszero\n      iszero\n      mul\n      or\n      swap1\n      sstore\n      pop\n        /* \"contracts/RealEstate.sol\":6915:6916  0 */\n      0x00\n        /* \"contracts/RealEstate.sol\":6882:6894  thongTinThue */\n      0x04\n        /* \"contracts/RealEstate.sol\":6882:6904  thongTinThue.nguoiThue */\n      0x00\n      add\n      0x00\n        /* \"contracts/RealEstate.sol\":6882:6917  thongTinThue.nguoiThue = address(0) */\n      0x0100\n      exp\n      dup2\n      sload\n      dup2\n      0xffffffffffffffffffffffffffffffffffffffff\n      mul\n      not\n      and\n      swap1\n      dup4\n      0xffffffffffffffffffffffffffffffffffffffff\n      and\n      mul\n      or\n      swap1\n      sstore\n      pop\n        /* \"contracts/RealEstate.sol\":6957:6958  0 */\n      0x00\n        /* \"contracts/RealEstate.sol\":6927:6939  thongTinThue */\n      0x04\n        /* \"contracts/RealEstate.sol\":6927:6954  thongTinThue.thoiDiemBatDau */\n      0x01\n      add\n        /* \"contracts/RealEstate.sol\":6927:6958  thongTinThue.thoiDiemBatDau = 0 */\n      dup2\n      swap1\n      sstore\n      pop\n        /* \"contracts/RealEstate.sol\":7002:7003  0 */\n      0x00\n        /* \"contracts/RealEstate.sol\":6968:6980  thongTinThue */\n      0x04\n        /* \"contracts/RealEstate.sol\":6968:6999  thongTinThue.soThangDaThanhToan */\n      0x02\n      add\n        /* \"contracts/RealEstate.sol\":6968:7003  thongTinThue.soThangDaThanhToan = 0 */\n      dup2\n      swap1\n      sstore\n      pop\n        /* \"contracts/RealEstate.sol\":7044:7045  0 */\n      0x00\n        /* \"contracts/RealEstate.sol\":7013:7025  thongTinThue */\n      0x04\n        /* \"contracts/RealEstate.sol\":7013:7041  thongTinThue.thoiDiemKetThuc */\n      0x03\n      add\n        /* \"contracts/RealEstate.sol\":7013:7045  thongTinThue.thoiDiemKetThuc = 0 */\n      dup2\n      swap1\n      sstore\n      pop\n        /* \"contracts/RealEstate.sol\":5474:7052  {... */\n      pop\n      pop\n      pop\n      pop\n        /* \"contracts/RealEstate.sol\":5439:7052  function chamDutHopDong() external {... */\n      jump\t// out\n        /* \"contracts/RealEstate.sol\":2744:4041  function rutTien(uint256 soThangMuonRut) external {... */\n    tag_17:\n        /* \"contracts/RealEstate.sol\":2839:2850  thongTinNha */\n      0x00\n        /* \"contracts/RealEstate.sol\":2839:2857  thongTinNha.chuNha */\n      0x00\n      add\n      0x00\n      swap1\n      sload\n      swap1\n      0x0100\n      exp\n      swap1\n      div\n      0xffffffffffffffffffffffffffffffffffffffff\n      and\n        /* \"contracts/RealEstate.sol\":2825:2857  msg.sender == thongTinNha.chuNha */\n      0xffffffffffffffffffffffffffffffffffffffff\n      and\n        /* \"contracts/RealEstate.sol\":2825:2835  msg.sender */\n      caller\n        /* \"contracts/RealEstate.sol\":2825:2857  msg.sender == thongTinNha.chuNha */\n      0xffffffffffffffffffffffffffffffffffffffff\n      and\n      eq\n        /* \"contracts/RealEstate.sol\":2804:2912  require(... */\n      tag_70\n      jumpi\n      mload(0x40)\n      0x08c379a000000000000000000000000000000000000000000000000000000000\n      dup2\n      mstore\n      0x04\n      add\n      tag_71\n      swap1\n      tag_72\n      jump\t// in\n    tag_71:\n      mload(0x40)\n      dup1\n      swap2\n      sub\n      swap1\n      revert\n    tag_70:\n        /* \"contracts/RealEstate.sol\":2930:2941  thongTinNha */\n      0x00\n        /* \"contracts/RealEstate.sol\":2930:2955  thongTinNha.hopDongDuocKy */\n      0x03\n      add\n      0x00\n      swap1\n      sload\n      swap1\n      0x0100\n      exp\n      swap1\n      div\n      0xff\n      and\n        /* \"contracts/RealEstate.sol\":2922:2983  require(thongTinNha.hopDongDuocKy, \"Chua co hop dong hop le\") */\n      tag_73\n      jumpi\n      mload(0x40)\n      0x08c379a000000000000000000000000000000000000000000000000000000000\n      dup2\n      mstore\n      0x04\n      add\n      tag_74\n      swap1\n      tag_75\n      jump\t// in\n    tag_74:\n      mload(0x40)\n      dup1\n      swap2\n      sub\n      swap1\n      revert\n    tag_73:\n        /* \"contracts/RealEstate.sol\":3048:3059  thongTinNha */\n      0x00\n        /* \"contracts/RealEstate.sol\":3048:3077  thongTinNha.thoiGianThueThang */\n      0x02\n      add\n      sload\n        /* \"contracts/RealEstate.sol\":3014:3026  thongTinThue */\n      0x04\n        /* \"contracts/RealEstate.sol\":3014:3045  thongTinThue.soThangDaThanhToan */\n      0x02\n      add\n      sload\n        /* \"contracts/RealEstate.sol\":3014:3077  thongTinThue.soThangDaThanhToan < thongTinNha.thoiGianThueThang */\n      lt\n        /* \"contracts/RealEstate.sol\":2993:3134  require(... */\n      tag_76\n      jumpi\n      mload(0x40)\n      0x08c379a000000000000000000000000000000000000000000000000000000000\n      dup2\n      mstore\n      0x04\n      add\n      tag_77\n      swap1\n      tag_78\n      jump\t// in\n    tag_77:\n      mload(0x40)\n      dup1\n      swap2\n      sub\n      swap1\n      revert\n    tag_76:\n        /* \"contracts/RealEstate.sol\":3145:3166  uint256 soThangDaThue */\n      0x00\n        /* \"contracts/RealEstate.sol\":3231:3241  10 seconds */\n      0x0a\n        /* \"contracts/RealEstate.sol\":3200:3212  thongTinThue */\n      0x04\n        /* \"contracts/RealEstate.sol\":3200:3227  thongTinThue.thoiDiemBatDau */\n      0x01\n      add\n      sload\n        /* \"contracts/RealEstate.sol\":3170:3185  block.timestamp */\n      timestamp\n        /* \"contracts/RealEstate.sol\":3170:3227  block.timestamp -... */\n      tag_79\n      swap2\n      swap1\n      tag_49\n      jump\t// in\n    tag_79:\n        /* \"contracts/RealEstate.sol\":3169:3241  (block.timestamp -... */\n      tag_80\n      swap2\n      swap1\n      tag_51\n      jump\t// in\n    tag_80:\n        /* \"contracts/RealEstate.sol\":3145:3241  uint256 soThangDaThue = (block.timestamp -... */\n      swap1\n      pop\n        /* \"contracts/RealEstate.sol\":3252:3273  uint256 soThangChoRut */\n      0x00\n        /* \"contracts/RealEstate.sol\":3276:3289  soThangDaThue */\n      dup2\n        /* \"contracts/RealEstate.sol\":3252:3289  uint256 soThangChoRut = soThangDaThue */\n      swap1\n      pop\n        /* \"contracts/RealEstate.sol\":3338:3352  soThangMuonRut */\n      dup3\n        /* \"contracts/RealEstate.sol\":3321:3334  soThangChoRut */\n      dup2\n        /* \"contracts/RealEstate.sol\":3321:3352  soThangChoRut >= soThangMuonRut */\n      lt\n      iszero\n        /* \"contracts/RealEstate.sol\":3300:3406  require(... */\n      tag_81\n      jumpi\n      mload(0x40)\n      0x08c379a000000000000000000000000000000000000000000000000000000000\n      dup2\n      mstore\n      0x04\n      add\n      tag_82\n      swap1\n      tag_83\n      jump\t// in\n    tag_82:\n      mload(0x40)\n      dup1\n      swap2\n      sub\n      swap1\n      revert\n    tag_81:\n        /* \"contracts/RealEstate.sol\":3521:3535  soThangMuonRut */\n      dup3\n        /* \"contracts/RealEstate.sol\":3470:3482  thongTinThue */\n      0x04\n        /* \"contracts/RealEstate.sol\":3470:3501  thongTinThue.soThangDaThanhToan */\n      0x02\n      add\n      sload\n        /* \"contracts/RealEstate.sol\":3438:3449  thongTinNha */\n      0x00\n        /* \"contracts/RealEstate.sol\":3438:3467  thongTinNha.thoiGianThueThang */\n      0x02\n      add\n      sload\n        /* \"contracts/RealEstate.sol\":3438:3501  thongTinNha.thoiGianThueThang - thongTinThue.soThangDaThanhToan */\n      tag_84\n      swap2\n      swap1\n      tag_49\n      jump\t// in\n    tag_84:\n        /* \"contracts/RealEstate.sol\":3438:3535  thongTinNha.thoiGianThueThang - thongTinThue.soThangDaThanhToan >=... */\n      lt\n      iszero\n        /* \"contracts/RealEstate.sol\":3417:3607  require(... */\n      tag_85\n      jumpi\n      mload(0x40)\n      0x08c379a000000000000000000000000000000000000000000000000000000000\n      dup2\n      mstore\n      0x04\n      add\n      tag_86\n      swap1\n      tag_87\n      jump\t// in\n    tag_86:\n      mload(0x40)\n      dup1\n      swap2\n      sub\n      swap1\n      revert\n    tag_85:\n        /* \"contracts/RealEstate.sol\":3618:3635  uint256 soTienRut */\n      0x00\n        /* \"contracts/RealEstate.sol\":3655:3666  thongTinNha */\n      0x00\n        /* \"contracts/RealEstate.sol\":3655:3682  thongTinNha.chiPhiHangThang */\n      0x01\n      add\n      sload\n        /* \"contracts/RealEstate.sol\":3638:3652  soThangMuonRut */\n      dup5\n        /* \"contracts/RealEstate.sol\":3638:3682  soThangMuonRut * thongTinNha.chiPhiHangThang */\n      tag_88\n      swap2\n      swap1\n      tag_55\n      jump\t// in\n    tag_88:\n        /* \"contracts/RealEstate.sol\":3618:3682  uint256 soTienRut = soThangMuonRut * thongTinNha.chiPhiHangThang */\n      swap1\n      pop\n        /* \"contracts/RealEstate.sol\":3753:3762  soTienRut */\n      dup1\n        /* \"contracts/RealEstate.sol\":3713:3725  soDuTaiKhoan */\n      0x08\n        /* \"contracts/RealEstate.sol\":3713:3749  soDuTaiKhoan[thongTinThue.nguoiThue] */\n      0x00\n        /* \"contracts/RealEstate.sol\":3726:3738  thongTinThue */\n      0x04\n        /* \"contracts/RealEstate.sol\":3726:3748  thongTinThue.nguoiThue */\n      0x00\n      add\n      0x00\n      swap1\n      sload\n      swap1\n      0x0100\n      exp\n      swap1\n      div\n      0xffffffffffffffffffffffffffffffffffffffff\n      and\n        /* \"contracts/RealEstate.sol\":3713:3749  soDuTaiKhoan[thongTinThue.nguoiThue] */\n      0xffffffffffffffffffffffffffffffffffffffff\n      and\n      0xffffffffffffffffffffffffffffffffffffffff\n      and\n      dup2\n      mstore\n      0x20\n      add\n      swap1\n      dup2\n      mstore\n      0x20\n      add\n      0x00\n      keccak256\n      sload\n        /* \"contracts/RealEstate.sol\":3713:3762  soDuTaiKhoan[thongTinThue.nguoiThue] >= soTienRut */\n      lt\n      iszero\n        /* \"contracts/RealEstate.sol\":3692:3802  require(... */\n      tag_89\n      jumpi\n      mload(0x40)\n      0x08c379a000000000000000000000000000000000000000000000000000000000\n      dup2\n      mstore\n      0x04\n      add\n      tag_90\n      swap1\n      tag_91\n      jump\t// in\n    tag_90:\n      mload(0x40)\n      dup1\n      swap2\n      sub\n      swap1\n      revert\n    tag_89:\n        /* \"contracts/RealEstate.sol\":3853:3862  soTienRut */\n      dup1\n        /* \"contracts/RealEstate.sol\":3813:3825  soDuTaiKhoan */\n      0x08\n        /* \"contracts/RealEstate.sol\":3813:3849  soDuTaiKhoan[thongTinThue.nguoiThue] */\n      0x00\n        /* \"contracts/RealEstate.sol\":3826:3838  thongTinThue */\n      0x04\n        /* \"contracts/RealEstate.sol\":3826:3848  thongTinThue.nguoiThue */\n      0x00\n      add\n      0x00\n      swap1\n      sload\n      swap1\n      0x0100\n      exp\n      swap1\n      div\n      0xffffffffffffffffffffffffffffffffffffffff\n      and\n        /* \"contracts/RealEstate.sol\":3813:3849  soDuTaiKhoan[thongTinThue.nguoiThue] */\n      0xffffffffffffffffffffffffffffffffffffffff\n      and\n      0xffffffffffffffffffffffffffffffffffffffff\n      and\n      dup2\n      mstore\n      0x20\n      add\n      swap1\n      dup2\n      mstore\n      0x20\n      add\n      0x00\n      keccak256\n      0x00\n        /* \"contracts/RealEstate.sol\":3813:3862  soDuTaiKhoan[thongTinThue.nguoiThue] -= soTienRut */\n      dup3\n      dup3\n      sload\n      tag_92\n      swap2\n      swap1\n      tag_49\n      jump\t// in\n    tag_92:\n      swap3\n      pop\n      pop\n      dup2\n      swap1\n      sstore\n      pop\n        /* \"contracts/RealEstate.sol\":3908:3917  soTienRut */\n      dup1\n        /* \"contracts/RealEstate.sol\":3872:3884  soDuTaiKhoan */\n      0x08\n        /* \"contracts/RealEstate.sol\":3872:3904  soDuTaiKhoan[thongTinNha.chuNha] */\n      0x00\n        /* \"contracts/RealEstate.sol\":3885:3896  thongTinNha */\n      0x00\n        /* \"contracts/RealEstate.sol\":3885:3903  thongTinNha.chuNha */\n      0x00\n      add\n      0x00\n      swap1\n      sload\n      swap1\n      0x0100\n      exp\n      swap1\n      div\n      0xffffffffffffffffffffffffffffffffffffffff\n      and\n        /* \"contracts/RealEstate.sol\":3872:3904  soDuTaiKhoan[thongTinNha.chuNha] */\n      0xffffffffffffffffffffffffffffffffffffffff\n      and\n      0xffffffffffffffffffffffffffffffffffffffff\n      and\n      dup2\n      mstore\n      0x20\n      add\n      swap1\n      dup2\n      mstore\n      0x20\n      add\n      0x00\n      keccak256\n      0x00\n        /* \"contracts/RealEstate.sol\":3872:3917  soDuTaiKhoan[thongTinNha.chuNha] += soTienRut */\n      dup3\n      dup3\n      sload\n      tag_93\n      swap2\n      swap1\n      tag_68\n      jump\t// in\n    tag_93:\n      swap3\n      pop\n      pop\n      dup2\n      swap1\n      sstore\n      pop\n        /* \"contracts/RealEstate.sol\":3962:3976  soThangMuonRut */\n      dup4\n        /* \"contracts/RealEstate.sol\":3927:3939  thongTinThue */\n      0x04\n        /* \"contracts/RealEstate.sol\":3927:3958  thongTinThue.soThangDaThanhToan */\n      0x02\n      add\n      0x00\n        /* \"contracts/RealEstate.sol\":3927:3976  thongTinThue.soThangDaThanhToan += soThangMuonRut */\n      dup3\n      dup3\n      sload\n      tag_94\n      swap2\n      swap1\n      tag_68\n      jump\t// in\n    tag_94:\n      swap3\n      pop\n      pop\n      dup2\n      swap1\n      sstore\n      pop\n        /* \"contracts/RealEstate.sol\":3995:4006  thongTinNha */\n      0x00\n        /* \"contracts/RealEstate.sol\":3995:4013  thongTinNha.chuNha */\n      0x00\n      add\n      0x00\n      swap1\n      sload\n      swap1\n      0x0100\n      exp\n      swap1\n      div\n      0xffffffffffffffffffffffffffffffffffffffff\n      and\n        /* \"contracts/RealEstate.sol\":3987:4023  payable(thongTinNha.chuNha).transfer */\n      0xffffffffffffffffffffffffffffffffffffffff\n      and\n        /* \"contracts/RealEstate.sol\":3987:4034  payable(thongTinNha.chuNha).transfer(soTienRut) */\n      0x08fc\n        /* \"contracts/RealEstate.sol\":4024:4033  soTienRut */\n      dup3\n        /* \"contracts/RealEstate.sol\":3987:4034  payable(thongTinNha.chuNha).transfer(soTienRut) */\n      swap1\n      dup2\n      iszero\n      mul\n      swap1\n      mload(0x40)\n      0x00\n      mload(0x40)\n      dup1\n      dup4\n      sub\n      dup2\n      dup6\n      dup9\n      dup9\n      call\n      swap4\n      pop\n      pop\n      pop\n      pop\n      iszero\n      dup1\n      iszero\n      tag_96\n      jumpi\n      returndatacopy(0x00, 0x00, returndatasize)\n      revert(0x00, returndatasize)\n    tag_96:\n      pop\n        /* \"contracts/RealEstate.sol\":2794:4041  {... */\n      pop\n      pop\n      pop\n        /* \"contracts/RealEstate.sol\":2744:4041  function rutTien(uint256 soThangMuonRut) external {... */\n      pop\n      jump\t// out\n        /* \"contracts/RealEstate.sol\":1983:2738  function kyHopDong() external payable {... */\n    tag_19:\n        /* \"contracts/RealEstate.sol\":2040:2051  thongTinNha */\n      0x00\n        /* \"contracts/RealEstate.sol\":2040:2065  thongTinNha.hopDongDuocKy */\n      0x03\n      add\n      0x00\n      swap1\n      sload\n      swap1\n      0x0100\n      exp\n      swap1\n      div\n      0xff\n      and\n        /* \"contracts/RealEstate.sol\":2039:2065  !thongTinNha.hopDongDuocKy */\n      iszero\n        /* \"contracts/RealEstate.sol\":2031:2089  require(!thongTinNha.hopDongDuocKy, \"Hop dong da duoc ky\") */\n      tag_98\n      jumpi\n      mload(0x40)\n      0x08c379a000000000000000000000000000000000000000000000000000000000\n      dup2\n      mstore\n      0x04\n      add\n      tag_99\n      swap1\n      tag_100\n      jump\t// in\n    tag_99:\n      mload(0x40)\n      dup1\n      swap2\n      sub\n      swap1\n      revert\n    tag_98:\n        /* \"contracts/RealEstate.sol\":2121:2132  thongTinNha */\n      0x00\n        /* \"contracts/RealEstate.sol\":2121:2139  thongTinNha.chuNha */\n      0x00\n      add\n      0x00\n      swap1\n      sload\n      swap1\n      0x0100\n      exp\n      swap1\n      div\n      0xffffffffffffffffffffffffffffffffffffffff\n      and\n        /* \"contracts/RealEstate.sol\":2107:2139  msg.sender != thongTinNha.chuNha */\n      0xffffffffffffffffffffffffffffffffffffffff\n      and\n        /* \"contracts/RealEstate.sol\":2107:2117  msg.sender */\n      caller\n        /* \"contracts/RealEstate.sol\":2107:2139  msg.sender != thongTinNha.chuNha */\n      0xffffffffffffffffffffffffffffffffffffffff\n      and\n      sub\n        /* \"contracts/RealEstate.sol\":2099:2167  require(msg.sender != thongTinNha.chuNha, \"Chu nha khong the tu ky\") */\n      tag_101\n      jumpi\n      mload(0x40)\n      0x08c379a000000000000000000000000000000000000000000000000000000000\n      dup2\n      mstore\n      0x04\n      add\n      tag_102\n      swap1\n      tag_103\n      jump\t// in\n    tag_102:\n      mload(0x40)\n      dup1\n      swap2\n      sub\n      swap1\n      revert\n    tag_101:\n        /* \"contracts/RealEstate.sol\":2257:2268  thongTinNha */\n      0x00\n        /* \"contracts/RealEstate.sol\":2257:2286  thongTinNha.thoiGianThueThang */\n      0x02\n      add\n      sload\n        /* \"contracts/RealEstate.sol\":2227:2238  thongTinNha */\n      0x00\n        /* \"contracts/RealEstate.sol\":2227:2254  thongTinNha.chiPhiHangThang */\n      0x01\n      add\n      sload\n        /* \"contracts/RealEstate.sol\":2227:2286  thongTinNha.chiPhiHangThang * thongTinNha.thoiGianThueThang */\n      tag_104\n      swap2\n      swap1\n      tag_55\n      jump\t// in\n    tag_104:\n        /* \"contracts/RealEstate.sol\":2198:2207  msg.value */\n      callvalue\n        /* \"contracts/RealEstate.sol\":2198:2286  msg.value >=... */\n      lt\n      iszero\n        /* \"contracts/RealEstate.sol\":2177:2347  require(... */\n      tag_105\n      jumpi\n      mload(0x40)\n      0x08c379a000000000000000000000000000000000000000000000000000000000\n      dup2\n      mstore\n      0x04\n      add\n      tag_106\n      swap1\n      tag_107\n      jump\t// in\n    tag_106:\n      mload(0x40)\n      dup1\n      swap2\n      sub\n      swap1\n      revert\n    tag_105:\n        /* \"contracts/RealEstate.sol\":2383:2393  msg.sender */\n      caller\n        /* \"contracts/RealEstate.sol\":2358:2370  thongTinThue */\n      0x04\n        /* \"contracts/RealEstate.sol\":2358:2380  thongTinThue.nguoiThue */\n      0x00\n      add\n      0x00\n        /* \"contracts/RealEstate.sol\":2358:2393  thongTinThue.nguoiThue = msg.sender */\n      0x0100\n      exp\n      dup2\n      sload\n      dup2\n      0xffffffffffffffffffffffffffffffffffffffff\n      mul\n      not\n      and\n      swap1\n      dup4\n      0xffffffffffffffffffffffffffffffffffffffff\n      and\n      mul\n      or\n      swap1\n      sstore\n      pop\n        /* \"contracts/RealEstate.sol\":2433:2448  block.timestamp */\n      timestamp\n        /* \"contracts/RealEstate.sol\":2403:2415  thongTinThue */\n      0x04\n        /* \"contracts/RealEstate.sol\":2403:2430  thongTinThue.thoiDiemBatDau */\n      0x01\n      add\n        /* \"contracts/RealEstate.sol\":2403:2448  thongTinThue.thoiDiemBatDau = block.timestamp */\n      dup2\n      swap1\n      sstore\n      pop\n        /* \"contracts/RealEstate.sol\":2492:2493  0 */\n      0x00\n        /* \"contracts/RealEstate.sol\":2458:2470  thongTinThue */\n      0x04\n        /* \"contracts/RealEstate.sol\":2458:2489  thongTinThue.soThangDaThanhToan */\n      0x02\n      add\n        /* \"contracts/RealEstate.sol\":2458:2493  thongTinThue.soThangDaThanhToan = 0 */\n      dup2\n      swap1\n      sstore\n      pop\n        /* \"contracts/RealEstate.sol\":2620:2630  10 seconds */\n      0x0a\n        /* \"contracts/RealEstate.sol\":2576:2587  thongTinNha */\n      0x00\n        /* \"contracts/RealEstate.sol\":2576:2605  thongTinNha.thoiGianThueThang */\n      0x02\n      add\n      sload\n        /* \"contracts/RealEstate.sol\":2576:2630  thongTinNha.thoiGianThueThang *... */\n      tag_108\n      swap2\n      swap1\n      tag_55\n      jump\t// in\n    tag_108:\n        /* \"contracts/RealEstate.sol\":2546:2561  block.timestamp */\n      timestamp\n        /* \"contracts/RealEstate.sol\":2546:2630  block.timestamp +... */\n      tag_109\n      swap2\n      swap1\n      tag_68\n      jump\t// in\n    tag_109:\n        /* \"contracts/RealEstate.sol\":2503:2515  thongTinThue */\n      0x04\n        /* \"contracts/RealEstate.sol\":2503:2531  thongTinThue.thoiDiemKetThuc */\n      0x03\n      add\n        /* \"contracts/RealEstate.sol\":2503:2630  thongTinThue.thoiDiemKetThuc =... */\n      dup2\n      swap1\n      sstore\n      pop\n        /* \"contracts/RealEstate.sol\":2680:2689  msg.value */\n      callvalue\n        /* \"contracts/RealEstate.sol\":2641:2653  soDuTaiKhoan */\n      0x08\n        /* \"contracts/RealEstate.sol\":2641:2677  soDuTaiKhoan[thongTinThue.nguoiThue] */\n      0x00\n        /* \"contracts/RealEstate.sol\":2654:2666  thongTinThue */\n      0x04\n        /* \"contracts/RealEstate.sol\":2654:2676  thongTinThue.nguoiThue */\n      0x00\n      add\n      0x00\n      swap1\n      sload\n      swap1\n      0x0100\n      exp\n      swap1\n      div\n      0xffffffffffffffffffffffffffffffffffffffff\n      and\n        /* \"contracts/RealEstate.sol\":2641:2677  soDuTaiKhoan[thongTinThue.nguoiThue] */\n      0xffffffffffffffffffffffffffffffffffffffff\n      and\n      0xffffffffffffffffffffffffffffffffffffffff\n      and\n      dup2\n      mstore\n      0x20\n      add\n      swap1\n      dup2\n      mstore\n      0x20\n      add\n      0x00\n      keccak256\n        /* \"contracts/RealEstate.sol\":2641:2689  soDuTaiKhoan[thongTinThue.nguoiThue] = msg.value */\n      dup2\n      swap1\n      sstore\n      pop\n        /* \"contracts/RealEstate.sol\":2727:2731  true */\n      0x01\n        /* \"contracts/RealEstate.sol\":2699:2710  thongTinNha */\n      0x00\n        /* \"contracts/RealEstate.sol\":2699:2724  thongTinNha.hopDongDuocKy */\n      0x03\n      add\n      0x00\n        /* \"contracts/RealEstate.sol\":2699:2731  thongTinNha.hopDongDuocKy = true */\n      0x0100\n      exp\n      dup2\n      sload\n      dup2\n      0xff\n      mul\n      not\n      and\n      swap1\n      dup4\n      iszero\n      iszero\n      mul\n      or\n      swap1\n      sstore\n      pop\n        /* \"contracts/RealEstate.sol\":1983:2738  function kyHopDong() external payable {... */\n      jump\t// out\n        /* \"contracts/RealEstate.sol\":4047:5433  function giaHanHopDong(uint256 soThangThem) external payable {... */\n    tag_22:\n        /* \"contracts/RealEstate.sol\":4126:4137  thongTinNha */\n      0x00\n        /* \"contracts/RealEstate.sol\":4126:4151  thongTinNha.hopDongDuocKy */\n      0x03\n      add\n      0x00\n      swap1\n      sload\n      swap1\n      0x0100\n      exp\n      swap1\n      div\n      0xff\n      and\n        /* \"contracts/RealEstate.sol\":4118:4172  require(thongTinNha.hopDongDuocKy, \"Chua co hop dong\") */\n      tag_111\n      jumpi\n      mload(0x40)\n      0x08c379a000000000000000000000000000000000000000000000000000000000\n      dup2\n      mstore\n      0x04\n      add\n      tag_112\n      swap1\n      tag_43\n      jump\t// in\n    tag_112:\n      mload(0x40)\n      dup1\n      swap2\n      sub\n      swap1\n      revert\n    tag_111:\n        /* \"contracts/RealEstate.sol\":4217:4229  thongTinThue */\n      0x04\n        /* \"contracts/RealEstate.sol\":4217:4239  thongTinThue.nguoiThue */\n      0x00\n      add\n      0x00\n      swap1\n      sload\n      swap1\n      0x0100\n      exp\n      swap1\n      div\n      0xffffffffffffffffffffffffffffffffffffffff\n      and\n        /* \"contracts/RealEstate.sol\":4203:4239  msg.sender == thongTinThue.nguoiThue */\n      0xffffffffffffffffffffffffffffffffffffffff\n      and\n        /* \"contracts/RealEstate.sol\":4203:4213  msg.sender */\n      caller\n        /* \"contracts/RealEstate.sol\":4203:4239  msg.sender == thongTinThue.nguoiThue */\n      0xffffffffffffffffffffffffffffffffffffffff\n      and\n      eq\n        /* \"contracts/RealEstate.sol\":4182:4296  require(... */\n      tag_113\n      jumpi\n      mload(0x40)\n      0x08c379a000000000000000000000000000000000000000000000000000000000\n      dup2\n      mstore\n      0x04\n      add\n      tag_114\n      swap1\n      tag_115\n      jump\t// in\n    tag_114:\n      mload(0x40)\n      dup1\n      swap2\n      sub\n      swap1\n      revert\n    tag_113:\n        /* \"contracts/RealEstate.sol\":4490:4499  5 seconds */\n      0x05\n        /* \"contracts/RealEstate.sol\":4459:4471  thongTinThue */\n      0x04\n        /* \"contracts/RealEstate.sol\":4459:4487  thongTinThue.thoiDiemKetThuc */\n      0x03\n      add\n      sload\n        /* \"contracts/RealEstate.sol\":4459:4499  thongTinThue.thoiDiemKetThuc + 5 seconds */\n      tag_116\n      swap2\n      swap1\n      tag_68\n      jump\t// in\n    tag_116:\n        /* \"contracts/RealEstate.sol\":4440:4455  block.timestamp */\n      timestamp\n        /* \"contracts/RealEstate.sol\":4440:4499  block.timestamp <= thongTinThue.thoiDiemKetThuc + 5 seconds */\n      gt\n      iszero\n        /* \"contracts/RealEstate.sol\":4419:4558  require(... */\n      tag_117\n      jumpi\n      mload(0x40)\n      0x08c379a000000000000000000000000000000000000000000000000000000000\n      dup2\n      mstore\n      0x04\n      add\n      tag_118\n      swap1\n      tag_119\n      jump\t// in\n    tag_118:\n      mload(0x40)\n      dup1\n      swap2\n      sub\n      swap1\n      revert\n    tag_117:\n        /* \"contracts/RealEstate.sol\":4591:4592  0 */\n      0x00\n        /* \"contracts/RealEstate.sol\":4577:4588  soThangThem */\n      dup2\n        /* \"contracts/RealEstate.sol\":4577:4592  soThangThem > 0 */\n      gt\n        /* \"contracts/RealEstate.sol\":4569:4622  require(soThangThem > 0, \"Phai them it nhat 1 thang\") */\n      tag_120\n      jumpi\n      mload(0x40)\n      0x08c379a000000000000000000000000000000000000000000000000000000000\n      dup2\n      mstore\n      0x04\n      add\n      tag_121\n      swap1\n      tag_122\n      jump\t// in\n    tag_121:\n      mload(0x40)\n      dup1\n      swap2\n      sub\n      swap1\n      revert\n    tag_120:\n        /* \"contracts/RealEstate.sol\":4852:4863  thongTinNha */\n      0x00\n        /* \"contracts/RealEstate.sol\":4852:4879  thongTinNha.chiPhiHangThang */\n      0x01\n      add\n      sload\n        /* \"contracts/RealEstate.sol\":4797:4809  thongTinThue */\n      0x04\n        /* \"contracts/RealEstate.sol\":4797:4828  thongTinThue.soThangDaThanhToan */\n      0x02\n      add\n      sload\n        /* \"contracts/RealEstate.sol\":4745:4756  thongTinNha */\n      0x00\n        /* \"contracts/RealEstate.sol\":4745:4774  thongTinNha.thoiGianThueThang */\n      0x02\n      add\n      sload\n        /* \"contracts/RealEstate.sol\":4711:4722  soThangThem */\n      dup4\n        /* \"contracts/RealEstate.sol\":4711:4774  soThangThem +... */\n      tag_123\n      swap2\n      swap1\n      tag_68\n      jump\t// in\n    tag_123:\n        /* \"contracts/RealEstate.sol\":4711:4828  soThangThem +... */\n      tag_124\n      swap2\n      swap1\n      tag_49\n      jump\t// in\n    tag_124:\n        /* \"contracts/RealEstate.sol\":4710:4879  (soThangThem +... */\n      tag_125\n      swap2\n      swap1\n      tag_55\n      jump\t// in\n    tag_125:\n        /* \"contracts/RealEstate.sol\":4681:4690  msg.value */\n      callvalue\n        /* \"contracts/RealEstate.sol\":4654:4666  soDuTaiKhoan */\n      0x08\n        /* \"contracts/RealEstate.sol\":4654:4678  soDuTaiKhoan[msg.sender] */\n      0x00\n        /* \"contracts/RealEstate.sol\":4667:4677  msg.sender */\n      caller\n        /* \"contracts/RealEstate.sol\":4654:4678  soDuTaiKhoan[msg.sender] */\n      0xffffffffffffffffffffffffffffffffffffffff\n      and\n      0xffffffffffffffffffffffffffffffffffffffff\n      and\n      dup2\n      mstore\n      0x20\n      add\n      swap1\n      dup2\n      mstore\n      0x20\n      add\n      0x00\n      keccak256\n      sload\n        /* \"contracts/RealEstate.sol\":4654:4690  soDuTaiKhoan[msg.sender] + msg.value */\n      tag_126\n      swap2\n      swap1\n      tag_68\n      jump\t// in\n    tag_126:\n        /* \"contracts/RealEstate.sol\":4654:4879  soDuTaiKhoan[msg.sender] + msg.value >=... */\n      lt\n      iszero\n        /* \"contracts/RealEstate.sol\":4633:4939  require(... */\n      tag_127\n      jumpi\n      mload(0x40)\n      0x08c379a000000000000000000000000000000000000000000000000000000000\n      dup2\n      mstore\n      0x04\n      add\n      tag_128\n      swap1\n      tag_129\n      jump\t// in\n    tag_128:\n      mload(0x40)\n      dup1\n      swap2\n      sub\n      swap1\n      revert\n    tag_127:\n        /* \"contracts/RealEstate.sol\":4950:4974  uint256 tongTienPhaiDong */\n      0x00\n        /* \"contracts/RealEstate.sol\":5007:5018  soThangThem */\n      dup2\n        /* \"contracts/RealEstate.sol\":4977:4988  thongTinNha */\n      0x00\n        /* \"contracts/RealEstate.sol\":4977:5004  thongTinNha.chiPhiHangThang */\n      0x01\n      add\n      sload\n        /* \"contracts/RealEstate.sol\":4977:5018  thongTinNha.chiPhiHangThang * soThangThem */\n      tag_130\n      swap2\n      swap1\n      tag_55\n      jump\t// in\n    tag_130:\n        /* \"contracts/RealEstate.sol\":4950:5018  uint256 tongTienPhaiDong = thongTinNha.chiPhiHangThang * soThangThem */\n      swap1\n      pop\n        /* \"contracts/RealEstate.sol\":5050:5066  tongTienPhaiDong */\n      dup1\n        /* \"contracts/RealEstate.sol\":5037:5046  msg.value */\n      callvalue\n        /* \"contracts/RealEstate.sol\":5037:5066  msg.value >= tongTienPhaiDong */\n      lt\n      iszero\n        /* \"contracts/RealEstate.sol\":5029:5088  require(msg.value >= tongTienPhaiDong, \"Tien gui khong du\") */\n      tag_131\n      jumpi\n      mload(0x40)\n      0x08c379a000000000000000000000000000000000000000000000000000000000\n      dup2\n      mstore\n      0x04\n      add\n      tag_132\n      swap1\n      tag_133\n      jump\t// in\n    tag_132:\n      mload(0x40)\n      dup1\n      swap2\n      sub\n      swap1\n      revert\n    tag_131:\n        /* \"contracts/RealEstate.sol\":5204:5214  10 seconds */\n      0x0a\n        /* \"contracts/RealEstate.sol\":5190:5201  soThangThem */\n      dup3\n        /* \"contracts/RealEstate.sol\":5190:5214  soThangThem * 10 seconds */\n      tag_134\n      swap2\n      swap1\n      tag_55\n      jump\t// in\n    tag_134:\n        /* \"contracts/RealEstate.sol\":5158:5170  thongTinThue */\n      0x04\n        /* \"contracts/RealEstate.sol\":5158:5186  thongTinThue.thoiDiemKetThuc */\n      0x03\n      add\n      0x00\n        /* \"contracts/RealEstate.sol\":5158:5214  thongTinThue.thoiDiemKetThuc += soThangThem * 10 seconds */\n      dup3\n      dup3\n      sload\n      tag_135\n      swap2\n      swap1\n      tag_68\n      jump\t// in\n    tag_135:\n      swap3\n      pop\n      pop\n      dup2\n      swap1\n      sstore\n      pop\n        /* \"contracts/RealEstate.sol\":5321:5332  soThangThem */\n      dup2\n        /* \"contracts/RealEstate.sol\":5288:5299  thongTinNha */\n      0x00\n        /* \"contracts/RealEstate.sol\":5288:5317  thongTinNha.thoiGianThueThang */\n      0x02\n      add\n      0x00\n        /* \"contracts/RealEstate.sol\":5288:5332  thongTinNha.thoiGianThueThang += soThangThem */\n      dup3\n      dup3\n      sload\n      tag_136\n      swap2\n      swap1\n      tag_68\n      jump\t// in\n    tag_136:\n      swap3\n      pop\n      pop\n      dup2\n      swap1\n      sstore\n      pop\n        /* \"contracts/RealEstate.sol\":5417:5426  msg.value */\n      callvalue\n        /* \"contracts/RealEstate.sol\":5389:5401  soDuTaiKhoan */\n      0x08\n        /* \"contracts/RealEstate.sol\":5389:5413  soDuTaiKhoan[msg.sender] */\n      0x00\n        /* \"contracts/RealEstate.sol\":5402:5412  msg.sender */\n      caller\n        /* \"contracts/RealEstate.sol\":5389:5413  soDuTaiKhoan[msg.sender] */\n      0xffffffffffffffffffffffffffffffffffffffff\n      and\n      0xffffffffffffffffffffffffffffffffffffffff\n      and\n      dup2\n      mstore\n      0x20\n      add\n      swap1\n      dup2\n      mstore\n      0x20\n      add\n      0x00\n      keccak256\n      0x00\n        /* \"contracts/RealEstate.sol\":5389:5426  soDuTaiKhoan[msg.sender] += msg.value */\n      dup3\n      dup3\n      sload\n      tag_137\n      swap2\n      swap1\n      tag_68\n      jump\t// in\n    tag_137:\n      swap3\n      pop\n      pop\n      dup2\n      swap1\n      sstore\n      pop\n        /* \"contracts/RealEstate.sol\":4108:5433  {... */\n      pop\n        /* \"contracts/RealEstate.sol\":4047:5433  function giaHanHopDong(uint256 soThangThem) external payable {... */\n      pop\n      jump\t// out\n        /* \"contracts/RealEstate.sol\":949:1977  function xemTinhTrangThue()... */\n    tag_25:\n        /* \"contracts/RealEstate.sol\":1037:1054  address nguoiThue */\n      0x00\n        /* \"contracts/RealEstate.sol\":1068:1090  uint256 thoiDiemBatDau */\n      0x00\n        /* \"contracts/RealEstate.sol\":1104:1130  uint256 soThangDaThanhToan */\n      0x00\n        /* \"contracts/RealEstate.sol\":1144:1166  uint256 thoiGianConLai */\n      0x00\n        /* \"contracts/RealEstate.sol\":1242:1243  0 */\n      0x00\n        /* \"contracts/RealEstate.sol\":1208:1244  thongTinThue.nguoiThue == address(0) */\n      0xffffffffffffffffffffffffffffffffffffffff\n      and\n        /* \"contracts/RealEstate.sol\":1208:1220  thongTinThue */\n      0x04\n        /* \"contracts/RealEstate.sol\":1208:1230  thongTinThue.nguoiThue */\n      0x00\n      add\n      0x00\n      swap1\n      sload\n      swap1\n      0x0100\n      exp\n      swap1\n      div\n      0xffffffffffffffffffffffffffffffffffffffff\n      and\n        /* \"contracts/RealEstate.sol\":1208:1244  thongTinThue.nguoiThue == address(0) */\n      0xffffffffffffffffffffffffffffffffffffffff\n      and\n      eq\n        /* \"contracts/RealEstate.sol\":1208:1350  thongTinThue.nguoiThue == address(0) ||... */\n      dup1\n      tag_139\n      jumpi\n      pop\n        /* \"contracts/RealEstate.sol\":1275:1286  thongTinNha */\n      0x00\n        /* \"contracts/RealEstate.sol\":1275:1293  thongTinNha.chuNha */\n      0x00\n      add\n      0x00\n      swap1\n      sload\n      swap1\n      0x0100\n      exp\n      swap1\n      div\n      0xffffffffffffffffffffffffffffffffffffffff\n      and\n        /* \"contracts/RealEstate.sol\":1261:1293  msg.sender != thongTinNha.chuNha */\n      0xffffffffffffffffffffffffffffffffffffffff\n      and\n        /* \"contracts/RealEstate.sol\":1261:1271  msg.sender */\n      caller\n        /* \"contracts/RealEstate.sol\":1261:1293  msg.sender != thongTinNha.chuNha */\n      0xffffffffffffffffffffffffffffffffffffffff\n      and\n      eq\n      iszero\n        /* \"contracts/RealEstate.sol\":1261:1349  msg.sender != thongTinNha.chuNha &&... */\n      dup1\n      iszero\n      tag_140\n      jumpi\n      pop\n        /* \"contracts/RealEstate.sol\":1327:1339  thongTinThue */\n      0x04\n        /* \"contracts/RealEstate.sol\":1327:1349  thongTinThue.nguoiThue */\n      0x00\n      add\n      0x00\n      swap1\n      sload\n      swap1\n      0x0100\n      exp\n      swap1\n      div\n      0xffffffffffffffffffffffffffffffffffffffff\n      and\n        /* \"contracts/RealEstate.sol\":1313:1349  msg.sender != thongTinThue.nguoiThue */\n      0xffffffffffffffffffffffffffffffffffffffff\n      and\n        /* \"contracts/RealEstate.sol\":1313:1323  msg.sender */\n      caller\n        /* \"contracts/RealEstate.sol\":1313:1349  msg.sender != thongTinThue.nguoiThue */\n      0xffffffffffffffffffffffffffffffffffffffff\n      and\n      eq\n      iszero\n        /* \"contracts/RealEstate.sol\":1261:1349  msg.sender != thongTinNha.chuNha &&... */\n    tag_140:\n        /* \"contracts/RealEstate.sol\":1208:1350  thongTinThue.nguoiThue == address(0) ||... */\n    tag_139:\n        /* \"contracts/RealEstate.sol\":1191:1548  if (... */\n      iszero\n      tag_141\n      jumpi\n        /* \"contracts/RealEstate.sol\":1408:1409  0 */\n      0x00\n        /* \"contracts/RealEstate.sol\":1428:1440  thongTinThue */\n      0x04\n        /* \"contracts/RealEstate.sol\":1428:1455  thongTinThue.thoiDiemBatDau */\n      0x01\n      add\n      sload\n        /* \"contracts/RealEstate.sol\":1473:1485  thongTinThue */\n      0x04\n        /* \"contracts/RealEstate.sol\":1473:1504  thongTinThue.soThangDaThanhToan */\n      0x02\n      add\n      sload\n        /* \"contracts/RealEstate.sol\":1522:1523  0 */\n      0x00\n        /* \"contracts/RealEstate.sol\":1375:1537  return (... */\n      swap4\n      pop\n      swap4\n      pop\n      swap4\n      pop\n      swap4\n      pop\n      jump(tag_138)\n        /* \"contracts/RealEstate.sol\":1191:1548  if (... */\n    tag_141:\n        /* \"contracts/RealEstate.sol\":1558:1584  uint256 thoiGianConLaiTinh */\n      0x00\n        /* \"contracts/RealEstate.sol\":1587:1588  0 */\n      0x00\n        /* \"contracts/RealEstate.sol\":1558:1588  uint256 thoiGianConLaiTinh = 0 */\n      swap1\n      pop\n        /* \"contracts/RealEstate.sol\":1620:1632  thongTinThue */\n      0x04\n        /* \"contracts/RealEstate.sol\":1620:1648  thongTinThue.thoiDiemKetThuc */\n      0x03\n      add\n      sload\n        /* \"contracts/RealEstate.sol\":1602:1617  block.timestamp */\n      timestamp\n        /* \"contracts/RealEstate.sol\":1602:1648  block.timestamp < thongTinThue.thoiDiemKetThuc */\n      lt\n        /* \"contracts/RealEstate.sol\":1598:1789  if (block.timestamp < thongTinThue.thoiDiemKetThuc) {... */\n      iszero\n      tag_142\n      jumpi\n        /* \"contracts/RealEstate.sol\":1768:1778  10 seconds */\n      0x0a\n        /* \"contracts/RealEstate.sol\":1733:1748  block.timestamp */\n      timestamp\n        /* \"contracts/RealEstate.sol\":1702:1714  thongTinThue */\n      0x04\n        /* \"contracts/RealEstate.sol\":1702:1730  thongTinThue.thoiDiemKetThuc */\n      0x03\n      add\n      sload\n        /* \"contracts/RealEstate.sol\":1702:1748  thongTinThue.thoiDiemKetThuc - block.timestamp */\n      tag_143\n      swap2\n      swap1\n      tag_49\n      jump\t// in\n    tag_143:\n        /* \"contracts/RealEstate.sol\":1701:1778  (thongTinThue.thoiDiemKetThuc - block.timestamp) /... */\n      tag_144\n      swap2\n      swap1\n      tag_51\n      jump\t// in\n    tag_144:\n        /* \"contracts/RealEstate.sol\":1664:1778  thoiGianConLaiTinh =... */\n      swap1\n      pop\n        /* \"contracts/RealEstate.sol\":1598:1789  if (block.timestamp < thongTinThue.thoiDiemKetThuc) {... */\n    tag_142:\n        /* \"contracts/RealEstate.sol\":1820:1832  thongTinThue */\n      0x04\n        /* \"contracts/RealEstate.sol\":1820:1842  thongTinThue.nguoiThue */\n      0x00\n      add\n      0x00\n      swap1\n      sload\n      swap1\n      0x0100\n      exp\n      swap1\n      div\n      0xffffffffffffffffffffffffffffffffffffffff\n      and\n        /* \"contracts/RealEstate.sol\":1856:1868  thongTinThue */\n      0x04\n        /* \"contracts/RealEstate.sol\":1856:1883  thongTinThue.thoiDiemBatDau */\n      0x01\n      add\n      sload\n        /* \"contracts/RealEstate.sol\":1897:1909  thongTinThue */\n      0x04\n        /* \"contracts/RealEstate.sol\":1897:1928  thongTinThue.soThangDaThanhToan */\n      0x02\n      add\n      sload\n        /* \"contracts/RealEstate.sol\":1942:1960  thoiGianConLaiTinh */\n      dup4\n        /* \"contracts/RealEstate.sol\":1799:1970  return (... */\n      swap5\n      pop\n      swap5\n      pop\n      swap5\n      pop\n      swap5\n      pop\n      pop\n        /* \"contracts/RealEstate.sol\":949:1977  function xemTinhTrangThue()... */\n    tag_138:\n      swap1\n      swap2\n      swap3\n      swap4\n      jump\t// out\n        /* \"contracts/RealEstate.sol\":402:432  ThongTinNha public thongTinNha */\n    tag_30:\n      0x00\n      dup1\n      0x00\n      add\n      0x00\n      swap1\n      sload\n      swap1\n      0x0100\n      exp\n      swap1\n      div\n      0xffffffffffffffffffffffffffffffffffffffff\n      and\n      swap1\n      dup1\n      0x01\n      add\n      sload\n      swap1\n      dup1\n      0x02\n      add\n      sload\n      swap1\n      dup1\n      0x03\n      add\n      0x00\n      swap1\n      sload\n      swap1\n      0x0100\n      exp\n      swap1\n      div\n      0xff\n      and\n      swap1\n      pop\n      dup5\n      jump\t// out\n        /* \"contracts/RealEstate.sol\":477:524  mapping(address => uint256) public soDuTaiKhoan */\n    tag_37:\n      mstore(0x20, 0x08)\n      dup1\n      0x00\n      mstore\n      keccak256(0x00, 0x40)\n      0x00\n      swap2\n      pop\n      swap1\n      pop\n      sload\n      dup2\n      jump\t// out\n        /* \"#utility.yul\":88:205   */\n    tag_146:\n        /* \"#utility.yul\":197:198   */\n      0x00\n        /* \"#utility.yul\":194:195   */\n      0x00\n        /* \"#utility.yul\":187:199   */\n      revert\n        /* \"#utility.yul\":334:411   */\n    tag_148:\n        /* \"#utility.yul\":371:378   */\n      0x00\n        /* \"#utility.yul\":400:405   */\n      dup2\n        /* \"#utility.yul\":389:405   */\n      swap1\n      pop\n        /* \"#utility.yul\":334:411   */\n      swap2\n      swap1\n      pop\n      jump\t// out\n        /* \"#utility.yul\":417:539   */\n    tag_149:\n        /* \"#utility.yul\":490:514   */\n      tag_205\n        /* \"#utility.yul\":508:513   */\n      dup2\n        /* \"#utility.yul\":490:514   */\n      tag_148\n      jump\t// in\n    tag_205:\n        /* \"#utility.yul\":483:488   */\n      dup2\n        /* \"#utility.yul\":480:515   */\n      eq\n        /* \"#utility.yul\":470:533   */\n      tag_206\n      jumpi\n        /* \"#utility.yul\":529:530   */\n      0x00\n        /* \"#utility.yul\":526:527   */\n      0x00\n        /* \"#utility.yul\":519:531   */\n      revert\n        /* \"#utility.yul\":470:533   */\n    tag_206:\n        /* \"#utility.yul\":417:539   */\n      pop\n      jump\t// out\n        /* \"#utility.yul\":545:684   */\n    tag_150:\n        /* \"#utility.yul\":591:596   */\n      0x00\n        /* \"#utility.yul\":629:635   */\n      dup2\n        /* \"#utility.yul\":616:636   */\n      calldataload\n        /* \"#utility.yul\":607:636   */\n      swap1\n      pop\n        /* \"#utility.yul\":645:678   */\n      tag_208\n        /* \"#utility.yul\":672:677   */\n      dup2\n        /* \"#utility.yul\":645:678   */\n      tag_149\n      jump\t// in\n    tag_208:\n        /* \"#utility.yul\":545:684   */\n      swap3\n      swap2\n      pop\n      pop\n      jump\t// out\n        /* \"#utility.yul\":690:1019   */\n    tag_16:\n        /* \"#utility.yul\":749:755   */\n      0x00\n        /* \"#utility.yul\":798:800   */\n      0x20\n        /* \"#utility.yul\":786:795   */\n      dup3\n        /* \"#utility.yul\":777:784   */\n      dup5\n        /* \"#utility.yul\":773:796   */\n      sub\n        /* \"#utility.yul\":769:801   */\n      slt\n        /* \"#utility.yul\":766:885   */\n      iszero\n      tag_210\n      jumpi\n        /* \"#utility.yul\":804:883   */\n      tag_211\n      tag_146\n      jump\t// in\n    tag_211:\n        /* \"#utility.yul\":766:885   */\n    tag_210:\n        /* \"#utility.yul\":924:925   */\n      0x00\n        /* \"#utility.yul\":949:1002   */\n      tag_212\n        /* \"#utility.yul\":994:1001   */\n      dup5\n        /* \"#utility.yul\":985:991   */\n      dup3\n        /* \"#utility.yul\":974:983   */\n      dup6\n        /* \"#utility.yul\":970:992   */\n      add\n        /* \"#utility.yul\":949:1002   */\n      tag_150\n      jump\t// in\n    tag_212:\n        /* \"#utility.yul\":939:1002   */\n      swap2\n      pop\n        /* \"#utility.yul\":895:1012   */\n      pop\n        /* \"#utility.yul\":690:1019   */\n      swap3\n      swap2\n      pop\n      pop\n      jump\t// out\n        /* \"#utility.yul\":1025:1151   */\n    tag_151:\n        /* \"#utility.yul\":1062:1069   */\n      0x00\n        /* \"#utility.yul\":1102:1144   */\n      0xffffffffffffffffffffffffffffffffffffffff\n        /* \"#utility.yul\":1095:1100   */\n      dup3\n        /* \"#utility.yul\":1091:1145   */\n      and\n        /* \"#utility.yul\":1080:1145   */\n      swap1\n      pop\n        /* \"#utility.yul\":1025:1151   */\n      swap2\n      swap1\n      pop\n      jump\t// out\n        /* \"#utility.yul\":1157:1253   */\n    tag_152:\n        /* \"#utility.yul\":1194:1201   */\n      0x00\n        /* \"#utility.yul\":1223:1247   */\n      tag_215\n        /* \"#utility.yul\":1241:1246   */\n      dup3\n        /* \"#utility.yul\":1223:1247   */\n      tag_151\n      jump\t// in\n    tag_215:\n        /* \"#utility.yul\":1212:1247   */\n      swap1\n      pop\n        /* \"#utility.yul\":1157:1253   */\n      swap2\n      swap1\n      pop\n      jump\t// out\n        /* \"#utility.yul\":1259:1377   */\n    tag_153:\n        /* \"#utility.yul\":1346:1370   */\n      tag_217\n        /* \"#utility.yul\":1364:1369   */\n      dup2\n        /* \"#utility.yul\":1346:1370   */\n      tag_152\n      jump\t// in\n    tag_217:\n        /* \"#utility.yul\":1341:1344   */\n      dup3\n        /* \"#utility.yul\":1334:1371   */\n      mstore\n        /* \"#utility.yul\":1259:1377   */\n      pop\n      pop\n      jump\t// out\n        /* \"#utility.yul\":1383:1501   */\n    tag_154:\n        /* \"#utility.yul\":1470:1494   */\n      tag_219\n        /* \"#utility.yul\":1488:1493   */\n      dup2\n        /* \"#utility.yul\":1470:1494   */\n      tag_148\n      jump\t// in\n    tag_219:\n        /* \"#utility.yul\":1465:1468   */\n      dup3\n        /* \"#utility.yul\":1458:1495   */\n      mstore\n        /* \"#utility.yul\":1383:1501   */\n      pop\n      pop\n      jump\t// out\n        /* \"#utility.yul\":1507:2060   */\n    tag_27:\n        /* \"#utility.yul\":1684:1688   */\n      0x00\n        /* \"#utility.yul\":1722:1725   */\n      0x80\n        /* \"#utility.yul\":1711:1720   */\n      dup3\n        /* \"#utility.yul\":1707:1726   */\n      add\n        /* \"#utility.yul\":1699:1726   */\n      swap1\n      pop\n        /* \"#utility.yul\":1736:1807   */\n      tag_221\n        /* \"#utility.yul\":1804:1805   */\n      0x00\n        /* \"#utility.yul\":1793:1802   */\n      dup4\n        /* \"#utility.yul\":1789:1806   */\n      add\n        /* \"#utility.yul\":1780:1786   */\n      dup8\n        /* \"#utility.yul\":1736:1807   */\n      tag_153\n      jump\t// in\n    tag_221:\n        /* \"#utility.yul\":1817:1889   */\n      tag_222\n        /* \"#utility.yul\":1885:1887   */\n      0x20\n        /* \"#utility.yul\":1874:1883   */\n      dup4\n        /* \"#utility.yul\":1870:1888   */\n      add\n        /* \"#utility.yul\":1861:1867   */\n      dup7\n        /* \"#utility.yul\":1817:1889   */\n      tag_154\n      jump\t// in\n    tag_222:\n        /* \"#utility.yul\":1899:1971   */\n      tag_223\n        /* \"#utility.yul\":1967:1969   */\n      0x40\n        /* \"#utility.yul\":1956:1965   */\n      dup4\n        /* \"#utility.yul\":1952:1970   */\n      add\n        /* \"#utility.yul\":1943:1949   */\n      dup6\n        /* \"#utility.yul\":1899:1971   */\n      tag_154\n      jump\t// in\n    tag_223:\n        /* \"#utility.yul\":1981:2053   */\n      tag_224\n        /* \"#utility.yul\":2049:2051   */\n      0x60\n        /* \"#utility.yul\":2038:2047   */\n      dup4\n        /* \"#utility.yul\":2034:2052   */\n      add\n        /* \"#utility.yul\":2025:2031   */\n      dup5\n        /* \"#utility.yul\":1981:2053   */\n      tag_154\n      jump\t// in\n    tag_224:\n        /* \"#utility.yul\":1507:2060   */\n      swap6\n      swap5\n      pop\n      pop\n      pop\n      pop\n      pop\n      jump\t// out\n        /* \"#utility.yul\":2066:2156   */\n    tag_155:\n        /* \"#utility.yul\":2100:2107   */\n      0x00\n        /* \"#utility.yul\":2143:2148   */\n      dup2\n        /* \"#utility.yul\":2136:2149   */\n      iszero\n        /* \"#utility.yul\":2129:2150   */\n      iszero\n        /* \"#utility.yul\":2118:2150   */\n      swap1\n      pop\n        /* \"#utility.yul\":2066:2156   */\n      swap2\n      swap1\n      pop\n      jump\t// out\n        /* \"#utility.yul\":2162:2271   */\n    tag_156:\n        /* \"#utility.yul\":2243:2264   */\n      tag_227\n        /* \"#utility.yul\":2258:2263   */\n      dup2\n        /* \"#utility.yul\":2243:2264   */\n      tag_155\n      jump\t// in\n    tag_227:\n        /* \"#utility.yul\":2238:2241   */\n      dup3\n        /* \"#utility.yul\":2231:2265   */\n      mstore\n        /* \"#utility.yul\":2162:2271   */\n      pop\n      pop\n      jump\t// out\n        /* \"#utility.yul\":2277:2818   */\n    tag_32:\n        /* \"#utility.yul\":2448:2452   */\n      0x00\n        /* \"#utility.yul\":2486:2489   */\n      0x80\n        /* \"#utility.yul\":2475:2484   */\n      dup3\n        /* \"#utility.yul\":2471:2490   */\n      add\n        /* \"#utility.yul\":2463:2490   */\n      swap1\n      pop\n        /* \"#utility.yul\":2500:2571   */\n      tag_229\n        /* \"#utility.yul\":2568:2569   */\n      0x00\n        /* \"#utility.yul\":2557:2566   */\n      dup4\n        /* \"#utility.yul\":2553:2570   */\n      add\n        /* \"#utility.yul\":2544:2550   */\n      dup8\n        /* \"#utility.yul\":2500:2571   */\n      tag_153\n      jump\t// in\n    tag_229:\n        /* \"#utility.yul\":2581:2653   */\n      tag_230\n        /* \"#utility.yul\":2649:2651   */\n      0x20\n        /* \"#utility.yul\":2638:2647   */\n      dup4\n        /* \"#utility.yul\":2634:2652   */\n      add\n        /* \"#utility.yul\":2625:2631   */\n      dup7\n        /* \"#utility.yul\":2581:2653   */\n      tag_154\n      jump\t// in\n    tag_230:\n        /* \"#utility.yul\":2663:2735   */\n      tag_231\n        /* \"#utility.yul\":2731:2733   */\n      0x40\n        /* \"#utility.yul\":2720:2729   */\n      dup4\n        /* \"#utility.yul\":2716:2734   */\n      add\n        /* \"#utility.yul\":2707:2713   */\n      dup6\n        /* \"#utility.yul\":2663:2735   */\n      tag_154\n      jump\t// in\n    tag_231:\n        /* \"#utility.yul\":2745:2811   */\n      tag_232\n        /* \"#utility.yul\":2807:2809   */\n      0x60\n        /* \"#utility.yul\":2796:2805   */\n      dup4\n        /* \"#utility.yul\":2792:2810   */\n      add\n        /* \"#utility.yul\":2783:2789   */\n      dup5\n        /* \"#utility.yul\":2745:2811   */\n      tag_156\n      jump\t// in\n    tag_232:\n        /* \"#utility.yul\":2277:2818   */\n      swap6\n      swap5\n      pop\n      pop\n      pop\n      pop\n      pop\n      jump\t// out\n        /* \"#utility.yul\":2824:2946   */\n    tag_157:\n        /* \"#utility.yul\":2897:2921   */\n      tag_234\n        /* \"#utility.yul\":2915:2920   */\n      dup2\n        /* \"#utility.yul\":2897:2921   */\n      tag_152\n      jump\t// in\n    tag_234:\n        /* \"#utility.yul\":2890:2895   */\n      dup2\n        /* \"#utility.yul\":2887:2922   */\n      eq\n        /* \"#utility.yul\":2877:2940   */\n      tag_235\n      jumpi\n        /* \"#utility.yul\":2936:2937   */\n      0x00\n        /* \"#utility.yul\":2933:2934   */\n      0x00\n        /* \"#utility.yul\":2926:2938   */\n      revert\n        /* \"#utility.yul\":2877:2940   */\n    tag_235:\n        /* \"#utility.yul\":2824:2946   */\n      pop\n      jump\t// out\n        /* \"#utility.yul\":2952:3091   */\n    tag_158:\n        /* \"#utility.yul\":2998:3003   */\n      0x00\n        /* \"#utility.yul\":3036:3042   */\n      dup2\n        /* \"#utility.yul\":3023:3043   */\n      calldataload\n        /* \"#utility.yul\":3014:3043   */\n      swap1\n      pop\n        /* \"#utility.yul\":3052:3085   */\n      tag_237\n        /* \"#utility.yul\":3079:3084   */\n      dup2\n        /* \"#utility.yul\":3052:3085   */\n      tag_157\n      jump\t// in\n    tag_237:\n        /* \"#utility.yul\":2952:3091   */\n      swap3\n      swap2\n      pop\n      pop\n      jump\t// out\n        /* \"#utility.yul\":3097:3426   */\n    tag_36:\n        /* \"#utility.yul\":3156:3162   */\n      0x00\n        /* \"#utility.yul\":3205:3207   */\n      0x20\n        /* \"#utility.yul\":3193:3202   */\n      dup3\n        /* \"#utility.yul\":3184:3191   */\n      dup5\n        /* \"#utility.yul\":3180:3203   */\n      sub\n        /* \"#utility.yul\":3176:3208   */\n      slt\n        /* \"#utility.yul\":3173:3292   */\n      iszero\n      tag_239\n      jumpi\n        /* \"#utility.yul\":3211:3290   */\n      tag_240\n      tag_146\n      jump\t// in\n    tag_240:\n        /* \"#utility.yul\":3173:3292   */\n    tag_239:\n        /* \"#utility.yul\":3331:3332   */\n      0x00\n        /* \"#utility.yul\":3356:3409   */\n      tag_241\n        /* \"#utility.yul\":3401:3408   */\n      dup5\n        /* \"#utility.yul\":3392:3398   */\n      dup3\n        /* \"#utility.yul\":3381:3390   */\n      dup6\n        /* \"#utility.yul\":3377:3399   */\n      add\n        /* \"#utility.yul\":3356:3409   */\n      tag_158\n      jump\t// in\n    tag_241:\n        /* \"#utility.yul\":3346:3409   */\n      swap2\n      pop\n        /* \"#utility.yul\":3302:3419   */\n      pop\n        /* \"#utility.yul\":3097:3426   */\n      swap3\n      swap2\n      pop\n      pop\n      jump\t// out\n        /* \"#utility.yul\":3432:3654   */\n    tag_39:\n        /* \"#utility.yul\":3525:3529   */\n      0x00\n        /* \"#utility.yul\":3563:3565   */\n      0x20\n        /* \"#utility.yul\":3552:3561   */\n      dup3\n        /* \"#utility.yul\":3548:3566   */\n      add\n        /* \"#utility.yul\":3540:3566   */\n      swap1\n      pop\n        /* \"#utility.yul\":3576:3647   */\n      tag_243\n        /* \"#utility.yul\":3644:3645   */\n      0x00\n        /* \"#utility.yul\":3633:3642   */\n      dup4\n        /* \"#utility.yul\":3629:3646   */\n      add\n        /* \"#utility.yul\":3620:3626   */\n      dup5\n        /* \"#utility.yul\":3576:3647   */\n      tag_154\n      jump\t// in\n    tag_243:\n        /* \"#utility.yul\":3432:3654   */\n      swap3\n      swap2\n      pop\n      pop\n      jump\t// out\n        /* \"#utility.yul\":3660:3829   */\n    tag_159:\n        /* \"#utility.yul\":3744:3755   */\n      0x00\n        /* \"#utility.yul\":3778:3784   */\n      dup3\n        /* \"#utility.yul\":3773:3776   */\n      dup3\n        /* \"#utility.yul\":3766:3785   */\n      mstore\n        /* \"#utility.yul\":3818:3822   */\n      0x20\n        /* \"#utility.yul\":3813:3816   */\n      dup3\n        /* \"#utility.yul\":3809:3823   */\n      add\n        /* \"#utility.yul\":3794:3823   */\n      swap1\n      pop\n        /* \"#utility.yul\":3660:3829   */\n      swap3\n      swap2\n      pop\n      pop\n      jump\t// out\n        /* \"#utility.yul\":3835:4001   */\n    tag_160:\n        /* \"#utility.yul\":3975:3993   */\n      0x4368756120636f20686f7020646f6e6700000000000000000000000000000000\n        /* \"#utility.yul\":3971:3972   */\n      0x00\n        /* \"#utility.yul\":3963:3969   */\n      dup3\n        /* \"#utility.yul\":3959:3973   */\n      add\n        /* \"#utility.yul\":3952:3994   */\n      mstore\n        /* \"#utility.yul\":3835:4001   */\n      pop\n      jump\t// out\n        /* \"#utility.yul\":4007:4373   */\n    tag_161:\n        /* \"#utility.yul\":4149:4152   */\n      0x00\n        /* \"#utility.yul\":4170:4237   */\n      tag_247\n        /* \"#utility.yul\":4234:4236   */\n      0x10\n        /* \"#utility.yul\":4229:4232   */\n      dup4\n        /* \"#utility.yul\":4170:4237   */\n      tag_159\n      jump\t// in\n    tag_247:\n        /* \"#utility.yul\":4163:4237   */\n      swap2\n      pop\n        /* \"#utility.yul\":4246:4339   */\n      tag_248\n        /* \"#utility.yul\":4335:4338   */\n      dup3\n        /* \"#utility.yul\":4246:4339   */\n      tag_160\n      jump\t// in\n    tag_248:\n        /* \"#utility.yul\":4364:4366   */\n      0x20\n        /* \"#utility.yul\":4359:4362   */\n      dup3\n        /* \"#utility.yul\":4355:4367   */\n      add\n        /* \"#utility.yul\":4348:4367   */\n      swap1\n      pop\n        /* \"#utility.yul\":4007:4373   */\n      swap2\n      swap1\n      pop\n      jump\t// out\n        /* \"#utility.yul\":4379:4798   */\n    tag_43:\n        /* \"#utility.yul\":4545:4549   */\n      0x00\n        /* \"#utility.yul\":4583:4585   */\n      0x20\n        /* \"#utility.yul\":4572:4581   */\n      dup3\n        /* \"#utility.yul\":4568:4586   */\n      add\n        /* \"#utility.yul\":4560:4586   */\n      swap1\n      pop\n        /* \"#utility.yul\":4632:4641   */\n      dup2\n        /* \"#utility.yul\":4626:4630   */\n      dup2\n        /* \"#utility.yul\":4622:4642   */\n      sub\n        /* \"#utility.yul\":4618:4619   */\n      0x00\n        /* \"#utility.yul\":4607:4616   */\n      dup4\n        /* \"#utility.yul\":4603:4620   */\n      add\n        /* \"#utility.yul\":4596:4643   */\n      mstore\n        /* \"#utility.yul\":4660:4791   */\n      tag_250\n        /* \"#utility.yul\":4786:4790   */\n      dup2\n        /* \"#utility.yul\":4660:4791   */\n      tag_161\n      jump\t// in\n    tag_250:\n        /* \"#utility.yul\":4652:4791   */\n      swap1\n      pop\n        /* \"#utility.yul\":4379:4798   */\n      swap2\n      swap1\n      pop\n      jump\t// out\n        /* \"#utility.yul\":4804:5031   */\n    tag_162:\n        /* \"#utility.yul\":4944:4978   */\n      0x43686920636875206e686120686f6163206e67756f692074687565206d6f6920\n        /* \"#utility.yul\":4940:4941   */\n      0x00\n        /* \"#utility.yul\":4932:4938   */\n      dup3\n        /* \"#utility.yul\":4928:4942   */\n      add\n        /* \"#utility.yul\":4921:4979   */\n      mstore\n        /* \"#utility.yul\":5013:5023   */\n      0x636f20717579656e000000000000000000000000000000000000000000000000\n        /* \"#utility.yul\":5008:5010   */\n      0x20\n        /* \"#utility.yul\":5000:5006   */\n      dup3\n        /* \"#utility.yul\":4996:5011   */\n      add\n        /* \"#utility.yul\":4989:5024   */\n      mstore\n        /* \"#utility.yul\":4804:5031   */\n      pop\n      jump\t// out\n        /* \"#utility.yul\":5037:5403   */\n    tag_163:\n        /* \"#utility.yul\":5179:5182   */\n      0x00\n        /* \"#utility.yul\":5200:5267   */\n      tag_253\n        /* \"#utility.yul\":5264:5266   */\n      0x28\n        /* \"#utility.yul\":5259:5262   */\n      dup4\n        /* \"#utility.yul\":5200:5267   */\n      tag_159\n      jump\t// in\n    tag_253:\n        /* \"#utility.yul\":5193:5267   */\n      swap2\n      pop\n        /* \"#utility.yul\":5276:5369   */\n      tag_254\n        /* \"#utility.yul\":5365:5368   */\n      dup3\n        /* \"#utility.yul\":5276:5369   */\n      tag_162\n      jump\t// in\n    tag_254:\n        /* \"#utility.yul\":5394:5396   */\n      0x40\n        /* \"#utility.yul\":5389:5392   */\n      dup3\n        /* \"#utility.yul\":5385:5397   */\n      add\n        /* \"#utility.yul\":5378:5397   */\n      swap1\n      pop\n        /* \"#utility.yul\":5037:5403   */\n      swap2\n      swap1\n      pop\n      jump\t// out\n        /* \"#utility.yul\":5409:5828   */\n    tag_47:\n        /* \"#utility.yul\":5575:5579   */\n      0x00\n        /* \"#utility.yul\":5613:5615   */\n      0x20\n        /* \"#utility.yul\":5602:5611   */\n      dup3\n        /* \"#utility.yul\":5598:5616   */\n      add\n        /* \"#utility.yul\":5590:5616   */\n      swap1\n      pop\n        /* \"#utility.yul\":5662:5671   */\n      dup2\n        /* \"#utility.yul\":5656:5660   */\n      dup2\n        /* \"#utility.yul\":5652:5672   */\n      sub\n        /* \"#utility.yul\":5648:5649   */\n      0x00\n        /* \"#utility.yul\":5637:5646   */\n      dup4\n        /* \"#utility.yul\":5633:5650   */\n      add\n        /* \"#utility.yul\":5626:5673   */\n      mstore\n        /* \"#utility.yul\":5690:5821   */\n      tag_256\n        /* \"#utility.yul\":5816:5820   */\n      dup2\n        /* \"#utility.yul\":5690:5821   */\n      tag_163\n      jump\t// in\n    tag_256:\n        /* \"#utility.yul\":5682:5821   */\n      swap1\n      pop\n        /* \"#utility.yul\":5409:5828   */\n      swap2\n      swap1\n      pop\n      jump\t// out\n        /* \"#utility.yul\":5834:6014   */\n    tag_164:\n        /* \"#utility.yul\":5882:5959   */\n      0x4e487b7100000000000000000000000000000000000000000000000000000000\n        /* \"#utility.yul\":5879:5880   */\n      0x00\n        /* \"#utility.yul\":5872:5960   */\n      mstore\n        /* \"#utility.yul\":5979:5983   */\n      0x11\n        /* \"#utility.yul\":5976:5977   */\n      0x04\n        /* \"#utility.yul\":5969:5984   */\n      mstore\n        /* \"#utility.yul\":6003:6007   */\n      0x24\n        /* \"#utility.yul\":6000:6001   */\n      0x00\n        /* \"#utility.yul\":5993:6008   */\n      revert\n        /* \"#utility.yul\":6020:6214   */\n    tag_49:\n        /* \"#utility.yul\":6060:6064   */\n      0x00\n        /* \"#utility.yul\":6080:6100   */\n      tag_259\n        /* \"#utility.yul\":6098:6099   */\n      dup3\n        /* \"#utility.yul\":6080:6100   */\n      tag_148\n      jump\t// in\n    tag_259:\n        /* \"#utility.yul\":6075:6100   */\n      swap2\n      pop\n        /* \"#utility.yul\":6114:6134   */\n      tag_260\n        /* \"#utility.yul\":6132:6133   */\n      dup4\n        /* \"#utility.yul\":6114:6134   */\n      tag_148\n      jump\t// in\n    tag_260:\n        /* \"#utility.yul\":6109:6134   */\n      swap3\n      pop\n        /* \"#utility.yul\":6158:6159   */\n      dup3\n        /* \"#utility.yul\":6155:6156   */\n      dup3\n        /* \"#utility.yul\":6151:6160   */\n      sub\n        /* \"#utility.yul\":6143:6160   */\n      swap1\n      pop\n        /* \"#utility.yul\":6182:6183   */\n      dup2\n        /* \"#utility.yul\":6176:6180   */\n      dup2\n        /* \"#utility.yul\":6173:6184   */\n      gt\n        /* \"#utility.yul\":6170:6207   */\n      iszero\n      tag_261\n      jumpi\n        /* \"#utility.yul\":6187:6205   */\n      tag_262\n      tag_164\n      jump\t// in\n    tag_262:\n        /* \"#utility.yul\":6170:6207   */\n    tag_261:\n        /* \"#utility.yul\":6020:6214   */\n      swap3\n      swap2\n      pop\n      pop\n      jump\t// out\n        /* \"#utility.yul\":6220:6400   */\n    tag_165:\n        /* \"#utility.yul\":6268:6345   */\n      0x4e487b7100000000000000000000000000000000000000000000000000000000\n        /* \"#utility.yul\":6265:6266   */\n      0x00\n        /* \"#utility.yul\":6258:6346   */\n      mstore\n        /* \"#utility.yul\":6365:6369   */\n      0x12\n        /* \"#utility.yul\":6362:6363   */\n      0x04\n        /* \"#utility.yul\":6355:6370   */\n      mstore\n        /* \"#utility.yul\":6389:6393   */\n      0x24\n        /* \"#utility.yul\":6386:6387   */\n      0x00\n        /* \"#utility.yul\":6379:6394   */\n      revert\n        /* \"#utility.yul\":6406:6591   */\n    tag_51:\n        /* \"#utility.yul\":6446:6447   */\n      0x00\n        /* \"#utility.yul\":6463:6483   */\n      tag_265\n        /* \"#utility.yul\":6481:6482   */\n      dup3\n        /* \"#utility.yul\":6463:6483   */\n      tag_148\n      jump\t// in\n    tag_265:\n        /* \"#utility.yul\":6458:6483   */\n      swap2\n      pop\n        /* \"#utility.yul\":6497:6517   */\n      tag_266\n        /* \"#utility.yul\":6515:6516   */\n      dup4\n        /* \"#utility.yul\":6497:6517   */\n      tag_148\n      jump\t// in\n    tag_266:\n        /* \"#utility.yul\":6492:6517   */\n      swap3\n      pop\n        /* \"#utility.yul\":6536:6537   */\n      dup3\n        /* \"#utility.yul\":6526:6561   */\n      tag_267\n      jumpi\n        /* \"#utility.yul\":6541:6559   */\n      tag_268\n      tag_165\n      jump\t// in\n    tag_268:\n        /* \"#utility.yul\":6526:6561   */\n    tag_267:\n        /* \"#utility.yul\":6583:6584   */\n      dup3\n        /* \"#utility.yul\":6580:6581   */\n      dup3\n        /* \"#utility.yul\":6576:6585   */\n      div\n        /* \"#utility.yul\":6571:6585   */\n      swap1\n      pop\n        /* \"#utility.yul\":6406:6591   */\n      swap3\n      swap2\n      pop\n      pop\n      jump\t// out\n        /* \"#utility.yul\":6597:7007   */\n    tag_55:\n        /* \"#utility.yul\":6637:6644   */\n      0x00\n        /* \"#utility.yul\":6660:6680   */\n      tag_270\n        /* \"#utility.yul\":6678:6679   */\n      dup3\n        /* \"#utility.yul\":6660:6680   */\n      tag_148\n      jump\t// in\n    tag_270:\n        /* \"#utility.yul\":6655:6680   */\n      swap2\n      pop\n        /* \"#utility.yul\":6694:6714   */\n      tag_271\n        /* \"#utility.yul\":6712:6713   */\n      dup4\n        /* \"#utility.yul\":6694:6714   */\n      tag_148\n      jump\t// in\n    tag_271:\n        /* \"#utility.yul\":6689:6714   */\n      swap3\n      pop\n        /* \"#utility.yul\":6749:6750   */\n      dup3\n        /* \"#utility.yul\":6746:6747   */\n      dup3\n        /* \"#utility.yul\":6742:6751   */\n      mul\n        /* \"#utility.yul\":6771:6801   */\n      tag_272\n        /* \"#utility.yul\":6789:6800   */\n      dup2\n        /* \"#utility.yul\":6771:6801   */\n      tag_148\n      jump\t// in\n    tag_272:\n        /* \"#utility.yul\":6760:6801   */\n      swap2\n      pop\n        /* \"#utility.yul\":6950:6951   */\n      dup3\n        /* \"#utility.yul\":6941:6948   */\n      dup3\n        /* \"#utility.yul\":6937:6952   */\n      div\n        /* \"#utility.yul\":6934:6935   */\n      dup5\n        /* \"#utility.yul\":6931:6953   */\n      eq\n        /* \"#utility.yul\":6911:6912   */\n      dup4\n        /* \"#utility.yul\":6904:6913   */\n      iszero\n        /* \"#utility.yul\":6884:6967   */\n      or\n        /* \"#utility.yul\":6861:7000   */\n      tag_273\n      jumpi\n        /* \"#utility.yul\":6980:6998   */\n      tag_274\n      tag_164\n      jump\t// in\n    tag_274:\n        /* \"#utility.yul\":6861:7000   */\n    tag_273:\n        /* \"#utility.yul\":6645:7007   */\n      pop\n        /* \"#utility.yul\":6597:7007   */\n      swap3\n      swap2\n      pop\n      pop\n      jump\t// out\n        /* \"#utility.yul\":7013:7160   */\n    tag_166:\n        /* \"#utility.yul\":7114:7125   */\n      0x00\n        /* \"#utility.yul\":7151:7154   */\n      dup2\n        /* \"#utility.yul\":7136:7154   */\n      swap1\n      pop\n        /* \"#utility.yul\":7013:7160   */\n      swap3\n      swap2\n      pop\n      pop\n      jump\t// out\n        /* \"#utility.yul\":7166:7280   */\n    tag_167:\n      pop\n      jump\t// out\n        /* \"#utility.yul\":7286:7684   */\n    tag_168:\n        /* \"#utility.yul\":7445:7448   */\n      0x00\n        /* \"#utility.yul\":7466:7549   */\n      tag_278\n        /* \"#utility.yul\":7547:7548   */\n      0x00\n        /* \"#utility.yul\":7542:7545   */\n      dup4\n        /* \"#utility.yul\":7466:7549   */\n      tag_166\n      jump\t// in\n    tag_278:\n        /* \"#utility.yul\":7459:7549   */\n      swap2\n      pop\n        /* \"#utility.yul\":7558:7651   */\n      tag_279\n        /* \"#utility.yul\":7647:7650   */\n      dup3\n        /* \"#utility.yul\":7558:7651   */\n      tag_167\n      jump\t// in\n    tag_279:\n        /* \"#utility.yul\":7676:7677   */\n      0x00\n        /* \"#utility.yul\":7671:7674   */\n      dup3\n        /* \"#utility.yul\":7667:7678   */\n      add\n        /* \"#utility.yul\":7660:7678   */\n      swap1\n      pop\n        /* \"#utility.yul\":7286:7684   */\n      swap2\n      swap1\n      pop\n      jump\t// out\n        /* \"#utility.yul\":7690:8069   */\n    tag_59:\n        /* \"#utility.yul\":7874:7877   */\n      0x00\n        /* \"#utility.yul\":7896:8043   */\n      tag_281\n        /* \"#utility.yul\":8039:8042   */\n      dup3\n        /* \"#utility.yul\":7896:8043   */\n      tag_168\n      jump\t// in\n    tag_281:\n        /* \"#utility.yul\":7889:8043   */\n      swap2\n      pop\n        /* \"#utility.yul\":8060:8063   */\n      dup2\n        /* \"#utility.yul\":8053:8063   */\n      swap1\n      pop\n        /* \"#utility.yul\":7690:8069   */\n      swap2\n      swap1\n      pop\n      jump\t// out\n        /* \"#utility.yul\":8075:8245   */\n    tag_169:\n        /* \"#utility.yul\":8215:8237   */\n      0x43687579656e207469656e207468617420626169000000000000000000000000\n        /* \"#utility.yul\":8211:8212   */\n      0x00\n        /* \"#utility.yul\":8203:8209   */\n      dup3\n        /* \"#utility.yul\":8199:8213   */\n      add\n        /* \"#utility.yul\":8192:8238   */\n      mstore\n        /* \"#utility.yul\":8075:8245   */\n      pop\n      jump\t// out\n        /* \"#utility.yul\":8251:8617   */\n    tag_170:\n        /* \"#utility.yul\":8393:8396   */\n      0x00\n        /* \"#utility.yul\":8414:8481   */\n      tag_284\n        /* \"#utility.yul\":8478:8480   */\n      0x14\n        /* \"#utility.yul\":8473:8476   */\n      dup4\n        /* \"#utility.yul\":8414:8481   */\n      tag_159\n      jump\t// in\n    tag_284:\n        /* \"#utility.yul\":8407:8481   */\n      swap2\n      pop\n        /* \"#utility.yul\":8490:8583   */\n      tag_285\n        /* \"#utility.yul\":8579:8582   */\n      dup3\n        /* \"#utility.yul\":8490:8583   */\n      tag_169\n      jump\t// in\n    tag_285:\n        /* \"#utility.yul\":8608:8610   */\n      0x20\n        /* \"#utility.yul\":8603:8606   */\n      dup3\n        /* \"#utility.yul\":8599:8611   */\n      add\n        /* \"#utility.yul\":8592:8611   */\n      swap1\n      pop\n        /* \"#utility.yul\":8251:8617   */\n      swap2\n      swap1\n      pop\n      jump\t// out\n        /* \"#utility.yul\":8623:9042   */\n    tag_65:\n        /* \"#utility.yul\":8789:8793   */\n      0x00\n        /* \"#utility.yul\":8827:8829   */\n      0x20\n        /* \"#utility.yul\":8816:8825   */\n      dup3\n        /* \"#utility.yul\":8812:8830   */\n      add\n        /* \"#utility.yul\":8804:8830   */\n      swap1\n      pop\n        /* \"#utility.yul\":8876:8885   */\n      dup2\n        /* \"#utility.yul\":8870:8874   */\n      dup2\n        /* \"#utility.yul\":8866:8886   */\n      sub\n        /* \"#utility.yul\":8862:8863   */\n      0x00\n        /* \"#utility.yul\":8851:8860   */\n      dup4\n        /* \"#utility.yul\":8847:8864   */\n      add\n        /* \"#utility.yul\":8840:8887   */\n      mstore\n        /* \"#utility.yul\":8904:9035   */\n      tag_287\n        /* \"#utility.yul\":9030:9034   */\n      dup2\n        /* \"#utility.yul\":8904:9035   */\n      tag_170\n      jump\t// in\n    tag_287:\n        /* \"#utility.yul\":8896:9035   */\n      swap1\n      pop\n        /* \"#utility.yul\":8623:9042   */\n      swap2\n      swap1\n      pop\n      jump\t// out\n        /* \"#utility.yul\":9048:9239   */\n    tag_68:\n        /* \"#utility.yul\":9088:9091   */\n      0x00\n        /* \"#utility.yul\":9107:9127   */\n      tag_289\n        /* \"#utility.yul\":9125:9126   */\n      dup3\n        /* \"#utility.yul\":9107:9127   */\n      tag_148\n      jump\t// in\n    tag_289:\n        /* \"#utility.yul\":9102:9127   */\n      swap2\n      pop\n        /* \"#utility.yul\":9141:9161   */\n      tag_290\n        /* \"#utility.yul\":9159:9160   */\n      dup4\n        /* \"#utility.yul\":9141:9161   */\n      tag_148\n      jump\t// in\n    tag_290:\n        /* \"#utility.yul\":9136:9161   */\n      swap3\n      pop\n        /* \"#utility.yul\":9184:9185   */\n      dup3\n        /* \"#utility.yul\":9181:9182   */\n      dup3\n        /* \"#utility.yul\":9177:9186   */\n      add\n        /* \"#utility.yul\":9170:9186   */\n      swap1\n      pop\n        /* \"#utility.yul\":9205:9208   */\n      dup1\n        /* \"#utility.yul\":9202:9203   */\n      dup3\n        /* \"#utility.yul\":9199:9209   */\n      gt\n        /* \"#utility.yul\":9196:9232   */\n      iszero\n      tag_291\n      jumpi\n        /* \"#utility.yul\":9212:9230   */\n      tag_292\n      tag_164\n      jump\t// in\n    tag_292:\n        /* \"#utility.yul\":9196:9232   */\n    tag_291:\n        /* \"#utility.yul\":9048:9239   */\n      swap3\n      swap2\n      pop\n      pop\n      jump\t// out\n        /* \"#utility.yul\":9245:9424   */\n    tag_171:\n        /* \"#utility.yul\":9385:9416   */\n      0x43686920636875206e6861206d6f692064756f6320727574207469656e000000\n        /* \"#utility.yul\":9381:9382   */\n      0x00\n        /* \"#utility.yul\":9373:9379   */\n      dup3\n        /* \"#utility.yul\":9369:9383   */\n      add\n        /* \"#utility.yul\":9362:9417   */\n      mstore\n        /* \"#utility.yul\":9245:9424   */\n      pop\n      jump\t// out\n        /* \"#utility.yul\":9430:9796   */\n    tag_172:\n        /* \"#utility.yul\":9572:9575   */\n      0x00\n        /* \"#utility.yul\":9593:9660   */\n      tag_295\n        /* \"#utility.yul\":9657:9659   */\n      0x1d\n        /* \"#utility.yul\":9652:9655   */\n      dup4\n        /* \"#utility.yul\":9593:9660   */\n      tag_159\n      jump\t// in\n    tag_295:\n        /* \"#utility.yul\":9586:9660   */\n      swap2\n      pop\n        /* \"#utility.yul\":9669:9762   */\n      tag_296\n        /* \"#utility.yul\":9758:9761   */\n      dup3\n        /* \"#utility.yul\":9669:9762   */\n      tag_171\n      jump\t// in\n    tag_296:\n        /* \"#utility.yul\":9787:9789   */\n      0x20\n        /* \"#utility.yul\":9782:9785   */\n      dup3\n        /* \"#utility.yul\":9778:9790   */\n      add\n        /* \"#utility.yul\":9771:9790   */\n      swap1\n      pop\n        /* \"#utility.yul\":9430:9796   */\n      swap2\n      swap1\n      pop\n      jump\t// out\n        /* \"#utility.yul\":9802:10221   */\n    tag_72:\n        /* \"#utility.yul\":9968:9972   */\n      0x00\n        /* \"#utility.yul\":10006:10008   */\n      0x20\n        /* \"#utility.yul\":9995:10004   */\n      dup3\n        /* \"#utility.yul\":9991:10009   */\n      add\n        /* \"#utility.yul\":9983:10009   */\n      swap1\n      pop\n        /* \"#utility.yul\":10055:10064   */\n      dup2\n        /* \"#utility.yul\":10049:10053   */\n      dup2\n        /* \"#utility.yul\":10045:10065   */\n      sub\n        /* \"#utility.yul\":10041:10042   */\n      0x00\n        /* \"#utility.yul\":10030:10039   */\n      dup4\n        /* \"#utility.yul\":10026:10043   */\n      add\n        /* \"#utility.yul\":10019:10066   */\n      mstore\n        /* \"#utility.yul\":10083:10214   */\n      tag_298\n        /* \"#utility.yul\":10209:10213   */\n      dup2\n        /* \"#utility.yul\":10083:10214   */\n      tag_172\n      jump\t// in\n    tag_298:\n        /* \"#utility.yul\":10075:10214   */\n      swap1\n      pop\n        /* \"#utility.yul\":9802:10221   */\n      swap2\n      swap1\n      pop\n      jump\t// out\n        /* \"#utility.yul\":10227:10400   */\n    tag_173:\n        /* \"#utility.yul\":10367:10392   */\n      0x4368756120636f20686f7020646f6e6720686f70206c65000000000000000000\n        /* \"#utility.yul\":10363:10364   */\n      0x00\n        /* \"#utility.yul\":10355:10361   */\n      dup3\n        /* \"#utility.yul\":10351:10365   */\n      add\n        /* \"#utility.yul\":10344:10393   */\n      mstore\n        /* \"#utility.yul\":10227:10400   */\n      pop\n      jump\t// out\n        /* \"#utility.yul\":10406:10772   */\n    tag_174:\n        /* \"#utility.yul\":10548:10551   */\n      0x00\n        /* \"#utility.yul\":10569:10636   */\n      tag_301\n        /* \"#utility.yul\":10633:10635   */\n      0x17\n        /* \"#utility.yul\":10628:10631   */\n      dup4\n        /* \"#utility.yul\":10569:10636   */\n      tag_159\n      jump\t// in\n    tag_301:\n        /* \"#utility.yul\":10562:10636   */\n      swap2\n      pop\n        /* \"#utility.yul\":10645:10738   */\n      tag_302\n        /* \"#utility.yul\":10734:10737   */\n      dup3\n        /* \"#utility.yul\":10645:10738   */\n      tag_173\n      jump\t// in\n    tag_302:\n        /* \"#utility.yul\":10763:10765   */\n      0x20\n        /* \"#utility.yul\":10758:10761   */\n      dup3\n        /* \"#utility.yul\":10754:10766   */\n      add\n        /* \"#utility.yul\":10747:10766   */\n      swap1\n      pop\n        /* \"#utility.yul\":10406:10772   */\n      swap2\n      swap1\n      pop\n      jump\t// out\n        /* \"#utility.yul\":10778:11197   */\n    tag_75:\n        /* \"#utility.yul\":10944:10948   */\n      0x00\n        /* \"#utility.yul\":10982:10984   */\n      0x20\n        /* \"#utility.yul\":10971:10980   */\n      dup3\n        /* \"#utility.yul\":10967:10985   */\n      add\n        /* \"#utility.yul\":10959:10985   */\n      swap1\n      pop\n        /* \"#utility.yul\":11031:11040   */\n      dup2\n        /* \"#utility.yul\":11025:11029   */\n      dup2\n        /* \"#utility.yul\":11021:11041   */\n      sub\n        /* \"#utility.yul\":11017:11018   */\n      0x00\n        /* \"#utility.yul\":11006:11015   */\n      dup4\n        /* \"#utility.yul\":11002:11019   */\n      add\n        /* \"#utility.yul\":10995:11042   */\n      mstore\n        /* \"#utility.yul\":11059:11190   */\n      tag_304\n        /* \"#utility.yul\":11185:11189   */\n      dup2\n        /* \"#utility.yul\":11059:11190   */\n      tag_174\n      jump\t// in\n    tag_304:\n        /* \"#utility.yul\":11051:11190   */\n      swap1\n      pop\n        /* \"#utility.yul\":10778:11197   */\n      swap2\n      swap1\n      pop\n      jump\t// out\n        /* \"#utility.yul\":11203:11384   */\n    tag_175:\n        /* \"#utility.yul\":11343:11376   */\n      0x4e67756f692074687565206461207468616e6820746f616e2064617920647500\n        /* \"#utility.yul\":11339:11340   */\n      0x00\n        /* \"#utility.yul\":11331:11337   */\n      dup3\n        /* \"#utility.yul\":11327:11341   */\n      add\n        /* \"#utility.yul\":11320:11377   */\n      mstore\n        /* \"#utility.yul\":11203:11384   */\n      pop\n      jump\t// out\n        /* \"#utility.yul\":11390:11756   */\n    tag_176:\n        /* \"#utility.yul\":11532:11535   */\n      0x00\n        /* \"#utility.yul\":11553:11620   */\n      tag_307\n        /* \"#utility.yul\":11617:11619   */\n      0x1f\n        /* \"#utility.yul\":11612:11615   */\n      dup4\n        /* \"#utility.yul\":11553:11620   */\n      tag_159\n      jump\t// in\n    tag_307:\n        /* \"#utility.yul\":11546:11620   */\n      swap2\n      pop\n        /* \"#utility.yul\":11629:11722   */\n      tag_308\n        /* \"#utility.yul\":11718:11721   */\n      dup3\n        /* \"#utility.yul\":11629:11722   */\n      tag_175\n      jump\t// in\n    tag_308:\n        /* \"#utility.yul\":11747:11749   */\n      0x20\n        /* \"#utility.yul\":11742:11745   */\n      dup3\n        /* \"#utility.yul\":11738:11750   */\n      add\n        /* \"#utility.yul\":11731:11750   */\n      swap1\n      pop\n        /* \"#utility.yul\":11390:11756   */\n      swap2\n      swap1\n      pop\n      jump\t// out\n        /* \"#utility.yul\":11762:12181   */\n    tag_78:\n        /* \"#utility.yul\":11928:11932   */\n      0x00\n        /* \"#utility.yul\":11966:11968   */\n      0x20\n        /* \"#utility.yul\":11955:11964   */\n      dup3\n        /* \"#utility.yul\":11951:11969   */\n      add\n        /* \"#utility.yul\":11943:11969   */\n      swap1\n      pop\n        /* \"#utility.yul\":12015:12024   */\n      dup2\n        /* \"#utility.yul\":12009:12013   */\n      dup2\n        /* \"#utility.yul\":12005:12025   */\n      sub\n        /* \"#utility.yul\":12001:12002   */\n      0x00\n        /* \"#utility.yul\":11990:11999   */\n      dup4\n        /* \"#utility.yul\":11986:12003   */\n      add\n        /* \"#utility.yul\":11979:12026   */\n      mstore\n        /* \"#utility.yul\":12043:12174   */\n      tag_310\n        /* \"#utility.yul\":12169:12173   */\n      dup2\n        /* \"#utility.yul\":12043:12174   */\n      tag_176\n      jump\t// in\n    tag_310:\n        /* \"#utility.yul\":12035:12174   */\n      swap1\n      pop\n        /* \"#utility.yul\":11762:12181   */\n      swap2\n      swap1\n      pop\n      jump\t// out\n        /* \"#utility.yul\":12187:12365   */\n    tag_177:\n        /* \"#utility.yul\":12327:12357   */\n      0x4368756120636f207468616e67206e616f206d6f692064652072757400000000\n        /* \"#utility.yul\":12323:12324   */\n      0x00\n        /* \"#utility.yul\":12315:12321   */\n      dup3\n        /* \"#utility.yul\":12311:12325   */\n      add\n        /* \"#utility.yul\":12304:12358   */\n      mstore\n        /* \"#utility.yul\":12187:12365   */\n      pop\n      jump\t// out\n        /* \"#utility.yul\":12371:12737   */\n    tag_178:\n        /* \"#utility.yul\":12513:12516   */\n      0x00\n        /* \"#utility.yul\":12534:12601   */\n      tag_313\n        /* \"#utility.yul\":12598:12600   */\n      0x1c\n        /* \"#utility.yul\":12593:12596   */\n      dup4\n        /* \"#utility.yul\":12534:12601   */\n      tag_159\n      jump\t// in\n    tag_313:\n        /* \"#utility.yul\":12527:12601   */\n      swap2\n      pop\n        /* \"#utility.yul\":12610:12703   */\n      tag_314\n        /* \"#utility.yul\":12699:12702   */\n      dup3\n        /* \"#utility.yul\":12610:12703   */\n      tag_177\n      jump\t// in\n    tag_314:\n        /* \"#utility.yul\":12728:12730   */\n      0x20\n        /* \"#utility.yul\":12723:12726   */\n      dup3\n        /* \"#utility.yul\":12719:12731   */\n      add\n        /* \"#utility.yul\":12712:12731   */\n      swap1\n      pop\n        /* \"#utility.yul\":12371:12737   */\n      swap2\n      swap1\n      pop\n      jump\t// out\n        /* \"#utility.yul\":12743:13162   */\n    tag_83:\n        /* \"#utility.yul\":12909:12913   */\n      0x00\n        /* \"#utility.yul\":12947:12949   */\n      0x20\n        /* \"#utility.yul\":12936:12945   */\n      dup3\n        /* \"#utility.yul\":12932:12950   */\n      add\n        /* \"#utility.yul\":12924:12950   */\n      swap1\n      pop\n        /* \"#utility.yul\":12996:13005   */\n      dup2\n        /* \"#utility.yul\":12990:12994   */\n      dup2\n        /* \"#utility.yul\":12986:13006   */\n      sub\n        /* \"#utility.yul\":12982:12983   */\n      0x00\n        /* \"#utility.yul\":12971:12980   */\n      dup4\n        /* \"#utility.yul\":12967:12984   */\n      add\n        /* \"#utility.yul\":12960:13007   */\n      mstore\n        /* \"#utility.yul\":13024:13155   */\n      tag_316\n        /* \"#utility.yul\":13150:13154   */\n      dup2\n        /* \"#utility.yul\":13024:13155   */\n      tag_178\n      jump\t// in\n    tag_316:\n        /* \"#utility.yul\":13016:13155   */\n      swap1\n      pop\n        /* \"#utility.yul\":12743:13162   */\n      swap2\n      swap1\n      pop\n      jump\t// out\n        /* \"#utility.yul\":13168:13401   */\n    tag_179:\n        /* \"#utility.yul\":13308:13342   */\n      0x536f207468616e67206d756f6e20727574206c6f6e20686f6e20736f2074686f\n        /* \"#utility.yul\":13304:13305   */\n      0x00\n        /* \"#utility.yul\":13296:13302   */\n      dup3\n        /* \"#utility.yul\":13292:13306   */\n      add\n        /* \"#utility.yul\":13285:13343   */\n      mstore\n        /* \"#utility.yul\":13377:13393   */\n      0x69206769616e20636f6e206c6169000000000000000000000000000000000000\n        /* \"#utility.yul\":13372:13374   */\n      0x20\n        /* \"#utility.yul\":13364:13370   */\n      dup3\n        /* \"#utility.yul\":13360:13375   */\n      add\n        /* \"#utility.yul\":13353:13394   */\n      mstore\n        /* \"#utility.yul\":13168:13401   */\n      pop\n      jump\t// out\n        /* \"#utility.yul\":13407:13773   */\n    tag_180:\n        /* \"#utility.yul\":13549:13552   */\n      0x00\n        /* \"#utility.yul\":13570:13637   */\n      tag_319\n        /* \"#utility.yul\":13634:13636   */\n      0x2e\n        /* \"#utility.yul\":13629:13632   */\n      dup4\n        /* \"#utility.yul\":13570:13637   */\n      tag_159\n      jump\t// in\n    tag_319:\n        /* \"#utility.yul\":13563:13637   */\n      swap2\n      pop\n        /* \"#utility.yul\":13646:13739   */\n      tag_320\n        /* \"#utility.yul\":13735:13738   */\n      dup3\n        /* \"#utility.yul\":13646:13739   */\n      tag_179\n      jump\t// in\n    tag_320:\n        /* \"#utility.yul\":13764:13766   */\n      0x40\n        /* \"#utility.yul\":13759:13762   */\n      dup3\n        /* \"#utility.yul\":13755:13767   */\n      add\n        /* \"#utility.yul\":13748:13767   */\n      swap1\n      pop\n        /* \"#utility.yul\":13407:13773   */\n      swap2\n      swap1\n      pop\n      jump\t// out\n        /* \"#utility.yul\":13779:14198   */\n    tag_87:\n        /* \"#utility.yul\":13945:13949   */\n      0x00\n        /* \"#utility.yul\":13983:13985   */\n      0x20\n        /* \"#utility.yul\":13972:13981   */\n      dup3\n        /* \"#utility.yul\":13968:13986   */\n      add\n        /* \"#utility.yul\":13960:13986   */\n      swap1\n      pop\n        /* \"#utility.yul\":14032:14041   */\n      dup2\n        /* \"#utility.yul\":14026:14030   */\n      dup2\n        /* \"#utility.yul\":14022:14042   */\n      sub\n        /* \"#utility.yul\":14018:14019   */\n      0x00\n        /* \"#utility.yul\":14007:14016   */\n      dup4\n        /* \"#utility.yul\":14003:14020   */\n      add\n        /* \"#utility.yul\":13996:14043   */\n      mstore\n        /* \"#utility.yul\":14060:14191   */\n      tag_322\n        /* \"#utility.yul\":14186:14190   */\n      dup2\n        /* \"#utility.yul\":14060:14191   */\n      tag_180\n      jump\t// in\n    tag_322:\n        /* \"#utility.yul\":14052:14191   */\n      swap1\n      pop\n        /* \"#utility.yul\":13779:14198   */\n      swap2\n      swap1\n      pop\n      jump\t// out\n        /* \"#utility.yul\":14204:14368   */\n    tag_181:\n        /* \"#utility.yul\":14344:14360   */\n      0x536f206475206b686f6e67206475000000000000000000000000000000000000\n        /* \"#utility.yul\":14340:14341   */\n      0x00\n        /* \"#utility.yul\":14332:14338   */\n      dup3\n        /* \"#utility.yul\":14328:14342   */\n      add\n        /* \"#utility.yul\":14321:14361   */\n      mstore\n        /* \"#utility.yul\":14204:14368   */\n      pop\n      jump\t// out\n        /* \"#utility.yul\":14374:14740   */\n    tag_182:\n        /* \"#utility.yul\":14516:14519   */\n      0x00\n        /* \"#utility.yul\":14537:14604   */\n      tag_325\n        /* \"#utility.yul\":14601:14603   */\n      0x0e\n        /* \"#utility.yul\":14596:14599   */\n      dup4\n        /* \"#utility.yul\":14537:14604   */\n      tag_159\n      jump\t// in\n    tag_325:\n        /* \"#utility.yul\":14530:14604   */\n      swap2\n      pop\n        /* \"#utility.yul\":14613:14706   */\n      tag_326\n        /* \"#utility.yul\":14702:14705   */\n      dup3\n        /* \"#utility.yul\":14613:14706   */\n      tag_181\n      jump\t// in\n    tag_326:\n        /* \"#utility.yul\":14731:14733   */\n      0x20\n        /* \"#utility.yul\":14726:14729   */\n      dup3\n        /* \"#utility.yul\":14722:14734   */\n      add\n        /* \"#utility.yul\":14715:14734   */\n      swap1\n      pop\n        /* \"#utility.yul\":14374:14740   */\n      swap2\n      swap1\n      pop\n      jump\t// out\n        /* \"#utility.yul\":14746:15165   */\n    tag_91:\n        /* \"#utility.yul\":14912:14916   */\n      0x00\n        /* \"#utility.yul\":14950:14952   */\n      0x20\n        /* \"#utility.yul\":14939:14948   */\n      dup3\n        /* \"#utility.yul\":14935:14953   */\n      add\n        /* \"#utility.yul\":14927:14953   */\n      swap1\n      pop\n        /* \"#utility.yul\":14999:15008   */\n      dup2\n        /* \"#utility.yul\":14993:14997   */\n      dup2\n        /* \"#utility.yul\":14989:15009   */\n      sub\n        /* \"#utility.yul\":14985:14986   */\n      0x00\n        /* \"#utility.yul\":14974:14983   */\n      dup4\n        /* \"#utility.yul\":14970:14987   */\n      add\n        /* \"#utility.yul\":14963:15010   */\n      mstore\n        /* \"#utility.yul\":15027:15158   */\n      tag_328\n        /* \"#utility.yul\":15153:15157   */\n      dup2\n        /* \"#utility.yul\":15027:15158   */\n      tag_182\n      jump\t// in\n    tag_328:\n        /* \"#utility.yul\":15019:15158   */\n      swap1\n      pop\n        /* \"#utility.yul\":14746:15165   */\n      swap2\n      swap1\n      pop\n      jump\t// out\n        /* \"#utility.yul\":15171:15340   */\n    tag_183:\n        /* \"#utility.yul\":15311:15332   */\n      0x486f7020646f6e672064612064756f63206b7900000000000000000000000000\n        /* \"#utility.yul\":15307:15308   */\n      0x00\n        /* \"#utility.yul\":15299:15305   */\n      dup3\n        /* \"#utility.yul\":15295:15309   */\n      add\n        /* \"#utility.yul\":15288:15333   */\n      mstore\n        /* \"#utility.yul\":15171:15340   */\n      pop\n      jump\t// out\n        /* \"#utility.yul\":15346:15712   */\n    tag_184:\n        /* \"#utility.yul\":15488:15491   */\n      0x00\n        /* \"#utility.yul\":15509:15576   */\n      tag_331\n        /* \"#utility.yul\":15573:15575   */\n      0x13\n        /* \"#utility.yul\":15568:15571   */\n      dup4\n        /* \"#utility.yul\":15509:15576   */\n      tag_159\n      jump\t// in\n    tag_331:\n        /* \"#utility.yul\":15502:15576   */\n      swap2\n      pop\n        /* \"#utility.yul\":15585:15678   */\n      tag_332\n        /* \"#utility.yul\":15674:15677   */\n      dup3\n        /* \"#utility.yul\":15585:15678   */\n      tag_183\n      jump\t// in\n    tag_332:\n        /* \"#utility.yul\":15703:15705   */\n      0x20\n        /* \"#utility.yul\":15698:15701   */\n      dup3\n        /* \"#utility.yul\":15694:15706   */\n      add\n        /* \"#utility.yul\":15687:15706   */\n      swap1\n      pop\n        /* \"#utility.yul\":15346:15712   */\n      swap2\n      swap1\n      pop\n      jump\t// out\n        /* \"#utility.yul\":15718:16137   */\n    tag_100:\n        /* \"#utility.yul\":15884:15888   */\n      0x00\n        /* \"#utility.yul\":15922:15924   */\n      0x20\n        /* \"#utility.yul\":15911:15920   */\n      dup3\n        /* \"#utility.yul\":15907:15925   */\n      add\n        /* \"#utility.yul\":15899:15925   */\n      swap1\n      pop\n        /* \"#utility.yul\":15971:15980   */\n      dup2\n        /* \"#utility.yul\":15965:15969   */\n      dup2\n        /* \"#utility.yul\":15961:15981   */\n      sub\n        /* \"#utility.yul\":15957:15958   */\n      0x00\n        /* \"#utility.yul\":15946:15955   */\n      dup4\n        /* \"#utility.yul\":15942:15959   */\n      add\n        /* \"#utility.yul\":15935:15982   */\n      mstore\n        /* \"#utility.yul\":15999:16130   */\n      tag_334\n        /* \"#utility.yul\":16125:16129   */\n      dup2\n        /* \"#utility.yul\":15999:16130   */\n      tag_184\n      jump\t// in\n    tag_334:\n        /* \"#utility.yul\":15991:16130   */\n      swap1\n      pop\n        /* \"#utility.yul\":15718:16137   */\n      swap2\n      swap1\n      pop\n      jump\t// out\n        /* \"#utility.yul\":16143:16316   */\n    tag_185:\n        /* \"#utility.yul\":16283:16308   */\n      0x436875206e6861206b686f6e6720746865207475206b79000000000000000000\n        /* \"#utility.yul\":16279:16280   */\n      0x00\n        /* \"#utility.yul\":16271:16277   */\n      dup3\n        /* \"#utility.yul\":16267:16281   */\n      add\n        /* \"#utility.yul\":16260:16309   */\n      mstore\n        /* \"#utility.yul\":16143:16316   */\n      pop\n      jump\t// out\n        /* \"#utility.yul\":16322:16688   */\n    tag_186:\n        /* \"#utility.yul\":16464:16467   */\n      0x00\n        /* \"#utility.yul\":16485:16552   */\n      tag_337\n        /* \"#utility.yul\":16549:16551   */\n      0x17\n        /* \"#utility.yul\":16544:16547   */\n      dup4\n        /* \"#utility.yul\":16485:16552   */\n      tag_159\n      jump\t// in\n    tag_337:\n        /* \"#utility.yul\":16478:16552   */\n      swap2\n      pop\n        /* \"#utility.yul\":16561:16654   */\n      tag_338\n        /* \"#utility.yul\":16650:16653   */\n      dup3\n        /* \"#utility.yul\":16561:16654   */\n      tag_185\n      jump\t// in\n    tag_338:\n        /* \"#utility.yul\":16679:16681   */\n      0x20\n        /* \"#utility.yul\":16674:16677   */\n      dup3\n        /* \"#utility.yul\":16670:16682   */\n      add\n        /* \"#utility.yul\":16663:16682   */\n      swap1\n      pop\n        /* \"#utility.yul\":16322:16688   */\n      swap2\n      swap1\n      pop\n      jump\t// out\n        /* \"#utility.yul\":16694:17113   */\n    tag_103:\n        /* \"#utility.yul\":16860:16864   */\n      0x00\n        /* \"#utility.yul\":16898:16900   */\n      0x20\n        /* \"#utility.yul\":16887:16896   */\n      dup3\n        /* \"#utility.yul\":16883:16901   */\n      add\n        /* \"#utility.yul\":16875:16901   */\n      swap1\n      pop\n        /* \"#utility.yul\":16947:16956   */\n      dup2\n        /* \"#utility.yul\":16941:16945   */\n      dup2\n        /* \"#utility.yul\":16937:16957   */\n      sub\n        /* \"#utility.yul\":16933:16934   */\n      0x00\n        /* \"#utility.yul\":16922:16931   */\n      dup4\n        /* \"#utility.yul\":16918:16935   */\n      add\n        /* \"#utility.yul\":16911:16958   */\n      mstore\n        /* \"#utility.yul\":16975:17106   */\n      tag_340\n        /* \"#utility.yul\":17101:17105   */\n      dup2\n        /* \"#utility.yul\":16975:17106   */\n      tag_186\n      jump\t// in\n    tag_340:\n        /* \"#utility.yul\":16967:17106   */\n      swap1\n      pop\n        /* \"#utility.yul\":16694:17113   */\n      swap2\n      swap1\n      pop\n      jump\t// out\n        /* \"#utility.yul\":17119:17341   */\n    tag_187:\n        /* \"#utility.yul\":17259:17293   */\n      0x50686169206e6170206475207469656e2063686f20746f616e20626f206b7920\n        /* \"#utility.yul\":17255:17256   */\n      0x00\n        /* \"#utility.yul\":17247:17253   */\n      dup3\n        /* \"#utility.yul\":17243:17257   */\n      add\n        /* \"#utility.yul\":17236:17294   */\n      mstore\n        /* \"#utility.yul\":17328:17333   */\n      0x68616e0000000000000000000000000000000000000000000000000000000000\n        /* \"#utility.yul\":17323:17325   */\n      0x20\n        /* \"#utility.yul\":17315:17321   */\n      dup3\n        /* \"#utility.yul\":17311:17326   */\n      add\n        /* \"#utility.yul\":17304:17334   */\n      mstore\n        /* \"#utility.yul\":17119:17341   */\n      pop\n      jump\t// out\n        /* \"#utility.yul\":17347:17713   */\n    tag_188:\n        /* \"#utility.yul\":17489:17492   */\n      0x00\n        /* \"#utility.yul\":17510:17577   */\n      tag_343\n        /* \"#utility.yul\":17574:17576   */\n      0x23\n        /* \"#utility.yul\":17569:17572   */\n      dup4\n        /* \"#utility.yul\":17510:17577   */\n      tag_159\n      jump\t// in\n    tag_343:\n        /* \"#utility.yul\":17503:17577   */\n      swap2\n      pop\n        /* \"#utility.yul\":17586:17679   */\n      tag_344\n        /* \"#utility.yul\":17675:17678   */\n      dup3\n        /* \"#utility.yul\":17586:17679   */\n      tag_187\n      jump\t// in\n    tag_344:\n        /* \"#utility.yul\":17704:17706   */\n      0x40\n        /* \"#utility.yul\":17699:17702   */\n      dup3\n        /* \"#utility.yul\":17695:17707   */\n      add\n        /* \"#utility.yul\":17688:17707   */\n      swap1\n      pop\n        /* \"#utility.yul\":17347:17713   */\n      swap2\n      swap1\n      pop\n      jump\t// out\n        /* \"#utility.yul\":17719:18138   */\n    tag_107:\n        /* \"#utility.yul\":17885:17889   */\n      0x00\n        /* \"#utility.yul\":17923:17925   */\n      0x20\n        /* \"#utility.yul\":17912:17921   */\n      dup3\n        /* \"#utility.yul\":17908:17926   */\n      add\n        /* \"#utility.yul\":17900:17926   */\n      swap1\n      pop\n        /* \"#utility.yul\":17972:17981   */\n      dup2\n        /* \"#utility.yul\":17966:17970   */\n      dup2\n        /* \"#utility.yul\":17962:17982   */\n      sub\n        /* \"#utility.yul\":17958:17959   */\n      0x00\n        /* \"#utility.yul\":17947:17956   */\n      dup4\n        /* \"#utility.yul\":17943:17960   */\n      add\n        /* \"#utility.yul\":17936:17983   */\n      mstore\n        /* \"#utility.yul\":18000:18131   */\n      tag_346\n        /* \"#utility.yul\":18126:18130   */\n      dup2\n        /* \"#utility.yul\":18000:18131   */\n      tag_188\n      jump\t// in\n    tag_346:\n        /* \"#utility.yul\":17992:18131   */\n      swap1\n      pop\n        /* \"#utility.yul\":17719:18138   */\n      swap2\n      swap1\n      pop\n      jump\t// out\n        /* \"#utility.yul\":18144:18325   */\n    tag_189:\n        /* \"#utility.yul\":18284:18317   */\n      0x436869206e67756f692074687565206d6f692064756f63206769612068616e00\n        /* \"#utility.yul\":18280:18281   */\n      0x00\n        /* \"#utility.yul\":18272:18278   */\n      dup3\n        /* \"#utility.yul\":18268:18282   */\n      add\n        /* \"#utility.yul\":18261:18318   */\n      mstore\n        /* \"#utility.yul\":18144:18325   */\n      pop\n      jump\t// out\n        /* \"#utility.yul\":18331:18697   */\n    tag_190:\n        /* \"#utility.yul\":18473:18476   */\n      0x00\n        /* \"#utility.yul\":18494:18561   */\n      tag_349\n        /* \"#utility.yul\":18558:18560   */\n      0x1f\n        /* \"#utility.yul\":18553:18556   */\n      dup4\n        /* \"#utility.yul\":18494:18561   */\n      tag_159\n      jump\t// in\n    tag_349:\n        /* \"#utility.yul\":18487:18561   */\n      swap2\n      pop\n        /* \"#utility.yul\":18570:18663   */\n      tag_350\n        /* \"#utility.yul\":18659:18662   */\n      dup3\n        /* \"#utility.yul\":18570:18663   */\n      tag_189\n      jump\t// in\n    tag_350:\n        /* \"#utility.yul\":18688:18690   */\n      0x20\n        /* \"#utility.yul\":18683:18686   */\n      dup3\n        /* \"#utility.yul\":18679:18691   */\n      add\n        /* \"#utility.yul\":18672:18691   */\n      swap1\n      pop\n        /* \"#utility.yul\":18331:18697   */\n      swap2\n      swap1\n      pop\n      jump\t// out\n        /* \"#utility.yul\":18703:19122   */\n    tag_115:\n        /* \"#utility.yul\":18869:18873   */\n      0x00\n        /* \"#utility.yul\":18907:18909   */\n      0x20\n        /* \"#utility.yul\":18896:18905   */\n      dup3\n        /* \"#utility.yul\":18892:18910   */\n      add\n        /* \"#utility.yul\":18884:18910   */\n      swap1\n      pop\n        /* \"#utility.yul\":18956:18965   */\n      dup2\n        /* \"#utility.yul\":18950:18954   */\n      dup2\n        /* \"#utility.yul\":18946:18966   */\n      sub\n        /* \"#utility.yul\":18942:18943   */\n      0x00\n        /* \"#utility.yul\":18931:18940   */\n      dup4\n        /* \"#utility.yul\":18927:18944   */\n      add\n        /* \"#utility.yul\":18920:18967   */\n      mstore\n        /* \"#utility.yul\":18984:19115   */\n      tag_352\n        /* \"#utility.yul\":19110:19114   */\n      dup2\n        /* \"#utility.yul\":18984:19115   */\n      tag_190\n      jump\t// in\n    tag_352:\n        /* \"#utility.yul\":18976:19115   */\n      swap1\n      pop\n        /* \"#utility.yul\":18703:19122   */\n      swap2\n      swap1\n      pop\n      jump\t// out\n        /* \"#utility.yul\":19128:19348   */\n    tag_191:\n        /* \"#utility.yul\":19268:19302   */\n      0x4461207175612074686f69206769616e2063686f207068657020676961206861\n        /* \"#utility.yul\":19264:19265   */\n      0x00\n        /* \"#utility.yul\":19256:19262   */\n      dup3\n        /* \"#utility.yul\":19252:19266   */\n      add\n        /* \"#utility.yul\":19245:19303   */\n      mstore\n        /* \"#utility.yul\":19337:19340   */\n      0x6e00000000000000000000000000000000000000000000000000000000000000\n        /* \"#utility.yul\":19332:19334   */\n      0x20\n        /* \"#utility.yul\":19324:19330   */\n      dup3\n        /* \"#utility.yul\":19320:19335   */\n      add\n        /* \"#utility.yul\":19313:19341   */\n      mstore\n        /* \"#utility.yul\":19128:19348   */\n      pop\n      jump\t// out\n        /* \"#utility.yul\":19354:19720   */\n    tag_192:\n        /* \"#utility.yul\":19496:19499   */\n      0x00\n        /* \"#utility.yul\":19517:19584   */\n      tag_355\n        /* \"#utility.yul\":19581:19583   */\n      0x21\n        /* \"#utility.yul\":19576:19579   */\n      dup4\n        /* \"#utility.yul\":19517:19584   */\n      tag_159\n      jump\t// in\n    tag_355:\n        /* \"#utility.yul\":19510:19584   */\n      swap2\n      pop\n        /* \"#utility.yul\":19593:19686   */\n      tag_356\n        /* \"#utility.yul\":19682:19685   */\n      dup3\n        /* \"#utility.yul\":19593:19686   */\n      tag_191\n      jump\t// in\n    tag_356:\n        /* \"#utility.yul\":19711:19713   */\n      0x40\n        /* \"#utility.yul\":19706:19709   */\n      dup3\n        /* \"#utility.yul\":19702:19714   */\n      add\n        /* \"#utility.yul\":19695:19714   */\n      swap1\n      pop\n        /* \"#utility.yul\":19354:19720   */\n      swap2\n      swap1\n      pop\n      jump\t// out\n        /* \"#utility.yul\":19726:20145   */\n    tag_119:\n        /* \"#utility.yul\":19892:19896   */\n      0x00\n        /* \"#utility.yul\":19930:19932   */\n      0x20\n        /* \"#utility.yul\":19919:19928   */\n      dup3\n        /* \"#utility.yul\":19915:19933   */\n      add\n        /* \"#utility.yul\":19907:19933   */\n      swap1\n      pop\n        /* \"#utility.yul\":19979:19988   */\n      dup2\n        /* \"#utility.yul\":19973:19977   */\n      dup2\n        /* \"#utility.yul\":19969:19989   */\n      sub\n        /* \"#utility.yul\":19965:19966   */\n      0x00\n        /* \"#utility.yul\":19954:19963   */\n      dup4\n        /* \"#utility.yul\":19950:19967   */\n      add\n        /* \"#utility.yul\":19943:19990   */\n      mstore\n        /* \"#utility.yul\":20007:20138   */\n      tag_358\n        /* \"#utility.yul\":20133:20137   */\n      dup2\n        /* \"#utility.yul\":20007:20138   */\n      tag_192\n      jump\t// in\n    tag_358:\n        /* \"#utility.yul\":19999:20138   */\n      swap1\n      pop\n        /* \"#utility.yul\":19726:20145   */\n      swap2\n      swap1\n      pop\n      jump\t// out\n        /* \"#utility.yul\":20151:20326   */\n    tag_193:\n        /* \"#utility.yul\":20291:20318   */\n      0x50686169207468656d206974206e6861742031207468616e6700000000000000\n        /* \"#utility.yul\":20287:20288   */\n      0x00\n        /* \"#utility.yul\":20279:20285   */\n      dup3\n        /* \"#utility.yul\":20275:20289   */\n      add\n        /* \"#utility.yul\":20268:20319   */\n      mstore\n        /* \"#utility.yul\":20151:20326   */\n      pop\n      jump\t// out\n        /* \"#utility.yul\":20332:20698   */\n    tag_194:\n        /* \"#utility.yul\":20474:20477   */\n      0x00\n        /* \"#utility.yul\":20495:20562   */\n      tag_361\n        /* \"#utility.yul\":20559:20561   */\n      0x19\n        /* \"#utility.yul\":20554:20557   */\n      dup4\n        /* \"#utility.yul\":20495:20562   */\n      tag_159\n      jump\t// in\n    tag_361:\n        /* \"#utility.yul\":20488:20562   */\n      swap2\n      pop\n        /* \"#utility.yul\":20571:20664   */\n      tag_362\n        /* \"#utility.yul\":20660:20663   */\n      dup3\n        /* \"#utility.yul\":20571:20664   */\n      tag_193\n      jump\t// in\n    tag_362:\n        /* \"#utility.yul\":20689:20691   */\n      0x20\n        /* \"#utility.yul\":20684:20687   */\n      dup3\n        /* \"#utility.yul\":20680:20692   */\n      add\n        /* \"#utility.yul\":20673:20692   */\n      swap1\n      pop\n        /* \"#utility.yul\":20332:20698   */\n      swap2\n      swap1\n      pop\n      jump\t// out\n        /* \"#utility.yul\":20704:21123   */\n    tag_122:\n        /* \"#utility.yul\":20870:20874   */\n      0x00\n        /* \"#utility.yul\":20908:20910   */\n      0x20\n        /* \"#utility.yul\":20897:20906   */\n      dup3\n        /* \"#utility.yul\":20893:20911   */\n      add\n        /* \"#utility.yul\":20885:20911   */\n      swap1\n      pop\n        /* \"#utility.yul\":20957:20966   */\n      dup2\n        /* \"#utility.yul\":20951:20955   */\n      dup2\n        /* \"#utility.yul\":20947:20967   */\n      sub\n        /* \"#utility.yul\":20943:20944   */\n      0x00\n        /* \"#utility.yul\":20932:20941   */\n      dup4\n        /* \"#utility.yul\":20928:20945   */\n      add\n        /* \"#utility.yul\":20921:20968   */\n      mstore\n        /* \"#utility.yul\":20985:21116   */\n      tag_364\n        /* \"#utility.yul\":21111:21115   */\n      dup2\n        /* \"#utility.yul\":20985:21116   */\n      tag_194\n      jump\t// in\n    tag_364:\n        /* \"#utility.yul\":20977:21116   */\n      swap1\n      pop\n        /* \"#utility.yul\":20704:21123   */\n      swap2\n      swap1\n      pop\n      jump\t// out\n        /* \"#utility.yul\":21129:21350   */\n    tag_195:\n        /* \"#utility.yul\":21269:21303   */\n      0x536f20647520636f6e206c6169206b686f6e67206475206465206769616e2068\n        /* \"#utility.yul\":21265:21266   */\n      0x00\n        /* \"#utility.yul\":21257:21263   */\n      dup3\n        /* \"#utility.yul\":21253:21267   */\n      add\n        /* \"#utility.yul\":21246:21304   */\n      mstore\n        /* \"#utility.yul\":21338:21342   */\n      0x616e000000000000000000000000000000000000000000000000000000000000\n        /* \"#utility.yul\":21333:21335   */\n      0x20\n        /* \"#utility.yul\":21325:21331   */\n      dup3\n        /* \"#utility.yul\":21321:21336   */\n      add\n        /* \"#utility.yul\":21314:21343   */\n      mstore\n        /* \"#utility.yul\":21129:21350   */\n      pop\n      jump\t// out\n        /* \"#utility.yul\":21356:21722   */\n    tag_196:\n        /* \"#utility.yul\":21498:21501   */\n      0x00\n        /* \"#utility.yul\":21519:21586   */\n      tag_367\n        /* \"#utility.yul\":21583:21585   */\n      0x22\n        /* \"#utility.yul\":21578:21581   */\n      dup4\n        /* \"#utility.yul\":21519:21586   */\n      tag_159\n      jump\t// in\n    tag_367:\n        /* \"#utility.yul\":21512:21586   */\n      swap2\n      pop\n        /* \"#utility.yul\":21595:21688   */\n      tag_368\n        /* \"#utility.yul\":21684:21687   */\n      dup3\n        /* \"#utility.yul\":21595:21688   */\n      tag_195\n      jump\t// in\n    tag_368:\n        /* \"#utility.yul\":21713:21715   */\n      0x40\n        /* \"#utility.yul\":21708:21711   */\n      dup3\n        /* \"#utility.yul\":21704:21716   */\n      add\n        /* \"#utility.yul\":21697:21716   */\n      swap1\n      pop\n        /* \"#utility.yul\":21356:21722   */\n      swap2\n      swap1\n      pop\n      jump\t// out\n        /* \"#utility.yul\":21728:22147   */\n    tag_129:\n        /* \"#utility.yul\":21894:21898   */\n      0x00\n        /* \"#utility.yul\":21932:21934   */\n      0x20\n        /* \"#utility.yul\":21921:21930   */\n      dup3\n        /* \"#utility.yul\":21917:21935   */\n      add\n        /* \"#utility.yul\":21909:21935   */\n      swap1\n      pop\n        /* \"#utility.yul\":21981:21990   */\n      dup2\n        /* \"#utility.yul\":21975:21979   */\n      dup2\n        /* \"#utility.yul\":21971:21991   */\n      sub\n        /* \"#utility.yul\":21967:21968   */\n      0x00\n        /* \"#utility.yul\":21956:21965   */\n      dup4\n        /* \"#utility.yul\":21952:21969   */\n      add\n        /* \"#utility.yul\":21945:21992   */\n      mstore\n        /* \"#utility.yul\":22009:22140   */\n      tag_370\n        /* \"#utility.yul\":22135:22139   */\n      dup2\n        /* \"#utility.yul\":22009:22140   */\n      tag_196\n      jump\t// in\n    tag_370:\n        /* \"#utility.yul\":22001:22140   */\n      swap1\n      pop\n        /* \"#utility.yul\":21728:22147   */\n      swap2\n      swap1\n      pop\n      jump\t// out\n        /* \"#utility.yul\":22153:22320   */\n    tag_197:\n        /* \"#utility.yul\":22293:22312   */\n      0x5469656e20677569206b686f6e67206475000000000000000000000000000000\n        /* \"#utility.yul\":22289:22290   */\n      0x00\n        /* \"#utility.yul\":22281:22287   */\n      dup3\n        /* \"#utility.yul\":22277:22291   */\n      add\n        /* \"#utility.yul\":22270:22313   */\n      mstore\n        /* \"#utility.yul\":22153:22320   */\n      pop\n      jump\t// out\n        /* \"#utility.yul\":22326:22692   */\n    tag_198:\n        /* \"#utility.yul\":22468:22471   */\n      0x00\n        /* \"#utility.yul\":22489:22556   */\n      tag_373\n        /* \"#utility.yul\":22553:22555   */\n      0x11\n        /* \"#utility.yul\":22548:22551   */\n      dup4\n        /* \"#utility.yul\":22489:22556   */\n      tag_159\n      jump\t// in\n    tag_373:\n        /* \"#utility.yul\":22482:22556   */\n      swap2\n      pop\n        /* \"#utility.yul\":22565:22658   */\n      tag_374\n        /* \"#utility.yul\":22654:22657   */\n      dup3\n        /* \"#utility.yul\":22565:22658   */\n      tag_197\n      jump\t// in\n    tag_374:\n        /* \"#utility.yul\":22683:22685   */\n      0x20\n        /* \"#utility.yul\":22678:22681   */\n      dup3\n        /* \"#utility.yul\":22674:22686   */\n      add\n        /* \"#utility.yul\":22667:22686   */\n      swap1\n      pop\n        /* \"#utility.yul\":22326:22692   */\n      swap2\n      swap1\n      pop\n      jump\t// out\n        /* \"#utility.yul\":22698:23117   */\n    tag_133:\n        /* \"#utility.yul\":22864:22868   */\n      0x00\n        /* \"#utility.yul\":22902:22904   */\n      0x20\n        /* \"#utility.yul\":22891:22900   */\n      dup3\n        /* \"#utility.yul\":22887:22905   */\n      add\n        /* \"#utility.yul\":22879:22905   */\n      swap1\n      pop\n        /* \"#utility.yul\":22951:22960   */\n      dup2\n        /* \"#utility.yul\":22945:22949   */\n      dup2\n        /* \"#utility.yul\":22941:22961   */\n      sub\n        /* \"#utility.yul\":22937:22938   */\n      0x00\n        /* \"#utility.yul\":22926:22935   */\n      dup4\n        /* \"#utility.yul\":22922:22939   */\n      add\n        /* \"#utility.yul\":22915:22962   */\n      mstore\n        /* \"#utility.yul\":22979:23110   */\n      tag_376\n        /* \"#utility.yul\":23105:23109   */\n      dup2\n        /* \"#utility.yul\":22979:23110   */\n      tag_198\n      jump\t// in\n    tag_376:\n        /* \"#utility.yul\":22971:23110   */\n      swap1\n      pop\n        /* \"#utility.yul\":22698:23117   */\n      swap2\n      swap1\n      pop\n      jump\t// out\n\n    auxdata: 0xa264697066735822122048cee9e6db1c861f7463d456ab34f254ac534af6c0a89ba91fe4549cb1151d7a64736f6c634300081e0033\n}\n",
				"bytecode": {
					"linkReferences": {},
					"object": "608060405234801561000f575f5ffd5b50604051611e85380380611e8583398181016040528101906100319190610161565b5f8211610073576040517f08c379a000000000000000000000000000000000000000000000000000000000815260040161006a906101f9565b60405180910390fd5b5f81116100b5576040517f08c379a00000000000000000000000000000000000000000000000000000000081526004016100ac90610261565b60405180910390fd5b335f5f015f6101000a81548173ffffffffffffffffffffffffffffffffffffffff021916908373ffffffffffffffffffffffffffffffffffffffff160217905550815f60010181905550805f600201819055505f5f6003015f6101000a81548160ff021916908315150217905550505061027f565b5f5ffd5b5f819050919050565b6101408161012e565b811461014a575f5ffd5b50565b5f8151905061015b81610137565b92915050565b5f5f604083850312156101775761017661012a565b5b5f6101848582860161014d565b92505060206101958582860161014d565b9150509250929050565b5f82825260208201905092915050565b7f436869207068692068616e67207468616e672070686169203e203000000000005f82015250565b5f6101e3601b8361019f565b91506101ee826101af565b602082019050919050565b5f6020820190508181035f830152610210816101d7565b9050919050565b7f54686f69206769616e20746875652070686169203e20300000000000000000005f82015250565b5f61024b60178361019f565b915061025682610217565b602082019050919050565b5f6020820190508181035f8301526102788161023f565b9050919050565b611bf98061028c5f395ff3fe60806040526004361061006e575f3560e01c8063b76501271161004d578063b7650127146100ba578063ddca361f146100d6578063f17b93a814610103578063f57967c0146101305761006e565b80624ead3414610072578063185c8b8d14610088578063619089d3146100b0575b5f5ffd5b34801561007d575f5ffd5b5061008661016c565b005b348015610093575f5ffd5b506100ae60048036038101906100a99190611114565b610581565b005b6100b8610992565b005b6100d460048036038101906100cf9190611114565b610bc7565b005b3480156100e1575f5ffd5b506100ea610ee5565b6040516100fa949392919061118d565b60405180910390f35b34801561010e575f5ffd5b50610117611081565b60405161012794939291906111ea565b60405180910390f35b34801561013b575f5ffd5b5061015660048036038101906101519190611257565b6110c8565b6040516101639190611282565b60405180910390f35b5f6003015f9054906101000a900460ff166101bc576040517f08c379a00000000000000000000000000000000000000000000000000000000081526004016101b3906112f5565b60405180910390fd5b60045f015f9054906101000a900473ffffffffffffffffffffffffffffffffffffffff1673ffffffffffffffffffffffffffffffffffffffff163373ffffffffffffffffffffffffffffffffffffffff16148061026657505f5f015f9054906101000a900473ffffffffffffffffffffffffffffffffffffffff1673ffffffffffffffffffffffffffffffffffffffff163373ffffffffffffffffffffffffffffffffffffffff16145b6102a5576040517f08c379a000000000000000000000000000000000000000000000000000000000815260040161029c90611383565b60405180910390fd5b5f5f6002015490505f600a600460010154426102c191906113ce565b6102cb919061142e565b9050818111156102d9578190505b5f5f60010154600460020154836102f091906113ce565b6102fa919061145e565b90505f8160085f60045f015f9054906101000a900473ffffffffffffffffffffffffffffffffffffffff1673ffffffffffffffffffffffffffffffffffffffff1673ffffffffffffffffffffffffffffffffffffffff1681526020019081526020015f205461036991906113ce565b90505f811115610482575f3373ffffffffffffffffffffffffffffffffffffffff1682604051610398906114cc565b5f6040518083038185875af1925050503d805f81146103d2576040519150601f19603f3d011682016040523d82523d5f602084013e6103d7565b606091505b505090508061041b576040517f08c379a00000000000000000000000000000000000000000000000000000000081526004016104129061152a565b60405180910390fd5b5f60085f60045f015f9054906101000a900473ffffffffffffffffffffffffffffffffffffffff1673ffffffffffffffffffffffffffffffffffffffff1673ffffffffffffffffffffffffffffffffffffffff1681526020019081526020015f2081905550505b5f821115610500578160085f5f5f015f9054906101000a900473ffffffffffffffffffffffffffffffffffffffff1673ffffffffffffffffffffffffffffffffffffffff1673ffffffffffffffffffffffffffffffffffffffff1681526020019081526020015f205f8282546104f89190611548565b925050819055505b5f5f6003015f6101000a81548160ff0219169083151502179055505f60045f015f6101000a81548173ffffffffffffffffffffffffffffffffffffffff021916908373ffffffffffffffffffffffffffffffffffffffff1602179055505f6004600101819055505f6004600201819055505f60046003018190555050505050565b5f5f015f9054906101000a900473ffffffffffffffffffffffffffffffffffffffff1673ffffffffffffffffffffffffffffffffffffffff163373ffffffffffffffffffffffffffffffffffffffff1614610611576040517f08c379a0000000000000000000000000000000000000000000000000000000008152600401610608906115c5565b60405180910390fd5b5f6003015f9054906101000a900460ff16610661576040517f08c379a00000000000000000000000000000000000000000000000000000000081526004016106589061162d565b60405180910390fd5b5f60020154600460020154106106ac576040517f08c379a00000000000000000000000000000000000000000000000000000000081526004016106a390611695565b60405180910390fd5b5f600a600460010154426106c091906113ce565b6106ca919061142e565b90505f81905082811015610713576040517f08c379a000000000000000000000000000000000000000000000000000000000815260040161070a906116fd565b60405180910390fd5b826004600201545f6002015461072991906113ce565b101561076a576040517f08c379a00000000000000000000000000000000000000000000000000000000081526004016107619061178b565b60405180910390fd5b5f5f600101548461077b919061145e565b90508060085f60045f015f9054906101000a900473ffffffffffffffffffffffffffffffffffffffff1673ffffffffffffffffffffffffffffffffffffffff1673ffffffffffffffffffffffffffffffffffffffff1681526020019081526020015f20541015610820576040517f08c379a0000000000000000000000000000000000000000000000000000000008152600401610817906117f3565b60405180910390fd5b8060085f60045f015f9054906101000a900473ffffffffffffffffffffffffffffffffffffffff1673ffffffffffffffffffffffffffffffffffffffff1673ffffffffffffffffffffffffffffffffffffffff1681526020019081526020015f205f82825461088f91906113ce565b925050819055508060085f5f5f015f9054906101000a900473ffffffffffffffffffffffffffffffffffffffff1673ffffffffffffffffffffffffffffffffffffffff1673ffffffffffffffffffffffffffffffffffffffff1681526020019081526020015f205f8282546109049190611548565b925050819055508360046002015f82825461091f9190611548565b925050819055505f5f015f9054906101000a900473ffffffffffffffffffffffffffffffffffffffff1673ffffffffffffffffffffffffffffffffffffffff166108fc8290811502906040515f60405180830381858888f1935050505015801561098b573d5f5f3e3d5ffd5b5050505050565b5f6003015f9054906101000a900460ff16156109e3576040517f08c379a00000000000000000000000000000000000000000000000000000000081526004016109da9061185b565b60405180910390fd5b5f5f015f9054906101000a900473ffffffffffffffffffffffffffffffffffffffff1673ffffffffffffffffffffffffffffffffffffffff163373ffffffffffffffffffffffffffffffffffffffff1603610a73576040517f08c379a0000000000000000000000000000000000000000000000000000000008152600401610a6a906118c3565b60405180910390fd5b5f600201545f60010154610a87919061145e565b341015610ac9576040517f08c379a0000000000000000000000000000000000000000000000000000000008152600401610ac090611951565b60405180910390fd5b3360045f015f6101000a81548173ffffffffffffffffffffffffffffffffffffffff021916908373ffffffffffffffffffffffffffffffffffffffff160217905550426004600101819055505f600460020181905550600a5f60020154610b30919061145e565b42610b3b9190611548565b6004600301819055503460085f60045f015f9054906101000a900473ffffffffffffffffffffffffffffffffffffffff1673ffffffffffffffffffffffffffffffffffffffff1673ffffffffffffffffffffffffffffffffffffffff1681526020019081526020015f208190555060015f6003015f6101000a81548160ff021916908315150217905550565b5f6003015f9054906101000a900460ff16610c17576040517f08c379a0000000000000000000000000000000000000000000000000000000008152600401610c0e906112f5565b60405180910390fd5b60045f015f9054906101000a900473ffffffffffffffffffffffffffffffffffffffff1673ffffffffffffffffffffffffffffffffffffffff163373ffffffffffffffffffffffffffffffffffffffff1614610ca8576040517f08c379a0000000000000000000000000000000000000000000000000000000008152600401610c9f906119b9565b60405180910390fd5b6005600460030154610cba9190611548565b421115610cfc576040517f08c379a0000000000000000000000000000000000000000000000000000000008152600401610cf390611a47565b60405180910390fd5b5f8111610d3e576040517f08c379a0000000000000000000000000000000000000000000000000000000008152600401610d3590611aaf565b60405180910390fd5b5f600101546004600201545f6002015483610d599190611548565b610d6391906113ce565b610d6d919061145e565b3460085f3373ffffffffffffffffffffffffffffffffffffffff1673ffffffffffffffffffffffffffffffffffffffff1681526020019081526020015f2054610db69190611548565b1015610df7576040517f08c379a0000000000000000000000000000000000000000000000000000000008152600401610dee90611b3d565b60405180910390fd5b5f815f60010154610e08919061145e565b905080341015610e4d576040517f08c379a0000000000000000000000000000000000000000000000000000000008152600401610e4490611ba5565b60405180910390fd5b600a82610e5a919061145e565b60046003015f828254610e6d9190611548565b92505081905550815f6002015f828254610e879190611548565b925050819055503460085f3373ffffffffffffffffffffffffffffffffffffffff1673ffffffffffffffffffffffffffffffffffffffff1681526020019081526020015f205f828254610eda9190611548565b925050819055505050565b5f5f5f5f5f73ffffffffffffffffffffffffffffffffffffffff1660045f015f9054906101000a900473ffffffffffffffffffffffffffffffffffffffff1673ffffffffffffffffffffffffffffffffffffffff161480610fef57505f5f015f9054906101000a900473ffffffffffffffffffffffffffffffffffffffff1673ffffffffffffffffffffffffffffffffffffffff163373ffffffffffffffffffffffffffffffffffffffff1614158015610fee575060045f015f9054906101000a900473ffffffffffffffffffffffffffffffffffffffff1673ffffffffffffffffffffffffffffffffffffffff163373ffffffffffffffffffffffffffffffffffffffff1614155b5b1561100f575f6004600101546004600201545f935093509350935061107b565b5f5f905060046003015442101561104057600a4260046003015461103391906113ce565b61103d919061142e565b90505b60045f015f9054906101000a900473ffffffffffffffffffffffffffffffffffffffff16600460010154600460020154839450945094509450505b90919293565b5f805f015f9054906101000a900473ffffffffffffffffffffffffffffffffffffffff1690806001015490806002015490806003015f9054906101000a900460ff16905084565b6008602052805f5260405f205f915090505481565b5f5ffd5b5f819050919050565b6110f3816110e1565b81146110fd575f5ffd5b50565b5f8135905061110e816110ea565b92915050565b5f60208284031215611129576111286110dd565b5b5f61113684828501611100565b91505092915050565b5f73ffffffffffffffffffffffffffffffffffffffff82169050919050565b5f6111688261113f565b9050919050565b6111788161115e565b82525050565b611187816110e1565b82525050565b5f6080820190506111a05f83018761116f565b6111ad602083018661117e565b6111ba604083018561117e565b6111c7606083018461117e565b95945050505050565b5f8115159050919050565b6111e4816111d0565b82525050565b5f6080820190506111fd5f83018761116f565b61120a602083018661117e565b611217604083018561117e565b61122460608301846111db565b95945050505050565b6112368161115e565b8114611240575f5ffd5b50565b5f813590506112518161122d565b92915050565b5f6020828403121561126c5761126b6110dd565b5b5f61127984828501611243565b91505092915050565b5f6020820190506112955f83018461117e565b92915050565b5f82825260208201905092915050565b7f4368756120636f20686f7020646f6e67000000000000000000000000000000005f82015250565b5f6112df60108361129b565b91506112ea826112ab565b602082019050919050565b5f6020820190508181035f83015261130c816112d3565b9050919050565b7f43686920636875206e686120686f6163206e67756f692074687565206d6f69205f8201527f636f20717579656e000000000000000000000000000000000000000000000000602082015250565b5f61136d60288361129b565b915061137882611313565b604082019050919050565b5f6020820190508181035f83015261139a81611361565b9050919050565b7f4e487b71000000000000000000000000000000000000000000000000000000005f52601160045260245ffd5b5f6113d8826110e1565b91506113e3836110e1565b92508282039050818111156113fb576113fa6113a1565b5b92915050565b7f4e487b71000000000000000000000000000000000000000000000000000000005f52601260045260245ffd5b5f611438826110e1565b9150611443836110e1565b92508261145357611452611401565b5b828204905092915050565b5f611468826110e1565b9150611473836110e1565b9250828202611481816110e1565b91508282048414831517611498576114976113a1565b5b5092915050565b5f81905092915050565b50565b5f6114b75f8361149f565b91506114c2826114a9565b5f82019050919050565b5f6114d6826114ac565b9150819050919050565b7f43687579656e207469656e2074686174206261690000000000000000000000005f82015250565b5f61151460148361129b565b915061151f826114e0565b602082019050919050565b5f6020820190508181035f83015261154181611508565b9050919050565b5f611552826110e1565b915061155d836110e1565b9250828201905080821115611575576115746113a1565b5b92915050565b7f43686920636875206e6861206d6f692064756f6320727574207469656e0000005f82015250565b5f6115af601d8361129b565b91506115ba8261157b565b602082019050919050565b5f6020820190508181035f8301526115dc816115a3565b9050919050565b7f4368756120636f20686f7020646f6e6720686f70206c650000000000000000005f82015250565b5f61161760178361129b565b9150611622826115e3565b602082019050919050565b5f6020820190508181035f8301526116448161160b565b9050919050565b7f4e67756f692074687565206461207468616e6820746f616e20646179206475005f82015250565b5f61167f601f8361129b565b915061168a8261164b565b602082019050919050565b5f6020820190508181035f8301526116ac81611673565b9050919050565b7f4368756120636f207468616e67206e616f206d6f6920646520727574000000005f82015250565b5f6116e7601c8361129b565b91506116f2826116b3565b602082019050919050565b5f6020820190508181035f830152611714816116db565b9050919050565b7f536f207468616e67206d756f6e20727574206c6f6e20686f6e20736f2074686f5f8201527f69206769616e20636f6e206c6169000000000000000000000000000000000000602082015250565b5f611775602e8361129b565b91506117808261171b565b604082019050919050565b5f6020820190508181035f8301526117a281611769565b9050919050565b7f536f206475206b686f6e672064750000000000000000000000000000000000005f82015250565b5f6117dd600e8361129b565b91506117e8826117a9565b602082019050919050565b5f6020820190508181035f83015261180a816117d1565b9050919050565b7f486f7020646f6e672064612064756f63206b79000000000000000000000000005f82015250565b5f61184560138361129b565b915061185082611811565b602082019050919050565b5f6020820190508181035f83015261187281611839565b9050919050565b7f436875206e6861206b686f6e6720746865207475206b790000000000000000005f82015250565b5f6118ad60178361129b565b91506118b882611879565b602082019050919050565b5f6020820190508181035f8301526118da816118a1565b9050919050565b7f50686169206e6170206475207469656e2063686f20746f616e20626f206b79205f8201527f68616e0000000000000000000000000000000000000000000000000000000000602082015250565b5f61193b60238361129b565b9150611946826118e1565b604082019050919050565b5f6020820190508181035f8301526119688161192f565b9050919050565b7f436869206e67756f692074687565206d6f692064756f63206769612068616e005f82015250565b5f6119a3601f8361129b565b91506119ae8261196f565b602082019050919050565b5f6020820190508181035f8301526119d081611997565b9050919050565b7f4461207175612074686f69206769616e2063686f2070686570206769612068615f8201527f6e00000000000000000000000000000000000000000000000000000000000000602082015250565b5f611a3160218361129b565b9150611a3c826119d7565b604082019050919050565b5f6020820190508181035f830152611a5e81611a25565b9050919050565b7f50686169207468656d206974206e6861742031207468616e67000000000000005f82015250565b5f611a9960198361129b565b9150611aa482611a65565b602082019050919050565b5f6020820190508181035f830152611ac681611a8d565b9050919050565b7f536f20647520636f6e206c6169206b686f6e67206475206465206769616e20685f8201527f616e000000000000000000000000000000000000000000000000000000000000602082015250565b5f611b2760228361129b565b9150611b3282611acd565b604082019050919050565b5f6020820190508181035f830152611b5481611b1b565b9050919050565b7f5469656e20677569206b686f6e672064750000000000000000000000000000005f82015250565b5f611b8f60118361129b565b9150611b9a82611b5b565b602082019050919050565b5f6020820190508181035f830152611bbc81611b83565b905091905056fea264697066735822122048cee9e6db1c861f7463d456ab34f254ac534af6c0a89ba91fe4549cb1151d7a64736f6c634300081e0033",
					"opcodes": "PUSH1 0x80 PUSH1 0x40 MSTORE CALLVALUE DUP1 ISZERO PUSH2 0xF JUMPI PUSH0 PUSH0 REVERT JUMPDEST POP PUSH1 0x40 MLOAD PUSH2 0x1E85 CODESIZE SUB DUP1 PUSH2 0x1E85 DUP4 CODECOPY DUP2 DUP2 ADD PUSH1 0x40 MSTORE DUP2 ADD SWAP1 PUSH2 0x31 SWAP2 SWAP1 PUSH2 0x161 JUMP JUMPDEST PUSH0 DUP3 GT PUSH2 0x73 JUMPI PUSH1 0x40 MLOAD PUSH32 0x8C379A000000000000000000000000000000000000000000000000000000000 DUP2 MSTORE PUSH1 0x4 ADD PUSH2 0x6A SWAP1 PUSH2 0x1F9 JUMP JUMPDEST PUSH1 0x40 MLOAD DUP1 SWAP2 SUB SWAP1 REVERT JUMPDEST PUSH0 DUP2 GT PUSH2 0xB5 JUMPI PUSH1 0x40 MLOAD PUSH32 0x8C379A000000000000000000000000000000000000000000000000000000000 DUP2 MSTORE PUSH1 0x4 ADD PUSH2 0xAC SWAP1 PUSH2 0x261 JUMP JUMPDEST PUSH1 0x40 MLOAD DUP1 SWAP2 SUB SWAP1 REVERT JUMPDEST CALLER PUSH0 PUSH0 ADD PUSH0 PUSH2 0x100 EXP DUP2 SLOAD DUP2 PUSH20 0xFFFFFFFFFFFFFFFFFFFFFFFFFFFFFFFFFFFFFFFF MUL NOT AND SWAP1 DUP4 PUSH20 0xFFFFFFFFFFFFFFFFFFFFFFFFFFFFFFFFFFFFFFFF AND MUL OR SWAP1 SSTORE POP DUP2 PUSH0 PUSH1 0x1 ADD DUP2 SWAP1 SSTORE POP DUP1 PUSH0 PUSH1 0x2 ADD DUP2 SWAP1 SSTORE POP PUSH0 PUSH0 PUSH1 0x3 ADD PUSH0 PUSH2 0x100 EXP DUP2 SLOAD DUP2 PUSH1 0xFF MUL NOT AND SWAP1 DUP4 ISZERO ISZERO MUL OR SWAP1 SSTORE POP POP POP PUSH2 0x27F JUMP JUMPDEST PUSH0 PUSH0 REVERT JUMPDEST PUSH0 DUP2 SWAP1 POP SWAP2 SWAP1 POP JUMP JUMPDEST PUSH2 0x140 DUP2 PUSH2 0x12E JUMP JUMPDEST DUP2 EQ PUSH2 0x14A JUMPI PUSH0 PUSH0 REVERT JUMPDEST POP JUMP JUMPDEST PUSH0 DUP2 MLOAD SWAP1 POP PUSH2 0x15B DUP2 PUSH2 0x137 JUMP JUMPDEST SWAP3 SWAP2 POP POP JUMP JUMPDEST PUSH0 PUSH0 PUSH1 0x40 DUP4 DUP6 SUB SLT ISZERO PUSH2 0x177 JUMPI PUSH2 0x176 PUSH2 0x12A JUMP JUMPDEST JUMPDEST PUSH0 PUSH2 0x184 DUP6 DUP3 DUP7 ADD PUSH2 0x14D JUMP JUMPDEST SWAP3 POP POP PUSH1 0x20 PUSH2 0x195 DUP6 DUP3 DUP7 ADD PUSH2 0x14D JUMP JUMPDEST SWAP2 POP POP SWAP3 POP SWAP3 SWAP1 POP JUMP JUMPDEST PUSH0 DUP3 DUP3 MSTORE PUSH1 0x20 DUP3 ADD SWAP1 POP SWAP3 SWAP2 POP POP JUMP JUMPDEST PUSH32 0x436869207068692068616E67207468616E672070686169203E20300000000000 PUSH0 DUP3 ADD MSTORE POP JUMP JUMPDEST PUSH0 PUSH2 0x1E3 PUSH1 0x1B DUP4 PUSH2 0x19F JUMP JUMPDEST SWAP2 POP PUSH2 0x1EE DUP3 PUSH2 0x1AF JUMP JUMPDEST PUSH1 0x20 DUP3 ADD SWAP1 POP SWAP2 SWAP1 POP JUMP JUMPDEST PUSH0 PUSH1 0x20 DUP3 ADD SWAP1 POP DUP2 DUP2 SUB PUSH0 DUP4 ADD MSTORE PUSH2 0x210 DUP2 PUSH2 0x1D7 JUMP JUMPDEST SWAP1 POP SWAP2 SWAP1 POP JUMP JUMPDEST PUSH32 0x54686F69206769616E20746875652070686169203E2030000000000000000000 PUSH0 DUP3 ADD MSTORE POP JUMP JUMPDEST PUSH0 PUSH2 0x24B PUSH1 0x17 DUP4 PUSH2 0x19F JUMP JUMPDEST SWAP2 POP PUSH2 0x256 DUP3 PUSH2 0x217 JUMP JUMPDEST PUSH1 0x20 DUP3 ADD SWAP1 POP SWAP2 SWAP1 POP JUMP JUMPDEST PUSH0 PUSH1 0x20 DUP3 ADD SWAP1 POP DUP2 DUP2 SUB PUSH0 DUP4 ADD MSTORE PUSH2 0x278 DUP2 PUSH2 0x23F JUMP JUMPDEST SWAP1 POP SWAP2 SWAP1 POP JUMP JUMPDEST PUSH2 0x1BF9 DUP1 PUSH2 0x28C PUSH0 CODECOPY PUSH0 RETURN INVALID PUSH1 0x80 PUSH1 0x40 MSTORE PUSH1 0x4 CALLDATASIZE LT PUSH2 0x6E JUMPI PUSH0 CALLDATALOAD PUSH1 0xE0 SHR DUP1 PUSH4 0xB7650127 GT PUSH2 0x4D JUMPI DUP1 PUSH4 0xB7650127 EQ PUSH2 0xBA JUMPI DUP1 PUSH4 0xDDCA361F EQ PUSH2 0xD6 JUMPI DUP1 PUSH4 0xF17B93A8 EQ PUSH2 0x103 JUMPI DUP1 PUSH4 0xF57967C0 EQ PUSH2 0x130 JUMPI PUSH2 0x6E JUMP JUMPDEST DUP1 PUSH3 0x4EAD34 EQ PUSH2 0x72 JUMPI DUP1 PUSH4 0x185C8B8D EQ PUSH2 0x88 JUMPI DUP1 PUSH4 0x619089D3 EQ PUSH2 0xB0 JUMPI JUMPDEST PUSH0 PUSH0 REVERT JUMPDEST CALLVALUE DUP1 ISZERO PUSH2 0x7D JUMPI PUSH0 PUSH0 REVERT JUMPDEST POP PUSH2 0x86 PUSH2 0x16C JUMP JUMPDEST STOP JUMPDEST CALLVALUE DUP1 ISZERO PUSH2 0x93 JUMPI PUSH0 PUSH0 REVERT JUMPDEST POP PUSH2 0xAE PUSH1 0x4 DUP1 CALLDATASIZE SUB DUP2 ADD SWAP1 PUSH2 0xA9 SWAP2 SWAP1 PUSH2 0x1114 JUMP JUMPDEST PUSH2 0x581 JUMP JUMPDEST STOP JUMPDEST PUSH2 0xB8 PUSH2 0x992 JUMP JUMPDEST STOP JUMPDEST PUSH2 0xD4 PUSH1 0x4 DUP1 CALLDATASIZE SUB DUP2 ADD SWAP1 PUSH2 0xCF SWAP2 SWAP1 PUSH2 0x1114 JUMP JUMPDEST PUSH2 0xBC7 JUMP JUMPDEST STOP JUMPDEST CALLVALUE DUP1 ISZERO PUSH2 0xE1 JUMPI PUSH0 PUSH0 REVERT JUMPDEST POP PUSH2 0xEA PUSH2 0xEE5 JUMP JUMPDEST PUSH1 0x40 MLOAD PUSH2 0xFA SWAP5 SWAP4 SWAP3 SWAP2 SWAP1 PUSH2 0x118D JUMP JUMPDEST PUSH1 0x40 MLOAD DUP1 SWAP2 SUB SWAP1 RETURN JUMPDEST CALLVALUE DUP1 ISZERO PUSH2 0x10E JUMPI PUSH0 PUSH0 REVERT JUMPDEST POP PUSH2 0x117 PUSH2 0x1081 JUMP JUMPDEST PUSH1 0x40 MLOAD PUSH2 0x127 SWAP5 SWAP4 SWAP3 SWAP2 SWAP1 PUSH2 0x11EA JUMP JUMPDEST PUSH1 0x40 MLOAD DUP1 SWAP2 SUB SWAP1 RETURN JUMPDEST CALLVALUE DUP1 ISZERO PUSH2 0x13B JUMPI PUSH0 PUSH0 REVERT JUMPDEST POP PUSH2 0x156 PUSH1 0x4 DUP1 CALLDATASIZE SUB DUP2 ADD SWAP1 PUSH2 0x151 SWAP2 SWAP1 PUSH2 0x1257 JUMP JUMPDEST PUSH2 0x10C8 JUMP JUMPDEST PUSH1 0x40 MLOAD PUSH2 0x163 SWAP2 SWAP1 PUSH2 0x1282 JUMP JUMPDEST PUSH1 0x40 MLOAD DUP1 SWAP2 SUB SWAP1 RETURN JUMPDEST PUSH0 PUSH1 0x3 ADD PUSH0 SWAP1 SLOAD SWAP1 PUSH2 0x100 EXP SWAP1 DIV PUSH1 0xFF AND PUSH2 0x1BC JUMPI PUSH1 0x40 MLOAD PUSH32 0x8C379A000000000000000000000000000000000000000000000000000000000 DUP2 MSTORE PUSH1 0x4 ADD PUSH2 0x1B3 SWAP1 PUSH2 0x12F5 JUMP JUMPDEST PUSH1 0x40 MLOAD DUP1 SWAP2 SUB SWAP1 REVERT JUMPDEST PUSH1 0x4 PUSH0 ADD PUSH0 SWAP1 SLOAD SWAP1 PUSH2 0x100 EXP SWAP1 DIV PUSH20 0xFFFFFFFFFFFFFFFFFFFFFFFFFFFFFFFFFFFFFFFF AND PUSH20 0xFFFFFFFFFFFFFFFFFFFFFFFFFFFFFFFFFFFFFFFF AND CALLER PUSH20 0xFFFFFFFFFFFFFFFFFFFFFFFFFFFFFFFFFFFFFFFF AND EQ DUP1 PUSH2 0x266 JUMPI POP PUSH0 PUSH0 ADD PUSH0 SWAP1 SLOAD SWAP1 PUSH2 0x100 EXP SWAP1 DIV PUSH20 0xFFFFFFFFFFFFFFFFFFFFFFFFFFFFFFFFFFFFFFFF AND PUSH20 0xFFFFFFFFFFFFFFFFFFFFFFFFFFFFFFFFFFFFFFFF AND CALLER PUSH20 0xFFFFFFFFFFFFFFFFFFFFFFFFFFFFFFFFFFFFFFFF AND EQ JUMPDEST PUSH2 0x2A5 JUMPI PUSH1 0x40 MLOAD PUSH32 0x8C379A000000000000000000000000000000000000000000000000000000000 DUP2 MSTORE PUSH1 0x4 ADD PUSH2 0x29C SWAP1 PUSH2 0x1383 JUMP JUMPDEST PUSH1 0x40 MLOAD DUP1 SWAP2 SUB SWAP1 REVERT JUMPDEST PUSH0 PUSH0 PUSH1 0x2 ADD SLOAD SWAP1 POP PUSH0 PUSH1 0xA PUSH1 0x4 PUSH1 0x1 ADD SLOAD TIMESTAMP PUSH2 0x2C1 SWAP2 SWAP1 PUSH2 0x13CE JUMP JUMPDEST PUSH2 0x2CB SWAP2 SWAP1 PUSH2 0x142E JUMP JUMPDEST SWAP1 POP DUP2 DUP2 GT ISZERO PUSH2 0x2D9 JUMPI DUP2 SWAP1 POP JUMPDEST PUSH0 PUSH0 PUSH1 0x1 ADD SLOAD PUSH1 0x4 PUSH1 0x2 ADD SLOAD DUP4 PUSH2 0x2F0 SWAP2 SWAP1 PUSH2 0x13CE JUMP JUMPDEST PUSH2 0x2FA SWAP2 SWAP1 PUSH2 0x145E JUMP JUMPDEST SWAP1 POP PUSH0 DUP2 PUSH1 0x8 PUSH0 PUSH1 0x4 PUSH0 ADD PUSH0 SWAP1 SLOAD SWAP1 PUSH2 0x100 EXP SWAP1 DIV PUSH20 0xFFFFFFFFFFFFFFFFFFFFFFFFFFFFFFFFFFFFFFFF AND PUSH20 0xFFFFFFFFFFFFFFFFFFFFFFFFFFFFFFFFFFFFFFFF AND PUSH20 0xFFFFFFFFFFFFFFFFFFFFFFFFFFFFFFFFFFFFFFFF AND DUP2 MSTORE PUSH1 0x20 ADD SWAP1 DUP2 MSTORE PUSH1 0x20 ADD PUSH0 KECCAK256 SLOAD PUSH2 0x369 SWAP2 SWAP1 PUSH2 0x13CE JUMP JUMPDEST SWAP1 POP PUSH0 DUP2 GT ISZERO PUSH2 0x482 JUMPI PUSH0 CALLER PUSH20 0xFFFFFFFFFFFFFFFFFFFFFFFFFFFFFFFFFFFFFFFF AND DUP3 PUSH1 0x40 MLOAD PUSH2 0x398 SWAP1 PUSH2 0x14CC JUMP JUMPDEST PUSH0 PUSH1 0x40 MLOAD DUP1 DUP4 SUB DUP2 DUP6 DUP8 GAS CALL SWAP3 POP POP POP RETURNDATASIZE DUP1 PUSH0 DUP2 EQ PUSH2 0x3D2 JUMPI PUSH1 0x40 MLOAD SWAP2 POP PUSH1 0x1F NOT PUSH1 0x3F RETURNDATASIZE ADD AND DUP3 ADD PUSH1 0x40 MSTORE RETURNDATASIZE DUP3 MSTORE RETURNDATASIZE PUSH0 PUSH1 0x20 DUP5 ADD RETURNDATACOPY PUSH2 0x3D7 JUMP JUMPDEST PUSH1 0x60 SWAP2 POP JUMPDEST POP POP SWAP1 POP DUP1 PUSH2 0x41B JUMPI PUSH1 0x40 MLOAD PUSH32 0x8C379A000000000000000000000000000000000000000000000000000000000 DUP2 MSTORE PUSH1 0x4 ADD PUSH2 0x412 SWAP1 PUSH2 0x152A JUMP JUMPDEST PUSH1 0x40 MLOAD DUP1 SWAP2 SUB SWAP1 REVERT JUMPDEST PUSH0 PUSH1 0x8 PUSH0 PUSH1 0x4 PUSH0 ADD PUSH0 SWAP1 SLOAD SWAP1 PUSH2 0x100 EXP SWAP1 DIV PUSH20 0xFFFFFFFFFFFFFFFFFFFFFFFFFFFFFFFFFFFFFFFF AND PUSH20 0xFFFFFFFFFFFFFFFFFFFFFFFFFFFFFFFFFFFFFFFF AND PUSH20 0xFFFFFFFFFFFFFFFFFFFFFFFFFFFFFFFFFFFFFFFF AND DUP2 MSTORE PUSH1 0x20 ADD SWAP1 DUP2 MSTORE PUSH1 0x20 ADD PUSH0 KECCAK256 DUP2 SWAP1 SSTORE POP POP JUMPDEST PUSH0 DUP3 GT ISZERO PUSH2 0x500 JUMPI DUP2 PUSH1 0x8 PUSH0 PUSH0 PUSH0 ADD PUSH0 SWAP1 SLOAD SWAP1 PUSH2 0x100 EXP SWAP1 DIV PUSH20 0xFFFFFFFFFFFFFFFFFFFFFFFFFFFFFFFFFFFFFFFF AND PUSH20 0xFFFFFFFFFFFFFFFFFFFFFFFFFFFFFFFFFFFFFFFF AND PUSH20 0xFFFFFFFFFFFFFFFFFFFFFFFFFFFFFFFFFFFFFFFF AND DUP2 MSTORE PUSH1 0x20 ADD SWAP1 DUP2 MSTORE PUSH1 0x20 ADD PUSH0 KECCAK256 PUSH0 DUP3 DUP3 SLOAD PUSH2 0x4F8 SWAP2 SWAP1 PUSH2 0x1548 JUMP JUMPDEST SWAP3 POP POP DUP2 SWAP1 SSTORE POP JUMPDEST PUSH0 PUSH0 PUSH1 0x3 ADD PUSH0 PUSH2 0x100 EXP DUP2 SLOAD DUP2 PUSH1 0xFF MUL NOT AND SWAP1 DUP4 ISZERO ISZERO MUL OR SWAP1 SSTORE POP PUSH0 PUSH1 0x4 PUSH0 ADD PUSH0 PUSH2 0x100 EXP DUP2 SLOAD DUP2 PUSH20 0xFFFFFFFFFFFFFFFFFFFFFFFFFFFFFFFFFFFFFFFF MUL NOT AND SWAP1 DUP4 PUSH20 0xFFFFFFFFFFFFFFFFFFFFFFFFFFFFFFFFFFFFFFFF AND MUL OR SWAP1 SSTORE POP PUSH0 PUSH1 0x4 PUSH1 0x1 ADD DUP2 SWAP1 SSTORE POP PUSH0 PUSH1 0x4 PUSH1 0x2 ADD DUP2 SWAP1 SSTORE POP PUSH0 PUSH1 0x4 PUSH1 0x3 ADD DUP2 SWAP1 SSTORE POP POP POP POP POP JUMP JUMPDEST PUSH0 PUSH0 ADD PUSH0 SWAP1 SLOAD SWAP1 PUSH2 0x100 EXP SWAP1 DIV PUSH20 0xFFFFFFFFFFFFFFFFFFFFFFFFFFFFFFFFFFFFFFFF AND PUSH20 0xFFFFFFFFFFFFFFFFFFFFFFFFFFFFFFFFFFFFFFFF AND CALLER PUSH20 0xFFFFFFFFFFFFFFFFFFFFFFFFFFFFFFFFFFFFFFFF AND EQ PUSH2 0x611 JUMPI PUSH1 0x40 MLOAD PUSH32 0x8C379A000000000000000000000000000000000000000000000000000000000 DUP2 MSTORE PUSH1 0x4 ADD PUSH2 0x608 SWAP1 PUSH2 0x15C5 JUMP JUMPDEST PUSH1 0x40 MLOAD DUP1 SWAP2 SUB SWAP1 REVERT JUMPDEST PUSH0 PUSH1 0x3 ADD PUSH0 SWAP1 SLOAD SWAP1 PUSH2 0x100 EXP SWAP1 DIV PUSH1 0xFF AND PUSH2 0x661 JUMPI PUSH1 0x40 MLOAD PUSH32 0x8C379A000000000000000000000000000000000000000000000000000000000 DUP2 MSTORE PUSH1 0x4 ADD PUSH2 0x658 SWAP1 PUSH2 0x162D JUMP JUMPDEST PUSH1 0x40 MLOAD DUP1 SWAP2 SUB SWAP1 REVERT JUMPDEST PUSH0 PUSH1 0x2 ADD SLOAD PUSH1 0x4 PUSH1 0x2 ADD SLOAD LT PUSH2 0x6AC JUMPI PUSH1 0x40 MLOAD PUSH32 0x8C379A000000000000000000000000000000000000000000000000000000000 DUP2 MSTORE PUSH1 0x4 ADD PUSH2 0x6A3 SWAP1 PUSH2 0x1695 JUMP JUMPDEST PUSH1 0x40 MLOAD DUP1 SWAP2 SUB SWAP1 REVERT JUMPDEST PUSH0 PUSH1 0xA PUSH1 0x4 PUSH1 0x1 ADD SLOAD TIMESTAMP PUSH2 0x6C0 SWAP2 SWAP1 PUSH2 0x13CE JUMP JUMPDEST PUSH2 0x6CA SWAP2 SWAP1 PUSH2 0x142E JUMP JUMPDEST SWAP1 POP PUSH0 DUP2 SWAP1 POP DUP3 DUP2 LT ISZERO PUSH2 0x713 JUMPI PUSH1 0x40 MLOAD PUSH32 0x8C379A000000000000000000000000000000000000000000000000000000000 DUP2 MSTORE PUSH1 0x4 ADD PUSH2 0x70A SWAP1 PUSH2 0x16FD JUMP JUMPDEST PUSH1 0x40 MLOAD DUP1 SWAP2 SUB SWAP1 REVERT JUMPDEST DUP3 PUSH1 0x4 PUSH1 0x2 ADD SLOAD PUSH0 PUSH1 0x2 ADD SLOAD PUSH2 0x729 SWAP2 SWAP1 PUSH2 0x13CE JUMP JUMPDEST LT ISZERO PUSH2 0x76A JUMPI PUSH1 0x40 MLOAD PUSH32 0x8C379A000000000000000000000000000000000000000000000000000000000 DUP2 MSTORE PUSH1 0x4 ADD PUSH2 0x761 SWAP1 PUSH2 0x178B JUMP JUMPDEST PUSH1 0x40 MLOAD DUP1 SWAP2 SUB SWAP1 REVERT JUMPDEST PUSH0 PUSH0 PUSH1 0x1 ADD SLOAD DUP5 PUSH2 0x77B SWAP2 SWAP1 PUSH2 0x145E JUMP JUMPDEST SWAP1 POP DUP1 PUSH1 0x8 PUSH0 PUSH1 0x4 PUSH0 ADD PUSH0 SWAP1 SLOAD SWAP1 PUSH2 0x100 EXP SWAP1 DIV PUSH20 0xFFFFFFFFFFFFFFFFFFFFFFFFFFFFFFFFFFFFFFFF AND PUSH20 0xFFFFFFFFFFFFFFFFFFFFFFFFFFFFFFFFFFFFFFFF AND PUSH20 0xFFFFFFFFFFFFFFFFFFFFFFFFFFFFFFFFFFFFFFFF AND DUP2 MSTORE PUSH1 0x20 ADD SWAP1 DUP2 MSTORE PUSH1 0x20 ADD PUSH0 KECCAK256 SLOAD LT ISZERO PUSH2 0x820 JUMPI PUSH1 0x40 MLOAD PUSH32 0x8C379A000000000000000000000000000000000000000000000000000000000 DUP2 MSTORE PUSH1 0x4 ADD PUSH2 0x817 SWAP1 PUSH2 0x17F3 JUMP JUMPDEST PUSH1 0x40 MLOAD DUP1 SWAP2 SUB SWAP1 REVERT JUMPDEST DUP1 PUSH1 0x8 PUSH0 PUSH1 0x4 PUSH0 ADD PUSH0 SWAP1 SLOAD SWAP1 PUSH2 0x100 EXP SWAP1 DIV PUSH20 0xFFFFFFFFFFFFFFFFFFFFFFFFFFFFFFFFFFFFFFFF AND PUSH20 0xFFFFFFFFFFFFFFFFFFFFFFFFFFFFFFFFFFFFFFFF AND PUSH20 0xFFFFFFFFFFFFFFFFFFFFFFFFFFFFFFFFFFFFFFFF AND DUP2 MSTORE PUSH1 0x20 ADD SWAP1 DUP2 MSTORE PUSH1 0x20 ADD PUSH0 KECCAK256 PUSH0 DUP3 DUP3 SLOAD PUSH2 0x88F SWAP2 SWAP1 PUSH2 0x13CE JUMP JUMPDEST SWAP3 POP POP DUP2 SWAP1 SSTORE POP DUP1 PUSH1 0x8 PUSH0 PUSH0 PUSH0 ADD PUSH0 SWAP1 SLOAD SWAP1 PUSH2 0x100 EXP SWAP1 DIV PUSH20 0xFFFFFFFFFFFFFFFFFFFFFFFFFFFFFFFFFFFFFFFF AND PUSH20 0xFFFFFFFFFFFFFFFFFFFFFFFFFFFFFFFFFFFFFFFF AND PUSH20 0xFFFFFFFFFFFFFFFFFFFFFFFFFFFFFFFFFFFFFFFF AND DUP2 MSTORE PUSH1 0x20 ADD SWAP1 DUP2 MSTORE PUSH1 0x20 ADD PUSH0 KECCAK256 PUSH0 DUP3 DUP3 SLOAD PUSH2 0x904 SWAP2 SWAP1 PUSH2 0x1548 JUMP JUMPDEST SWAP3 POP POP DUP2 SWAP1 SSTORE POP DUP4 PUSH1 0x4 PUSH1 0x2 ADD PUSH0 DUP3 DUP3 SLOAD PUSH2 0x91F SWAP2 SWAP1 PUSH2 0x1548 JUMP JUMPDEST SWAP3 POP POP DUP2 SWAP1 SSTORE POP PUSH0 PUSH0 ADD PUSH0 SWAP1 SLOAD SWAP1 PUSH2 0x100 EXP SWAP1 DIV PUSH20 0xFFFFFFFFFFFFFFFFFFFFFFFFFFFFFFFFFFFFFFFF AND PUSH20 0xFFFFFFFFFFFFFFFFFFFFFFFFFFFFFFFFFFFFFFFF AND PUSH2 0x8FC DUP3 SWAP1 DUP2 ISZERO MUL SWAP1 PUSH1 0x40 MLOAD PUSH0 PUSH1 0x40 MLOAD DUP1 DUP4 SUB DUP2 DUP6 DUP9 DUP9 CALL SWAP4 POP POP POP POP ISZERO DUP1 ISZERO PUSH2 0x98B JUMPI RETURNDATASIZE PUSH0 PUSH0 RETURNDATACOPY RETURNDATASIZE PUSH0 REVERT JUMPDEST POP POP POP POP POP JUMP JUMPDEST PUSH0 PUSH1 0x3 ADD PUSH0 SWAP1 SLOAD SWAP1 PUSH2 0x100 EXP SWAP1 DIV PUSH1 0xFF AND ISZERO PUSH2 0x9E3 JUMPI PUSH1 0x40 MLOAD PUSH32 0x8C379A000000000000000000000000000000000000000000000000000000000 DUP2 MSTORE PUSH1 0x4 ADD PUSH2 0x9DA SWAP1 PUSH2 0x185B JUMP JUMPDEST PUSH1 0x40 MLOAD DUP1 SWAP2 SUB SWAP1 REVERT JUMPDEST PUSH0 PUSH0 ADD PUSH0 SWAP1 SLOAD SWAP1 PUSH2 0x100 EXP SWAP1 DIV PUSH20 0xFFFFFFFFFFFFFFFFFFFFFFFFFFFFFFFFFFFFFFFF AND PUSH20 0xFFFFFFFFFFFFFFFFFFFFFFFFFFFFFFFFFFFFFFFF AND CALLER PUSH20 0xFFFFFFFFFFFFFFFFFFFFFFFFFFFFFFFFFFFFFFFF AND SUB PUSH2 0xA73 JUMPI PUSH1 0x40 MLOAD PUSH32 0x8C379A000000000000000000000000000000000000000000000000000000000 DUP2 MSTORE PUSH1 0x4 ADD PUSH2 0xA6A SWAP1 PUSH2 0x18C3 JUMP JUMPDEST PUSH1 0x40 MLOAD DUP1 SWAP2 SUB SWAP1 REVERT JUMPDEST PUSH0 PUSH1 0x2 ADD SLOAD PUSH0 PUSH1 0x1 ADD SLOAD PUSH2 0xA87 SWAP2 SWAP1 PUSH2 0x145E JUMP JUMPDEST CALLVALUE LT ISZERO PUSH2 0xAC9 JUMPI PUSH1 0x40 MLOAD PUSH32 0x8C379A000000000000000000000000000000000000000000000000000000000 DUP2 MSTORE PUSH1 0x4 ADD PUSH2 0xAC0 SWAP1 PUSH2 0x1951 JUMP JUMPDEST PUSH1 0x40 MLOAD DUP1 SWAP2 SUB SWAP1 REVERT JUMPDEST CALLER PUSH1 0x4 PUSH0 ADD PUSH0 PUSH2 0x100 EXP DUP2 SLOAD DUP2 PUSH20 0xFFFFFFFFFFFFFFFFFFFFFFFFFFFFFFFFFFFFFFFF MUL NOT AND SWAP1 DUP4 PUSH20 0xFFFFFFFFFFFFFFFFFFFFFFFFFFFFFFFFFFFFFFFF AND MUL OR SWAP1 SSTORE POP TIMESTAMP PUSH1 0x4 PUSH1 0x1 ADD DUP2 SWAP1 SSTORE POP PUSH0 PUSH1 0x4 PUSH1 0x2 ADD DUP2 SWAP1 SSTORE POP PUSH1 0xA PUSH0 PUSH1 0x2 ADD SLOAD PUSH2 0xB30 SWAP2 SWAP1 PUSH2 0x145E JUMP JUMPDEST TIMESTAMP PUSH2 0xB3B SWAP2 SWAP1 PUSH2 0x1548 JUMP JUMPDEST PUSH1 0x4 PUSH1 0x3 ADD DUP2 SWAP1 SSTORE POP CALLVALUE PUSH1 0x8 PUSH0 PUSH1 0x4 PUSH0 ADD PUSH0 SWAP1 SLOAD SWAP1 PUSH2 0x100 EXP SWAP1 DIV PUSH20 0xFFFFFFFFFFFFFFFFFFFFFFFFFFFFFFFFFFFFFFFF AND PUSH20 0xFFFFFFFFFFFFFFFFFFFFFFFFFFFFFFFFFFFFFFFF AND PUSH20 0xFFFFFFFFFFFFFFFFFFFFFFFFFFFFFFFFFFFFFFFF AND DUP2 MSTORE PUSH1 0x20 ADD SWAP1 DUP2 MSTORE PUSH1 0x20 ADD PUSH0 KECCAK256 DUP2 SWAP1 SSTORE POP PUSH1 0x1 PUSH0 PUSH1 0x3 ADD PUSH0 PUSH2 0x100 EXP DUP2 SLOAD DUP2 PUSH1 0xFF MUL NOT AND SWAP1 DUP4 ISZERO ISZERO MUL OR SWAP1 SSTORE POP JUMP JUMPDEST PUSH0 PUSH1 0x3 ADD PUSH0 SWAP1 SLOAD SWAP1 PUSH2 0x100 EXP SWAP1 DIV PUSH1 0xFF AND PUSH2 0xC17 JUMPI PUSH1 0x40 MLOAD PUSH32 0x8C379A000000000000000000000000000000000000000000000000000000000 DUP2 MSTORE PUSH1 0x4 ADD PUSH2 0xC0E SWAP1 PUSH2 0x12F5 JUMP JUMPDEST PUSH1 0x40 MLOAD DUP1 SWAP2 SUB SWAP1 REVERT JUMPDEST PUSH1 0x4 PUSH0 ADD PUSH0 SWAP1 SLOAD SWAP1 PUSH2 0x100 EXP SWAP1 DIV PUSH20 0xFFFFFFFFFFFFFFFFFFFFFFFFFFFFFFFFFFFFFFFF AND PUSH20 0xFFFFFFFFFFFFFFFFFFFFFFFFFFFFFFFFFFFFFFFF AND CALLER PUSH20 0xFFFFFFFFFFFFFFFFFFFFFFFFFFFFFFFFFFFFFFFF AND EQ PUSH2 0xCA8 JUMPI PUSH1 0x40 MLOAD PUSH32 0x8C379A000000000000000000000000000000000000000000000000000000000 DUP2 MSTORE PUSH1 0x4 ADD PUSH2 0xC9F SWAP1 PUSH2 0x19B9 JUMP JUMPDEST PUSH1 0x40 MLOAD DUP1 SWAP2 SUB SWAP1 REVERT JUMPDEST PUSH1 0x5 PUSH1 0x4 PUSH1 0x3 ADD SLOAD PUSH2 0xCBA SWAP2 SWAP1 PUSH2 0x1548 JUMP JUMPDEST TIMESTAMP GT ISZERO PUSH2 0xCFC JUMPI PUSH1 0x40 MLOAD PUSH32 0x8C379A000000000000000000000000000000000000000000000000000000000 DUP2 MSTORE PUSH1 0x4 ADD PUSH2 0xCF3 SWAP1 PUSH2 0x1A47 JUMP JUMPDEST PUSH1 0x40 MLOAD DUP1 SWAP2 SUB SWAP1 REVERT JUMPDEST PUSH0 DUP2 GT PUSH2 0xD3E JUMPI PUSH1 0x40 MLOAD PUSH32 0x8C379A000000000000000000000000000000000000000000000000000000000 DUP2 MSTORE PUSH1 0x4 ADD PUSH2 0xD35 SWAP1 PUSH2 0x1AAF JUMP JUMPDEST PUSH1 0x40 MLOAD DUP1 SWAP2 SUB SWAP1 REVERT JUMPDEST PUSH0 PUSH1 0x1 ADD SLOAD PUSH1 0x4 PUSH1 0x2 ADD SLOAD PUSH0 PUSH1 0x2 ADD SLOAD DUP4 PUSH2 0xD59 SWAP2 SWAP1 PUSH2 0x1548 JUMP JUMPDEST PUSH2 0xD63 SWAP2 SWAP1 PUSH2 0x13CE JUMP JUMPDEST PUSH2 0xD6D SWAP2 SWAP1 PUSH2 0x145E JUMP JUMPDEST CALLVALUE PUSH1 0x8 PUSH0 CALLER PUSH20 0xFFFFFFFFFFFFFFFFFFFFFFFFFFFFFFFFFFFFFFFF AND PUSH20 0xFFFFFFFFFFFFFFFFFFFFFFFFFFFFFFFFFFFFFFFF AND DUP2 MSTORE PUSH1 0x20 ADD SWAP1 DUP2 MSTORE PUSH1 0x20 ADD PUSH0 KECCAK256 SLOAD PUSH2 0xDB6 SWAP2 SWAP1 PUSH2 0x1548 JUMP JUMPDEST LT ISZERO PUSH2 0xDF7 JUMPI PUSH1 0x40 MLOAD PUSH32 0x8C379A000000000000000000000000000000000000000000000000000000000 DUP2 MSTORE PUSH1 0x4 ADD PUSH2 0xDEE SWAP1 PUSH2 0x1B3D JUMP JUMPDEST PUSH1 0x40 MLOAD DUP1 SWAP2 SUB SWAP1 REVERT JUMPDEST PUSH0 DUP2 PUSH0 PUSH1 0x1 ADD SLOAD PUSH2 0xE08 SWAP2 SWAP1 PUSH2 0x145E JUMP JUMPDEST SWAP1 POP DUP1 CALLVALUE LT ISZERO PUSH2 0xE4D JUMPI PUSH1 0x40 MLOAD PUSH32 0x8C379A000000000000000000000000000000000000000000000000000000000 DUP2 MSTORE PUSH1 0x4 ADD PUSH2 0xE44 SWAP1 PUSH2 0x1BA5 JUMP JUMPDEST PUSH1 0x40 MLOAD DUP1 SWAP2 SUB SWAP1 REVERT JUMPDEST PUSH1 0xA DUP3 PUSH2 0xE5A SWAP2 SWAP1 PUSH2 0x145E JUMP JUMPDEST PUSH1 0x4 PUSH1 0x3 ADD PUSH0 DUP3 DUP3 SLOAD PUSH2 0xE6D SWAP2 SWAP1 PUSH2 0x1548 JUMP JUMPDEST SWAP3 POP POP DUP2 SWAP1 SSTORE POP DUP2 PUSH0 PUSH1 0x2 ADD PUSH0 DUP3 DUP3 SLOAD PUSH2 0xE87 SWAP2 SWAP1 PUSH2 0x1548 JUMP JUMPDEST SWAP3 POP POP DUP2 SWAP1 SSTORE POP CALLVALUE PUSH1 0x8 PUSH0 CALLER PUSH20 0xFFFFFFFFFFFFFFFFFFFFFFFFFFFFFFFFFFFFFFFF AND PUSH20 0xFFFFFFFFFFFFFFFFFFFFFFFFFFFFFFFFFFFFFFFF AND DUP2 MSTORE PUSH1 0x20 ADD SWAP1 DUP2 MSTORE PUSH1 0x20 ADD PUSH0 KECCAK256 PUSH0 DUP3 DUP3 SLOAD PUSH2 0xEDA SWAP2 SWAP1 PUSH2 0x1548 JUMP JUMPDEST SWAP3 POP POP DUP2 SWAP1 SSTORE POP POP POP JUMP JUMPDEST PUSH0 PUSH0 PUSH0 PUSH0 PUSH0 PUSH20 0xFFFFFFFFFFFFFFFFFFFFFFFFFFFFFFFFFFFFFFFF AND PUSH1 0x4 PUSH0 ADD PUSH0 SWAP1 SLOAD SWAP1 PUSH2 0x100 EXP SWAP1 DIV PUSH20 0xFFFFFFFFFFFFFFFFFFFFFFFFFFFFFFFFFFFFFFFF AND PUSH20 0xFFFFFFFFFFFFFFFFFFFFFFFFFFFFFFFFFFFFFFFF AND EQ DUP1 PUSH2 0xFEF JUMPI POP PUSH0 PUSH0 ADD PUSH0 SWAP1 SLOAD SWAP1 PUSH2 0x100 EXP SWAP1 DIV PUSH20 0xFFFFFFFFFFFFFFFFFFFFFFFFFFFFFFFFFFFFFFFF AND PUSH20 0xFFFFFFFFFFFFFFFFFFFFFFFFFFFFFFFFFFFFFFFF AND CALLER PUSH20 0xFFFFFFFFFFFFFFFFFFFFFFFFFFFFFFFFFFFFFFFF AND EQ ISZERO DUP1 ISZERO PUSH2 0xFEE JUMPI POP PUSH1 0x4 PUSH0 ADD PUSH0 SWAP1 SLOAD SWAP1 PUSH2 0x100 EXP SWAP1 DIV PUSH20 0xFFFFFFFFFFFFFFFFFFFFFFFFFFFFFFFFFFFFFFFF AND PUSH20 0xFFFFFFFFFFFFFFFFFFFFFFFFFFFFFFFFFFFFFFFF AND CALLER PUSH20 0xFFFFFFFFFFFFFFFFFFFFFFFFFFFFFFFFFFFFFFFF AND EQ ISZERO JUMPDEST JUMPDEST ISZERO PUSH2 0x100F JUMPI PUSH0 PUSH1 0x4 PUSH1 0x1 ADD SLOAD PUSH1 0x4 PUSH1 0x2 ADD SLOAD PUSH0 SWAP4 POP SWAP4 POP SWAP4 POP SWAP4 POP PUSH2 0x107B JUMP JUMPDEST PUSH0 PUSH0 SWAP1 POP PUSH1 0x4 PUSH1 0x3 ADD SLOAD TIMESTAMP LT ISZERO PUSH2 0x1040 JUMPI PUSH1 0xA TIMESTAMP PUSH1 0x4 PUSH1 0x3 ADD SLOAD PUSH2 0x1033 SWAP2 SWAP1 PUSH2 0x13CE JUMP JUMPDEST PUSH2 0x103D SWAP2 SWAP1 PUSH2 0x142E JUMP JUMPDEST SWAP1 POP JUMPDEST PUSH1 0x4 PUSH0 ADD PUSH0 SWAP1 SLOAD SWAP1 PUSH2 0x100 EXP SWAP1 DIV PUSH20 0xFFFFFFFFFFFFFFFFFFFFFFFFFFFFFFFFFFFFFFFF AND PUSH1 0x4 PUSH1 0x1 ADD SLOAD PUSH1 0x4 PUSH1 0x2 ADD SLOAD DUP4 SWAP5 POP SWAP5 POP SWAP5 POP SWAP5 POP POP JUMPDEST SWAP1 SWAP2 SWAP3 SWAP4 JUMP JUMPDEST PUSH0 DUP1 PUSH0 ADD PUSH0 SWAP1 SLOAD SWAP1 PUSH2 0x100 EXP SWAP1 DIV PUSH20 0xFFFFFFFFFFFFFFFFFFFFFFFFFFFFFFFFFFFFFFFF AND SWAP1 DUP1 PUSH1 0x1 ADD SLOAD SWAP1 DUP1 PUSH1 0x2 ADD SLOAD SWAP1 DUP1 PUSH1 0x3 ADD PUSH0 SWAP1 SLOAD SWAP1 PUSH2 0x100 EXP SWAP1 DIV PUSH1 0xFF AND SWAP1 POP DUP5 JUMP JUMPDEST PUSH1 0x8 PUSH1 0x20 MSTORE DUP1 PUSH0 MSTORE PUSH1 0x40 PUSH0 KECCAK256 PUSH0 SWAP2 POP SWAP1 POP SLOAD DUP2 JUMP JUMPDEST PUSH0 PUSH0 REVERT JUMPDEST PUSH0 DUP2 SWAP1 POP SWAP2 SWAP1 POP JUMP JUMPDEST PUSH2 0x10F3 DUP2 PUSH2 0x10E1 JUMP JUMPDEST DUP2 EQ PUSH2 0x10FD JUMPI PUSH0 PUSH0 REVERT JUMPDEST POP JUMP JUMPDEST PUSH0 DUP2 CALLDATALOAD SWAP1 POP PUSH2 0x110E DUP2 PUSH2 0x10EA JUMP JUMPDEST SWAP3 SWAP2 POP POP JUMP JUMPDEST PUSH0 PUSH1 0x20 DUP3 DUP5 SUB SLT ISZERO PUSH2 0x1129 JUMPI PUSH2 0x1128 PUSH2 0x10DD JUMP JUMPDEST JUMPDEST PUSH0 PUSH2 0x1136 DUP5 DUP3 DUP6 ADD PUSH2 0x1100 JUMP JUMPDEST SWAP2 POP POP SWAP3 SWAP2 POP POP JUMP JUMPDEST PUSH0 PUSH20 0xFFFFFFFFFFFFFFFFFFFFFFFFFFFFFFFFFFFFFFFF DUP3 AND SWAP1 POP SWAP2 SWAP1 POP JUMP JUMPDEST PUSH0 PUSH2 0x1168 DUP3 PUSH2 0x113F JUMP JUMPDEST SWAP1 POP SWAP2 SWAP1 POP JUMP JUMPDEST PUSH2 0x1178 DUP2 PUSH2 0x115E JUMP JUMPDEST DUP3 MSTORE POP POP JUMP JUMPDEST PUSH2 0x1187 DUP2 PUSH2 0x10E1 JUMP JUMPDEST DUP3 MSTORE POP POP JUMP JUMPDEST PUSH0 PUSH1 0x80 DUP3 ADD SWAP1 POP PUSH2 0x11A0 PUSH0 DUP4 ADD DUP8 PUSH2 0x116F JUMP JUMPDEST PUSH2 0x11AD PUSH1 0x20 DUP4 ADD DUP7 PUSH2 0x117E JUMP JUMPDEST PUSH2 0x11BA PUSH1 0x40 DUP4 ADD DUP6 PUSH2 0x117E JUMP JUMPDEST PUSH2 0x11C7 PUSH1 0x60 DUP4 ADD DUP5 PUSH2 0x117E JUMP JUMPDEST SWAP6 SWAP5 POP POP POP POP POP JUMP JUMPDEST PUSH0 DUP2 ISZERO ISZERO SWAP1 POP SWAP2 SWAP1 POP JUMP JUMPDEST PUSH2 0x11E4 DUP2 PUSH2 0x11D0 JUMP JUMPDEST DUP3 MSTORE POP POP JUMP JUMPDEST PUSH0 PUSH1 0x80 DUP3 ADD SWAP1 POP PUSH2 0x11FD PUSH0 DUP4 ADD DUP8 PUSH2 0x116F JUMP JUMPDEST PUSH2 0x120A PUSH1 0x20 DUP4 ADD DUP7 PUSH2 0x117E JUMP JUMPDEST PUSH2 0x1217 PUSH1 0x40 DUP4 ADD DUP6 PUSH2 0x117E JUMP JUMPDEST PUSH2 0x1224 PUSH1 0x60 DUP4 ADD DUP5 PUSH2 0x11DB JUMP JUMPDEST SWAP6 SWAP5 POP POP POP POP POP JUMP JUMPDEST PUSH2 0x1236 DUP2 PUSH2 0x115E JUMP JUMPDEST DUP2 EQ PUSH2 0x1240 JUMPI PUSH0 PUSH0 REVERT JUMPDEST POP JUMP JUMPDEST PUSH0 DUP2 CALLDATALOAD SWAP1 POP PUSH2 0x1251 DUP2 PUSH2 0x122D JUMP JUMPDEST SWAP3 SWAP2 POP POP JUMP JUMPDEST PUSH0 PUSH1 0x20 DUP3 DUP5 SUB SLT ISZERO PUSH2 0x126C JUMPI PUSH2 0x126B PUSH2 0x10DD JUMP JUMPDEST JUMPDEST PUSH0 PUSH2 0x1279 DUP5 DUP3 DUP6 ADD PUSH2 0x1243 JUMP JUMPDEST SWAP2 POP POP SWAP3 SWAP2 POP POP JUMP JUMPDEST PUSH0 PUSH1 0x20 DUP3 ADD SWAP1 POP PUSH2 0x1295 PUSH0 DUP4 ADD DUP5 PUSH2 0x117E JUMP JUMPDEST SWAP3 SWAP2 POP POP JUMP JUMPDEST PUSH0 DUP3 DUP3 MSTORE PUSH1 0x20 DUP3 ADD SWAP1 POP SWAP3 SWAP2 POP POP JUMP JUMPDEST PUSH32 0x4368756120636F20686F7020646F6E6700000000000000000000000000000000 PUSH0 DUP3 ADD MSTORE POP JUMP JUMPDEST PUSH0 PUSH2 0x12DF PUSH1 0x10 DUP4 PUSH2 0x129B JUMP JUMPDEST SWAP2 POP PUSH2 0x12EA DUP3 PUSH2 0x12AB JUMP JUMPDEST PUSH1 0x20 DUP3 ADD SWAP1 POP SWAP2 SWAP1 POP JUMP JUMPDEST PUSH0 PUSH1 0x20 DUP3 ADD SWAP1 POP DUP2 DUP2 SUB PUSH0 DUP4 ADD MSTORE PUSH2 0x130C DUP2 PUSH2 0x12D3 JUMP JUMPDEST SWAP1 POP SWAP2 SWAP1 POP JUMP JUMPDEST PUSH32 0x43686920636875206E686120686F6163206E67756F692074687565206D6F6920 PUSH0 DUP3 ADD MSTORE PUSH32 0x636F20717579656E000000000000000000000000000000000000000000000000 PUSH1 0x20 DUP3 ADD MSTORE POP JUMP JUMPDEST PUSH0 PUSH2 0x136D PUSH1 0x28 DUP4 PUSH2 0x129B JUMP JUMPDEST SWAP2 POP PUSH2 0x1378 DUP3 PUSH2 0x1313 JUMP JUMPDEST PUSH1 0x40 DUP3 ADD SWAP1 POP SWAP2 SWAP1 POP JUMP JUMPDEST PUSH0 PUSH1 0x20 DUP3 ADD SWAP1 POP DUP2 DUP2 SUB PUSH0 DUP4 ADD MSTORE PUSH2 0x139A DUP2 PUSH2 0x1361 JUMP JUMPDEST SWAP1 POP SWAP2 SWAP1 POP JUMP JUMPDEST PUSH32 0x4E487B7100000000000000000000000000000000000000000000000000000000 PUSH0 MSTORE PUSH1 0x11 PUSH1 0x4 MSTORE PUSH1 0x24 PUSH0 REVERT JUMPDEST PUSH0 PUSH2 0x13D8 DUP3 PUSH2 0x10E1 JUMP JUMPDEST SWAP2 POP PUSH2 0x13E3 DUP4 PUSH2 0x10E1 JUMP JUMPDEST SWAP3 POP DUP3 DUP3 SUB SWAP1 POP DUP2 DUP2 GT ISZERO PUSH2 0x13FB JUMPI PUSH2 0x13FA PUSH2 0x13A1 JUMP JUMPDEST JUMPDEST SWAP3 SWAP2 POP POP JUMP JUMPDEST PUSH32 0x4E487B7100000000000000000000000000000000000000000000000000000000 PUSH0 MSTORE PUSH1 0x12 PUSH1 0x4 MSTORE PUSH1 0x24 PUSH0 REVERT JUMPDEST PUSH0 PUSH2 0x1438 DUP3 PUSH2 0x10E1 JUMP JUMPDEST SWAP2 POP PUSH2 0x1443 DUP4 PUSH2 0x10E1 JUMP JUMPDEST SWAP3 POP DUP3 PUSH2 0x1453 JUMPI PUSH2 0x1452 PUSH2 0x1401 JUMP JUMPDEST JUMPDEST DUP3 DUP3 DIV SWAP1 POP SWAP3 SWAP2 POP POP JUMP JUMPDEST PUSH0 PUSH2 0x1468 DUP3 PUSH2 0x10E1 JUMP JUMPDEST SWAP2 POP PUSH2 0x1473 DUP4 PUSH2 0x10E1 JUMP JUMPDEST SWAP3 POP DUP3 DUP3 MUL PUSH2 0x1481 DUP2 PUSH2 0x10E1 JUMP JUMPDEST SWAP2 POP DUP3 DUP3 DIV DUP5 EQ DUP4 ISZERO OR PUSH2 0x1498 JUMPI PUSH2 0x1497 PUSH2 0x13A1 JUMP JUMPDEST JUMPDEST POP SWAP3 SWAP2 POP POP JUMP JUMPDEST PUSH0 DUP2 SWAP1 POP SWAP3 SWAP2 POP POP JUMP JUMPDEST POP JUMP JUMPDEST PUSH0 PUSH2 0x14B7 PUSH0 DUP4 PUSH2 0x149F JUMP JUMPDEST SWAP2 POP PUSH2 0x14C2 DUP3 PUSH2 0x14A9 JUMP JUMPDEST PUSH0 DUP3 ADD SWAP1 POP SWAP2 SWAP1 POP JUMP JUMPDEST PUSH0 PUSH2 0x14D6 DUP3 PUSH2 0x14AC JUMP JUMPDEST SWAP2 POP DUP2 SWAP1 POP SWAP2 SWAP1 POP JUMP JUMPDEST PUSH32 0x43687579656E207469656E207468617420626169000000000000000000000000 PUSH0 DUP3 ADD MSTORE POP JUMP JUMPDEST PUSH0 PUSH2 0x1514 PUSH1 0x14 DUP4 PUSH2 0x129B JUMP JUMPDEST SWAP2 POP PUSH2 0x151F DUP3 PUSH2 0x14E0 JUMP JUMPDEST PUSH1 0x20 DUP3 ADD SWAP1 POP SWAP2 SWAP1 POP JUMP JUMPDEST PUSH0 PUSH1 0x20 DUP3 ADD SWAP1 POP DUP2 DUP2 SUB PUSH0 DUP4 ADD MSTORE PUSH2 0x1541 DUP2 PUSH2 0x1508 JUMP JUMPDEST SWAP1 POP SWAP2 SWAP1 POP JUMP JUMPDEST PUSH0 PUSH2 0x1552 DUP3 PUSH2 0x10E1 JUMP JUMPDEST SWAP2 POP PUSH2 0x155D DUP4 PUSH2 0x10E1 JUMP JUMPDEST SWAP3 POP DUP3 DUP3 ADD SWAP1 POP DUP1 DUP3 GT ISZERO PUSH2 0x1575 JUMPI PUSH2 0x1574 PUSH2 0x13A1 JUMP JUMPDEST JUMPDEST SWAP3 SWAP2 POP POP JUMP JUMPDEST PUSH32 0x43686920636875206E6861206D6F692064756F6320727574207469656E000000 PUSH0 DUP3 ADD MSTORE POP JUMP JUMPDEST PUSH0 PUSH2 0x15AF PUSH1 0x1D DUP4 PUSH2 0x129B JUMP JUMPDEST SWAP2 POP PUSH2 0x15BA DUP3 PUSH2 0x157B JUMP JUMPDEST PUSH1 0x20 DUP3 ADD SWAP1 POP SWAP2 SWAP1 POP JUMP JUMPDEST PUSH0 PUSH1 0x20 DUP3 ADD SWAP1 POP DUP2 DUP2 SUB PUSH0 DUP4 ADD MSTORE PUSH2 0x15DC DUP2 PUSH2 0x15A3 JUMP JUMPDEST SWAP1 POP SWAP2 SWAP1 POP JUMP JUMPDEST PUSH32 0x4368756120636F20686F7020646F6E6720686F70206C65000000000000000000 PUSH0 DUP3 ADD MSTORE POP JUMP JUMPDEST PUSH0 PUSH2 0x1617 PUSH1 0x17 DUP4 PUSH2 0x129B JUMP JUMPDEST SWAP2 POP PUSH2 0x1622 DUP3 PUSH2 0x15E3 JUMP JUMPDEST PUSH1 0x20 DUP3 ADD SWAP1 POP SWAP2 SWAP1 POP JUMP JUMPDEST PUSH0 PUSH1 0x20 DUP3 ADD SWAP1 POP DUP2 DUP2 SUB PUSH0 DUP4 ADD MSTORE PUSH2 0x1644 DUP2 PUSH2 0x160B JUMP JUMPDEST SWAP1 POP SWAP2 SWAP1 POP JUMP JUMPDEST PUSH32 0x4E67756F692074687565206461207468616E6820746F616E2064617920647500 PUSH0 DUP3 ADD MSTORE POP JUMP JUMPDEST PUSH0 PUSH2 0x167F PUSH1 0x1F DUP4 PUSH2 0x129B JUMP JUMPDEST SWAP2 POP PUSH2 0x168A DUP3 PUSH2 0x164B JUMP JUMPDEST PUSH1 0x20 DUP3 ADD SWAP1 POP SWAP2 SWAP1 POP JUMP JUMPDEST PUSH0 PUSH1 0x20 DUP3 ADD SWAP1 POP DUP2 DUP2 SUB PUSH0 DUP4 ADD MSTORE PUSH2 0x16AC DUP2 PUSH2 0x1673 JUMP JUMPDEST SWAP1 POP SWAP2 SWAP1 POP JUMP JUMPDEST PUSH32 0x4368756120636F207468616E67206E616F206D6F692064652072757400000000 PUSH0 DUP3 ADD MSTORE POP JUMP JUMPDEST PUSH0 PUSH2 0x16E7 PUSH1 0x1C DUP4 PUSH2 0x129B JUMP JUMPDEST SWAP2 POP PUSH2 0x16F2 DUP3 PUSH2 0x16B3 JUMP JUMPDEST PUSH1 0x20 DUP3 ADD SWAP1 POP SWAP2 SWAP1 POP JUMP JUMPDEST PUSH0 PUSH1 0x20 DUP3 ADD SWAP1 POP DUP2 DUP2 SUB PUSH0 DUP4 ADD MSTORE PUSH2 0x1714 DUP2 PUSH2 0x16DB JUMP JUMPDEST SWAP1 POP SWAP2 SWAP1 POP JUMP JUMPDEST PUSH32 0x536F207468616E67206D756F6E20727574206C6F6E20686F6E20736F2074686F PUSH0 DUP3 ADD MSTORE PUSH32 0x69206769616E20636F6E206C6169000000000000000000000000000000000000 PUSH1 0x20 DUP3 ADD MSTORE POP JUMP JUMPDEST PUSH0 PUSH2 0x1775 PUSH1 0x2E DUP4 PUSH2 0x129B JUMP JUMPDEST SWAP2 POP PUSH2 0x1780 DUP3 PUSH2 0x171B JUMP JUMPDEST PUSH1 0x40 DUP3 ADD SWAP1 POP SWAP2 SWAP1 POP JUMP JUMPDEST PUSH0 PUSH1 0x20 DUP3 ADD SWAP1 POP DUP2 DUP2 SUB PUSH0 DUP4 ADD MSTORE PUSH2 0x17A2 DUP2 PUSH2 0x1769 JUMP JUMPDEST SWAP1 POP SWAP2 SWAP1 POP JUMP JUMPDEST PUSH32 0x536F206475206B686F6E67206475000000000000000000000000000000000000 PUSH0 DUP3 ADD MSTORE POP JUMP JUMPDEST PUSH0 PUSH2 0x17DD PUSH1 0xE DUP4 PUSH2 0x129B JUMP JUMPDEST SWAP2 POP PUSH2 0x17E8 DUP3 PUSH2 0x17A9 JUMP JUMPDEST PUSH1 0x20 DUP3 ADD SWAP1 POP SWAP2 SWAP1 POP JUMP JUMPDEST PUSH0 PUSH1 0x20 DUP3 ADD SWAP1 POP DUP2 DUP2 SUB PUSH0 DUP4 ADD MSTORE PUSH2 0x180A DUP2 PUSH2 0x17D1 JUMP JUMPDEST SWAP1 POP SWAP2 SWAP1 POP JUMP JUMPDEST PUSH32 0x486F7020646F6E672064612064756F63206B7900000000000000000000000000 PUSH0 DUP3 ADD MSTORE POP JUMP JUMPDEST PUSH0 PUSH2 0x1845 PUSH1 0x13 DUP4 PUSH2 0x129B JUMP JUMPDEST SWAP2 POP PUSH2 0x1850 DUP3 PUSH2 0x1811 JUMP JUMPDEST PUSH1 0x20 DUP3 ADD SWAP1 POP SWAP2 SWAP1 POP JUMP JUMPDEST PUSH0 PUSH1 0x20 DUP3 ADD SWAP1 POP DUP2 DUP2 SUB PUSH0 DUP4 ADD MSTORE PUSH2 0x1872 DUP2 PUSH2 0x1839 JUMP JUMPDEST SWAP1 POP SWAP2 SWAP1 POP JUMP JUMPDEST PUSH32 0x436875206E6861206B686F6E6720746865207475206B79000000000000000000 PUSH0 DUP3 ADD MSTORE POP JUMP JUMPDEST PUSH0 PUSH2 0x18AD PUSH1 0x17 DUP4 PUSH2 0x129B JUMP JUMPDEST SWAP2 POP PUSH2 0x18B8 DUP3 PUSH2 0x1879 JUMP JUMPDEST PUSH1 0x20 DUP3 ADD SWAP1 POP SWAP2 SWAP1 POP JUMP JUMPDEST PUSH0 PUSH1 0x20 DUP3 ADD SWAP1 POP DUP2 DUP2 SUB PUSH0 DUP4 ADD MSTORE PUSH2 0x18DA DUP2 PUSH2 0x18A1 JUMP JUMPDEST SWAP1 POP SWAP2 SWAP1 POP JUMP JUMPDEST PUSH32 0x50686169206E6170206475207469656E2063686F20746F616E20626F206B7920 PUSH0 DUP3 ADD MSTORE PUSH32 0x68616E0000000000000000000000000000000000000000000000000000000000 PUSH1 0x20 DUP3 ADD MSTORE POP JUMP JUMPDEST PUSH0 PUSH2 0x193B PUSH1 0x23 DUP4 PUSH2 0x129B JUMP JUMPDEST SWAP2 POP PUSH2 0x1946 DUP3 PUSH2 0x18E1 JUMP JUMPDEST PUSH1 0x40 DUP3 ADD SWAP1 POP SWAP2 SWAP1 POP JUMP JUMPDEST PUSH0 PUSH1 0x20 DUP3 ADD SWAP1 POP DUP2 DUP2 SUB PUSH0 DUP4 ADD MSTORE PUSH2 0x1968 DUP2 PUSH2 0x192F JUMP JUMPDEST SWAP1 POP SWAP2 SWAP1 POP JUMP JUMPDEST PUSH32 0x436869206E67756F692074687565206D6F692064756F63206769612068616E00 PUSH0 DUP3 ADD MSTORE POP JUMP JUMPDEST PUSH0 PUSH2 0x19A3 PUSH1 0x1F DUP4 PUSH2 0x129B JUMP JUMPDEST SWAP2 POP PUSH2 0x19AE DUP3 PUSH2 0x196F JUMP JUMPDEST PUSH1 0x20 DUP3 ADD SWAP1 POP SWAP2 SWAP1 POP JUMP JUMPDEST PUSH0 PUSH1 0x20 DUP3 ADD SWAP1 POP DUP2 DUP2 SUB PUSH0 DUP4 ADD MSTORE PUSH2 0x19D0 DUP2 PUSH2 0x1997 JUMP JUMPDEST SWAP1 POP SWAP2 SWAP1 POP JUMP JUMPDEST PUSH32 0x4461207175612074686F69206769616E2063686F207068657020676961206861 PUSH0 DUP3 ADD MSTORE PUSH32 0x6E00000000000000000000000000000000000000000000000000000000000000 PUSH1 0x20 DUP3 ADD MSTORE POP JUMP JUMPDEST PUSH0 PUSH2 0x1A31 PUSH1 0x21 DUP4 PUSH2 0x129B JUMP JUMPDEST SWAP2 POP PUSH2 0x1A3C DUP3 PUSH2 0x19D7 JUMP JUMPDEST PUSH1 0x40 DUP3 ADD SWAP1 POP SWAP2 SWAP1 POP JUMP JUMPDEST PUSH0 PUSH1 0x20 DUP3 ADD SWAP1 POP DUP2 DUP2 SUB PUSH0 DUP4 ADD MSTORE PUSH2 0x1A5E DUP2 PUSH2 0x1A25 JUMP JUMPDEST SWAP1 POP SWAP2 SWAP1 POP JUMP JUMPDEST PUSH32 0x50686169207468656D206974206E6861742031207468616E6700000000000000 PUSH0 DUP3 ADD MSTORE POP JUMP JUMPDEST PUSH0 PUSH2 0x1A99 PUSH1 0x19 DUP4 PUSH2 0x129B JUMP JUMPDEST SWAP2 POP PUSH2 0x1AA4 DUP3 PUSH2 0x1A65 JUMP JUMPDEST PUSH1 0x20 DUP3 ADD SWAP1 POP SWAP2 SWAP1 POP JUMP JUMPDEST PUSH0 PUSH1 0x20 DUP3 ADD SWAP1 POP DUP2 DUP2 SUB PUSH0 DUP4 ADD MSTORE PUSH2 0x1AC6 DUP2 PUSH2 0x1A8D JUMP JUMPDEST SWAP1 POP SWAP2 SWAP1 POP JUMP JUMPDEST PUSH32 0x536F20647520636F6E206C6169206B686F6E67206475206465206769616E2068 PUSH0 DUP3 ADD MSTORE PUSH32 0x616E000000000000000000000000000000000000000000000000000000000000 PUSH1 0x20 DUP3 ADD MSTORE POP JUMP JUMPDEST PUSH0 PUSH2 0x1B27 PUSH1 0x22 DUP4 PUSH2 0x129B JUMP JUMPDEST SWAP2 POP PUSH2 0x1B32 DUP3 PUSH2 0x1ACD JUMP JUMPDEST PUSH1 0x40 DUP3 ADD SWAP1 POP SWAP2 SWAP1 POP JUMP JUMPDEST PUSH0 PUSH1 0x20 DUP3 ADD SWAP1 POP DUP2 DUP2 SUB PUSH0 DUP4 ADD MSTORE PUSH2 0x1B54 DUP2 PUSH2 0x1B1B JUMP JUMPDEST SWAP1 POP SWAP2 SWAP1 POP JUMP JUMPDEST PUSH32 0x5469656E20677569206B686F6E67206475000000000000000000000000000000 PUSH0 DUP3 ADD MSTORE POP JUMP JUMPDEST PUSH0 PUSH2 0x1B8F PUSH1 0x11 DUP4 PUSH2 0x129B JUMP JUMPDEST SWAP2 POP PUSH2 0x1B9A DUP3 PUSH2 0x1B5B JUMP JUMPDEST PUSH1 0x20 DUP3 ADD SWAP1 POP SWAP2 SWAP1 POP JUMP JUMPDEST PUSH0 PUSH1 0x20 DUP3 ADD SWAP1 POP DUP2 DUP2 SUB PUSH0 DUP4 ADD MSTORE PUSH2 0x1BBC DUP2 PUSH2 0x1B83 JUMP JUMPDEST SWAP1 POP SWAP2 SWAP1 POP JUMP INVALID LOG2 PUSH5 0x6970667358 0x22 SLT KECCAK256 BASEFEE 0xCE 0xE9 DUPN 0xDB SHR DUP7 0x1F PUSH21 0x63D456AB34F254AC534AF6C0A89BA91FE4549CB115 SAR PUSH27 0x64736F6C634300081E003300000000000000000000000000000000 "
				},
				"gasEstimates": {
					"creation": {
						"codeDepositCost": "1432200",
						"executionCost": "infinite",
						"totalCost": "infinite"
					},
					"external": {
						"chamDutHopDong()": "infinite",
						"giaHanHopDong(uint256)": "infinite",
						"kyHopDong()": "infinite",
						"rutTien(uint256)": "infinite",
						"soDuTaiKhoan(address)": "2868",
						"thongTinNha()": "infinite",
						"xemTinhTrangThue()": "infinite"
					}
				},
				"methodIdentifiers": {
					"chamDutHopDong()": "004ead34",
					"giaHanHopDong(uint256)": "b7650127",
					"kyHopDong()": "619089d3",
					"rutTien(uint256)": "185c8b8d",
					"soDuTaiKhoan(address)": "f57967c0",
					"thongTinNha()": "f17b93a8",
					"xemTinhTrangThue()": "ddca361f"
				}
			},
			"storageLayout": {
				"storage": [
					{
						"astId": 22,
						"contract": "contracts/RealEstate.sol:HopDongThueCanHo",
						"label": "thongTinNha",
						"offset": 0,
						"slot": "0",
						"type": "t_struct(ThongTinNha)10_storage"
					},
					{
						"astId": 25,
						"contract": "contracts/RealEstate.sol:HopDongThueCanHo",
						"label": "thongTinThue",
						"offset": 0,
						"slot": "4",
						"type": "t_struct(ThongTinThue)19_storage"
					},
					{
						"astId": 29,
						"contract": "contracts/RealEstate.sol:HopDongThueCanHo",
						"label": "soDuTaiKhoan",
						"offset": 0,
						"slot": "8",
						"type": "t_mapping(t_address,t_uint256)"
					}
				],
				"types": {
					"t_address": {
						"encoding": "inplace",
						"label": "address",
						"numberOfBytes": "20"
					},
					"t_bool": {
						"encoding": "inplace",
						"label": "bool",
						"numberOfBytes": "1"
					},
					"t_mapping(t_address,t_uint256)": {
						"encoding": "mapping",
						"key": "t_address",
						"label": "mapping(address => uint256)",
						"numberOfBytes": "32",
						"value": "t_uint256"
					},
					"t_struct(ThongTinNha)10_storage": {
						"encoding": "inplace",
						"label": "struct HopDongThueCanHo.ThongTinNha",
						"members": [
							{
								"astId": 3,
								"contract": "contracts/RealEstate.sol:HopDongThueCanHo",
								"label": "chuNha",
								"offset": 0,
								"slot": "0",
								"type": "t_address"
							},
							{
								"astId": 5,
								"contract": "contracts/RealEstate.sol:HopDongThueCanHo",
								"label": "chiPhiHangThang",
								"offset": 0,
								"slot": "1",
								"type": "t_uint256"
							},
							{
								"astId": 7,
								"contract": "contracts/RealEstate.sol:HopDongThueCanHo",
								"label": "thoiGianThueThang",
								"offset": 0,
								"slot": "2",
								"type": "t_uint256"
							},
							{
								"astId": 9,
								"contract": "contracts/RealEstate.sol:HopDongThueCanHo",
								"label": "hopDongDuocKy",
								"offset": 0,
								"slot": "3",
								"type": "t_bool"
							}
						],
						"numberOfBytes": "128"
					},
					"t_struct(ThongTinThue)19_storage": {
						"encoding": "inplace",
						"label": "struct HopDongThueCanHo.ThongTinThue",
						"members": [
							{
								"astId": 12,
								"contract": "contracts/RealEstate.sol:HopDongThueCanHo",
								"label": "nguoiThue",
								"offset": 0,
								"slot": "0",
								"type": "t_address"
							},
							{
								"astId": 14,
								"contract": "contracts/RealEstate.sol:HopDongThueCanHo",
								"label": "thoiDiemBatDau",
								"offset": 0,
								"slot": "1",
								"type": "t_uint256"
							},
							{
								"astId": 16,
								"contract": "contracts/RealEstate.sol:HopDongThueCanHo",
								"label": "soThangDaThanhToan",
								"offset": 0,
								"slot": "2",
								"type": "t_uint256"
							},
							{
								"astId": 18,
								"contract": "contracts/RealEstate.sol:HopDongThueCanHo",
								"label": "thoiDiemKetThuc",
								"offset": 0,
								"slot": "3",
								"type": "t_uint256"
							}
						],
						"numberOfBytes": "128"
					},
					"t_uint256": {
						"encoding": "inplace",
						"label": "uint256",
						"numberOfBytes": "32"
					}
				}
			},
			"userdoc": {
				"kind": "user",
				"methods": {},
				"version": 1
			}
		}
	}
}