{
	"contracts/RealEstate.sol": {
		"RealEstate": {
			"abi": [
				{
					"inputs": [
						{
							"internalType": "string",
							"name": "_name",
							"type": "string"
						},
						{
							"internalType": "string",
							"name": "_location",
							"type": "string"
						},
						{
							"internalType": "uint256",
							"name": "_rentPrice",
							"type": "uint256"
						},
						{
							"internalType": "uint256",
							"name": "_deposit",
							"type": "uint256"
						}
					],
					"name": "addProperty",
					"outputs": [],
					"stateMutability": "nonpayable",
					"type": "function"
				},
				{
					"inputs": [
						{
							"internalType": "uint256",
							"name": "_propertyId",
							"type": "uint256"
						}
					],
					"name": "endRental",
					"outputs": [],
					"stateMutability": "nonpayable",
					"type": "function"
				},
				{
					"inputs": [
						{
							"internalType": "uint256",
							"name": "_propertyId",
							"type": "uint256"
						}
					],
					"name": "getProperty",
					"outputs": [
						{
							"internalType": "uint256",
							"name": "",
							"type": "uint256"
						},
						{
							"internalType": "string",
							"name": "",
							"type": "string"
						},
						{
							"internalType": "string",
							"name": "",
							"type": "string"
						},
						{
							"internalType": "address",
							"name": "",
							"type": "address"
						},
						{
							"internalType": "address",
							"name": "",
							"type": "address"
						},
						{
							"internalType": "uint256",
							"name": "",
							"type": "uint256"
						},
						{
							"internalType": "uint256",
							"name": "",
							"type": "uint256"
						},
						{
							"internalType": "enum RealEstate.Status",
							"name": "",
							"type": "uint8"
						}
					],
					"stateMutability": "view",
					"type": "function"
				},
				{
					"inputs": [
						{
							"internalType": "uint256",
							"name": "_propertyId",
							"type": "uint256"
						}
					],
					"name": "payRent",
					"outputs": [],
					"stateMutability": "payable",
					"type": "function"
				},
				{
					"inputs": [
						{
							"internalType": "uint256",
							"name": "",
							"type": "uint256"
						}
					],
					"name": "properties",
					"outputs": [
						{
							"internalType": "uint256",
							"name": "id",
							"type": "uint256"
						},
						{
							"internalType": "string",
							"name": "name",
							"type": "string"
						},
						{
							"internalType": "string",
							"name": "location",
							"type": "string"
						},
						{
							"internalType": "address payable",
							"name": "owner",
							"type": "address"
						},
						{
							"internalType": "address",
							"name": "renter",
							"type": "address"
						},
						{
							"internalType": "uint256",
							"name": "rentPrice",
							"type": "uint256"
						},
						{
							"internalType": "uint256",
							"name": "deposit",
							"type": "uint256"
						},
						{
							"internalType": "uint256",
							"name": "lastPaid",
							"type": "uint256"
						},
						{
							"internalType": "enum RealEstate.Status",
							"name": "status",
							"type": "uint8"
						}
					],
					"stateMutability": "view",
					"type": "function"
				},
				{
					"inputs": [],
					"name": "propertyCount",
					"outputs": [
						{
							"internalType": "uint256",
							"name": "",
							"type": "uint256"
						}
					],
					"stateMutability": "view",
					"type": "function"
				},
				{
					"inputs": [
						{
							"internalType": "uint256",
							"name": "_propertyId",
							"type": "uint256"
						}
					],
					"name": "rentProperty",
					"outputs": [],
					"stateMutability": "payable",
					"type": "function"
				},
				{
					"inputs": [
						{
							"internalType": "uint256",
							"name": "_propertyId",
							"type": "uint256"
						},
						{
							"internalType": "uint256",
							"name": "_newRentPrice",
							"type": "uint256"
						}
					],
					"name": "updateRentPrice",
					"outputs": [],
					"stateMutability": "nonpayable",
					"type": "function"
				},
				{
					"inputs": [],
					"name": "withdrawBalance",
					"outputs": [],
					"stateMutability": "nonpayable",
					"type": "function"
				}
			],
			"devdoc": {
				"kind": "dev",
				"methods": {},
				"title": "Real Estate Smart Contract - Track Property Details and Renting with Deposits and Late Fees",
				"version": 1
			},
			"evm": {
				"assembly": "    /* \"contracts/RealEstate.sol\":161:5116  contract RealEstate {... */\n  mstore(0x40, 0x80)\n    /* \"contracts/RealEstate.sol\":218:219  0 */\n  0x00\n    /* \"contracts/RealEstate.sol\":187:219  uint256 public propertyCount = 0 */\n  dup1\n  sstore\n    /* \"contracts/RealEstate.sol\":161:5116  contract RealEstate {... */\n  callvalue\n  dup1\n  iszero\n  tag_1\n  jumpi\n  0x00\n  dup1\n  revert\ntag_1:\n  pop\n  dataSize(sub_0)\n  dup1\n  dataOffset(sub_0)\n  0x00\n  codecopy\n  0x00\n  return\nstop\n\nsub_0: assembly {\n        /* \"contracts/RealEstate.sol\":161:5116  contract RealEstate {... */\n      mstore(0x40, 0x80)\n      jumpi(tag_1, lt(calldatasize, 0x04))\n      shr(0xe0, calldataload(0x00))\n      dup1\n      0x97491d6f\n      gt\n      tag_11\n      jumpi\n      dup1\n      0x97491d6f\n      eq\n      tag_6\n      jumpi\n      dup1\n      0x9d36ab6c\n      eq\n      tag_7\n      jumpi\n      dup1\n      0xc361a335\n      eq\n      tag_8\n      jumpi\n      dup1\n      0xd9e8843f\n      eq\n      tag_9\n      jumpi\n      dup1\n      0xf7b10808\n      eq\n      tag_10\n      jumpi\n      jump(tag_1)\n    tag_11:\n      dup1\n      0x32665ffb\n      eq\n      tag_2\n      jumpi\n      dup1\n      0x4feb2982\n      eq\n      tag_3\n      jumpi\n      dup1\n      0x55ecd14c\n      eq\n      tag_4\n      jumpi\n      dup1\n      0x5fd8c710\n      eq\n      tag_5\n      jumpi\n    tag_1:\n      0x00\n      dup1\n      revert\n        /* \"contracts/RealEstate.sol\":3980:4549  function getProperty(uint256 _propertyId)... */\n    tag_2:\n      callvalue\n      dup1\n      iszero\n      tag_12\n      jumpi\n      0x00\n      dup1\n      revert\n    tag_12:\n      pop\n      tag_13\n      0x04\n      dup1\n      calldatasize\n      sub\n      dup2\n      add\n      swap1\n      tag_14\n      swap2\n      swap1\n      tag_15\n      jump\t// in\n    tag_14:\n      tag_16\n      jump\t// in\n    tag_13:\n      mload(0x40)\n      tag_17\n      swap9\n      swap8\n      swap7\n      swap6\n      swap5\n      swap4\n      swap3\n      swap2\n      swap1\n      tag_18\n      jump\t// in\n    tag_17:\n      mload(0x40)\n      dup1\n      swap2\n      sub\n      swap1\n      return\n        /* \"contracts/RealEstate.sol\":4644:4867  function updateRentPrice(uint256 _propertyId, uint256 _newRentPrice)... */\n    tag_3:\n      callvalue\n      dup1\n      iszero\n      tag_19\n      jumpi\n      0x00\n      dup1\n      revert\n    tag_19:\n      pop\n      tag_20\n      0x04\n      dup1\n      calldatasize\n      sub\n      dup2\n      add\n      swap1\n      tag_21\n      swap2\n      swap1\n      tag_22\n      jump\t// in\n    tag_21:\n      tag_23\n      jump\t// in\n    tag_20:\n      stop\n        /* \"contracts/RealEstate.sol\":1601:2131  function addProperty(... */\n    tag_4:\n      callvalue\n      dup1\n      iszero\n      tag_24\n      jumpi\n      0x00\n      dup1\n      revert\n    tag_24:\n      pop\n      tag_25\n      0x04\n      dup1\n      calldatasize\n      sub\n      dup2\n      add\n      swap1\n      tag_26\n      swap2\n      swap1\n      tag_27\n      jump\t// in\n    tag_26:\n      tag_28\n      jump\t// in\n    tag_25:\n      stop\n        /* \"contracts/RealEstate.sol\":4873:5114  function withdrawBalance() public {... */\n    tag_5:\n      callvalue\n      dup1\n      iszero\n      tag_29\n      jumpi\n      0x00\n      dup1\n      revert\n    tag_29:\n      pop\n      tag_30\n      tag_31\n      jump\t// in\n    tag_30:\n      stop\n        /* \"contracts/RealEstate.sol\":2823:3379  function endRental(uint256 _propertyId) public onlyWhenRented(_propertyId) {... */\n    tag_6:\n      callvalue\n      dup1\n      iszero\n      tag_32\n      jumpi\n      0x00\n      dup1\n      revert\n    tag_32:\n      pop\n      tag_33\n      0x04\n      dup1\n      calldatasize\n      sub\n      dup2\n      add\n      swap1\n      tag_34\n      swap2\n      swap1\n      tag_15\n      jump\t// in\n    tag_34:\n      tag_35\n      jump\t// in\n    tag_33:\n      stop\n        /* \"contracts/RealEstate.sol\":2137:2817  function rentProperty(uint256 _propertyId)... */\n    tag_7:\n      tag_36\n      0x04\n      dup1\n      calldatasize\n      sub\n      dup2\n      add\n      swap1\n      tag_37\n      swap2\n      swap1\n      tag_15\n      jump\t// in\n    tag_37:\n      tag_38\n      jump\t// in\n    tag_36:\n      stop\n        /* \"contracts/RealEstate.sol\":187:219  uint256 public propertyCount = 0 */\n    tag_8:\n      callvalue\n      dup1\n      iszero\n      tag_39\n      jumpi\n      0x00\n      dup1\n      revert\n    tag_39:\n      pop\n      tag_40\n      tag_41\n      jump\t// in\n    tag_40:\n      mload(0x40)\n      tag_42\n      swap2\n      swap1\n      tag_43\n      jump\t// in\n    tag_42:\n      mload(0x40)\n      dup1\n      swap2\n      sub\n      swap1\n      return\n        /* \"contracts/RealEstate.sol\":3385:3974  function payRent(uint256 _propertyId)... */\n    tag_9:\n      tag_44\n      0x04\n      dup1\n      calldatasize\n      sub\n      dup2\n      add\n      swap1\n      tag_45\n      swap2\n      swap1\n      tag_15\n      jump\t// in\n    tag_45:\n      tag_46\n      jump\t// in\n    tag_44:\n      stop\n        /* \"contracts/RealEstate.sol\":536:582  mapping(uint256 => Property) public properties */\n    tag_10:\n      callvalue\n      dup1\n      iszero\n      tag_47\n      jumpi\n      0x00\n      dup1\n      revert\n    tag_47:\n      pop\n      tag_48\n      0x04\n      dup1\n      calldatasize\n      sub\n      dup2\n      add\n      swap1\n      tag_49\n      swap2\n      swap1\n      tag_15\n      jump\t// in\n    tag_49:\n      tag_50\n      jump\t// in\n    tag_48:\n      mload(0x40)\n      tag_51\n      swap10\n      swap9\n      swap8\n      swap7\n      swap6\n      swap5\n      swap4\n      swap3\n      swap2\n      swap1\n      tag_52\n      jump\t// in\n    tag_51:\n      mload(0x40)\n      dup1\n      swap2\n      sub\n      swap1\n      return\n        /* \"contracts/RealEstate.sol\":3980:4549  function getProperty(uint256 _propertyId)... */\n    tag_16:\n        /* \"contracts/RealEstate.sol\":4080:4087  uint256 */\n      0x00\n        /* \"contracts/RealEstate.sol\":4101:4114  string memory */\n      0x60\n        /* \"contracts/RealEstate.sol\":4128:4141  string memory */\n      dup1\n        /* \"contracts/RealEstate.sol\":4155:4162  address */\n      0x00\n        /* \"contracts/RealEstate.sol\":4176:4183  address */\n      dup1\n        /* \"contracts/RealEstate.sol\":4197:4204  uint256 */\n      0x00\n        /* \"contracts/RealEstate.sol\":4218:4225  uint256 */\n      dup1\n        /* \"contracts/RealEstate.sol\":4239:4245  Status */\n      0x00\n        /* \"contracts/RealEstate.sol\":4270:4290  Property memory prop */\n      dup1\n        /* \"contracts/RealEstate.sol\":4293:4303  properties */\n      0x01\n        /* \"contracts/RealEstate.sol\":4293:4316  properties[_propertyId] */\n      0x00\n        /* \"contracts/RealEstate.sol\":4304:4315  _propertyId */\n      dup12\n        /* \"contracts/RealEstate.sol\":4293:4316  properties[_propertyId] */\n      dup2\n      mstore\n      0x20\n      add\n      swap1\n      dup2\n      mstore\n      0x20\n      add\n      0x00\n      keccak256\n        /* \"contracts/RealEstate.sol\":4270:4316  Property memory prop = properties[_propertyId] */\n      mload(0x40)\n      dup1\n      0x0120\n      add\n      0x40\n      mstore\n      swap1\n      dup2\n      0x00\n      dup3\n      add\n      sload\n      dup2\n      mstore\n      0x20\n      add\n      0x01\n      dup3\n      add\n      dup1\n      sload\n      tag_54\n      swap1\n      tag_55\n      jump\t// in\n    tag_54:\n      dup1\n      0x1f\n      add\n      0x20\n      dup1\n      swap2\n      div\n      mul\n      0x20\n      add\n      mload(0x40)\n      swap1\n      dup2\n      add\n      0x40\n      mstore\n      dup1\n      swap3\n      swap2\n      swap1\n      dup2\n      dup2\n      mstore\n      0x20\n      add\n      dup3\n      dup1\n      sload\n      tag_56\n      swap1\n      tag_55\n      jump\t// in\n    tag_56:\n      dup1\n      iszero\n      tag_57\n      jumpi\n      dup1\n      0x1f\n      lt\n      tag_58\n      jumpi\n      0x0100\n      dup1\n      dup4\n      sload\n      div\n      mul\n      dup4\n      mstore\n      swap2\n      0x20\n      add\n      swap2\n      jump(tag_57)\n    tag_58:\n      dup3\n      add\n      swap2\n      swap1\n      0x00\n      mstore\n      keccak256(0x00, 0x20)\n      swap1\n    tag_59:\n      dup2\n      sload\n      dup2\n      mstore\n      swap1\n      0x01\n      add\n      swap1\n      0x20\n      add\n      dup1\n      dup4\n      gt\n      tag_59\n      jumpi\n      dup3\n      swap1\n      sub\n      0x1f\n      and\n      dup3\n      add\n      swap2\n    tag_57:\n      pop\n      pop\n      pop\n      pop\n      pop\n      dup2\n      mstore\n      0x20\n      add\n      0x02\n      dup3\n      add\n      dup1\n      sload\n      tag_60\n      swap1\n      tag_55\n      jump\t// in\n    tag_60:\n      dup1\n      0x1f\n      add\n      0x20\n      dup1\n      swap2\n      div\n      mul\n      0x20\n      add\n      mload(0x40)\n      swap1\n      dup2\n      add\n      0x40\n      mstore\n      dup1\n      swap3\n      swap2\n      swap1\n      dup2\n      dup2\n      mstore\n      0x20\n      add\n      dup3\n      dup1\n      sload\n      tag_61\n      swap1\n      tag_55\n      jump\t// in\n    tag_61:\n      dup1\n      iszero\n      tag_62\n      jumpi\n      dup1\n      0x1f\n      lt\n      tag_63\n      jumpi\n      0x0100\n      dup1\n      dup4\n      sload\n      div\n      mul\n      dup4\n      mstore\n      swap2\n      0x20\n      add\n      swap2\n      jump(tag_62)\n    tag_63:\n      dup3\n      add\n      swap2\n      swap1\n      0x00\n      mstore\n      keccak256(0x00, 0x20)\n      swap1\n    tag_64:\n      dup2\n      sload\n      dup2\n      mstore\n      swap1\n      0x01\n      add\n      swap1\n      0x20\n      add\n      dup1\n      dup4\n      gt\n      tag_64\n      jumpi\n      dup3\n      swap1\n      sub\n      0x1f\n      and\n      dup3\n      add\n      swap2\n    tag_62:\n      pop\n      pop\n      pop\n      pop\n      pop\n      dup2\n      mstore\n      0x20\n      add\n      0x03\n      dup3\n      add\n      0x00\n      swap1\n      sload\n      swap1\n      0x0100\n      exp\n      swap1\n      div\n      0xffffffffffffffffffffffffffffffffffffffff\n      and\n      0xffffffffffffffffffffffffffffffffffffffff\n      and\n      0xffffffffffffffffffffffffffffffffffffffff\n      and\n      dup2\n      mstore\n      0x20\n      add\n      0x04\n      dup3\n      add\n      0x00\n      swap1\n      sload\n      swap1\n      0x0100\n      exp\n      swap1\n      div\n      0xffffffffffffffffffffffffffffffffffffffff\n      and\n      0xffffffffffffffffffffffffffffffffffffffff\n      and\n      0xffffffffffffffffffffffffffffffffffffffff\n      and\n      dup2\n      mstore\n      0x20\n      add\n      0x05\n      dup3\n      add\n      sload\n      dup2\n      mstore\n      0x20\n      add\n      0x06\n      dup3\n      add\n      sload\n      dup2\n      mstore\n      0x20\n      add\n      0x07\n      dup3\n      add\n      sload\n      dup2\n      mstore\n      0x20\n      add\n      0x08\n      dup3\n      add\n      0x00\n      swap1\n      sload\n      swap1\n      0x0100\n      exp\n      swap1\n      div\n      0xff\n      and\n      0x01\n      dup2\n      gt\n      iszero\n      tag_65\n      jumpi\n      tag_66\n      tag_67\n      jump\t// in\n    tag_66:\n    tag_65:\n      0x01\n      dup2\n      gt\n      iszero\n      tag_68\n      jumpi\n      tag_69\n      tag_67\n      jump\t// in\n    tag_69:\n    tag_68:\n      dup2\n      mstore\n      pop\n      pop\n      swap1\n      pop\n        /* \"contracts/RealEstate.sol\":4347:4351  prop */\n      dup1\n        /* \"contracts/RealEstate.sol\":4347:4354  prop.id */\n      0x00\n      add\n      mload\n        /* \"contracts/RealEstate.sol\":4368:4372  prop */\n      dup2\n        /* \"contracts/RealEstate.sol\":4368:4377  prop.name */\n      0x20\n      add\n      mload\n        /* \"contracts/RealEstate.sol\":4391:4395  prop */\n      dup3\n        /* \"contracts/RealEstate.sol\":4391:4404  prop.location */\n      0x40\n      add\n      mload\n        /* \"contracts/RealEstate.sol\":4418:4422  prop */\n      dup4\n        /* \"contracts/RealEstate.sol\":4418:4428  prop.owner */\n      0x60\n      add\n      mload\n        /* \"contracts/RealEstate.sol\":4442:4446  prop */\n      dup5\n        /* \"contracts/RealEstate.sol\":4442:4453  prop.renter */\n      0x80\n      add\n      mload\n        /* \"contracts/RealEstate.sol\":4467:4471  prop */\n      dup6\n        /* \"contracts/RealEstate.sol\":4467:4481  prop.rentPrice */\n      0xa0\n      add\n      mload\n        /* \"contracts/RealEstate.sol\":4495:4499  prop */\n      dup7\n        /* \"contracts/RealEstate.sol\":4495:4507  prop.deposit */\n      0xc0\n      add\n      mload\n        /* \"contracts/RealEstate.sol\":4521:4525  prop */\n      dup8\n        /* \"contracts/RealEstate.sol\":4521:4532  prop.status */\n      0x0100\n      add\n      mload\n        /* \"contracts/RealEstate.sol\":4326:4542  return (... */\n      swap9\n      pop\n      swap9\n      pop\n      swap9\n      pop\n      swap9\n      pop\n      swap9\n      pop\n      swap9\n      pop\n      swap9\n      pop\n      swap9\n      pop\n      pop\n        /* \"contracts/RealEstate.sol\":3980:4549  function getProperty(uint256 _propertyId)... */\n      swap2\n      swap4\n      swap6\n      swap8\n      pop\n      swap2\n      swap4\n      swap6\n      swap8\n      jump\t// out\n        /* \"contracts/RealEstate.sol\":4644:4867  function updateRentPrice(uint256 _propertyId, uint256 _newRentPrice)... */\n    tag_23:\n        /* \"contracts/RealEstate.sol\":4746:4757  _propertyId */\n      dup2\n        /* \"contracts/RealEstate.sol\":699:709  properties */\n      0x01\n        /* \"contracts/RealEstate.sol\":699:722  properties[_propertyId] */\n      0x00\n        /* \"contracts/RealEstate.sol\":710:721  _propertyId */\n      dup3\n        /* \"contracts/RealEstate.sol\":699:722  properties[_propertyId] */\n      dup2\n      mstore\n      0x20\n      add\n      swap1\n      dup2\n      mstore\n      0x20\n      add\n      0x00\n      keccak256\n        /* \"contracts/RealEstate.sol\":699:728  properties[_propertyId].owner */\n      0x03\n      add\n      0x00\n      swap1\n      sload\n      swap1\n      0x0100\n      exp\n      swap1\n      div\n      0xffffffffffffffffffffffffffffffffffffffff\n      and\n        /* \"contracts/RealEstate.sol\":685:728  msg.sender == properties[_propertyId].owner */\n      0xffffffffffffffffffffffffffffffffffffffff\n      and\n        /* \"contracts/RealEstate.sol\":685:695  msg.sender */\n      caller\n        /* \"contracts/RealEstate.sol\":685:728  msg.sender == properties[_propertyId].owner */\n      0xffffffffffffffffffffffffffffffffffffffff\n      and\n      eq\n        /* \"contracts/RealEstate.sol\":664:772  require(... */\n      tag_71\n      jumpi\n      mload(0x40)\n      0x08c379a000000000000000000000000000000000000000000000000000000000\n      dup2\n      mstore\n      0x04\n      add\n      tag_72\n      swap1\n      tag_73\n      jump\t// in\n    tag_72:\n      mload(0x40)\n      dup1\n      swap2\n      sub\n      swap1\n      revert\n    tag_71:\n        /* \"contracts/RealEstate.sol\":4773:4794  Property storage prop */\n      0x00\n        /* \"contracts/RealEstate.sol\":4797:4807  properties */\n      0x01\n        /* \"contracts/RealEstate.sol\":4797:4820  properties[_propertyId] */\n      0x00\n        /* \"contracts/RealEstate.sol\":4808:4819  _propertyId */\n      dup6\n        /* \"contracts/RealEstate.sol\":4797:4820  properties[_propertyId] */\n      dup2\n      mstore\n      0x20\n      add\n      swap1\n      dup2\n      mstore\n      0x20\n      add\n      0x00\n      keccak256\n        /* \"contracts/RealEstate.sol\":4773:4820  Property storage prop = properties[_propertyId] */\n      swap1\n      pop\n        /* \"contracts/RealEstate.sol\":4847:4860  _newRentPrice */\n      dup3\n        /* \"contracts/RealEstate.sol\":4830:4834  prop */\n      dup2\n        /* \"contracts/RealEstate.sol\":4830:4844  prop.rentPrice */\n      0x05\n      add\n        /* \"contracts/RealEstate.sol\":4830:4860  prop.rentPrice = _newRentPrice */\n      dup2\n      swap1\n      sstore\n      pop\n        /* \"contracts/RealEstate.sol\":4763:4867  {... */\n      pop\n        /* \"contracts/RealEstate.sol\":4644:4867  function updateRentPrice(uint256 _propertyId, uint256 _newRentPrice)... */\n      pop\n      pop\n      pop\n      jump\t// out\n        /* \"contracts/RealEstate.sol\":1601:2131  function addProperty(... */\n    tag_28:\n        /* \"contracts/RealEstate.sol\":1761:1774  propertyCount */\n      0x00\n      dup1\n        /* \"contracts/RealEstate.sol\":1761:1776  propertyCount++ */\n      dup2\n      sload\n      dup1\n      swap3\n      swap2\n      swap1\n      tag_76\n      swap1\n      tag_77\n      jump\t// in\n    tag_76:\n      swap2\n      swap1\n      pop\n      sstore\n      pop\n        /* \"contracts/RealEstate.sol\":1814:2124  Property({... */\n      mload(0x40)\n      dup1\n      0x0120\n      add\n      0x40\n      mstore\n      dup1\n        /* \"contracts/RealEstate.sol\":1841:1854  propertyCount */\n      sload(0x00)\n        /* \"contracts/RealEstate.sol\":1814:2124  Property({... */\n      dup2\n      mstore\n      0x20\n      add\n        /* \"contracts/RealEstate.sol\":1874:1879  _name */\n      dup6\n        /* \"contracts/RealEstate.sol\":1814:2124  Property({... */\n      dup2\n      mstore\n      0x20\n      add\n        /* \"contracts/RealEstate.sol\":1903:1912  _location */\n      dup5\n        /* \"contracts/RealEstate.sol\":1814:2124  Property({... */\n      dup2\n      mstore\n      0x20\n      add\n        /* \"contracts/RealEstate.sol\":1941:1951  msg.sender */\n      caller\n        /* \"contracts/RealEstate.sol\":1814:2124  Property({... */\n      0xffffffffffffffffffffffffffffffffffffffff\n      and\n      dup2\n      mstore\n      0x20\n      add\n        /* \"contracts/RealEstate.sol\":1982:1983  0 */\n      0x00\n        /* \"contracts/RealEstate.sol\":1814:2124  Property({... */\n      0xffffffffffffffffffffffffffffffffffffffff\n      and\n      dup2\n      mstore\n      0x20\n      add\n        /* \"contracts/RealEstate.sol\":2009:2019  _rentPrice */\n      dup4\n        /* \"contracts/RealEstate.sol\":1814:2124  Property({... */\n      dup2\n      mstore\n      0x20\n      add\n        /* \"contracts/RealEstate.sol\":2042:2050  _deposit */\n      dup3\n        /* \"contracts/RealEstate.sol\":1814:2124  Property({... */\n      dup2\n      mstore\n      0x20\n      add\n        /* \"contracts/RealEstate.sol\":2074:2075  0 */\n      0x00\n        /* \"contracts/RealEstate.sol\":1814:2124  Property({... */\n      dup2\n      mstore\n      0x20\n      add\n        /* \"contracts/RealEstate.sol\":2097:2113  Status.Available */\n      0x00\n        /* \"contracts/RealEstate.sol\":1814:2124  Property({... */\n      0x01\n      dup2\n      gt\n      iszero\n      tag_78\n      jumpi\n      tag_79\n      tag_67\n      jump\t// in\n    tag_79:\n    tag_78:\n      dup2\n      mstore\n      pop\n        /* \"contracts/RealEstate.sol\":1786:1796  properties */\n      0x01\n        /* \"contracts/RealEstate.sol\":1786:1811  properties[propertyCount] */\n      0x00\n        /* \"contracts/RealEstate.sol\":1797:1810  propertyCount */\n      dup1\n      sload\n        /* \"contracts/RealEstate.sol\":1786:1811  properties[propertyCount] */\n      dup2\n      mstore\n      0x20\n      add\n      swap1\n      dup2\n      mstore\n      0x20\n      add\n      0x00\n      keccak256\n        /* \"contracts/RealEstate.sol\":1786:2124  properties[propertyCount] = Property({... */\n      0x00\n      dup3\n      add\n      mload\n      dup2\n      0x00\n      add\n      sstore\n      0x20\n      dup3\n      add\n      mload\n      dup2\n      0x01\n      add\n      swap1\n      dup2\n      tag_80\n      swap2\n      swap1\n      tag_81\n      jump\t// in\n    tag_80:\n      pop\n      0x40\n      dup3\n      add\n      mload\n      dup2\n      0x02\n      add\n      swap1\n      dup2\n      tag_82\n      swap2\n      swap1\n      tag_81\n      jump\t// in\n    tag_82:\n      pop\n      0x60\n      dup3\n      add\n      mload\n      dup2\n      0x03\n      add\n      exp(0x0100, 0x00)\n      dup2\n      sload\n      dup2\n      0xffffffffffffffffffffffffffffffffffffffff\n      mul\n      not\n      and\n      swap1\n      dup4\n      0xffffffffffffffffffffffffffffffffffffffff\n      and\n      mul\n      or\n      swap1\n      sstore\n      pop\n      0x80\n      dup3\n      add\n      mload\n      dup2\n      0x04\n      add\n      exp(0x0100, 0x00)\n      dup2\n      sload\n      dup2\n      0xffffffffffffffffffffffffffffffffffffffff\n      mul\n      not\n      and\n      swap1\n      dup4\n      0xffffffffffffffffffffffffffffffffffffffff\n      and\n      mul\n      or\n      swap1\n      sstore\n      pop\n      0xa0\n      dup3\n      add\n      mload\n      dup2\n      0x05\n      add\n      sstore\n      0xc0\n      dup3\n      add\n      mload\n      dup2\n      0x06\n      add\n      sstore\n      0xe0\n      dup3\n      add\n      mload\n      dup2\n      0x07\n      add\n      sstore\n      0x0100\n      dup3\n      add\n      mload\n      dup2\n      0x08\n      add\n      exp(0x0100, 0x00)\n      dup2\n      sload\n      dup2\n      0xff\n      mul\n      not\n      and\n      swap1\n      dup4\n      0x01\n      dup2\n      gt\n      iszero\n      tag_83\n      jumpi\n      tag_84\n      tag_67\n      jump\t// in\n    tag_84:\n    tag_83:\n      mul\n      or\n      swap1\n      sstore\n      pop\n      swap1\n      pop\n      pop\n        /* \"contracts/RealEstate.sol\":1601:2131  function addProperty(... */\n      pop\n      pop\n      pop\n      pop\n      jump\t// out\n        /* \"contracts/RealEstate.sol\":4873:5114  function withdrawBalance() public {... */\n    tag_31:\n        /* \"contracts/RealEstate.sol\":4999:5009  properties */\n      0x01\n        /* \"contracts/RealEstate.sol\":4999:5012  properties[1] */\n      0x00\n        /* \"contracts/RealEstate.sol\":5010:5011  1 */\n      0x01\n        /* \"contracts/RealEstate.sol\":4999:5012  properties[1] */\n      dup2\n      mstore\n      0x20\n      add\n      swap1\n      dup2\n      mstore\n      0x20\n      add\n      0x00\n      keccak256\n        /* \"contracts/RealEstate.sol\":4999:5018  properties[1].owner */\n      0x03\n      add\n      0x00\n      swap1\n      sload\n      swap1\n      0x0100\n      exp\n      swap1\n      div\n      0xffffffffffffffffffffffffffffffffffffffff\n      and\n        /* \"contracts/RealEstate.sol\":4985:5018  msg.sender == properties[1].owner */\n      0xffffffffffffffffffffffffffffffffffffffff\n      and\n        /* \"contracts/RealEstate.sol\":4985:4995  msg.sender */\n      caller\n        /* \"contracts/RealEstate.sol\":4985:5018  msg.sender == properties[1].owner */\n      0xffffffffffffffffffffffffffffffffffffffff\n      and\n      eq\n        /* \"contracts/RealEstate.sol\":4977:5046  require(msg.sender == properties[1].owner, \"Only owner can withdraw\") */\n      tag_86\n      jumpi\n      mload(0x40)\n      0x08c379a000000000000000000000000000000000000000000000000000000000\n      dup2\n      mstore\n      0x04\n      add\n      tag_87\n      swap1\n      tag_88\n      jump\t// in\n    tag_87:\n      mload(0x40)\n      dup1\n      swap2\n      sub\n      swap1\n      revert\n    tag_86:\n        /* \"contracts/RealEstate.sol\":5064:5074  msg.sender */\n      caller\n        /* \"contracts/RealEstate.sol\":5056:5084  payable(msg.sender).transfer */\n      0xffffffffffffffffffffffffffffffffffffffff\n      and\n        /* \"contracts/RealEstate.sol\":5056:5107  payable(msg.sender).transfer(address(this).balance) */\n      0x08fc\n        /* \"contracts/RealEstate.sol\":5085:5106  address(this).balance */\n      selfbalance\n        /* \"contracts/RealEstate.sol\":5056:5107  payable(msg.sender).transfer(address(this).balance) */\n      swap1\n      dup2\n      iszero\n      mul\n      swap1\n      mload(0x40)\n      0x00\n      mload(0x40)\n      dup1\n      dup4\n      sub\n      dup2\n      dup6\n      dup9\n      dup9\n      call\n      swap4\n      pop\n      pop\n      pop\n      pop\n      iszero\n      dup1\n      iszero\n      tag_90\n      jumpi\n      returndatasize\n      0x00\n      dup1\n      returndatacopy\n      revert(0x00, returndatasize)\n    tag_90:\n      pop\n        /* \"contracts/RealEstate.sol\":4873:5114  function withdrawBalance() public {... */\n      jump\t// out\n        /* \"contracts/RealEstate.sol\":2823:3379  function endRental(uint256 _propertyId) public onlyWhenRented(_propertyId) {... */\n    tag_35:\n        /* \"contracts/RealEstate.sol\":2885:2896  _propertyId */\n      dup1\n        /* \"contracts/RealEstate.sol\":1099:1112  Status.Rented */\n      0x01\n        /* \"contracts/RealEstate.sol\":1065:1112  properties[_propertyId].status == Status.Rented */\n      dup1\n      dup2\n      gt\n      iszero\n      tag_92\n      jumpi\n      tag_93\n      tag_67\n      jump\t// in\n    tag_93:\n    tag_92:\n        /* \"contracts/RealEstate.sol\":1065:1075  properties */\n      0x01\n        /* \"contracts/RealEstate.sol\":1065:1088  properties[_propertyId] */\n      0x00\n        /* \"contracts/RealEstate.sol\":1076:1087  _propertyId */\n      dup4\n        /* \"contracts/RealEstate.sol\":1065:1088  properties[_propertyId] */\n      dup2\n      mstore\n      0x20\n      add\n      swap1\n      dup2\n      mstore\n      0x20\n      add\n      0x00\n      keccak256\n        /* \"contracts/RealEstate.sol\":1065:1095  properties[_propertyId].status */\n      0x08\n      add\n      0x00\n      swap1\n      sload\n      swap1\n      0x0100\n      exp\n      swap1\n      div\n      0xff\n      and\n        /* \"contracts/RealEstate.sol\":1065:1112  properties[_propertyId].status == Status.Rented */\n      0x01\n      dup2\n      gt\n      iszero\n      tag_94\n      jumpi\n      tag_95\n      tag_67\n      jump\t// in\n    tag_95:\n    tag_94:\n      eq\n        /* \"contracts/RealEstate.sol\":1044:1160  require(... */\n      tag_96\n      jumpi\n      mload(0x40)\n      0x08c379a000000000000000000000000000000000000000000000000000000000\n      dup2\n      mstore\n      0x04\n      add\n      tag_97\n      swap1\n      tag_98\n      jump\t// in\n    tag_97:\n      mload(0x40)\n      dup1\n      swap2\n      sub\n      swap1\n      revert\n    tag_96:\n        /* \"contracts/RealEstate.sol\":2908:2929  Property storage prop */\n      0x00\n        /* \"contracts/RealEstate.sol\":2932:2942  properties */\n      0x01\n        /* \"contracts/RealEstate.sol\":2932:2955  properties[_propertyId] */\n      0x00\n        /* \"contracts/RealEstate.sol\":2943:2954  _propertyId */\n      dup5\n        /* \"contracts/RealEstate.sol\":2932:2955  properties[_propertyId] */\n      dup2\n      mstore\n      0x20\n      add\n      swap1\n      dup2\n      mstore\n      0x20\n      add\n      0x00\n      keccak256\n        /* \"contracts/RealEstate.sol\":2908:2955  Property storage prop = properties[_propertyId] */\n      swap1\n      pop\n        /* \"contracts/RealEstate.sol\":3000:3004  prop */\n      dup1\n        /* \"contracts/RealEstate.sol\":3000:3010  prop.owner */\n      0x03\n      add\n      0x00\n      swap1\n      sload\n      swap1\n      0x0100\n      exp\n      swap1\n      div\n      0xffffffffffffffffffffffffffffffffffffffff\n      and\n        /* \"contracts/RealEstate.sol\":2986:3010  msg.sender == prop.owner */\n      0xffffffffffffffffffffffffffffffffffffffff\n      and\n        /* \"contracts/RealEstate.sol\":2986:2996  msg.sender */\n      caller\n        /* \"contracts/RealEstate.sol\":2986:3010  msg.sender == prop.owner */\n      0xffffffffffffffffffffffffffffffffffffffff\n      and\n      eq\n        /* \"contracts/RealEstate.sol\":2986:3039  msg.sender == prop.owner || msg.sender == prop.renter */\n      dup1\n      tag_100\n      jumpi\n      pop\n        /* \"contracts/RealEstate.sol\":3028:3032  prop */\n      dup1\n        /* \"contracts/RealEstate.sol\":3028:3039  prop.renter */\n      0x04\n      add\n      0x00\n      swap1\n      sload\n      swap1\n      0x0100\n      exp\n      swap1\n      div\n      0xffffffffffffffffffffffffffffffffffffffff\n      and\n        /* \"contracts/RealEstate.sol\":3014:3039  msg.sender == prop.renter */\n      0xffffffffffffffffffffffffffffffffffffffff\n      and\n        /* \"contracts/RealEstate.sol\":3014:3024  msg.sender */\n      caller\n        /* \"contracts/RealEstate.sol\":3014:3039  msg.sender == prop.renter */\n      0xffffffffffffffffffffffffffffffffffffffff\n      and\n      eq\n        /* \"contracts/RealEstate.sol\":2986:3039  msg.sender == prop.owner || msg.sender == prop.renter */\n    tag_100:\n        /* \"contracts/RealEstate.sol\":2965:3100  require(... */\n      tag_101\n      jumpi\n      mload(0x40)\n      0x08c379a000000000000000000000000000000000000000000000000000000000\n      dup2\n      mstore\n      0x04\n      add\n      tag_102\n      swap1\n      tag_103\n      jump\t// in\n    tag_102:\n      mload(0x40)\n      dup1\n      swap2\n      sub\n      swap1\n      revert\n    tag_101:\n        /* \"contracts/RealEstate.sol\":3129:3133  prop */\n      dup1\n        /* \"contracts/RealEstate.sol\":3129:3139  prop.owner */\n      0x03\n      add\n      0x00\n      swap1\n      sload\n      swap1\n      0x0100\n      exp\n      swap1\n      div\n      0xffffffffffffffffffffffffffffffffffffffff\n      and\n        /* \"contracts/RealEstate.sol\":3115:3139  msg.sender == prop.owner */\n      0xffffffffffffffffffffffffffffffffffffffff\n      and\n        /* \"contracts/RealEstate.sol\":3115:3125  msg.sender */\n      caller\n        /* \"contracts/RealEstate.sol\":3115:3139  msg.sender == prop.owner */\n      0xffffffffffffffffffffffffffffffffffffffff\n      and\n      sub\n        /* \"contracts/RealEstate.sol\":3111:3271  if (msg.sender == prop.owner) {... */\n      tag_104\n      jumpi\n        /* \"contracts/RealEstate.sol\":3225:3229  prop */\n      dup1\n        /* \"contracts/RealEstate.sol\":3225:3236  prop.renter */\n      0x04\n      add\n      0x00\n      swap1\n      sload\n      swap1\n      0x0100\n      exp\n      swap1\n      div\n      0xffffffffffffffffffffffffffffffffffffffff\n      and\n        /* \"contracts/RealEstate.sol\":3217:3246  payable(prop.renter).transfer */\n      0xffffffffffffffffffffffffffffffffffffffff\n      and\n        /* \"contracts/RealEstate.sol\":3217:3260  payable(prop.renter).transfer(prop.deposit) */\n      0x08fc\n        /* \"contracts/RealEstate.sol\":3247:3251  prop */\n      dup3\n        /* \"contracts/RealEstate.sol\":3247:3259  prop.deposit */\n      0x06\n      add\n      sload\n        /* \"contracts/RealEstate.sol\":3217:3260  payable(prop.renter).transfer(prop.deposit) */\n      swap1\n      dup2\n      iszero\n      mul\n      swap1\n      mload(0x40)\n      0x00\n      mload(0x40)\n      dup1\n      dup4\n      sub\n      dup2\n      dup6\n      dup9\n      dup9\n      call\n      swap4\n      pop\n      pop\n      pop\n      pop\n      iszero\n      dup1\n      iszero\n      tag_106\n      jumpi\n      returndatasize\n      0x00\n      dup1\n      returndatacopy\n      revert(0x00, returndatasize)\n    tag_106:\n      pop\n        /* \"contracts/RealEstate.sol\":3111:3271  if (msg.sender == prop.owner) {... */\n    tag_104:\n        /* \"contracts/RealEstate.sol\":3303:3304  0 */\n      0x00\n        /* \"contracts/RealEstate.sol\":3281:3285  prop */\n      dup2\n        /* \"contracts/RealEstate.sol\":3281:3292  prop.renter */\n      0x04\n      add\n      0x00\n        /* \"contracts/RealEstate.sol\":3281:3305  prop.renter = address(0) */\n      0x0100\n      exp\n      dup2\n      sload\n      dup2\n      0xffffffffffffffffffffffffffffffffffffffff\n      mul\n      not\n      and\n      swap1\n      dup4\n      0xffffffffffffffffffffffffffffffffffffffff\n      and\n      mul\n      or\n      swap1\n      sstore\n      pop\n        /* \"contracts/RealEstate.sol\":3329:3345  Status.Available */\n      0x00\n        /* \"contracts/RealEstate.sol\":3315:3319  prop */\n      dup2\n        /* \"contracts/RealEstate.sol\":3315:3326  prop.status */\n      0x08\n      add\n      0x00\n        /* \"contracts/RealEstate.sol\":3315:3345  prop.status = Status.Available */\n      0x0100\n      exp\n      dup2\n      sload\n      dup2\n      0xff\n      mul\n      not\n      and\n      swap1\n      dup4\n      0x01\n      dup2\n      gt\n      iszero\n      tag_107\n      jumpi\n      tag_108\n      tag_67\n      jump\t// in\n    tag_108:\n    tag_107:\n      mul\n      or\n      swap1\n      sstore\n      pop\n        /* \"contracts/RealEstate.sol\":3371:3372  0 */\n      0x00\n        /* \"contracts/RealEstate.sol\":3355:3359  prop */\n      dup2\n        /* \"contracts/RealEstate.sol\":3355:3368  prop.lastPaid */\n      0x07\n      add\n        /* \"contracts/RealEstate.sol\":3355:3372  prop.lastPaid = 0 */\n      dup2\n      swap1\n      sstore\n      pop\n        /* \"contracts/RealEstate.sol\":2898:3379  {... */\n      pop\n        /* \"contracts/RealEstate.sol\":2823:3379  function endRental(uint256 _propertyId) public onlyWhenRented(_propertyId) {... */\n      pop\n      pop\n      jump\t// out\n        /* \"contracts/RealEstate.sol\":2137:2817  function rentProperty(uint256 _propertyId)... */\n    tag_38:\n        /* \"contracts/RealEstate.sol\":2237:2248  _propertyId */\n      dup1\n        /* \"contracts/RealEstate.sol\":1297:1313  Status.Available */\n      0x00\n        /* \"contracts/RealEstate.sol\":1263:1313  properties[_propertyId].status == Status.Available */\n      0x01\n      dup2\n      gt\n      iszero\n      tag_110\n      jumpi\n      tag_111\n      tag_67\n      jump\t// in\n    tag_111:\n    tag_110:\n        /* \"contracts/RealEstate.sol\":1263:1273  properties */\n      0x01\n        /* \"contracts/RealEstate.sol\":1263:1286  properties[_propertyId] */\n      0x00\n        /* \"contracts/RealEstate.sol\":1274:1285  _propertyId */\n      dup4\n        /* \"contracts/RealEstate.sol\":1263:1286  properties[_propertyId] */\n      dup2\n      mstore\n      0x20\n      add\n      swap1\n      dup2\n      mstore\n      0x20\n      add\n      0x00\n      keccak256\n        /* \"contracts/RealEstate.sol\":1263:1293  properties[_propertyId].status */\n      0x08\n      add\n      0x00\n      swap1\n      sload\n      swap1\n      0x0100\n      exp\n      swap1\n      div\n      0xff\n      and\n        /* \"contracts/RealEstate.sol\":1263:1313  properties[_propertyId].status == Status.Available */\n      0x01\n      dup2\n      gt\n      iszero\n      tag_112\n      jumpi\n      tag_113\n      tag_67\n      jump\t// in\n    tag_113:\n    tag_112:\n      eq\n        /* \"contracts/RealEstate.sol\":1242:1364  require(... */\n      tag_114\n      jumpi\n      mload(0x40)\n      0x08c379a000000000000000000000000000000000000000000000000000000000\n      dup2\n      mstore\n      0x04\n      add\n      tag_115\n      swap1\n      tag_116\n      jump\t// in\n    tag_115:\n      mload(0x40)\n      dup1\n      swap2\n      sub\n      swap1\n      revert\n    tag_114:\n        /* \"contracts/RealEstate.sol\":2264:2285  Property storage prop */\n      0x00\n        /* \"contracts/RealEstate.sol\":2288:2298  properties */\n      0x01\n        /* \"contracts/RealEstate.sol\":2288:2311  properties[_propertyId] */\n      0x00\n        /* \"contracts/RealEstate.sol\":2299:2310  _propertyId */\n      dup5\n        /* \"contracts/RealEstate.sol\":2288:2311  properties[_propertyId] */\n      dup2\n      mstore\n      0x20\n      add\n      swap1\n      dup2\n      mstore\n      0x20\n      add\n      0x00\n      keccak256\n        /* \"contracts/RealEstate.sol\":2264:2311  Property storage prop = properties[_propertyId] */\n      swap1\n      pop\n        /* \"contracts/RealEstate.sol\":2356:2360  prop */\n      dup1\n        /* \"contracts/RealEstate.sol\":2356:2366  prop.owner */\n      0x03\n      add\n      0x00\n      swap1\n      sload\n      swap1\n      0x0100\n      exp\n      swap1\n      div\n      0xffffffffffffffffffffffffffffffffffffffff\n      and\n        /* \"contracts/RealEstate.sol\":2342:2366  msg.sender != prop.owner */\n      0xffffffffffffffffffffffffffffffffffffffff\n      and\n        /* \"contracts/RealEstate.sol\":2342:2352  msg.sender */\n      caller\n        /* \"contracts/RealEstate.sol\":2342:2366  msg.sender != prop.owner */\n      0xffffffffffffffffffffffffffffffffffffffff\n      and\n      sub\n        /* \"contracts/RealEstate.sol\":2321:2428  require(... */\n      tag_118\n      jumpi\n      mload(0x40)\n      0x08c379a000000000000000000000000000000000000000000000000000000000\n      dup2\n      mstore\n      0x04\n      add\n      tag_119\n      swap1\n      tag_120\n      jump\t// in\n    tag_119:\n      mload(0x40)\n      dup1\n      swap2\n      sub\n      swap1\n      revert\n    tag_118:\n        /* \"contracts/RealEstate.sol\":2489:2493  prop */\n      dup1\n        /* \"contracts/RealEstate.sol\":2489:2501  prop.deposit */\n      0x06\n      add\n      sload\n        /* \"contracts/RealEstate.sol\":2472:2476  prop */\n      dup2\n        /* \"contracts/RealEstate.sol\":2472:2486  prop.rentPrice */\n      0x05\n      add\n      sload\n        /* \"contracts/RealEstate.sol\":2472:2501  prop.rentPrice + prop.deposit */\n      tag_121\n      swap2\n      swap1\n      tag_122\n      jump\t// in\n    tag_121:\n        /* \"contracts/RealEstate.sol\":2459:2468  msg.value */\n      callvalue\n        /* \"contracts/RealEstate.sol\":2459:2501  msg.value >= prop.rentPrice + prop.deposit */\n      lt\n      iszero\n        /* \"contracts/RealEstate.sol\":2438:2562  require(... */\n      tag_123\n      jumpi\n      mload(0x40)\n      0x08c379a000000000000000000000000000000000000000000000000000000000\n      dup2\n      mstore\n      0x04\n      add\n      tag_124\n      swap1\n      tag_125\n      jump\t// in\n    tag_124:\n      mload(0x40)\n      dup1\n      swap2\n      sub\n      swap1\n      revert\n    tag_123:\n        /* \"contracts/RealEstate.sol\":2587:2597  msg.sender */\n      caller\n        /* \"contracts/RealEstate.sol\":2573:2577  prop */\n      dup2\n        /* \"contracts/RealEstate.sol\":2573:2584  prop.renter */\n      0x04\n      add\n      0x00\n        /* \"contracts/RealEstate.sol\":2573:2597  prop.renter = msg.sender */\n      0x0100\n      exp\n      dup2\n      sload\n      dup2\n      0xffffffffffffffffffffffffffffffffffffffff\n      mul\n      not\n      and\n      swap1\n      dup4\n      0xffffffffffffffffffffffffffffffffffffffff\n      and\n      mul\n      or\n      swap1\n      sstore\n      pop\n        /* \"contracts/RealEstate.sol\":2621:2634  Status.Rented */\n      0x01\n        /* \"contracts/RealEstate.sol\":2607:2611  prop */\n      dup2\n        /* \"contracts/RealEstate.sol\":2607:2618  prop.status */\n      0x08\n      add\n      0x00\n        /* \"contracts/RealEstate.sol\":2607:2634  prop.status = Status.Rented */\n      0x0100\n      exp\n      dup2\n      sload\n      dup2\n      0xff\n      mul\n      not\n      and\n      swap1\n      dup4\n      0x01\n      dup2\n      gt\n      iszero\n      tag_126\n      jumpi\n      tag_127\n      tag_67\n      jump\t// in\n    tag_127:\n    tag_126:\n      mul\n      or\n      swap1\n      sstore\n      pop\n        /* \"contracts/RealEstate.sol\":2660:2675  block.timestamp */\n      timestamp\n        /* \"contracts/RealEstate.sol\":2644:2648  prop */\n      dup2\n        /* \"contracts/RealEstate.sol\":2644:2657  prop.lastPaid */\n      0x07\n      add\n        /* \"contracts/RealEstate.sol\":2644:2675  prop.lastPaid = block.timestamp */\n      dup2\n      swap1\n      sstore\n      pop\n        /* \"contracts/RealEstate.sol\":2732:2736  prop */\n      dup1\n        /* \"contracts/RealEstate.sol\":2732:2742  prop.owner */\n      0x03\n      add\n      0x00\n      swap1\n      sload\n      swap1\n      0x0100\n      exp\n      swap1\n      div\n      0xffffffffffffffffffffffffffffffffffffffff\n      and\n        /* \"contracts/RealEstate.sol\":2732:2751  prop.owner.transfer */\n      0xffffffffffffffffffffffffffffffffffffffff\n      and\n        /* \"contracts/RealEstate.sol\":2732:2767  prop.owner.transfer(prop.rentPrice) */\n      0x08fc\n        /* \"contracts/RealEstate.sol\":2752:2756  prop */\n      dup3\n        /* \"contracts/RealEstate.sol\":2752:2766  prop.rentPrice */\n      0x05\n      add\n      sload\n        /* \"contracts/RealEstate.sol\":2732:2767  prop.owner.transfer(prop.rentPrice) */\n      swap1\n      dup2\n      iszero\n      mul\n      swap1\n      mload(0x40)\n      0x00\n      mload(0x40)\n      dup1\n      dup4\n      sub\n      dup2\n      dup6\n      dup9\n      dup9\n      call\n      swap4\n      pop\n      pop\n      pop\n      pop\n      iszero\n      dup1\n      iszero\n      tag_129\n      jumpi\n      returndatasize\n      0x00\n      dup1\n      returndatacopy\n      revert(0x00, returndatasize)\n    tag_129:\n      pop\n        /* \"contracts/RealEstate.sol\":2777:2781  prop */\n      dup1\n        /* \"contracts/RealEstate.sol\":2777:2787  prop.owner */\n      0x03\n      add\n      0x00\n      swap1\n      sload\n      swap1\n      0x0100\n      exp\n      swap1\n      div\n      0xffffffffffffffffffffffffffffffffffffffff\n      and\n        /* \"contracts/RealEstate.sol\":2777:2796  prop.owner.transfer */\n      0xffffffffffffffffffffffffffffffffffffffff\n      and\n        /* \"contracts/RealEstate.sol\":2777:2810  prop.owner.transfer(prop.deposit) */\n      0x08fc\n        /* \"contracts/RealEstate.sol\":2797:2801  prop */\n      dup3\n        /* \"contracts/RealEstate.sol\":2797:2809  prop.deposit */\n      0x06\n      add\n      sload\n        /* \"contracts/RealEstate.sol\":2777:2810  prop.owner.transfer(prop.deposit) */\n      swap1\n      dup2\n      iszero\n      mul\n      swap1\n      mload(0x40)\n      0x00\n      mload(0x40)\n      dup1\n      dup4\n      sub\n      dup2\n      dup6\n      dup9\n      dup9\n      call\n      swap4\n      pop\n      pop\n      pop\n      pop\n      iszero\n      dup1\n      iszero\n      tag_131\n      jumpi\n      returndatasize\n      0x00\n      dup1\n      returndatacopy\n      revert(0x00, returndatasize)\n    tag_131:\n      pop\n        /* \"contracts/RealEstate.sol\":2254:2817  {... */\n      pop\n        /* \"contracts/RealEstate.sol\":2137:2817  function rentProperty(uint256 _propertyId)... */\n      pop\n      pop\n      jump\t// out\n        /* \"contracts/RealEstate.sol\":187:219  uint256 public propertyCount = 0 */\n    tag_41:\n      sload(0x00)\n      dup2\n      jump\t// out\n        /* \"contracts/RealEstate.sol\":3385:3974  function payRent(uint256 _propertyId)... */\n    tag_46:\n        /* \"contracts/RealEstate.sol\":3473:3484  _propertyId */\n      dup1\n        /* \"contracts/RealEstate.sol\":882:892  properties */\n      0x01\n        /* \"contracts/RealEstate.sol\":882:905  properties[_propertyId] */\n      0x00\n        /* \"contracts/RealEstate.sol\":893:904  _propertyId */\n      dup3\n        /* \"contracts/RealEstate.sol\":882:905  properties[_propertyId] */\n      dup2\n      mstore\n      0x20\n      add\n      swap1\n      dup2\n      mstore\n      0x20\n      add\n      0x00\n      keccak256\n        /* \"contracts/RealEstate.sol\":882:912  properties[_propertyId].renter */\n      0x04\n      add\n      0x00\n      swap1\n      sload\n      swap1\n      0x0100\n      exp\n      swap1\n      div\n      0xffffffffffffffffffffffffffffffffffffffff\n      and\n        /* \"contracts/RealEstate.sol\":868:912  msg.sender == properties[_propertyId].renter */\n      0xffffffffffffffffffffffffffffffffffffffff\n      and\n        /* \"contracts/RealEstate.sol\":868:878  msg.sender */\n      caller\n        /* \"contracts/RealEstate.sol\":868:912  msg.sender == properties[_propertyId].renter */\n      0xffffffffffffffffffffffffffffffffffffffff\n      and\n      eq\n        /* \"contracts/RealEstate.sol\":847:965  require(... */\n      tag_133\n      jumpi\n      mload(0x40)\n      0x08c379a000000000000000000000000000000000000000000000000000000000\n      dup2\n      mstore\n      0x04\n      add\n      tag_134\n      swap1\n      tag_135\n      jump\t// in\n    tag_134:\n      mload(0x40)\n      dup1\n      swap2\n      sub\n      swap1\n      revert\n    tag_133:\n        /* \"contracts/RealEstate.sol\":3509:3520  _propertyId */\n      dup2\n        /* \"contracts/RealEstate.sol\":1099:1112  Status.Rented */\n      0x01\n        /* \"contracts/RealEstate.sol\":1065:1112  properties[_propertyId].status == Status.Rented */\n      dup1\n      dup2\n      gt\n      iszero\n      tag_137\n      jumpi\n      tag_138\n      tag_67\n      jump\t// in\n    tag_138:\n    tag_137:\n        /* \"contracts/RealEstate.sol\":1065:1075  properties */\n      0x01\n        /* \"contracts/RealEstate.sol\":1065:1088  properties[_propertyId] */\n      0x00\n        /* \"contracts/RealEstate.sol\":1076:1087  _propertyId */\n      dup4\n        /* \"contracts/RealEstate.sol\":1065:1088  properties[_propertyId] */\n      dup2\n      mstore\n      0x20\n      add\n      swap1\n      dup2\n      mstore\n      0x20\n      add\n      0x00\n      keccak256\n        /* \"contracts/RealEstate.sol\":1065:1095  properties[_propertyId].status */\n      0x08\n      add\n      0x00\n      swap1\n      sload\n      swap1\n      0x0100\n      exp\n      swap1\n      div\n      0xff\n      and\n        /* \"contracts/RealEstate.sol\":1065:1112  properties[_propertyId].status == Status.Rented */\n      0x01\n      dup2\n      gt\n      iszero\n      tag_139\n      jumpi\n      tag_140\n      tag_67\n      jump\t// in\n    tag_140:\n    tag_139:\n      eq\n        /* \"contracts/RealEstate.sol\":1044:1160  require(... */\n      tag_141\n      jumpi\n      mload(0x40)\n      0x08c379a000000000000000000000000000000000000000000000000000000000\n      dup2\n      mstore\n      0x04\n      add\n      tag_142\n      swap1\n      tag_98\n      jump\t// in\n    tag_142:\n      mload(0x40)\n      dup1\n      swap2\n      sub\n      swap1\n      revert\n    tag_141:\n        /* \"contracts/RealEstate.sol\":3544:3555  _propertyId */\n      dup3\n        /* \"contracts/RealEstate.sol\":1442:1463  Property storage prop */\n      0x00\n        /* \"contracts/RealEstate.sol\":1466:1476  properties */\n      0x01\n        /* \"contracts/RealEstate.sol\":1466:1489  properties[_propertyId] */\n      0x00\n        /* \"contracts/RealEstate.sol\":1477:1488  _propertyId */\n      dup4\n        /* \"contracts/RealEstate.sol\":1466:1489  properties[_propertyId] */\n      dup2\n      mstore\n      0x20\n      add\n      swap1\n      dup2\n      mstore\n      0x20\n      add\n      0x00\n      keccak256\n        /* \"contracts/RealEstate.sol\":1442:1489  Property storage prop = properties[_propertyId] */\n      swap1\n      pop\n        /* \"contracts/RealEstate.sol\":1523:1524  0 */\n      0x00\n        /* \"contracts/RealEstate.sol\":1507:1511  prop */\n      dup2\n        /* \"contracts/RealEstate.sol\":1507:1520  prop.lastPaid */\n      0x07\n      add\n      sload\n        /* \"contracts/RealEstate.sol\":1507:1524  prop.lastPaid > 0 */\n      gt\n        /* \"contracts/RealEstate.sol\":1499:1552  require(prop.lastPaid > 0, \"Renter has not paid yet\") */\n      tag_144\n      jumpi\n      mload(0x40)\n      0x08c379a000000000000000000000000000000000000000000000000000000000\n      dup2\n      mstore\n      0x04\n      add\n      tag_145\n      swap1\n      tag_146\n      jump\t// in\n    tag_145:\n      mload(0x40)\n      dup1\n      swap2\n      sub\n      swap1\n      revert\n    tag_144:\n        /* \"contracts/RealEstate.sol\":3571:3592  Property storage prop */\n      0x00\n        /* \"contracts/RealEstate.sol\":3595:3605  properties */\n      0x01\n        /* \"contracts/RealEstate.sol\":3595:3618  properties[_propertyId] */\n      0x00\n        /* \"contracts/RealEstate.sol\":3606:3617  _propertyId */\n      dup8\n        /* \"contracts/RealEstate.sol\":3595:3618  properties[_propertyId] */\n      dup2\n      mstore\n      0x20\n      add\n      swap1\n      dup2\n      mstore\n      0x20\n      add\n      0x00\n      keccak256\n        /* \"contracts/RealEstate.sol\":3571:3618  Property storage prop = properties[_propertyId] */\n      swap1\n      pop\n        /* \"contracts/RealEstate.sol\":3628:3647  uint256 currentTime */\n      0x00\n        /* \"contracts/RealEstate.sol\":3650:3665  block.timestamp */\n      timestamp\n        /* \"contracts/RealEstate.sol\":3628:3665  uint256 currentTime = block.timestamp */\n      swap1\n      pop\n        /* \"contracts/RealEstate.sol\":3676:3695  uint256 totalAmount */\n      0x00\n        /* \"contracts/RealEstate.sol\":3698:3702  prop */\n      dup3\n        /* \"contracts/RealEstate.sol\":3698:3712  prop.rentPrice */\n      0x05\n      add\n      sload\n        /* \"contracts/RealEstate.sol\":3676:3712  uint256 totalAmount = prop.rentPrice */\n      swap1\n      pop\n        /* \"contracts/RealEstate.sol\":3756:3767  totalAmount */\n      dup1\n        /* \"contracts/RealEstate.sol\":3743:3752  msg.value */\n      callvalue\n        /* \"contracts/RealEstate.sol\":3743:3767  msg.value >= totalAmount */\n      lt\n      iszero\n        /* \"contracts/RealEstate.sol\":3722:3832  require(... */\n      tag_148\n      jumpi\n      mload(0x40)\n      0x08c379a000000000000000000000000000000000000000000000000000000000\n      dup2\n      mstore\n      0x04\n      add\n      tag_149\n      swap1\n      tag_150\n      jump\t// in\n    tag_149:\n      mload(0x40)\n      dup1\n      swap2\n      sub\n      swap1\n      revert\n    tag_148:\n        /* \"contracts/RealEstate.sol\":3894:3898  prop */\n      dup3\n        /* \"contracts/RealEstate.sol\":3894:3904  prop.owner */\n      0x03\n      add\n      0x00\n      swap1\n      sload\n      swap1\n      0x0100\n      exp\n      swap1\n      div\n      0xffffffffffffffffffffffffffffffffffffffff\n      and\n        /* \"contracts/RealEstate.sol\":3894:3913  prop.owner.transfer */\n      0xffffffffffffffffffffffffffffffffffffffff\n      and\n        /* \"contracts/RealEstate.sol\":3894:3929  prop.owner.transfer(prop.rentPrice) */\n      0x08fc\n        /* \"contracts/RealEstate.sol\":3914:3918  prop */\n      dup5\n        /* \"contracts/RealEstate.sol\":3914:3928  prop.rentPrice */\n      0x05\n      add\n      sload\n        /* \"contracts/RealEstate.sol\":3894:3929  prop.owner.transfer(prop.rentPrice) */\n      swap1\n      dup2\n      iszero\n      mul\n      swap1\n      mload(0x40)\n      0x00\n      mload(0x40)\n      dup1\n      dup4\n      sub\n      dup2\n      dup6\n      dup9\n      dup9\n      call\n      swap4\n      pop\n      pop\n      pop\n      pop\n      iszero\n      dup1\n      iszero\n      tag_152\n      jumpi\n      returndatasize\n      0x00\n      dup1\n      returndatacopy\n      revert(0x00, returndatasize)\n    tag_152:\n      pop\n        /* \"contracts/RealEstate.sol\":3956:3967  currentTime */\n      dup2\n        /* \"contracts/RealEstate.sol\":3940:3944  prop */\n      dup4\n        /* \"contracts/RealEstate.sol\":3940:3953  prop.lastPaid */\n      0x07\n      add\n        /* \"contracts/RealEstate.sol\":3940:3967  prop.lastPaid = currentTime */\n      dup2\n      swap1\n      sstore\n      pop\n        /* \"contracts/RealEstate.sol\":3561:3974  {... */\n      pop\n      pop\n      pop\n        /* \"contracts/RealEstate.sol\":1432:1570  {... */\n      pop\n        /* \"contracts/RealEstate.sol\":1170:1171  _ */\n      pop\n        /* \"contracts/RealEstate.sol\":975:976  _ */\n      pop\n        /* \"contracts/RealEstate.sol\":3385:3974  function payRent(uint256 _propertyId)... */\n      pop\n      pop\n      jump\t// out\n        /* \"contracts/RealEstate.sol\":536:582  mapping(uint256 => Property) public properties */\n    tag_50:\n      mstore(0x20, 0x01)\n      dup1\n      0x00\n      mstore\n      keccak256(0x00, 0x40)\n      0x00\n      swap2\n      pop\n      swap1\n      pop\n      dup1\n      0x00\n      add\n      sload\n      swap1\n      dup1\n      0x01\n      add\n      dup1\n      sload\n      tag_153\n      swap1\n      tag_55\n      jump\t// in\n    tag_153:\n      dup1\n      0x1f\n      add\n      0x20\n      dup1\n      swap2\n      div\n      mul\n      0x20\n      add\n      mload(0x40)\n      swap1\n      dup2\n      add\n      0x40\n      mstore\n      dup1\n      swap3\n      swap2\n      swap1\n      dup2\n      dup2\n      mstore\n      0x20\n      add\n      dup3\n      dup1\n      sload\n      tag_154\n      swap1\n      tag_55\n      jump\t// in\n    tag_154:\n      dup1\n      iszero\n      tag_155\n      jumpi\n      dup1\n      0x1f\n      lt\n      tag_156\n      jumpi\n      0x0100\n      dup1\n      dup4\n      sload\n      div\n      mul\n      dup4\n      mstore\n      swap2\n      0x20\n      add\n      swap2\n      jump(tag_155)\n    tag_156:\n      dup3\n      add\n      swap2\n      swap1\n      0x00\n      mstore\n      keccak256(0x00, 0x20)\n      swap1\n    tag_157:\n      dup2\n      sload\n      dup2\n      mstore\n      swap1\n      0x01\n      add\n      swap1\n      0x20\n      add\n      dup1\n      dup4\n      gt\n      tag_157\n      jumpi\n      dup3\n      swap1\n      sub\n      0x1f\n      and\n      dup3\n      add\n      swap2\n    tag_155:\n      pop\n      pop\n      pop\n      pop\n      pop\n      swap1\n      dup1\n      0x02\n      add\n      dup1\n      sload\n      tag_158\n      swap1\n      tag_55\n      jump\t// in\n    tag_158:\n      dup1\n      0x1f\n      add\n      0x20\n      dup1\n      swap2\n      div\n      mul\n      0x20\n      add\n      mload(0x40)\n      swap1\n      dup2\n      add\n      0x40\n      mstore\n      dup1\n      swap3\n      swap2\n      swap1\n      dup2\n      dup2\n      mstore\n      0x20\n      add\n      dup3\n      dup1\n      sload\n      tag_159\n      swap1\n      tag_55\n      jump\t// in\n    tag_159:\n      dup1\n      iszero\n      tag_160\n      jumpi\n      dup1\n      0x1f\n      lt\n      tag_161\n      jumpi\n      0x0100\n      dup1\n      dup4\n      sload\n      div\n      mul\n      dup4\n      mstore\n      swap2\n      0x20\n      add\n      swap2\n      jump(tag_160)\n    tag_161:\n      dup3\n      add\n      swap2\n      swap1\n      0x00\n      mstore\n      keccak256(0x00, 0x20)\n      swap1\n    tag_162:\n      dup2\n      sload\n      dup2\n      mstore\n      swap1\n      0x01\n      add\n      swap1\n      0x20\n      add\n      dup1\n      dup4\n      gt\n      tag_162\n      jumpi\n      dup3\n      swap1\n      sub\n      0x1f\n      and\n      dup3\n      add\n      swap2\n    tag_160:\n      pop\n      pop\n      pop\n      pop\n      pop\n      swap1\n      dup1\n      0x03\n      add\n      0x00\n      swap1\n      sload\n      swap1\n      0x0100\n      exp\n      swap1\n      div\n      0xffffffffffffffffffffffffffffffffffffffff\n      and\n      swap1\n      dup1\n      0x04\n      add\n      0x00\n      swap1\n      sload\n      swap1\n      0x0100\n      exp\n      swap1\n      div\n      0xffffffffffffffffffffffffffffffffffffffff\n      and\n      swap1\n      dup1\n      0x05\n      add\n      sload\n      swap1\n      dup1\n      0x06\n      add\n      sload\n      swap1\n      dup1\n      0x07\n      add\n      sload\n      swap1\n      dup1\n      0x08\n      add\n      0x00\n      swap1\n      sload\n      swap1\n      0x0100\n      exp\n      swap1\n      div\n      0xff\n      and\n      swap1\n      pop\n      dup10\n      jump\t// out\n        /* \"#utility.yul\":7:82   */\n    tag_163:\n        /* \"#utility.yul\":40:46   */\n      0x00\n        /* \"#utility.yul\":73:75   */\n      0x40\n        /* \"#utility.yul\":67:76   */\n      mload\n        /* \"#utility.yul\":57:76   */\n      swap1\n      pop\n        /* \"#utility.yul\":7:82   */\n      swap1\n      jump\t// out\n        /* \"#utility.yul\":88:205   */\n    tag_164:\n        /* \"#utility.yul\":197:198   */\n      0x00\n        /* \"#utility.yul\":194:195   */\n      dup1\n        /* \"#utility.yul\":187:199   */\n      revert\n        /* \"#utility.yul\":211:328   */\n    tag_165:\n        /* \"#utility.yul\":320:321   */\n      0x00\n        /* \"#utility.yul\":317:318   */\n      dup1\n        /* \"#utility.yul\":310:322   */\n      revert\n        /* \"#utility.yul\":334:411   */\n    tag_166:\n        /* \"#utility.yul\":371:378   */\n      0x00\n        /* \"#utility.yul\":400:405   */\n      dup2\n        /* \"#utility.yul\":389:405   */\n      swap1\n      pop\n        /* \"#utility.yul\":334:411   */\n      swap2\n      swap1\n      pop\n      jump\t// out\n        /* \"#utility.yul\":417:539   */\n    tag_167:\n        /* \"#utility.yul\":490:514   */\n      tag_236\n        /* \"#utility.yul\":508:513   */\n      dup2\n        /* \"#utility.yul\":490:514   */\n      tag_166\n      jump\t// in\n    tag_236:\n        /* \"#utility.yul\":483:488   */\n      dup2\n        /* \"#utility.yul\":480:515   */\n      eq\n        /* \"#utility.yul\":470:533   */\n      tag_237\n      jumpi\n        /* \"#utility.yul\":529:530   */\n      0x00\n        /* \"#utility.yul\":526:527   */\n      dup1\n        /* \"#utility.yul\":519:531   */\n      revert\n        /* \"#utility.yul\":470:533   */\n    tag_237:\n        /* \"#utility.yul\":417:539   */\n      pop\n      jump\t// out\n        /* \"#utility.yul\":545:684   */\n    tag_168:\n        /* \"#utility.yul\":591:596   */\n      0x00\n        /* \"#utility.yul\":629:635   */\n      dup2\n        /* \"#utility.yul\":616:636   */\n      calldataload\n        /* \"#utility.yul\":607:636   */\n      swap1\n      pop\n        /* \"#utility.yul\":645:678   */\n      tag_239\n        /* \"#utility.yul\":672:677   */\n      dup2\n        /* \"#utility.yul\":645:678   */\n      tag_167\n      jump\t// in\n    tag_239:\n        /* \"#utility.yul\":545:684   */\n      swap3\n      swap2\n      pop\n      pop\n      jump\t// out\n        /* \"#utility.yul\":690:1019   */\n    tag_15:\n        /* \"#utility.yul\":749:755   */\n      0x00\n        /* \"#utility.yul\":798:800   */\n      0x20\n        /* \"#utility.yul\":786:795   */\n      dup3\n        /* \"#utility.yul\":777:784   */\n      dup5\n        /* \"#utility.yul\":773:796   */\n      sub\n        /* \"#utility.yul\":769:801   */\n      slt\n        /* \"#utility.yul\":766:885   */\n      iszero\n      tag_241\n      jumpi\n        /* \"#utility.yul\":804:883   */\n      tag_242\n      tag_164\n      jump\t// in\n    tag_242:\n        /* \"#utility.yul\":766:885   */\n    tag_241:\n        /* \"#utility.yul\":924:925   */\n      0x00\n        /* \"#utility.yul\":949:1002   */\n      tag_243\n        /* \"#utility.yul\":994:1001   */\n      dup5\n        /* \"#utility.yul\":985:991   */\n      dup3\n        /* \"#utility.yul\":974:983   */\n      dup6\n        /* \"#utility.yul\":970:992   */\n      add\n        /* \"#utility.yul\":949:1002   */\n      tag_168\n      jump\t// in\n    tag_243:\n        /* \"#utility.yul\":939:1002   */\n      swap2\n      pop\n        /* \"#utility.yul\":895:1012   */\n      pop\n        /* \"#utility.yul\":690:1019   */\n      swap3\n      swap2\n      pop\n      pop\n      jump\t// out\n        /* \"#utility.yul\":1025:1143   */\n    tag_169:\n        /* \"#utility.yul\":1112:1136   */\n      tag_245\n        /* \"#utility.yul\":1130:1135   */\n      dup2\n        /* \"#utility.yul\":1112:1136   */\n      tag_166\n      jump\t// in\n    tag_245:\n        /* \"#utility.yul\":1107:1110   */\n      dup3\n        /* \"#utility.yul\":1100:1137   */\n      mstore\n        /* \"#utility.yul\":1025:1143   */\n      pop\n      pop\n      jump\t// out\n        /* \"#utility.yul\":1149:1248   */\n    tag_170:\n        /* \"#utility.yul\":1201:1207   */\n      0x00\n        /* \"#utility.yul\":1235:1240   */\n      dup2\n        /* \"#utility.yul\":1229:1241   */\n      mload\n        /* \"#utility.yul\":1219:1241   */\n      swap1\n      pop\n        /* \"#utility.yul\":1149:1248   */\n      swap2\n      swap1\n      pop\n      jump\t// out\n        /* \"#utility.yul\":1254:1423   */\n    tag_171:\n        /* \"#utility.yul\":1338:1349   */\n      0x00\n        /* \"#utility.yul\":1372:1378   */\n      dup3\n        /* \"#utility.yul\":1367:1370   */\n      dup3\n        /* \"#utility.yul\":1360:1379   */\n      mstore\n        /* \"#utility.yul\":1412:1416   */\n      0x20\n        /* \"#utility.yul\":1407:1410   */\n      dup3\n        /* \"#utility.yul\":1403:1417   */\n      add\n        /* \"#utility.yul\":1388:1417   */\n      swap1\n      pop\n        /* \"#utility.yul\":1254:1423   */\n      swap3\n      swap2\n      pop\n      pop\n      jump\t// out\n        /* \"#utility.yul\":1429:1568   */\n    tag_172:\n        /* \"#utility.yul\":1518:1524   */\n      dup3\n        /* \"#utility.yul\":1513:1516   */\n      dup2\n        /* \"#utility.yul\":1508:1511   */\n      dup4\n        /* \"#utility.yul\":1502:1525   */\n      mcopy\n        /* \"#utility.yul\":1559:1560   */\n      0x00\n        /* \"#utility.yul\":1550:1556   */\n      dup4\n        /* \"#utility.yul\":1545:1548   */\n      dup4\n        /* \"#utility.yul\":1541:1557   */\n      add\n        /* \"#utility.yul\":1534:1561   */\n      mstore\n        /* \"#utility.yul\":1429:1568   */\n      pop\n      pop\n      pop\n      jump\t// out\n        /* \"#utility.yul\":1574:1676   */\n    tag_173:\n        /* \"#utility.yul\":1615:1621   */\n      0x00\n        /* \"#utility.yul\":1666:1668   */\n      0x1f\n        /* \"#utility.yul\":1662:1669   */\n      not\n        /* \"#utility.yul\":1657:1659   */\n      0x1f\n        /* \"#utility.yul\":1650:1655   */\n      dup4\n        /* \"#utility.yul\":1646:1660   */\n      add\n        /* \"#utility.yul\":1642:1670   */\n      and\n        /* \"#utility.yul\":1632:1670   */\n      swap1\n      pop\n        /* \"#utility.yul\":1574:1676   */\n      swap2\n      swap1\n      pop\n      jump\t// out\n        /* \"#utility.yul\":1682:2059   */\n    tag_174:\n        /* \"#utility.yul\":1770:1773   */\n      0x00\n        /* \"#utility.yul\":1798:1837   */\n      tag_251\n        /* \"#utility.yul\":1831:1836   */\n      dup3\n        /* \"#utility.yul\":1798:1837   */\n      tag_170\n      jump\t// in\n    tag_251:\n        /* \"#utility.yul\":1853:1924   */\n      tag_252\n        /* \"#utility.yul\":1917:1923   */\n      dup2\n        /* \"#utility.yul\":1912:1915   */\n      dup6\n        /* \"#utility.yul\":1853:1924   */\n      tag_171\n      jump\t// in\n    tag_252:\n        /* \"#utility.yul\":1846:1924   */\n      swap4\n      pop\n        /* \"#utility.yul\":1933:1998   */\n      tag_253\n        /* \"#utility.yul\":1991:1997   */\n      dup2\n        /* \"#utility.yul\":1986:1989   */\n      dup6\n        /* \"#utility.yul\":1979:1983   */\n      0x20\n        /* \"#utility.yul\":1972:1977   */\n      dup7\n        /* \"#utility.yul\":1968:1984   */\n      add\n        /* \"#utility.yul\":1933:1998   */\n      tag_172\n      jump\t// in\n    tag_253:\n        /* \"#utility.yul\":2023:2052   */\n      tag_254\n        /* \"#utility.yul\":2045:2051   */\n      dup2\n        /* \"#utility.yul\":2023:2052   */\n      tag_173\n      jump\t// in\n    tag_254:\n        /* \"#utility.yul\":2018:2021   */\n      dup5\n        /* \"#utility.yul\":2014:2053   */\n      add\n        /* \"#utility.yul\":2007:2053   */\n      swap2\n      pop\n        /* \"#utility.yul\":1774:2059   */\n      pop\n        /* \"#utility.yul\":1682:2059   */\n      swap3\n      swap2\n      pop\n      pop\n      jump\t// out\n        /* \"#utility.yul\":2065:2191   */\n    tag_175:\n        /* \"#utility.yul\":2102:2109   */\n      0x00\n        /* \"#utility.yul\":2142:2184   */\n      0xffffffffffffffffffffffffffffffffffffffff\n        /* \"#utility.yul\":2135:2140   */\n      dup3\n        /* \"#utility.yul\":2131:2185   */\n      and\n        /* \"#utility.yul\":2120:2185   */\n      swap1\n      pop\n        /* \"#utility.yul\":2065:2191   */\n      swap2\n      swap1\n      pop\n      jump\t// out\n        /* \"#utility.yul\":2197:2293   */\n    tag_176:\n        /* \"#utility.yul\":2234:2241   */\n      0x00\n        /* \"#utility.yul\":2263:2287   */\n      tag_257\n        /* \"#utility.yul\":2281:2286   */\n      dup3\n        /* \"#utility.yul\":2263:2287   */\n      tag_175\n      jump\t// in\n    tag_257:\n        /* \"#utility.yul\":2252:2287   */\n      swap1\n      pop\n        /* \"#utility.yul\":2197:2293   */\n      swap2\n      swap1\n      pop\n      jump\t// out\n        /* \"#utility.yul\":2299:2417   */\n    tag_177:\n        /* \"#utility.yul\":2386:2410   */\n      tag_259\n        /* \"#utility.yul\":2404:2409   */\n      dup2\n        /* \"#utility.yul\":2386:2410   */\n      tag_176\n      jump\t// in\n    tag_259:\n        /* \"#utility.yul\":2381:2384   */\n      dup3\n        /* \"#utility.yul\":2374:2411   */\n      mstore\n        /* \"#utility.yul\":2299:2417   */\n      pop\n      pop\n      jump\t// out\n        /* \"#utility.yul\":2423:2603   */\n    tag_67:\n        /* \"#utility.yul\":2471:2548   */\n      0x4e487b7100000000000000000000000000000000000000000000000000000000\n        /* \"#utility.yul\":2468:2469   */\n      0x00\n        /* \"#utility.yul\":2461:2549   */\n      mstore\n        /* \"#utility.yul\":2568:2572   */\n      0x21\n        /* \"#utility.yul\":2565:2566   */\n      0x04\n        /* \"#utility.yul\":2558:2573   */\n      mstore\n        /* \"#utility.yul\":2592:2596   */\n      0x24\n        /* \"#utility.yul\":2589:2590   */\n      0x00\n        /* \"#utility.yul\":2582:2597   */\n      revert\n        /* \"#utility.yul\":2609:2722   */\n    tag_178:\n        /* \"#utility.yul\":2690:2691   */\n      0x02\n        /* \"#utility.yul\":2683:2688   */\n      dup2\n        /* \"#utility.yul\":2680:2692   */\n      lt\n        /* \"#utility.yul\":2670:2716   */\n      tag_262\n      jumpi\n        /* \"#utility.yul\":2696:2714   */\n      tag_263\n      tag_67\n      jump\t// in\n    tag_263:\n        /* \"#utility.yul\":2670:2716   */\n    tag_262:\n        /* \"#utility.yul\":2609:2722   */\n      pop\n      jump\t// out\n        /* \"#utility.yul\":2728:2855   */\n    tag_179:\n        /* \"#utility.yul\":2773:2780   */\n      0x00\n        /* \"#utility.yul\":2802:2807   */\n      dup2\n        /* \"#utility.yul\":2791:2807   */\n      swap1\n      pop\n        /* \"#utility.yul\":2808:2849   */\n      tag_265\n        /* \"#utility.yul\":2843:2848   */\n      dup3\n        /* \"#utility.yul\":2808:2849   */\n      tag_178\n      jump\t// in\n    tag_265:\n        /* \"#utility.yul\":2728:2855   */\n      swap2\n      swap1\n      pop\n      jump\t// out\n        /* \"#utility.yul\":2861:2988   */\n    tag_180:\n        /* \"#utility.yul\":2917:2926   */\n      0x00\n        /* \"#utility.yul\":2950:2982   */\n      tag_267\n        /* \"#utility.yul\":2976:2981   */\n      dup3\n        /* \"#utility.yul\":2950:2982   */\n      tag_179\n      jump\t// in\n    tag_267:\n        /* \"#utility.yul\":2937:2982   */\n      swap1\n      pop\n        /* \"#utility.yul\":2861:2988   */\n      swap2\n      swap1\n      pop\n      jump\t// out\n        /* \"#utility.yul\":2994:3137   */\n    tag_181:\n        /* \"#utility.yul\":3087:3130   */\n      tag_269\n        /* \"#utility.yul\":3124:3129   */\n      dup2\n        /* \"#utility.yul\":3087:3130   */\n      tag_180\n      jump\t// in\n    tag_269:\n        /* \"#utility.yul\":3082:3085   */\n      dup3\n        /* \"#utility.yul\":3075:3131   */\n      mstore\n        /* \"#utility.yul\":2994:3137   */\n      pop\n      pop\n      jump\t// out\n        /* \"#utility.yul\":3143:4334   */\n    tag_18:\n        /* \"#utility.yul\":3478:3482   */\n      0x00\n        /* \"#utility.yul\":3516:3519   */\n      0x0100\n        /* \"#utility.yul\":3505:3514   */\n      dup3\n        /* \"#utility.yul\":3501:3520   */\n      add\n        /* \"#utility.yul\":3493:3520   */\n      swap1\n      pop\n        /* \"#utility.yul\":3530:3601   */\n      tag_271\n        /* \"#utility.yul\":3598:3599   */\n      0x00\n        /* \"#utility.yul\":3587:3596   */\n      dup4\n        /* \"#utility.yul\":3583:3600   */\n      add\n        /* \"#utility.yul\":3574:3580   */\n      dup12\n        /* \"#utility.yul\":3530:3601   */\n      tag_169\n      jump\t// in\n    tag_271:\n        /* \"#utility.yul\":3648:3657   */\n      dup2\n        /* \"#utility.yul\":3642:3646   */\n      dup2\n        /* \"#utility.yul\":3638:3658   */\n      sub\n        /* \"#utility.yul\":3633:3635   */\n      0x20\n        /* \"#utility.yul\":3622:3631   */\n      dup4\n        /* \"#utility.yul\":3618:3636   */\n      add\n        /* \"#utility.yul\":3611:3659   */\n      mstore\n        /* \"#utility.yul\":3676:3754   */\n      tag_272\n        /* \"#utility.yul\":3749:3753   */\n      dup2\n        /* \"#utility.yul\":3740:3746   */\n      dup11\n        /* \"#utility.yul\":3676:3754   */\n      tag_174\n      jump\t// in\n    tag_272:\n        /* \"#utility.yul\":3668:3754   */\n      swap1\n      pop\n        /* \"#utility.yul\":3801:3810   */\n      dup2\n        /* \"#utility.yul\":3795:3799   */\n      dup2\n        /* \"#utility.yul\":3791:3811   */\n      sub\n        /* \"#utility.yul\":3786:3788   */\n      0x40\n        /* \"#utility.yul\":3775:3784   */\n      dup4\n        /* \"#utility.yul\":3771:3789   */\n      add\n        /* \"#utility.yul\":3764:3812   */\n      mstore\n        /* \"#utility.yul\":3829:3907   */\n      tag_273\n        /* \"#utility.yul\":3902:3906   */\n      dup2\n        /* \"#utility.yul\":3893:3899   */\n      dup10\n        /* \"#utility.yul\":3829:3907   */\n      tag_174\n      jump\t// in\n    tag_273:\n        /* \"#utility.yul\":3821:3907   */\n      swap1\n      pop\n        /* \"#utility.yul\":3917:3989   */\n      tag_274\n        /* \"#utility.yul\":3985:3987   */\n      0x60\n        /* \"#utility.yul\":3974:3983   */\n      dup4\n        /* \"#utility.yul\":3970:3988   */\n      add\n        /* \"#utility.yul\":3961:3967   */\n      dup9\n        /* \"#utility.yul\":3917:3989   */\n      tag_177\n      jump\t// in\n    tag_274:\n        /* \"#utility.yul\":3999:4072   */\n      tag_275\n        /* \"#utility.yul\":4067:4070   */\n      0x80\n        /* \"#utility.yul\":4056:4065   */\n      dup4\n        /* \"#utility.yul\":4052:4071   */\n      add\n        /* \"#utility.yul\":4043:4049   */\n      dup8\n        /* \"#utility.yul\":3999:4072   */\n      tag_177\n      jump\t// in\n    tag_275:\n        /* \"#utility.yul\":4082:4155   */\n      tag_276\n        /* \"#utility.yul\":4150:4153   */\n      0xa0\n        /* \"#utility.yul\":4139:4148   */\n      dup4\n        /* \"#utility.yul\":4135:4154   */\n      add\n        /* \"#utility.yul\":4126:4132   */\n      dup7\n        /* \"#utility.yul\":4082:4155   */\n      tag_169\n      jump\t// in\n    tag_276:\n        /* \"#utility.yul\":4165:4238   */\n      tag_277\n        /* \"#utility.yul\":4233:4236   */\n      0xc0\n        /* \"#utility.yul\":4222:4231   */\n      dup4\n        /* \"#utility.yul\":4218:4237   */\n      add\n        /* \"#utility.yul\":4209:4215   */\n      dup6\n        /* \"#utility.yul\":4165:4238   */\n      tag_169\n      jump\t// in\n    tag_277:\n        /* \"#utility.yul\":4248:4327   */\n      tag_278\n        /* \"#utility.yul\":4322:4325   */\n      0xe0\n        /* \"#utility.yul\":4311:4320   */\n      dup4\n        /* \"#utility.yul\":4307:4326   */\n      add\n        /* \"#utility.yul\":4298:4304   */\n      dup5\n        /* \"#utility.yul\":4248:4327   */\n      tag_181\n      jump\t// in\n    tag_278:\n        /* \"#utility.yul\":3143:4334   */\n      swap10\n      swap9\n      pop\n      pop\n      pop\n      pop\n      pop\n      pop\n      pop\n      pop\n      pop\n      jump\t// out\n        /* \"#utility.yul\":4340:4814   */\n    tag_22:\n        /* \"#utility.yul\":4408:4414   */\n      0x00\n        /* \"#utility.yul\":4416:4422   */\n      dup1\n        /* \"#utility.yul\":4465:4467   */\n      0x40\n        /* \"#utility.yul\":4453:4462   */\n      dup4\n        /* \"#utility.yul\":4444:4451   */\n      dup6\n        /* \"#utility.yul\":4440:4463   */\n      sub\n        /* \"#utility.yul\":4436:4468   */\n      slt\n        /* \"#utility.yul\":4433:4552   */\n      iszero\n      tag_280\n      jumpi\n        /* \"#utility.yul\":4471:4550   */\n      tag_281\n      tag_164\n      jump\t// in\n    tag_281:\n        /* \"#utility.yul\":4433:4552   */\n    tag_280:\n        /* \"#utility.yul\":4591:4592   */\n      0x00\n        /* \"#utility.yul\":4616:4669   */\n      tag_282\n        /* \"#utility.yul\":4661:4668   */\n      dup6\n        /* \"#utility.yul\":4652:4658   */\n      dup3\n        /* \"#utility.yul\":4641:4650   */\n      dup7\n        /* \"#utility.yul\":4637:4659   */\n      add\n        /* \"#utility.yul\":4616:4669   */\n      tag_168\n      jump\t// in\n    tag_282:\n        /* \"#utility.yul\":4606:4669   */\n      swap3\n      pop\n        /* \"#utility.yul\":4562:4679   */\n      pop\n        /* \"#utility.yul\":4718:4720   */\n      0x20\n        /* \"#utility.yul\":4744:4797   */\n      tag_283\n        /* \"#utility.yul\":4789:4796   */\n      dup6\n        /* \"#utility.yul\":4780:4786   */\n      dup3\n        /* \"#utility.yul\":4769:4778   */\n      dup7\n        /* \"#utility.yul\":4765:4787   */\n      add\n        /* \"#utility.yul\":4744:4797   */\n      tag_168\n      jump\t// in\n    tag_283:\n        /* \"#utility.yul\":4734:4797   */\n      swap2\n      pop\n        /* \"#utility.yul\":4689:4807   */\n      pop\n        /* \"#utility.yul\":4340:4814   */\n      swap3\n      pop\n      swap3\n      swap1\n      pop\n      jump\t// out\n        /* \"#utility.yul\":4820:4937   */\n    tag_182:\n        /* \"#utility.yul\":4929:4930   */\n      0x00\n        /* \"#utility.yul\":4926:4927   */\n      dup1\n        /* \"#utility.yul\":4919:4931   */\n      revert\n        /* \"#utility.yul\":4943:5060   */\n    tag_183:\n        /* \"#utility.yul\":5052:5053   */\n      0x00\n        /* \"#utility.yul\":5049:5050   */\n      dup1\n        /* \"#utility.yul\":5042:5054   */\n      revert\n        /* \"#utility.yul\":5066:5246   */\n    tag_184:\n        /* \"#utility.yul\":5114:5191   */\n      0x4e487b7100000000000000000000000000000000000000000000000000000000\n        /* \"#utility.yul\":5111:5112   */\n      0x00\n        /* \"#utility.yul\":5104:5192   */\n      mstore\n        /* \"#utility.yul\":5211:5215   */\n      0x41\n        /* \"#utility.yul\":5208:5209   */\n      0x04\n        /* \"#utility.yul\":5201:5216   */\n      mstore\n        /* \"#utility.yul\":5235:5239   */\n      0x24\n        /* \"#utility.yul\":5232:5233   */\n      0x00\n        /* \"#utility.yul\":5225:5240   */\n      revert\n        /* \"#utility.yul\":5252:5533   */\n    tag_185:\n        /* \"#utility.yul\":5335:5362   */\n      tag_288\n        /* \"#utility.yul\":5357:5361   */\n      dup3\n        /* \"#utility.yul\":5335:5362   */\n      tag_173\n      jump\t// in\n    tag_288:\n        /* \"#utility.yul\":5327:5333   */\n      dup2\n        /* \"#utility.yul\":5323:5363   */\n      add\n        /* \"#utility.yul\":5465:5471   */\n      dup2\n        /* \"#utility.yul\":5453:5463   */\n      dup2\n        /* \"#utility.yul\":5450:5472   */\n      lt\n        /* \"#utility.yul\":5429:5447   */\n      0xffffffffffffffff\n        /* \"#utility.yul\":5417:5427   */\n      dup3\n        /* \"#utility.yul\":5414:5448   */\n      gt\n        /* \"#utility.yul\":5411:5473   */\n      or\n        /* \"#utility.yul\":5408:5496   */\n      iszero\n      tag_289\n      jumpi\n        /* \"#utility.yul\":5476:5494   */\n      tag_290\n      tag_184\n      jump\t// in\n    tag_290:\n        /* \"#utility.yul\":5408:5496   */\n    tag_289:\n        /* \"#utility.yul\":5516:5526   */\n      dup1\n        /* \"#utility.yul\":5512:5514   */\n      0x40\n        /* \"#utility.yul\":5505:5527   */\n      mstore\n        /* \"#utility.yul\":5295:5533   */\n      pop\n        /* \"#utility.yul\":5252:5533   */\n      pop\n      pop\n      jump\t// out\n        /* \"#utility.yul\":5539:5668   */\n    tag_186:\n        /* \"#utility.yul\":5573:5579   */\n      0x00\n        /* \"#utility.yul\":5600:5620   */\n      tag_292\n      tag_163\n      jump\t// in\n    tag_292:\n        /* \"#utility.yul\":5590:5620   */\n      swap1\n      pop\n        /* \"#utility.yul\":5629:5662   */\n      tag_293\n        /* \"#utility.yul\":5657:5661   */\n      dup3\n        /* \"#utility.yul\":5649:5655   */\n      dup3\n        /* \"#utility.yul\":5629:5662   */\n      tag_185\n      jump\t// in\n    tag_293:\n        /* \"#utility.yul\":5539:5668   */\n      swap2\n      swap1\n      pop\n      jump\t// out\n        /* \"#utility.yul\":5674:5982   */\n    tag_187:\n        /* \"#utility.yul\":5736:5740   */\n      0x00\n        /* \"#utility.yul\":5826:5844   */\n      0xffffffffffffffff\n        /* \"#utility.yul\":5818:5824   */\n      dup3\n        /* \"#utility.yul\":5815:5845   */\n      gt\n        /* \"#utility.yul\":5812:5868   */\n      iszero\n      tag_295\n      jumpi\n        /* \"#utility.yul\":5848:5866   */\n      tag_296\n      tag_184\n      jump\t// in\n    tag_296:\n        /* \"#utility.yul\":5812:5868   */\n    tag_295:\n        /* \"#utility.yul\":5886:5915   */\n      tag_297\n        /* \"#utility.yul\":5908:5914   */\n      dup3\n        /* \"#utility.yul\":5886:5915   */\n      tag_173\n      jump\t// in\n    tag_297:\n        /* \"#utility.yul\":5878:5915   */\n      swap1\n      pop\n        /* \"#utility.yul\":5970:5974   */\n      0x20\n        /* \"#utility.yul\":5964:5968   */\n      dup2\n        /* \"#utility.yul\":5960:5975   */\n      add\n        /* \"#utility.yul\":5952:5975   */\n      swap1\n      pop\n        /* \"#utility.yul\":5674:5982   */\n      swap2\n      swap1\n      pop\n      jump\t// out\n        /* \"#utility.yul\":5988:6136   */\n    tag_188:\n        /* \"#utility.yul\":6086:6092   */\n      dup3\n        /* \"#utility.yul\":6081:6084   */\n      dup2\n        /* \"#utility.yul\":6076:6079   */\n      dup4\n        /* \"#utility.yul\":6063:6093   */\n      calldatacopy\n        /* \"#utility.yul\":6127:6128   */\n      0x00\n        /* \"#utility.yul\":6118:6124   */\n      dup4\n        /* \"#utility.yul\":6113:6116   */\n      dup4\n        /* \"#utility.yul\":6109:6125   */\n      add\n        /* \"#utility.yul\":6102:6129   */\n      mstore\n        /* \"#utility.yul\":5988:6136   */\n      pop\n      pop\n      pop\n      jump\t// out\n        /* \"#utility.yul\":6142:6567   */\n    tag_189:\n        /* \"#utility.yul\":6220:6225   */\n      0x00\n        /* \"#utility.yul\":6245:6311   */\n      tag_300\n        /* \"#utility.yul\":6261:6310   */\n      tag_301\n        /* \"#utility.yul\":6303:6309   */\n      dup5\n        /* \"#utility.yul\":6261:6310   */\n      tag_187\n      jump\t// in\n    tag_301:\n        /* \"#utility.yul\":6245:6311   */\n      tag_186\n      jump\t// in\n    tag_300:\n        /* \"#utility.yul\":6236:6311   */\n      swap1\n      pop\n        /* \"#utility.yul\":6334:6340   */\n      dup3\n        /* \"#utility.yul\":6327:6332   */\n      dup2\n        /* \"#utility.yul\":6320:6341   */\n      mstore\n        /* \"#utility.yul\":6372:6376   */\n      0x20\n        /* \"#utility.yul\":6365:6370   */\n      dup2\n        /* \"#utility.yul\":6361:6377   */\n      add\n        /* \"#utility.yul\":6410:6413   */\n      dup5\n        /* \"#utility.yul\":6401:6407   */\n      dup5\n        /* \"#utility.yul\":6396:6399   */\n      dup5\n        /* \"#utility.yul\":6392:6408   */\n      add\n        /* \"#utility.yul\":6389:6414   */\n      gt\n        /* \"#utility.yul\":6386:6498   */\n      iszero\n      tag_302\n      jumpi\n        /* \"#utility.yul\":6417:6496   */\n      tag_303\n      tag_183\n      jump\t// in\n    tag_303:\n        /* \"#utility.yul\":6386:6498   */\n    tag_302:\n        /* \"#utility.yul\":6507:6561   */\n      tag_304\n        /* \"#utility.yul\":6554:6560   */\n      dup5\n        /* \"#utility.yul\":6549:6552   */\n      dup3\n        /* \"#utility.yul\":6544:6547   */\n      dup6\n        /* \"#utility.yul\":6507:6561   */\n      tag_188\n      jump\t// in\n    tag_304:\n        /* \"#utility.yul\":6226:6567   */\n      pop\n        /* \"#utility.yul\":6142:6567   */\n      swap4\n      swap3\n      pop\n      pop\n      pop\n      jump\t// out\n        /* \"#utility.yul\":6587:6927   */\n    tag_190:\n        /* \"#utility.yul\":6643:6648   */\n      0x00\n        /* \"#utility.yul\":6692:6695   */\n      dup3\n        /* \"#utility.yul\":6685:6689   */\n      0x1f\n        /* \"#utility.yul\":6677:6683   */\n      dup4\n        /* \"#utility.yul\":6673:6690   */\n      add\n        /* \"#utility.yul\":6669:6696   */\n      slt\n        /* \"#utility.yul\":6659:6781   */\n      tag_306\n      jumpi\n        /* \"#utility.yul\":6700:6779   */\n      tag_307\n      tag_182\n      jump\t// in\n    tag_307:\n        /* \"#utility.yul\":6659:6781   */\n    tag_306:\n        /* \"#utility.yul\":6817:6823   */\n      dup2\n        /* \"#utility.yul\":6804:6824   */\n      calldataload\n        /* \"#utility.yul\":6842:6921   */\n      tag_308\n        /* \"#utility.yul\":6917:6920   */\n      dup5\n        /* \"#utility.yul\":6909:6915   */\n      dup3\n        /* \"#utility.yul\":6902:6906   */\n      0x20\n        /* \"#utility.yul\":6894:6900   */\n      dup7\n        /* \"#utility.yul\":6890:6907   */\n      add\n        /* \"#utility.yul\":6842:6921   */\n      tag_189\n      jump\t// in\n    tag_308:\n        /* \"#utility.yul\":6833:6921   */\n      swap2\n      pop\n        /* \"#utility.yul\":6649:6927   */\n      pop\n        /* \"#utility.yul\":6587:6927   */\n      swap3\n      swap2\n      pop\n      pop\n      jump\t// out\n        /* \"#utility.yul\":6933:8058   */\n    tag_27:\n        /* \"#utility.yul\":7039:7045   */\n      0x00\n        /* \"#utility.yul\":7047:7053   */\n      dup1\n        /* \"#utility.yul\":7055:7061   */\n      0x00\n        /* \"#utility.yul\":7063:7069   */\n      dup1\n        /* \"#utility.yul\":7112:7115   */\n      0x80\n        /* \"#utility.yul\":7100:7109   */\n      dup6\n        /* \"#utility.yul\":7091:7098   */\n      dup8\n        /* \"#utility.yul\":7087:7110   */\n      sub\n        /* \"#utility.yul\":7083:7116   */\n      slt\n        /* \"#utility.yul\":7080:7200   */\n      iszero\n      tag_310\n      jumpi\n        /* \"#utility.yul\":7119:7198   */\n      tag_311\n      tag_164\n      jump\t// in\n    tag_311:\n        /* \"#utility.yul\":7080:7200   */\n    tag_310:\n        /* \"#utility.yul\":7267:7268   */\n      0x00\n        /* \"#utility.yul\":7256:7265   */\n      dup6\n        /* \"#utility.yul\":7252:7269   */\n      add\n        /* \"#utility.yul\":7239:7270   */\n      calldataload\n        /* \"#utility.yul\":7297:7315   */\n      0xffffffffffffffff\n        /* \"#utility.yul\":7289:7295   */\n      dup2\n        /* \"#utility.yul\":7286:7316   */\n      gt\n        /* \"#utility.yul\":7283:7400   */\n      iszero\n      tag_312\n      jumpi\n        /* \"#utility.yul\":7319:7398   */\n      tag_313\n      tag_165\n      jump\t// in\n    tag_313:\n        /* \"#utility.yul\":7283:7400   */\n    tag_312:\n        /* \"#utility.yul\":7424:7487   */\n      tag_314\n        /* \"#utility.yul\":7479:7486   */\n      dup8\n        /* \"#utility.yul\":7470:7476   */\n      dup3\n        /* \"#utility.yul\":7459:7468   */\n      dup9\n        /* \"#utility.yul\":7455:7477   */\n      add\n        /* \"#utility.yul\":7424:7487   */\n      tag_190\n      jump\t// in\n    tag_314:\n        /* \"#utility.yul\":7414:7487   */\n      swap5\n      pop\n        /* \"#utility.yul\":7210:7497   */\n      pop\n        /* \"#utility.yul\":7564:7566   */\n      0x20\n        /* \"#utility.yul\":7553:7562   */\n      dup6\n        /* \"#utility.yul\":7549:7567   */\n      add\n        /* \"#utility.yul\":7536:7568   */\n      calldataload\n        /* \"#utility.yul\":7595:7613   */\n      0xffffffffffffffff\n        /* \"#utility.yul\":7587:7593   */\n      dup2\n        /* \"#utility.yul\":7584:7614   */\n      gt\n        /* \"#utility.yul\":7581:7698   */\n      iszero\n      tag_315\n      jumpi\n        /* \"#utility.yul\":7617:7696   */\n      tag_316\n      tag_165\n      jump\t// in\n    tag_316:\n        /* \"#utility.yul\":7581:7698   */\n    tag_315:\n        /* \"#utility.yul\":7722:7785   */\n      tag_317\n        /* \"#utility.yul\":7777:7784   */\n      dup8\n        /* \"#utility.yul\":7768:7774   */\n      dup3\n        /* \"#utility.yul\":7757:7766   */\n      dup9\n        /* \"#utility.yul\":7753:7775   */\n      add\n        /* \"#utility.yul\":7722:7785   */\n      tag_190\n      jump\t// in\n    tag_317:\n        /* \"#utility.yul\":7712:7785   */\n      swap4\n      pop\n        /* \"#utility.yul\":7507:7795   */\n      pop\n        /* \"#utility.yul\":7834:7836   */\n      0x40\n        /* \"#utility.yul\":7860:7913   */\n      tag_318\n        /* \"#utility.yul\":7905:7912   */\n      dup8\n        /* \"#utility.yul\":7896:7902   */\n      dup3\n        /* \"#utility.yul\":7885:7894   */\n      dup9\n        /* \"#utility.yul\":7881:7903   */\n      add\n        /* \"#utility.yul\":7860:7913   */\n      tag_168\n      jump\t// in\n    tag_318:\n        /* \"#utility.yul\":7850:7913   */\n      swap3\n      pop\n        /* \"#utility.yul\":7805:7923   */\n      pop\n        /* \"#utility.yul\":7962:7964   */\n      0x60\n        /* \"#utility.yul\":7988:8041   */\n      tag_319\n        /* \"#utility.yul\":8033:8040   */\n      dup8\n        /* \"#utility.yul\":8024:8030   */\n      dup3\n        /* \"#utility.yul\":8013:8022   */\n      dup9\n        /* \"#utility.yul\":8009:8031   */\n      add\n        /* \"#utility.yul\":7988:8041   */\n      tag_168\n      jump\t// in\n    tag_319:\n        /* \"#utility.yul\":7978:8041   */\n      swap2\n      pop\n        /* \"#utility.yul\":7933:8051   */\n      pop\n        /* \"#utility.yul\":6933:8058   */\n      swap3\n      swap6\n      swap2\n      swap5\n      pop\n      swap3\n      pop\n      jump\t// out\n        /* \"#utility.yul\":8064:8286   */\n    tag_43:\n        /* \"#utility.yul\":8157:8161   */\n      0x00\n        /* \"#utility.yul\":8195:8197   */\n      0x20\n        /* \"#utility.yul\":8184:8193   */\n      dup3\n        /* \"#utility.yul\":8180:8198   */\n      add\n        /* \"#utility.yul\":8172:8198   */\n      swap1\n      pop\n        /* \"#utility.yul\":8208:8279   */\n      tag_321\n        /* \"#utility.yul\":8276:8277   */\n      0x00\n        /* \"#utility.yul\":8265:8274   */\n      dup4\n        /* \"#utility.yul\":8261:8278   */\n      add\n        /* \"#utility.yul\":8252:8258   */\n      dup5\n        /* \"#utility.yul\":8208:8279   */\n      tag_169\n      jump\t// in\n    tag_321:\n        /* \"#utility.yul\":8064:8286   */\n      swap3\n      swap2\n      pop\n      pop\n      jump\t// out\n        /* \"#utility.yul\":8292:8396   */\n    tag_191:\n        /* \"#utility.yul\":8337:8344   */\n      0x00\n        /* \"#utility.yul\":8366:8390   */\n      tag_323\n        /* \"#utility.yul\":8384:8389   */\n      dup3\n        /* \"#utility.yul\":8366:8390   */\n      tag_175\n      jump\t// in\n    tag_323:\n        /* \"#utility.yul\":8355:8390   */\n      swap1\n      pop\n        /* \"#utility.yul\":8292:8396   */\n      swap2\n      swap1\n      pop\n      jump\t// out\n        /* \"#utility.yul\":8402:8544   */\n    tag_192:\n        /* \"#utility.yul\":8505:8537   */\n      tag_325\n        /* \"#utility.yul\":8531:8536   */\n      dup2\n        /* \"#utility.yul\":8505:8537   */\n      tag_191\n      jump\t// in\n    tag_325:\n        /* \"#utility.yul\":8500:8503   */\n      dup3\n        /* \"#utility.yul\":8493:8538   */\n      mstore\n        /* \"#utility.yul\":8402:8544   */\n      pop\n      pop\n      jump\t// out\n        /* \"#utility.yul\":8550:9884   */\n    tag_52:\n        /* \"#utility.yul\":8929:8933   */\n      0x00\n        /* \"#utility.yul\":8967:8970   */\n      0x0120\n        /* \"#utility.yul\":8956:8965   */\n      dup3\n        /* \"#utility.yul\":8952:8971   */\n      add\n        /* \"#utility.yul\":8944:8971   */\n      swap1\n      pop\n        /* \"#utility.yul\":8981:9052   */\n      tag_327\n        /* \"#utility.yul\":9049:9050   */\n      0x00\n        /* \"#utility.yul\":9038:9047   */\n      dup4\n        /* \"#utility.yul\":9034:9051   */\n      add\n        /* \"#utility.yul\":9025:9031   */\n      dup13\n        /* \"#utility.yul\":8981:9052   */\n      tag_169\n      jump\t// in\n    tag_327:\n        /* \"#utility.yul\":9099:9108   */\n      dup2\n        /* \"#utility.yul\":9093:9097   */\n      dup2\n        /* \"#utility.yul\":9089:9109   */\n      sub\n        /* \"#utility.yul\":9084:9086   */\n      0x20\n        /* \"#utility.yul\":9073:9082   */\n      dup4\n        /* \"#utility.yul\":9069:9087   */\n      add\n        /* \"#utility.yul\":9062:9110   */\n      mstore\n        /* \"#utility.yul\":9127:9205   */\n      tag_328\n        /* \"#utility.yul\":9200:9204   */\n      dup2\n        /* \"#utility.yul\":9191:9197   */\n      dup12\n        /* \"#utility.yul\":9127:9205   */\n      tag_174\n      jump\t// in\n    tag_328:\n        /* \"#utility.yul\":9119:9205   */\n      swap1\n      pop\n        /* \"#utility.yul\":9252:9261   */\n      dup2\n        /* \"#utility.yul\":9246:9250   */\n      dup2\n        /* \"#utility.yul\":9242:9262   */\n      sub\n        /* \"#utility.yul\":9237:9239   */\n      0x40\n        /* \"#utility.yul\":9226:9235   */\n      dup4\n        /* \"#utility.yul\":9222:9240   */\n      add\n        /* \"#utility.yul\":9215:9263   */\n      mstore\n        /* \"#utility.yul\":9280:9358   */\n      tag_329\n        /* \"#utility.yul\":9353:9357   */\n      dup2\n        /* \"#utility.yul\":9344:9350   */\n      dup11\n        /* \"#utility.yul\":9280:9358   */\n      tag_174\n      jump\t// in\n    tag_329:\n        /* \"#utility.yul\":9272:9358   */\n      swap1\n      pop\n        /* \"#utility.yul\":9368:9456   */\n      tag_330\n        /* \"#utility.yul\":9452:9454   */\n      0x60\n        /* \"#utility.yul\":9441:9450   */\n      dup4\n        /* \"#utility.yul\":9437:9455   */\n      add\n        /* \"#utility.yul\":9428:9434   */\n      dup10\n        /* \"#utility.yul\":9368:9456   */\n      tag_192\n      jump\t// in\n    tag_330:\n        /* \"#utility.yul\":9466:9539   */\n      tag_331\n        /* \"#utility.yul\":9534:9537   */\n      0x80\n        /* \"#utility.yul\":9523:9532   */\n      dup4\n        /* \"#utility.yul\":9519:9538   */\n      add\n        /* \"#utility.yul\":9510:9516   */\n      dup9\n        /* \"#utility.yul\":9466:9539   */\n      tag_177\n      jump\t// in\n    tag_331:\n        /* \"#utility.yul\":9549:9622   */\n      tag_332\n        /* \"#utility.yul\":9617:9620   */\n      0xa0\n        /* \"#utility.yul\":9606:9615   */\n      dup4\n        /* \"#utility.yul\":9602:9621   */\n      add\n        /* \"#utility.yul\":9593:9599   */\n      dup8\n        /* \"#utility.yul\":9549:9622   */\n      tag_169\n      jump\t// in\n    tag_332:\n        /* \"#utility.yul\":9632:9705   */\n      tag_333\n        /* \"#utility.yul\":9700:9703   */\n      0xc0\n        /* \"#utility.yul\":9689:9698   */\n      dup4\n        /* \"#utility.yul\":9685:9704   */\n      add\n        /* \"#utility.yul\":9676:9682   */\n      dup7\n        /* \"#utility.yul\":9632:9705   */\n      tag_169\n      jump\t// in\n    tag_333:\n        /* \"#utility.yul\":9715:9788   */\n      tag_334\n        /* \"#utility.yul\":9783:9786   */\n      0xe0\n        /* \"#utility.yul\":9772:9781   */\n      dup4\n        /* \"#utility.yul\":9768:9787   */\n      add\n        /* \"#utility.yul\":9759:9765   */\n      dup6\n        /* \"#utility.yul\":9715:9788   */\n      tag_169\n      jump\t// in\n    tag_334:\n        /* \"#utility.yul\":9798:9877   */\n      tag_335\n        /* \"#utility.yul\":9872:9875   */\n      0x0100\n        /* \"#utility.yul\":9861:9870   */\n      dup4\n        /* \"#utility.yul\":9857:9876   */\n      add\n        /* \"#utility.yul\":9848:9854   */\n      dup5\n        /* \"#utility.yul\":9798:9877   */\n      tag_181\n      jump\t// in\n    tag_335:\n        /* \"#utility.yul\":8550:9884   */\n      swap11\n      swap10\n      pop\n      pop\n      pop\n      pop\n      pop\n      pop\n      pop\n      pop\n      pop\n      pop\n      jump\t// out\n        /* \"#utility.yul\":9890:10070   */\n    tag_193:\n        /* \"#utility.yul\":9938:10015   */\n      0x4e487b7100000000000000000000000000000000000000000000000000000000\n        /* \"#utility.yul\":9935:9936   */\n      0x00\n        /* \"#utility.yul\":9928:10016   */\n      mstore\n        /* \"#utility.yul\":10035:10039   */\n      0x22\n        /* \"#utility.yul\":10032:10033   */\n      0x04\n        /* \"#utility.yul\":10025:10040   */\n      mstore\n        /* \"#utility.yul\":10059:10063   */\n      0x24\n        /* \"#utility.yul\":10056:10057   */\n      0x00\n        /* \"#utility.yul\":10049:10064   */\n      revert\n        /* \"#utility.yul\":10076:10396   */\n    tag_55:\n        /* \"#utility.yul\":10120:10126   */\n      0x00\n        /* \"#utility.yul\":10157:10158   */\n      0x02\n        /* \"#utility.yul\":10151:10155   */\n      dup3\n        /* \"#utility.yul\":10147:10159   */\n      div\n        /* \"#utility.yul\":10137:10159   */\n      swap1\n      pop\n        /* \"#utility.yul\":10204:10205   */\n      0x01\n        /* \"#utility.yul\":10198:10202   */\n      dup3\n        /* \"#utility.yul\":10194:10206   */\n      and\n        /* \"#utility.yul\":10225:10243   */\n      dup1\n        /* \"#utility.yul\":10215:10296   */\n      tag_338\n      jumpi\n        /* \"#utility.yul\":10281:10285   */\n      0x7f\n        /* \"#utility.yul\":10273:10279   */\n      dup3\n        /* \"#utility.yul\":10269:10286   */\n      and\n        /* \"#utility.yul\":10259:10286   */\n      swap2\n      pop\n        /* \"#utility.yul\":10215:10296   */\n    tag_338:\n        /* \"#utility.yul\":10343:10345   */\n      0x20\n        /* \"#utility.yul\":10335:10341   */\n      dup3\n        /* \"#utility.yul\":10332:10346   */\n      lt\n        /* \"#utility.yul\":10312:10330   */\n      dup2\n        /* \"#utility.yul\":10309:10347   */\n      sub\n        /* \"#utility.yul\":10306:10390   */\n      tag_339\n      jumpi\n        /* \"#utility.yul\":10362:10380   */\n      tag_340\n      tag_193\n      jump\t// in\n    tag_340:\n        /* \"#utility.yul\":10306:10390   */\n    tag_339:\n        /* \"#utility.yul\":10127:10396   */\n      pop\n        /* \"#utility.yul\":10076:10396   */\n      swap2\n      swap1\n      pop\n      jump\t// out\n        /* \"#utility.yul\":10402:10570   */\n    tag_194:\n        /* \"#utility.yul\":10542:10562   */\n      0x4e6f742070726f7065727479206f776e65720000000000000000000000000000\n        /* \"#utility.yul\":10538:10539   */\n      0x00\n        /* \"#utility.yul\":10530:10536   */\n      dup3\n        /* \"#utility.yul\":10526:10540   */\n      add\n        /* \"#utility.yul\":10519:10563   */\n      mstore\n        /* \"#utility.yul\":10402:10570   */\n      pop\n      jump\t// out\n        /* \"#utility.yul\":10576:10942   */\n    tag_195:\n        /* \"#utility.yul\":10718:10721   */\n      0x00\n        /* \"#utility.yul\":10739:10806   */\n      tag_343\n        /* \"#utility.yul\":10803:10805   */\n      0x12\n        /* \"#utility.yul\":10798:10801   */\n      dup4\n        /* \"#utility.yul\":10739:10806   */\n      tag_171\n      jump\t// in\n    tag_343:\n        /* \"#utility.yul\":10732:10806   */\n      swap2\n      pop\n        /* \"#utility.yul\":10815:10908   */\n      tag_344\n        /* \"#utility.yul\":10904:10907   */\n      dup3\n        /* \"#utility.yul\":10815:10908   */\n      tag_194\n      jump\t// in\n    tag_344:\n        /* \"#utility.yul\":10933:10935   */\n      0x20\n        /* \"#utility.yul\":10928:10931   */\n      dup3\n        /* \"#utility.yul\":10924:10936   */\n      add\n        /* \"#utility.yul\":10917:10936   */\n      swap1\n      pop\n        /* \"#utility.yul\":10576:10942   */\n      swap2\n      swap1\n      pop\n      jump\t// out\n        /* \"#utility.yul\":10948:11367   */\n    tag_73:\n        /* \"#utility.yul\":11114:11118   */\n      0x00\n        /* \"#utility.yul\":11152:11154   */\n      0x20\n        /* \"#utility.yul\":11141:11150   */\n      dup3\n        /* \"#utility.yul\":11137:11155   */\n      add\n        /* \"#utility.yul\":11129:11155   */\n      swap1\n      pop\n        /* \"#utility.yul\":11201:11210   */\n      dup2\n        /* \"#utility.yul\":11195:11199   */\n      dup2\n        /* \"#utility.yul\":11191:11211   */\n      sub\n        /* \"#utility.yul\":11187:11188   */\n      0x00\n        /* \"#utility.yul\":11176:11185   */\n      dup4\n        /* \"#utility.yul\":11172:11189   */\n      add\n        /* \"#utility.yul\":11165:11212   */\n      mstore\n        /* \"#utility.yul\":11229:11360   */\n      tag_346\n        /* \"#utility.yul\":11355:11359   */\n      dup2\n        /* \"#utility.yul\":11229:11360   */\n      tag_195\n      jump\t// in\n    tag_346:\n        /* \"#utility.yul\":11221:11360   */\n      swap1\n      pop\n        /* \"#utility.yul\":10948:11367   */\n      swap2\n      swap1\n      pop\n      jump\t// out\n        /* \"#utility.yul\":11373:11553   */\n    tag_196:\n        /* \"#utility.yul\":11421:11498   */\n      0x4e487b7100000000000000000000000000000000000000000000000000000000\n        /* \"#utility.yul\":11418:11419   */\n      0x00\n        /* \"#utility.yul\":11411:11499   */\n      mstore\n        /* \"#utility.yul\":11518:11522   */\n      0x11\n        /* \"#utility.yul\":11515:11516   */\n      0x04\n        /* \"#utility.yul\":11508:11523   */\n      mstore\n        /* \"#utility.yul\":11542:11546   */\n      0x24\n        /* \"#utility.yul\":11539:11540   */\n      0x00\n        /* \"#utility.yul\":11532:11547   */\n      revert\n        /* \"#utility.yul\":11559:11792   */\n    tag_77:\n        /* \"#utility.yul\":11598:11601   */\n      0x00\n        /* \"#utility.yul\":11621:11645   */\n      tag_349\n        /* \"#utility.yul\":11639:11644   */\n      dup3\n        /* \"#utility.yul\":11621:11645   */\n      tag_166\n      jump\t// in\n    tag_349:\n        /* \"#utility.yul\":11612:11645   */\n      swap2\n      pop\n        /* \"#utility.yul\":11667:11733   */\n      0xffffffffffffffffffffffffffffffffffffffffffffffffffffffffffffffff\n        /* \"#utility.yul\":11660:11665   */\n      dup3\n        /* \"#utility.yul\":11657:11734   */\n      sub\n        /* \"#utility.yul\":11654:11757   */\n      tag_350\n      jumpi\n        /* \"#utility.yul\":11737:11755   */\n      tag_351\n      tag_196\n      jump\t// in\n    tag_351:\n        /* \"#utility.yul\":11654:11757   */\n    tag_350:\n        /* \"#utility.yul\":11784:11785   */\n      0x01\n        /* \"#utility.yul\":11777:11782   */\n      dup3\n        /* \"#utility.yul\":11773:11786   */\n      add\n        /* \"#utility.yul\":11766:11786   */\n      swap1\n      pop\n        /* \"#utility.yul\":11559:11792   */\n      swap2\n      swap1\n      pop\n      jump\t// out\n        /* \"#utility.yul\":11798:11939   */\n    tag_197:\n        /* \"#utility.yul\":11847:11851   */\n      0x00\n        /* \"#utility.yul\":11870:11873   */\n      dup2\n        /* \"#utility.yul\":11862:11873   */\n      swap1\n      pop\n        /* \"#utility.yul\":11893:11896   */\n      dup2\n        /* \"#utility.yul\":11890:11891   */\n      0x00\n        /* \"#utility.yul\":11883:11897   */\n      mstore\n        /* \"#utility.yul\":11927:11931   */\n      0x20\n        /* \"#utility.yul\":11924:11925   */\n      0x00\n        /* \"#utility.yul\":11914:11932   */\n      keccak256\n        /* \"#utility.yul\":11906:11932   */\n      swap1\n      pop\n        /* \"#utility.yul\":11798:11939   */\n      swap2\n      swap1\n      pop\n      jump\t// out\n        /* \"#utility.yul\":11945:12038   */\n    tag_198:\n        /* \"#utility.yul\":11982:11988   */\n      0x00\n        /* \"#utility.yul\":12029:12031   */\n      0x20\n        /* \"#utility.yul\":12024:12026   */\n      0x1f\n        /* \"#utility.yul\":12017:12022   */\n      dup4\n        /* \"#utility.yul\":12013:12027   */\n      add\n        /* \"#utility.yul\":12009:12032   */\n      div\n        /* \"#utility.yul\":11999:12032   */\n      swap1\n      pop\n        /* \"#utility.yul\":11945:12038   */\n      swap2\n      swap1\n      pop\n      jump\t// out\n        /* \"#utility.yul\":12044:12151   */\n    tag_199:\n        /* \"#utility.yul\":12088:12096   */\n      0x00\n        /* \"#utility.yul\":12138:12143   */\n      dup3\n        /* \"#utility.yul\":12132:12136   */\n      dup3\n        /* \"#utility.yul\":12128:12144   */\n      shl\n        /* \"#utility.yul\":12107:12144   */\n      swap1\n      pop\n        /* \"#utility.yul\":12044:12151   */\n      swap3\n      swap2\n      pop\n      pop\n      jump\t// out\n        /* \"#utility.yul\":12157:12550   */\n    tag_200:\n        /* \"#utility.yul\":12226:12232   */\n      0x00\n        /* \"#utility.yul\":12276:12277   */\n      0x08\n        /* \"#utility.yul\":12264:12274   */\n      dup4\n        /* \"#utility.yul\":12260:12278   */\n      mul\n        /* \"#utility.yul\":12299:12396   */\n      tag_356\n        /* \"#utility.yul\":12329:12395   */\n      0xffffffffffffffffffffffffffffffffffffffffffffffffffffffffffffffff\n        /* \"#utility.yul\":12318:12327   */\n      dup3\n        /* \"#utility.yul\":12299:12396   */\n      tag_199\n      jump\t// in\n    tag_356:\n        /* \"#utility.yul\":12417:12456   */\n      tag_357\n        /* \"#utility.yul\":12447:12455   */\n      dup7\n        /* \"#utility.yul\":12436:12445   */\n      dup4\n        /* \"#utility.yul\":12417:12456   */\n      tag_199\n      jump\t// in\n    tag_357:\n        /* \"#utility.yul\":12405:12456   */\n      swap6\n      pop\n        /* \"#utility.yul\":12489:12493   */\n      dup1\n        /* \"#utility.yul\":12485:12494   */\n      not\n        /* \"#utility.yul\":12478:12483   */\n      dup5\n        /* \"#utility.yul\":12474:12495   */\n      and\n        /* \"#utility.yul\":12465:12495   */\n      swap4\n      pop\n        /* \"#utility.yul\":12538:12542   */\n      dup1\n        /* \"#utility.yul\":12528:12536   */\n      dup7\n        /* \"#utility.yul\":12524:12543   */\n      and\n        /* \"#utility.yul\":12517:12522   */\n      dup5\n        /* \"#utility.yul\":12514:12544   */\n      or\n        /* \"#utility.yul\":12504:12544   */\n      swap3\n      pop\n        /* \"#utility.yul\":12233:12550   */\n      pop\n      pop\n        /* \"#utility.yul\":12157:12550   */\n      swap4\n      swap3\n      pop\n      pop\n      pop\n      jump\t// out\n        /* \"#utility.yul\":12556:12616   */\n    tag_201:\n        /* \"#utility.yul\":12584:12587   */\n      0x00\n        /* \"#utility.yul\":12605:12610   */\n      dup2\n        /* \"#utility.yul\":12598:12610   */\n      swap1\n      pop\n        /* \"#utility.yul\":12556:12616   */\n      swap2\n      swap1\n      pop\n      jump\t// out\n        /* \"#utility.yul\":12622:12764   */\n    tag_202:\n        /* \"#utility.yul\":12672:12681   */\n      0x00\n        /* \"#utility.yul\":12705:12758   */\n      tag_360\n        /* \"#utility.yul\":12723:12757   */\n      tag_361\n        /* \"#utility.yul\":12732:12756   */\n      tag_362\n        /* \"#utility.yul\":12750:12755   */\n      dup5\n        /* \"#utility.yul\":12732:12756   */\n      tag_166\n      jump\t// in\n    tag_362:\n        /* \"#utility.yul\":12723:12757   */\n      tag_201\n      jump\t// in\n    tag_361:\n        /* \"#utility.yul\":12705:12758   */\n      tag_166\n      jump\t// in\n    tag_360:\n        /* \"#utility.yul\":12692:12758   */\n      swap1\n      pop\n        /* \"#utility.yul\":12622:12764   */\n      swap2\n      swap1\n      pop\n      jump\t// out\n        /* \"#utility.yul\":12770:12845   */\n    tag_203:\n        /* \"#utility.yul\":12813:12816   */\n      0x00\n        /* \"#utility.yul\":12834:12839   */\n      dup2\n        /* \"#utility.yul\":12827:12839   */\n      swap1\n      pop\n        /* \"#utility.yul\":12770:12845   */\n      swap2\n      swap1\n      pop\n      jump\t// out\n        /* \"#utility.yul\":12851:13120   */\n    tag_204:\n        /* \"#utility.yul\":12961:13000   */\n      tag_365\n        /* \"#utility.yul\":12992:12999   */\n      dup4\n        /* \"#utility.yul\":12961:13000   */\n      tag_202\n      jump\t// in\n    tag_365:\n        /* \"#utility.yul\":13022:13113   */\n      tag_366\n        /* \"#utility.yul\":13071:13112   */\n      tag_367\n        /* \"#utility.yul\":13095:13111   */\n      dup3\n        /* \"#utility.yul\":13071:13112   */\n      tag_203\n      jump\t// in\n    tag_367:\n        /* \"#utility.yul\":13063:13069   */\n      dup5\n        /* \"#utility.yul\":13056:13060   */\n      dup5\n        /* \"#utility.yul\":13050:13061   */\n      sload\n        /* \"#utility.yul\":13022:13113   */\n      tag_200\n      jump\t// in\n    tag_366:\n        /* \"#utility.yul\":13016:13020   */\n      dup3\n        /* \"#utility.yul\":13009:13114   */\n      sstore\n        /* \"#utility.yul\":12927:13120   */\n      pop\n        /* \"#utility.yul\":12851:13120   */\n      pop\n      pop\n      pop\n      jump\t// out\n        /* \"#utility.yul\":13126:13199   */\n    tag_205:\n        /* \"#utility.yul\":13171:13174   */\n      0x00\n        /* \"#utility.yul\":13126:13199   */\n      swap1\n      jump\t// out\n        /* \"#utility.yul\":13205:13394   */\n    tag_206:\n        /* \"#utility.yul\":13282:13314   */\n      tag_370\n      tag_205\n      jump\t// in\n    tag_370:\n        /* \"#utility.yul\":13323:13388   */\n      tag_371\n        /* \"#utility.yul\":13381:13387   */\n      dup2\n        /* \"#utility.yul\":13373:13379   */\n      dup5\n        /* \"#utility.yul\":13367:13371   */\n      dup5\n        /* \"#utility.yul\":13323:13388   */\n      tag_204\n      jump\t// in\n    tag_371:\n        /* \"#utility.yul\":13258:13394   */\n      pop\n        /* \"#utility.yul\":13205:13394   */\n      pop\n      pop\n      jump\t// out\n        /* \"#utility.yul\":13400:13586   */\n    tag_207:\n        /* \"#utility.yul\":13460:13580   */\n    tag_373:\n        /* \"#utility.yul\":13477:13480   */\n      dup2\n        /* \"#utility.yul\":13470:13475   */\n      dup2\n        /* \"#utility.yul\":13467:13481   */\n      lt\n        /* \"#utility.yul\":13460:13580   */\n      iszero\n      tag_375\n      jumpi\n        /* \"#utility.yul\":13531:13570   */\n      tag_376\n        /* \"#utility.yul\":13568:13569   */\n      0x00\n        /* \"#utility.yul\":13561:13566   */\n      dup3\n        /* \"#utility.yul\":13531:13570   */\n      tag_206\n      jump\t// in\n    tag_376:\n        /* \"#utility.yul\":13504:13505   */\n      0x01\n        /* \"#utility.yul\":13497:13502   */\n      dup2\n        /* \"#utility.yul\":13493:13506   */\n      add\n        /* \"#utility.yul\":13484:13506   */\n      swap1\n      pop\n        /* \"#utility.yul\":13460:13580   */\n      jump(tag_373)\n    tag_375:\n        /* \"#utility.yul\":13400:13586   */\n      pop\n      pop\n      jump\t// out\n        /* \"#utility.yul\":13592:14135   */\n    tag_208:\n        /* \"#utility.yul\":13693:13695   */\n      0x1f\n        /* \"#utility.yul\":13688:13691   */\n      dup3\n        /* \"#utility.yul\":13685:13696   */\n      gt\n        /* \"#utility.yul\":13682:14128   */\n      iszero\n      tag_378\n      jumpi\n        /* \"#utility.yul\":13727:13765   */\n      tag_379\n        /* \"#utility.yul\":13759:13764   */\n      dup2\n        /* \"#utility.yul\":13727:13765   */\n      tag_197\n      jump\t// in\n    tag_379:\n        /* \"#utility.yul\":13811:13840   */\n      tag_380\n        /* \"#utility.yul\":13829:13839   */\n      dup5\n        /* \"#utility.yul\":13811:13840   */\n      tag_198\n      jump\t// in\n    tag_380:\n        /* \"#utility.yul\":13801:13809   */\n      dup2\n        /* \"#utility.yul\":13797:13841   */\n      add\n        /* \"#utility.yul\":13994:13996   */\n      0x20\n        /* \"#utility.yul\":13982:13992   */\n      dup6\n        /* \"#utility.yul\":13979:13997   */\n      lt\n        /* \"#utility.yul\":13976:14025   */\n      iszero\n      tag_381\n      jumpi\n        /* \"#utility.yul\":14015:14023   */\n      dup2\n        /* \"#utility.yul\":14000:14023   */\n      swap1\n      pop\n        /* \"#utility.yul\":13976:14025   */\n    tag_381:\n        /* \"#utility.yul\":14038:14118   */\n      tag_382\n        /* \"#utility.yul\":14094:14116   */\n      tag_383\n        /* \"#utility.yul\":14112:14115   */\n      dup6\n        /* \"#utility.yul\":14094:14116   */\n      tag_198\n      jump\t// in\n    tag_383:\n        /* \"#utility.yul\":14084:14092   */\n      dup4\n        /* \"#utility.yul\":14080:14117   */\n      add\n        /* \"#utility.yul\":14067:14078   */\n      dup3\n        /* \"#utility.yul\":14038:14118   */\n      tag_207\n      jump\t// in\n    tag_382:\n        /* \"#utility.yul\":13697:14128   */\n      pop\n      pop\n        /* \"#utility.yul\":13682:14128   */\n    tag_378:\n        /* \"#utility.yul\":13592:14135   */\n      pop\n      pop\n      pop\n      jump\t// out\n        /* \"#utility.yul\":14141:14258   */\n    tag_209:\n        /* \"#utility.yul\":14195:14203   */\n      0x00\n        /* \"#utility.yul\":14245:14250   */\n      dup3\n        /* \"#utility.yul\":14239:14243   */\n      dup3\n        /* \"#utility.yul\":14235:14251   */\n      shr\n        /* \"#utility.yul\":14214:14251   */\n      swap1\n      pop\n        /* \"#utility.yul\":14141:14258   */\n      swap3\n      swap2\n      pop\n      pop\n      jump\t// out\n        /* \"#utility.yul\":14264:14433   */\n    tag_210:\n        /* \"#utility.yul\":14308:14314   */\n      0x00\n        /* \"#utility.yul\":14341:14392   */\n      tag_386\n        /* \"#utility.yul\":14389:14390   */\n      0x00\n        /* \"#utility.yul\":14385:14391   */\n      not\n        /* \"#utility.yul\":14377:14382   */\n      dup5\n        /* \"#utility.yul\":14374:14375   */\n      0x08\n        /* \"#utility.yul\":14370:14383   */\n      mul\n        /* \"#utility.yul\":14341:14392   */\n      tag_209\n      jump\t// in\n    tag_386:\n        /* \"#utility.yul\":14337:14393   */\n      not\n        /* \"#utility.yul\":14422:14426   */\n      dup1\n        /* \"#utility.yul\":14416:14420   */\n      dup4\n        /* \"#utility.yul\":14412:14427   */\n      and\n        /* \"#utility.yul\":14402:14427   */\n      swap2\n      pop\n        /* \"#utility.yul\":14315:14433   */\n      pop\n        /* \"#utility.yul\":14264:14433   */\n      swap3\n      swap2\n      pop\n      pop\n      jump\t// out\n        /* \"#utility.yul\":14438:14733   */\n    tag_211:\n        /* \"#utility.yul\":14514:14518   */\n      0x00\n        /* \"#utility.yul\":14660:14689   */\n      tag_388\n        /* \"#utility.yul\":14685:14688   */\n      dup4\n        /* \"#utility.yul\":14679:14683   */\n      dup4\n        /* \"#utility.yul\":14660:14689   */\n      tag_210\n      jump\t// in\n    tag_388:\n        /* \"#utility.yul\":14652:14689   */\n      swap2\n      pop\n        /* \"#utility.yul\":14722:14725   */\n      dup3\n        /* \"#utility.yul\":14719:14720   */\n      0x02\n        /* \"#utility.yul\":14715:14726   */\n      mul\n        /* \"#utility.yul\":14709:14713   */\n      dup3\n        /* \"#utility.yul\":14706:14727   */\n      or\n        /* \"#utility.yul\":14698:14727   */\n      swap1\n      pop\n        /* \"#utility.yul\":14438:14733   */\n      swap3\n      swap2\n      pop\n      pop\n      jump\t// out\n        /* \"#utility.yul\":14738:16133   */\n    tag_81:\n        /* \"#utility.yul\":14855:14892   */\n      tag_390\n        /* \"#utility.yul\":14888:14891   */\n      dup3\n        /* \"#utility.yul\":14855:14892   */\n      tag_170\n      jump\t// in\n    tag_390:\n        /* \"#utility.yul\":14957:14975   */\n      0xffffffffffffffff\n        /* \"#utility.yul\":14949:14955   */\n      dup2\n        /* \"#utility.yul\":14946:14976   */\n      gt\n        /* \"#utility.yul\":14943:14999   */\n      iszero\n      tag_391\n      jumpi\n        /* \"#utility.yul\":14979:14997   */\n      tag_392\n      tag_184\n      jump\t// in\n    tag_392:\n        /* \"#utility.yul\":14943:14999   */\n    tag_391:\n        /* \"#utility.yul\":15023:15061   */\n      tag_393\n        /* \"#utility.yul\":15055:15059   */\n      dup3\n        /* \"#utility.yul\":15049:15060   */\n      sload\n        /* \"#utility.yul\":15023:15061   */\n      tag_55\n      jump\t// in\n    tag_393:\n        /* \"#utility.yul\":15108:15175   */\n      tag_394\n        /* \"#utility.yul\":15168:15174   */\n      dup3\n        /* \"#utility.yul\":15160:15166   */\n      dup3\n        /* \"#utility.yul\":15154:15158   */\n      dup6\n        /* \"#utility.yul\":15108:15175   */\n      tag_208\n      jump\t// in\n    tag_394:\n        /* \"#utility.yul\":15202:15203   */\n      0x00\n        /* \"#utility.yul\":15226:15230   */\n      0x20\n        /* \"#utility.yul\":15213:15230   */\n      swap1\n      pop\n        /* \"#utility.yul\":15258:15260   */\n      0x1f\n        /* \"#utility.yul\":15250:15256   */\n      dup4\n        /* \"#utility.yul\":15247:15261   */\n      gt\n        /* \"#utility.yul\":15275:15276   */\n      0x01\n        /* \"#utility.yul\":15270:15888   */\n      dup2\n      eq\n      tag_396\n      jumpi\n        /* \"#utility.yul\":15932:15933   */\n      0x00\n        /* \"#utility.yul\":15949:15955   */\n      dup5\n        /* \"#utility.yul\":15946:16023   */\n      iszero\n      tag_397\n      jumpi\n        /* \"#utility.yul\":15998:16007   */\n      dup3\n        /* \"#utility.yul\":15993:15996   */\n      dup8\n        /* \"#utility.yul\":15989:16008   */\n      add\n        /* \"#utility.yul\":15983:16009   */\n      mload\n        /* \"#utility.yul\":15974:16009   */\n      swap1\n      pop\n        /* \"#utility.yul\":15946:16023   */\n    tag_397:\n        /* \"#utility.yul\":16049:16116   */\n      tag_398\n        /* \"#utility.yul\":16109:16115   */\n      dup6\n        /* \"#utility.yul\":16102:16107   */\n      dup3\n        /* \"#utility.yul\":16049:16116   */\n      tag_211\n      jump\t// in\n    tag_398:\n        /* \"#utility.yul\":16043:16047   */\n      dup7\n        /* \"#utility.yul\":16036:16117   */\n      sstore\n        /* \"#utility.yul\":15905:16127   */\n      pop\n        /* \"#utility.yul\":15240:16127   */\n      jump(tag_395)\n        /* \"#utility.yul\":15270:15888   */\n    tag_396:\n        /* \"#utility.yul\":15322:15326   */\n      0x1f\n        /* \"#utility.yul\":15318:15327   */\n      not\n        /* \"#utility.yul\":15310:15316   */\n      dup5\n        /* \"#utility.yul\":15306:15328   */\n      and\n        /* \"#utility.yul\":15356:15393   */\n      tag_399\n        /* \"#utility.yul\":15388:15392   */\n      dup7\n        /* \"#utility.yul\":15356:15393   */\n      tag_197\n      jump\t// in\n    tag_399:\n        /* \"#utility.yul\":15415:15416   */\n      0x00\n        /* \"#utility.yul\":15429:15637   */\n    tag_400:\n        /* \"#utility.yul\":15443:15450   */\n      dup3\n        /* \"#utility.yul\":15440:15441   */\n      dup2\n        /* \"#utility.yul\":15437:15451   */\n      lt\n        /* \"#utility.yul\":15429:15637   */\n      iszero\n      tag_402\n      jumpi\n        /* \"#utility.yul\":15522:15531   */\n      dup5\n        /* \"#utility.yul\":15517:15520   */\n      dup10\n        /* \"#utility.yul\":15513:15532   */\n      add\n        /* \"#utility.yul\":15507:15533   */\n      mload\n        /* \"#utility.yul\":15499:15505   */\n      dup3\n        /* \"#utility.yul\":15492:15534   */\n      sstore\n        /* \"#utility.yul\":15573:15574   */\n      0x01\n        /* \"#utility.yul\":15565:15571   */\n      dup3\n        /* \"#utility.yul\":15561:15575   */\n      add\n        /* \"#utility.yul\":15551:15575   */\n      swap2\n      pop\n        /* \"#utility.yul\":15620:15622   */\n      0x20\n        /* \"#utility.yul\":15609:15618   */\n      dup6\n        /* \"#utility.yul\":15605:15623   */\n      add\n        /* \"#utility.yul\":15592:15623   */\n      swap5\n      pop\n        /* \"#utility.yul\":15466:15470   */\n      0x20\n        /* \"#utility.yul\":15463:15464   */\n      dup2\n        /* \"#utility.yul\":15459:15471   */\n      add\n        /* \"#utility.yul\":15454:15471   */\n      swap1\n      pop\n        /* \"#utility.yul\":15429:15637   */\n      jump(tag_400)\n    tag_402:\n        /* \"#utility.yul\":15665:15671   */\n      dup7\n        /* \"#utility.yul\":15656:15663   */\n      dup4\n        /* \"#utility.yul\":15653:15672   */\n      lt\n        /* \"#utility.yul\":15650:15829   */\n      iszero\n      tag_403\n      jumpi\n        /* \"#utility.yul\":15723:15732   */\n      dup5\n        /* \"#utility.yul\":15718:15721   */\n      dup10\n        /* \"#utility.yul\":15714:15733   */\n      add\n        /* \"#utility.yul\":15708:15734   */\n      mload\n        /* \"#utility.yul\":15766:15814   */\n      tag_404\n        /* \"#utility.yul\":15808:15812   */\n      0x1f\n        /* \"#utility.yul\":15800:15806   */\n      dup10\n        /* \"#utility.yul\":15796:15813   */\n      and\n        /* \"#utility.yul\":15785:15794   */\n      dup3\n        /* \"#utility.yul\":15766:15814   */\n      tag_210\n      jump\t// in\n    tag_404:\n        /* \"#utility.yul\":15758:15764   */\n      dup4\n        /* \"#utility.yul\":15751:15815   */\n      sstore\n        /* \"#utility.yul\":15673:15829   */\n      pop\n        /* \"#utility.yul\":15650:15829   */\n    tag_403:\n        /* \"#utility.yul\":15875:15876   */\n      0x01\n        /* \"#utility.yul\":15871:15872   */\n      0x02\n        /* \"#utility.yul\":15863:15869   */\n      dup9\n        /* \"#utility.yul\":15859:15873   */\n      mul\n        /* \"#utility.yul\":15855:15877   */\n      add\n        /* \"#utility.yul\":15849:15853   */\n      dup9\n        /* \"#utility.yul\":15842:15878   */\n      sstore\n        /* \"#utility.yul\":15277:15888   */\n      pop\n      pop\n      pop\n        /* \"#utility.yul\":15240:16127   */\n    tag_395:\n      pop\n        /* \"#utility.yul\":14830:16133   */\n      pop\n      pop\n      pop\n        /* \"#utility.yul\":14738:16133   */\n      pop\n      pop\n      jump\t// out\n        /* \"#utility.yul\":16139:16312   */\n    tag_212:\n        /* \"#utility.yul\":16279:16304   */\n      0x4f6e6c79206f776e65722063616e207769746864726177000000000000000000\n        /* \"#utility.yul\":16275:16276   */\n      0x00\n        /* \"#utility.yul\":16267:16273   */\n      dup3\n        /* \"#utility.yul\":16263:16277   */\n      add\n        /* \"#utility.yul\":16256:16305   */\n      mstore\n        /* \"#utility.yul\":16139:16312   */\n      pop\n      jump\t// out\n        /* \"#utility.yul\":16318:16684   */\n    tag_213:\n        /* \"#utility.yul\":16460:16463   */\n      0x00\n        /* \"#utility.yul\":16481:16548   */\n      tag_407\n        /* \"#utility.yul\":16545:16547   */\n      0x17\n        /* \"#utility.yul\":16540:16543   */\n      dup4\n        /* \"#utility.yul\":16481:16548   */\n      tag_171\n      jump\t// in\n    tag_407:\n        /* \"#utility.yul\":16474:16548   */\n      swap2\n      pop\n        /* \"#utility.yul\":16557:16650   */\n      tag_408\n        /* \"#utility.yul\":16646:16649   */\n      dup3\n        /* \"#utility.yul\":16557:16650   */\n      tag_212\n      jump\t// in\n    tag_408:\n        /* \"#utility.yul\":16675:16677   */\n      0x20\n        /* \"#utility.yul\":16670:16673   */\n      dup3\n        /* \"#utility.yul\":16666:16678   */\n      add\n        /* \"#utility.yul\":16659:16678   */\n      swap1\n      pop\n        /* \"#utility.yul\":16318:16684   */\n      swap2\n      swap1\n      pop\n      jump\t// out\n        /* \"#utility.yul\":16690:17109   */\n    tag_88:\n        /* \"#utility.yul\":16856:16860   */\n      0x00\n        /* \"#utility.yul\":16894:16896   */\n      0x20\n        /* \"#utility.yul\":16883:16892   */\n      dup3\n        /* \"#utility.yul\":16879:16897   */\n      add\n        /* \"#utility.yul\":16871:16897   */\n      swap1\n      pop\n        /* \"#utility.yul\":16943:16952   */\n      dup2\n        /* \"#utility.yul\":16937:16941   */\n      dup2\n        /* \"#utility.yul\":16933:16953   */\n      sub\n        /* \"#utility.yul\":16929:16930   */\n      0x00\n        /* \"#utility.yul\":16918:16927   */\n      dup4\n        /* \"#utility.yul\":16914:16931   */\n      add\n        /* \"#utility.yul\":16907:16954   */\n      mstore\n        /* \"#utility.yul\":16971:17102   */\n      tag_410\n        /* \"#utility.yul\":17097:17101   */\n      dup2\n        /* \"#utility.yul\":16971:17102   */\n      tag_213\n      jump\t// in\n    tag_410:\n        /* \"#utility.yul\":16963:17102   */\n      swap1\n      pop\n        /* \"#utility.yul\":16690:17109   */\n      swap2\n      swap1\n      pop\n      jump\t// out\n        /* \"#utility.yul\":17115:17287   */\n    tag_214:\n        /* \"#utility.yul\":17255:17279   */\n      0x50726f7065727479206973206e6f742072656e74656400000000000000000000\n        /* \"#utility.yul\":17251:17252   */\n      0x00\n        /* \"#utility.yul\":17243:17249   */\n      dup3\n        /* \"#utility.yul\":17239:17253   */\n      add\n        /* \"#utility.yul\":17232:17280   */\n      mstore\n        /* \"#utility.yul\":17115:17287   */\n      pop\n      jump\t// out\n        /* \"#utility.yul\":17293:17659   */\n    tag_215:\n        /* \"#utility.yul\":17435:17438   */\n      0x00\n        /* \"#utility.yul\":17456:17523   */\n      tag_413\n        /* \"#utility.yul\":17520:17522   */\n      0x16\n        /* \"#utility.yul\":17515:17518   */\n      dup4\n        /* \"#utility.yul\":17456:17523   */\n      tag_171\n      jump\t// in\n    tag_413:\n        /* \"#utility.yul\":17449:17523   */\n      swap2\n      pop\n        /* \"#utility.yul\":17532:17625   */\n      tag_414\n        /* \"#utility.yul\":17621:17624   */\n      dup3\n        /* \"#utility.yul\":17532:17625   */\n      tag_214\n      jump\t// in\n    tag_414:\n        /* \"#utility.yul\":17650:17652   */\n      0x20\n        /* \"#utility.yul\":17645:17648   */\n      dup3\n        /* \"#utility.yul\":17641:17653   */\n      add\n        /* \"#utility.yul\":17634:17653   */\n      swap1\n      pop\n        /* \"#utility.yul\":17293:17659   */\n      swap2\n      swap1\n      pop\n      jump\t// out\n        /* \"#utility.yul\":17665:18084   */\n    tag_98:\n        /* \"#utility.yul\":17831:17835   */\n      0x00\n        /* \"#utility.yul\":17869:17871   */\n      0x20\n        /* \"#utility.yul\":17858:17867   */\n      dup3\n        /* \"#utility.yul\":17854:17872   */\n      add\n        /* \"#utility.yul\":17846:17872   */\n      swap1\n      pop\n        /* \"#utility.yul\":17918:17927   */\n      dup2\n        /* \"#utility.yul\":17912:17916   */\n      dup2\n        /* \"#utility.yul\":17908:17928   */\n      sub\n        /* \"#utility.yul\":17904:17905   */\n      0x00\n        /* \"#utility.yul\":17893:17902   */\n      dup4\n        /* \"#utility.yul\":17889:17906   */\n      add\n        /* \"#utility.yul\":17882:17929   */\n      mstore\n        /* \"#utility.yul\":17946:18077   */\n      tag_416\n        /* \"#utility.yul\":18072:18076   */\n      dup2\n        /* \"#utility.yul\":17946:18077   */\n      tag_215\n      jump\t// in\n    tag_416:\n        /* \"#utility.yul\":17938:18077   */\n      swap1\n      pop\n        /* \"#utility.yul\":17665:18084   */\n      swap2\n      swap1\n      pop\n      jump\t// out\n        /* \"#utility.yul\":18090:18312   */\n    tag_216:\n        /* \"#utility.yul\":18230:18264   */\n      0x4f6e6c79206f776e6572206f722072656e7465722063616e20656e642072656e\n        /* \"#utility.yul\":18226:18227   */\n      0x00\n        /* \"#utility.yul\":18218:18224   */\n      dup3\n        /* \"#utility.yul\":18214:18228   */\n      add\n        /* \"#utility.yul\":18207:18265   */\n      mstore\n        /* \"#utility.yul\":18299:18304   */\n      0x74616c0000000000000000000000000000000000000000000000000000000000\n        /* \"#utility.yul\":18294:18296   */\n      0x20\n        /* \"#utility.yul\":18286:18292   */\n      dup3\n        /* \"#utility.yul\":18282:18297   */\n      add\n        /* \"#utility.yul\":18275:18305   */\n      mstore\n        /* \"#utility.yul\":18090:18312   */\n      pop\n      jump\t// out\n        /* \"#utility.yul\":18318:18684   */\n    tag_217:\n        /* \"#utility.yul\":18460:18463   */\n      0x00\n        /* \"#utility.yul\":18481:18548   */\n      tag_419\n        /* \"#utility.yul\":18545:18547   */\n      0x23\n        /* \"#utility.yul\":18540:18543   */\n      dup4\n        /* \"#utility.yul\":18481:18548   */\n      tag_171\n      jump\t// in\n    tag_419:\n        /* \"#utility.yul\":18474:18548   */\n      swap2\n      pop\n        /* \"#utility.yul\":18557:18650   */\n      tag_420\n        /* \"#utility.yul\":18646:18649   */\n      dup3\n        /* \"#utility.yul\":18557:18650   */\n      tag_216\n      jump\t// in\n    tag_420:\n        /* \"#utility.yul\":18675:18677   */\n      0x40\n        /* \"#utility.yul\":18670:18673   */\n      dup3\n        /* \"#utility.yul\":18666:18678   */\n      add\n        /* \"#utility.yul\":18659:18678   */\n      swap1\n      pop\n        /* \"#utility.yul\":18318:18684   */\n      swap2\n      swap1\n      pop\n      jump\t// out\n        /* \"#utility.yul\":18690:19109   */\n    tag_103:\n        /* \"#utility.yul\":18856:18860   */\n      0x00\n        /* \"#utility.yul\":18894:18896   */\n      0x20\n        /* \"#utility.yul\":18883:18892   */\n      dup3\n        /* \"#utility.yul\":18879:18897   */\n      add\n        /* \"#utility.yul\":18871:18897   */\n      swap1\n      pop\n        /* \"#utility.yul\":18943:18952   */\n      dup2\n        /* \"#utility.yul\":18937:18941   */\n      dup2\n        /* \"#utility.yul\":18933:18953   */\n      sub\n        /* \"#utility.yul\":18929:18930   */\n      0x00\n        /* \"#utility.yul\":18918:18927   */\n      dup4\n        /* \"#utility.yul\":18914:18931   */\n      add\n        /* \"#utility.yul\":18907:18954   */\n      mstore\n        /* \"#utility.yul\":18971:19102   */\n      tag_422\n        /* \"#utility.yul\":19097:19101   */\n      dup2\n        /* \"#utility.yul\":18971:19102   */\n      tag_217\n      jump\t// in\n    tag_422:\n        /* \"#utility.yul\":18963:19102   */\n      swap1\n      pop\n        /* \"#utility.yul\":18690:19109   */\n      swap2\n      swap1\n      pop\n      jump\t// out\n        /* \"#utility.yul\":19115:19290   */\n    tag_218:\n        /* \"#utility.yul\":19255:19282   */\n      0x50726f7065727479206973206e6f7420617661696c61626c6500000000000000\n        /* \"#utility.yul\":19251:19252   */\n      0x00\n        /* \"#utility.yul\":19243:19249   */\n      dup3\n        /* \"#utility.yul\":19239:19253   */\n      add\n        /* \"#utility.yul\":19232:19283   */\n      mstore\n        /* \"#utility.yul\":19115:19290   */\n      pop\n      jump\t// out\n        /* \"#utility.yul\":19296:19662   */\n    tag_219:\n        /* \"#utility.yul\":19438:19441   */\n      0x00\n        /* \"#utility.yul\":19459:19526   */\n      tag_425\n        /* \"#utility.yul\":19523:19525   */\n      0x19\n        /* \"#utility.yul\":19518:19521   */\n      dup4\n        /* \"#utility.yul\":19459:19526   */\n      tag_171\n      jump\t// in\n    tag_425:\n        /* \"#utility.yul\":19452:19526   */\n      swap2\n      pop\n        /* \"#utility.yul\":19535:19628   */\n      tag_426\n        /* \"#utility.yul\":19624:19627   */\n      dup3\n        /* \"#utility.yul\":19535:19628   */\n      tag_218\n      jump\t// in\n    tag_426:\n        /* \"#utility.yul\":19653:19655   */\n      0x20\n        /* \"#utility.yul\":19648:19651   */\n      dup3\n        /* \"#utility.yul\":19644:19656   */\n      add\n        /* \"#utility.yul\":19637:19656   */\n      swap1\n      pop\n        /* \"#utility.yul\":19296:19662   */\n      swap2\n      swap1\n      pop\n      jump\t// out\n        /* \"#utility.yul\":19668:20087   */\n    tag_116:\n        /* \"#utility.yul\":19834:19838   */\n      0x00\n        /* \"#utility.yul\":19872:19874   */\n      0x20\n        /* \"#utility.yul\":19861:19870   */\n      dup3\n        /* \"#utility.yul\":19857:19875   */\n      add\n        /* \"#utility.yul\":19849:19875   */\n      swap1\n      pop\n        /* \"#utility.yul\":19921:19930   */\n      dup2\n        /* \"#utility.yul\":19915:19919   */\n      dup2\n        /* \"#utility.yul\":19911:19931   */\n      sub\n        /* \"#utility.yul\":19907:19908   */\n      0x00\n        /* \"#utility.yul\":19896:19905   */\n      dup4\n        /* \"#utility.yul\":19892:19909   */\n      add\n        /* \"#utility.yul\":19885:19932   */\n      mstore\n        /* \"#utility.yul\":19949:20080   */\n      tag_428\n        /* \"#utility.yul\":20075:20079   */\n      dup2\n        /* \"#utility.yul\":19949:20080   */\n      tag_219\n      jump\t// in\n    tag_428:\n        /* \"#utility.yul\":19941:20080   */\n      swap1\n      pop\n        /* \"#utility.yul\":19668:20087   */\n      swap2\n      swap1\n      pop\n      jump\t// out\n        /* \"#utility.yul\":20093:20316   */\n    tag_220:\n        /* \"#utility.yul\":20233:20267   */\n      0x4f776e65722063616e6e6f742072656e74207468656972206f776e2070726f70\n        /* \"#utility.yul\":20229:20230   */\n      0x00\n        /* \"#utility.yul\":20221:20227   */\n      dup3\n        /* \"#utility.yul\":20217:20231   */\n      add\n        /* \"#utility.yul\":20210:20268   */\n      mstore\n        /* \"#utility.yul\":20302:20308   */\n      0x6572747900000000000000000000000000000000000000000000000000000000\n        /* \"#utility.yul\":20297:20299   */\n      0x20\n        /* \"#utility.yul\":20289:20295   */\n      dup3\n        /* \"#utility.yul\":20285:20300   */\n      add\n        /* \"#utility.yul\":20278:20309   */\n      mstore\n        /* \"#utility.yul\":20093:20316   */\n      pop\n      jump\t// out\n        /* \"#utility.yul\":20322:20688   */\n    tag_221:\n        /* \"#utility.yul\":20464:20467   */\n      0x00\n        /* \"#utility.yul\":20485:20552   */\n      tag_431\n        /* \"#utility.yul\":20549:20551   */\n      0x24\n        /* \"#utility.yul\":20544:20547   */\n      dup4\n        /* \"#utility.yul\":20485:20552   */\n      tag_171\n      jump\t// in\n    tag_431:\n        /* \"#utility.yul\":20478:20552   */\n      swap2\n      pop\n        /* \"#utility.yul\":20561:20654   */\n      tag_432\n        /* \"#utility.yul\":20650:20653   */\n      dup3\n        /* \"#utility.yul\":20561:20654   */\n      tag_220\n      jump\t// in\n    tag_432:\n        /* \"#utility.yul\":20679:20681   */\n      0x40\n        /* \"#utility.yul\":20674:20677   */\n      dup3\n        /* \"#utility.yul\":20670:20682   */\n      add\n        /* \"#utility.yul\":20663:20682   */\n      swap1\n      pop\n        /* \"#utility.yul\":20322:20688   */\n      swap2\n      swap1\n      pop\n      jump\t// out\n        /* \"#utility.yul\":20694:21113   */\n    tag_120:\n        /* \"#utility.yul\":20860:20864   */\n      0x00\n        /* \"#utility.yul\":20898:20900   */\n      0x20\n        /* \"#utility.yul\":20887:20896   */\n      dup3\n        /* \"#utility.yul\":20883:20901   */\n      add\n        /* \"#utility.yul\":20875:20901   */\n      swap1\n      pop\n        /* \"#utility.yul\":20947:20956   */\n      dup2\n        /* \"#utility.yul\":20941:20945   */\n      dup2\n        /* \"#utility.yul\":20937:20957   */\n      sub\n        /* \"#utility.yul\":20933:20934   */\n      0x00\n        /* \"#utility.yul\":20922:20931   */\n      dup4\n        /* \"#utility.yul\":20918:20935   */\n      add\n        /* \"#utility.yul\":20911:20958   */\n      mstore\n        /* \"#utility.yul\":20975:21106   */\n      tag_434\n        /* \"#utility.yul\":21101:21105   */\n      dup2\n        /* \"#utility.yul\":20975:21106   */\n      tag_221\n      jump\t// in\n    tag_434:\n        /* \"#utility.yul\":20967:21106   */\n      swap1\n      pop\n        /* \"#utility.yul\":20694:21113   */\n      swap2\n      swap1\n      pop\n      jump\t// out\n        /* \"#utility.yul\":21119:21310   */\n    tag_122:\n        /* \"#utility.yul\":21159:21162   */\n      0x00\n        /* \"#utility.yul\":21178:21198   */\n      tag_436\n        /* \"#utility.yul\":21196:21197   */\n      dup3\n        /* \"#utility.yul\":21178:21198   */\n      tag_166\n      jump\t// in\n    tag_436:\n        /* \"#utility.yul\":21173:21198   */\n      swap2\n      pop\n        /* \"#utility.yul\":21212:21232   */\n      tag_437\n        /* \"#utility.yul\":21230:21231   */\n      dup4\n        /* \"#utility.yul\":21212:21232   */\n      tag_166\n      jump\t// in\n    tag_437:\n        /* \"#utility.yul\":21207:21232   */\n      swap3\n      pop\n        /* \"#utility.yul\":21255:21256   */\n      dup3\n        /* \"#utility.yul\":21252:21253   */\n      dup3\n        /* \"#utility.yul\":21248:21257   */\n      add\n        /* \"#utility.yul\":21241:21257   */\n      swap1\n      pop\n        /* \"#utility.yul\":21276:21279   */\n      dup1\n        /* \"#utility.yul\":21273:21274   */\n      dup3\n        /* \"#utility.yul\":21270:21280   */\n      gt\n        /* \"#utility.yul\":21267:21303   */\n      iszero\n      tag_438\n      jumpi\n        /* \"#utility.yul\":21283:21301   */\n      tag_439\n      tag_196\n      jump\t// in\n    tag_439:\n        /* \"#utility.yul\":21267:21303   */\n    tag_438:\n        /* \"#utility.yul\":21119:21310   */\n      swap3\n      swap2\n      pop\n      pop\n      jump\t// out\n        /* \"#utility.yul\":21316:21538   */\n    tag_222:\n        /* \"#utility.yul\":21456:21490   */\n      0x496e73756666696369656e742072656e74207061796d656e74202b206465706f\n        /* \"#utility.yul\":21452:21453   */\n      0x00\n        /* \"#utility.yul\":21444:21450   */\n      dup3\n        /* \"#utility.yul\":21440:21454   */\n      add\n        /* \"#utility.yul\":21433:21491   */\n      mstore\n        /* \"#utility.yul\":21525:21530   */\n      0x7369740000000000000000000000000000000000000000000000000000000000\n        /* \"#utility.yul\":21520:21522   */\n      0x20\n        /* \"#utility.yul\":21512:21518   */\n      dup3\n        /* \"#utility.yul\":21508:21523   */\n      add\n        /* \"#utility.yul\":21501:21531   */\n      mstore\n        /* \"#utility.yul\":21316:21538   */\n      pop\n      jump\t// out\n        /* \"#utility.yul\":21544:21910   */\n    tag_223:\n        /* \"#utility.yul\":21686:21689   */\n      0x00\n        /* \"#utility.yul\":21707:21774   */\n      tag_442\n        /* \"#utility.yul\":21771:21773   */\n      0x23\n        /* \"#utility.yul\":21766:21769   */\n      dup4\n        /* \"#utility.yul\":21707:21774   */\n      tag_171\n      jump\t// in\n    tag_442:\n        /* \"#utility.yul\":21700:21774   */\n      swap2\n      pop\n        /* \"#utility.yul\":21783:21876   */\n      tag_443\n        /* \"#utility.yul\":21872:21875   */\n      dup3\n        /* \"#utility.yul\":21783:21876   */\n      tag_222\n      jump\t// in\n    tag_443:\n        /* \"#utility.yul\":21901:21903   */\n      0x40\n        /* \"#utility.yul\":21896:21899   */\n      dup3\n        /* \"#utility.yul\":21892:21904   */\n      add\n        /* \"#utility.yul\":21885:21904   */\n      swap1\n      pop\n        /* \"#utility.yul\":21544:21910   */\n      swap2\n      swap1\n      pop\n      jump\t// out\n        /* \"#utility.yul\":21916:22335   */\n    tag_125:\n        /* \"#utility.yul\":22082:22086   */\n      0x00\n        /* \"#utility.yul\":22120:22122   */\n      0x20\n        /* \"#utility.yul\":22109:22118   */\n      dup3\n        /* \"#utility.yul\":22105:22123   */\n      add\n        /* \"#utility.yul\":22097:22123   */\n      swap1\n      pop\n        /* \"#utility.yul\":22169:22178   */\n      dup2\n        /* \"#utility.yul\":22163:22167   */\n      dup2\n        /* \"#utility.yul\":22159:22179   */\n      sub\n        /* \"#utility.yul\":22155:22156   */\n      0x00\n        /* \"#utility.yul\":22144:22153   */\n      dup4\n        /* \"#utility.yul\":22140:22157   */\n      add\n        /* \"#utility.yul\":22133:22180   */\n      mstore\n        /* \"#utility.yul\":22197:22328   */\n      tag_445\n        /* \"#utility.yul\":22323:22327   */\n      dup2\n        /* \"#utility.yul\":22197:22328   */\n      tag_223\n      jump\t// in\n    tag_445:\n        /* \"#utility.yul\":22189:22328   */\n      swap1\n      pop\n        /* \"#utility.yul\":21916:22335   */\n      swap2\n      swap1\n      pop\n      jump\t// out\n        /* \"#utility.yul\":22341:22518   */\n    tag_224:\n        /* \"#utility.yul\":22481:22510   */\n      0x4e6f742072656e746572206f6620746869732070726f70657274790000000000\n        /* \"#utility.yul\":22477:22478   */\n      0x00\n        /* \"#utility.yul\":22469:22475   */\n      dup3\n        /* \"#utility.yul\":22465:22479   */\n      add\n        /* \"#utility.yul\":22458:22511   */\n      mstore\n        /* \"#utility.yul\":22341:22518   */\n      pop\n      jump\t// out\n        /* \"#utility.yul\":22524:22890   */\n    tag_225:\n        /* \"#utility.yul\":22666:22669   */\n      0x00\n        /* \"#utility.yul\":22687:22754   */\n      tag_448\n        /* \"#utility.yul\":22751:22753   */\n      0x1b\n        /* \"#utility.yul\":22746:22749   */\n      dup4\n        /* \"#utility.yul\":22687:22754   */\n      tag_171\n      jump\t// in\n    tag_448:\n        /* \"#utility.yul\":22680:22754   */\n      swap2\n      pop\n        /* \"#utility.yul\":22763:22856   */\n      tag_449\n        /* \"#utility.yul\":22852:22855   */\n      dup3\n        /* \"#utility.yul\":22763:22856   */\n      tag_224\n      jump\t// in\n    tag_449:\n        /* \"#utility.yul\":22881:22883   */\n      0x20\n        /* \"#utility.yul\":22876:22879   */\n      dup3\n        /* \"#utility.yul\":22872:22884   */\n      add\n        /* \"#utility.yul\":22865:22884   */\n      swap1\n      pop\n        /* \"#utility.yul\":22524:22890   */\n      swap2\n      swap1\n      pop\n      jump\t// out\n        /* \"#utility.yul\":22896:23315   */\n    tag_135:\n        /* \"#utility.yul\":23062:23066   */\n      0x00\n        /* \"#utility.yul\":23100:23102   */\n      0x20\n        /* \"#utility.yul\":23089:23098   */\n      dup3\n        /* \"#utility.yul\":23085:23103   */\n      add\n        /* \"#utility.yul\":23077:23103   */\n      swap1\n      pop\n        /* \"#utility.yul\":23149:23158   */\n      dup2\n        /* \"#utility.yul\":23143:23147   */\n      dup2\n        /* \"#utility.yul\":23139:23159   */\n      sub\n        /* \"#utility.yul\":23135:23136   */\n      0x00\n        /* \"#utility.yul\":23124:23133   */\n      dup4\n        /* \"#utility.yul\":23120:23137   */\n      add\n        /* \"#utility.yul\":23113:23160   */\n      mstore\n        /* \"#utility.yul\":23177:23308   */\n      tag_451\n        /* \"#utility.yul\":23303:23307   */\n      dup2\n        /* \"#utility.yul\":23177:23308   */\n      tag_225\n      jump\t// in\n    tag_451:\n        /* \"#utility.yul\":23169:23308   */\n      swap1\n      pop\n        /* \"#utility.yul\":22896:23315   */\n      swap2\n      swap1\n      pop\n      jump\t// out\n        /* \"#utility.yul\":23321:23494   */\n    tag_226:\n        /* \"#utility.yul\":23461:23486   */\n      0x52656e74657220686173206e6f74207061696420796574000000000000000000\n        /* \"#utility.yul\":23457:23458   */\n      0x00\n        /* \"#utility.yul\":23449:23455   */\n      dup3\n        /* \"#utility.yul\":23445:23459   */\n      add\n        /* \"#utility.yul\":23438:23487   */\n      mstore\n        /* \"#utility.yul\":23321:23494   */\n      pop\n      jump\t// out\n        /* \"#utility.yul\":23500:23866   */\n    tag_227:\n        /* \"#utility.yul\":23642:23645   */\n      0x00\n        /* \"#utility.yul\":23663:23730   */\n      tag_454\n        /* \"#utility.yul\":23727:23729   */\n      0x17\n        /* \"#utility.yul\":23722:23725   */\n      dup4\n        /* \"#utility.yul\":23663:23730   */\n      tag_171\n      jump\t// in\n    tag_454:\n        /* \"#utility.yul\":23656:23730   */\n      swap2\n      pop\n        /* \"#utility.yul\":23739:23832   */\n      tag_455\n        /* \"#utility.yul\":23828:23831   */\n      dup3\n        /* \"#utility.yul\":23739:23832   */\n      tag_226\n      jump\t// in\n    tag_455:\n        /* \"#utility.yul\":23857:23859   */\n      0x20\n        /* \"#utility.yul\":23852:23855   */\n      dup3\n        /* \"#utility.yul\":23848:23860   */\n      add\n        /* \"#utility.yul\":23841:23860   */\n      swap1\n      pop\n        /* \"#utility.yul\":23500:23866   */\n      swap2\n      swap1\n      pop\n      jump\t// out\n        /* \"#utility.yul\":23872:24291   */\n    tag_146:\n        /* \"#utility.yul\":24038:24042   */\n      0x00\n        /* \"#utility.yul\":24076:24078   */\n      0x20\n        /* \"#utility.yul\":24065:24074   */\n      dup3\n        /* \"#utility.yul\":24061:24079   */\n      add\n        /* \"#utility.yul\":24053:24079   */\n      swap1\n      pop\n        /* \"#utility.yul\":24125:24134   */\n      dup2\n        /* \"#utility.yul\":24119:24123   */\n      dup2\n        /* \"#utility.yul\":24115:24135   */\n      sub\n        /* \"#utility.yul\":24111:24112   */\n      0x00\n        /* \"#utility.yul\":24100:24109   */\n      dup4\n        /* \"#utility.yul\":24096:24113   */\n      add\n        /* \"#utility.yul\":24089:24136   */\n      mstore\n        /* \"#utility.yul\":24153:24284   */\n      tag_457\n        /* \"#utility.yul\":24279:24283   */\n      dup2\n        /* \"#utility.yul\":24153:24284   */\n      tag_227\n      jump\t// in\n    tag_457:\n        /* \"#utility.yul\":24145:24284   */\n      swap1\n      pop\n        /* \"#utility.yul\":23872:24291   */\n      swap2\n      swap1\n      pop\n      jump\t// out\n        /* \"#utility.yul\":24297:24523   */\n    tag_228:\n        /* \"#utility.yul\":24437:24471   */\n      0x496e73756666696369656e74207061796d656e7420696e636c7564696e67206c\n        /* \"#utility.yul\":24433:24434   */\n      0x00\n        /* \"#utility.yul\":24425:24431   */\n      dup3\n        /* \"#utility.yul\":24421:24435   */\n      add\n        /* \"#utility.yul\":24414:24472   */\n      mstore\n        /* \"#utility.yul\":24506:24515   */\n      0x6174652066656500000000000000000000000000000000000000000000000000\n        /* \"#utility.yul\":24501:24503   */\n      0x20\n        /* \"#utility.yul\":24493:24499   */\n      dup3\n        /* \"#utility.yul\":24489:24504   */\n      add\n        /* \"#utility.yul\":24482:24516   */\n      mstore\n        /* \"#utility.yul\":24297:24523   */\n      pop\n      jump\t// out\n        /* \"#utility.yul\":24529:24895   */\n    tag_229:\n        /* \"#utility.yul\":24671:24674   */\n      0x00\n        /* \"#utility.yul\":24692:24759   */\n      tag_460\n        /* \"#utility.yul\":24756:24758   */\n      0x27\n        /* \"#utility.yul\":24751:24754   */\n      dup4\n        /* \"#utility.yul\":24692:24759   */\n      tag_171\n      jump\t// in\n    tag_460:\n        /* \"#utility.yul\":24685:24759   */\n      swap2\n      pop\n        /* \"#utility.yul\":24768:24861   */\n      tag_461\n        /* \"#utility.yul\":24857:24860   */\n      dup3\n        /* \"#utility.yul\":24768:24861   */\n      tag_228\n      jump\t// in\n    tag_461:\n        /* \"#utility.yul\":24886:24888   */\n      0x40\n        /* \"#utility.yul\":24881:24884   */\n      dup3\n        /* \"#utility.yul\":24877:24889   */\n      add\n        /* \"#utility.yul\":24870:24889   */\n      swap1\n      pop\n        /* \"#utility.yul\":24529:24895   */\n      swap2\n      swap1\n      pop\n      jump\t// out\n        /* \"#utility.yul\":24901:25320   */\n    tag_150:\n        /* \"#utility.yul\":25067:25071   */\n      0x00\n        /* \"#utility.yul\":25105:25107   */\n      0x20\n        /* \"#utility.yul\":25094:25103   */\n      dup3\n        /* \"#utility.yul\":25090:25108   */\n      add\n        /* \"#utility.yul\":25082:25108   */\n      swap1\n      pop\n        /* \"#utility.yul\":25154:25163   */\n      dup2\n        /* \"#utility.yul\":25148:25152   */\n      dup2\n        /* \"#utility.yul\":25144:25164   */\n      sub\n        /* \"#utility.yul\":25140:25141   */\n      0x00\n        /* \"#utility.yul\":25129:25138   */\n      dup4\n        /* \"#utility.yul\":25125:25142   */\n      add\n        /* \"#utility.yul\":25118:25165   */\n      mstore\n        /* \"#utility.yul\":25182:25313   */\n      tag_463\n        /* \"#utility.yul\":25308:25312   */\n      dup2\n        /* \"#utility.yul\":25182:25313   */\n      tag_229\n      jump\t// in\n    tag_463:\n        /* \"#utility.yul\":25174:25313   */\n      swap1\n      pop\n        /* \"#utility.yul\":24901:25320   */\n      swap2\n      swap1\n      pop\n      jump\t// out\n\n    auxdata: 0xa2646970667358221220388499a6cf14aac4db2e671f853cca0cca0b639981b7625107500913688d9dc064736f6c634300081a0033\n}\n",
				"bytecode": {
					"linkReferences": {},
					"object": "60806040525f80553480156011575f80fd5b50611ef38061001f5f395ff3fe608060405260043610610085575f3560e01c806397491d6f1161005857806397491d6f146101325780639d36ab6c1461015a578063c361a33514610176578063d9e8843f146101a0578063f7b10808146101bc57610085565b806332665ffb146100895780634feb2982146100cc57806355ecd14c146100f45780635fd8c7101461011c575b5f80fd5b348015610094575f80fd5b506100af60048036038101906100aa91906111e7565b610200565b6040516100c3989796959493929190611343565b60405180910390f35b3480156100d7575f80fd5b506100f260048036038101906100ed91906113cd565b610498565b005b3480156100ff575f80fd5b5061011a60048036038101906101159190611537565b61055d565b005b348015610127575f80fd5b5061013061071b565b005b34801561013d575f80fd5b50610158600480360381019061015391906111e7565b610803565b005b610174600480360381019061016f91906111e7565b610ac5565b005b348015610181575f80fd5b5061018a610d99565b60405161019791906115d3565b60405180910390f35b6101ba60048036038101906101b591906111e7565b610d9e565b005b3480156101c7575f80fd5b506101e260048036038101906101dd91906111e7565b611003565b6040516101f79998979695949392919061160c565b60405180910390f35b5f6060805f805f805f8060015f8b81526020019081526020015f20604051806101200160405290815f8201548152602001600182018054610240906116d2565b80601f016020809104026020016040519081016040528092919081815260200182805461026c906116d2565b80156102b75780601f1061028e576101008083540402835291602001916102b7565b820191905f5260205f20905b81548152906001019060200180831161029a57829003601f168201915b505050505081526020016002820180546102d0906116d2565b80601f01602080910402602001604051908101604052809291908181526020018280546102fc906116d2565b80156103475780601f1061031e57610100808354040283529160200191610347565b820191905f5260205f20905b81548152906001019060200180831161032a57829003601f168201915b50505050508152602001600382015f9054906101000a900473ffffffffffffffffffffffffffffffffffffffff1673ffffffffffffffffffffffffffffffffffffffff1673ffffffffffffffffffffffffffffffffffffffff168152602001600482015f9054906101000a900473ffffffffffffffffffffffffffffffffffffffff1673ffffffffffffffffffffffffffffffffffffffff1673ffffffffffffffffffffffffffffffffffffffff168152602001600582015481526020016006820154815260200160078201548152602001600882015f9054906101000a900460ff16600181111561043c5761043b6112d0565b5b600181111561044e5761044d6112d0565b5b815250509050805f015181602001518260400151836060015184608001518560a001518660c001518761010001519850985098509850985098509850985050919395975091939597565b8160015f8281526020019081526020015f206003015f9054906101000a900473ffffffffffffffffffffffffffffffffffffffff1673ffffffffffffffffffffffffffffffffffffffff163373ffffffffffffffffffffffffffffffffffffffff161461053a576040517f08c379a00000000000000000000000000000000000000000000000000000000081526004016105319061174c565b60405180910390fd5b5f60015f8581526020019081526020015f20905082816005018190555050505050565b5f8081548092919061056e90611797565b91905055506040518061012001604052805f5481526020018581526020018481526020013373ffffffffffffffffffffffffffffffffffffffff1681526020015f73ffffffffffffffffffffffffffffffffffffffff1681526020018381526020018281526020015f81526020015f60018111156105ef576105ee6112d0565b5b81525060015f805481526020019081526020015f205f820151815f01556020820151816001019081610621919061197b565b506040820151816002019081610637919061197b565b506060820151816003015f6101000a81548173ffffffffffffffffffffffffffffffffffffffff021916908373ffffffffffffffffffffffffffffffffffffffff1602179055506080820151816004015f6101000a81548173ffffffffffffffffffffffffffffffffffffffff021916908373ffffffffffffffffffffffffffffffffffffffff16021790555060a0820151816005015560c0820151816006015560e08201518160070155610100820151816008015f6101000a81548160ff0219169083600181111561070d5761070c6112d0565b5b021790555090505050505050565b60015f600181526020019081526020015f206003015f9054906101000a900473ffffffffffffffffffffffffffffffffffffffff1673ffffffffffffffffffffffffffffffffffffffff163373ffffffffffffffffffffffffffffffffffffffff16146107bd576040517f08c379a00000000000000000000000000000000000000000000000000000000081526004016107b490611a94565b60405180910390fd5b3373ffffffffffffffffffffffffffffffffffffffff166108fc4790811502906040515f60405180830381858888f19350505050158015610800573d5f803e3d5ffd5b50565b80600180811115610817576108166112d0565b5b60015f8381526020019081526020015f206008015f9054906101000a900460ff16600181111561084a576108496112d0565b5b1461088a576040517f08c379a000000000000000000000000000000000000000000000000000000000815260040161088190611afc565b60405180910390fd5b5f60015f8481526020019081526020015f209050806003015f9054906101000a900473ffffffffffffffffffffffffffffffffffffffff1673ffffffffffffffffffffffffffffffffffffffff163373ffffffffffffffffffffffffffffffffffffffff1614806109495750806004015f9054906101000a900473ffffffffffffffffffffffffffffffffffffffff1673ffffffffffffffffffffffffffffffffffffffff163373ffffffffffffffffffffffffffffffffffffffff16145b610988576040517f08c379a000000000000000000000000000000000000000000000000000000000815260040161097f90611b8a565b60405180910390fd5b806003015f9054906101000a900473ffffffffffffffffffffffffffffffffffffffff1673ffffffffffffffffffffffffffffffffffffffff163373ffffffffffffffffffffffffffffffffffffffff1603610a4a57806004015f9054906101000a900473ffffffffffffffffffffffffffffffffffffffff1673ffffffffffffffffffffffffffffffffffffffff166108fc826006015490811502906040515f60405180830381858888f19350505050158015610a48573d5f803e3d5ffd5b505b5f816004015f6101000a81548173ffffffffffffffffffffffffffffffffffffffff021916908373ffffffffffffffffffffffffffffffffffffffff1602179055505f816008015f6101000a81548160ff02191690836001811115610ab257610ab16112d0565b5b02179055505f8160070181905550505050565b805f6001811115610ad957610ad86112d0565b5b60015f8381526020019081526020015f206008015f9054906101000a900460ff166001811115610b0c57610b0b6112d0565b5b14610b4c576040517f08c379a0000000000000000000000000000000000000000000000000000000008152600401610b4390611bf2565b60405180910390fd5b5f60015f8481526020019081526020015f209050806003015f9054906101000a900473ffffffffffffffffffffffffffffffffffffffff1673ffffffffffffffffffffffffffffffffffffffff163373ffffffffffffffffffffffffffffffffffffffff1603610bf1576040517f08c379a0000000000000000000000000000000000000000000000000000000008152600401610be890611c80565b60405180910390fd5b80600601548160050154610c059190611c9e565b341015610c47576040517f08c379a0000000000000000000000000000000000000000000000000000000008152600401610c3e90611d41565b60405180910390fd5b33816004015f6101000a81548173ffffffffffffffffffffffffffffffffffffffff021916908373ffffffffffffffffffffffffffffffffffffffff1602179055506001816008015f6101000a81548160ff02191690836001811115610cb057610caf6112d0565b5b0217905550428160070181905550806003015f9054906101000a900473ffffffffffffffffffffffffffffffffffffffff1673ffffffffffffffffffffffffffffffffffffffff166108fc826005015490811502906040515f60405180830381858888f19350505050158015610d28573d5f803e3d5ffd5b50806003015f9054906101000a900473ffffffffffffffffffffffffffffffffffffffff1673ffffffffffffffffffffffffffffffffffffffff166108fc826006015490811502906040515f60405180830381858888f19350505050158015610d93573d5f803e3d5ffd5b50505050565b5f5481565b8060015f8281526020019081526020015f206004015f9054906101000a900473ffffffffffffffffffffffffffffffffffffffff1673ffffffffffffffffffffffffffffffffffffffff163373ffffffffffffffffffffffffffffffffffffffff1614610e40576040517f08c379a0000000000000000000000000000000000000000000000000000000008152600401610e3790611da9565b60405180910390fd5b81600180811115610e5457610e536112d0565b5b60015f8381526020019081526020015f206008015f9054906101000a900460ff166001811115610e8757610e866112d0565b5b14610ec7576040517f08c379a0000000000000000000000000000000000000000000000000000000008152600401610ebe90611afc565b60405180910390fd5b825f60015f8381526020019081526020015f2090505f816007015411610f22576040517f08c379a0000000000000000000000000000000000000000000000000000000008152600401610f1990611e11565b60405180910390fd5b5f60015f8781526020019081526020015f2090505f4290505f8260050154905080341015610f85576040517f08c379a0000000000000000000000000000000000000000000000000000000008152600401610f7c90611e9f565b60405180910390fd5b826003015f9054906101000a900473ffffffffffffffffffffffffffffffffffffffff1673ffffffffffffffffffffffffffffffffffffffff166108fc846005015490811502906040515f60405180830381858888f19350505050158015610fef573d5f803e3d5ffd5b508183600701819055505050505050505050565b6001602052805f5260405f205f91509050805f015490806001018054611028906116d2565b80601f0160208091040260200160405190810160405280929190818152602001828054611054906116d2565b801561109f5780601f106110765761010080835404028352916020019161109f565b820191905f5260205f20905b81548152906001019060200180831161108257829003601f168201915b5050505050908060020180546110b4906116d2565b80601f01602080910402602001604051908101604052809291908181526020018280546110e0906116d2565b801561112b5780601f106111025761010080835404028352916020019161112b565b820191905f5260205f20905b81548152906001019060200180831161110e57829003601f168201915b505050505090806003015f9054906101000a900473ffffffffffffffffffffffffffffffffffffffff1690806004015f9054906101000a900473ffffffffffffffffffffffffffffffffffffffff1690806005015490806006015490806007015490806008015f9054906101000a900460ff16905089565b5f604051905090565b5f80fd5b5f80fd5b5f819050919050565b6111c6816111b4565b81146111d0575f80fd5b50565b5f813590506111e1816111bd565b92915050565b5f602082840312156111fc576111fb6111ac565b5b5f611209848285016111d3565b91505092915050565b61121b816111b4565b82525050565b5f81519050919050565b5f82825260208201905092915050565b8281835e5f83830152505050565b5f601f19601f8301169050919050565b5f61126382611221565b61126d818561122b565b935061127d81856020860161123b565b61128681611249565b840191505092915050565b5f73ffffffffffffffffffffffffffffffffffffffff82169050919050565b5f6112ba82611291565b9050919050565b6112ca816112b0565b82525050565b7f4e487b71000000000000000000000000000000000000000000000000000000005f52602160045260245ffd5b6002811061130e5761130d6112d0565b5b50565b5f81905061131e826112fd565b919050565b5f61132d82611311565b9050919050565b61133d81611323565b82525050565b5f610100820190506113575f83018b611212565b8181036020830152611369818a611259565b9050818103604083015261137d8189611259565b905061138c60608301886112c1565b61139960808301876112c1565b6113a660a0830186611212565b6113b360c0830185611212565b6113c060e0830184611334565b9998505050505050505050565b5f80604083850312156113e3576113e26111ac565b5b5f6113f0858286016111d3565b9250506020611401858286016111d3565b9150509250929050565b5f80fd5b5f80fd5b7f4e487b71000000000000000000000000000000000000000000000000000000005f52604160045260245ffd5b61144982611249565b810181811067ffffffffffffffff8211171561146857611467611413565b5b80604052505050565b5f61147a6111a3565b90506114868282611440565b919050565b5f67ffffffffffffffff8211156114a5576114a4611413565b5b6114ae82611249565b9050602081019050919050565b828183375f83830152505050565b5f6114db6114d68461148b565b611471565b9050828152602081018484840111156114f7576114f661140f565b5b6115028482856114bb565b509392505050565b5f82601f83011261151e5761151d61140b565b5b813561152e8482602086016114c9565b91505092915050565b5f805f806080858703121561154f5761154e6111ac565b5b5f85013567ffffffffffffffff81111561156c5761156b6111b0565b5b6115788782880161150a565b945050602085013567ffffffffffffffff811115611599576115986111b0565b5b6115a58782880161150a565b93505060406115b6878288016111d3565b92505060606115c7878288016111d3565b91505092959194509250565b5f6020820190506115e65f830184611212565b92915050565b5f6115f682611291565b9050919050565b611606816115ec565b82525050565b5f610120820190506116205f83018c611212565b8181036020830152611632818b611259565b90508181036040830152611646818a611259565b905061165560608301896115fd565b61166260808301886112c1565b61166f60a0830187611212565b61167c60c0830186611212565b61168960e0830185611212565b611697610100830184611334565b9a9950505050505050505050565b7f4e487b71000000000000000000000000000000000000000000000000000000005f52602260045260245ffd5b5f60028204905060018216806116e957607f821691505b6020821081036116fc576116fb6116a5565b5b50919050565b7f4e6f742070726f7065727479206f776e657200000000000000000000000000005f82015250565b5f61173660128361122b565b915061174182611702565b602082019050919050565b5f6020820190508181035f8301526117638161172a565b9050919050565b7f4e487b71000000000000000000000000000000000000000000000000000000005f52601160045260245ffd5b5f6117a1826111b4565b91507fffffffffffffffffffffffffffffffffffffffffffffffffffffffffffffffff82036117d3576117d261176a565b5b600182019050919050565b5f819050815f5260205f209050919050565b5f6020601f8301049050919050565b5f82821b905092915050565b5f6008830261183a7fffffffffffffffffffffffffffffffffffffffffffffffffffffffffffffffff826117ff565b61184486836117ff565b95508019841693508086168417925050509392505050565b5f819050919050565b5f61187f61187a611875846111b4565b61185c565b6111b4565b9050919050565b5f819050919050565b61189883611865565b6118ac6118a482611886565b84845461180b565b825550505050565b5f90565b6118c06118b4565b6118cb81848461188f565b505050565b5b818110156118ee576118e35f826118b8565b6001810190506118d1565b5050565b601f82111561193357611904816117de565b61190d846117f0565b8101602085101561191c578190505b611930611928856117f0565b8301826118d0565b50505b505050565b5f82821c905092915050565b5f6119535f1984600802611938565b1980831691505092915050565b5f61196b8383611944565b9150826002028217905092915050565b61198482611221565b67ffffffffffffffff81111561199d5761199c611413565b5b6119a782546116d2565b6119b28282856118f2565b5f60209050601f8311600181146119e3575f84156119d1578287015190505b6119db8582611960565b865550611a42565b601f1984166119f1866117de565b5f5b82811015611a18578489015182556001820191506020850194506020810190506119f3565b86831015611a355784890151611a31601f891682611944565b8355505b6001600288020188555050505b505050505050565b7f4f6e6c79206f776e65722063616e2077697468647261770000000000000000005f82015250565b5f611a7e60178361122b565b9150611a8982611a4a565b602082019050919050565b5f6020820190508181035f830152611aab81611a72565b9050919050565b7f50726f7065727479206973206e6f742072656e746564000000000000000000005f82015250565b5f611ae660168361122b565b9150611af182611ab2565b602082019050919050565b5f6020820190508181035f830152611b1381611ada565b9050919050565b7f4f6e6c79206f776e6572206f722072656e7465722063616e20656e642072656e5f8201527f74616c0000000000000000000000000000000000000000000000000000000000602082015250565b5f611b7460238361122b565b9150611b7f82611b1a565b604082019050919050565b5f6020820190508181035f830152611ba181611b68565b9050919050565b7f50726f7065727479206973206e6f7420617661696c61626c65000000000000005f82015250565b5f611bdc60198361122b565b9150611be782611ba8565b602082019050919050565b5f6020820190508181035f830152611c0981611bd0565b9050919050565b7f4f776e65722063616e6e6f742072656e74207468656972206f776e2070726f705f8201527f6572747900000000000000000000000000000000000000000000000000000000602082015250565b5f611c6a60248361122b565b9150611c7582611c10565b604082019050919050565b5f6020820190508181035f830152611c9781611c5e565b9050919050565b5f611ca8826111b4565b9150611cb3836111b4565b9250828201905080821115611ccb57611cca61176a565b5b92915050565b7f496e73756666696369656e742072656e74207061796d656e74202b206465706f5f8201527f7369740000000000000000000000000000000000000000000000000000000000602082015250565b5f611d2b60238361122b565b9150611d3682611cd1565b604082019050919050565b5f6020820190508181035f830152611d5881611d1f565b9050919050565b7f4e6f742072656e746572206f6620746869732070726f706572747900000000005f82015250565b5f611d93601b8361122b565b9150611d9e82611d5f565b602082019050919050565b5f6020820190508181035f830152611dc081611d87565b9050919050565b7f52656e74657220686173206e6f742070616964207965740000000000000000005f82015250565b5f611dfb60178361122b565b9150611e0682611dc7565b602082019050919050565b5f6020820190508181035f830152611e2881611def565b9050919050565b7f496e73756666696369656e74207061796d656e7420696e636c7564696e67206c5f8201527f6174652066656500000000000000000000000000000000000000000000000000602082015250565b5f611e8960278361122b565b9150611e9482611e2f565b604082019050919050565b5f6020820190508181035f830152611eb681611e7d565b905091905056fea2646970667358221220388499a6cf14aac4db2e671f853cca0cca0b639981b7625107500913688d9dc064736f6c634300081a0033",
					"opcodes": "PUSH1 0x80 PUSH1 0x40 MSTORE PUSH0 DUP1 SSTORE CALLVALUE DUP1 ISZERO PUSH1 0x11 JUMPI PUSH0 DUP1 REVERT JUMPDEST POP PUSH2 0x1EF3 DUP1 PUSH2 0x1F PUSH0 CODECOPY PUSH0 RETURN INVALID PUSH1 0x80 PUSH1 0x40 MSTORE PUSH1 0x4 CALLDATASIZE LT PUSH2 0x85 JUMPI PUSH0 CALLDATALOAD PUSH1 0xE0 SHR DUP1 PUSH4 0x97491D6F GT PUSH2 0x58 JUMPI DUP1 PUSH4 0x97491D6F EQ PUSH2 0x132 JUMPI DUP1 PUSH4 0x9D36AB6C EQ PUSH2 0x15A JUMPI DUP1 PUSH4 0xC361A335 EQ PUSH2 0x176 JUMPI DUP1 PUSH4 0xD9E8843F EQ PUSH2 0x1A0 JUMPI DUP1 PUSH4 0xF7B10808 EQ PUSH2 0x1BC JUMPI PUSH2 0x85 JUMP JUMPDEST DUP1 PUSH4 0x32665FFB EQ PUSH2 0x89 JUMPI DUP1 PUSH4 0x4FEB2982 EQ PUSH2 0xCC JUMPI DUP1 PUSH4 0x55ECD14C EQ PUSH2 0xF4 JUMPI DUP1 PUSH4 0x5FD8C710 EQ PUSH2 0x11C JUMPI JUMPDEST PUSH0 DUP1 REVERT JUMPDEST CALLVALUE DUP1 ISZERO PUSH2 0x94 JUMPI PUSH0 DUP1 REVERT JUMPDEST POP PUSH2 0xAF PUSH1 0x4 DUP1 CALLDATASIZE SUB DUP2 ADD SWAP1 PUSH2 0xAA SWAP2 SWAP1 PUSH2 0x11E7 JUMP JUMPDEST PUSH2 0x200 JUMP JUMPDEST PUSH1 0x40 MLOAD PUSH2 0xC3 SWAP9 SWAP8 SWAP7 SWAP6 SWAP5 SWAP4 SWAP3 SWAP2 SWAP1 PUSH2 0x1343 JUMP JUMPDEST PUSH1 0x40 MLOAD DUP1 SWAP2 SUB SWAP1 RETURN JUMPDEST CALLVALUE DUP1 ISZERO PUSH2 0xD7 JUMPI PUSH0 DUP1 REVERT JUMPDEST POP PUSH2 0xF2 PUSH1 0x4 DUP1 CALLDATASIZE SUB DUP2 ADD SWAP1 PUSH2 0xED SWAP2 SWAP1 PUSH2 0x13CD JUMP JUMPDEST PUSH2 0x498 JUMP JUMPDEST STOP JUMPDEST CALLVALUE DUP1 ISZERO PUSH2 0xFF JUMPI PUSH0 DUP1 REVERT JUMPDEST POP PUSH2 0x11A PUSH1 0x4 DUP1 CALLDATASIZE SUB DUP2 ADD SWAP1 PUSH2 0x115 SWAP2 SWAP1 PUSH2 0x1537 JUMP JUMPDEST PUSH2 0x55D JUMP JUMPDEST STOP JUMPDEST CALLVALUE DUP1 ISZERO PUSH2 0x127 JUMPI PUSH0 DUP1 REVERT JUMPDEST POP PUSH2 0x130 PUSH2 0x71B JUMP JUMPDEST STOP JUMPDEST CALLVALUE DUP1 ISZERO PUSH2 0x13D JUMPI PUSH0 DUP1 REVERT JUMPDEST POP PUSH2 0x158 PUSH1 0x4 DUP1 CALLDATASIZE SUB DUP2 ADD SWAP1 PUSH2 0x153 SWAP2 SWAP1 PUSH2 0x11E7 JUMP JUMPDEST PUSH2 0x803 JUMP JUMPDEST STOP JUMPDEST PUSH2 0x174 PUSH1 0x4 DUP1 CALLDATASIZE SUB DUP2 ADD SWAP1 PUSH2 0x16F SWAP2 SWAP1 PUSH2 0x11E7 JUMP JUMPDEST PUSH2 0xAC5 JUMP JUMPDEST STOP JUMPDEST CALLVALUE DUP1 ISZERO PUSH2 0x181 JUMPI PUSH0 DUP1 REVERT JUMPDEST POP PUSH2 0x18A PUSH2 0xD99 JUMP JUMPDEST PUSH1 0x40 MLOAD PUSH2 0x197 SWAP2 SWAP1 PUSH2 0x15D3 JUMP JUMPDEST PUSH1 0x40 MLOAD DUP1 SWAP2 SUB SWAP1 RETURN JUMPDEST PUSH2 0x1BA PUSH1 0x4 DUP1 CALLDATASIZE SUB DUP2 ADD SWAP1 PUSH2 0x1B5 SWAP2 SWAP1 PUSH2 0x11E7 JUMP JUMPDEST PUSH2 0xD9E JUMP JUMPDEST STOP JUMPDEST CALLVALUE DUP1 ISZERO PUSH2 0x1C7 JUMPI PUSH0 DUP1 REVERT JUMPDEST POP PUSH2 0x1E2 PUSH1 0x4 DUP1 CALLDATASIZE SUB DUP2 ADD SWAP1 PUSH2 0x1DD SWAP2 SWAP1 PUSH2 0x11E7 JUMP JUMPDEST PUSH2 0x1003 JUMP JUMPDEST PUSH1 0x40 MLOAD PUSH2 0x1F7 SWAP10 SWAP9 SWAP8 SWAP7 SWAP6 SWAP5 SWAP4 SWAP3 SWAP2 SWAP1 PUSH2 0x160C JUMP JUMPDEST PUSH1 0x40 MLOAD DUP1 SWAP2 SUB SWAP1 RETURN JUMPDEST PUSH0 PUSH1 0x60 DUP1 PUSH0 DUP1 PUSH0 DUP1 PUSH0 DUP1 PUSH1 0x1 PUSH0 DUP12 DUP2 MSTORE PUSH1 0x20 ADD SWAP1 DUP2 MSTORE PUSH1 0x20 ADD PUSH0 KECCAK256 PUSH1 0x40 MLOAD DUP1 PUSH2 0x120 ADD PUSH1 0x40 MSTORE SWAP1 DUP2 PUSH0 DUP3 ADD SLOAD DUP2 MSTORE PUSH1 0x20 ADD PUSH1 0x1 DUP3 ADD DUP1 SLOAD PUSH2 0x240 SWAP1 PUSH2 0x16D2 JUMP JUMPDEST DUP1 PUSH1 0x1F ADD PUSH1 0x20 DUP1 SWAP2 DIV MUL PUSH1 0x20 ADD PUSH1 0x40 MLOAD SWAP1 DUP2 ADD PUSH1 0x40 MSTORE DUP1 SWAP3 SWAP2 SWAP1 DUP2 DUP2 MSTORE PUSH1 0x20 ADD DUP3 DUP1 SLOAD PUSH2 0x26C SWAP1 PUSH2 0x16D2 JUMP JUMPDEST DUP1 ISZERO PUSH2 0x2B7 JUMPI DUP1 PUSH1 0x1F LT PUSH2 0x28E JUMPI PUSH2 0x100 DUP1 DUP4 SLOAD DIV MUL DUP4 MSTORE SWAP2 PUSH1 0x20 ADD SWAP2 PUSH2 0x2B7 JUMP JUMPDEST DUP3 ADD SWAP2 SWAP1 PUSH0 MSTORE PUSH1 0x20 PUSH0 KECCAK256 SWAP1 JUMPDEST DUP2 SLOAD DUP2 MSTORE SWAP1 PUSH1 0x1 ADD SWAP1 PUSH1 0x20 ADD DUP1 DUP4 GT PUSH2 0x29A JUMPI DUP3 SWAP1 SUB PUSH1 0x1F AND DUP3 ADD SWAP2 JUMPDEST POP POP POP POP POP DUP2 MSTORE PUSH1 0x20 ADD PUSH1 0x2 DUP3 ADD DUP1 SLOAD PUSH2 0x2D0 SWAP1 PUSH2 0x16D2 JUMP JUMPDEST DUP1 PUSH1 0x1F ADD PUSH1 0x20 DUP1 SWAP2 DIV MUL PUSH1 0x20 ADD PUSH1 0x40 MLOAD SWAP1 DUP2 ADD PUSH1 0x40 MSTORE DUP1 SWAP3 SWAP2 SWAP1 DUP2 DUP2 MSTORE PUSH1 0x20 ADD DUP3 DUP1 SLOAD PUSH2 0x2FC SWAP1 PUSH2 0x16D2 JUMP JUMPDEST DUP1 ISZERO PUSH2 0x347 JUMPI DUP1 PUSH1 0x1F LT PUSH2 0x31E JUMPI PUSH2 0x100 DUP1 DUP4 SLOAD DIV MUL DUP4 MSTORE SWAP2 PUSH1 0x20 ADD SWAP2 PUSH2 0x347 JUMP JUMPDEST DUP3 ADD SWAP2 SWAP1 PUSH0 MSTORE PUSH1 0x20 PUSH0 KECCAK256 SWAP1 JUMPDEST DUP2 SLOAD DUP2 MSTORE SWAP1 PUSH1 0x1 ADD SWAP1 PUSH1 0x20 ADD DUP1 DUP4 GT PUSH2 0x32A JUMPI DUP3 SWAP1 SUB PUSH1 0x1F AND DUP3 ADD SWAP2 JUMPDEST POP POP POP POP POP DUP2 MSTORE PUSH1 0x20 ADD PUSH1 0x3 DUP3 ADD PUSH0 SWAP1 SLOAD SWAP1 PUSH2 0x100 EXP SWAP1 DIV PUSH20 0xFFFFFFFFFFFFFFFFFFFFFFFFFFFFFFFFFFFFFFFF AND PUSH20 0xFFFFFFFFFFFFFFFFFFFFFFFFFFFFFFFFFFFFFFFF AND PUSH20 0xFFFFFFFFFFFFFFFFFFFFFFFFFFFFFFFFFFFFFFFF AND DUP2 MSTORE PUSH1 0x20 ADD PUSH1 0x4 DUP3 ADD PUSH0 SWAP1 SLOAD SWAP1 PUSH2 0x100 EXP SWAP1 DIV PUSH20 0xFFFFFFFFFFFFFFFFFFFFFFFFFFFFFFFFFFFFFFFF AND PUSH20 0xFFFFFFFFFFFFFFFFFFFFFFFFFFFFFFFFFFFFFFFF AND PUSH20 0xFFFFFFFFFFFFFFFFFFFFFFFFFFFFFFFFFFFFFFFF AND DUP2 MSTORE PUSH1 0x20 ADD PUSH1 0x5 DUP3 ADD SLOAD DUP2 MSTORE PUSH1 0x20 ADD PUSH1 0x6 DUP3 ADD SLOAD DUP2 MSTORE PUSH1 0x20 ADD PUSH1 0x7 DUP3 ADD SLOAD DUP2 MSTORE PUSH1 0x20 ADD PUSH1 0x8 DUP3 ADD PUSH0 SWAP1 SLOAD SWAP1 PUSH2 0x100 EXP SWAP1 DIV PUSH1 0xFF AND PUSH1 0x1 DUP2 GT ISZERO PUSH2 0x43C JUMPI PUSH2 0x43B PUSH2 0x12D0 JUMP JUMPDEST JUMPDEST PUSH1 0x1 DUP2 GT ISZERO PUSH2 0x44E JUMPI PUSH2 0x44D PUSH2 0x12D0 JUMP JUMPDEST JUMPDEST DUP2 MSTORE POP POP SWAP1 POP DUP1 PUSH0 ADD MLOAD DUP2 PUSH1 0x20 ADD MLOAD DUP3 PUSH1 0x40 ADD MLOAD DUP4 PUSH1 0x60 ADD MLOAD DUP5 PUSH1 0x80 ADD MLOAD DUP6 PUSH1 0xA0 ADD MLOAD DUP7 PUSH1 0xC0 ADD MLOAD DUP8 PUSH2 0x100 ADD MLOAD SWAP9 POP SWAP9 POP SWAP9 POP SWAP9 POP SWAP9 POP SWAP9 POP SWAP9 POP SWAP9 POP POP SWAP2 SWAP4 SWAP6 SWAP8 POP SWAP2 SWAP4 SWAP6 SWAP8 JUMP JUMPDEST DUP2 PUSH1 0x1 PUSH0 DUP3 DUP2 MSTORE PUSH1 0x20 ADD SWAP1 DUP2 MSTORE PUSH1 0x20 ADD PUSH0 KECCAK256 PUSH1 0x3 ADD PUSH0 SWAP1 SLOAD SWAP1 PUSH2 0x100 EXP SWAP1 DIV PUSH20 0xFFFFFFFFFFFFFFFFFFFFFFFFFFFFFFFFFFFFFFFF AND PUSH20 0xFFFFFFFFFFFFFFFFFFFFFFFFFFFFFFFFFFFFFFFF AND CALLER PUSH20 0xFFFFFFFFFFFFFFFFFFFFFFFFFFFFFFFFFFFFFFFF AND EQ PUSH2 0x53A JUMPI PUSH1 0x40 MLOAD PUSH32 0x8C379A000000000000000000000000000000000000000000000000000000000 DUP2 MSTORE PUSH1 0x4 ADD PUSH2 0x531 SWAP1 PUSH2 0x174C JUMP JUMPDEST PUSH1 0x40 MLOAD DUP1 SWAP2 SUB SWAP1 REVERT JUMPDEST PUSH0 PUSH1 0x1 PUSH0 DUP6 DUP2 MSTORE PUSH1 0x20 ADD SWAP1 DUP2 MSTORE PUSH1 0x20 ADD PUSH0 KECCAK256 SWAP1 POP DUP3 DUP2 PUSH1 0x5 ADD DUP2 SWAP1 SSTORE POP POP POP POP POP JUMP JUMPDEST PUSH0 DUP1 DUP2 SLOAD DUP1 SWAP3 SWAP2 SWAP1 PUSH2 0x56E SWAP1 PUSH2 0x1797 JUMP JUMPDEST SWAP2 SWAP1 POP SSTORE POP PUSH1 0x40 MLOAD DUP1 PUSH2 0x120 ADD PUSH1 0x40 MSTORE DUP1 PUSH0 SLOAD DUP2 MSTORE PUSH1 0x20 ADD DUP6 DUP2 MSTORE PUSH1 0x20 ADD DUP5 DUP2 MSTORE PUSH1 0x20 ADD CALLER PUSH20 0xFFFFFFFFFFFFFFFFFFFFFFFFFFFFFFFFFFFFFFFF AND DUP2 MSTORE PUSH1 0x20 ADD PUSH0 PUSH20 0xFFFFFFFFFFFFFFFFFFFFFFFFFFFFFFFFFFFFFFFF AND DUP2 MSTORE PUSH1 0x20 ADD DUP4 DUP2 MSTORE PUSH1 0x20 ADD DUP3 DUP2 MSTORE PUSH1 0x20 ADD PUSH0 DUP2 MSTORE PUSH1 0x20 ADD PUSH0 PUSH1 0x1 DUP2 GT ISZERO PUSH2 0x5EF JUMPI PUSH2 0x5EE PUSH2 0x12D0 JUMP JUMPDEST JUMPDEST DUP2 MSTORE POP PUSH1 0x1 PUSH0 DUP1 SLOAD DUP2 MSTORE PUSH1 0x20 ADD SWAP1 DUP2 MSTORE PUSH1 0x20 ADD PUSH0 KECCAK256 PUSH0 DUP3 ADD MLOAD DUP2 PUSH0 ADD SSTORE PUSH1 0x20 DUP3 ADD MLOAD DUP2 PUSH1 0x1 ADD SWAP1 DUP2 PUSH2 0x621 SWAP2 SWAP1 PUSH2 0x197B JUMP JUMPDEST POP PUSH1 0x40 DUP3 ADD MLOAD DUP2 PUSH1 0x2 ADD SWAP1 DUP2 PUSH2 0x637 SWAP2 SWAP1 PUSH2 0x197B JUMP JUMPDEST POP PUSH1 0x60 DUP3 ADD MLOAD DUP2 PUSH1 0x3 ADD PUSH0 PUSH2 0x100 EXP DUP2 SLOAD DUP2 PUSH20 0xFFFFFFFFFFFFFFFFFFFFFFFFFFFFFFFFFFFFFFFF MUL NOT AND SWAP1 DUP4 PUSH20 0xFFFFFFFFFFFFFFFFFFFFFFFFFFFFFFFFFFFFFFFF AND MUL OR SWAP1 SSTORE POP PUSH1 0x80 DUP3 ADD MLOAD DUP2 PUSH1 0x4 ADD PUSH0 PUSH2 0x100 EXP DUP2 SLOAD DUP2 PUSH20 0xFFFFFFFFFFFFFFFFFFFFFFFFFFFFFFFFFFFFFFFF MUL NOT AND SWAP1 DUP4 PUSH20 0xFFFFFFFFFFFFFFFFFFFFFFFFFFFFFFFFFFFFFFFF AND MUL OR SWAP1 SSTORE POP PUSH1 0xA0 DUP3 ADD MLOAD DUP2 PUSH1 0x5 ADD SSTORE PUSH1 0xC0 DUP3 ADD MLOAD DUP2 PUSH1 0x6 ADD SSTORE PUSH1 0xE0 DUP3 ADD MLOAD DUP2 PUSH1 0x7 ADD SSTORE PUSH2 0x100 DUP3 ADD MLOAD DUP2 PUSH1 0x8 ADD PUSH0 PUSH2 0x100 EXP DUP2 SLOAD DUP2 PUSH1 0xFF MUL NOT AND SWAP1 DUP4 PUSH1 0x1 DUP2 GT ISZERO PUSH2 0x70D JUMPI PUSH2 0x70C PUSH2 0x12D0 JUMP JUMPDEST JUMPDEST MUL OR SWAP1 SSTORE POP SWAP1 POP POP POP POP POP POP JUMP JUMPDEST PUSH1 0x1 PUSH0 PUSH1 0x1 DUP2 MSTORE PUSH1 0x20 ADD SWAP1 DUP2 MSTORE PUSH1 0x20 ADD PUSH0 KECCAK256 PUSH1 0x3 ADD PUSH0 SWAP1 SLOAD SWAP1 PUSH2 0x100 EXP SWAP1 DIV PUSH20 0xFFFFFFFFFFFFFFFFFFFFFFFFFFFFFFFFFFFFFFFF AND PUSH20 0xFFFFFFFFFFFFFFFFFFFFFFFFFFFFFFFFFFFFFFFF AND CALLER PUSH20 0xFFFFFFFFFFFFFFFFFFFFFFFFFFFFFFFFFFFFFFFF AND EQ PUSH2 0x7BD JUMPI PUSH1 0x40 MLOAD PUSH32 0x8C379A000000000000000000000000000000000000000000000000000000000 DUP2 MSTORE PUSH1 0x4 ADD PUSH2 0x7B4 SWAP1 PUSH2 0x1A94 JUMP JUMPDEST PUSH1 0x40 MLOAD DUP1 SWAP2 SUB SWAP1 REVERT JUMPDEST CALLER PUSH20 0xFFFFFFFFFFFFFFFFFFFFFFFFFFFFFFFFFFFFFFFF AND PUSH2 0x8FC SELFBALANCE SWAP1 DUP2 ISZERO MUL SWAP1 PUSH1 0x40 MLOAD PUSH0 PUSH1 0x40 MLOAD DUP1 DUP4 SUB DUP2 DUP6 DUP9 DUP9 CALL SWAP4 POP POP POP POP ISZERO DUP1 ISZERO PUSH2 0x800 JUMPI RETURNDATASIZE PUSH0 DUP1 RETURNDATACOPY RETURNDATASIZE PUSH0 REVERT JUMPDEST POP JUMP JUMPDEST DUP1 PUSH1 0x1 DUP1 DUP2 GT ISZERO PUSH2 0x817 JUMPI PUSH2 0x816 PUSH2 0x12D0 JUMP JUMPDEST JUMPDEST PUSH1 0x1 PUSH0 DUP4 DUP2 MSTORE PUSH1 0x20 ADD SWAP1 DUP2 MSTORE PUSH1 0x20 ADD PUSH0 KECCAK256 PUSH1 0x8 ADD PUSH0 SWAP1 SLOAD SWAP1 PUSH2 0x100 EXP SWAP1 DIV PUSH1 0xFF AND PUSH1 0x1 DUP2 GT ISZERO PUSH2 0x84A JUMPI PUSH2 0x849 PUSH2 0x12D0 JUMP JUMPDEST JUMPDEST EQ PUSH2 0x88A JUMPI PUSH1 0x40 MLOAD PUSH32 0x8C379A000000000000000000000000000000000000000000000000000000000 DUP2 MSTORE PUSH1 0x4 ADD PUSH2 0x881 SWAP1 PUSH2 0x1AFC JUMP JUMPDEST PUSH1 0x40 MLOAD DUP1 SWAP2 SUB SWAP1 REVERT JUMPDEST PUSH0 PUSH1 0x1 PUSH0 DUP5 DUP2 MSTORE PUSH1 0x20 ADD SWAP1 DUP2 MSTORE PUSH1 0x20 ADD PUSH0 KECCAK256 SWAP1 POP DUP1 PUSH1 0x3 ADD PUSH0 SWAP1 SLOAD SWAP1 PUSH2 0x100 EXP SWAP1 DIV PUSH20 0xFFFFFFFFFFFFFFFFFFFFFFFFFFFFFFFFFFFFFFFF AND PUSH20 0xFFFFFFFFFFFFFFFFFFFFFFFFFFFFFFFFFFFFFFFF AND CALLER PUSH20 0xFFFFFFFFFFFFFFFFFFFFFFFFFFFFFFFFFFFFFFFF AND EQ DUP1 PUSH2 0x949 JUMPI POP DUP1 PUSH1 0x4 ADD PUSH0 SWAP1 SLOAD SWAP1 PUSH2 0x100 EXP SWAP1 DIV PUSH20 0xFFFFFFFFFFFFFFFFFFFFFFFFFFFFFFFFFFFFFFFF AND PUSH20 0xFFFFFFFFFFFFFFFFFFFFFFFFFFFFFFFFFFFFFFFF AND CALLER PUSH20 0xFFFFFFFFFFFFFFFFFFFFFFFFFFFFFFFFFFFFFFFF AND EQ JUMPDEST PUSH2 0x988 JUMPI PUSH1 0x40 MLOAD PUSH32 0x8C379A000000000000000000000000000000000000000000000000000000000 DUP2 MSTORE PUSH1 0x4 ADD PUSH2 0x97F SWAP1 PUSH2 0x1B8A JUMP JUMPDEST PUSH1 0x40 MLOAD DUP1 SWAP2 SUB SWAP1 REVERT JUMPDEST DUP1 PUSH1 0x3 ADD PUSH0 SWAP1 SLOAD SWAP1 PUSH2 0x100 EXP SWAP1 DIV PUSH20 0xFFFFFFFFFFFFFFFFFFFFFFFFFFFFFFFFFFFFFFFF AND PUSH20 0xFFFFFFFFFFFFFFFFFFFFFFFFFFFFFFFFFFFFFFFF AND CALLER PUSH20 0xFFFFFFFFFFFFFFFFFFFFFFFFFFFFFFFFFFFFFFFF AND SUB PUSH2 0xA4A JUMPI DUP1 PUSH1 0x4 ADD PUSH0 SWAP1 SLOAD SWAP1 PUSH2 0x100 EXP SWAP1 DIV PUSH20 0xFFFFFFFFFFFFFFFFFFFFFFFFFFFFFFFFFFFFFFFF AND PUSH20 0xFFFFFFFFFFFFFFFFFFFFFFFFFFFFFFFFFFFFFFFF AND PUSH2 0x8FC DUP3 PUSH1 0x6 ADD SLOAD SWAP1 DUP2 ISZERO MUL SWAP1 PUSH1 0x40 MLOAD PUSH0 PUSH1 0x40 MLOAD DUP1 DUP4 SUB DUP2 DUP6 DUP9 DUP9 CALL SWAP4 POP POP POP POP ISZERO DUP1 ISZERO PUSH2 0xA48 JUMPI RETURNDATASIZE PUSH0 DUP1 RETURNDATACOPY RETURNDATASIZE PUSH0 REVERT JUMPDEST POP JUMPDEST PUSH0 DUP2 PUSH1 0x4 ADD PUSH0 PUSH2 0x100 EXP DUP2 SLOAD DUP2 PUSH20 0xFFFFFFFFFFFFFFFFFFFFFFFFFFFFFFFFFFFFFFFF MUL NOT AND SWAP1 DUP4 PUSH20 0xFFFFFFFFFFFFFFFFFFFFFFFFFFFFFFFFFFFFFFFF AND MUL OR SWAP1 SSTORE POP PUSH0 DUP2 PUSH1 0x8 ADD PUSH0 PUSH2 0x100 EXP DUP2 SLOAD DUP2 PUSH1 0xFF MUL NOT AND SWAP1 DUP4 PUSH1 0x1 DUP2 GT ISZERO PUSH2 0xAB2 JUMPI PUSH2 0xAB1 PUSH2 0x12D0 JUMP JUMPDEST JUMPDEST MUL OR SWAP1 SSTORE POP PUSH0 DUP2 PUSH1 0x7 ADD DUP2 SWAP1 SSTORE POP POP POP POP JUMP JUMPDEST DUP1 PUSH0 PUSH1 0x1 DUP2 GT ISZERO PUSH2 0xAD9 JUMPI PUSH2 0xAD8 PUSH2 0x12D0 JUMP JUMPDEST JUMPDEST PUSH1 0x1 PUSH0 DUP4 DUP2 MSTORE PUSH1 0x20 ADD SWAP1 DUP2 MSTORE PUSH1 0x20 ADD PUSH0 KECCAK256 PUSH1 0x8 ADD PUSH0 SWAP1 SLOAD SWAP1 PUSH2 0x100 EXP SWAP1 DIV PUSH1 0xFF AND PUSH1 0x1 DUP2 GT ISZERO PUSH2 0xB0C JUMPI PUSH2 0xB0B PUSH2 0x12D0 JUMP JUMPDEST JUMPDEST EQ PUSH2 0xB4C JUMPI PUSH1 0x40 MLOAD PUSH32 0x8C379A000000000000000000000000000000000000000000000000000000000 DUP2 MSTORE PUSH1 0x4 ADD PUSH2 0xB43 SWAP1 PUSH2 0x1BF2 JUMP JUMPDEST PUSH1 0x40 MLOAD DUP1 SWAP2 SUB SWAP1 REVERT JUMPDEST PUSH0 PUSH1 0x1 PUSH0 DUP5 DUP2 MSTORE PUSH1 0x20 ADD SWAP1 DUP2 MSTORE PUSH1 0x20 ADD PUSH0 KECCAK256 SWAP1 POP DUP1 PUSH1 0x3 ADD PUSH0 SWAP1 SLOAD SWAP1 PUSH2 0x100 EXP SWAP1 DIV PUSH20 0xFFFFFFFFFFFFFFFFFFFFFFFFFFFFFFFFFFFFFFFF AND PUSH20 0xFFFFFFFFFFFFFFFFFFFFFFFFFFFFFFFFFFFFFFFF AND CALLER PUSH20 0xFFFFFFFFFFFFFFFFFFFFFFFFFFFFFFFFFFFFFFFF AND SUB PUSH2 0xBF1 JUMPI PUSH1 0x40 MLOAD PUSH32 0x8C379A000000000000000000000000000000000000000000000000000000000 DUP2 MSTORE PUSH1 0x4 ADD PUSH2 0xBE8 SWAP1 PUSH2 0x1C80 JUMP JUMPDEST PUSH1 0x40 MLOAD DUP1 SWAP2 SUB SWAP1 REVERT JUMPDEST DUP1 PUSH1 0x6 ADD SLOAD DUP2 PUSH1 0x5 ADD SLOAD PUSH2 0xC05 SWAP2 SWAP1 PUSH2 0x1C9E JUMP JUMPDEST CALLVALUE LT ISZERO PUSH2 0xC47 JUMPI PUSH1 0x40 MLOAD PUSH32 0x8C379A000000000000000000000000000000000000000000000000000000000 DUP2 MSTORE PUSH1 0x4 ADD PUSH2 0xC3E SWAP1 PUSH2 0x1D41 JUMP JUMPDEST PUSH1 0x40 MLOAD DUP1 SWAP2 SUB SWAP1 REVERT JUMPDEST CALLER DUP2 PUSH1 0x4 ADD PUSH0 PUSH2 0x100 EXP DUP2 SLOAD DUP2 PUSH20 0xFFFFFFFFFFFFFFFFFFFFFFFFFFFFFFFFFFFFFFFF MUL NOT AND SWAP1 DUP4 PUSH20 0xFFFFFFFFFFFFFFFFFFFFFFFFFFFFFFFFFFFFFFFF AND MUL OR SWAP1 SSTORE POP PUSH1 0x1 DUP2 PUSH1 0x8 ADD PUSH0 PUSH2 0x100 EXP DUP2 SLOAD DUP2 PUSH1 0xFF MUL NOT AND SWAP1 DUP4 PUSH1 0x1 DUP2 GT ISZERO PUSH2 0xCB0 JUMPI PUSH2 0xCAF PUSH2 0x12D0 JUMP JUMPDEST JUMPDEST MUL OR SWAP1 SSTORE POP TIMESTAMP DUP2 PUSH1 0x7 ADD DUP2 SWAP1 SSTORE POP DUP1 PUSH1 0x3 ADD PUSH0 SWAP1 SLOAD SWAP1 PUSH2 0x100 EXP SWAP1 DIV PUSH20 0xFFFFFFFFFFFFFFFFFFFFFFFFFFFFFFFFFFFFFFFF AND PUSH20 0xFFFFFFFFFFFFFFFFFFFFFFFFFFFFFFFFFFFFFFFF AND PUSH2 0x8FC DUP3 PUSH1 0x5 ADD SLOAD SWAP1 DUP2 ISZERO MUL SWAP1 PUSH1 0x40 MLOAD PUSH0 PUSH1 0x40 MLOAD DUP1 DUP4 SUB DUP2 DUP6 DUP9 DUP9 CALL SWAP4 POP POP POP POP ISZERO DUP1 ISZERO PUSH2 0xD28 JUMPI RETURNDATASIZE PUSH0 DUP1 RETURNDATACOPY RETURNDATASIZE PUSH0 REVERT JUMPDEST POP DUP1 PUSH1 0x3 ADD PUSH0 SWAP1 SLOAD SWAP1 PUSH2 0x100 EXP SWAP1 DIV PUSH20 0xFFFFFFFFFFFFFFFFFFFFFFFFFFFFFFFFFFFFFFFF AND PUSH20 0xFFFFFFFFFFFFFFFFFFFFFFFFFFFFFFFFFFFFFFFF AND PUSH2 0x8FC DUP3 PUSH1 0x6 ADD SLOAD SWAP1 DUP2 ISZERO MUL SWAP1 PUSH1 0x40 MLOAD PUSH0 PUSH1 0x40 MLOAD DUP1 DUP4 SUB DUP2 DUP6 DUP9 DUP9 CALL SWAP4 POP POP POP POP ISZERO DUP1 ISZERO PUSH2 0xD93 JUMPI RETURNDATASIZE PUSH0 DUP1 RETURNDATACOPY RETURNDATASIZE PUSH0 REVERT JUMPDEST POP POP POP POP JUMP JUMPDEST PUSH0 SLOAD DUP2 JUMP JUMPDEST DUP1 PUSH1 0x1 PUSH0 DUP3 DUP2 MSTORE PUSH1 0x20 ADD SWAP1 DUP2 MSTORE PUSH1 0x20 ADD PUSH0 KECCAK256 PUSH1 0x4 ADD PUSH0 SWAP1 SLOAD SWAP1 PUSH2 0x100 EXP SWAP1 DIV PUSH20 0xFFFFFFFFFFFFFFFFFFFFFFFFFFFFFFFFFFFFFFFF AND PUSH20 0xFFFFFFFFFFFFFFFFFFFFFFFFFFFFFFFFFFFFFFFF AND CALLER PUSH20 0xFFFFFFFFFFFFFFFFFFFFFFFFFFFFFFFFFFFFFFFF AND EQ PUSH2 0xE40 JUMPI PUSH1 0x40 MLOAD PUSH32 0x8C379A000000000000000000000000000000000000000000000000000000000 DUP2 MSTORE PUSH1 0x4 ADD PUSH2 0xE37 SWAP1 PUSH2 0x1DA9 JUMP JUMPDEST PUSH1 0x40 MLOAD DUP1 SWAP2 SUB SWAP1 REVERT JUMPDEST DUP2 PUSH1 0x1 DUP1 DUP2 GT ISZERO PUSH2 0xE54 JUMPI PUSH2 0xE53 PUSH2 0x12D0 JUMP JUMPDEST JUMPDEST PUSH1 0x1 PUSH0 DUP4 DUP2 MSTORE PUSH1 0x20 ADD SWAP1 DUP2 MSTORE PUSH1 0x20 ADD PUSH0 KECCAK256 PUSH1 0x8 ADD PUSH0 SWAP1 SLOAD SWAP1 PUSH2 0x100 EXP SWAP1 DIV PUSH1 0xFF AND PUSH1 0x1 DUP2 GT ISZERO PUSH2 0xE87 JUMPI PUSH2 0xE86 PUSH2 0x12D0 JUMP JUMPDEST JUMPDEST EQ PUSH2 0xEC7 JUMPI PUSH1 0x40 MLOAD PUSH32 0x8C379A000000000000000000000000000000000000000000000000000000000 DUP2 MSTORE PUSH1 0x4 ADD PUSH2 0xEBE SWAP1 PUSH2 0x1AFC JUMP JUMPDEST PUSH1 0x40 MLOAD DUP1 SWAP2 SUB SWAP1 REVERT JUMPDEST DUP3 PUSH0 PUSH1 0x1 PUSH0 DUP4 DUP2 MSTORE PUSH1 0x20 ADD SWAP1 DUP2 MSTORE PUSH1 0x20 ADD PUSH0 KECCAK256 SWAP1 POP PUSH0 DUP2 PUSH1 0x7 ADD SLOAD GT PUSH2 0xF22 JUMPI PUSH1 0x40 MLOAD PUSH32 0x8C379A000000000000000000000000000000000000000000000000000000000 DUP2 MSTORE PUSH1 0x4 ADD PUSH2 0xF19 SWAP1 PUSH2 0x1E11 JUMP JUMPDEST PUSH1 0x40 MLOAD DUP1 SWAP2 SUB SWAP1 REVERT JUMPDEST PUSH0 PUSH1 0x1 PUSH0 DUP8 DUP2 MSTORE PUSH1 0x20 ADD SWAP1 DUP2 MSTORE PUSH1 0x20 ADD PUSH0 KECCAK256 SWAP1 POP PUSH0 TIMESTAMP SWAP1 POP PUSH0 DUP3 PUSH1 0x5 ADD SLOAD SWAP1 POP DUP1 CALLVALUE LT ISZERO PUSH2 0xF85 JUMPI PUSH1 0x40 MLOAD PUSH32 0x8C379A000000000000000000000000000000000000000000000000000000000 DUP2 MSTORE PUSH1 0x4 ADD PUSH2 0xF7C SWAP1 PUSH2 0x1E9F JUMP JUMPDEST PUSH1 0x40 MLOAD DUP1 SWAP2 SUB SWAP1 REVERT JUMPDEST DUP3 PUSH1 0x3 ADD PUSH0 SWAP1 SLOAD SWAP1 PUSH2 0x100 EXP SWAP1 DIV PUSH20 0xFFFFFFFFFFFFFFFFFFFFFFFFFFFFFFFFFFFFFFFF AND PUSH20 0xFFFFFFFFFFFFFFFFFFFFFFFFFFFFFFFFFFFFFFFF AND PUSH2 0x8FC DUP5 PUSH1 0x5 ADD SLOAD SWAP1 DUP2 ISZERO MUL SWAP1 PUSH1 0x40 MLOAD PUSH0 PUSH1 0x40 MLOAD DUP1 DUP4 SUB DUP2 DUP6 DUP9 DUP9 CALL SWAP4 POP POP POP POP ISZERO DUP1 ISZERO PUSH2 0xFEF JUMPI RETURNDATASIZE PUSH0 DUP1 RETURNDATACOPY RETURNDATASIZE PUSH0 REVERT JUMPDEST POP DUP2 DUP4 PUSH1 0x7 ADD DUP2 SWAP1 SSTORE POP POP POP POP POP POP POP POP POP JUMP JUMPDEST PUSH1 0x1 PUSH1 0x20 MSTORE DUP1 PUSH0 MSTORE PUSH1 0x40 PUSH0 KECCAK256 PUSH0 SWAP2 POP SWAP1 POP DUP1 PUSH0 ADD SLOAD SWAP1 DUP1 PUSH1 0x1 ADD DUP1 SLOAD PUSH2 0x1028 SWAP1 PUSH2 0x16D2 JUMP JUMPDEST DUP1 PUSH1 0x1F ADD PUSH1 0x20 DUP1 SWAP2 DIV MUL PUSH1 0x20 ADD PUSH1 0x40 MLOAD SWAP1 DUP2 ADD PUSH1 0x40 MSTORE DUP1 SWAP3 SWAP2 SWAP1 DUP2 DUP2 MSTORE PUSH1 0x20 ADD DUP3 DUP1 SLOAD PUSH2 0x1054 SWAP1 PUSH2 0x16D2 JUMP JUMPDEST DUP1 ISZERO PUSH2 0x109F JUMPI DUP1 PUSH1 0x1F LT PUSH2 0x1076 JUMPI PUSH2 0x100 DUP1 DUP4 SLOAD DIV MUL DUP4 MSTORE SWAP2 PUSH1 0x20 ADD SWAP2 PUSH2 0x109F JUMP JUMPDEST DUP3 ADD SWAP2 SWAP1 PUSH0 MSTORE PUSH1 0x20 PUSH0 KECCAK256 SWAP1 JUMPDEST DUP2 SLOAD DUP2 MSTORE SWAP1 PUSH1 0x1 ADD SWAP1 PUSH1 0x20 ADD DUP1 DUP4 GT PUSH2 0x1082 JUMPI DUP3 SWAP1 SUB PUSH1 0x1F AND DUP3 ADD SWAP2 JUMPDEST POP POP POP POP POP SWAP1 DUP1 PUSH1 0x2 ADD DUP1 SLOAD PUSH2 0x10B4 SWAP1 PUSH2 0x16D2 JUMP JUMPDEST DUP1 PUSH1 0x1F ADD PUSH1 0x20 DUP1 SWAP2 DIV MUL PUSH1 0x20 ADD PUSH1 0x40 MLOAD SWAP1 DUP2 ADD PUSH1 0x40 MSTORE DUP1 SWAP3 SWAP2 SWAP1 DUP2 DUP2 MSTORE PUSH1 0x20 ADD DUP3 DUP1 SLOAD PUSH2 0x10E0 SWAP1 PUSH2 0x16D2 JUMP JUMPDEST DUP1 ISZERO PUSH2 0x112B JUMPI DUP1 PUSH1 0x1F LT PUSH2 0x1102 JUMPI PUSH2 0x100 DUP1 DUP4 SLOAD DIV MUL DUP4 MSTORE SWAP2 PUSH1 0x20 ADD SWAP2 PUSH2 0x112B JUMP JUMPDEST DUP3 ADD SWAP2 SWAP1 PUSH0 MSTORE PUSH1 0x20 PUSH0 KECCAK256 SWAP1 JUMPDEST DUP2 SLOAD DUP2 MSTORE SWAP1 PUSH1 0x1 ADD SWAP1 PUSH1 0x20 ADD DUP1 DUP4 GT PUSH2 0x110E JUMPI DUP3 SWAP1 SUB PUSH1 0x1F AND DUP3 ADD SWAP2 JUMPDEST POP POP POP POP POP SWAP1 DUP1 PUSH1 0x3 ADD PUSH0 SWAP1 SLOAD SWAP1 PUSH2 0x100 EXP SWAP1 DIV PUSH20 0xFFFFFFFFFFFFFFFFFFFFFFFFFFFFFFFFFFFFFFFF AND SWAP1 DUP1 PUSH1 0x4 ADD PUSH0 SWAP1 SLOAD SWAP1 PUSH2 0x100 EXP SWAP1 DIV PUSH20 0xFFFFFFFFFFFFFFFFFFFFFFFFFFFFFFFFFFFFFFFF AND SWAP1 DUP1 PUSH1 0x5 ADD SLOAD SWAP1 DUP1 PUSH1 0x6 ADD SLOAD SWAP1 DUP1 PUSH1 0x7 ADD SLOAD SWAP1 DUP1 PUSH1 0x8 ADD PUSH0 SWAP1 SLOAD SWAP1 PUSH2 0x100 EXP SWAP1 DIV PUSH1 0xFF AND SWAP1 POP DUP10 JUMP JUMPDEST PUSH0 PUSH1 0x40 MLOAD SWAP1 POP SWAP1 JUMP JUMPDEST PUSH0 DUP1 REVERT JUMPDEST PUSH0 DUP1 REVERT JUMPDEST PUSH0 DUP2 SWAP1 POP SWAP2 SWAP1 POP JUMP JUMPDEST PUSH2 0x11C6 DUP2 PUSH2 0x11B4 JUMP JUMPDEST DUP2 EQ PUSH2 0x11D0 JUMPI PUSH0 DUP1 REVERT JUMPDEST POP JUMP JUMPDEST PUSH0 DUP2 CALLDATALOAD SWAP1 POP PUSH2 0x11E1 DUP2 PUSH2 0x11BD JUMP JUMPDEST SWAP3 SWAP2 POP POP JUMP JUMPDEST PUSH0 PUSH1 0x20 DUP3 DUP5 SUB SLT ISZERO PUSH2 0x11FC JUMPI PUSH2 0x11FB PUSH2 0x11AC JUMP JUMPDEST JUMPDEST PUSH0 PUSH2 0x1209 DUP5 DUP3 DUP6 ADD PUSH2 0x11D3 JUMP JUMPDEST SWAP2 POP POP SWAP3 SWAP2 POP POP JUMP JUMPDEST PUSH2 0x121B DUP2 PUSH2 0x11B4 JUMP JUMPDEST DUP3 MSTORE POP POP JUMP JUMPDEST PUSH0 DUP2 MLOAD SWAP1 POP SWAP2 SWAP1 POP JUMP JUMPDEST PUSH0 DUP3 DUP3 MSTORE PUSH1 0x20 DUP3 ADD SWAP1 POP SWAP3 SWAP2 POP POP JUMP JUMPDEST DUP3 DUP2 DUP4 MCOPY PUSH0 DUP4 DUP4 ADD MSTORE POP POP POP JUMP JUMPDEST PUSH0 PUSH1 0x1F NOT PUSH1 0x1F DUP4 ADD AND SWAP1 POP SWAP2 SWAP1 POP JUMP JUMPDEST PUSH0 PUSH2 0x1263 DUP3 PUSH2 0x1221 JUMP JUMPDEST PUSH2 0x126D DUP2 DUP6 PUSH2 0x122B JUMP JUMPDEST SWAP4 POP PUSH2 0x127D DUP2 DUP6 PUSH1 0x20 DUP7 ADD PUSH2 0x123B JUMP JUMPDEST PUSH2 0x1286 DUP2 PUSH2 0x1249 JUMP JUMPDEST DUP5 ADD SWAP2 POP POP SWAP3 SWAP2 POP POP JUMP JUMPDEST PUSH0 PUSH20 0xFFFFFFFFFFFFFFFFFFFFFFFFFFFFFFFFFFFFFFFF DUP3 AND SWAP1 POP SWAP2 SWAP1 POP JUMP JUMPDEST PUSH0 PUSH2 0x12BA DUP3 PUSH2 0x1291 JUMP JUMPDEST SWAP1 POP SWAP2 SWAP1 POP JUMP JUMPDEST PUSH2 0x12CA DUP2 PUSH2 0x12B0 JUMP JUMPDEST DUP3 MSTORE POP POP JUMP JUMPDEST PUSH32 0x4E487B7100000000000000000000000000000000000000000000000000000000 PUSH0 MSTORE PUSH1 0x21 PUSH1 0x4 MSTORE PUSH1 0x24 PUSH0 REVERT JUMPDEST PUSH1 0x2 DUP2 LT PUSH2 0x130E JUMPI PUSH2 0x130D PUSH2 0x12D0 JUMP JUMPDEST JUMPDEST POP JUMP JUMPDEST PUSH0 DUP2 SWAP1 POP PUSH2 0x131E DUP3 PUSH2 0x12FD JUMP JUMPDEST SWAP2 SWAP1 POP JUMP JUMPDEST PUSH0 PUSH2 0x132D DUP3 PUSH2 0x1311 JUMP JUMPDEST SWAP1 POP SWAP2 SWAP1 POP JUMP JUMPDEST PUSH2 0x133D DUP2 PUSH2 0x1323 JUMP JUMPDEST DUP3 MSTORE POP POP JUMP JUMPDEST PUSH0 PUSH2 0x100 DUP3 ADD SWAP1 POP PUSH2 0x1357 PUSH0 DUP4 ADD DUP12 PUSH2 0x1212 JUMP JUMPDEST DUP2 DUP2 SUB PUSH1 0x20 DUP4 ADD MSTORE PUSH2 0x1369 DUP2 DUP11 PUSH2 0x1259 JUMP JUMPDEST SWAP1 POP DUP2 DUP2 SUB PUSH1 0x40 DUP4 ADD MSTORE PUSH2 0x137D DUP2 DUP10 PUSH2 0x1259 JUMP JUMPDEST SWAP1 POP PUSH2 0x138C PUSH1 0x60 DUP4 ADD DUP9 PUSH2 0x12C1 JUMP JUMPDEST PUSH2 0x1399 PUSH1 0x80 DUP4 ADD DUP8 PUSH2 0x12C1 JUMP JUMPDEST PUSH2 0x13A6 PUSH1 0xA0 DUP4 ADD DUP7 PUSH2 0x1212 JUMP JUMPDEST PUSH2 0x13B3 PUSH1 0xC0 DUP4 ADD DUP6 PUSH2 0x1212 JUMP JUMPDEST PUSH2 0x13C0 PUSH1 0xE0 DUP4 ADD DUP5 PUSH2 0x1334 JUMP JUMPDEST SWAP10 SWAP9 POP POP POP POP POP POP POP POP POP JUMP JUMPDEST PUSH0 DUP1 PUSH1 0x40 DUP4 DUP6 SUB SLT ISZERO PUSH2 0x13E3 JUMPI PUSH2 0x13E2 PUSH2 0x11AC JUMP JUMPDEST JUMPDEST PUSH0 PUSH2 0x13F0 DUP6 DUP3 DUP7 ADD PUSH2 0x11D3 JUMP JUMPDEST SWAP3 POP POP PUSH1 0x20 PUSH2 0x1401 DUP6 DUP3 DUP7 ADD PUSH2 0x11D3 JUMP JUMPDEST SWAP2 POP POP SWAP3 POP SWAP3 SWAP1 POP JUMP JUMPDEST PUSH0 DUP1 REVERT JUMPDEST PUSH0 DUP1 REVERT JUMPDEST PUSH32 0x4E487B7100000000000000000000000000000000000000000000000000000000 PUSH0 MSTORE PUSH1 0x41 PUSH1 0x4 MSTORE PUSH1 0x24 PUSH0 REVERT JUMPDEST PUSH2 0x1449 DUP3 PUSH2 0x1249 JUMP JUMPDEST DUP2 ADD DUP2 DUP2 LT PUSH8 0xFFFFFFFFFFFFFFFF DUP3 GT OR ISZERO PUSH2 0x1468 JUMPI PUSH2 0x1467 PUSH2 0x1413 JUMP JUMPDEST JUMPDEST DUP1 PUSH1 0x40 MSTORE POP POP POP JUMP JUMPDEST PUSH0 PUSH2 0x147A PUSH2 0x11A3 JUMP JUMPDEST SWAP1 POP PUSH2 0x1486 DUP3 DUP3 PUSH2 0x1440 JUMP JUMPDEST SWAP2 SWAP1 POP JUMP JUMPDEST PUSH0 PUSH8 0xFFFFFFFFFFFFFFFF DUP3 GT ISZERO PUSH2 0x14A5 JUMPI PUSH2 0x14A4 PUSH2 0x1413 JUMP JUMPDEST JUMPDEST PUSH2 0x14AE DUP3 PUSH2 0x1249 JUMP JUMPDEST SWAP1 POP PUSH1 0x20 DUP2 ADD SWAP1 POP SWAP2 SWAP1 POP JUMP JUMPDEST DUP3 DUP2 DUP4 CALLDATACOPY PUSH0 DUP4 DUP4 ADD MSTORE POP POP POP JUMP JUMPDEST PUSH0 PUSH2 0x14DB PUSH2 0x14D6 DUP5 PUSH2 0x148B JUMP JUMPDEST PUSH2 0x1471 JUMP JUMPDEST SWAP1 POP DUP3 DUP2 MSTORE PUSH1 0x20 DUP2 ADD DUP5 DUP5 DUP5 ADD GT ISZERO PUSH2 0x14F7 JUMPI PUSH2 0x14F6 PUSH2 0x140F JUMP JUMPDEST JUMPDEST PUSH2 0x1502 DUP5 DUP3 DUP6 PUSH2 0x14BB JUMP JUMPDEST POP SWAP4 SWAP3 POP POP POP JUMP JUMPDEST PUSH0 DUP3 PUSH1 0x1F DUP4 ADD SLT PUSH2 0x151E JUMPI PUSH2 0x151D PUSH2 0x140B JUMP JUMPDEST JUMPDEST DUP2 CALLDATALOAD PUSH2 0x152E DUP5 DUP3 PUSH1 0x20 DUP7 ADD PUSH2 0x14C9 JUMP JUMPDEST SWAP2 POP POP SWAP3 SWAP2 POP POP JUMP JUMPDEST PUSH0 DUP1 PUSH0 DUP1 PUSH1 0x80 DUP6 DUP8 SUB SLT ISZERO PUSH2 0x154F JUMPI PUSH2 0x154E PUSH2 0x11AC JUMP JUMPDEST JUMPDEST PUSH0 DUP6 ADD CALLDATALOAD PUSH8 0xFFFFFFFFFFFFFFFF DUP2 GT ISZERO PUSH2 0x156C JUMPI PUSH2 0x156B PUSH2 0x11B0 JUMP JUMPDEST JUMPDEST PUSH2 0x1578 DUP8 DUP3 DUP9 ADD PUSH2 0x150A JUMP JUMPDEST SWAP5 POP POP PUSH1 0x20 DUP6 ADD CALLDATALOAD PUSH8 0xFFFFFFFFFFFFFFFF DUP2 GT ISZERO PUSH2 0x1599 JUMPI PUSH2 0x1598 PUSH2 0x11B0 JUMP JUMPDEST JUMPDEST PUSH2 0x15A5 DUP8 DUP3 DUP9 ADD PUSH2 0x150A JUMP JUMPDEST SWAP4 POP POP PUSH1 0x40 PUSH2 0x15B6 DUP8 DUP3 DUP9 ADD PUSH2 0x11D3 JUMP JUMPDEST SWAP3 POP POP PUSH1 0x60 PUSH2 0x15C7 DUP8 DUP3 DUP9 ADD PUSH2 0x11D3 JUMP JUMPDEST SWAP2 POP POP SWAP3 SWAP6 SWAP2 SWAP5 POP SWAP3 POP JUMP JUMPDEST PUSH0 PUSH1 0x20 DUP3 ADD SWAP1 POP PUSH2 0x15E6 PUSH0 DUP4 ADD DUP5 PUSH2 0x1212 JUMP JUMPDEST SWAP3 SWAP2 POP POP JUMP JUMPDEST PUSH0 PUSH2 0x15F6 DUP3 PUSH2 0x1291 JUMP JUMPDEST SWAP1 POP SWAP2 SWAP1 POP JUMP JUMPDEST PUSH2 0x1606 DUP2 PUSH2 0x15EC JUMP JUMPDEST DUP3 MSTORE POP POP JUMP JUMPDEST PUSH0 PUSH2 0x120 DUP3 ADD SWAP1 POP PUSH2 0x1620 PUSH0 DUP4 ADD DUP13 PUSH2 0x1212 JUMP JUMPDEST DUP2 DUP2 SUB PUSH1 0x20 DUP4 ADD MSTORE PUSH2 0x1632 DUP2 DUP12 PUSH2 0x1259 JUMP JUMPDEST SWAP1 POP DUP2 DUP2 SUB PUSH1 0x40 DUP4 ADD MSTORE PUSH2 0x1646 DUP2 DUP11 PUSH2 0x1259 JUMP JUMPDEST SWAP1 POP PUSH2 0x1655 PUSH1 0x60 DUP4 ADD DUP10 PUSH2 0x15FD JUMP JUMPDEST PUSH2 0x1662 PUSH1 0x80 DUP4 ADD DUP9 PUSH2 0x12C1 JUMP JUMPDEST PUSH2 0x166F PUSH1 0xA0 DUP4 ADD DUP8 PUSH2 0x1212 JUMP JUMPDEST PUSH2 0x167C PUSH1 0xC0 DUP4 ADD DUP7 PUSH2 0x1212 JUMP JUMPDEST PUSH2 0x1689 PUSH1 0xE0 DUP4 ADD DUP6 PUSH2 0x1212 JUMP JUMPDEST PUSH2 0x1697 PUSH2 0x100 DUP4 ADD DUP5 PUSH2 0x1334 JUMP JUMPDEST SWAP11 SWAP10 POP POP POP POP POP POP POP POP POP POP JUMP JUMPDEST PUSH32 0x4E487B7100000000000000000000000000000000000000000000000000000000 PUSH0 MSTORE PUSH1 0x22 PUSH1 0x4 MSTORE PUSH1 0x24 PUSH0 REVERT JUMPDEST PUSH0 PUSH1 0x2 DUP3 DIV SWAP1 POP PUSH1 0x1 DUP3 AND DUP1 PUSH2 0x16E9 JUMPI PUSH1 0x7F DUP3 AND SWAP2 POP JUMPDEST PUSH1 0x20 DUP3 LT DUP2 SUB PUSH2 0x16FC JUMPI PUSH2 0x16FB PUSH2 0x16A5 JUMP JUMPDEST JUMPDEST POP SWAP2 SWAP1 POP JUMP JUMPDEST PUSH32 0x4E6F742070726F7065727479206F776E65720000000000000000000000000000 PUSH0 DUP3 ADD MSTORE POP JUMP JUMPDEST PUSH0 PUSH2 0x1736 PUSH1 0x12 DUP4 PUSH2 0x122B JUMP JUMPDEST SWAP2 POP PUSH2 0x1741 DUP3 PUSH2 0x1702 JUMP JUMPDEST PUSH1 0x20 DUP3 ADD SWAP1 POP SWAP2 SWAP1 POP JUMP JUMPDEST PUSH0 PUSH1 0x20 DUP3 ADD SWAP1 POP DUP2 DUP2 SUB PUSH0 DUP4 ADD MSTORE PUSH2 0x1763 DUP2 PUSH2 0x172A JUMP JUMPDEST SWAP1 POP SWAP2 SWAP1 POP JUMP JUMPDEST PUSH32 0x4E487B7100000000000000000000000000000000000000000000000000000000 PUSH0 MSTORE PUSH1 0x11 PUSH1 0x4 MSTORE PUSH1 0x24 PUSH0 REVERT JUMPDEST PUSH0 PUSH2 0x17A1 DUP3 PUSH2 0x11B4 JUMP JUMPDEST SWAP2 POP PUSH32 0xFFFFFFFFFFFFFFFFFFFFFFFFFFFFFFFFFFFFFFFFFFFFFFFFFFFFFFFFFFFFFFFF DUP3 SUB PUSH2 0x17D3 JUMPI PUSH2 0x17D2 PUSH2 0x176A JUMP JUMPDEST JUMPDEST PUSH1 0x1 DUP3 ADD SWAP1 POP SWAP2 SWAP1 POP JUMP JUMPDEST PUSH0 DUP2 SWAP1 POP DUP2 PUSH0 MSTORE PUSH1 0x20 PUSH0 KECCAK256 SWAP1 POP SWAP2 SWAP1 POP JUMP JUMPDEST PUSH0 PUSH1 0x20 PUSH1 0x1F DUP4 ADD DIV SWAP1 POP SWAP2 SWAP1 POP JUMP JUMPDEST PUSH0 DUP3 DUP3 SHL SWAP1 POP SWAP3 SWAP2 POP POP JUMP JUMPDEST PUSH0 PUSH1 0x8 DUP4 MUL PUSH2 0x183A PUSH32 0xFFFFFFFFFFFFFFFFFFFFFFFFFFFFFFFFFFFFFFFFFFFFFFFFFFFFFFFFFFFFFFFF DUP3 PUSH2 0x17FF JUMP JUMPDEST PUSH2 0x1844 DUP7 DUP4 PUSH2 0x17FF JUMP JUMPDEST SWAP6 POP DUP1 NOT DUP5 AND SWAP4 POP DUP1 DUP7 AND DUP5 OR SWAP3 POP POP POP SWAP4 SWAP3 POP POP POP JUMP JUMPDEST PUSH0 DUP2 SWAP1 POP SWAP2 SWAP1 POP JUMP JUMPDEST PUSH0 PUSH2 0x187F PUSH2 0x187A PUSH2 0x1875 DUP5 PUSH2 0x11B4 JUMP JUMPDEST PUSH2 0x185C JUMP JUMPDEST PUSH2 0x11B4 JUMP JUMPDEST SWAP1 POP SWAP2 SWAP1 POP JUMP JUMPDEST PUSH0 DUP2 SWAP1 POP SWAP2 SWAP1 POP JUMP JUMPDEST PUSH2 0x1898 DUP4 PUSH2 0x1865 JUMP JUMPDEST PUSH2 0x18AC PUSH2 0x18A4 DUP3 PUSH2 0x1886 JUMP JUMPDEST DUP5 DUP5 SLOAD PUSH2 0x180B JUMP JUMPDEST DUP3 SSTORE POP POP POP POP JUMP JUMPDEST PUSH0 SWAP1 JUMP JUMPDEST PUSH2 0x18C0 PUSH2 0x18B4 JUMP JUMPDEST PUSH2 0x18CB DUP2 DUP5 DUP5 PUSH2 0x188F JUMP JUMPDEST POP POP POP JUMP JUMPDEST JUMPDEST DUP2 DUP2 LT ISZERO PUSH2 0x18EE JUMPI PUSH2 0x18E3 PUSH0 DUP3 PUSH2 0x18B8 JUMP JUMPDEST PUSH1 0x1 DUP2 ADD SWAP1 POP PUSH2 0x18D1 JUMP JUMPDEST POP POP JUMP JUMPDEST PUSH1 0x1F DUP3 GT ISZERO PUSH2 0x1933 JUMPI PUSH2 0x1904 DUP2 PUSH2 0x17DE JUMP JUMPDEST PUSH2 0x190D DUP5 PUSH2 0x17F0 JUMP JUMPDEST DUP2 ADD PUSH1 0x20 DUP6 LT ISZERO PUSH2 0x191C JUMPI DUP2 SWAP1 POP JUMPDEST PUSH2 0x1930 PUSH2 0x1928 DUP6 PUSH2 0x17F0 JUMP JUMPDEST DUP4 ADD DUP3 PUSH2 0x18D0 JUMP JUMPDEST POP POP JUMPDEST POP POP POP JUMP JUMPDEST PUSH0 DUP3 DUP3 SHR SWAP1 POP SWAP3 SWAP2 POP POP JUMP JUMPDEST PUSH0 PUSH2 0x1953 PUSH0 NOT DUP5 PUSH1 0x8 MUL PUSH2 0x1938 JUMP JUMPDEST NOT DUP1 DUP4 AND SWAP2 POP POP SWAP3 SWAP2 POP POP JUMP JUMPDEST PUSH0 PUSH2 0x196B DUP4 DUP4 PUSH2 0x1944 JUMP JUMPDEST SWAP2 POP DUP3 PUSH1 0x2 MUL DUP3 OR SWAP1 POP SWAP3 SWAP2 POP POP JUMP JUMPDEST PUSH2 0x1984 DUP3 PUSH2 0x1221 JUMP JUMPDEST PUSH8 0xFFFFFFFFFFFFFFFF DUP2 GT ISZERO PUSH2 0x199D JUMPI PUSH2 0x199C PUSH2 0x1413 JUMP JUMPDEST JUMPDEST PUSH2 0x19A7 DUP3 SLOAD PUSH2 0x16D2 JUMP JUMPDEST PUSH2 0x19B2 DUP3 DUP3 DUP6 PUSH2 0x18F2 JUMP JUMPDEST PUSH0 PUSH1 0x20 SWAP1 POP PUSH1 0x1F DUP4 GT PUSH1 0x1 DUP2 EQ PUSH2 0x19E3 JUMPI PUSH0 DUP5 ISZERO PUSH2 0x19D1 JUMPI DUP3 DUP8 ADD MLOAD SWAP1 POP JUMPDEST PUSH2 0x19DB DUP6 DUP3 PUSH2 0x1960 JUMP JUMPDEST DUP7 SSTORE POP PUSH2 0x1A42 JUMP JUMPDEST PUSH1 0x1F NOT DUP5 AND PUSH2 0x19F1 DUP7 PUSH2 0x17DE JUMP JUMPDEST PUSH0 JUMPDEST DUP3 DUP2 LT ISZERO PUSH2 0x1A18 JUMPI DUP5 DUP10 ADD MLOAD DUP3 SSTORE PUSH1 0x1 DUP3 ADD SWAP2 POP PUSH1 0x20 DUP6 ADD SWAP5 POP PUSH1 0x20 DUP2 ADD SWAP1 POP PUSH2 0x19F3 JUMP JUMPDEST DUP7 DUP4 LT ISZERO PUSH2 0x1A35 JUMPI DUP5 DUP10 ADD MLOAD PUSH2 0x1A31 PUSH1 0x1F DUP10 AND DUP3 PUSH2 0x1944 JUMP JUMPDEST DUP4 SSTORE POP JUMPDEST PUSH1 0x1 PUSH1 0x2 DUP9 MUL ADD DUP9 SSTORE POP POP POP JUMPDEST POP POP POP POP POP POP JUMP JUMPDEST PUSH32 0x4F6E6C79206F776E65722063616E207769746864726177000000000000000000 PUSH0 DUP3 ADD MSTORE POP JUMP JUMPDEST PUSH0 PUSH2 0x1A7E PUSH1 0x17 DUP4 PUSH2 0x122B JUMP JUMPDEST SWAP2 POP PUSH2 0x1A89 DUP3 PUSH2 0x1A4A JUMP JUMPDEST PUSH1 0x20 DUP3 ADD SWAP1 POP SWAP2 SWAP1 POP JUMP JUMPDEST PUSH0 PUSH1 0x20 DUP3 ADD SWAP1 POP DUP2 DUP2 SUB PUSH0 DUP4 ADD MSTORE PUSH2 0x1AAB DUP2 PUSH2 0x1A72 JUMP JUMPDEST SWAP1 POP SWAP2 SWAP1 POP JUMP JUMPDEST PUSH32 0x50726F7065727479206973206E6F742072656E74656400000000000000000000 PUSH0 DUP3 ADD MSTORE POP JUMP JUMPDEST PUSH0 PUSH2 0x1AE6 PUSH1 0x16 DUP4 PUSH2 0x122B JUMP JUMPDEST SWAP2 POP PUSH2 0x1AF1 DUP3 PUSH2 0x1AB2 JUMP JUMPDEST PUSH1 0x20 DUP3 ADD SWAP1 POP SWAP2 SWAP1 POP JUMP JUMPDEST PUSH0 PUSH1 0x20 DUP3 ADD SWAP1 POP DUP2 DUP2 SUB PUSH0 DUP4 ADD MSTORE PUSH2 0x1B13 DUP2 PUSH2 0x1ADA JUMP JUMPDEST SWAP1 POP SWAP2 SWAP1 POP JUMP JUMPDEST PUSH32 0x4F6E6C79206F776E6572206F722072656E7465722063616E20656E642072656E PUSH0 DUP3 ADD MSTORE PUSH32 0x74616C0000000000000000000000000000000000000000000000000000000000 PUSH1 0x20 DUP3 ADD MSTORE POP JUMP JUMPDEST PUSH0 PUSH2 0x1B74 PUSH1 0x23 DUP4 PUSH2 0x122B JUMP JUMPDEST SWAP2 POP PUSH2 0x1B7F DUP3 PUSH2 0x1B1A JUMP JUMPDEST PUSH1 0x40 DUP3 ADD SWAP1 POP SWAP2 SWAP1 POP JUMP JUMPDEST PUSH0 PUSH1 0x20 DUP3 ADD SWAP1 POP DUP2 DUP2 SUB PUSH0 DUP4 ADD MSTORE PUSH2 0x1BA1 DUP2 PUSH2 0x1B68 JUMP JUMPDEST SWAP1 POP SWAP2 SWAP1 POP JUMP JUMPDEST PUSH32 0x50726F7065727479206973206E6F7420617661696C61626C6500000000000000 PUSH0 DUP3 ADD MSTORE POP JUMP JUMPDEST PUSH0 PUSH2 0x1BDC PUSH1 0x19 DUP4 PUSH2 0x122B JUMP JUMPDEST SWAP2 POP PUSH2 0x1BE7 DUP3 PUSH2 0x1BA8 JUMP JUMPDEST PUSH1 0x20 DUP3 ADD SWAP1 POP SWAP2 SWAP1 POP JUMP JUMPDEST PUSH0 PUSH1 0x20 DUP3 ADD SWAP1 POP DUP2 DUP2 SUB PUSH0 DUP4 ADD MSTORE PUSH2 0x1C09 DUP2 PUSH2 0x1BD0 JUMP JUMPDEST SWAP1 POP SWAP2 SWAP1 POP JUMP JUMPDEST PUSH32 0x4F776E65722063616E6E6F742072656E74207468656972206F776E2070726F70 PUSH0 DUP3 ADD MSTORE PUSH32 0x6572747900000000000000000000000000000000000000000000000000000000 PUSH1 0x20 DUP3 ADD MSTORE POP JUMP JUMPDEST PUSH0 PUSH2 0x1C6A PUSH1 0x24 DUP4 PUSH2 0x122B JUMP JUMPDEST SWAP2 POP PUSH2 0x1C75 DUP3 PUSH2 0x1C10 JUMP JUMPDEST PUSH1 0x40 DUP3 ADD SWAP1 POP SWAP2 SWAP1 POP JUMP JUMPDEST PUSH0 PUSH1 0x20 DUP3 ADD SWAP1 POP DUP2 DUP2 SUB PUSH0 DUP4 ADD MSTORE PUSH2 0x1C97 DUP2 PUSH2 0x1C5E JUMP JUMPDEST SWAP1 POP SWAP2 SWAP1 POP JUMP JUMPDEST PUSH0 PUSH2 0x1CA8 DUP3 PUSH2 0x11B4 JUMP JUMPDEST SWAP2 POP PUSH2 0x1CB3 DUP4 PUSH2 0x11B4 JUMP JUMPDEST SWAP3 POP DUP3 DUP3 ADD SWAP1 POP DUP1 DUP3 GT ISZERO PUSH2 0x1CCB JUMPI PUSH2 0x1CCA PUSH2 0x176A JUMP JUMPDEST JUMPDEST SWAP3 SWAP2 POP POP JUMP JUMPDEST PUSH32 0x496E73756666696369656E742072656E74207061796D656E74202B206465706F PUSH0 DUP3 ADD MSTORE PUSH32 0x7369740000000000000000000000000000000000000000000000000000000000 PUSH1 0x20 DUP3 ADD MSTORE POP JUMP JUMPDEST PUSH0 PUSH2 0x1D2B PUSH1 0x23 DUP4 PUSH2 0x122B JUMP JUMPDEST SWAP2 POP PUSH2 0x1D36 DUP3 PUSH2 0x1CD1 JUMP JUMPDEST PUSH1 0x40 DUP3 ADD SWAP1 POP SWAP2 SWAP1 POP JUMP JUMPDEST PUSH0 PUSH1 0x20 DUP3 ADD SWAP1 POP DUP2 DUP2 SUB PUSH0 DUP4 ADD MSTORE PUSH2 0x1D58 DUP2 PUSH2 0x1D1F JUMP JUMPDEST SWAP1 POP SWAP2 SWAP1 POP JUMP JUMPDEST PUSH32 0x4E6F742072656E746572206F6620746869732070726F70657274790000000000 PUSH0 DUP3 ADD MSTORE POP JUMP JUMPDEST PUSH0 PUSH2 0x1D93 PUSH1 0x1B DUP4 PUSH2 0x122B JUMP JUMPDEST SWAP2 POP PUSH2 0x1D9E DUP3 PUSH2 0x1D5F JUMP JUMPDEST PUSH1 0x20 DUP3 ADD SWAP1 POP SWAP2 SWAP1 POP JUMP JUMPDEST PUSH0 PUSH1 0x20 DUP3 ADD SWAP1 POP DUP2 DUP2 SUB PUSH0 DUP4 ADD MSTORE PUSH2 0x1DC0 DUP2 PUSH2 0x1D87 JUMP JUMPDEST SWAP1 POP SWAP2 SWAP1 POP JUMP JUMPDEST PUSH32 0x52656E74657220686173206E6F74207061696420796574000000000000000000 PUSH0 DUP3 ADD MSTORE POP JUMP JUMPDEST PUSH0 PUSH2 0x1DFB PUSH1 0x17 DUP4 PUSH2 0x122B JUMP JUMPDEST SWAP2 POP PUSH2 0x1E06 DUP3 PUSH2 0x1DC7 JUMP JUMPDEST PUSH1 0x20 DUP3 ADD SWAP1 POP SWAP2 SWAP1 POP JUMP JUMPDEST PUSH0 PUSH1 0x20 DUP3 ADD SWAP1 POP DUP2 DUP2 SUB PUSH0 DUP4 ADD MSTORE PUSH2 0x1E28 DUP2 PUSH2 0x1DEF JUMP JUMPDEST SWAP1 POP SWAP2 SWAP1 POP JUMP JUMPDEST PUSH32 0x496E73756666696369656E74207061796D656E7420696E636C7564696E67206C PUSH0 DUP3 ADD MSTORE PUSH32 0x6174652066656500000000000000000000000000000000000000000000000000 PUSH1 0x20 DUP3 ADD MSTORE POP JUMP JUMPDEST PUSH0 PUSH2 0x1E89 PUSH1 0x27 DUP4 PUSH2 0x122B JUMP JUMPDEST SWAP2 POP PUSH2 0x1E94 DUP3 PUSH2 0x1E2F JUMP JUMPDEST PUSH1 0x40 DUP3 ADD SWAP1 POP SWAP2 SWAP1 POP JUMP JUMPDEST PUSH0 PUSH1 0x20 DUP3 ADD SWAP1 POP DUP2 DUP2 SUB PUSH0 DUP4 ADD MSTORE PUSH2 0x1EB6 DUP2 PUSH2 0x1E7D JUMP JUMPDEST SWAP1 POP SWAP2 SWAP1 POP JUMP INVALID LOG2 PUSH5 0x6970667358 0x22 SLT KECCAK256 CODESIZE DUP5 SWAP10 0xA6 0xCF EQ 0xAA 0xC4 0xDB 0x2E PUSH8 0x1F853CCA0CCA0B63 SWAP10 DUP2 0xB7 PUSH3 0x510750 MULMOD SGT PUSH9 0x8D9DC064736F6C6343 STOP ADDMOD BYTE STOP CALLER "
				},
				"gasEstimates": {
					"creation": {
						"codeDepositCost": "1584600",
						"executionCost": "6662",
						"totalCost": "1591262"
					},
					"external": {
						"addProperty(string,string,uint256,uint256)": "infinite",
						"endRental(uint256)": "infinite",
						"getProperty(uint256)": "infinite",
						"payRent(uint256)": "infinite",
						"properties(uint256)": "infinite",
						"propertyCount()": "2468",
						"rentProperty(uint256)": "infinite",
						"updateRentPrice(uint256,uint256)": "infinite",
						"withdrawBalance()": "infinite"
					}
				},
				"methodIdentifiers": {
					"addProperty(string,string,uint256,uint256)": "55ecd14c",
					"endRental(uint256)": "97491d6f",
					"getProperty(uint256)": "32665ffb",
					"payRent(uint256)": "d9e8843f",
					"properties(uint256)": "f7b10808",
					"propertyCount()": "c361a335",
					"rentProperty(uint256)": "9d36ab6c",
					"updateRentPrice(uint256,uint256)": "4feb2982",
					"withdrawBalance()": "5fd8c710"
				}
			},
			"storageLayout": {
				"storage": [
					{
						"astId": 5,
						"contract": "contracts/RealEstate.sol:RealEstate",
						"label": "propertyCount",
						"offset": 0,
						"slot": "0",
						"type": "t_uint256"
					},
					{
						"astId": 33,
						"contract": "contracts/RealEstate.sol:RealEstate",
						"label": "properties",
						"offset": 0,
						"slot": "1",
						"type": "t_mapping(t_uint256,t_struct(Property)28_storage)"
					}
				],
				"types": {
					"t_address": {
						"encoding": "inplace",
						"label": "address",
						"numberOfBytes": "20"
					},
					"t_address_payable": {
						"encoding": "inplace",
						"label": "address payable",
						"numberOfBytes": "20"
					},
					"t_enum(Status)8": {
						"encoding": "inplace",
						"label": "enum RealEstate.Status",
						"numberOfBytes": "1"
					},
					"t_mapping(t_uint256,t_struct(Property)28_storage)": {
						"encoding": "mapping",
						"key": "t_uint256",
						"label": "mapping(uint256 => struct RealEstate.Property)",
						"numberOfBytes": "32",
						"value": "t_struct(Property)28_storage"
					},
					"t_string_storage": {
						"encoding": "bytes",
						"label": "string",
						"numberOfBytes": "32"
					},
					"t_struct(Property)28_storage": {
						"encoding": "inplace",
						"label": "struct RealEstate.Property",
						"members": [
							{
								"astId": 10,
								"contract": "contracts/RealEstate.sol:RealEstate",
								"label": "id",
								"offset": 0,
								"slot": "0",
								"type": "t_uint256"
							},
							{
								"astId": 12,
								"contract": "contracts/RealEstate.sol:RealEstate",
								"label": "name",
								"offset": 0,
								"slot": "1",
								"type": "t_string_storage"
							},
							{
								"astId": 14,
								"contract": "contracts/RealEstate.sol:RealEstate",
								"label": "location",
								"offset": 0,
								"slot": "2",
								"type": "t_string_storage"
							},
							{
								"astId": 16,
								"contract": "contracts/RealEstate.sol:RealEstate",
								"label": "owner",
								"offset": 0,
								"slot": "3",
								"type": "t_address_payable"
							},
							{
								"astId": 18,
								"contract": "contracts/RealEstate.sol:RealEstate",
								"label": "renter",
								"offset": 0,
								"slot": "4",
								"type": "t_address"
							},
							{
								"astId": 20,
								"contract": "contracts/RealEstate.sol:RealEstate",
								"label": "rentPrice",
								"offset": 0,
								"slot": "5",
								"type": "t_uint256"
							},
							{
								"astId": 22,
								"contract": "contracts/RealEstate.sol:RealEstate",
								"label": "deposit",
								"offset": 0,
								"slot": "6",
								"type": "t_uint256"
							},
							{
								"astId": 24,
								"contract": "contracts/RealEstate.sol:RealEstate",
								"label": "lastPaid",
								"offset": 0,
								"slot": "7",
								"type": "t_uint256"
							},
							{
								"astId": 27,
								"contract": "contracts/RealEstate.sol:RealEstate",
								"label": "status",
								"offset": 0,
								"slot": "8",
								"type": "t_enum(Status)8"
							}
						],
						"numberOfBytes": "288"
					},
					"t_uint256": {
						"encoding": "inplace",
						"label": "uint256",
						"numberOfBytes": "32"
					}
				}
			},
			"userdoc": {
				"kind": "user",
				"methods": {
					"updateRentPrice(uint256,uint256)": {
						"notice": "Chủ sở hữu cập nhật giá thuê"
					}
				},
				"version": 1
			}
		}
	}
}