{
	"contracts/RealEstate.sol": {
		"HopDongThueCanHo": {
			"abi": [
				{
					"inputs": [
						{
							"internalType": "uint256",
							"name": "_chiPhiHangThang",
							"type": "uint256"
						},
						{
							"internalType": "uint256",
							"name": "_thoiGianThueThang",
							"type": "uint256"
						}
					],
					"stateMutability": "nonpayable",
					"type": "constructor"
				},
				{
					"inputs": [],
					"name": "chamDutHopDong",
					"outputs": [],
					"stateMutability": "payable",
					"type": "function"
				},
				{
					"inputs": [],
					"name": "chapNhanYeuCauGiaHan",
					"outputs": [],
					"stateMutability": "nonpayable",
					"type": "function"
				},
				{
					"inputs": [],
					"name": "huyYeuCauGiaHan",
					"outputs": [],
					"stateMutability": "payable",
					"type": "function"
				},
				{
					"inputs": [],
					"name": "kyHopDong",
					"outputs": [],
					"stateMutability": "payable",
					"type": "function"
				},
				{
					"inputs": [
						{
							"internalType": "uint256",
							"name": "soTienCanRut",
							"type": "uint256"
						}
					],
					"name": "rutSoDu",
					"outputs": [],
					"stateMutability": "payable",
					"type": "function"
				},
				{
					"inputs": [
						{
							"internalType": "uint256",
							"name": "soThangMuonRut",
							"type": "uint256"
						}
					],
					"name": "rutTien",
					"outputs": [],
					"stateMutability": "payable",
					"type": "function"
				},
				{
					"inputs": [],
					"name": "thongTinNha",
					"outputs": [
						{
							"internalType": "address",
							"name": "chuNha",
							"type": "address"
						},
						{
							"internalType": "uint256",
							"name": "chiPhiHangThang",
							"type": "uint256"
						},
						{
							"internalType": "uint256",
							"name": "thoiGianThueThang",
							"type": "uint256"
						},
						{
							"internalType": "bool",
							"name": "hopDongDuocKy",
							"type": "bool"
						}
					],
					"stateMutability": "view",
					"type": "function"
				},
				{
					"inputs": [
						{
							"internalType": "address",
							"name": "taiKhoan",
							"type": "address"
						}
					],
					"name": "xemSoDu",
					"outputs": [
						{
							"internalType": "uint256",
							"name": "",
							"type": "uint256"
						}
					],
					"stateMutability": "view",
					"type": "function"
				},
				{
					"inputs": [],
					"name": "xemTinhTrangThue",
					"outputs": [
						{
							"internalType": "address",
							"name": "nguoiThue",
							"type": "address"
						},
						{
							"internalType": "uint256",
							"name": "thoiDiemBatDau",
							"type": "uint256"
						},
						{
							"internalType": "uint256",
							"name": "soThangDaThanhToan",
							"type": "uint256"
						},
						{
							"internalType": "uint256",
							"name": "thoiGianConLai",
							"type": "uint256"
						}
					],
					"stateMutability": "view",
					"type": "function"
				},
				{
					"inputs": [],
					"name": "xemYeuCauGiaHanHopDong",
					"outputs": [
						{
							"internalType": "uint256",
							"name": "soThangThem",
							"type": "uint256"
						},
						{
							"internalType": "uint256",
							"name": "soTienDaChuyen",
							"type": "uint256"
						}
					],
					"stateMutability": "view",
					"type": "function"
				},
				{
					"inputs": [
						{
							"internalType": "uint256",
							"name": "soThangThem",
							"type": "uint256"
						}
					],
					"name": "yeuCauGiaHan",
					"outputs": [],
					"stateMutability": "payable",
					"type": "function"
				}
			],
			"devdoc": {
				"kind": "dev",
				"methods": {},
				"version": 1
			},
			"evm": {
				"assembly": "    /* \"contracts/RealEstate.sol\":57:10384  contract HopDongThueCanHo {... */\n  mstore(0x40, 0x80)\n    /* \"contracts/RealEstate.sol\":665:1077  constructor(uint256 _chiPhiHangThang, uint256 _thoiGianThueThang) {... */\n  callvalue\n  dup1\n  iszero\n  tag_1\n  jumpi\n  revert(0x00, 0x00)\ntag_1:\n  pop\n  mload(0x40)\n  sub(codesize, bytecodeSize)\n  dup1\n  bytecodeSize\n  dup4\n  codecopy\n  dup2\n  dup2\n  add\n  0x40\n  mstore\n  dup2\n  add\n  swap1\n  tag_2\n  swap2\n  swap1\n  tag_3\n  jump\t// in\ntag_2:\n    /* \"contracts/RealEstate.sol\":768:769  0 */\n  0x00\n    /* \"contracts/RealEstate.sol\":749:765  _chiPhiHangThang */\n  dup3\n    /* \"contracts/RealEstate.sol\":749:769  _chiPhiHangThang > 0 */\n  gt\n    /* \"contracts/RealEstate.sol\":741:801  require(_chiPhiHangThang > 0, \"Chi phi hang thang phai > 0\") */\n  tag_6\n  jumpi\n  mload(0x40)\n  0x08c379a000000000000000000000000000000000000000000000000000000000\n  dup2\n  mstore\n  0x04\n  add\n  tag_7\n  swap1\n  tag_8\n  jump\t// in\ntag_7:\n  mload(0x40)\n  dup1\n  swap2\n  sub\n  swap1\n  revert\ntag_6:\n    /* \"contracts/RealEstate.sol\":840:841  0 */\n  0x00\n    /* \"contracts/RealEstate.sol\":819:837  _thoiGianThueThang */\n  dup2\n    /* \"contracts/RealEstate.sol\":819:841  _thoiGianThueThang > 0 */\n  gt\n    /* \"contracts/RealEstate.sol\":811:869  require(_thoiGianThueThang > 0, \"Thoi gian thue phai > 0\") */\n  tag_9\n  jumpi\n  mload(0x40)\n  0x08c379a000000000000000000000000000000000000000000000000000000000\n  dup2\n  mstore\n  0x04\n  add\n  tag_10\n  swap1\n  tag_11\n  jump\t// in\ntag_10:\n  mload(0x40)\n  dup1\n  swap2\n  sub\n  swap1\n  revert\ntag_9:\n    /* \"contracts/RealEstate.sol\":901:911  msg.sender */\n  caller\n    /* \"contracts/RealEstate.sol\":880:891  thongTinNha */\n  0x00\n    /* \"contracts/RealEstate.sol\":880:898  thongTinNha.chuNha */\n  0x00\n  add\n  0x00\n    /* \"contracts/RealEstate.sol\":880:911  thongTinNha.chuNha = msg.sender */\n  0x0100\n  exp\n  dup2\n  sload\n  dup2\n  0xffffffffffffffffffffffffffffffffffffffff\n  mul\n  not\n  and\n  swap1\n  dup4\n  0xffffffffffffffffffffffffffffffffffffffff\n  and\n  mul\n  or\n  swap1\n  sstore\n  pop\n    /* \"contracts/RealEstate.sol\":951:967  _chiPhiHangThang */\n  dup2\n    /* \"contracts/RealEstate.sol\":921:932  thongTinNha */\n  0x00\n    /* \"contracts/RealEstate.sol\":921:948  thongTinNha.chiPhiHangThang */\n  0x01\n  add\n    /* \"contracts/RealEstate.sol\":921:967  thongTinNha.chiPhiHangThang = _chiPhiHangThang */\n  dup2\n  swap1\n  sstore\n  pop\n    /* \"contracts/RealEstate.sol\":1009:1027  _thoiGianThueThang */\n  dup1\n    /* \"contracts/RealEstate.sol\":977:988  thongTinNha */\n  0x00\n    /* \"contracts/RealEstate.sol\":977:1006  thongTinNha.thoiGianThueThang */\n  0x02\n  add\n    /* \"contracts/RealEstate.sol\":977:1027  thongTinNha.thoiGianThueThang = _thoiGianThueThang */\n  dup2\n  swap1\n  sstore\n  pop\n    /* \"contracts/RealEstate.sol\":1065:1070  false */\n  0x00\n    /* \"contracts/RealEstate.sol\":1037:1048  thongTinNha */\n  0x00\n    /* \"contracts/RealEstate.sol\":1037:1062  thongTinNha.hopDongDuocKy */\n  0x03\n  add\n  0x00\n    /* \"contracts/RealEstate.sol\":1037:1070  thongTinNha.hopDongDuocKy = false */\n  0x0100\n  exp\n  dup2\n  sload\n  dup2\n  0xff\n  mul\n  not\n  and\n  swap1\n  dup4\n  iszero\n  iszero\n  mul\n  or\n  swap1\n  sstore\n  pop\n    /* \"contracts/RealEstate.sol\":665:1077  constructor(uint256 _chiPhiHangThang, uint256 _thoiGianThueThang) {... */\n  pop\n  pop\n    /* \"contracts/RealEstate.sol\":57:10384  contract HopDongThueCanHo {... */\n  jump(tag_12)\n    /* \"#utility.yul\":88:205   */\ntag_14:\n    /* \"#utility.yul\":197:198   */\n  0x00\n    /* \"#utility.yul\":194:195   */\n  0x00\n    /* \"#utility.yul\":187:199   */\n  revert\n    /* \"#utility.yul\":334:411   */\ntag_16:\n    /* \"#utility.yul\":371:378   */\n  0x00\n    /* \"#utility.yul\":400:405   */\n  dup2\n    /* \"#utility.yul\":389:405   */\n  swap1\n  pop\n    /* \"#utility.yul\":334:411   */\n  swap2\n  swap1\n  pop\n  jump\t// out\n    /* \"#utility.yul\":417:539   */\ntag_17:\n    /* \"#utility.yul\":490:514   */\n  tag_30\n    /* \"#utility.yul\":508:513   */\n  dup2\n    /* \"#utility.yul\":490:514   */\n  tag_16\n  jump\t// in\ntag_30:\n    /* \"#utility.yul\":483:488   */\n  dup2\n    /* \"#utility.yul\":480:515   */\n  eq\n    /* \"#utility.yul\":470:533   */\n  tag_31\n  jumpi\n    /* \"#utility.yul\":529:530   */\n  0x00\n    /* \"#utility.yul\":526:527   */\n  0x00\n    /* \"#utility.yul\":519:531   */\n  revert\n    /* \"#utility.yul\":470:533   */\ntag_31:\n    /* \"#utility.yul\":417:539   */\n  pop\n  jump\t// out\n    /* \"#utility.yul\":545:688   */\ntag_18:\n    /* \"#utility.yul\":602:607   */\n  0x00\n    /* \"#utility.yul\":633:639   */\n  dup2\n    /* \"#utility.yul\":627:640   */\n  mload\n    /* \"#utility.yul\":618:640   */\n  swap1\n  pop\n    /* \"#utility.yul\":649:682   */\n  tag_33\n    /* \"#utility.yul\":676:681   */\n  dup2\n    /* \"#utility.yul\":649:682   */\n  tag_17\n  jump\t// in\ntag_33:\n    /* \"#utility.yul\":545:688   */\n  swap3\n  swap2\n  pop\n  pop\n  jump\t// out\n    /* \"#utility.yul\":694:1201   */\ntag_3:\n    /* \"#utility.yul\":773:779   */\n  0x00\n    /* \"#utility.yul\":781:787   */\n  0x00\n    /* \"#utility.yul\":830:832   */\n  0x40\n    /* \"#utility.yul\":818:827   */\n  dup4\n    /* \"#utility.yul\":809:816   */\n  dup6\n    /* \"#utility.yul\":805:828   */\n  sub\n    /* \"#utility.yul\":801:833   */\n  slt\n    /* \"#utility.yul\":798:917   */\n  iszero\n  tag_35\n  jumpi\n    /* \"#utility.yul\":836:915   */\n  tag_36\n  tag_14\n  jump\t// in\ntag_36:\n    /* \"#utility.yul\":798:917   */\ntag_35:\n    /* \"#utility.yul\":956:957   */\n  0x00\n    /* \"#utility.yul\":981:1045   */\n  tag_37\n    /* \"#utility.yul\":1037:1044   */\n  dup6\n    /* \"#utility.yul\":1028:1034   */\n  dup3\n    /* \"#utility.yul\":1017:1026   */\n  dup7\n    /* \"#utility.yul\":1013:1035   */\n  add\n    /* \"#utility.yul\":981:1045   */\n  tag_18\n  jump\t// in\ntag_37:\n    /* \"#utility.yul\":971:1045   */\n  swap3\n  pop\n    /* \"#utility.yul\":927:1055   */\n  pop\n    /* \"#utility.yul\":1094:1096   */\n  0x20\n    /* \"#utility.yul\":1120:1184   */\n  tag_38\n    /* \"#utility.yul\":1176:1183   */\n  dup6\n    /* \"#utility.yul\":1167:1173   */\n  dup3\n    /* \"#utility.yul\":1156:1165   */\n  dup7\n    /* \"#utility.yul\":1152:1174   */\n  add\n    /* \"#utility.yul\":1120:1184   */\n  tag_18\n  jump\t// in\ntag_38:\n    /* \"#utility.yul\":1110:1184   */\n  swap2\n  pop\n    /* \"#utility.yul\":1065:1194   */\n  pop\n    /* \"#utility.yul\":694:1201   */\n  swap3\n  pop\n  swap3\n  swap1\n  pop\n  jump\t// out\n    /* \"#utility.yul\":1207:1376   */\ntag_19:\n    /* \"#utility.yul\":1291:1302   */\n  0x00\n    /* \"#utility.yul\":1325:1331   */\n  dup3\n    /* \"#utility.yul\":1320:1323   */\n  dup3\n    /* \"#utility.yul\":1313:1332   */\n  mstore\n    /* \"#utility.yul\":1365:1369   */\n  0x20\n    /* \"#utility.yul\":1360:1363   */\n  dup3\n    /* \"#utility.yul\":1356:1370   */\n  add\n    /* \"#utility.yul\":1341:1370   */\n  swap1\n  pop\n    /* \"#utility.yul\":1207:1376   */\n  swap3\n  swap2\n  pop\n  pop\n  jump\t// out\n    /* \"#utility.yul\":1382:1559   */\ntag_20:\n    /* \"#utility.yul\":1522:1551   */\n  0x436869207068692068616e67207468616e672070686169203e20300000000000\n    /* \"#utility.yul\":1518:1519   */\n  0x00\n    /* \"#utility.yul\":1510:1516   */\n  dup3\n    /* \"#utility.yul\":1506:1520   */\n  add\n    /* \"#utility.yul\":1499:1552   */\n  mstore\n    /* \"#utility.yul\":1382:1559   */\n  pop\n  jump\t// out\n    /* \"#utility.yul\":1565:1931   */\ntag_21:\n    /* \"#utility.yul\":1707:1710   */\n  0x00\n    /* \"#utility.yul\":1728:1795   */\n  tag_42\n    /* \"#utility.yul\":1792:1794   */\n  0x1b\n    /* \"#utility.yul\":1787:1790   */\n  dup4\n    /* \"#utility.yul\":1728:1795   */\n  tag_19\n  jump\t// in\ntag_42:\n    /* \"#utility.yul\":1721:1795   */\n  swap2\n  pop\n    /* \"#utility.yul\":1804:1897   */\n  tag_43\n    /* \"#utility.yul\":1893:1896   */\n  dup3\n    /* \"#utility.yul\":1804:1897   */\n  tag_20\n  jump\t// in\ntag_43:\n    /* \"#utility.yul\":1922:1924   */\n  0x20\n    /* \"#utility.yul\":1917:1920   */\n  dup3\n    /* \"#utility.yul\":1913:1925   */\n  add\n    /* \"#utility.yul\":1906:1925   */\n  swap1\n  pop\n    /* \"#utility.yul\":1565:1931   */\n  swap2\n  swap1\n  pop\n  jump\t// out\n    /* \"#utility.yul\":1937:2356   */\ntag_8:\n    /* \"#utility.yul\":2103:2107   */\n  0x00\n    /* \"#utility.yul\":2141:2143   */\n  0x20\n    /* \"#utility.yul\":2130:2139   */\n  dup3\n    /* \"#utility.yul\":2126:2144   */\n  add\n    /* \"#utility.yul\":2118:2144   */\n  swap1\n  pop\n    /* \"#utility.yul\":2190:2199   */\n  dup2\n    /* \"#utility.yul\":2184:2188   */\n  dup2\n    /* \"#utility.yul\":2180:2200   */\n  sub\n    /* \"#utility.yul\":2176:2177   */\n  0x00\n    /* \"#utility.yul\":2165:2174   */\n  dup4\n    /* \"#utility.yul\":2161:2178   */\n  add\n    /* \"#utility.yul\":2154:2201   */\n  mstore\n    /* \"#utility.yul\":2218:2349   */\n  tag_45\n    /* \"#utility.yul\":2344:2348   */\n  dup2\n    /* \"#utility.yul\":2218:2349   */\n  tag_21\n  jump\t// in\ntag_45:\n    /* \"#utility.yul\":2210:2349   */\n  swap1\n  pop\n    /* \"#utility.yul\":1937:2356   */\n  swap2\n  swap1\n  pop\n  jump\t// out\n    /* \"#utility.yul\":2362:2535   */\ntag_22:\n    /* \"#utility.yul\":2502:2527   */\n  0x54686f69206769616e20746875652070686169203e2030000000000000000000\n    /* \"#utility.yul\":2498:2499   */\n  0x00\n    /* \"#utility.yul\":2490:2496   */\n  dup3\n    /* \"#utility.yul\":2486:2500   */\n  add\n    /* \"#utility.yul\":2479:2528   */\n  mstore\n    /* \"#utility.yul\":2362:2535   */\n  pop\n  jump\t// out\n    /* \"#utility.yul\":2541:2907   */\ntag_23:\n    /* \"#utility.yul\":2683:2686   */\n  0x00\n    /* \"#utility.yul\":2704:2771   */\n  tag_48\n    /* \"#utility.yul\":2768:2770   */\n  0x17\n    /* \"#utility.yul\":2763:2766   */\n  dup4\n    /* \"#utility.yul\":2704:2771   */\n  tag_19\n  jump\t// in\ntag_48:\n    /* \"#utility.yul\":2697:2771   */\n  swap2\n  pop\n    /* \"#utility.yul\":2780:2873   */\n  tag_49\n    /* \"#utility.yul\":2869:2872   */\n  dup3\n    /* \"#utility.yul\":2780:2873   */\n  tag_22\n  jump\t// in\ntag_49:\n    /* \"#utility.yul\":2898:2900   */\n  0x20\n    /* \"#utility.yul\":2893:2896   */\n  dup3\n    /* \"#utility.yul\":2889:2901   */\n  add\n    /* \"#utility.yul\":2882:2901   */\n  swap1\n  pop\n    /* \"#utility.yul\":2541:2907   */\n  swap2\n  swap1\n  pop\n  jump\t// out\n    /* \"#utility.yul\":2913:3332   */\ntag_11:\n    /* \"#utility.yul\":3079:3083   */\n  0x00\n    /* \"#utility.yul\":3117:3119   */\n  0x20\n    /* \"#utility.yul\":3106:3115   */\n  dup3\n    /* \"#utility.yul\":3102:3120   */\n  add\n    /* \"#utility.yul\":3094:3120   */\n  swap1\n  pop\n    /* \"#utility.yul\":3166:3175   */\n  dup2\n    /* \"#utility.yul\":3160:3164   */\n  dup2\n    /* \"#utility.yul\":3156:3176   */\n  sub\n    /* \"#utility.yul\":3152:3153   */\n  0x00\n    /* \"#utility.yul\":3141:3150   */\n  dup4\n    /* \"#utility.yul\":3137:3154   */\n  add\n    /* \"#utility.yul\":3130:3177   */\n  mstore\n    /* \"#utility.yul\":3194:3325   */\n  tag_51\n    /* \"#utility.yul\":3320:3324   */\n  dup2\n    /* \"#utility.yul\":3194:3325   */\n  tag_23\n  jump\t// in\ntag_51:\n    /* \"#utility.yul\":3186:3325   */\n  swap1\n  pop\n    /* \"#utility.yul\":2913:3332   */\n  swap2\n  swap1\n  pop\n  jump\t// out\n    /* \"contracts/RealEstate.sol\":57:10384  contract HopDongThueCanHo {... */\ntag_12:\n  dataSize(sub_0)\n  dup1\n  dataOffset(sub_0)\n  0x00\n  codecopy\n  0x00\n  return\nstop\n\nsub_0: assembly {\n        /* \"contracts/RealEstate.sol\":57:10384  contract HopDongThueCanHo {... */\n      mstore(0x40, 0x80)\n      jumpi(tag_1, lt(calldatasize, 0x04))\n      shr(0xe0, calldataload(0x00))\n      dup1\n      0xae1a094c\n      gt\n      tag_13\n      jumpi\n      dup1\n      0xae1a094c\n      eq\n      tag_7\n      jumpi\n      dup1\n      0xbe68bb21\n      eq\n      tag_8\n      jumpi\n      dup1\n      0xddca361f\n      eq\n      tag_9\n      jumpi\n      dup1\n      0xe6f869c3\n      eq\n      tag_10\n      jumpi\n      dup1\n      0xe89f62a6\n      eq\n      tag_11\n      jumpi\n      dup1\n      0xf17b93a8\n      eq\n      tag_12\n      jumpi\n      jump(tag_1)\n    tag_13:\n      dup1\n      0x4ead34\n      eq\n      tag_2\n      jumpi\n      dup1\n      0x185c8b8d\n      eq\n      tag_3\n      jumpi\n      dup1\n      0x619089d3\n      eq\n      tag_4\n      jumpi\n      dup1\n      0x836b4790\n      eq\n      tag_5\n      jumpi\n      dup1\n      0x8770f889\n      eq\n      tag_6\n      jumpi\n    tag_1:\n      revert(0x00, 0x00)\n        /* \"contracts/RealEstate.sol\":8605:10382  function chamDutHopDong() external payable {... */\n    tag_2:\n      tag_14\n      tag_15\n      jump\t// in\n    tag_14:\n      stop\n        /* \"contracts/RealEstate.sol\":2878:4107  function rutTien(uint256 soThangMuonRut) external payable {... */\n    tag_3:\n      tag_16\n      0x04\n      dup1\n      calldatasize\n      sub\n      dup2\n      add\n      swap1\n      tag_17\n      swap2\n      swap1\n      tag_18\n      jump\t// in\n    tag_17:\n      tag_19\n      jump\t// in\n    tag_16:\n      stop\n        /* \"contracts/RealEstate.sol\":2117:2872  function kyHopDong() external payable {... */\n    tag_4:\n      tag_20\n      tag_21\n      jump\t// in\n    tag_20:\n      stop\n        /* \"contracts/RealEstate.sol\":7282:8019  function chapNhanYeuCauGiaHan() external {... */\n    tag_5:\n      callvalue\n      dup1\n      iszero\n      tag_22\n      jumpi\n      revert(0x00, 0x00)\n    tag_22:\n      pop\n      tag_23\n      tag_24\n      jump\t// in\n    tag_23:\n      stop\n        /* \"contracts/RealEstate.sol\":4424:5691  function rutSoDu(uint256 soTienCanRut) external payable {... */\n    tag_6:\n      tag_25\n      0x04\n      dup1\n      calldatasize\n      sub\n      dup2\n      add\n      swap1\n      tag_26\n      swap2\n      swap1\n      tag_18\n      jump\t// in\n    tag_26:\n      tag_27\n      jump\t// in\n    tag_25:\n      stop\n        /* \"contracts/RealEstate.sol\":4113:4418  function xemSoDu(address taiKhoan) external view returns (uint256) {... */\n    tag_7:\n      callvalue\n      dup1\n      iszero\n      tag_28\n      jumpi\n      revert(0x00, 0x00)\n    tag_28:\n      pop\n      tag_29\n      0x04\n      dup1\n      calldatasize\n      sub\n      dup2\n      add\n      swap1\n      tag_30\n      swap2\n      swap1\n      tag_31\n      jump\t// in\n    tag_30:\n      tag_32\n      jump\t// in\n    tag_29:\n      mload(0x40)\n      tag_33\n      swap2\n      swap1\n      tag_34\n      jump\t// in\n    tag_33:\n      mload(0x40)\n      dup1\n      swap2\n      sub\n      swap1\n      return\n        /* \"contracts/RealEstate.sol\":6727:7276  function xemYeuCauGiaHanHopDong()... */\n    tag_8:\n      callvalue\n      dup1\n      iszero\n      tag_35\n      jumpi\n      revert(0x00, 0x00)\n    tag_35:\n      pop\n      tag_36\n      tag_37\n      jump\t// in\n    tag_36:\n      mload(0x40)\n      tag_38\n      swap3\n      swap2\n      swap1\n      tag_39\n      jump\t// in\n    tag_38:\n      mload(0x40)\n      dup1\n      swap2\n      sub\n      swap1\n      return\n        /* \"contracts/RealEstate.sol\":1083:2111  function xemTinhTrangThue()... */\n    tag_9:\n      callvalue\n      dup1\n      iszero\n      tag_40\n      jumpi\n      revert(0x00, 0x00)\n    tag_40:\n      pop\n      tag_41\n      tag_42\n      jump\t// in\n    tag_41:\n      mload(0x40)\n      tag_43\n      swap5\n      swap4\n      swap3\n      swap2\n      swap1\n      tag_44\n      jump\t// in\n    tag_43:\n      mload(0x40)\n      dup1\n      swap2\n      sub\n      swap1\n      return\n        /* \"contracts/RealEstate.sol\":8025:8599  function huyYeuCauGiaHan() external payable {... */\n    tag_10:\n      tag_45\n      tag_46\n      jump\t// in\n    tag_45:\n      stop\n        /* \"contracts/RealEstate.sol\":5697:6721  function yeuCauGiaHan(uint256 soThangThem) external payable {... */\n    tag_11:\n      tag_47\n      0x04\n      dup1\n      calldatasize\n      sub\n      dup2\n      add\n      swap1\n      tag_48\n      swap2\n      swap1\n      tag_18\n      jump\t// in\n    tag_48:\n      tag_49\n      jump\t// in\n    tag_47:\n      stop\n        /* \"contracts/RealEstate.sol\":496:526  ThongTinNha public thongTinNha */\n    tag_12:\n      callvalue\n      dup1\n      iszero\n      tag_50\n      jumpi\n      revert(0x00, 0x00)\n    tag_50:\n      pop\n      tag_51\n      tag_52\n      jump\t// in\n    tag_51:\n      mload(0x40)\n      tag_53\n      swap5\n      swap4\n      swap3\n      swap2\n      swap1\n      tag_54\n      jump\t// in\n    tag_53:\n      mload(0x40)\n      dup1\n      swap2\n      sub\n      swap1\n      return\n        /* \"contracts/RealEstate.sol\":8605:10382  function chamDutHopDong() external payable {... */\n    tag_15:\n        /* \"contracts/RealEstate.sol\":8666:8677  thongTinNha */\n      0x00\n        /* \"contracts/RealEstate.sol\":8666:8691  thongTinNha.hopDongDuocKy */\n      0x03\n      add\n      0x00\n      swap1\n      sload\n      swap1\n      0x0100\n      exp\n      swap1\n      div\n      0xff\n      and\n        /* \"contracts/RealEstate.sol\":8658:8712  require(thongTinNha.hopDongDuocKy, \"Chua co hop dong\") */\n      tag_56\n      jumpi\n      mload(0x40)\n      0x08c379a000000000000000000000000000000000000000000000000000000000\n      dup2\n      mstore\n      0x04\n      add\n      tag_57\n      swap1\n      tag_58\n      jump\t// in\n    tag_57:\n      mload(0x40)\n      dup1\n      swap2\n      sub\n      swap1\n      revert\n    tag_56:\n        /* \"contracts/RealEstate.sol\":8757:8769  thongTinThue */\n      0x04\n        /* \"contracts/RealEstate.sol\":8757:8779  thongTinThue.nguoiThue */\n      0x00\n      add\n      0x00\n      swap1\n      sload\n      swap1\n      0x0100\n      exp\n      swap1\n      div\n      0xffffffffffffffffffffffffffffffffffffffff\n      and\n        /* \"contracts/RealEstate.sol\":8743:8779  msg.sender == thongTinThue.nguoiThue */\n      0xffffffffffffffffffffffffffffffffffffffff\n      and\n        /* \"contracts/RealEstate.sol\":8743:8753  msg.sender */\n      caller\n        /* \"contracts/RealEstate.sol\":8743:8779  msg.sender == thongTinThue.nguoiThue */\n      0xffffffffffffffffffffffffffffffffffffffff\n      and\n      eq\n        /* \"contracts/RealEstate.sol\":8743:8831  msg.sender == thongTinThue.nguoiThue ||... */\n      dup1\n      tag_59\n      jumpi\n      pop\n        /* \"contracts/RealEstate.sol\":8813:8824  thongTinNha */\n      0x00\n        /* \"contracts/RealEstate.sol\":8813:8831  thongTinNha.chuNha */\n      0x00\n      add\n      0x00\n      swap1\n      sload\n      swap1\n      0x0100\n      exp\n      swap1\n      div\n      0xffffffffffffffffffffffffffffffffffffffff\n      and\n        /* \"contracts/RealEstate.sol\":8799:8831  msg.sender == thongTinNha.chuNha */\n      0xffffffffffffffffffffffffffffffffffffffff\n      and\n        /* \"contracts/RealEstate.sol\":8799:8809  msg.sender */\n      caller\n        /* \"contracts/RealEstate.sol\":8799:8831  msg.sender == thongTinNha.chuNha */\n      0xffffffffffffffffffffffffffffffffffffffff\n      and\n      eq\n        /* \"contracts/RealEstate.sol\":8743:8831  msg.sender == thongTinThue.nguoiThue ||... */\n    tag_59:\n        /* \"contracts/RealEstate.sol\":8722:8897  require(... */\n      tag_60\n      jumpi\n      mload(0x40)\n      0x08c379a000000000000000000000000000000000000000000000000000000000\n      dup2\n      mstore\n      0x04\n      add\n      tag_61\n      swap1\n      tag_62\n      jump\t// in\n    tag_61:\n      mload(0x40)\n      dup1\n      swap2\n      sub\n      swap1\n      revert\n    tag_60:\n        /* \"contracts/RealEstate.sol\":8951:8952  0 */\n      0x00\n        /* \"contracts/RealEstate.sol\":8912:8924  soDuTaiKhoan */\n      0x0a\n        /* \"contracts/RealEstate.sol\":8912:8948  soDuTaiKhoan[thongTinThue.nguoiThue] */\n      0x00\n        /* \"contracts/RealEstate.sol\":8925:8937  thongTinThue */\n      0x04\n        /* \"contracts/RealEstate.sol\":8925:8947  thongTinThue.nguoiThue */\n      0x00\n      add\n      0x00\n      swap1\n      sload\n      swap1\n      0x0100\n      exp\n      swap1\n      div\n      0xffffffffffffffffffffffffffffffffffffffff\n      and\n        /* \"contracts/RealEstate.sol\":8912:8948  soDuTaiKhoan[thongTinThue.nguoiThue] */\n      0xffffffffffffffffffffffffffffffffffffffff\n      and\n      0xffffffffffffffffffffffffffffffffffffffff\n      and\n      dup2\n      mstore\n      0x20\n      add\n      swap1\n      dup2\n      mstore\n      0x20\n      add\n      0x00\n      keccak256\n      sload\n        /* \"contracts/RealEstate.sol\":8912:8952  soDuTaiKhoan[thongTinThue.nguoiThue] > 0 */\n      gt\n        /* \"contracts/RealEstate.sol\":8908:10077  if (soDuTaiKhoan[thongTinThue.nguoiThue] > 0) {... */\n      iszero\n      tag_63\n      jumpi\n        /* \"contracts/RealEstate.sol\":8968:8989  uint256 tongThangThue */\n      0x00\n        /* \"contracts/RealEstate.sol\":8992:9003  thongTinNha */\n      0x00\n        /* \"contracts/RealEstate.sol\":8992:9021  thongTinNha.thoiGianThueThang */\n      0x02\n      add\n      sload\n        /* \"contracts/RealEstate.sol\":8968:9021  uint256 tongThangThue = thongTinNha.thoiGianThueThang */\n      swap1\n      pop\n        /* \"contracts/RealEstate.sol\":9035:9058  uint256 soThangDaSuDung */\n      0x00\n        /* \"contracts/RealEstate.sol\":9127:9137  10 seconds */\n      0x0a\n        /* \"contracts/RealEstate.sol\":9096:9108  thongTinThue */\n      0x04\n        /* \"contracts/RealEstate.sol\":9096:9123  thongTinThue.thoiDiemBatDau */\n      0x01\n      add\n      sload\n        /* \"contracts/RealEstate.sol\":9062:9077  block.timestamp */\n      timestamp\n        /* \"contracts/RealEstate.sol\":9062:9123  block.timestamp -... */\n      tag_64\n      swap2\n      swap1\n      tag_65\n      jump\t// in\n    tag_64:\n        /* \"contracts/RealEstate.sol\":9061:9137  (block.timestamp -... */\n      tag_66\n      swap2\n      swap1\n      tag_67\n      jump\t// in\n    tag_66:\n        /* \"contracts/RealEstate.sol\":9035:9137  uint256 soThangDaSuDung = (block.timestamp -... */\n      swap1\n      pop\n        /* \"contracts/RealEstate.sol\":9174:9187  tongThangThue */\n      dup2\n        /* \"contracts/RealEstate.sol\":9156:9171  soThangDaSuDung */\n      dup2\n        /* \"contracts/RealEstate.sol\":9156:9187  soThangDaSuDung > tongThangThue */\n      gt\n        /* \"contracts/RealEstate.sol\":9152:9253  if (soThangDaSuDung > tongThangThue) {... */\n      iszero\n      tag_68\n      jumpi\n        /* \"contracts/RealEstate.sol\":9225:9238  tongThangThue */\n      dup2\n        /* \"contracts/RealEstate.sol\":9207:9238  soThangDaSuDung = tongThangThue */\n      swap1\n      pop\n        /* \"contracts/RealEstate.sol\":9152:9253  if (soThangDaSuDung > tongThangThue) {... */\n    tag_68:\n        /* \"contracts/RealEstate.sol\":9267:9294  uint256 soTienChuaThanhToan */\n      0x00\n        /* \"contracts/RealEstate.sol\":9367:9378  thongTinNha */\n      0x00\n        /* \"contracts/RealEstate.sol\":9367:9394  thongTinNha.chiPhiHangThang */\n      0x01\n      add\n      sload\n        /* \"contracts/RealEstate.sol\":9332:9344  thongTinThue */\n      0x04\n        /* \"contracts/RealEstate.sol\":9332:9363  thongTinThue.soThangDaThanhToan */\n      0x02\n      add\n      sload\n        /* \"contracts/RealEstate.sol\":9298:9313  soThangDaSuDung */\n      dup4\n        /* \"contracts/RealEstate.sol\":9298:9363  soThangDaSuDung -... */\n      tag_69\n      swap2\n      swap1\n      tag_65\n      jump\t// in\n    tag_69:\n        /* \"contracts/RealEstate.sol\":9297:9394  (soThangDaSuDung -... */\n      tag_70\n      swap2\n      swap1\n      tag_71\n      jump\t// in\n    tag_70:\n        /* \"contracts/RealEstate.sol\":9267:9394  uint256 soTienChuaThanhToan = (soThangDaSuDung -... */\n      swap1\n      pop\n        /* \"contracts/RealEstate.sol\":9409:9428  uint256 tienHoanLai */\n      0x00\n        /* \"contracts/RealEstate.sol\":9486:9505  soTienChuaThanhToan */\n      dup2\n        /* \"contracts/RealEstate.sol\":9431:9443  soDuTaiKhoan */\n      0x0a\n        /* \"contracts/RealEstate.sol\":9431:9467  soDuTaiKhoan[thongTinThue.nguoiThue] */\n      0x00\n        /* \"contracts/RealEstate.sol\":9444:9456  thongTinThue */\n      0x04\n        /* \"contracts/RealEstate.sol\":9444:9466  thongTinThue.nguoiThue */\n      0x00\n      add\n      0x00\n      swap1\n      sload\n      swap1\n      0x0100\n      exp\n      swap1\n      div\n      0xffffffffffffffffffffffffffffffffffffffff\n      and\n        /* \"contracts/RealEstate.sol\":9431:9467  soDuTaiKhoan[thongTinThue.nguoiThue] */\n      0xffffffffffffffffffffffffffffffffffffffff\n      and\n      0xffffffffffffffffffffffffffffffffffffffff\n      and\n      dup2\n      mstore\n      0x20\n      add\n      swap1\n      dup2\n      mstore\n      0x20\n      add\n      0x00\n      keccak256\n      sload\n        /* \"contracts/RealEstate.sol\":9431:9505  soDuTaiKhoan[thongTinThue.nguoiThue] -... */\n      tag_72\n      swap2\n      swap1\n      tag_65\n      jump\t// in\n    tag_72:\n        /* \"contracts/RealEstate.sol\":9409:9505  uint256 tienHoanLai = soDuTaiKhoan[thongTinThue.nguoiThue] -... */\n      swap1\n      pop\n        /* \"contracts/RealEstate.sol\":9613:9614  0 */\n      0x00\n        /* \"contracts/RealEstate.sol\":9599:9610  tienHoanLai */\n      dup2\n        /* \"contracts/RealEstate.sol\":9599:9614  tienHoanLai > 0 */\n      gt\n        /* \"contracts/RealEstate.sol\":9595:9812  if (tienHoanLai > 0) {... */\n      iszero\n      tag_73\n      jumpi\n        /* \"contracts/RealEstate.sol\":9635:9647  bool success */\n      0x00\n        /* \"contracts/RealEstate.sol\":9661:9671  msg.sender */\n      caller\n        /* \"contracts/RealEstate.sol\":9653:9677  payable(msg.sender).call */\n      0xffffffffffffffffffffffffffffffffffffffff\n      and\n        /* \"contracts/RealEstate.sol\":9685:9696  tienHoanLai */\n      dup3\n        /* \"contracts/RealEstate.sol\":9653:9739  payable(msg.sender).call{value: tienHoanLai}(... */\n      mload(0x40)\n      tag_74\n      swap1\n      tag_75\n      jump\t// in\n    tag_74:\n      0x00\n      mload(0x40)\n      dup1\n      dup4\n      sub\n      dup2\n      dup6\n      dup8\n      gas\n      call\n      swap3\n      pop\n      pop\n      pop\n      returndatasize\n      dup1\n      0x00\n      dup2\n      eq\n      tag_78\n      jumpi\n      mload(0x40)\n      swap2\n      pop\n      and(add(returndatasize, 0x3f), not(0x1f))\n      dup3\n      add\n      0x40\n      mstore\n      returndatasize\n      dup3\n      mstore\n      returndatasize\n      0x00\n      0x20\n      dup5\n      add\n      returndatacopy\n      jump(tag_77)\n    tag_78:\n      0x60\n      swap2\n      pop\n    tag_77:\n      pop\n        /* \"contracts/RealEstate.sol\":9634:9739  (bool success, ) = payable(msg.sender).call{value: tienHoanLai}(... */\n      pop\n      swap1\n      pop\n        /* \"contracts/RealEstate.sol\":9765:9772  success */\n      dup1\n        /* \"contracts/RealEstate.sol\":9757:9797  require(success, \"Chuyen tien that bai\") */\n      tag_79\n      jumpi\n      mload(0x40)\n      0x08c379a000000000000000000000000000000000000000000000000000000000\n      dup2\n      mstore\n      0x04\n      add\n      tag_80\n      swap1\n      tag_81\n      jump\t// in\n    tag_80:\n      mload(0x40)\n      dup1\n      swap2\n      sub\n      swap1\n      revert\n    tag_79:\n        /* \"contracts/RealEstate.sol\":9616:9812  {... */\n      pop\n        /* \"contracts/RealEstate.sol\":9595:9812  if (tienHoanLai > 0) {... */\n    tag_73:\n        /* \"contracts/RealEstate.sol\":9921:9922  0 */\n      0x00\n        /* \"contracts/RealEstate.sol\":9899:9918  soTienChuaThanhToan */\n      dup3\n        /* \"contracts/RealEstate.sol\":9899:9922  soTienChuaThanhToan > 0 */\n      gt\n        /* \"contracts/RealEstate.sol\":9895:10012  if (soTienChuaThanhToan > 0) {... */\n      iszero\n      tag_82\n      jumpi\n        /* \"contracts/RealEstate.sol\":9978:9997  soTienChuaThanhToan */\n      dup2\n        /* \"contracts/RealEstate.sol\":9942:9954  soDuTaiKhoan */\n      0x0a\n        /* \"contracts/RealEstate.sol\":9942:9974  soDuTaiKhoan[thongTinNha.chuNha] */\n      0x00\n        /* \"contracts/RealEstate.sol\":9955:9966  thongTinNha */\n      0x00\n        /* \"contracts/RealEstate.sol\":9955:9973  thongTinNha.chuNha */\n      0x00\n      add\n      0x00\n      swap1\n      sload\n      swap1\n      0x0100\n      exp\n      swap1\n      div\n      0xffffffffffffffffffffffffffffffffffffffff\n      and\n        /* \"contracts/RealEstate.sol\":9942:9974  soDuTaiKhoan[thongTinNha.chuNha] */\n      0xffffffffffffffffffffffffffffffffffffffff\n      and\n      0xffffffffffffffffffffffffffffffffffffffff\n      and\n      dup2\n      mstore\n      0x20\n      add\n      swap1\n      dup2\n      mstore\n      0x20\n      add\n      0x00\n      keccak256\n      0x00\n        /* \"contracts/RealEstate.sol\":9942:9997  soDuTaiKhoan[thongTinNha.chuNha] += soTienChuaThanhToan */\n      dup3\n      dup3\n      sload\n      tag_83\n      swap2\n      swap1\n      tag_84\n      jump\t// in\n    tag_83:\n      swap3\n      pop\n      pop\n      dup2\n      swap1\n      sstore\n      pop\n        /* \"contracts/RealEstate.sol\":9895:10012  if (soTienChuaThanhToan > 0) {... */\n    tag_82:\n        /* \"contracts/RealEstate.sol\":10065:10066  0 */\n      0x00\n        /* \"contracts/RealEstate.sol\":10026:10038  soDuTaiKhoan */\n      0x0a\n        /* \"contracts/RealEstate.sol\":10026:10062  soDuTaiKhoan[thongTinThue.nguoiThue] */\n      0x00\n        /* \"contracts/RealEstate.sol\":10039:10051  thongTinThue */\n      0x04\n        /* \"contracts/RealEstate.sol\":10039:10061  thongTinThue.nguoiThue */\n      0x00\n      add\n      0x00\n      swap1\n      sload\n      swap1\n      0x0100\n      exp\n      swap1\n      div\n      0xffffffffffffffffffffffffffffffffffffffff\n      and\n        /* \"contracts/RealEstate.sol\":10026:10062  soDuTaiKhoan[thongTinThue.nguoiThue] */\n      0xffffffffffffffffffffffffffffffffffffffff\n      and\n      0xffffffffffffffffffffffffffffffffffffffff\n      and\n      dup2\n      mstore\n      0x20\n      add\n      swap1\n      dup2\n      mstore\n      0x20\n      add\n      0x00\n      keccak256\n        /* \"contracts/RealEstate.sol\":10026:10066  soDuTaiKhoan[thongTinThue.nguoiThue] = 0 */\n      dup2\n      swap1\n      sstore\n      pop\n        /* \"contracts/RealEstate.sol\":8954:10077  {... */\n      pop\n      pop\n      pop\n      pop\n        /* \"contracts/RealEstate.sol\":8908:10077  if (soDuTaiKhoan[thongTinThue.nguoiThue] > 0) {... */\n    tag_63:\n        /* \"contracts/RealEstate.sol\":10153:10158  false */\n      0x00\n        /* \"contracts/RealEstate.sol\":10125:10136  thongTinNha */\n      0x00\n        /* \"contracts/RealEstate.sol\":10125:10150  thongTinNha.hopDongDuocKy */\n      0x03\n      add\n      0x00\n        /* \"contracts/RealEstate.sol\":10125:10158  thongTinNha.hopDongDuocKy = false */\n      0x0100\n      exp\n      dup2\n      sload\n      dup2\n      0xff\n      mul\n      not\n      and\n      swap1\n      dup4\n      iszero\n      iszero\n      mul\n      or\n      swap1\n      sstore\n      pop\n        /* \"contracts/RealEstate.sol\":10245:10246  0 */\n      0x00\n        /* \"contracts/RealEstate.sol\":10212:10224  thongTinThue */\n      0x04\n        /* \"contracts/RealEstate.sol\":10212:10234  thongTinThue.nguoiThue */\n      0x00\n      add\n      0x00\n        /* \"contracts/RealEstate.sol\":10212:10247  thongTinThue.nguoiThue = address(0) */\n      0x0100\n      exp\n      dup2\n      sload\n      dup2\n      0xffffffffffffffffffffffffffffffffffffffff\n      mul\n      not\n      and\n      swap1\n      dup4\n      0xffffffffffffffffffffffffffffffffffffffff\n      and\n      mul\n      or\n      swap1\n      sstore\n      pop\n        /* \"contracts/RealEstate.sol\":10287:10288  0 */\n      0x00\n        /* \"contracts/RealEstate.sol\":10257:10269  thongTinThue */\n      0x04\n        /* \"contracts/RealEstate.sol\":10257:10284  thongTinThue.thoiDiemBatDau */\n      0x01\n      add\n        /* \"contracts/RealEstate.sol\":10257:10288  thongTinThue.thoiDiemBatDau = 0 */\n      dup2\n      swap1\n      sstore\n      pop\n        /* \"contracts/RealEstate.sol\":10332:10333  0 */\n      0x00\n        /* \"contracts/RealEstate.sol\":10298:10310  thongTinThue */\n      0x04\n        /* \"contracts/RealEstate.sol\":10298:10329  thongTinThue.soThangDaThanhToan */\n      0x02\n      add\n        /* \"contracts/RealEstate.sol\":10298:10333  thongTinThue.soThangDaThanhToan = 0 */\n      dup2\n      swap1\n      sstore\n      pop\n        /* \"contracts/RealEstate.sol\":10374:10375  0 */\n      0x00\n        /* \"contracts/RealEstate.sol\":10343:10355  thongTinThue */\n      0x04\n        /* \"contracts/RealEstate.sol\":10343:10371  thongTinThue.thoiDiemKetThuc */\n      0x03\n      add\n        /* \"contracts/RealEstate.sol\":10343:10375  thongTinThue.thoiDiemKetThuc = 0 */\n      dup2\n      swap1\n      sstore\n      pop\n        /* \"contracts/RealEstate.sol\":8605:10382  function chamDutHopDong() external payable {... */\n      jump\t// out\n        /* \"contracts/RealEstate.sol\":2878:4107  function rutTien(uint256 soThangMuonRut) external payable {... */\n    tag_19:\n        /* \"contracts/RealEstate.sol\":2981:2992  thongTinNha */\n      0x00\n        /* \"contracts/RealEstate.sol\":2981:2999  thongTinNha.chuNha */\n      0x00\n      add\n      0x00\n      swap1\n      sload\n      swap1\n      0x0100\n      exp\n      swap1\n      div\n      0xffffffffffffffffffffffffffffffffffffffff\n      and\n        /* \"contracts/RealEstate.sol\":2967:2999  msg.sender == thongTinNha.chuNha */\n      0xffffffffffffffffffffffffffffffffffffffff\n      and\n        /* \"contracts/RealEstate.sol\":2967:2977  msg.sender */\n      caller\n        /* \"contracts/RealEstate.sol\":2967:2999  msg.sender == thongTinNha.chuNha */\n      0xffffffffffffffffffffffffffffffffffffffff\n      and\n      eq\n        /* \"contracts/RealEstate.sol\":2946:3054  require(... */\n      tag_86\n      jumpi\n      mload(0x40)\n      0x08c379a000000000000000000000000000000000000000000000000000000000\n      dup2\n      mstore\n      0x04\n      add\n      tag_87\n      swap1\n      tag_88\n      jump\t// in\n    tag_87:\n      mload(0x40)\n      dup1\n      swap2\n      sub\n      swap1\n      revert\n    tag_86:\n        /* \"contracts/RealEstate.sol\":3072:3083  thongTinNha */\n      0x00\n        /* \"contracts/RealEstate.sol\":3072:3097  thongTinNha.hopDongDuocKy */\n      0x03\n      add\n      0x00\n      swap1\n      sload\n      swap1\n      0x0100\n      exp\n      swap1\n      div\n      0xff\n      and\n        /* \"contracts/RealEstate.sol\":3064:3125  require(thongTinNha.hopDongDuocKy, \"Chua co hop dong hop le\") */\n      tag_89\n      jumpi\n      mload(0x40)\n      0x08c379a000000000000000000000000000000000000000000000000000000000\n      dup2\n      mstore\n      0x04\n      add\n      tag_90\n      swap1\n      tag_91\n      jump\t// in\n    tag_90:\n      mload(0x40)\n      dup1\n      swap2\n      sub\n      swap1\n      revert\n    tag_89:\n        /* \"contracts/RealEstate.sol\":3190:3201  thongTinNha */\n      0x00\n        /* \"contracts/RealEstate.sol\":3190:3219  thongTinNha.thoiGianThueThang */\n      0x02\n      add\n      sload\n        /* \"contracts/RealEstate.sol\":3156:3168  thongTinThue */\n      0x04\n        /* \"contracts/RealEstate.sol\":3156:3187  thongTinThue.soThangDaThanhToan */\n      0x02\n      add\n      sload\n        /* \"contracts/RealEstate.sol\":3156:3219  thongTinThue.soThangDaThanhToan < thongTinNha.thoiGianThueThang */\n      lt\n        /* \"contracts/RealEstate.sol\":3135:3276  require(... */\n      tag_92\n      jumpi\n      mload(0x40)\n      0x08c379a000000000000000000000000000000000000000000000000000000000\n      dup2\n      mstore\n      0x04\n      add\n      tag_93\n      swap1\n      tag_94\n      jump\t// in\n    tag_93:\n      mload(0x40)\n      dup1\n      swap2\n      sub\n      swap1\n      revert\n    tag_92:\n        /* \"contracts/RealEstate.sol\":3287:3308  uint256 soThangDaThue */\n      0x00\n        /* \"contracts/RealEstate.sol\":3373:3383  10 seconds */\n      0x0a\n        /* \"contracts/RealEstate.sol\":3342:3354  thongTinThue */\n      0x04\n        /* \"contracts/RealEstate.sol\":3342:3369  thongTinThue.thoiDiemBatDau */\n      0x01\n      add\n      sload\n        /* \"contracts/RealEstate.sol\":3312:3327  block.timestamp */\n      timestamp\n        /* \"contracts/RealEstate.sol\":3312:3369  block.timestamp -... */\n      tag_95\n      swap2\n      swap1\n      tag_65\n      jump\t// in\n    tag_95:\n        /* \"contracts/RealEstate.sol\":3311:3383  (block.timestamp -... */\n      tag_96\n      swap2\n      swap1\n      tag_67\n      jump\t// in\n    tag_96:\n        /* \"contracts/RealEstate.sol\":3287:3383  uint256 soThangDaThue = (block.timestamp -... */\n      swap1\n      pop\n        /* \"contracts/RealEstate.sol\":3394:3415  uint256 soThangChoRut */\n      0x00\n        /* \"contracts/RealEstate.sol\":3418:3431  soThangDaThue */\n      dup2\n        /* \"contracts/RealEstate.sol\":3394:3431  uint256 soThangChoRut = soThangDaThue */\n      swap1\n      pop\n        /* \"contracts/RealEstate.sol\":3480:3494  soThangMuonRut */\n      dup3\n        /* \"contracts/RealEstate.sol\":3463:3476  soThangChoRut */\n      dup2\n        /* \"contracts/RealEstate.sol\":3463:3494  soThangChoRut >= soThangMuonRut */\n      lt\n      iszero\n        /* \"contracts/RealEstate.sol\":3442:3548  require(... */\n      tag_97\n      jumpi\n      mload(0x40)\n      0x08c379a000000000000000000000000000000000000000000000000000000000\n      dup2\n      mstore\n      0x04\n      add\n      tag_98\n      swap1\n      tag_99\n      jump\t// in\n    tag_98:\n      mload(0x40)\n      dup1\n      swap2\n      sub\n      swap1\n      revert\n    tag_97:\n        /* \"contracts/RealEstate.sol\":3663:3677  soThangMuonRut */\n      dup3\n        /* \"contracts/RealEstate.sol\":3612:3624  thongTinThue */\n      0x04\n        /* \"contracts/RealEstate.sol\":3612:3643  thongTinThue.soThangDaThanhToan */\n      0x02\n      add\n      sload\n        /* \"contracts/RealEstate.sol\":3580:3591  thongTinNha */\n      0x00\n        /* \"contracts/RealEstate.sol\":3580:3609  thongTinNha.thoiGianThueThang */\n      0x02\n      add\n      sload\n        /* \"contracts/RealEstate.sol\":3580:3643  thongTinNha.thoiGianThueThang - thongTinThue.soThangDaThanhToan */\n      tag_100\n      swap2\n      swap1\n      tag_65\n      jump\t// in\n    tag_100:\n        /* \"contracts/RealEstate.sol\":3580:3677  thongTinNha.thoiGianThueThang - thongTinThue.soThangDaThanhToan >=... */\n      lt\n      iszero\n        /* \"contracts/RealEstate.sol\":3559:3749  require(... */\n      tag_101\n      jumpi\n      mload(0x40)\n      0x08c379a000000000000000000000000000000000000000000000000000000000\n      dup2\n      mstore\n      0x04\n      add\n      tag_102\n      swap1\n      tag_103\n      jump\t// in\n    tag_102:\n      mload(0x40)\n      dup1\n      swap2\n      sub\n      swap1\n      revert\n    tag_101:\n        /* \"contracts/RealEstate.sol\":3760:3777  uint256 soTienRut */\n      0x00\n        /* \"contracts/RealEstate.sol\":3797:3808  thongTinNha */\n      0x00\n        /* \"contracts/RealEstate.sol\":3797:3824  thongTinNha.chiPhiHangThang */\n      0x01\n      add\n      sload\n        /* \"contracts/RealEstate.sol\":3780:3794  soThangMuonRut */\n      dup5\n        /* \"contracts/RealEstate.sol\":3780:3824  soThangMuonRut * thongTinNha.chiPhiHangThang */\n      tag_104\n      swap2\n      swap1\n      tag_71\n      jump\t// in\n    tag_104:\n        /* \"contracts/RealEstate.sol\":3760:3824  uint256 soTienRut = soThangMuonRut * thongTinNha.chiPhiHangThang */\n      swap1\n      pop\n        /* \"contracts/RealEstate.sol\":3875:3884  soTienRut */\n      dup1\n        /* \"contracts/RealEstate.sol\":3835:3847  soDuTaiKhoan */\n      0x0a\n        /* \"contracts/RealEstate.sol\":3835:3871  soDuTaiKhoan[thongTinThue.nguoiThue] */\n      0x00\n        /* \"contracts/RealEstate.sol\":3848:3860  thongTinThue */\n      0x04\n        /* \"contracts/RealEstate.sol\":3848:3870  thongTinThue.nguoiThue */\n      0x00\n      add\n      0x00\n      swap1\n      sload\n      swap1\n      0x0100\n      exp\n      swap1\n      div\n      0xffffffffffffffffffffffffffffffffffffffff\n      and\n        /* \"contracts/RealEstate.sol\":3835:3871  soDuTaiKhoan[thongTinThue.nguoiThue] */\n      0xffffffffffffffffffffffffffffffffffffffff\n      and\n      0xffffffffffffffffffffffffffffffffffffffff\n      and\n      dup2\n      mstore\n      0x20\n      add\n      swap1\n      dup2\n      mstore\n      0x20\n      add\n      0x00\n      keccak256\n      0x00\n        /* \"contracts/RealEstate.sol\":3835:3884  soDuTaiKhoan[thongTinThue.nguoiThue] -= soTienRut */\n      dup3\n      dup3\n      sload\n      tag_105\n      swap2\n      swap1\n      tag_65\n      jump\t// in\n    tag_105:\n      swap3\n      pop\n      pop\n      dup2\n      swap1\n      sstore\n      pop\n        /* \"contracts/RealEstate.sol\":3930:3944  soThangMuonRut */\n      dup4\n        /* \"contracts/RealEstate.sol\":3895:3907  thongTinThue */\n      0x04\n        /* \"contracts/RealEstate.sol\":3895:3926  thongTinThue.soThangDaThanhToan */\n      0x02\n      add\n      0x00\n        /* \"contracts/RealEstate.sol\":3895:3944  thongTinThue.soThangDaThanhToan += soThangMuonRut */\n      dup3\n      dup3\n      sload\n      tag_106\n      swap2\n      swap1\n      tag_84\n      jump\t// in\n    tag_106:\n      swap3\n      pop\n      pop\n      dup2\n      swap1\n      sstore\n      pop\n        /* \"contracts/RealEstate.sol\":3955:3967  bool success */\n      0x00\n        /* \"contracts/RealEstate.sol\":3981:3992  thongTinNha */\n      0x00\n        /* \"contracts/RealEstate.sol\":3981:3999  thongTinNha.chuNha */\n      0x00\n      add\n      0x00\n      swap1\n      sload\n      swap1\n      0x0100\n      exp\n      swap1\n      div\n      0xffffffffffffffffffffffffffffffffffffffff\n      and\n        /* \"contracts/RealEstate.sol\":3973:4005  payable(thongTinNha.chuNha).call */\n      0xffffffffffffffffffffffffffffffffffffffff\n      and\n        /* \"contracts/RealEstate.sol\":4013:4022  soTienRut */\n      dup3\n        /* \"contracts/RealEstate.sol\":3973:4049  payable(thongTinNha.chuNha).call{value: soTienRut}(... */\n      mload(0x40)\n      tag_107\n      swap1\n      tag_75\n      jump\t// in\n    tag_107:\n      0x00\n      mload(0x40)\n      dup1\n      dup4\n      sub\n      dup2\n      dup6\n      dup8\n      gas\n      call\n      swap3\n      pop\n      pop\n      pop\n      returndatasize\n      dup1\n      0x00\n      dup2\n      eq\n      tag_110\n      jumpi\n      mload(0x40)\n      swap2\n      pop\n      and(add(returndatasize, 0x3f), not(0x1f))\n      dup3\n      add\n      0x40\n      mstore\n      returndatasize\n      dup3\n      mstore\n      returndatasize\n      0x00\n      0x20\n      dup5\n      add\n      returndatacopy\n      jump(tag_109)\n    tag_110:\n      0x60\n      swap2\n      pop\n    tag_109:\n      pop\n        /* \"contracts/RealEstate.sol\":3954:4049  (bool success, ) = payable(thongTinNha.chuNha).call{value: soTienRut}(... */\n      pop\n      swap1\n      pop\n        /* \"contracts/RealEstate.sol\":4068:4075  success */\n      dup1\n        /* \"contracts/RealEstate.sol\":4060:4100  require(success, \"Chuyen tien that bai\") */\n      tag_111\n      jumpi\n      mload(0x40)\n      0x08c379a000000000000000000000000000000000000000000000000000000000\n      dup2\n      mstore\n      0x04\n      add\n      tag_112\n      swap1\n      tag_81\n      jump\t// in\n    tag_112:\n      mload(0x40)\n      dup1\n      swap2\n      sub\n      swap1\n      revert\n    tag_111:\n        /* \"contracts/RealEstate.sol\":2936:4107  {... */\n      pop\n      pop\n      pop\n      pop\n        /* \"contracts/RealEstate.sol\":2878:4107  function rutTien(uint256 soThangMuonRut) external payable {... */\n      pop\n      jump\t// out\n        /* \"contracts/RealEstate.sol\":2117:2872  function kyHopDong() external payable {... */\n    tag_21:\n        /* \"contracts/RealEstate.sol\":2174:2185  thongTinNha */\n      0x00\n        /* \"contracts/RealEstate.sol\":2174:2199  thongTinNha.hopDongDuocKy */\n      0x03\n      add\n      0x00\n      swap1\n      sload\n      swap1\n      0x0100\n      exp\n      swap1\n      div\n      0xff\n      and\n        /* \"contracts/RealEstate.sol\":2173:2199  !thongTinNha.hopDongDuocKy */\n      iszero\n        /* \"contracts/RealEstate.sol\":2165:2223  require(!thongTinNha.hopDongDuocKy, \"Hop dong da duoc ky\") */\n      tag_114\n      jumpi\n      mload(0x40)\n      0x08c379a000000000000000000000000000000000000000000000000000000000\n      dup2\n      mstore\n      0x04\n      add\n      tag_115\n      swap1\n      tag_116\n      jump\t// in\n    tag_115:\n      mload(0x40)\n      dup1\n      swap2\n      sub\n      swap1\n      revert\n    tag_114:\n        /* \"contracts/RealEstate.sol\":2255:2266  thongTinNha */\n      0x00\n        /* \"contracts/RealEstate.sol\":2255:2273  thongTinNha.chuNha */\n      0x00\n      add\n      0x00\n      swap1\n      sload\n      swap1\n      0x0100\n      exp\n      swap1\n      div\n      0xffffffffffffffffffffffffffffffffffffffff\n      and\n        /* \"contracts/RealEstate.sol\":2241:2273  msg.sender != thongTinNha.chuNha */\n      0xffffffffffffffffffffffffffffffffffffffff\n      and\n        /* \"contracts/RealEstate.sol\":2241:2251  msg.sender */\n      caller\n        /* \"contracts/RealEstate.sol\":2241:2273  msg.sender != thongTinNha.chuNha */\n      0xffffffffffffffffffffffffffffffffffffffff\n      and\n      sub\n        /* \"contracts/RealEstate.sol\":2233:2301  require(msg.sender != thongTinNha.chuNha, \"Chu nha khong the tu ky\") */\n      tag_117\n      jumpi\n      mload(0x40)\n      0x08c379a000000000000000000000000000000000000000000000000000000000\n      dup2\n      mstore\n      0x04\n      add\n      tag_118\n      swap1\n      tag_119\n      jump\t// in\n    tag_118:\n      mload(0x40)\n      dup1\n      swap2\n      sub\n      swap1\n      revert\n    tag_117:\n        /* \"contracts/RealEstate.sol\":2391:2402  thongTinNha */\n      0x00\n        /* \"contracts/RealEstate.sol\":2391:2420  thongTinNha.thoiGianThueThang */\n      0x02\n      add\n      sload\n        /* \"contracts/RealEstate.sol\":2361:2372  thongTinNha */\n      0x00\n        /* \"contracts/RealEstate.sol\":2361:2388  thongTinNha.chiPhiHangThang */\n      0x01\n      add\n      sload\n        /* \"contracts/RealEstate.sol\":2361:2420  thongTinNha.chiPhiHangThang * thongTinNha.thoiGianThueThang */\n      tag_120\n      swap2\n      swap1\n      tag_71\n      jump\t// in\n    tag_120:\n        /* \"contracts/RealEstate.sol\":2332:2341  msg.value */\n      callvalue\n        /* \"contracts/RealEstate.sol\":2332:2420  msg.value >=... */\n      lt\n      iszero\n        /* \"contracts/RealEstate.sol\":2311:2481  require(... */\n      tag_121\n      jumpi\n      mload(0x40)\n      0x08c379a000000000000000000000000000000000000000000000000000000000\n      dup2\n      mstore\n      0x04\n      add\n      tag_122\n      swap1\n      tag_123\n      jump\t// in\n    tag_122:\n      mload(0x40)\n      dup1\n      swap2\n      sub\n      swap1\n      revert\n    tag_121:\n        /* \"contracts/RealEstate.sol\":2517:2527  msg.sender */\n      caller\n        /* \"contracts/RealEstate.sol\":2492:2504  thongTinThue */\n      0x04\n        /* \"contracts/RealEstate.sol\":2492:2514  thongTinThue.nguoiThue */\n      0x00\n      add\n      0x00\n        /* \"contracts/RealEstate.sol\":2492:2527  thongTinThue.nguoiThue = msg.sender */\n      0x0100\n      exp\n      dup2\n      sload\n      dup2\n      0xffffffffffffffffffffffffffffffffffffffff\n      mul\n      not\n      and\n      swap1\n      dup4\n      0xffffffffffffffffffffffffffffffffffffffff\n      and\n      mul\n      or\n      swap1\n      sstore\n      pop\n        /* \"contracts/RealEstate.sol\":2567:2582  block.timestamp */\n      timestamp\n        /* \"contracts/RealEstate.sol\":2537:2549  thongTinThue */\n      0x04\n        /* \"contracts/RealEstate.sol\":2537:2564  thongTinThue.thoiDiemBatDau */\n      0x01\n      add\n        /* \"contracts/RealEstate.sol\":2537:2582  thongTinThue.thoiDiemBatDau = block.timestamp */\n      dup2\n      swap1\n      sstore\n      pop\n        /* \"contracts/RealEstate.sol\":2626:2627  0 */\n      0x00\n        /* \"contracts/RealEstate.sol\":2592:2604  thongTinThue */\n      0x04\n        /* \"contracts/RealEstate.sol\":2592:2623  thongTinThue.soThangDaThanhToan */\n      0x02\n      add\n        /* \"contracts/RealEstate.sol\":2592:2627  thongTinThue.soThangDaThanhToan = 0 */\n      dup2\n      swap1\n      sstore\n      pop\n        /* \"contracts/RealEstate.sol\":2754:2764  10 seconds */\n      0x0a\n        /* \"contracts/RealEstate.sol\":2710:2721  thongTinNha */\n      0x00\n        /* \"contracts/RealEstate.sol\":2710:2739  thongTinNha.thoiGianThueThang */\n      0x02\n      add\n      sload\n        /* \"contracts/RealEstate.sol\":2710:2764  thongTinNha.thoiGianThueThang *... */\n      tag_124\n      swap2\n      swap1\n      tag_71\n      jump\t// in\n    tag_124:\n        /* \"contracts/RealEstate.sol\":2680:2695  block.timestamp */\n      timestamp\n        /* \"contracts/RealEstate.sol\":2680:2764  block.timestamp +... */\n      tag_125\n      swap2\n      swap1\n      tag_84\n      jump\t// in\n    tag_125:\n        /* \"contracts/RealEstate.sol\":2637:2649  thongTinThue */\n      0x04\n        /* \"contracts/RealEstate.sol\":2637:2665  thongTinThue.thoiDiemKetThuc */\n      0x03\n      add\n        /* \"contracts/RealEstate.sol\":2637:2764  thongTinThue.thoiDiemKetThuc =... */\n      dup2\n      swap1\n      sstore\n      pop\n        /* \"contracts/RealEstate.sol\":2814:2823  msg.value */\n      callvalue\n        /* \"contracts/RealEstate.sol\":2775:2787  soDuTaiKhoan */\n      0x0a\n        /* \"contracts/RealEstate.sol\":2775:2811  soDuTaiKhoan[thongTinThue.nguoiThue] */\n      0x00\n        /* \"contracts/RealEstate.sol\":2788:2800  thongTinThue */\n      0x04\n        /* \"contracts/RealEstate.sol\":2788:2810  thongTinThue.nguoiThue */\n      0x00\n      add\n      0x00\n      swap1\n      sload\n      swap1\n      0x0100\n      exp\n      swap1\n      div\n      0xffffffffffffffffffffffffffffffffffffffff\n      and\n        /* \"contracts/RealEstate.sol\":2775:2811  soDuTaiKhoan[thongTinThue.nguoiThue] */\n      0xffffffffffffffffffffffffffffffffffffffff\n      and\n      0xffffffffffffffffffffffffffffffffffffffff\n      and\n      dup2\n      mstore\n      0x20\n      add\n      swap1\n      dup2\n      mstore\n      0x20\n      add\n      0x00\n      keccak256\n        /* \"contracts/RealEstate.sol\":2775:2823  soDuTaiKhoan[thongTinThue.nguoiThue] = msg.value */\n      dup2\n      swap1\n      sstore\n      pop\n        /* \"contracts/RealEstate.sol\":2861:2865  true */\n      0x01\n        /* \"contracts/RealEstate.sol\":2833:2844  thongTinNha */\n      0x00\n        /* \"contracts/RealEstate.sol\":2833:2858  thongTinNha.hopDongDuocKy */\n      0x03\n      add\n      0x00\n        /* \"contracts/RealEstate.sol\":2833:2865  thongTinNha.hopDongDuocKy = true */\n      0x0100\n      exp\n      dup2\n      sload\n      dup2\n      0xff\n      mul\n      not\n      and\n      swap1\n      dup4\n      iszero\n      iszero\n      mul\n      or\n      swap1\n      sstore\n      pop\n        /* \"contracts/RealEstate.sol\":2117:2872  function kyHopDong() external payable {... */\n      jump\t// out\n        /* \"contracts/RealEstate.sol\":7282:8019  function chapNhanYeuCauGiaHan() external {... */\n    tag_24:\n        /* \"contracts/RealEstate.sol\":7341:7352  thongTinNha */\n      0x00\n        /* \"contracts/RealEstate.sol\":7341:7366  thongTinNha.hopDongDuocKy */\n      0x03\n      add\n      0x00\n      swap1\n      sload\n      swap1\n      0x0100\n      exp\n      swap1\n      div\n      0xff\n      and\n        /* \"contracts/RealEstate.sol\":7333:7387  require(thongTinNha.hopDongDuocKy, \"Chua co hop dong\") */\n      tag_127\n      jumpi\n      mload(0x40)\n      0x08c379a000000000000000000000000000000000000000000000000000000000\n      dup2\n      mstore\n      0x04\n      add\n      tag_128\n      swap1\n      tag_58\n      jump\t// in\n    tag_128:\n      mload(0x40)\n      dup1\n      swap2\n      sub\n      swap1\n      revert\n    tag_127:\n        /* \"contracts/RealEstate.sol\":7432:7443  thongTinNha */\n      0x00\n        /* \"contracts/RealEstate.sol\":7432:7450  thongTinNha.chuNha */\n      0x00\n      add\n      0x00\n      swap1\n      sload\n      swap1\n      0x0100\n      exp\n      swap1\n      div\n      0xffffffffffffffffffffffffffffffffffffffff\n      and\n        /* \"contracts/RealEstate.sol\":7418:7450  msg.sender == thongTinNha.chuNha */\n      0xffffffffffffffffffffffffffffffffffffffff\n      and\n        /* \"contracts/RealEstate.sol\":7418:7428  msg.sender */\n      caller\n        /* \"contracts/RealEstate.sol\":7418:7450  msg.sender == thongTinNha.chuNha */\n      0xffffffffffffffffffffffffffffffffffffffff\n      and\n      eq\n        /* \"contracts/RealEstate.sol\":7397:7514  require(... */\n      tag_129\n      jumpi\n      mload(0x40)\n      0x08c379a000000000000000000000000000000000000000000000000000000000\n      dup2\n      mstore\n      0x04\n      add\n      tag_130\n      swap1\n      tag_131\n      jump\t// in\n    tag_130:\n      mload(0x40)\n      dup1\n      swap2\n      sub\n      swap1\n      revert\n    tag_129:\n        /* \"contracts/RealEstate.sol\":7559:7560  0 */\n      0x00\n        /* \"contracts/RealEstate.sol\":7532:7544  deNghiGiaHan */\n      0x08\n        /* \"contracts/RealEstate.sol\":7532:7556  deNghiGiaHan.soThangThem */\n      0x00\n      add\n      sload\n        /* \"contracts/RealEstate.sol\":7532:7560  deNghiGiaHan.soThangThem > 0 */\n      gt\n        /* \"contracts/RealEstate.sol\":7524:7588  require(deNghiGiaHan.soThangThem > 0, \"Chua co yeu cau gia han\") */\n      tag_132\n      jumpi\n      mload(0x40)\n      0x08c379a000000000000000000000000000000000000000000000000000000000\n      dup2\n      mstore\n      0x04\n      add\n      tag_133\n      swap1\n      tag_134\n      jump\t// in\n    tag_133:\n      mload(0x40)\n      dup1\n      swap2\n      sub\n      swap1\n      revert\n    tag_132:\n        /* \"contracts/RealEstate.sol\":7717:7727  10 seconds */\n      0x0a\n        /* \"contracts/RealEstate.sol\":7690:7702  deNghiGiaHan */\n      0x08\n        /* \"contracts/RealEstate.sol\":7690:7714  deNghiGiaHan.soThangThem */\n      0x00\n      add\n      sload\n        /* \"contracts/RealEstate.sol\":7690:7727  deNghiGiaHan.soThangThem * 10 seconds */\n      tag_135\n      swap2\n      swap1\n      tag_71\n      jump\t// in\n    tag_135:\n        /* \"contracts/RealEstate.sol\":7658:7670  thongTinThue */\n      0x04\n        /* \"contracts/RealEstate.sol\":7658:7686  thongTinThue.thoiDiemKetThuc */\n      0x03\n      add\n      0x00\n        /* \"contracts/RealEstate.sol\":7658:7727  thongTinThue.thoiDiemKetThuc += deNghiGiaHan.soThangThem * 10 seconds */\n      dup3\n      dup3\n      sload\n      tag_136\n      swap2\n      swap1\n      tag_84\n      jump\t// in\n    tag_136:\n      swap3\n      pop\n      pop\n      dup2\n      swap1\n      sstore\n      pop\n        /* \"contracts/RealEstate.sol\":7834:7846  deNghiGiaHan */\n      0x08\n        /* \"contracts/RealEstate.sol\":7834:7858  deNghiGiaHan.soThangThem */\n      0x00\n      add\n      sload\n        /* \"contracts/RealEstate.sol\":7801:7812  thongTinNha */\n      0x00\n        /* \"contracts/RealEstate.sol\":7801:7830  thongTinNha.thoiGianThueThang */\n      0x02\n      add\n      0x00\n        /* \"contracts/RealEstate.sol\":7801:7858  thongTinNha.thoiGianThueThang += deNghiGiaHan.soThangThem */\n      dup3\n      dup3\n      sload\n      tag_137\n      swap2\n      swap1\n      tag_84\n      jump\t// in\n    tag_137:\n      swap3\n      pop\n      pop\n      dup2\n      swap1\n      sstore\n      pop\n        /* \"contracts/RealEstate.sol\":7955:7967  deNghiGiaHan */\n      0x08\n        /* \"contracts/RealEstate.sol\":7955:7982  deNghiGiaHan.soTienDaChuyen */\n      0x01\n      add\n      sload\n        /* \"contracts/RealEstate.sol\":7915:7927  soDuTaiKhoan */\n      0x0a\n        /* \"contracts/RealEstate.sol\":7915:7951  soDuTaiKhoan[thongTinThue.nguoiThue] */\n      0x00\n        /* \"contracts/RealEstate.sol\":7928:7940  thongTinThue */\n      0x04\n        /* \"contracts/RealEstate.sol\":7928:7950  thongTinThue.nguoiThue */\n      0x00\n      add\n      0x00\n      swap1\n      sload\n      swap1\n      0x0100\n      exp\n      swap1\n      div\n      0xffffffffffffffffffffffffffffffffffffffff\n      and\n        /* \"contracts/RealEstate.sol\":7915:7951  soDuTaiKhoan[thongTinThue.nguoiThue] */\n      0xffffffffffffffffffffffffffffffffffffffff\n      and\n      0xffffffffffffffffffffffffffffffffffffffff\n      and\n      dup2\n      mstore\n      0x20\n      add\n      swap1\n      dup2\n      mstore\n      0x20\n      add\n      0x00\n      keccak256\n      0x00\n        /* \"contracts/RealEstate.sol\":7915:7982  soDuTaiKhoan[thongTinThue.nguoiThue] += deNghiGiaHan.soTienDaChuyen */\n      dup3\n      dup3\n      sload\n      tag_138\n      swap2\n      swap1\n      tag_84\n      jump\t// in\n    tag_138:\n      swap3\n      pop\n      pop\n      dup2\n      swap1\n      sstore\n      pop\n        /* \"contracts/RealEstate.sol\":8000:8012  deNghiGiaHan */\n      0x08\n      0x00\n        /* \"contracts/RealEstate.sol\":7993:8012  delete deNghiGiaHan */\n      0x00\n      dup3\n      add\n      0x00\n      swap1\n      sstore\n      0x01\n      dup3\n      add\n      0x00\n      swap1\n      sstore\n      pop\n      pop\n        /* \"contracts/RealEstate.sol\":7282:8019  function chapNhanYeuCauGiaHan() external {... */\n      jump\t// out\n        /* \"contracts/RealEstate.sol\":4424:5691  function rutSoDu(uint256 soTienCanRut) external payable {... */\n    tag_27:\n        /* \"contracts/RealEstate.sol\":4525:4537  thongTinThue */\n      0x04\n        /* \"contracts/RealEstate.sol\":4525:4547  thongTinThue.nguoiThue */\n      0x00\n      add\n      0x00\n      swap1\n      sload\n      swap1\n      0x0100\n      exp\n      swap1\n      div\n      0xffffffffffffffffffffffffffffffffffffffff\n      and\n        /* \"contracts/RealEstate.sol\":4511:4547  msg.sender == thongTinThue.nguoiThue */\n      0xffffffffffffffffffffffffffffffffffffffff\n      and\n        /* \"contracts/RealEstate.sol\":4511:4521  msg.sender */\n      caller\n        /* \"contracts/RealEstate.sol\":4511:4547  msg.sender == thongTinThue.nguoiThue */\n      0xffffffffffffffffffffffffffffffffffffffff\n      and\n      eq\n        /* \"contracts/RealEstate.sol\":4490:4606  require(... */\n      tag_140\n      jumpi\n      mload(0x40)\n      0x08c379a000000000000000000000000000000000000000000000000000000000\n      dup2\n      mstore\n      0x04\n      add\n      tag_141\n      swap1\n      tag_142\n      jump\t// in\n    tag_141:\n      mload(0x40)\n      dup1\n      swap2\n      sub\n      swap1\n      revert\n    tag_140:\n        /* \"contracts/RealEstate.sol\":4639:4640  0 */\n      0x00\n        /* \"contracts/RealEstate.sol\":4624:4636  soTienCanRut */\n      dup2\n        /* \"contracts/RealEstate.sol\":4624:4640  soTienCanRut > 0 */\n      gt\n        /* \"contracts/RealEstate.sol\":4616:4664  require(soTienCanRut > 0, \"So tien can rut > 0\") */\n      tag_143\n      jumpi\n      mload(0x40)\n      0x08c379a000000000000000000000000000000000000000000000000000000000\n      dup2\n      mstore\n      0x04\n      add\n      tag_144\n      swap1\n      tag_145\n      jump\t// in\n    tag_144:\n      mload(0x40)\n      dup1\n      swap2\n      sub\n      swap1\n      revert\n    tag_143:\n        /* \"contracts/RealEstate.sol\":4675:4696  uint256 soTienDuocRut */\n      0x00\n        /* \"contracts/RealEstate.sol\":4699:4711  soDuTaiKhoan */\n      0x0a\n        /* \"contracts/RealEstate.sol\":4699:4723  soDuTaiKhoan[msg.sender] */\n      0x00\n        /* \"contracts/RealEstate.sol\":4712:4722  msg.sender */\n      caller\n        /* \"contracts/RealEstate.sol\":4699:4723  soDuTaiKhoan[msg.sender] */\n      0xffffffffffffffffffffffffffffffffffffffff\n      and\n      0xffffffffffffffffffffffffffffffffffffffff\n      and\n      dup2\n      mstore\n      0x20\n      add\n      swap1\n      dup2\n      mstore\n      0x20\n      add\n      0x00\n      keccak256\n      sload\n        /* \"contracts/RealEstate.sol\":4675:4723  uint256 soTienDuocRut = soDuTaiKhoan[msg.sender] */\n      swap1\n      pop\n        /* \"contracts/RealEstate.sol\":4733:4760  uint256 soTienChuaThanhToan */\n      0x00\n        /* \"contracts/RealEstate.sol\":4843:4854  thongTinNha */\n      0x00\n        /* \"contracts/RealEstate.sol\":4843:4870  thongTinNha.chiPhiHangThang */\n      0x01\n      add\n      sload\n        /* \"contracts/RealEstate.sol\":4808:4820  thongTinThue */\n      0x04\n        /* \"contracts/RealEstate.sol\":4808:4839  thongTinThue.soThangDaThanhToan */\n      0x02\n      add\n      sload\n        /* \"contracts/RealEstate.sol\":4764:4775  thongTinNha */\n      0x00\n        /* \"contracts/RealEstate.sol\":4764:4793  thongTinNha.thoiGianThueThang */\n      0x02\n      add\n      sload\n        /* \"contracts/RealEstate.sol\":4764:4839  thongTinNha.thoiGianThueThang -... */\n      tag_146\n      swap2\n      swap1\n      tag_65\n      jump\t// in\n    tag_146:\n        /* \"contracts/RealEstate.sol\":4763:4870  (thongTinNha.thoiGianThueThang -... */\n      tag_147\n      swap2\n      swap1\n      tag_71\n      jump\t// in\n    tag_147:\n        /* \"contracts/RealEstate.sol\":4733:4870  uint256 soTienChuaThanhToan = (thongTinNha.thoiGianThueThang -... */\n      swap1\n      pop\n        /* \"contracts/RealEstate.sol\":4912:4931  soTienChuaThanhToan */\n      dup1\n        /* \"contracts/RealEstate.sol\":4896:4909  soTienDuocRut */\n      dup3\n        /* \"contracts/RealEstate.sol\":4896:4931  soTienDuocRut - soTienChuaThanhToan */\n      tag_148\n      swap2\n      swap1\n      tag_65\n      jump\t// in\n    tag_148:\n        /* \"contracts/RealEstate.sol\":4880:4931  soTienDuocRut = soTienDuocRut - soTienChuaThanhToan */\n      swap2\n      pop\n        /* \"contracts/RealEstate.sol\":4988:4989  0 */\n      0x00\n        /* \"contracts/RealEstate.sol\":4958:4970  deNghiGiaHan */\n      0x08\n        /* \"contracts/RealEstate.sol\":4958:4985  deNghiGiaHan.soTienDaChuyen */\n      0x01\n      add\n      sload\n        /* \"contracts/RealEstate.sol\":4958:4989  deNghiGiaHan.soTienDaChuyen > 0 */\n      gt\n        /* \"contracts/RealEstate.sol\":4958:5101  deNghiGiaHan.soTienDaChuyen > 0 &&... */\n      dup1\n      iszero\n      tag_149\n      jumpi\n      pop\n        /* \"contracts/RealEstate.sol\":5074:5086  deNghiGiaHan */\n      0x08\n        /* \"contracts/RealEstate.sol\":5074:5101  deNghiGiaHan.soTienDaChuyen */\n      0x01\n      add\n      sload\n        /* \"contracts/RealEstate.sol\":5032:5043  thongTinNha */\n      0x00\n        /* \"contracts/RealEstate.sol\":5032:5059  thongTinNha.chiPhiHangThang */\n      0x01\n      add\n      sload\n        /* \"contracts/RealEstate.sol\":5005:5017  deNghiGiaHan */\n      0x08\n        /* \"contracts/RealEstate.sol\":5005:5029  deNghiGiaHan.soThangThem */\n      0x00\n      add\n      sload\n        /* \"contracts/RealEstate.sol\":5005:5059  deNghiGiaHan.soThangThem * thongTinNha.chiPhiHangThang */\n      tag_150\n      swap2\n      swap1\n      tag_71\n      jump\t// in\n    tag_150:\n        /* \"contracts/RealEstate.sol\":5005:5101  deNghiGiaHan.soThangThem * thongTinNha.chiPhiHangThang <... */\n      lt\n        /* \"contracts/RealEstate.sol\":4958:5101  deNghiGiaHan.soTienDaChuyen > 0 &&... */\n    tag_149:\n        /* \"contracts/RealEstate.sol\":4941:5402  if (... */\n      iszero\n      tag_151\n      jumpi\n        /* \"contracts/RealEstate.sol\":5126:5149  uint256 soTienCanPhaiBu */\n      0x00\n        /* \"contracts/RealEstate.sol\":5241:5253  deNghiGiaHan */\n      0x08\n        /* \"contracts/RealEstate.sol\":5241:5268  deNghiGiaHan.soTienDaChuyen */\n      0x01\n      add\n      sload\n        /* \"contracts/RealEstate.sol\":5195:5206  thongTinNha */\n      0x00\n        /* \"contracts/RealEstate.sol\":5195:5222  thongTinNha.chiPhiHangThang */\n      0x01\n      add\n      sload\n        /* \"contracts/RealEstate.sol\":5152:5164  deNghiGiaHan */\n      0x08\n        /* \"contracts/RealEstate.sol\":5152:5176  deNghiGiaHan.soThangThem */\n      0x00\n      add\n      sload\n        /* \"contracts/RealEstate.sol\":5152:5222  deNghiGiaHan.soThangThem *... */\n      tag_152\n      swap2\n      swap1\n      tag_71\n      jump\t// in\n    tag_152:\n        /* \"contracts/RealEstate.sol\":5152:5268  deNghiGiaHan.soThangThem *... */\n      tag_153\n      swap2\n      swap1\n      tag_65\n      jump\t// in\n    tag_153:\n        /* \"contracts/RealEstate.sol\":5126:5268  uint256 soTienCanPhaiBu = deNghiGiaHan.soThangThem *... */\n      swap1\n      pop\n        /* \"contracts/RealEstate.sol\":5315:5330  soTienCanPhaiBu */\n      dup1\n        /* \"contracts/RealEstate.sol\":5299:5312  soTienDuocRut */\n      dup4\n        /* \"contracts/RealEstate.sol\":5299:5330  soTienDuocRut - soTienCanPhaiBu */\n      tag_154\n      swap2\n      swap1\n      tag_65\n      jump\t// in\n    tag_154:\n        /* \"contracts/RealEstate.sol\":5283:5330  soTienDuocRut = soTienDuocRut - soTienCanPhaiBu */\n      swap3\n      pop\n        /* \"contracts/RealEstate.sol\":5376:5391  soTienCanPhaiBu */\n      dup1\n        /* \"contracts/RealEstate.sol\":5345:5357  deNghiGiaHan */\n      0x08\n        /* \"contracts/RealEstate.sol\":5345:5372  deNghiGiaHan.soTienDaChuyen */\n      0x01\n      add\n      0x00\n        /* \"contracts/RealEstate.sol\":5345:5391  deNghiGiaHan.soTienDaChuyen += soTienCanPhaiBu */\n      dup3\n      dup3\n      sload\n      tag_155\n      swap2\n      swap1\n      tag_84\n      jump\t// in\n    tag_155:\n      swap3\n      pop\n      pop\n      dup2\n      swap1\n      sstore\n      pop\n        /* \"contracts/RealEstate.sol\":5112:5402  {... */\n      pop\n        /* \"contracts/RealEstate.sol\":4941:5402  if (... */\n    tag_151:\n        /* \"contracts/RealEstate.sol\":5436:5448  soTienCanRut */\n      dup3\n        /* \"contracts/RealEstate.sol\":5419:5432  soTienDuocRut */\n      dup3\n        /* \"contracts/RealEstate.sol\":5419:5448  soTienDuocRut >= soTienCanRut */\n      lt\n      iszero\n        /* \"contracts/RealEstate.sol\":5411:5480  require(soTienDuocRut >= soTienCanRut, \"So du khong du de thuc hien\") */\n      tag_156\n      jumpi\n      mload(0x40)\n      0x08c379a000000000000000000000000000000000000000000000000000000000\n      dup2\n      mstore\n      0x04\n      add\n      tag_157\n      swap1\n      tag_158\n      jump\t// in\n    tag_157:\n      mload(0x40)\n      dup1\n      swap2\n      sub\n      swap1\n      revert\n    tag_156:\n        /* \"contracts/RealEstate.sol\":5498:5510  bool success */\n      0x00\n        /* \"contracts/RealEstate.sol\":5524:5534  msg.sender */\n      caller\n        /* \"contracts/RealEstate.sol\":5516:5540  payable(msg.sender).call */\n      0xffffffffffffffffffffffffffffffffffffffff\n      and\n        /* \"contracts/RealEstate.sol\":5548:5561  soTienDuocRut */\n      dup4\n        /* \"contracts/RealEstate.sol\":5516:5566  payable(msg.sender).call{value: soTienDuocRut}(\"\") */\n      mload(0x40)\n      tag_159\n      swap1\n      tag_75\n      jump\t// in\n    tag_159:\n      0x00\n      mload(0x40)\n      dup1\n      dup4\n      sub\n      dup2\n      dup6\n      dup8\n      gas\n      call\n      swap3\n      pop\n      pop\n      pop\n      returndatasize\n      dup1\n      0x00\n      dup2\n      eq\n      tag_162\n      jumpi\n      mload(0x40)\n      swap2\n      pop\n      and(add(returndatasize, 0x3f), not(0x1f))\n      dup3\n      add\n      0x40\n      mstore\n      returndatasize\n      dup3\n      mstore\n      returndatasize\n      0x00\n      0x20\n      dup5\n      add\n      returndatacopy\n      jump(tag_161)\n    tag_162:\n      0x60\n      swap2\n      pop\n    tag_161:\n      pop\n        /* \"contracts/RealEstate.sol\":5497:5566  (bool success, ) = payable(msg.sender).call{value: soTienDuocRut}(\"\") */\n      pop\n      swap1\n      pop\n        /* \"contracts/RealEstate.sol\":5584:5591  success */\n      dup1\n        /* \"contracts/RealEstate.sol\":5576:5616  require(success, \"Chuyen tien that bai\") */\n      tag_163\n      jumpi\n      mload(0x40)\n      0x08c379a000000000000000000000000000000000000000000000000000000000\n      dup2\n      mstore\n      0x04\n      add\n      tag_164\n      swap1\n      tag_81\n      jump\t// in\n    tag_164:\n      mload(0x40)\n      dup1\n      swap2\n      sub\n      swap1\n      revert\n    tag_163:\n        /* \"contracts/RealEstate.sol\":5665:5684  soTienChuaThanhToan */\n      dup2\n        /* \"contracts/RealEstate.sol\":5626:5638  soDuTaiKhoan */\n      0x0a\n        /* \"contracts/RealEstate.sol\":5626:5662  soDuTaiKhoan[thongTinThue.nguoiThue] */\n      0x00\n        /* \"contracts/RealEstate.sol\":5639:5651  thongTinThue */\n      0x04\n        /* \"contracts/RealEstate.sol\":5639:5661  thongTinThue.nguoiThue */\n      0x00\n      add\n      0x00\n      swap1\n      sload\n      swap1\n      0x0100\n      exp\n      swap1\n      div\n      0xffffffffffffffffffffffffffffffffffffffff\n      and\n        /* \"contracts/RealEstate.sol\":5626:5662  soDuTaiKhoan[thongTinThue.nguoiThue] */\n      0xffffffffffffffffffffffffffffffffffffffff\n      and\n      0xffffffffffffffffffffffffffffffffffffffff\n      and\n      dup2\n      mstore\n      0x20\n      add\n      swap1\n      dup2\n      mstore\n      0x20\n      add\n      0x00\n      keccak256\n        /* \"contracts/RealEstate.sol\":5626:5684  soDuTaiKhoan[thongTinThue.nguoiThue] = soTienChuaThanhToan */\n      dup2\n      swap1\n      sstore\n      pop\n        /* \"contracts/RealEstate.sol\":4480:5691  {... */\n      pop\n      pop\n      pop\n        /* \"contracts/RealEstate.sol\":4424:5691  function rutSoDu(uint256 soTienCanRut) external payable {... */\n      pop\n      jump\t// out\n        /* \"contracts/RealEstate.sol\":4113:4418  function xemSoDu(address taiKhoan) external view returns (uint256) {... */\n    tag_32:\n        /* \"contracts/RealEstate.sol\":4171:4178  uint256 */\n      0x00\n        /* \"contracts/RealEstate.sol\":4225:4237  thongTinThue */\n      0x04\n        /* \"contracts/RealEstate.sol\":4225:4247  thongTinThue.nguoiThue */\n      0x00\n      add\n      0x00\n      swap1\n      sload\n      swap1\n      0x0100\n      exp\n      swap1\n      div\n      0xffffffffffffffffffffffffffffffffffffffff\n      and\n        /* \"contracts/RealEstate.sol\":4211:4247  msg.sender == thongTinThue.nguoiThue */\n      0xffffffffffffffffffffffffffffffffffffffff\n      and\n        /* \"contracts/RealEstate.sol\":4211:4221  msg.sender */\n      caller\n        /* \"contracts/RealEstate.sol\":4211:4247  msg.sender == thongTinThue.nguoiThue */\n      0xffffffffffffffffffffffffffffffffffffffff\n      and\n      eq\n        /* \"contracts/RealEstate.sol\":4211:4299  msg.sender == thongTinThue.nguoiThue ||... */\n      dup1\n      tag_166\n      jumpi\n      pop\n        /* \"contracts/RealEstate.sol\":4281:4292  thongTinNha */\n      0x00\n        /* \"contracts/RealEstate.sol\":4281:4299  thongTinNha.chuNha */\n      0x00\n      add\n      0x00\n      swap1\n      sload\n      swap1\n      0x0100\n      exp\n      swap1\n      div\n      0xffffffffffffffffffffffffffffffffffffffff\n      and\n        /* \"contracts/RealEstate.sol\":4267:4299  msg.sender == thongTinNha.chuNha */\n      0xffffffffffffffffffffffffffffffffffffffff\n      and\n        /* \"contracts/RealEstate.sol\":4267:4277  msg.sender */\n      caller\n        /* \"contracts/RealEstate.sol\":4267:4299  msg.sender == thongTinNha.chuNha */\n      0xffffffffffffffffffffffffffffffffffffffff\n      and\n      eq\n        /* \"contracts/RealEstate.sol\":4211:4299  msg.sender == thongTinThue.nguoiThue ||... */\n    tag_166:\n        /* \"contracts/RealEstate.sol\":4190:4371  require(... */\n      tag_167\n      jumpi\n      mload(0x40)\n      0x08c379a000000000000000000000000000000000000000000000000000000000\n      dup2\n      mstore\n      0x04\n      add\n      tag_168\n      swap1\n      tag_169\n      jump\t// in\n    tag_168:\n      mload(0x40)\n      dup1\n      swap2\n      sub\n      swap1\n      revert\n    tag_167:\n        /* \"contracts/RealEstate.sol\":4389:4401  soDuTaiKhoan */\n      0x0a\n        /* \"contracts/RealEstate.sol\":4389:4411  soDuTaiKhoan[taiKhoan] */\n      0x00\n        /* \"contracts/RealEstate.sol\":4402:4410  taiKhoan */\n      dup4\n        /* \"contracts/RealEstate.sol\":4389:4411  soDuTaiKhoan[taiKhoan] */\n      0xffffffffffffffffffffffffffffffffffffffff\n      and\n      0xffffffffffffffffffffffffffffffffffffffff\n      and\n      dup2\n      mstore\n      0x20\n      add\n      swap1\n      dup2\n      mstore\n      0x20\n      add\n      0x00\n      keccak256\n      sload\n        /* \"contracts/RealEstate.sol\":4382:4411  return soDuTaiKhoan[taiKhoan] */\n      swap1\n      pop\n        /* \"contracts/RealEstate.sol\":4113:4418  function xemSoDu(address taiKhoan) external view returns (uint256) {... */\n      swap2\n      swap1\n      pop\n      jump\t// out\n        /* \"contracts/RealEstate.sol\":6727:7276  function xemYeuCauGiaHanHopDong()... */\n    tag_37:\n        /* \"contracts/RealEstate.sol\":6808:6827  uint256 soThangThem */\n      0x00\n        /* \"contracts/RealEstate.sol\":6829:6851  uint256 soTienDaChuyen */\n      0x00\n        /* \"contracts/RealEstate.sol\":6875:6886  thongTinNha */\n      0x00\n        /* \"contracts/RealEstate.sol\":6875:6900  thongTinNha.hopDongDuocKy */\n      0x03\n      add\n      0x00\n      swap1\n      sload\n      swap1\n      0x0100\n      exp\n      swap1\n      div\n      0xff\n      and\n        /* \"contracts/RealEstate.sol\":6867:6921  require(thongTinNha.hopDongDuocKy, \"Chua co hop dong\") */\n      tag_171\n      jumpi\n      mload(0x40)\n      0x08c379a000000000000000000000000000000000000000000000000000000000\n      dup2\n      mstore\n      0x04\n      add\n      tag_172\n      swap1\n      tag_58\n      jump\t// in\n    tag_172:\n      mload(0x40)\n      dup1\n      swap2\n      sub\n      swap1\n      revert\n    tag_171:\n        /* \"contracts/RealEstate.sol\":6966:6978  thongTinThue */\n      0x04\n        /* \"contracts/RealEstate.sol\":6966:6988  thongTinThue.nguoiThue */\n      0x00\n      add\n      0x00\n      swap1\n      sload\n      swap1\n      0x0100\n      exp\n      swap1\n      div\n      0xffffffffffffffffffffffffffffffffffffffff\n      and\n        /* \"contracts/RealEstate.sol\":6952:6988  msg.sender == thongTinThue.nguoiThue */\n      0xffffffffffffffffffffffffffffffffffffffff\n      and\n        /* \"contracts/RealEstate.sol\":6952:6962  msg.sender */\n      caller\n        /* \"contracts/RealEstate.sol\":6952:6988  msg.sender == thongTinThue.nguoiThue */\n      0xffffffffffffffffffffffffffffffffffffffff\n      and\n      eq\n        /* \"contracts/RealEstate.sol\":6952:7040  msg.sender == thongTinThue.nguoiThue ||... */\n      dup1\n      tag_173\n      jumpi\n      pop\n        /* \"contracts/RealEstate.sol\":7022:7033  thongTinNha */\n      0x00\n        /* \"contracts/RealEstate.sol\":7022:7040  thongTinNha.chuNha */\n      0x00\n      add\n      0x00\n      swap1\n      sload\n      swap1\n      0x0100\n      exp\n      swap1\n      div\n      0xffffffffffffffffffffffffffffffffffffffff\n      and\n        /* \"contracts/RealEstate.sol\":7008:7040  msg.sender == thongTinNha.chuNha */\n      0xffffffffffffffffffffffffffffffffffffffff\n      and\n        /* \"contracts/RealEstate.sol\":7008:7018  msg.sender */\n      caller\n        /* \"contracts/RealEstate.sol\":7008:7040  msg.sender == thongTinNha.chuNha */\n      0xffffffffffffffffffffffffffffffffffffffff\n      and\n      eq\n        /* \"contracts/RealEstate.sol\":6952:7040  msg.sender == thongTinThue.nguoiThue ||... */\n    tag_173:\n        /* \"contracts/RealEstate.sol\":6931:7122  require(... */\n      tag_174\n      jumpi\n      mload(0x40)\n      0x08c379a000000000000000000000000000000000000000000000000000000000\n      dup2\n      mstore\n      0x04\n      add\n      tag_175\n      swap1\n      tag_176\n      jump\t// in\n    tag_175:\n      mload(0x40)\n      dup1\n      swap2\n      sub\n      swap1\n      revert\n    tag_174:\n        /* \"contracts/RealEstate.sol\":7167:7168  0 */\n      0x00\n        /* \"contracts/RealEstate.sol\":7140:7152  deNghiGiaHan */\n      0x08\n        /* \"contracts/RealEstate.sol\":7140:7164  deNghiGiaHan.soThangThem */\n      0x00\n      add\n      sload\n        /* \"contracts/RealEstate.sol\":7140:7168  deNghiGiaHan.soThangThem > 0 */\n      gt\n        /* \"contracts/RealEstate.sol\":7132:7196  require(deNghiGiaHan.soThangThem > 0, \"Chua co yeu cau gia han\") */\n      tag_177\n      jumpi\n      mload(0x40)\n      0x08c379a000000000000000000000000000000000000000000000000000000000\n      dup2\n      mstore\n      0x04\n      add\n      tag_178\n      swap1\n      tag_134\n      jump\t// in\n    tag_178:\n      mload(0x40)\n      dup1\n      swap2\n      sub\n      swap1\n      revert\n    tag_177:\n        /* \"contracts/RealEstate.sol\":7215:7227  deNghiGiaHan */\n      0x08\n        /* \"contracts/RealEstate.sol\":7215:7239  deNghiGiaHan.soThangThem */\n      0x00\n      add\n      sload\n        /* \"contracts/RealEstate.sol\":7241:7253  deNghiGiaHan */\n      0x08\n        /* \"contracts/RealEstate.sol\":7241:7268  deNghiGiaHan.soTienDaChuyen */\n      0x01\n      add\n      sload\n        /* \"contracts/RealEstate.sol\":7207:7269  return (deNghiGiaHan.soThangThem, deNghiGiaHan.soTienDaChuyen) */\n      swap2\n      pop\n      swap2\n      pop\n        /* \"contracts/RealEstate.sol\":6727:7276  function xemYeuCauGiaHanHopDong()... */\n      swap1\n      swap2\n      jump\t// out\n        /* \"contracts/RealEstate.sol\":1083:2111  function xemTinhTrangThue()... */\n    tag_42:\n        /* \"contracts/RealEstate.sol\":1171:1188  address nguoiThue */\n      0x00\n        /* \"contracts/RealEstate.sol\":1202:1224  uint256 thoiDiemBatDau */\n      0x00\n        /* \"contracts/RealEstate.sol\":1238:1264  uint256 soThangDaThanhToan */\n      0x00\n        /* \"contracts/RealEstate.sol\":1278:1300  uint256 thoiGianConLai */\n      0x00\n        /* \"contracts/RealEstate.sol\":1376:1377  0 */\n      0x00\n        /* \"contracts/RealEstate.sol\":1342:1378  thongTinThue.nguoiThue == address(0) */\n      0xffffffffffffffffffffffffffffffffffffffff\n      and\n        /* \"contracts/RealEstate.sol\":1342:1354  thongTinThue */\n      0x04\n        /* \"contracts/RealEstate.sol\":1342:1364  thongTinThue.nguoiThue */\n      0x00\n      add\n      0x00\n      swap1\n      sload\n      swap1\n      0x0100\n      exp\n      swap1\n      div\n      0xffffffffffffffffffffffffffffffffffffffff\n      and\n        /* \"contracts/RealEstate.sol\":1342:1378  thongTinThue.nguoiThue == address(0) */\n      0xffffffffffffffffffffffffffffffffffffffff\n      and\n      eq\n        /* \"contracts/RealEstate.sol\":1342:1484  thongTinThue.nguoiThue == address(0) ||... */\n      dup1\n      tag_180\n      jumpi\n      pop\n        /* \"contracts/RealEstate.sol\":1409:1420  thongTinNha */\n      0x00\n        /* \"contracts/RealEstate.sol\":1409:1427  thongTinNha.chuNha */\n      0x00\n      add\n      0x00\n      swap1\n      sload\n      swap1\n      0x0100\n      exp\n      swap1\n      div\n      0xffffffffffffffffffffffffffffffffffffffff\n      and\n        /* \"contracts/RealEstate.sol\":1395:1427  msg.sender != thongTinNha.chuNha */\n      0xffffffffffffffffffffffffffffffffffffffff\n      and\n        /* \"contracts/RealEstate.sol\":1395:1405  msg.sender */\n      caller\n        /* \"contracts/RealEstate.sol\":1395:1427  msg.sender != thongTinNha.chuNha */\n      0xffffffffffffffffffffffffffffffffffffffff\n      and\n      eq\n      iszero\n        /* \"contracts/RealEstate.sol\":1395:1483  msg.sender != thongTinNha.chuNha &&... */\n      dup1\n      iszero\n      tag_181\n      jumpi\n      pop\n        /* \"contracts/RealEstate.sol\":1461:1473  thongTinThue */\n      0x04\n        /* \"contracts/RealEstate.sol\":1461:1483  thongTinThue.nguoiThue */\n      0x00\n      add\n      0x00\n      swap1\n      sload\n      swap1\n      0x0100\n      exp\n      swap1\n      div\n      0xffffffffffffffffffffffffffffffffffffffff\n      and\n        /* \"contracts/RealEstate.sol\":1447:1483  msg.sender != thongTinThue.nguoiThue */\n      0xffffffffffffffffffffffffffffffffffffffff\n      and\n        /* \"contracts/RealEstate.sol\":1447:1457  msg.sender */\n      caller\n        /* \"contracts/RealEstate.sol\":1447:1483  msg.sender != thongTinThue.nguoiThue */\n      0xffffffffffffffffffffffffffffffffffffffff\n      and\n      eq\n      iszero\n        /* \"contracts/RealEstate.sol\":1395:1483  msg.sender != thongTinNha.chuNha &&... */\n    tag_181:\n        /* \"contracts/RealEstate.sol\":1342:1484  thongTinThue.nguoiThue == address(0) ||... */\n    tag_180:\n        /* \"contracts/RealEstate.sol\":1325:1682  if (... */\n      iszero\n      tag_182\n      jumpi\n        /* \"contracts/RealEstate.sol\":1542:1543  0 */\n      0x00\n        /* \"contracts/RealEstate.sol\":1562:1574  thongTinThue */\n      0x04\n        /* \"contracts/RealEstate.sol\":1562:1589  thongTinThue.thoiDiemBatDau */\n      0x01\n      add\n      sload\n        /* \"contracts/RealEstate.sol\":1607:1619  thongTinThue */\n      0x04\n        /* \"contracts/RealEstate.sol\":1607:1638  thongTinThue.soThangDaThanhToan */\n      0x02\n      add\n      sload\n        /* \"contracts/RealEstate.sol\":1656:1657  0 */\n      0x00\n        /* \"contracts/RealEstate.sol\":1509:1671  return (... */\n      swap4\n      pop\n      swap4\n      pop\n      swap4\n      pop\n      swap4\n      pop\n      jump(tag_179)\n        /* \"contracts/RealEstate.sol\":1325:1682  if (... */\n    tag_182:\n        /* \"contracts/RealEstate.sol\":1692:1718  uint256 thoiGianConLaiTinh */\n      0x00\n        /* \"contracts/RealEstate.sol\":1721:1722  0 */\n      0x00\n        /* \"contracts/RealEstate.sol\":1692:1722  uint256 thoiGianConLaiTinh = 0 */\n      swap1\n      pop\n        /* \"contracts/RealEstate.sol\":1754:1766  thongTinThue */\n      0x04\n        /* \"contracts/RealEstate.sol\":1754:1782  thongTinThue.thoiDiemKetThuc */\n      0x03\n      add\n      sload\n        /* \"contracts/RealEstate.sol\":1736:1751  block.timestamp */\n      timestamp\n        /* \"contracts/RealEstate.sol\":1736:1782  block.timestamp < thongTinThue.thoiDiemKetThuc */\n      lt\n        /* \"contracts/RealEstate.sol\":1732:1923  if (block.timestamp < thongTinThue.thoiDiemKetThuc) {... */\n      iszero\n      tag_183\n      jumpi\n        /* \"contracts/RealEstate.sol\":1902:1912  10 seconds */\n      0x0a\n        /* \"contracts/RealEstate.sol\":1867:1882  block.timestamp */\n      timestamp\n        /* \"contracts/RealEstate.sol\":1836:1848  thongTinThue */\n      0x04\n        /* \"contracts/RealEstate.sol\":1836:1864  thongTinThue.thoiDiemKetThuc */\n      0x03\n      add\n      sload\n        /* \"contracts/RealEstate.sol\":1836:1882  thongTinThue.thoiDiemKetThuc - block.timestamp */\n      tag_184\n      swap2\n      swap1\n      tag_65\n      jump\t// in\n    tag_184:\n        /* \"contracts/RealEstate.sol\":1835:1912  (thongTinThue.thoiDiemKetThuc - block.timestamp) /... */\n      tag_185\n      swap2\n      swap1\n      tag_67\n      jump\t// in\n    tag_185:\n        /* \"contracts/RealEstate.sol\":1798:1912  thoiGianConLaiTinh =... */\n      swap1\n      pop\n        /* \"contracts/RealEstate.sol\":1732:1923  if (block.timestamp < thongTinThue.thoiDiemKetThuc) {... */\n    tag_183:\n        /* \"contracts/RealEstate.sol\":1954:1966  thongTinThue */\n      0x04\n        /* \"contracts/RealEstate.sol\":1954:1976  thongTinThue.nguoiThue */\n      0x00\n      add\n      0x00\n      swap1\n      sload\n      swap1\n      0x0100\n      exp\n      swap1\n      div\n      0xffffffffffffffffffffffffffffffffffffffff\n      and\n        /* \"contracts/RealEstate.sol\":1990:2002  thongTinThue */\n      0x04\n        /* \"contracts/RealEstate.sol\":1990:2017  thongTinThue.thoiDiemBatDau */\n      0x01\n      add\n      sload\n        /* \"contracts/RealEstate.sol\":2031:2043  thongTinThue */\n      0x04\n        /* \"contracts/RealEstate.sol\":2031:2062  thongTinThue.soThangDaThanhToan */\n      0x02\n      add\n      sload\n        /* \"contracts/RealEstate.sol\":2076:2094  thoiGianConLaiTinh */\n      dup4\n        /* \"contracts/RealEstate.sol\":1933:2104  return (... */\n      swap5\n      pop\n      swap5\n      pop\n      swap5\n      pop\n      swap5\n      pop\n      pop\n        /* \"contracts/RealEstate.sol\":1083:2111  function xemTinhTrangThue()... */\n    tag_179:\n      swap1\n      swap2\n      swap3\n      swap4\n      jump\t// out\n        /* \"contracts/RealEstate.sol\":8025:8599  function huyYeuCauGiaHan() external payable {... */\n    tag_46:\n        /* \"contracts/RealEstate.sol\":8087:8098  thongTinNha */\n      0x00\n        /* \"contracts/RealEstate.sol\":8087:8112  thongTinNha.hopDongDuocKy */\n      0x03\n      add\n      0x00\n      swap1\n      sload\n      swap1\n      0x0100\n      exp\n      swap1\n      div\n      0xff\n      and\n        /* \"contracts/RealEstate.sol\":8079:8133  require(thongTinNha.hopDongDuocKy, \"Chua co hop dong\") */\n      tag_187\n      jumpi\n      mload(0x40)\n      0x08c379a000000000000000000000000000000000000000000000000000000000\n      dup2\n      mstore\n      0x04\n      add\n      tag_188\n      swap1\n      tag_58\n      jump\t// in\n    tag_188:\n      mload(0x40)\n      dup1\n      swap2\n      sub\n      swap1\n      revert\n    tag_187:\n        /* \"contracts/RealEstate.sol\":8178:8189  thongTinNha */\n      0x00\n        /* \"contracts/RealEstate.sol\":8178:8196  thongTinNha.chuNha */\n      0x00\n      add\n      0x00\n      swap1\n      sload\n      swap1\n      0x0100\n      exp\n      swap1\n      div\n      0xffffffffffffffffffffffffffffffffffffffff\n      and\n        /* \"contracts/RealEstate.sol\":8164:8196  msg.sender == thongTinNha.chuNha */\n      0xffffffffffffffffffffffffffffffffffffffff\n      and\n        /* \"contracts/RealEstate.sol\":8164:8174  msg.sender */\n      caller\n        /* \"contracts/RealEstate.sol\":8164:8196  msg.sender == thongTinNha.chuNha */\n      0xffffffffffffffffffffffffffffffffffffffff\n      and\n      eq\n        /* \"contracts/RealEstate.sol\":8164:8252  msg.sender == thongTinNha.chuNha ||... */\n      dup1\n      tag_189\n      jumpi\n      pop\n        /* \"contracts/RealEstate.sol\":8230:8242  thongTinThue */\n      0x04\n        /* \"contracts/RealEstate.sol\":8230:8252  thongTinThue.nguoiThue */\n      0x00\n      add\n      0x00\n      swap1\n      sload\n      swap1\n      0x0100\n      exp\n      swap1\n      div\n      0xffffffffffffffffffffffffffffffffffffffff\n      and\n        /* \"contracts/RealEstate.sol\":8216:8252  msg.sender == thongTinThue.nguoiThue */\n      0xffffffffffffffffffffffffffffffffffffffff\n      and\n        /* \"contracts/RealEstate.sol\":8216:8226  msg.sender */\n      caller\n        /* \"contracts/RealEstate.sol\":8216:8252  msg.sender == thongTinThue.nguoiThue */\n      0xffffffffffffffffffffffffffffffffffffffff\n      and\n      eq\n        /* \"contracts/RealEstate.sol\":8164:8252  msg.sender == thongTinNha.chuNha ||... */\n    tag_189:\n        /* \"contracts/RealEstate.sol\":8143:8326  require(... */\n      tag_190\n      jumpi\n      mload(0x40)\n      0x08c379a000000000000000000000000000000000000000000000000000000000\n      dup2\n      mstore\n      0x04\n      add\n      tag_191\n      swap1\n      tag_192\n      jump\t// in\n    tag_191:\n      mload(0x40)\n      dup1\n      swap2\n      sub\n      swap1\n      revert\n    tag_190:\n        /* \"contracts/RealEstate.sol\":8371:8372  0 */\n      0x00\n        /* \"contracts/RealEstate.sol\":8344:8356  deNghiGiaHan */\n      0x08\n        /* \"contracts/RealEstate.sol\":8344:8368  deNghiGiaHan.soThangThem */\n      0x00\n      add\n      sload\n        /* \"contracts/RealEstate.sol\":8344:8372  deNghiGiaHan.soThangThem > 0 */\n      gt\n        /* \"contracts/RealEstate.sol\":8336:8400  require(deNghiGiaHan.soThangThem > 0, \"Chua co yeu cau gia han\") */\n      tag_193\n      jumpi\n      mload(0x40)\n      0x08c379a000000000000000000000000000000000000000000000000000000000\n      dup2\n      mstore\n      0x04\n      add\n      tag_194\n      swap1\n      tag_134\n      jump\t// in\n    tag_194:\n      mload(0x40)\n      dup1\n      swap2\n      sub\n      swap1\n      revert\n    tag_193:\n        /* \"contracts/RealEstate.sol\":8411:8423  bool success */\n      0x00\n        /* \"contracts/RealEstate.sol\":8437:8447  msg.sender */\n      caller\n        /* \"contracts/RealEstate.sol\":8429:8453  payable(msg.sender).call */\n      0xffffffffffffffffffffffffffffffffffffffff\n      and\n        /* \"contracts/RealEstate.sol\":8474:8486  deNghiGiaHan */\n      0x08\n        /* \"contracts/RealEstate.sol\":8474:8501  deNghiGiaHan.soTienDaChuyen */\n      0x01\n      add\n      sload\n        /* \"contracts/RealEstate.sol\":8429:8515  payable(msg.sender).call{... */\n      mload(0x40)\n      tag_195\n      swap1\n      tag_75\n      jump\t// in\n    tag_195:\n      0x00\n      mload(0x40)\n      dup1\n      dup4\n      sub\n      dup2\n      dup6\n      dup8\n      gas\n      call\n      swap3\n      pop\n      pop\n      pop\n      returndatasize\n      dup1\n      0x00\n      dup2\n      eq\n      tag_198\n      jumpi\n      mload(0x40)\n      swap2\n      pop\n      and(add(returndatasize, 0x3f), not(0x1f))\n      dup3\n      add\n      0x40\n      mstore\n      returndatasize\n      dup3\n      mstore\n      returndatasize\n      0x00\n      0x20\n      dup5\n      add\n      returndatacopy\n      jump(tag_197)\n    tag_198:\n      0x60\n      swap2\n      pop\n    tag_197:\n      pop\n        /* \"contracts/RealEstate.sol\":8410:8515  (bool success, ) = payable(msg.sender).call{... */\n      pop\n      swap1\n      pop\n        /* \"contracts/RealEstate.sol\":8533:8540  success */\n      dup1\n        /* \"contracts/RealEstate.sol\":8525:8563  require(success, \"Hoan tien that bai\") */\n      tag_199\n      jumpi\n      mload(0x40)\n      0x08c379a000000000000000000000000000000000000000000000000000000000\n      dup2\n      mstore\n      0x04\n      add\n      tag_200\n      swap1\n      tag_201\n      jump\t// in\n    tag_200:\n      mload(0x40)\n      dup1\n      swap2\n      sub\n      swap1\n      revert\n    tag_199:\n        /* \"contracts/RealEstate.sol\":8580:8592  deNghiGiaHan */\n      0x08\n      0x00\n        /* \"contracts/RealEstate.sol\":8573:8592  delete deNghiGiaHan */\n      0x00\n      dup3\n      add\n      0x00\n      swap1\n      sstore\n      0x01\n      dup3\n      add\n      0x00\n      swap1\n      sstore\n      pop\n      pop\n        /* \"contracts/RealEstate.sol\":8069:8599  {... */\n      pop\n        /* \"contracts/RealEstate.sol\":8025:8599  function huyYeuCauGiaHan() external payable {... */\n      jump\t// out\n        /* \"contracts/RealEstate.sol\":5697:6721  function yeuCauGiaHan(uint256 soThangThem) external payable {... */\n    tag_49:\n        /* \"contracts/RealEstate.sol\":5775:5786  thongTinNha */\n      0x00\n        /* \"contracts/RealEstate.sol\":5775:5800  thongTinNha.hopDongDuocKy */\n      0x03\n      add\n      0x00\n      swap1\n      sload\n      swap1\n      0x0100\n      exp\n      swap1\n      div\n      0xff\n      and\n        /* \"contracts/RealEstate.sol\":5767:5821  require(thongTinNha.hopDongDuocKy, \"Chua co hop dong\") */\n      tag_203\n      jumpi\n      mload(0x40)\n      0x08c379a000000000000000000000000000000000000000000000000000000000\n      dup2\n      mstore\n      0x04\n      add\n      tag_204\n      swap1\n      tag_58\n      jump\t// in\n    tag_204:\n      mload(0x40)\n      dup1\n      swap2\n      sub\n      swap1\n      revert\n    tag_203:\n        /* \"contracts/RealEstate.sol\":5866:5878  thongTinThue */\n      0x04\n        /* \"contracts/RealEstate.sol\":5866:5888  thongTinThue.nguoiThue */\n      0x00\n      add\n      0x00\n      swap1\n      sload\n      swap1\n      0x0100\n      exp\n      swap1\n      div\n      0xffffffffffffffffffffffffffffffffffffffff\n      and\n        /* \"contracts/RealEstate.sol\":5852:5888  msg.sender == thongTinThue.nguoiThue */\n      0xffffffffffffffffffffffffffffffffffffffff\n      and\n        /* \"contracts/RealEstate.sol\":5852:5862  msg.sender */\n      caller\n        /* \"contracts/RealEstate.sol\":5852:5888  msg.sender == thongTinThue.nguoiThue */\n      0xffffffffffffffffffffffffffffffffffffffff\n      and\n      eq\n        /* \"contracts/RealEstate.sol\":5831:5945  require(... */\n      tag_205\n      jumpi\n      mload(0x40)\n      0x08c379a000000000000000000000000000000000000000000000000000000000\n      dup2\n      mstore\n      0x04\n      add\n      tag_206\n      swap1\n      tag_207\n      jump\t// in\n    tag_206:\n      mload(0x40)\n      dup1\n      swap2\n      sub\n      swap1\n      revert\n    tag_205:\n        /* \"contracts/RealEstate.sol\":6139:6148  5 seconds */\n      0x05\n        /* \"contracts/RealEstate.sol\":6108:6120  thongTinThue */\n      0x04\n        /* \"contracts/RealEstate.sol\":6108:6136  thongTinThue.thoiDiemKetThuc */\n      0x03\n      add\n      sload\n        /* \"contracts/RealEstate.sol\":6108:6148  thongTinThue.thoiDiemKetThuc + 5 seconds */\n      tag_208\n      swap2\n      swap1\n      tag_84\n      jump\t// in\n    tag_208:\n        /* \"contracts/RealEstate.sol\":6089:6104  block.timestamp */\n      timestamp\n        /* \"contracts/RealEstate.sol\":6089:6148  block.timestamp <= thongTinThue.thoiDiemKetThuc + 5 seconds */\n      gt\n      iszero\n        /* \"contracts/RealEstate.sol\":6068:6207  require(... */\n      tag_209\n      jumpi\n      mload(0x40)\n      0x08c379a000000000000000000000000000000000000000000000000000000000\n      dup2\n      mstore\n      0x04\n      add\n      tag_210\n      swap1\n      tag_211\n      jump\t// in\n    tag_210:\n      mload(0x40)\n      dup1\n      swap2\n      sub\n      swap1\n      revert\n    tag_209:\n        /* \"contracts/RealEstate.sol\":6240:6241  0 */\n      0x00\n        /* \"contracts/RealEstate.sol\":6226:6237  soThangThem */\n      dup2\n        /* \"contracts/RealEstate.sol\":6226:6241  soThangThem > 0 */\n      gt\n        /* \"contracts/RealEstate.sol\":6218:6271  require(soThangThem > 0, \"Phai them it nhat 1 thang\") */\n      tag_212\n      jumpi\n      mload(0x40)\n      0x08c379a000000000000000000000000000000000000000000000000000000000\n      dup2\n      mstore\n      0x04\n      add\n      tag_213\n      swap1\n      tag_214\n      jump\t// in\n    tag_213:\n      mload(0x40)\n      dup1\n      swap2\n      sub\n      swap1\n      revert\n    tag_212:\n        /* \"contracts/RealEstate.sol\":6501:6512  thongTinNha */\n      0x00\n        /* \"contracts/RealEstate.sol\":6501:6528  thongTinNha.chiPhiHangThang */\n      0x01\n      add\n      sload\n        /* \"contracts/RealEstate.sol\":6446:6458  thongTinThue */\n      0x04\n        /* \"contracts/RealEstate.sol\":6446:6477  thongTinThue.soThangDaThanhToan */\n      0x02\n      add\n      sload\n        /* \"contracts/RealEstate.sol\":6394:6405  thongTinNha */\n      0x00\n        /* \"contracts/RealEstate.sol\":6394:6423  thongTinNha.thoiGianThueThang */\n      0x02\n      add\n      sload\n        /* \"contracts/RealEstate.sol\":6360:6371  soThangThem */\n      dup4\n        /* \"contracts/RealEstate.sol\":6360:6423  soThangThem +... */\n      tag_215\n      swap2\n      swap1\n      tag_84\n      jump\t// in\n    tag_215:\n        /* \"contracts/RealEstate.sol\":6360:6477  soThangThem +... */\n      tag_216\n      swap2\n      swap1\n      tag_65\n      jump\t// in\n    tag_216:\n        /* \"contracts/RealEstate.sol\":6359:6528  (soThangThem +... */\n      tag_217\n      swap2\n      swap1\n      tag_71\n      jump\t// in\n    tag_217:\n        /* \"contracts/RealEstate.sol\":6330:6339  msg.value */\n      callvalue\n        /* \"contracts/RealEstate.sol\":6303:6315  soDuTaiKhoan */\n      0x0a\n        /* \"contracts/RealEstate.sol\":6303:6327  soDuTaiKhoan[msg.sender] */\n      0x00\n        /* \"contracts/RealEstate.sol\":6316:6326  msg.sender */\n      caller\n        /* \"contracts/RealEstate.sol\":6303:6327  soDuTaiKhoan[msg.sender] */\n      0xffffffffffffffffffffffffffffffffffffffff\n      and\n      0xffffffffffffffffffffffffffffffffffffffff\n      and\n      dup2\n      mstore\n      0x20\n      add\n      swap1\n      dup2\n      mstore\n      0x20\n      add\n      0x00\n      keccak256\n      sload\n        /* \"contracts/RealEstate.sol\":6303:6339  soDuTaiKhoan[msg.sender] + msg.value */\n      tag_218\n      swap2\n      swap1\n      tag_84\n      jump\t// in\n    tag_218:\n        /* \"contracts/RealEstate.sol\":6303:6528  soDuTaiKhoan[msg.sender] + msg.value >=... */\n      lt\n      iszero\n        /* \"contracts/RealEstate.sol\":6282:6587  require(... */\n      tag_219\n      jumpi\n      mload(0x40)\n      0x08c379a000000000000000000000000000000000000000000000000000000000\n      dup2\n      mstore\n      0x04\n      add\n      tag_220\n      swap1\n      tag_221\n      jump\t// in\n    tag_220:\n      mload(0x40)\n      dup1\n      swap2\n      sub\n      swap1\n      revert\n    tag_219:\n        /* \"contracts/RealEstate.sol\":6613:6714  DeNghiGiaHan({... */\n      mload(0x40)\n      dup1\n      0x40\n      add\n      0x40\n      mstore\n      dup1\n        /* \"contracts/RealEstate.sol\":6653:6664  soThangThem */\n      dup3\n        /* \"contracts/RealEstate.sol\":6613:6714  DeNghiGiaHan({... */\n      dup2\n      mstore\n      0x20\n      add\n        /* \"contracts/RealEstate.sol\":6694:6703  msg.value */\n      callvalue\n        /* \"contracts/RealEstate.sol\":6613:6714  DeNghiGiaHan({... */\n      dup2\n      mstore\n      pop\n        /* \"contracts/RealEstate.sol\":6598:6610  deNghiGiaHan */\n      0x08\n        /* \"contracts/RealEstate.sol\":6598:6714  deNghiGiaHan = DeNghiGiaHan({... */\n      0x00\n      dup3\n      add\n      mload\n      dup2\n      0x00\n      add\n      sstore\n      0x20\n      dup3\n      add\n      mload\n      dup2\n      0x01\n      add\n      sstore\n      swap1\n      pop\n      pop\n        /* \"contracts/RealEstate.sol\":5697:6721  function yeuCauGiaHan(uint256 soThangThem) external payable {... */\n      pop\n      jump\t// out\n        /* \"contracts/RealEstate.sol\":496:526  ThongTinNha public thongTinNha */\n    tag_52:\n      0x00\n      dup1\n      0x00\n      add\n      0x00\n      swap1\n      sload\n      swap1\n      0x0100\n      exp\n      swap1\n      div\n      0xffffffffffffffffffffffffffffffffffffffff\n      and\n      swap1\n      dup1\n      0x01\n      add\n      sload\n      swap1\n      dup1\n      0x02\n      add\n      sload\n      swap1\n      dup1\n      0x03\n      add\n      0x00\n      swap1\n      sload\n      swap1\n      0x0100\n      exp\n      swap1\n      div\n      0xff\n      and\n      swap1\n      pop\n      dup5\n      jump\t// out\n        /* \"#utility.yul\":88:205   */\n    tag_223:\n        /* \"#utility.yul\":197:198   */\n      0x00\n        /* \"#utility.yul\":194:195   */\n      0x00\n        /* \"#utility.yul\":187:199   */\n      revert\n        /* \"#utility.yul\":334:411   */\n    tag_225:\n        /* \"#utility.yul\":371:378   */\n      0x00\n        /* \"#utility.yul\":400:405   */\n      dup2\n        /* \"#utility.yul\":389:405   */\n      swap1\n      pop\n        /* \"#utility.yul\":334:411   */\n      swap2\n      swap1\n      pop\n      jump\t// out\n        /* \"#utility.yul\":417:539   */\n    tag_226:\n        /* \"#utility.yul\":490:514   */\n      tag_296\n        /* \"#utility.yul\":508:513   */\n      dup2\n        /* \"#utility.yul\":490:514   */\n      tag_225\n      jump\t// in\n    tag_296:\n        /* \"#utility.yul\":483:488   */\n      dup2\n        /* \"#utility.yul\":480:515   */\n      eq\n        /* \"#utility.yul\":470:533   */\n      tag_297\n      jumpi\n        /* \"#utility.yul\":529:530   */\n      0x00\n        /* \"#utility.yul\":526:527   */\n      0x00\n        /* \"#utility.yul\":519:531   */\n      revert\n        /* \"#utility.yul\":470:533   */\n    tag_297:\n        /* \"#utility.yul\":417:539   */\n      pop\n      jump\t// out\n        /* \"#utility.yul\":545:684   */\n    tag_227:\n        /* \"#utility.yul\":591:596   */\n      0x00\n        /* \"#utility.yul\":629:635   */\n      dup2\n        /* \"#utility.yul\":616:636   */\n      calldataload\n        /* \"#utility.yul\":607:636   */\n      swap1\n      pop\n        /* \"#utility.yul\":645:678   */\n      tag_299\n        /* \"#utility.yul\":672:677   */\n      dup2\n        /* \"#utility.yul\":645:678   */\n      tag_226\n      jump\t// in\n    tag_299:\n        /* \"#utility.yul\":545:684   */\n      swap3\n      swap2\n      pop\n      pop\n      jump\t// out\n        /* \"#utility.yul\":690:1019   */\n    tag_18:\n        /* \"#utility.yul\":749:755   */\n      0x00\n        /* \"#utility.yul\":798:800   */\n      0x20\n        /* \"#utility.yul\":786:795   */\n      dup3\n        /* \"#utility.yul\":777:784   */\n      dup5\n        /* \"#utility.yul\":773:796   */\n      sub\n        /* \"#utility.yul\":769:801   */\n      slt\n        /* \"#utility.yul\":766:885   */\n      iszero\n      tag_301\n      jumpi\n        /* \"#utility.yul\":804:883   */\n      tag_302\n      tag_223\n      jump\t// in\n    tag_302:\n        /* \"#utility.yul\":766:885   */\n    tag_301:\n        /* \"#utility.yul\":924:925   */\n      0x00\n        /* \"#utility.yul\":949:1002   */\n      tag_303\n        /* \"#utility.yul\":994:1001   */\n      dup5\n        /* \"#utility.yul\":985:991   */\n      dup3\n        /* \"#utility.yul\":974:983   */\n      dup6\n        /* \"#utility.yul\":970:992   */\n      add\n        /* \"#utility.yul\":949:1002   */\n      tag_227\n      jump\t// in\n    tag_303:\n        /* \"#utility.yul\":939:1002   */\n      swap2\n      pop\n        /* \"#utility.yul\":895:1012   */\n      pop\n        /* \"#utility.yul\":690:1019   */\n      swap3\n      swap2\n      pop\n      pop\n      jump\t// out\n        /* \"#utility.yul\":1025:1151   */\n    tag_228:\n        /* \"#utility.yul\":1062:1069   */\n      0x00\n        /* \"#utility.yul\":1102:1144   */\n      0xffffffffffffffffffffffffffffffffffffffff\n        /* \"#utility.yul\":1095:1100   */\n      dup3\n        /* \"#utility.yul\":1091:1145   */\n      and\n        /* \"#utility.yul\":1080:1145   */\n      swap1\n      pop\n        /* \"#utility.yul\":1025:1151   */\n      swap2\n      swap1\n      pop\n      jump\t// out\n        /* \"#utility.yul\":1157:1253   */\n    tag_229:\n        /* \"#utility.yul\":1194:1201   */\n      0x00\n        /* \"#utility.yul\":1223:1247   */\n      tag_306\n        /* \"#utility.yul\":1241:1246   */\n      dup3\n        /* \"#utility.yul\":1223:1247   */\n      tag_228\n      jump\t// in\n    tag_306:\n        /* \"#utility.yul\":1212:1247   */\n      swap1\n      pop\n        /* \"#utility.yul\":1157:1253   */\n      swap2\n      swap1\n      pop\n      jump\t// out\n        /* \"#utility.yul\":1259:1381   */\n    tag_230:\n        /* \"#utility.yul\":1332:1356   */\n      tag_308\n        /* \"#utility.yul\":1350:1355   */\n      dup2\n        /* \"#utility.yul\":1332:1356   */\n      tag_229\n      jump\t// in\n    tag_308:\n        /* \"#utility.yul\":1325:1330   */\n      dup2\n        /* \"#utility.yul\":1322:1357   */\n      eq\n        /* \"#utility.yul\":1312:1375   */\n      tag_309\n      jumpi\n        /* \"#utility.yul\":1371:1372   */\n      0x00\n        /* \"#utility.yul\":1368:1369   */\n      0x00\n        /* \"#utility.yul\":1361:1373   */\n      revert\n        /* \"#utility.yul\":1312:1375   */\n    tag_309:\n        /* \"#utility.yul\":1259:1381   */\n      pop\n      jump\t// out\n        /* \"#utility.yul\":1387:1526   */\n    tag_231:\n        /* \"#utility.yul\":1433:1438   */\n      0x00\n        /* \"#utility.yul\":1471:1477   */\n      dup2\n        /* \"#utility.yul\":1458:1478   */\n      calldataload\n        /* \"#utility.yul\":1449:1478   */\n      swap1\n      pop\n        /* \"#utility.yul\":1487:1520   */\n      tag_311\n        /* \"#utility.yul\":1514:1519   */\n      dup2\n        /* \"#utility.yul\":1487:1520   */\n      tag_230\n      jump\t// in\n    tag_311:\n        /* \"#utility.yul\":1387:1526   */\n      swap3\n      swap2\n      pop\n      pop\n      jump\t// out\n        /* \"#utility.yul\":1532:1861   */\n    tag_31:\n        /* \"#utility.yul\":1591:1597   */\n      0x00\n        /* \"#utility.yul\":1640:1642   */\n      0x20\n        /* \"#utility.yul\":1628:1637   */\n      dup3\n        /* \"#utility.yul\":1619:1626   */\n      dup5\n        /* \"#utility.yul\":1615:1638   */\n      sub\n        /* \"#utility.yul\":1611:1643   */\n      slt\n        /* \"#utility.yul\":1608:1727   */\n      iszero\n      tag_313\n      jumpi\n        /* \"#utility.yul\":1646:1725   */\n      tag_314\n      tag_223\n      jump\t// in\n    tag_314:\n        /* \"#utility.yul\":1608:1727   */\n    tag_313:\n        /* \"#utility.yul\":1766:1767   */\n      0x00\n        /* \"#utility.yul\":1791:1844   */\n      tag_315\n        /* \"#utility.yul\":1836:1843   */\n      dup5\n        /* \"#utility.yul\":1827:1833   */\n      dup3\n        /* \"#utility.yul\":1816:1825   */\n      dup6\n        /* \"#utility.yul\":1812:1834   */\n      add\n        /* \"#utility.yul\":1791:1844   */\n      tag_231\n      jump\t// in\n    tag_315:\n        /* \"#utility.yul\":1781:1844   */\n      swap2\n      pop\n        /* \"#utility.yul\":1737:1854   */\n      pop\n        /* \"#utility.yul\":1532:1861   */\n      swap3\n      swap2\n      pop\n      pop\n      jump\t// out\n        /* \"#utility.yul\":1867:1985   */\n    tag_232:\n        /* \"#utility.yul\":1954:1978   */\n      tag_317\n        /* \"#utility.yul\":1972:1977   */\n      dup2\n        /* \"#utility.yul\":1954:1978   */\n      tag_225\n      jump\t// in\n    tag_317:\n        /* \"#utility.yul\":1949:1952   */\n      dup3\n        /* \"#utility.yul\":1942:1979   */\n      mstore\n        /* \"#utility.yul\":1867:1985   */\n      pop\n      pop\n      jump\t// out\n        /* \"#utility.yul\":1991:2213   */\n    tag_34:\n        /* \"#utility.yul\":2084:2088   */\n      0x00\n        /* \"#utility.yul\":2122:2124   */\n      0x20\n        /* \"#utility.yul\":2111:2120   */\n      dup3\n        /* \"#utility.yul\":2107:2125   */\n      add\n        /* \"#utility.yul\":2099:2125   */\n      swap1\n      pop\n        /* \"#utility.yul\":2135:2206   */\n      tag_319\n        /* \"#utility.yul\":2203:2204   */\n      0x00\n        /* \"#utility.yul\":2192:2201   */\n      dup4\n        /* \"#utility.yul\":2188:2205   */\n      add\n        /* \"#utility.yul\":2179:2185   */\n      dup5\n        /* \"#utility.yul\":2135:2206   */\n      tag_232\n      jump\t// in\n    tag_319:\n        /* \"#utility.yul\":1991:2213   */\n      swap3\n      swap2\n      pop\n      pop\n      jump\t// out\n        /* \"#utility.yul\":2219:2551   */\n    tag_39:\n        /* \"#utility.yul\":2340:2344   */\n      0x00\n        /* \"#utility.yul\":2378:2380   */\n      0x40\n        /* \"#utility.yul\":2367:2376   */\n      dup3\n        /* \"#utility.yul\":2363:2381   */\n      add\n        /* \"#utility.yul\":2355:2381   */\n      swap1\n      pop\n        /* \"#utility.yul\":2391:2462   */\n      tag_321\n        /* \"#utility.yul\":2459:2460   */\n      0x00\n        /* \"#utility.yul\":2448:2457   */\n      dup4\n        /* \"#utility.yul\":2444:2461   */\n      add\n        /* \"#utility.yul\":2435:2441   */\n      dup6\n        /* \"#utility.yul\":2391:2462   */\n      tag_232\n      jump\t// in\n    tag_321:\n        /* \"#utility.yul\":2472:2544   */\n      tag_322\n        /* \"#utility.yul\":2540:2542   */\n      0x20\n        /* \"#utility.yul\":2529:2538   */\n      dup4\n        /* \"#utility.yul\":2525:2543   */\n      add\n        /* \"#utility.yul\":2516:2522   */\n      dup5\n        /* \"#utility.yul\":2472:2544   */\n      tag_232\n      jump\t// in\n    tag_322:\n        /* \"#utility.yul\":2219:2551   */\n      swap4\n      swap3\n      pop\n      pop\n      pop\n      jump\t// out\n        /* \"#utility.yul\":2557:2675   */\n    tag_233:\n        /* \"#utility.yul\":2644:2668   */\n      tag_324\n        /* \"#utility.yul\":2662:2667   */\n      dup2\n        /* \"#utility.yul\":2644:2668   */\n      tag_229\n      jump\t// in\n    tag_324:\n        /* \"#utility.yul\":2639:2642   */\n      dup3\n        /* \"#utility.yul\":2632:2669   */\n      mstore\n        /* \"#utility.yul\":2557:2675   */\n      pop\n      pop\n      jump\t// out\n        /* \"#utility.yul\":2681:3234   */\n    tag_44:\n        /* \"#utility.yul\":2858:2862   */\n      0x00\n        /* \"#utility.yul\":2896:2899   */\n      0x80\n        /* \"#utility.yul\":2885:2894   */\n      dup3\n        /* \"#utility.yul\":2881:2900   */\n      add\n        /* \"#utility.yul\":2873:2900   */\n      swap1\n      pop\n        /* \"#utility.yul\":2910:2981   */\n      tag_326\n        /* \"#utility.yul\":2978:2979   */\n      0x00\n        /* \"#utility.yul\":2967:2976   */\n      dup4\n        /* \"#utility.yul\":2963:2980   */\n      add\n        /* \"#utility.yul\":2954:2960   */\n      dup8\n        /* \"#utility.yul\":2910:2981   */\n      tag_233\n      jump\t// in\n    tag_326:\n        /* \"#utility.yul\":2991:3063   */\n      tag_327\n        /* \"#utility.yul\":3059:3061   */\n      0x20\n        /* \"#utility.yul\":3048:3057   */\n      dup4\n        /* \"#utility.yul\":3044:3062   */\n      add\n        /* \"#utility.yul\":3035:3041   */\n      dup7\n        /* \"#utility.yul\":2991:3063   */\n      tag_232\n      jump\t// in\n    tag_327:\n        /* \"#utility.yul\":3073:3145   */\n      tag_328\n        /* \"#utility.yul\":3141:3143   */\n      0x40\n        /* \"#utility.yul\":3130:3139   */\n      dup4\n        /* \"#utility.yul\":3126:3144   */\n      add\n        /* \"#utility.yul\":3117:3123   */\n      dup6\n        /* \"#utility.yul\":3073:3145   */\n      tag_232\n      jump\t// in\n    tag_328:\n        /* \"#utility.yul\":3155:3227   */\n      tag_329\n        /* \"#utility.yul\":3223:3225   */\n      0x60\n        /* \"#utility.yul\":3212:3221   */\n      dup4\n        /* \"#utility.yul\":3208:3226   */\n      add\n        /* \"#utility.yul\":3199:3205   */\n      dup5\n        /* \"#utility.yul\":3155:3227   */\n      tag_232\n      jump\t// in\n    tag_329:\n        /* \"#utility.yul\":2681:3234   */\n      swap6\n      swap5\n      pop\n      pop\n      pop\n      pop\n      pop\n      jump\t// out\n        /* \"#utility.yul\":3240:3330   */\n    tag_234:\n        /* \"#utility.yul\":3274:3281   */\n      0x00\n        /* \"#utility.yul\":3317:3322   */\n      dup2\n        /* \"#utility.yul\":3310:3323   */\n      iszero\n        /* \"#utility.yul\":3303:3324   */\n      iszero\n        /* \"#utility.yul\":3292:3324   */\n      swap1\n      pop\n        /* \"#utility.yul\":3240:3330   */\n      swap2\n      swap1\n      pop\n      jump\t// out\n        /* \"#utility.yul\":3336:3445   */\n    tag_235:\n        /* \"#utility.yul\":3417:3438   */\n      tag_332\n        /* \"#utility.yul\":3432:3437   */\n      dup2\n        /* \"#utility.yul\":3417:3438   */\n      tag_234\n      jump\t// in\n    tag_332:\n        /* \"#utility.yul\":3412:3415   */\n      dup3\n        /* \"#utility.yul\":3405:3439   */\n      mstore\n        /* \"#utility.yul\":3336:3445   */\n      pop\n      pop\n      jump\t// out\n        /* \"#utility.yul\":3451:3992   */\n    tag_54:\n        /* \"#utility.yul\":3622:3626   */\n      0x00\n        /* \"#utility.yul\":3660:3663   */\n      0x80\n        /* \"#utility.yul\":3649:3658   */\n      dup3\n        /* \"#utility.yul\":3645:3664   */\n      add\n        /* \"#utility.yul\":3637:3664   */\n      swap1\n      pop\n        /* \"#utility.yul\":3674:3745   */\n      tag_334\n        /* \"#utility.yul\":3742:3743   */\n      0x00\n        /* \"#utility.yul\":3731:3740   */\n      dup4\n        /* \"#utility.yul\":3727:3744   */\n      add\n        /* \"#utility.yul\":3718:3724   */\n      dup8\n        /* \"#utility.yul\":3674:3745   */\n      tag_233\n      jump\t// in\n    tag_334:\n        /* \"#utility.yul\":3755:3827   */\n      tag_335\n        /* \"#utility.yul\":3823:3825   */\n      0x20\n        /* \"#utility.yul\":3812:3821   */\n      dup4\n        /* \"#utility.yul\":3808:3826   */\n      add\n        /* \"#utility.yul\":3799:3805   */\n      dup7\n        /* \"#utility.yul\":3755:3827   */\n      tag_232\n      jump\t// in\n    tag_335:\n        /* \"#utility.yul\":3837:3909   */\n      tag_336\n        /* \"#utility.yul\":3905:3907   */\n      0x40\n        /* \"#utility.yul\":3894:3903   */\n      dup4\n        /* \"#utility.yul\":3890:3908   */\n      add\n        /* \"#utility.yul\":3881:3887   */\n      dup6\n        /* \"#utility.yul\":3837:3909   */\n      tag_232\n      jump\t// in\n    tag_336:\n        /* \"#utility.yul\":3919:3985   */\n      tag_337\n        /* \"#utility.yul\":3981:3983   */\n      0x60\n        /* \"#utility.yul\":3970:3979   */\n      dup4\n        /* \"#utility.yul\":3966:3984   */\n      add\n        /* \"#utility.yul\":3957:3963   */\n      dup5\n        /* \"#utility.yul\":3919:3985   */\n      tag_235\n      jump\t// in\n    tag_337:\n        /* \"#utility.yul\":3451:3992   */\n      swap6\n      swap5\n      pop\n      pop\n      pop\n      pop\n      pop\n      jump\t// out\n        /* \"#utility.yul\":3998:4167   */\n    tag_236:\n        /* \"#utility.yul\":4082:4093   */\n      0x00\n        /* \"#utility.yul\":4116:4122   */\n      dup3\n        /* \"#utility.yul\":4111:4114   */\n      dup3\n        /* \"#utility.yul\":4104:4123   */\n      mstore\n        /* \"#utility.yul\":4156:4160   */\n      0x20\n        /* \"#utility.yul\":4151:4154   */\n      dup3\n        /* \"#utility.yul\":4147:4161   */\n      add\n        /* \"#utility.yul\":4132:4161   */\n      swap1\n      pop\n        /* \"#utility.yul\":3998:4167   */\n      swap3\n      swap2\n      pop\n      pop\n      jump\t// out\n        /* \"#utility.yul\":4173:4339   */\n    tag_237:\n        /* \"#utility.yul\":4313:4331   */\n      0x4368756120636f20686f7020646f6e6700000000000000000000000000000000\n        /* \"#utility.yul\":4309:4310   */\n      0x00\n        /* \"#utility.yul\":4301:4307   */\n      dup3\n        /* \"#utility.yul\":4297:4311   */\n      add\n        /* \"#utility.yul\":4290:4332   */\n      mstore\n        /* \"#utility.yul\":4173:4339   */\n      pop\n      jump\t// out\n        /* \"#utility.yul\":4345:4711   */\n    tag_238:\n        /* \"#utility.yul\":4487:4490   */\n      0x00\n        /* \"#utility.yul\":4508:4575   */\n      tag_341\n        /* \"#utility.yul\":4572:4574   */\n      0x10\n        /* \"#utility.yul\":4567:4570   */\n      dup4\n        /* \"#utility.yul\":4508:4575   */\n      tag_236\n      jump\t// in\n    tag_341:\n        /* \"#utility.yul\":4501:4575   */\n      swap2\n      pop\n        /* \"#utility.yul\":4584:4677   */\n      tag_342\n        /* \"#utility.yul\":4673:4676   */\n      dup3\n        /* \"#utility.yul\":4584:4677   */\n      tag_237\n      jump\t// in\n    tag_342:\n        /* \"#utility.yul\":4702:4704   */\n      0x20\n        /* \"#utility.yul\":4697:4700   */\n      dup3\n        /* \"#utility.yul\":4693:4705   */\n      add\n        /* \"#utility.yul\":4686:4705   */\n      swap1\n      pop\n        /* \"#utility.yul\":4345:4711   */\n      swap2\n      swap1\n      pop\n      jump\t// out\n        /* \"#utility.yul\":4717:5136   */\n    tag_58:\n        /* \"#utility.yul\":4883:4887   */\n      0x00\n        /* \"#utility.yul\":4921:4923   */\n      0x20\n        /* \"#utility.yul\":4910:4919   */\n      dup3\n        /* \"#utility.yul\":4906:4924   */\n      add\n        /* \"#utility.yul\":4898:4924   */\n      swap1\n      pop\n        /* \"#utility.yul\":4970:4979   */\n      dup2\n        /* \"#utility.yul\":4964:4968   */\n      dup2\n        /* \"#utility.yul\":4960:4980   */\n      sub\n        /* \"#utility.yul\":4956:4957   */\n      0x00\n        /* \"#utility.yul\":4945:4954   */\n      dup4\n        /* \"#utility.yul\":4941:4958   */\n      add\n        /* \"#utility.yul\":4934:4981   */\n      mstore\n        /* \"#utility.yul\":4998:5129   */\n      tag_344\n        /* \"#utility.yul\":5124:5128   */\n      dup2\n        /* \"#utility.yul\":4998:5129   */\n      tag_238\n      jump\t// in\n    tag_344:\n        /* \"#utility.yul\":4990:5129   */\n      swap1\n      pop\n        /* \"#utility.yul\":4717:5136   */\n      swap2\n      swap1\n      pop\n      jump\t// out\n        /* \"#utility.yul\":5142:5369   */\n    tag_239:\n        /* \"#utility.yul\":5282:5316   */\n      0x43686920636875206e686120686f6163206e67756f692074687565206d6f6920\n        /* \"#utility.yul\":5278:5279   */\n      0x00\n        /* \"#utility.yul\":5270:5276   */\n      dup3\n        /* \"#utility.yul\":5266:5280   */\n      add\n        /* \"#utility.yul\":5259:5317   */\n      mstore\n        /* \"#utility.yul\":5351:5361   */\n      0x636f20717579656e000000000000000000000000000000000000000000000000\n        /* \"#utility.yul\":5346:5348   */\n      0x20\n        /* \"#utility.yul\":5338:5344   */\n      dup3\n        /* \"#utility.yul\":5334:5349   */\n      add\n        /* \"#utility.yul\":5327:5362   */\n      mstore\n        /* \"#utility.yul\":5142:5369   */\n      pop\n      jump\t// out\n        /* \"#utility.yul\":5375:5741   */\n    tag_240:\n        /* \"#utility.yul\":5517:5520   */\n      0x00\n        /* \"#utility.yul\":5538:5605   */\n      tag_347\n        /* \"#utility.yul\":5602:5604   */\n      0x28\n        /* \"#utility.yul\":5597:5600   */\n      dup4\n        /* \"#utility.yul\":5538:5605   */\n      tag_236\n      jump\t// in\n    tag_347:\n        /* \"#utility.yul\":5531:5605   */\n      swap2\n      pop\n        /* \"#utility.yul\":5614:5707   */\n      tag_348\n        /* \"#utility.yul\":5703:5706   */\n      dup3\n        /* \"#utility.yul\":5614:5707   */\n      tag_239\n      jump\t// in\n    tag_348:\n        /* \"#utility.yul\":5732:5734   */\n      0x40\n        /* \"#utility.yul\":5727:5730   */\n      dup3\n        /* \"#utility.yul\":5723:5735   */\n      add\n        /* \"#utility.yul\":5716:5735   */\n      swap1\n      pop\n        /* \"#utility.yul\":5375:5741   */\n      swap2\n      swap1\n      pop\n      jump\t// out\n        /* \"#utility.yul\":5747:6166   */\n    tag_62:\n        /* \"#utility.yul\":5913:5917   */\n      0x00\n        /* \"#utility.yul\":5951:5953   */\n      0x20\n        /* \"#utility.yul\":5940:5949   */\n      dup3\n        /* \"#utility.yul\":5936:5954   */\n      add\n        /* \"#utility.yul\":5928:5954   */\n      swap1\n      pop\n        /* \"#utility.yul\":6000:6009   */\n      dup2\n        /* \"#utility.yul\":5994:5998   */\n      dup2\n        /* \"#utility.yul\":5990:6010   */\n      sub\n        /* \"#utility.yul\":5986:5987   */\n      0x00\n        /* \"#utility.yul\":5975:5984   */\n      dup4\n        /* \"#utility.yul\":5971:5988   */\n      add\n        /* \"#utility.yul\":5964:6011   */\n      mstore\n        /* \"#utility.yul\":6028:6159   */\n      tag_350\n        /* \"#utility.yul\":6154:6158   */\n      dup2\n        /* \"#utility.yul\":6028:6159   */\n      tag_240\n      jump\t// in\n    tag_350:\n        /* \"#utility.yul\":6020:6159   */\n      swap1\n      pop\n        /* \"#utility.yul\":5747:6166   */\n      swap2\n      swap1\n      pop\n      jump\t// out\n        /* \"#utility.yul\":6172:6352   */\n    tag_241:\n        /* \"#utility.yul\":6220:6297   */\n      0x4e487b7100000000000000000000000000000000000000000000000000000000\n        /* \"#utility.yul\":6217:6218   */\n      0x00\n        /* \"#utility.yul\":6210:6298   */\n      mstore\n        /* \"#utility.yul\":6317:6321   */\n      0x11\n        /* \"#utility.yul\":6314:6315   */\n      0x04\n        /* \"#utility.yul\":6307:6322   */\n      mstore\n        /* \"#utility.yul\":6341:6345   */\n      0x24\n        /* \"#utility.yul\":6338:6339   */\n      0x00\n        /* \"#utility.yul\":6331:6346   */\n      revert\n        /* \"#utility.yul\":6358:6552   */\n    tag_65:\n        /* \"#utility.yul\":6398:6402   */\n      0x00\n        /* \"#utility.yul\":6418:6438   */\n      tag_353\n        /* \"#utility.yul\":6436:6437   */\n      dup3\n        /* \"#utility.yul\":6418:6438   */\n      tag_225\n      jump\t// in\n    tag_353:\n        /* \"#utility.yul\":6413:6438   */\n      swap2\n      pop\n        /* \"#utility.yul\":6452:6472   */\n      tag_354\n        /* \"#utility.yul\":6470:6471   */\n      dup4\n        /* \"#utility.yul\":6452:6472   */\n      tag_225\n      jump\t// in\n    tag_354:\n        /* \"#utility.yul\":6447:6472   */\n      swap3\n      pop\n        /* \"#utility.yul\":6496:6497   */\n      dup3\n        /* \"#utility.yul\":6493:6494   */\n      dup3\n        /* \"#utility.yul\":6489:6498   */\n      sub\n        /* \"#utility.yul\":6481:6498   */\n      swap1\n      pop\n        /* \"#utility.yul\":6520:6521   */\n      dup2\n        /* \"#utility.yul\":6514:6518   */\n      dup2\n        /* \"#utility.yul\":6511:6522   */\n      gt\n        /* \"#utility.yul\":6508:6545   */\n      iszero\n      tag_355\n      jumpi\n        /* \"#utility.yul\":6525:6543   */\n      tag_356\n      tag_241\n      jump\t// in\n    tag_356:\n        /* \"#utility.yul\":6508:6545   */\n    tag_355:\n        /* \"#utility.yul\":6358:6552   */\n      swap3\n      swap2\n      pop\n      pop\n      jump\t// out\n        /* \"#utility.yul\":6558:6738   */\n    tag_242:\n        /* \"#utility.yul\":6606:6683   */\n      0x4e487b7100000000000000000000000000000000000000000000000000000000\n        /* \"#utility.yul\":6603:6604   */\n      0x00\n        /* \"#utility.yul\":6596:6684   */\n      mstore\n        /* \"#utility.yul\":6703:6707   */\n      0x12\n        /* \"#utility.yul\":6700:6701   */\n      0x04\n        /* \"#utility.yul\":6693:6708   */\n      mstore\n        /* \"#utility.yul\":6727:6731   */\n      0x24\n        /* \"#utility.yul\":6724:6725   */\n      0x00\n        /* \"#utility.yul\":6717:6732   */\n      revert\n        /* \"#utility.yul\":6744:6929   */\n    tag_67:\n        /* \"#utility.yul\":6784:6785   */\n      0x00\n        /* \"#utility.yul\":6801:6821   */\n      tag_359\n        /* \"#utility.yul\":6819:6820   */\n      dup3\n        /* \"#utility.yul\":6801:6821   */\n      tag_225\n      jump\t// in\n    tag_359:\n        /* \"#utility.yul\":6796:6821   */\n      swap2\n      pop\n        /* \"#utility.yul\":6835:6855   */\n      tag_360\n        /* \"#utility.yul\":6853:6854   */\n      dup4\n        /* \"#utility.yul\":6835:6855   */\n      tag_225\n      jump\t// in\n    tag_360:\n        /* \"#utility.yul\":6830:6855   */\n      swap3\n      pop\n        /* \"#utility.yul\":6874:6875   */\n      dup3\n        /* \"#utility.yul\":6864:6899   */\n      tag_361\n      jumpi\n        /* \"#utility.yul\":6879:6897   */\n      tag_362\n      tag_242\n      jump\t// in\n    tag_362:\n        /* \"#utility.yul\":6864:6899   */\n    tag_361:\n        /* \"#utility.yul\":6921:6922   */\n      dup3\n        /* \"#utility.yul\":6918:6919   */\n      dup3\n        /* \"#utility.yul\":6914:6923   */\n      div\n        /* \"#utility.yul\":6909:6923   */\n      swap1\n      pop\n        /* \"#utility.yul\":6744:6929   */\n      swap3\n      swap2\n      pop\n      pop\n      jump\t// out\n        /* \"#utility.yul\":6935:7345   */\n    tag_71:\n        /* \"#utility.yul\":6975:6982   */\n      0x00\n        /* \"#utility.yul\":6998:7018   */\n      tag_364\n        /* \"#utility.yul\":7016:7017   */\n      dup3\n        /* \"#utility.yul\":6998:7018   */\n      tag_225\n      jump\t// in\n    tag_364:\n        /* \"#utility.yul\":6993:7018   */\n      swap2\n      pop\n        /* \"#utility.yul\":7032:7052   */\n      tag_365\n        /* \"#utility.yul\":7050:7051   */\n      dup4\n        /* \"#utility.yul\":7032:7052   */\n      tag_225\n      jump\t// in\n    tag_365:\n        /* \"#utility.yul\":7027:7052   */\n      swap3\n      pop\n        /* \"#utility.yul\":7087:7088   */\n      dup3\n        /* \"#utility.yul\":7084:7085   */\n      dup3\n        /* \"#utility.yul\":7080:7089   */\n      mul\n        /* \"#utility.yul\":7109:7139   */\n      tag_366\n        /* \"#utility.yul\":7127:7138   */\n      dup2\n        /* \"#utility.yul\":7109:7139   */\n      tag_225\n      jump\t// in\n    tag_366:\n        /* \"#utility.yul\":7098:7139   */\n      swap2\n      pop\n        /* \"#utility.yul\":7288:7289   */\n      dup3\n        /* \"#utility.yul\":7279:7286   */\n      dup3\n        /* \"#utility.yul\":7275:7290   */\n      div\n        /* \"#utility.yul\":7272:7273   */\n      dup5\n        /* \"#utility.yul\":7269:7291   */\n      eq\n        /* \"#utility.yul\":7249:7250   */\n      dup4\n        /* \"#utility.yul\":7242:7251   */\n      iszero\n        /* \"#utility.yul\":7222:7305   */\n      or\n        /* \"#utility.yul\":7199:7338   */\n      tag_367\n      jumpi\n        /* \"#utility.yul\":7318:7336   */\n      tag_368\n      tag_241\n      jump\t// in\n    tag_368:\n        /* \"#utility.yul\":7199:7338   */\n    tag_367:\n        /* \"#utility.yul\":6983:7345   */\n      pop\n        /* \"#utility.yul\":6935:7345   */\n      swap3\n      swap2\n      pop\n      pop\n      jump\t// out\n        /* \"#utility.yul\":7351:7498   */\n    tag_243:\n        /* \"#utility.yul\":7452:7463   */\n      0x00\n        /* \"#utility.yul\":7489:7492   */\n      dup2\n        /* \"#utility.yul\":7474:7492   */\n      swap1\n      pop\n        /* \"#utility.yul\":7351:7498   */\n      swap3\n      swap2\n      pop\n      pop\n      jump\t// out\n        /* \"#utility.yul\":7504:7618   */\n    tag_244:\n      pop\n      jump\t// out\n        /* \"#utility.yul\":7624:8022   */\n    tag_245:\n        /* \"#utility.yul\":7783:7786   */\n      0x00\n        /* \"#utility.yul\":7804:7887   */\n      tag_372\n        /* \"#utility.yul\":7885:7886   */\n      0x00\n        /* \"#utility.yul\":7880:7883   */\n      dup4\n        /* \"#utility.yul\":7804:7887   */\n      tag_243\n      jump\t// in\n    tag_372:\n        /* \"#utility.yul\":7797:7887   */\n      swap2\n      pop\n        /* \"#utility.yul\":7896:7989   */\n      tag_373\n        /* \"#utility.yul\":7985:7988   */\n      dup3\n        /* \"#utility.yul\":7896:7989   */\n      tag_244\n      jump\t// in\n    tag_373:\n        /* \"#utility.yul\":8014:8015   */\n      0x00\n        /* \"#utility.yul\":8009:8012   */\n      dup3\n        /* \"#utility.yul\":8005:8016   */\n      add\n        /* \"#utility.yul\":7998:8016   */\n      swap1\n      pop\n        /* \"#utility.yul\":7624:8022   */\n      swap2\n      swap1\n      pop\n      jump\t// out\n        /* \"#utility.yul\":8028:8407   */\n    tag_75:\n        /* \"#utility.yul\":8212:8215   */\n      0x00\n        /* \"#utility.yul\":8234:8381   */\n      tag_375\n        /* \"#utility.yul\":8377:8380   */\n      dup3\n        /* \"#utility.yul\":8234:8381   */\n      tag_245\n      jump\t// in\n    tag_375:\n        /* \"#utility.yul\":8227:8381   */\n      swap2\n      pop\n        /* \"#utility.yul\":8398:8401   */\n      dup2\n        /* \"#utility.yul\":8391:8401   */\n      swap1\n      pop\n        /* \"#utility.yul\":8028:8407   */\n      swap2\n      swap1\n      pop\n      jump\t// out\n        /* \"#utility.yul\":8413:8583   */\n    tag_246:\n        /* \"#utility.yul\":8553:8575   */\n      0x43687579656e207469656e207468617420626169000000000000000000000000\n        /* \"#utility.yul\":8549:8550   */\n      0x00\n        /* \"#utility.yul\":8541:8547   */\n      dup3\n        /* \"#utility.yul\":8537:8551   */\n      add\n        /* \"#utility.yul\":8530:8576   */\n      mstore\n        /* \"#utility.yul\":8413:8583   */\n      pop\n      jump\t// out\n        /* \"#utility.yul\":8589:8955   */\n    tag_247:\n        /* \"#utility.yul\":8731:8734   */\n      0x00\n        /* \"#utility.yul\":8752:8819   */\n      tag_378\n        /* \"#utility.yul\":8816:8818   */\n      0x14\n        /* \"#utility.yul\":8811:8814   */\n      dup4\n        /* \"#utility.yul\":8752:8819   */\n      tag_236\n      jump\t// in\n    tag_378:\n        /* \"#utility.yul\":8745:8819   */\n      swap2\n      pop\n        /* \"#utility.yul\":8828:8921   */\n      tag_379\n        /* \"#utility.yul\":8917:8920   */\n      dup3\n        /* \"#utility.yul\":8828:8921   */\n      tag_246\n      jump\t// in\n    tag_379:\n        /* \"#utility.yul\":8946:8948   */\n      0x20\n        /* \"#utility.yul\":8941:8944   */\n      dup3\n        /* \"#utility.yul\":8937:8949   */\n      add\n        /* \"#utility.yul\":8930:8949   */\n      swap1\n      pop\n        /* \"#utility.yul\":8589:8955   */\n      swap2\n      swap1\n      pop\n      jump\t// out\n        /* \"#utility.yul\":8961:9380   */\n    tag_81:\n        /* \"#utility.yul\":9127:9131   */\n      0x00\n        /* \"#utility.yul\":9165:9167   */\n      0x20\n        /* \"#utility.yul\":9154:9163   */\n      dup3\n        /* \"#utility.yul\":9150:9168   */\n      add\n        /* \"#utility.yul\":9142:9168   */\n      swap1\n      pop\n        /* \"#utility.yul\":9214:9223   */\n      dup2\n        /* \"#utility.yul\":9208:9212   */\n      dup2\n        /* \"#utility.yul\":9204:9224   */\n      sub\n        /* \"#utility.yul\":9200:9201   */\n      0x00\n        /* \"#utility.yul\":9189:9198   */\n      dup4\n        /* \"#utility.yul\":9185:9202   */\n      add\n        /* \"#utility.yul\":9178:9225   */\n      mstore\n        /* \"#utility.yul\":9242:9373   */\n      tag_381\n        /* \"#utility.yul\":9368:9372   */\n      dup2\n        /* \"#utility.yul\":9242:9373   */\n      tag_247\n      jump\t// in\n    tag_381:\n        /* \"#utility.yul\":9234:9373   */\n      swap1\n      pop\n        /* \"#utility.yul\":8961:9380   */\n      swap2\n      swap1\n      pop\n      jump\t// out\n        /* \"#utility.yul\":9386:9577   */\n    tag_84:\n        /* \"#utility.yul\":9426:9429   */\n      0x00\n        /* \"#utility.yul\":9445:9465   */\n      tag_383\n        /* \"#utility.yul\":9463:9464   */\n      dup3\n        /* \"#utility.yul\":9445:9465   */\n      tag_225\n      jump\t// in\n    tag_383:\n        /* \"#utility.yul\":9440:9465   */\n      swap2\n      pop\n        /* \"#utility.yul\":9479:9499   */\n      tag_384\n        /* \"#utility.yul\":9497:9498   */\n      dup4\n        /* \"#utility.yul\":9479:9499   */\n      tag_225\n      jump\t// in\n    tag_384:\n        /* \"#utility.yul\":9474:9499   */\n      swap3\n      pop\n        /* \"#utility.yul\":9522:9523   */\n      dup3\n        /* \"#utility.yul\":9519:9520   */\n      dup3\n        /* \"#utility.yul\":9515:9524   */\n      add\n        /* \"#utility.yul\":9508:9524   */\n      swap1\n      pop\n        /* \"#utility.yul\":9543:9546   */\n      dup1\n        /* \"#utility.yul\":9540:9541   */\n      dup3\n        /* \"#utility.yul\":9537:9547   */\n      gt\n        /* \"#utility.yul\":9534:9570   */\n      iszero\n      tag_385\n      jumpi\n        /* \"#utility.yul\":9550:9568   */\n      tag_386\n      tag_241\n      jump\t// in\n    tag_386:\n        /* \"#utility.yul\":9534:9570   */\n    tag_385:\n        /* \"#utility.yul\":9386:9577   */\n      swap3\n      swap2\n      pop\n      pop\n      jump\t// out\n        /* \"#utility.yul\":9583:9762   */\n    tag_248:\n        /* \"#utility.yul\":9723:9754   */\n      0x43686920636875206e6861206d6f692064756f6320727574207469656e000000\n        /* \"#utility.yul\":9719:9720   */\n      0x00\n        /* \"#utility.yul\":9711:9717   */\n      dup3\n        /* \"#utility.yul\":9707:9721   */\n      add\n        /* \"#utility.yul\":9700:9755   */\n      mstore\n        /* \"#utility.yul\":9583:9762   */\n      pop\n      jump\t// out\n        /* \"#utility.yul\":9768:10134   */\n    tag_249:\n        /* \"#utility.yul\":9910:9913   */\n      0x00\n        /* \"#utility.yul\":9931:9998   */\n      tag_389\n        /* \"#utility.yul\":9995:9997   */\n      0x1d\n        /* \"#utility.yul\":9990:9993   */\n      dup4\n        /* \"#utility.yul\":9931:9998   */\n      tag_236\n      jump\t// in\n    tag_389:\n        /* \"#utility.yul\":9924:9998   */\n      swap2\n      pop\n        /* \"#utility.yul\":10007:10100   */\n      tag_390\n        /* \"#utility.yul\":10096:10099   */\n      dup3\n        /* \"#utility.yul\":10007:10100   */\n      tag_248\n      jump\t// in\n    tag_390:\n        /* \"#utility.yul\":10125:10127   */\n      0x20\n        /* \"#utility.yul\":10120:10123   */\n      dup3\n        /* \"#utility.yul\":10116:10128   */\n      add\n        /* \"#utility.yul\":10109:10128   */\n      swap1\n      pop\n        /* \"#utility.yul\":9768:10134   */\n      swap2\n      swap1\n      pop\n      jump\t// out\n        /* \"#utility.yul\":10140:10559   */\n    tag_88:\n        /* \"#utility.yul\":10306:10310   */\n      0x00\n        /* \"#utility.yul\":10344:10346   */\n      0x20\n        /* \"#utility.yul\":10333:10342   */\n      dup3\n        /* \"#utility.yul\":10329:10347   */\n      add\n        /* \"#utility.yul\":10321:10347   */\n      swap1\n      pop\n        /* \"#utility.yul\":10393:10402   */\n      dup2\n        /* \"#utility.yul\":10387:10391   */\n      dup2\n        /* \"#utility.yul\":10383:10403   */\n      sub\n        /* \"#utility.yul\":10379:10380   */\n      0x00\n        /* \"#utility.yul\":10368:10377   */\n      dup4\n        /* \"#utility.yul\":10364:10381   */\n      add\n        /* \"#utility.yul\":10357:10404   */\n      mstore\n        /* \"#utility.yul\":10421:10552   */\n      tag_392\n        /* \"#utility.yul\":10547:10551   */\n      dup2\n        /* \"#utility.yul\":10421:10552   */\n      tag_249\n      jump\t// in\n    tag_392:\n        /* \"#utility.yul\":10413:10552   */\n      swap1\n      pop\n        /* \"#utility.yul\":10140:10559   */\n      swap2\n      swap1\n      pop\n      jump\t// out\n        /* \"#utility.yul\":10565:10738   */\n    tag_250:\n        /* \"#utility.yul\":10705:10730   */\n      0x4368756120636f20686f7020646f6e6720686f70206c65000000000000000000\n        /* \"#utility.yul\":10701:10702   */\n      0x00\n        /* \"#utility.yul\":10693:10699   */\n      dup3\n        /* \"#utility.yul\":10689:10703   */\n      add\n        /* \"#utility.yul\":10682:10731   */\n      mstore\n        /* \"#utility.yul\":10565:10738   */\n      pop\n      jump\t// out\n        /* \"#utility.yul\":10744:11110   */\n    tag_251:\n        /* \"#utility.yul\":10886:10889   */\n      0x00\n        /* \"#utility.yul\":10907:10974   */\n      tag_395\n        /* \"#utility.yul\":10971:10973   */\n      0x17\n        /* \"#utility.yul\":10966:10969   */\n      dup4\n        /* \"#utility.yul\":10907:10974   */\n      tag_236\n      jump\t// in\n    tag_395:\n        /* \"#utility.yul\":10900:10974   */\n      swap2\n      pop\n        /* \"#utility.yul\":10983:11076   */\n      tag_396\n        /* \"#utility.yul\":11072:11075   */\n      dup3\n        /* \"#utility.yul\":10983:11076   */\n      tag_250\n      jump\t// in\n    tag_396:\n        /* \"#utility.yul\":11101:11103   */\n      0x20\n        /* \"#utility.yul\":11096:11099   */\n      dup3\n        /* \"#utility.yul\":11092:11104   */\n      add\n        /* \"#utility.yul\":11085:11104   */\n      swap1\n      pop\n        /* \"#utility.yul\":10744:11110   */\n      swap2\n      swap1\n      pop\n      jump\t// out\n        /* \"#utility.yul\":11116:11535   */\n    tag_91:\n        /* \"#utility.yul\":11282:11286   */\n      0x00\n        /* \"#utility.yul\":11320:11322   */\n      0x20\n        /* \"#utility.yul\":11309:11318   */\n      dup3\n        /* \"#utility.yul\":11305:11323   */\n      add\n        /* \"#utility.yul\":11297:11323   */\n      swap1\n      pop\n        /* \"#utility.yul\":11369:11378   */\n      dup2\n        /* \"#utility.yul\":11363:11367   */\n      dup2\n        /* \"#utility.yul\":11359:11379   */\n      sub\n        /* \"#utility.yul\":11355:11356   */\n      0x00\n        /* \"#utility.yul\":11344:11353   */\n      dup4\n        /* \"#utility.yul\":11340:11357   */\n      add\n        /* \"#utility.yul\":11333:11380   */\n      mstore\n        /* \"#utility.yul\":11397:11528   */\n      tag_398\n        /* \"#utility.yul\":11523:11527   */\n      dup2\n        /* \"#utility.yul\":11397:11528   */\n      tag_251\n      jump\t// in\n    tag_398:\n        /* \"#utility.yul\":11389:11528   */\n      swap1\n      pop\n        /* \"#utility.yul\":11116:11535   */\n      swap2\n      swap1\n      pop\n      jump\t// out\n        /* \"#utility.yul\":11541:11722   */\n    tag_252:\n        /* \"#utility.yul\":11681:11714   */\n      0x4e67756f692074687565206461207468616e6820746f616e2064617920647500\n        /* \"#utility.yul\":11677:11678   */\n      0x00\n        /* \"#utility.yul\":11669:11675   */\n      dup3\n        /* \"#utility.yul\":11665:11679   */\n      add\n        /* \"#utility.yul\":11658:11715   */\n      mstore\n        /* \"#utility.yul\":11541:11722   */\n      pop\n      jump\t// out\n        /* \"#utility.yul\":11728:12094   */\n    tag_253:\n        /* \"#utility.yul\":11870:11873   */\n      0x00\n        /* \"#utility.yul\":11891:11958   */\n      tag_401\n        /* \"#utility.yul\":11955:11957   */\n      0x1f\n        /* \"#utility.yul\":11950:11953   */\n      dup4\n        /* \"#utility.yul\":11891:11958   */\n      tag_236\n      jump\t// in\n    tag_401:\n        /* \"#utility.yul\":11884:11958   */\n      swap2\n      pop\n        /* \"#utility.yul\":11967:12060   */\n      tag_402\n        /* \"#utility.yul\":12056:12059   */\n      dup3\n        /* \"#utility.yul\":11967:12060   */\n      tag_252\n      jump\t// in\n    tag_402:\n        /* \"#utility.yul\":12085:12087   */\n      0x20\n        /* \"#utility.yul\":12080:12083   */\n      dup3\n        /* \"#utility.yul\":12076:12088   */\n      add\n        /* \"#utility.yul\":12069:12088   */\n      swap1\n      pop\n        /* \"#utility.yul\":11728:12094   */\n      swap2\n      swap1\n      pop\n      jump\t// out\n        /* \"#utility.yul\":12100:12519   */\n    tag_94:\n        /* \"#utility.yul\":12266:12270   */\n      0x00\n        /* \"#utility.yul\":12304:12306   */\n      0x20\n        /* \"#utility.yul\":12293:12302   */\n      dup3\n        /* \"#utility.yul\":12289:12307   */\n      add\n        /* \"#utility.yul\":12281:12307   */\n      swap1\n      pop\n        /* \"#utility.yul\":12353:12362   */\n      dup2\n        /* \"#utility.yul\":12347:12351   */\n      dup2\n        /* \"#utility.yul\":12343:12363   */\n      sub\n        /* \"#utility.yul\":12339:12340   */\n      0x00\n        /* \"#utility.yul\":12328:12337   */\n      dup4\n        /* \"#utility.yul\":12324:12341   */\n      add\n        /* \"#utility.yul\":12317:12364   */\n      mstore\n        /* \"#utility.yul\":12381:12512   */\n      tag_404\n        /* \"#utility.yul\":12507:12511   */\n      dup2\n        /* \"#utility.yul\":12381:12512   */\n      tag_253\n      jump\t// in\n    tag_404:\n        /* \"#utility.yul\":12373:12512   */\n      swap1\n      pop\n        /* \"#utility.yul\":12100:12519   */\n      swap2\n      swap1\n      pop\n      jump\t// out\n        /* \"#utility.yul\":12525:12703   */\n    tag_254:\n        /* \"#utility.yul\":12665:12695   */\n      0x4368756120636f207468616e67206e616f206d6f692064652072757400000000\n        /* \"#utility.yul\":12661:12662   */\n      0x00\n        /* \"#utility.yul\":12653:12659   */\n      dup3\n        /* \"#utility.yul\":12649:12663   */\n      add\n        /* \"#utility.yul\":12642:12696   */\n      mstore\n        /* \"#utility.yul\":12525:12703   */\n      pop\n      jump\t// out\n        /* \"#utility.yul\":12709:13075   */\n    tag_255:\n        /* \"#utility.yul\":12851:12854   */\n      0x00\n        /* \"#utility.yul\":12872:12939   */\n      tag_407\n        /* \"#utility.yul\":12936:12938   */\n      0x1c\n        /* \"#utility.yul\":12931:12934   */\n      dup4\n        /* \"#utility.yul\":12872:12939   */\n      tag_236\n      jump\t// in\n    tag_407:\n        /* \"#utility.yul\":12865:12939   */\n      swap2\n      pop\n        /* \"#utility.yul\":12948:13041   */\n      tag_408\n        /* \"#utility.yul\":13037:13040   */\n      dup3\n        /* \"#utility.yul\":12948:13041   */\n      tag_254\n      jump\t// in\n    tag_408:\n        /* \"#utility.yul\":13066:13068   */\n      0x20\n        /* \"#utility.yul\":13061:13064   */\n      dup3\n        /* \"#utility.yul\":13057:13069   */\n      add\n        /* \"#utility.yul\":13050:13069   */\n      swap1\n      pop\n        /* \"#utility.yul\":12709:13075   */\n      swap2\n      swap1\n      pop\n      jump\t// out\n        /* \"#utility.yul\":13081:13500   */\n    tag_99:\n        /* \"#utility.yul\":13247:13251   */\n      0x00\n        /* \"#utility.yul\":13285:13287   */\n      0x20\n        /* \"#utility.yul\":13274:13283   */\n      dup3\n        /* \"#utility.yul\":13270:13288   */\n      add\n        /* \"#utility.yul\":13262:13288   */\n      swap1\n      pop\n        /* \"#utility.yul\":13334:13343   */\n      dup2\n        /* \"#utility.yul\":13328:13332   */\n      dup2\n        /* \"#utility.yul\":13324:13344   */\n      sub\n        /* \"#utility.yul\":13320:13321   */\n      0x00\n        /* \"#utility.yul\":13309:13318   */\n      dup4\n        /* \"#utility.yul\":13305:13322   */\n      add\n        /* \"#utility.yul\":13298:13345   */\n      mstore\n        /* \"#utility.yul\":13362:13493   */\n      tag_410\n        /* \"#utility.yul\":13488:13492   */\n      dup2\n        /* \"#utility.yul\":13362:13493   */\n      tag_255\n      jump\t// in\n    tag_410:\n        /* \"#utility.yul\":13354:13493   */\n      swap1\n      pop\n        /* \"#utility.yul\":13081:13500   */\n      swap2\n      swap1\n      pop\n      jump\t// out\n        /* \"#utility.yul\":13506:13739   */\n    tag_256:\n        /* \"#utility.yul\":13646:13680   */\n      0x536f207468616e67206d756f6e20727574206c6f6e20686f6e20736f2074686f\n        /* \"#utility.yul\":13642:13643   */\n      0x00\n        /* \"#utility.yul\":13634:13640   */\n      dup3\n        /* \"#utility.yul\":13630:13644   */\n      add\n        /* \"#utility.yul\":13623:13681   */\n      mstore\n        /* \"#utility.yul\":13715:13731   */\n      0x69206769616e20636f6e206c6169000000000000000000000000000000000000\n        /* \"#utility.yul\":13710:13712   */\n      0x20\n        /* \"#utility.yul\":13702:13708   */\n      dup3\n        /* \"#utility.yul\":13698:13713   */\n      add\n        /* \"#utility.yul\":13691:13732   */\n      mstore\n        /* \"#utility.yul\":13506:13739   */\n      pop\n      jump\t// out\n        /* \"#utility.yul\":13745:14111   */\n    tag_257:\n        /* \"#utility.yul\":13887:13890   */\n      0x00\n        /* \"#utility.yul\":13908:13975   */\n      tag_413\n        /* \"#utility.yul\":13972:13974   */\n      0x2e\n        /* \"#utility.yul\":13967:13970   */\n      dup4\n        /* \"#utility.yul\":13908:13975   */\n      tag_236\n      jump\t// in\n    tag_413:\n        /* \"#utility.yul\":13901:13975   */\n      swap2\n      pop\n        /* \"#utility.yul\":13984:14077   */\n      tag_414\n        /* \"#utility.yul\":14073:14076   */\n      dup3\n        /* \"#utility.yul\":13984:14077   */\n      tag_256\n      jump\t// in\n    tag_414:\n        /* \"#utility.yul\":14102:14104   */\n      0x40\n        /* \"#utility.yul\":14097:14100   */\n      dup3\n        /* \"#utility.yul\":14093:14105   */\n      add\n        /* \"#utility.yul\":14086:14105   */\n      swap1\n      pop\n        /* \"#utility.yul\":13745:14111   */\n      swap2\n      swap1\n      pop\n      jump\t// out\n        /* \"#utility.yul\":14117:14536   */\n    tag_103:\n        /* \"#utility.yul\":14283:14287   */\n      0x00\n        /* \"#utility.yul\":14321:14323   */\n      0x20\n        /* \"#utility.yul\":14310:14319   */\n      dup3\n        /* \"#utility.yul\":14306:14324   */\n      add\n        /* \"#utility.yul\":14298:14324   */\n      swap1\n      pop\n        /* \"#utility.yul\":14370:14379   */\n      dup2\n        /* \"#utility.yul\":14364:14368   */\n      dup2\n        /* \"#utility.yul\":14360:14380   */\n      sub\n        /* \"#utility.yul\":14356:14357   */\n      0x00\n        /* \"#utility.yul\":14345:14354   */\n      dup4\n        /* \"#utility.yul\":14341:14358   */\n      add\n        /* \"#utility.yul\":14334:14381   */\n      mstore\n        /* \"#utility.yul\":14398:14529   */\n      tag_416\n        /* \"#utility.yul\":14524:14528   */\n      dup2\n        /* \"#utility.yul\":14398:14529   */\n      tag_257\n      jump\t// in\n    tag_416:\n        /* \"#utility.yul\":14390:14529   */\n      swap1\n      pop\n        /* \"#utility.yul\":14117:14536   */\n      swap2\n      swap1\n      pop\n      jump\t// out\n        /* \"#utility.yul\":14542:14711   */\n    tag_258:\n        /* \"#utility.yul\":14682:14703   */\n      0x486f7020646f6e672064612064756f63206b7900000000000000000000000000\n        /* \"#utility.yul\":14678:14679   */\n      0x00\n        /* \"#utility.yul\":14670:14676   */\n      dup3\n        /* \"#utility.yul\":14666:14680   */\n      add\n        /* \"#utility.yul\":14659:14704   */\n      mstore\n        /* \"#utility.yul\":14542:14711   */\n      pop\n      jump\t// out\n        /* \"#utility.yul\":14717:15083   */\n    tag_259:\n        /* \"#utility.yul\":14859:14862   */\n      0x00\n        /* \"#utility.yul\":14880:14947   */\n      tag_419\n        /* \"#utility.yul\":14944:14946   */\n      0x13\n        /* \"#utility.yul\":14939:14942   */\n      dup4\n        /* \"#utility.yul\":14880:14947   */\n      tag_236\n      jump\t// in\n    tag_419:\n        /* \"#utility.yul\":14873:14947   */\n      swap2\n      pop\n        /* \"#utility.yul\":14956:15049   */\n      tag_420\n        /* \"#utility.yul\":15045:15048   */\n      dup3\n        /* \"#utility.yul\":14956:15049   */\n      tag_258\n      jump\t// in\n    tag_420:\n        /* \"#utility.yul\":15074:15076   */\n      0x20\n        /* \"#utility.yul\":15069:15072   */\n      dup3\n        /* \"#utility.yul\":15065:15077   */\n      add\n        /* \"#utility.yul\":15058:15077   */\n      swap1\n      pop\n        /* \"#utility.yul\":14717:15083   */\n      swap2\n      swap1\n      pop\n      jump\t// out\n        /* \"#utility.yul\":15089:15508   */\n    tag_116:\n        /* \"#utility.yul\":15255:15259   */\n      0x00\n        /* \"#utility.yul\":15293:15295   */\n      0x20\n        /* \"#utility.yul\":15282:15291   */\n      dup3\n        /* \"#utility.yul\":15278:15296   */\n      add\n        /* \"#utility.yul\":15270:15296   */\n      swap1\n      pop\n        /* \"#utility.yul\":15342:15351   */\n      dup2\n        /* \"#utility.yul\":15336:15340   */\n      dup2\n        /* \"#utility.yul\":15332:15352   */\n      sub\n        /* \"#utility.yul\":15328:15329   */\n      0x00\n        /* \"#utility.yul\":15317:15326   */\n      dup4\n        /* \"#utility.yul\":15313:15330   */\n      add\n        /* \"#utility.yul\":15306:15353   */\n      mstore\n        /* \"#utility.yul\":15370:15501   */\n      tag_422\n        /* \"#utility.yul\":15496:15500   */\n      dup2\n        /* \"#utility.yul\":15370:15501   */\n      tag_259\n      jump\t// in\n    tag_422:\n        /* \"#utility.yul\":15362:15501   */\n      swap1\n      pop\n        /* \"#utility.yul\":15089:15508   */\n      swap2\n      swap1\n      pop\n      jump\t// out\n        /* \"#utility.yul\":15514:15687   */\n    tag_260:\n        /* \"#utility.yul\":15654:15679   */\n      0x436875206e6861206b686f6e6720746865207475206b79000000000000000000\n        /* \"#utility.yul\":15650:15651   */\n      0x00\n        /* \"#utility.yul\":15642:15648   */\n      dup3\n        /* \"#utility.yul\":15638:15652   */\n      add\n        /* \"#utility.yul\":15631:15680   */\n      mstore\n        /* \"#utility.yul\":15514:15687   */\n      pop\n      jump\t// out\n        /* \"#utility.yul\":15693:16059   */\n    tag_261:\n        /* \"#utility.yul\":15835:15838   */\n      0x00\n        /* \"#utility.yul\":15856:15923   */\n      tag_425\n        /* \"#utility.yul\":15920:15922   */\n      0x17\n        /* \"#utility.yul\":15915:15918   */\n      dup4\n        /* \"#utility.yul\":15856:15923   */\n      tag_236\n      jump\t// in\n    tag_425:\n        /* \"#utility.yul\":15849:15923   */\n      swap2\n      pop\n        /* \"#utility.yul\":15932:16025   */\n      tag_426\n        /* \"#utility.yul\":16021:16024   */\n      dup3\n        /* \"#utility.yul\":15932:16025   */\n      tag_260\n      jump\t// in\n    tag_426:\n        /* \"#utility.yul\":16050:16052   */\n      0x20\n        /* \"#utility.yul\":16045:16048   */\n      dup3\n        /* \"#utility.yul\":16041:16053   */\n      add\n        /* \"#utility.yul\":16034:16053   */\n      swap1\n      pop\n        /* \"#utility.yul\":15693:16059   */\n      swap2\n      swap1\n      pop\n      jump\t// out\n        /* \"#utility.yul\":16065:16484   */\n    tag_119:\n        /* \"#utility.yul\":16231:16235   */\n      0x00\n        /* \"#utility.yul\":16269:16271   */\n      0x20\n        /* \"#utility.yul\":16258:16267   */\n      dup3\n        /* \"#utility.yul\":16254:16272   */\n      add\n        /* \"#utility.yul\":16246:16272   */\n      swap1\n      pop\n        /* \"#utility.yul\":16318:16327   */\n      dup2\n        /* \"#utility.yul\":16312:16316   */\n      dup2\n        /* \"#utility.yul\":16308:16328   */\n      sub\n        /* \"#utility.yul\":16304:16305   */\n      0x00\n        /* \"#utility.yul\":16293:16302   */\n      dup4\n        /* \"#utility.yul\":16289:16306   */\n      add\n        /* \"#utility.yul\":16282:16329   */\n      mstore\n        /* \"#utility.yul\":16346:16477   */\n      tag_428\n        /* \"#utility.yul\":16472:16476   */\n      dup2\n        /* \"#utility.yul\":16346:16477   */\n      tag_261\n      jump\t// in\n    tag_428:\n        /* \"#utility.yul\":16338:16477   */\n      swap1\n      pop\n        /* \"#utility.yul\":16065:16484   */\n      swap2\n      swap1\n      pop\n      jump\t// out\n        /* \"#utility.yul\":16490:16712   */\n    tag_262:\n        /* \"#utility.yul\":16630:16664   */\n      0x50686169206e6170206475207469656e2063686f20746f616e20626f206b7920\n        /* \"#utility.yul\":16626:16627   */\n      0x00\n        /* \"#utility.yul\":16618:16624   */\n      dup3\n        /* \"#utility.yul\":16614:16628   */\n      add\n        /* \"#utility.yul\":16607:16665   */\n      mstore\n        /* \"#utility.yul\":16699:16704   */\n      0x68616e0000000000000000000000000000000000000000000000000000000000\n        /* \"#utility.yul\":16694:16696   */\n      0x20\n        /* \"#utility.yul\":16686:16692   */\n      dup3\n        /* \"#utility.yul\":16682:16697   */\n      add\n        /* \"#utility.yul\":16675:16705   */\n      mstore\n        /* \"#utility.yul\":16490:16712   */\n      pop\n      jump\t// out\n        /* \"#utility.yul\":16718:17084   */\n    tag_263:\n        /* \"#utility.yul\":16860:16863   */\n      0x00\n        /* \"#utility.yul\":16881:16948   */\n      tag_431\n        /* \"#utility.yul\":16945:16947   */\n      0x23\n        /* \"#utility.yul\":16940:16943   */\n      dup4\n        /* \"#utility.yul\":16881:16948   */\n      tag_236\n      jump\t// in\n    tag_431:\n        /* \"#utility.yul\":16874:16948   */\n      swap2\n      pop\n        /* \"#utility.yul\":16957:17050   */\n      tag_432\n        /* \"#utility.yul\":17046:17049   */\n      dup3\n        /* \"#utility.yul\":16957:17050   */\n      tag_262\n      jump\t// in\n    tag_432:\n        /* \"#utility.yul\":17075:17077   */\n      0x40\n        /* \"#utility.yul\":17070:17073   */\n      dup3\n        /* \"#utility.yul\":17066:17078   */\n      add\n        /* \"#utility.yul\":17059:17078   */\n      swap1\n      pop\n        /* \"#utility.yul\":16718:17084   */\n      swap2\n      swap1\n      pop\n      jump\t// out\n        /* \"#utility.yul\":17090:17509   */\n    tag_123:\n        /* \"#utility.yul\":17256:17260   */\n      0x00\n        /* \"#utility.yul\":17294:17296   */\n      0x20\n        /* \"#utility.yul\":17283:17292   */\n      dup3\n        /* \"#utility.yul\":17279:17297   */\n      add\n        /* \"#utility.yul\":17271:17297   */\n      swap1\n      pop\n        /* \"#utility.yul\":17343:17352   */\n      dup2\n        /* \"#utility.yul\":17337:17341   */\n      dup2\n        /* \"#utility.yul\":17333:17353   */\n      sub\n        /* \"#utility.yul\":17329:17330   */\n      0x00\n        /* \"#utility.yul\":17318:17327   */\n      dup4\n        /* \"#utility.yul\":17314:17331   */\n      add\n        /* \"#utility.yul\":17307:17354   */\n      mstore\n        /* \"#utility.yul\":17371:17502   */\n      tag_434\n        /* \"#utility.yul\":17497:17501   */\n      dup2\n        /* \"#utility.yul\":17371:17502   */\n      tag_263\n      jump\t// in\n    tag_434:\n        /* \"#utility.yul\":17363:17502   */\n      swap1\n      pop\n        /* \"#utility.yul\":17090:17509   */\n      swap2\n      swap1\n      pop\n      jump\t// out\n        /* \"#utility.yul\":17515:17740   */\n    tag_264:\n        /* \"#utility.yul\":17655:17689   */\n      0x43686920636875206e6861206d6f692064756f632063686170206e68616e2067\n        /* \"#utility.yul\":17651:17652   */\n      0x00\n        /* \"#utility.yul\":17643:17649   */\n      dup3\n        /* \"#utility.yul\":17639:17653   */\n      add\n        /* \"#utility.yul\":17632:17690   */\n      mstore\n        /* \"#utility.yul\":17724:17732   */\n      0x69612068616e0000000000000000000000000000000000000000000000000000\n        /* \"#utility.yul\":17719:17721   */\n      0x20\n        /* \"#utility.yul\":17711:17717   */\n      dup3\n        /* \"#utility.yul\":17707:17722   */\n      add\n        /* \"#utility.yul\":17700:17733   */\n      mstore\n        /* \"#utility.yul\":17515:17740   */\n      pop\n      jump\t// out\n        /* \"#utility.yul\":17746:18112   */\n    tag_265:\n        /* \"#utility.yul\":17888:17891   */\n      0x00\n        /* \"#utility.yul\":17909:17976   */\n      tag_437\n        /* \"#utility.yul\":17973:17975   */\n      0x26\n        /* \"#utility.yul\":17968:17971   */\n      dup4\n        /* \"#utility.yul\":17909:17976   */\n      tag_236\n      jump\t// in\n    tag_437:\n        /* \"#utility.yul\":17902:17976   */\n      swap2\n      pop\n        /* \"#utility.yul\":17985:18078   */\n      tag_438\n        /* \"#utility.yul\":18074:18077   */\n      dup3\n        /* \"#utility.yul\":17985:18078   */\n      tag_264\n      jump\t// in\n    tag_438:\n        /* \"#utility.yul\":18103:18105   */\n      0x40\n        /* \"#utility.yul\":18098:18101   */\n      dup3\n        /* \"#utility.yul\":18094:18106   */\n      add\n        /* \"#utility.yul\":18087:18106   */\n      swap1\n      pop\n        /* \"#utility.yul\":17746:18112   */\n      swap2\n      swap1\n      pop\n      jump\t// out\n        /* \"#utility.yul\":18118:18537   */\n    tag_131:\n        /* \"#utility.yul\":18284:18288   */\n      0x00\n        /* \"#utility.yul\":18322:18324   */\n      0x20\n        /* \"#utility.yul\":18311:18320   */\n      dup3\n        /* \"#utility.yul\":18307:18325   */\n      add\n        /* \"#utility.yul\":18299:18325   */\n      swap1\n      pop\n        /* \"#utility.yul\":18371:18380   */\n      dup2\n        /* \"#utility.yul\":18365:18369   */\n      dup2\n        /* \"#utility.yul\":18361:18381   */\n      sub\n        /* \"#utility.yul\":18357:18358   */\n      0x00\n        /* \"#utility.yul\":18346:18355   */\n      dup4\n        /* \"#utility.yul\":18342:18359   */\n      add\n        /* \"#utility.yul\":18335:18382   */\n      mstore\n        /* \"#utility.yul\":18399:18530   */\n      tag_440\n        /* \"#utility.yul\":18525:18529   */\n      dup2\n        /* \"#utility.yul\":18399:18530   */\n      tag_265\n      jump\t// in\n    tag_440:\n        /* \"#utility.yul\":18391:18530   */\n      swap1\n      pop\n        /* \"#utility.yul\":18118:18537   */\n      swap2\n      swap1\n      pop\n      jump\t// out\n        /* \"#utility.yul\":18543:18716   */\n    tag_266:\n        /* \"#utility.yul\":18683:18708   */\n      0x4368756120636f2079657520636175206769612068616e000000000000000000\n        /* \"#utility.yul\":18679:18680   */\n      0x00\n        /* \"#utility.yul\":18671:18677   */\n      dup3\n        /* \"#utility.yul\":18667:18681   */\n      add\n        /* \"#utility.yul\":18660:18709   */\n      mstore\n        /* \"#utility.yul\":18543:18716   */\n      pop\n      jump\t// out\n        /* \"#utility.yul\":18722:19088   */\n    tag_267:\n        /* \"#utility.yul\":18864:18867   */\n      0x00\n        /* \"#utility.yul\":18885:18952   */\n      tag_443\n        /* \"#utility.yul\":18949:18951   */\n      0x17\n        /* \"#utility.yul\":18944:18947   */\n      dup4\n        /* \"#utility.yul\":18885:18952   */\n      tag_236\n      jump\t// in\n    tag_443:\n        /* \"#utility.yul\":18878:18952   */\n      swap2\n      pop\n        /* \"#utility.yul\":18961:19054   */\n      tag_444\n        /* \"#utility.yul\":19050:19053   */\n      dup3\n        /* \"#utility.yul\":18961:19054   */\n      tag_266\n      jump\t// in\n    tag_444:\n        /* \"#utility.yul\":19079:19081   */\n      0x20\n        /* \"#utility.yul\":19074:19077   */\n      dup3\n        /* \"#utility.yul\":19070:19082   */\n      add\n        /* \"#utility.yul\":19063:19082   */\n      swap1\n      pop\n        /* \"#utility.yul\":18722:19088   */\n      swap2\n      swap1\n      pop\n      jump\t// out\n        /* \"#utility.yul\":19094:19513   */\n    tag_134:\n        /* \"#utility.yul\":19260:19264   */\n      0x00\n        /* \"#utility.yul\":19298:19300   */\n      0x20\n        /* \"#utility.yul\":19287:19296   */\n      dup3\n        /* \"#utility.yul\":19283:19301   */\n      add\n        /* \"#utility.yul\":19275:19301   */\n      swap1\n      pop\n        /* \"#utility.yul\":19347:19356   */\n      dup2\n        /* \"#utility.yul\":19341:19345   */\n      dup2\n        /* \"#utility.yul\":19337:19357   */\n      sub\n        /* \"#utility.yul\":19333:19334   */\n      0x00\n        /* \"#utility.yul\":19322:19331   */\n      dup4\n        /* \"#utility.yul\":19318:19335   */\n      add\n        /* \"#utility.yul\":19311:19358   */\n      mstore\n        /* \"#utility.yul\":19375:19506   */\n      tag_446\n        /* \"#utility.yul\":19501:19505   */\n      dup2\n        /* \"#utility.yul\":19375:19506   */\n      tag_267\n      jump\t// in\n    tag_446:\n        /* \"#utility.yul\":19367:19506   */\n      swap1\n      pop\n        /* \"#utility.yul\":19094:19513   */\n      swap2\n      swap1\n      pop\n      jump\t// out\n        /* \"#utility.yul\":19519:19739   */\n    tag_268:\n        /* \"#utility.yul\":19659:19693   */\n      0x436869206e67756f692074687565206d6f692064756f632072757420736f2064\n        /* \"#utility.yul\":19655:19656   */\n      0x00\n        /* \"#utility.yul\":19647:19653   */\n      dup3\n        /* \"#utility.yul\":19643:19657   */\n      add\n        /* \"#utility.yul\":19636:19694   */\n      mstore\n        /* \"#utility.yul\":19728:19731   */\n      0x7500000000000000000000000000000000000000000000000000000000000000\n        /* \"#utility.yul\":19723:19725   */\n      0x20\n        /* \"#utility.yul\":19715:19721   */\n      dup3\n        /* \"#utility.yul\":19711:19726   */\n      add\n        /* \"#utility.yul\":19704:19732   */\n      mstore\n        /* \"#utility.yul\":19519:19739   */\n      pop\n      jump\t// out\n        /* \"#utility.yul\":19745:20111   */\n    tag_269:\n        /* \"#utility.yul\":19887:19890   */\n      0x00\n        /* \"#utility.yul\":19908:19975   */\n      tag_449\n        /* \"#utility.yul\":19972:19974   */\n      0x21\n        /* \"#utility.yul\":19967:19970   */\n      dup4\n        /* \"#utility.yul\":19908:19975   */\n      tag_236\n      jump\t// in\n    tag_449:\n        /* \"#utility.yul\":19901:19975   */\n      swap2\n      pop\n        /* \"#utility.yul\":19984:20077   */\n      tag_450\n        /* \"#utility.yul\":20073:20076   */\n      dup3\n        /* \"#utility.yul\":19984:20077   */\n      tag_268\n      jump\t// in\n    tag_450:\n        /* \"#utility.yul\":20102:20104   */\n      0x40\n        /* \"#utility.yul\":20097:20100   */\n      dup3\n        /* \"#utility.yul\":20093:20105   */\n      add\n        /* \"#utility.yul\":20086:20105   */\n      swap1\n      pop\n        /* \"#utility.yul\":19745:20111   */\n      swap2\n      swap1\n      pop\n      jump\t// out\n        /* \"#utility.yul\":20117:20536   */\n    tag_142:\n        /* \"#utility.yul\":20283:20287   */\n      0x00\n        /* \"#utility.yul\":20321:20323   */\n      0x20\n        /* \"#utility.yul\":20310:20319   */\n      dup3\n        /* \"#utility.yul\":20306:20324   */\n      add\n        /* \"#utility.yul\":20298:20324   */\n      swap1\n      pop\n        /* \"#utility.yul\":20370:20379   */\n      dup2\n        /* \"#utility.yul\":20364:20368   */\n      dup2\n        /* \"#utility.yul\":20360:20380   */\n      sub\n        /* \"#utility.yul\":20356:20357   */\n      0x00\n        /* \"#utility.yul\":20345:20354   */\n      dup4\n        /* \"#utility.yul\":20341:20358   */\n      add\n        /* \"#utility.yul\":20334:20381   */\n      mstore\n        /* \"#utility.yul\":20398:20529   */\n      tag_452\n        /* \"#utility.yul\":20524:20528   */\n      dup2\n        /* \"#utility.yul\":20398:20529   */\n      tag_269\n      jump\t// in\n    tag_452:\n        /* \"#utility.yul\":20390:20529   */\n      swap1\n      pop\n        /* \"#utility.yul\":20117:20536   */\n      swap2\n      swap1\n      pop\n      jump\t// out\n        /* \"#utility.yul\":20542:20711   */\n    tag_270:\n        /* \"#utility.yul\":20682:20703   */\n      0x536f207469656e2063616e20727574203e203000000000000000000000000000\n        /* \"#utility.yul\":20678:20679   */\n      0x00\n        /* \"#utility.yul\":20670:20676   */\n      dup3\n        /* \"#utility.yul\":20666:20680   */\n      add\n        /* \"#utility.yul\":20659:20704   */\n      mstore\n        /* \"#utility.yul\":20542:20711   */\n      pop\n      jump\t// out\n        /* \"#utility.yul\":20717:21083   */\n    tag_271:\n        /* \"#utility.yul\":20859:20862   */\n      0x00\n        /* \"#utility.yul\":20880:20947   */\n      tag_455\n        /* \"#utility.yul\":20944:20946   */\n      0x13\n        /* \"#utility.yul\":20939:20942   */\n      dup4\n        /* \"#utility.yul\":20880:20947   */\n      tag_236\n      jump\t// in\n    tag_455:\n        /* \"#utility.yul\":20873:20947   */\n      swap2\n      pop\n        /* \"#utility.yul\":20956:21049   */\n      tag_456\n        /* \"#utility.yul\":21045:21048   */\n      dup3\n        /* \"#utility.yul\":20956:21049   */\n      tag_270\n      jump\t// in\n    tag_456:\n        /* \"#utility.yul\":21074:21076   */\n      0x20\n        /* \"#utility.yul\":21069:21072   */\n      dup3\n        /* \"#utility.yul\":21065:21077   */\n      add\n        /* \"#utility.yul\":21058:21077   */\n      swap1\n      pop\n        /* \"#utility.yul\":20717:21083   */\n      swap2\n      swap1\n      pop\n      jump\t// out\n        /* \"#utility.yul\":21089:21508   */\n    tag_145:\n        /* \"#utility.yul\":21255:21259   */\n      0x00\n        /* \"#utility.yul\":21293:21295   */\n      0x20\n        /* \"#utility.yul\":21282:21291   */\n      dup3\n        /* \"#utility.yul\":21278:21296   */\n      add\n        /* \"#utility.yul\":21270:21296   */\n      swap1\n      pop\n        /* \"#utility.yul\":21342:21351   */\n      dup2\n        /* \"#utility.yul\":21336:21340   */\n      dup2\n        /* \"#utility.yul\":21332:21352   */\n      sub\n        /* \"#utility.yul\":21328:21329   */\n      0x00\n        /* \"#utility.yul\":21317:21326   */\n      dup4\n        /* \"#utility.yul\":21313:21330   */\n      add\n        /* \"#utility.yul\":21306:21353   */\n      mstore\n        /* \"#utility.yul\":21370:21501   */\n      tag_458\n        /* \"#utility.yul\":21496:21500   */\n      dup2\n        /* \"#utility.yul\":21370:21501   */\n      tag_271\n      jump\t// in\n    tag_458:\n        /* \"#utility.yul\":21362:21501   */\n      swap1\n      pop\n        /* \"#utility.yul\":21089:21508   */\n      swap2\n      swap1\n      pop\n      jump\t// out\n        /* \"#utility.yul\":21514:21691   */\n    tag_272:\n        /* \"#utility.yul\":21654:21683   */\n      0x536f206475206b686f6e672064752064652074687563206869656e0000000000\n        /* \"#utility.yul\":21650:21651   */\n      0x00\n        /* \"#utility.yul\":21642:21648   */\n      dup3\n        /* \"#utility.yul\":21638:21652   */\n      add\n        /* \"#utility.yul\":21631:21684   */\n      mstore\n        /* \"#utility.yul\":21514:21691   */\n      pop\n      jump\t// out\n        /* \"#utility.yul\":21697:22063   */\n    tag_273:\n        /* \"#utility.yul\":21839:21842   */\n      0x00\n        /* \"#utility.yul\":21860:21927   */\n      tag_461\n        /* \"#utility.yul\":21924:21926   */\n      0x1b\n        /* \"#utility.yul\":21919:21922   */\n      dup4\n        /* \"#utility.yul\":21860:21927   */\n      tag_236\n      jump\t// in\n    tag_461:\n        /* \"#utility.yul\":21853:21927   */\n      swap2\n      pop\n        /* \"#utility.yul\":21936:22029   */\n      tag_462\n        /* \"#utility.yul\":22025:22028   */\n      dup3\n        /* \"#utility.yul\":21936:22029   */\n      tag_272\n      jump\t// in\n    tag_462:\n        /* \"#utility.yul\":22054:22056   */\n      0x20\n        /* \"#utility.yul\":22049:22052   */\n      dup3\n        /* \"#utility.yul\":22045:22057   */\n      add\n        /* \"#utility.yul\":22038:22057   */\n      swap1\n      pop\n        /* \"#utility.yul\":21697:22063   */\n      swap2\n      swap1\n      pop\n      jump\t// out\n        /* \"#utility.yul\":22069:22488   */\n    tag_158:\n        /* \"#utility.yul\":22235:22239   */\n      0x00\n        /* \"#utility.yul\":22273:22275   */\n      0x20\n        /* \"#utility.yul\":22262:22271   */\n      dup3\n        /* \"#utility.yul\":22258:22276   */\n      add\n        /* \"#utility.yul\":22250:22276   */\n      swap1\n      pop\n        /* \"#utility.yul\":22322:22331   */\n      dup2\n        /* \"#utility.yul\":22316:22320   */\n      dup2\n        /* \"#utility.yul\":22312:22332   */\n      sub\n        /* \"#utility.yul\":22308:22309   */\n      0x00\n        /* \"#utility.yul\":22297:22306   */\n      dup4\n        /* \"#utility.yul\":22293:22310   */\n      add\n        /* \"#utility.yul\":22286:22333   */\n      mstore\n        /* \"#utility.yul\":22350:22481   */\n      tag_464\n        /* \"#utility.yul\":22476:22480   */\n      dup2\n        /* \"#utility.yul\":22350:22481   */\n      tag_273\n      jump\t// in\n    tag_464:\n        /* \"#utility.yul\":22342:22481   */\n      swap1\n      pop\n        /* \"#utility.yul\":22069:22488   */\n      swap2\n      swap1\n      pop\n      jump\t// out\n        /* \"#utility.yul\":22494:22727   */\n    tag_274:\n        /* \"#utility.yul\":22634:22668   */\n      0x436869206e67756f69207468756520686f616320636875206e6861206d6f6920\n        /* \"#utility.yul\":22630:22631   */\n      0x00\n        /* \"#utility.yul\":22622:22628   */\n      dup3\n        /* \"#utility.yul\":22618:22632   */\n      add\n        /* \"#utility.yul\":22611:22669   */\n      mstore\n        /* \"#utility.yul\":22703:22719   */\n      0x64756f632078656d20736f206475000000000000000000000000000000000000\n        /* \"#utility.yul\":22698:22700   */\n      0x20\n        /* \"#utility.yul\":22690:22696   */\n      dup3\n        /* \"#utility.yul\":22686:22701   */\n      add\n        /* \"#utility.yul\":22679:22720   */\n      mstore\n        /* \"#utility.yul\":22494:22727   */\n      pop\n      jump\t// out\n        /* \"#utility.yul\":22733:23099   */\n    tag_275:\n        /* \"#utility.yul\":22875:22878   */\n      0x00\n        /* \"#utility.yul\":22896:22963   */\n      tag_467\n        /* \"#utility.yul\":22960:22962   */\n      0x2e\n        /* \"#utility.yul\":22955:22958   */\n      dup4\n        /* \"#utility.yul\":22896:22963   */\n      tag_236\n      jump\t// in\n    tag_467:\n        /* \"#utility.yul\":22889:22963   */\n      swap2\n      pop\n        /* \"#utility.yul\":22972:23065   */\n      tag_468\n        /* \"#utility.yul\":23061:23064   */\n      dup3\n        /* \"#utility.yul\":22972:23065   */\n      tag_274\n      jump\t// in\n    tag_468:\n        /* \"#utility.yul\":23090:23092   */\n      0x40\n        /* \"#utility.yul\":23085:23088   */\n      dup3\n        /* \"#utility.yul\":23081:23093   */\n      add\n        /* \"#utility.yul\":23074:23093   */\n      swap1\n      pop\n        /* \"#utility.yul\":22733:23099   */\n      swap2\n      swap1\n      pop\n      jump\t// out\n        /* \"#utility.yul\":23105:23524   */\n    tag_169:\n        /* \"#utility.yul\":23271:23275   */\n      0x00\n        /* \"#utility.yul\":23309:23311   */\n      0x20\n        /* \"#utility.yul\":23298:23307   */\n      dup3\n        /* \"#utility.yul\":23294:23312   */\n      add\n        /* \"#utility.yul\":23286:23312   */\n      swap1\n      pop\n        /* \"#utility.yul\":23358:23367   */\n      dup2\n        /* \"#utility.yul\":23352:23356   */\n      dup2\n        /* \"#utility.yul\":23348:23368   */\n      sub\n        /* \"#utility.yul\":23344:23345   */\n      0x00\n        /* \"#utility.yul\":23333:23342   */\n      dup4\n        /* \"#utility.yul\":23329:23346   */\n      add\n        /* \"#utility.yul\":23322:23369   */\n      mstore\n        /* \"#utility.yul\":23386:23517   */\n      tag_470\n        /* \"#utility.yul\":23512:23516   */\n      dup2\n        /* \"#utility.yul\":23386:23517   */\n      tag_275\n      jump\t// in\n    tag_470:\n        /* \"#utility.yul\":23378:23517   */\n      swap1\n      pop\n        /* \"#utility.yul\":23105:23524   */\n      swap2\n      swap1\n      pop\n      jump\t// out\n        /* \"#utility.yul\":23530:23773   */\n    tag_276:\n        /* \"#utility.yul\":23670:23704   */\n      0x436869206e67756f69207468756520686f616320636875206e6861206d6f6920\n        /* \"#utility.yul\":23666:23667   */\n      0x00\n        /* \"#utility.yul\":23658:23664   */\n      dup3\n        /* \"#utility.yul\":23654:23668   */\n      add\n        /* \"#utility.yul\":23647:23705   */\n      mstore\n        /* \"#utility.yul\":23739:23765   */\n      0x64756f632078656d2079657520636175206769612068616e0000000000000000\n        /* \"#utility.yul\":23734:23736   */\n      0x20\n        /* \"#utility.yul\":23726:23732   */\n      dup3\n        /* \"#utility.yul\":23722:23737   */\n      add\n        /* \"#utility.yul\":23715:23766   */\n      mstore\n        /* \"#utility.yul\":23530:23773   */\n      pop\n      jump\t// out\n        /* \"#utility.yul\":23779:24145   */\n    tag_277:\n        /* \"#utility.yul\":23921:23924   */\n      0x00\n        /* \"#utility.yul\":23942:24009   */\n      tag_473\n        /* \"#utility.yul\":24006:24008   */\n      0x38\n        /* \"#utility.yul\":24001:24004   */\n      dup4\n        /* \"#utility.yul\":23942:24009   */\n      tag_236\n      jump\t// in\n    tag_473:\n        /* \"#utility.yul\":23935:24009   */\n      swap2\n      pop\n        /* \"#utility.yul\":24018:24111   */\n      tag_474\n        /* \"#utility.yul\":24107:24110   */\n      dup3\n        /* \"#utility.yul\":24018:24111   */\n      tag_276\n      jump\t// in\n    tag_474:\n        /* \"#utility.yul\":24136:24138   */\n      0x40\n        /* \"#utility.yul\":24131:24134   */\n      dup3\n        /* \"#utility.yul\":24127:24139   */\n      add\n        /* \"#utility.yul\":24120:24139   */\n      swap1\n      pop\n        /* \"#utility.yul\":23779:24145   */\n      swap2\n      swap1\n      pop\n      jump\t// out\n        /* \"#utility.yul\":24151:24570   */\n    tag_176:\n        /* \"#utility.yul\":24317:24321   */\n      0x00\n        /* \"#utility.yul\":24355:24357   */\n      0x20\n        /* \"#utility.yul\":24344:24353   */\n      dup3\n        /* \"#utility.yul\":24340:24358   */\n      add\n        /* \"#utility.yul\":24332:24358   */\n      swap1\n      pop\n        /* \"#utility.yul\":24404:24413   */\n      dup2\n        /* \"#utility.yul\":24398:24402   */\n      dup2\n        /* \"#utility.yul\":24394:24414   */\n      sub\n        /* \"#utility.yul\":24390:24391   */\n      0x00\n        /* \"#utility.yul\":24379:24388   */\n      dup4\n        /* \"#utility.yul\":24375:24392   */\n      add\n        /* \"#utility.yul\":24368:24415   */\n      mstore\n        /* \"#utility.yul\":24432:24563   */\n      tag_476\n        /* \"#utility.yul\":24558:24562   */\n      dup2\n        /* \"#utility.yul\":24432:24563   */\n      tag_277\n      jump\t// in\n    tag_476:\n        /* \"#utility.yul\":24424:24563   */\n      swap1\n      pop\n        /* \"#utility.yul\":24151:24570   */\n      swap2\n      swap1\n      pop\n      jump\t// out\n        /* \"#utility.yul\":24576:24811   */\n    tag_278:\n        /* \"#utility.yul\":24716:24750   */\n      0x43686920636875206e686120686f6163206e67756f692074687565206d6f6920\n        /* \"#utility.yul\":24712:24713   */\n      0x00\n        /* \"#utility.yul\":24704:24710   */\n      dup3\n        /* \"#utility.yul\":24700:24714   */\n      add\n        /* \"#utility.yul\":24693:24751   */\n      mstore\n        /* \"#utility.yul\":24785:24803   */\n      0x64756f6320687579206769612068616e00000000000000000000000000000000\n        /* \"#utility.yul\":24780:24782   */\n      0x20\n        /* \"#utility.yul\":24772:24778   */\n      dup3\n        /* \"#utility.yul\":24768:24783   */\n      add\n        /* \"#utility.yul\":24761:24804   */\n      mstore\n        /* \"#utility.yul\":24576:24811   */\n      pop\n      jump\t// out\n        /* \"#utility.yul\":24817:25183   */\n    tag_279:\n        /* \"#utility.yul\":24959:24962   */\n      0x00\n        /* \"#utility.yul\":24980:25047   */\n      tag_479\n        /* \"#utility.yul\":25044:25046   */\n      0x30\n        /* \"#utility.yul\":25039:25042   */\n      dup4\n        /* \"#utility.yul\":24980:25047   */\n      tag_236\n      jump\t// in\n    tag_479:\n        /* \"#utility.yul\":24973:25047   */\n      swap2\n      pop\n        /* \"#utility.yul\":25056:25149   */\n      tag_480\n        /* \"#utility.yul\":25145:25148   */\n      dup3\n        /* \"#utility.yul\":25056:25149   */\n      tag_278\n      jump\t// in\n    tag_480:\n        /* \"#utility.yul\":25174:25176   */\n      0x40\n        /* \"#utility.yul\":25169:25172   */\n      dup3\n        /* \"#utility.yul\":25165:25177   */\n      add\n        /* \"#utility.yul\":25158:25177   */\n      swap1\n      pop\n        /* \"#utility.yul\":24817:25183   */\n      swap2\n      swap1\n      pop\n      jump\t// out\n        /* \"#utility.yul\":25189:25608   */\n    tag_192:\n        /* \"#utility.yul\":25355:25359   */\n      0x00\n        /* \"#utility.yul\":25393:25395   */\n      0x20\n        /* \"#utility.yul\":25382:25391   */\n      dup3\n        /* \"#utility.yul\":25378:25396   */\n      add\n        /* \"#utility.yul\":25370:25396   */\n      swap1\n      pop\n        /* \"#utility.yul\":25442:25451   */\n      dup2\n        /* \"#utility.yul\":25436:25440   */\n      dup2\n        /* \"#utility.yul\":25432:25452   */\n      sub\n        /* \"#utility.yul\":25428:25429   */\n      0x00\n        /* \"#utility.yul\":25417:25426   */\n      dup4\n        /* \"#utility.yul\":25413:25430   */\n      add\n        /* \"#utility.yul\":25406:25453   */\n      mstore\n        /* \"#utility.yul\":25470:25601   */\n      tag_482\n        /* \"#utility.yul\":25596:25600   */\n      dup2\n        /* \"#utility.yul\":25470:25601   */\n      tag_279\n      jump\t// in\n    tag_482:\n        /* \"#utility.yul\":25462:25601   */\n      swap1\n      pop\n        /* \"#utility.yul\":25189:25608   */\n      swap2\n      swap1\n      pop\n      jump\t// out\n        /* \"#utility.yul\":25614:25782   */\n    tag_280:\n        /* \"#utility.yul\":25754:25774   */\n      0x486f616e207469656e2074686174206261690000000000000000000000000000\n        /* \"#utility.yul\":25750:25751   */\n      0x00\n        /* \"#utility.yul\":25742:25748   */\n      dup3\n        /* \"#utility.yul\":25738:25752   */\n      add\n        /* \"#utility.yul\":25731:25775   */\n      mstore\n        /* \"#utility.yul\":25614:25782   */\n      pop\n      jump\t// out\n        /* \"#utility.yul\":25788:26154   */\n    tag_281:\n        /* \"#utility.yul\":25930:25933   */\n      0x00\n        /* \"#utility.yul\":25951:26018   */\n      tag_485\n        /* \"#utility.yul\":26015:26017   */\n      0x12\n        /* \"#utility.yul\":26010:26013   */\n      dup4\n        /* \"#utility.yul\":25951:26018   */\n      tag_236\n      jump\t// in\n    tag_485:\n        /* \"#utility.yul\":25944:26018   */\n      swap2\n      pop\n        /* \"#utility.yul\":26027:26120   */\n      tag_486\n        /* \"#utility.yul\":26116:26119   */\n      dup3\n        /* \"#utility.yul\":26027:26120   */\n      tag_280\n      jump\t// in\n    tag_486:\n        /* \"#utility.yul\":26145:26147   */\n      0x20\n        /* \"#utility.yul\":26140:26143   */\n      dup3\n        /* \"#utility.yul\":26136:26148   */\n      add\n        /* \"#utility.yul\":26129:26148   */\n      swap1\n      pop\n        /* \"#utility.yul\":25788:26154   */\n      swap2\n      swap1\n      pop\n      jump\t// out\n        /* \"#utility.yul\":26160:26579   */\n    tag_201:\n        /* \"#utility.yul\":26326:26330   */\n      0x00\n        /* \"#utility.yul\":26364:26366   */\n      0x20\n        /* \"#utility.yul\":26353:26362   */\n      dup3\n        /* \"#utility.yul\":26349:26367   */\n      add\n        /* \"#utility.yul\":26341:26367   */\n      swap1\n      pop\n        /* \"#utility.yul\":26413:26422   */\n      dup2\n        /* \"#utility.yul\":26407:26411   */\n      dup2\n        /* \"#utility.yul\":26403:26423   */\n      sub\n        /* \"#utility.yul\":26399:26400   */\n      0x00\n        /* \"#utility.yul\":26388:26397   */\n      dup4\n        /* \"#utility.yul\":26384:26401   */\n      add\n        /* \"#utility.yul\":26377:26424   */\n      mstore\n        /* \"#utility.yul\":26441:26572   */\n      tag_488\n        /* \"#utility.yul\":26567:26571   */\n      dup2\n        /* \"#utility.yul\":26441:26572   */\n      tag_281\n      jump\t// in\n    tag_488:\n        /* \"#utility.yul\":26433:26572   */\n      swap1\n      pop\n        /* \"#utility.yul\":26160:26579   */\n      swap2\n      swap1\n      pop\n      jump\t// out\n        /* \"#utility.yul\":26585:26766   */\n    tag_282:\n        /* \"#utility.yul\":26725:26758   */\n      0x436869206e67756f692074687565206d6f692064756f63206769612068616e00\n        /* \"#utility.yul\":26721:26722   */\n      0x00\n        /* \"#utility.yul\":26713:26719   */\n      dup3\n        /* \"#utility.yul\":26709:26723   */\n      add\n        /* \"#utility.yul\":26702:26759   */\n      mstore\n        /* \"#utility.yul\":26585:26766   */\n      pop\n      jump\t// out\n        /* \"#utility.yul\":26772:27138   */\n    tag_283:\n        /* \"#utility.yul\":26914:26917   */\n      0x00\n        /* \"#utility.yul\":26935:27002   */\n      tag_491\n        /* \"#utility.yul\":26999:27001   */\n      0x1f\n        /* \"#utility.yul\":26994:26997   */\n      dup4\n        /* \"#utility.yul\":26935:27002   */\n      tag_236\n      jump\t// in\n    tag_491:\n        /* \"#utility.yul\":26928:27002   */\n      swap2\n      pop\n        /* \"#utility.yul\":27011:27104   */\n      tag_492\n        /* \"#utility.yul\":27100:27103   */\n      dup3\n        /* \"#utility.yul\":27011:27104   */\n      tag_282\n      jump\t// in\n    tag_492:\n        /* \"#utility.yul\":27129:27131   */\n      0x20\n        /* \"#utility.yul\":27124:27127   */\n      dup3\n        /* \"#utility.yul\":27120:27132   */\n      add\n        /* \"#utility.yul\":27113:27132   */\n      swap1\n      pop\n        /* \"#utility.yul\":26772:27138   */\n      swap2\n      swap1\n      pop\n      jump\t// out\n        /* \"#utility.yul\":27144:27563   */\n    tag_207:\n        /* \"#utility.yul\":27310:27314   */\n      0x00\n        /* \"#utility.yul\":27348:27350   */\n      0x20\n        /* \"#utility.yul\":27337:27346   */\n      dup3\n        /* \"#utility.yul\":27333:27351   */\n      add\n        /* \"#utility.yul\":27325:27351   */\n      swap1\n      pop\n        /* \"#utility.yul\":27397:27406   */\n      dup2\n        /* \"#utility.yul\":27391:27395   */\n      dup2\n        /* \"#utility.yul\":27387:27407   */\n      sub\n        /* \"#utility.yul\":27383:27384   */\n      0x00\n        /* \"#utility.yul\":27372:27381   */\n      dup4\n        /* \"#utility.yul\":27368:27385   */\n      add\n        /* \"#utility.yul\":27361:27408   */\n      mstore\n        /* \"#utility.yul\":27425:27556   */\n      tag_494\n        /* \"#utility.yul\":27551:27555   */\n      dup2\n        /* \"#utility.yul\":27425:27556   */\n      tag_283\n      jump\t// in\n    tag_494:\n        /* \"#utility.yul\":27417:27556   */\n      swap1\n      pop\n        /* \"#utility.yul\":27144:27563   */\n      swap2\n      swap1\n      pop\n      jump\t// out\n        /* \"#utility.yul\":27569:27789   */\n    tag_284:\n        /* \"#utility.yul\":27709:27743   */\n      0x4461207175612074686f69206769616e2063686f207068657020676961206861\n        /* \"#utility.yul\":27705:27706   */\n      0x00\n        /* \"#utility.yul\":27697:27703   */\n      dup3\n        /* \"#utility.yul\":27693:27707   */\n      add\n        /* \"#utility.yul\":27686:27744   */\n      mstore\n        /* \"#utility.yul\":27778:27781   */\n      0x6e00000000000000000000000000000000000000000000000000000000000000\n        /* \"#utility.yul\":27773:27775   */\n      0x20\n        /* \"#utility.yul\":27765:27771   */\n      dup3\n        /* \"#utility.yul\":27761:27776   */\n      add\n        /* \"#utility.yul\":27754:27782   */\n      mstore\n        /* \"#utility.yul\":27569:27789   */\n      pop\n      jump\t// out\n        /* \"#utility.yul\":27795:28161   */\n    tag_285:\n        /* \"#utility.yul\":27937:27940   */\n      0x00\n        /* \"#utility.yul\":27958:28025   */\n      tag_497\n        /* \"#utility.yul\":28022:28024   */\n      0x21\n        /* \"#utility.yul\":28017:28020   */\n      dup4\n        /* \"#utility.yul\":27958:28025   */\n      tag_236\n      jump\t// in\n    tag_497:\n        /* \"#utility.yul\":27951:28025   */\n      swap2\n      pop\n        /* \"#utility.yul\":28034:28127   */\n      tag_498\n        /* \"#utility.yul\":28123:28126   */\n      dup3\n        /* \"#utility.yul\":28034:28127   */\n      tag_284\n      jump\t// in\n    tag_498:\n        /* \"#utility.yul\":28152:28154   */\n      0x40\n        /* \"#utility.yul\":28147:28150   */\n      dup3\n        /* \"#utility.yul\":28143:28155   */\n      add\n        /* \"#utility.yul\":28136:28155   */\n      swap1\n      pop\n        /* \"#utility.yul\":27795:28161   */\n      swap2\n      swap1\n      pop\n      jump\t// out\n        /* \"#utility.yul\":28167:28586   */\n    tag_211:\n        /* \"#utility.yul\":28333:28337   */\n      0x00\n        /* \"#utility.yul\":28371:28373   */\n      0x20\n        /* \"#utility.yul\":28360:28369   */\n      dup3\n        /* \"#utility.yul\":28356:28374   */\n      add\n        /* \"#utility.yul\":28348:28374   */\n      swap1\n      pop\n        /* \"#utility.yul\":28420:28429   */\n      dup2\n        /* \"#utility.yul\":28414:28418   */\n      dup2\n        /* \"#utility.yul\":28410:28430   */\n      sub\n        /* \"#utility.yul\":28406:28407   */\n      0x00\n        /* \"#utility.yul\":28395:28404   */\n      dup4\n        /* \"#utility.yul\":28391:28408   */\n      add\n        /* \"#utility.yul\":28384:28431   */\n      mstore\n        /* \"#utility.yul\":28448:28579   */\n      tag_500\n        /* \"#utility.yul\":28574:28578   */\n      dup2\n        /* \"#utility.yul\":28448:28579   */\n      tag_285\n      jump\t// in\n    tag_500:\n        /* \"#utility.yul\":28440:28579   */\n      swap1\n      pop\n        /* \"#utility.yul\":28167:28586   */\n      swap2\n      swap1\n      pop\n      jump\t// out\n        /* \"#utility.yul\":28592:28767   */\n    tag_286:\n        /* \"#utility.yul\":28732:28759   */\n      0x50686169207468656d206974206e6861742031207468616e6700000000000000\n        /* \"#utility.yul\":28728:28729   */\n      0x00\n        /* \"#utility.yul\":28720:28726   */\n      dup3\n        /* \"#utility.yul\":28716:28730   */\n      add\n        /* \"#utility.yul\":28709:28760   */\n      mstore\n        /* \"#utility.yul\":28592:28767   */\n      pop\n      jump\t// out\n        /* \"#utility.yul\":28773:29139   */\n    tag_287:\n        /* \"#utility.yul\":28915:28918   */\n      0x00\n        /* \"#utility.yul\":28936:29003   */\n      tag_503\n        /* \"#utility.yul\":29000:29002   */\n      0x19\n        /* \"#utility.yul\":28995:28998   */\n      dup4\n        /* \"#utility.yul\":28936:29003   */\n      tag_236\n      jump\t// in\n    tag_503:\n        /* \"#utility.yul\":28929:29003   */\n      swap2\n      pop\n        /* \"#utility.yul\":29012:29105   */\n      tag_504\n        /* \"#utility.yul\":29101:29104   */\n      dup3\n        /* \"#utility.yul\":29012:29105   */\n      tag_286\n      jump\t// in\n    tag_504:\n        /* \"#utility.yul\":29130:29132   */\n      0x20\n        /* \"#utility.yul\":29125:29128   */\n      dup3\n        /* \"#utility.yul\":29121:29133   */\n      add\n        /* \"#utility.yul\":29114:29133   */\n      swap1\n      pop\n        /* \"#utility.yul\":28773:29139   */\n      swap2\n      swap1\n      pop\n      jump\t// out\n        /* \"#utility.yul\":29145:29564   */\n    tag_214:\n        /* \"#utility.yul\":29311:29315   */\n      0x00\n        /* \"#utility.yul\":29349:29351   */\n      0x20\n        /* \"#utility.yul\":29338:29347   */\n      dup3\n        /* \"#utility.yul\":29334:29352   */\n      add\n        /* \"#utility.yul\":29326:29352   */\n      swap1\n      pop\n        /* \"#utility.yul\":29398:29407   */\n      dup2\n        /* \"#utility.yul\":29392:29396   */\n      dup2\n        /* \"#utility.yul\":29388:29408   */\n      sub\n        /* \"#utility.yul\":29384:29385   */\n      0x00\n        /* \"#utility.yul\":29373:29382   */\n      dup4\n        /* \"#utility.yul\":29369:29386   */\n      add\n        /* \"#utility.yul\":29362:29409   */\n      mstore\n        /* \"#utility.yul\":29426:29557   */\n      tag_506\n        /* \"#utility.yul\":29552:29556   */\n      dup2\n        /* \"#utility.yul\":29426:29557   */\n      tag_287\n      jump\t// in\n    tag_506:\n        /* \"#utility.yul\":29418:29557   */\n      swap1\n      pop\n        /* \"#utility.yul\":29145:29564   */\n      swap2\n      swap1\n      pop\n      jump\t// out\n        /* \"#utility.yul\":29570:29790   */\n    tag_288:\n        /* \"#utility.yul\":29710:29744   */\n      0x536f20647520636f6e206c6169206b686f6e6720647520646520676961206861\n        /* \"#utility.yul\":29706:29707   */\n      0x00\n        /* \"#utility.yul\":29698:29704   */\n      dup3\n        /* \"#utility.yul\":29694:29708   */\n      add\n        /* \"#utility.yul\":29687:29745   */\n      mstore\n        /* \"#utility.yul\":29779:29782   */\n      0x6e00000000000000000000000000000000000000000000000000000000000000\n        /* \"#utility.yul\":29774:29776   */\n      0x20\n        /* \"#utility.yul\":29766:29772   */\n      dup3\n        /* \"#utility.yul\":29762:29777   */\n      add\n        /* \"#utility.yul\":29755:29783   */\n      mstore\n        /* \"#utility.yul\":29570:29790   */\n      pop\n      jump\t// out\n        /* \"#utility.yul\":29796:30162   */\n    tag_289:\n        /* \"#utility.yul\":29938:29941   */\n      0x00\n        /* \"#utility.yul\":29959:30026   */\n      tag_509\n        /* \"#utility.yul\":30023:30025   */\n      0x21\n        /* \"#utility.yul\":30018:30021   */\n      dup4\n        /* \"#utility.yul\":29959:30026   */\n      tag_236\n      jump\t// in\n    tag_509:\n        /* \"#utility.yul\":29952:30026   */\n      swap2\n      pop\n        /* \"#utility.yul\":30035:30128   */\n      tag_510\n        /* \"#utility.yul\":30124:30127   */\n      dup3\n        /* \"#utility.yul\":30035:30128   */\n      tag_288\n      jump\t// in\n    tag_510:\n        /* \"#utility.yul\":30153:30155   */\n      0x40\n        /* \"#utility.yul\":30148:30151   */\n      dup3\n        /* \"#utility.yul\":30144:30156   */\n      add\n        /* \"#utility.yul\":30137:30156   */\n      swap1\n      pop\n        /* \"#utility.yul\":29796:30162   */\n      swap2\n      swap1\n      pop\n      jump\t// out\n        /* \"#utility.yul\":30168:30587   */\n    tag_221:\n        /* \"#utility.yul\":30334:30338   */\n      0x00\n        /* \"#utility.yul\":30372:30374   */\n      0x20\n        /* \"#utility.yul\":30361:30370   */\n      dup3\n        /* \"#utility.yul\":30357:30375   */\n      add\n        /* \"#utility.yul\":30349:30375   */\n      swap1\n      pop\n        /* \"#utility.yul\":30421:30430   */\n      dup2\n        /* \"#utility.yul\":30415:30419   */\n      dup2\n        /* \"#utility.yul\":30411:30431   */\n      sub\n        /* \"#utility.yul\":30407:30408   */\n      0x00\n        /* \"#utility.yul\":30396:30405   */\n      dup4\n        /* \"#utility.yul\":30392:30409   */\n      add\n        /* \"#utility.yul\":30385:30432   */\n      mstore\n        /* \"#utility.yul\":30449:30580   */\n      tag_512\n        /* \"#utility.yul\":30575:30579   */\n      dup2\n        /* \"#utility.yul\":30449:30580   */\n      tag_289\n      jump\t// in\n    tag_512:\n        /* \"#utility.yul\":30441:30580   */\n      swap1\n      pop\n        /* \"#utility.yul\":30168:30587   */\n      swap2\n      swap1\n      pop\n      jump\t// out\n\n    auxdata: 0xa264697066735822122082fb9bba73f40ca822604cde627ac010ff3f7e7c71969459b74e5a5cc97a2b0164736f6c634300081e0033\n}\n",
				"bytecode": {
					"linkReferences": {},
					"object": "608060405234801561000f575f5ffd5b50604051612bc2380380612bc283398181016040528101906100319190610161565b5f8211610073576040517f08c379a000000000000000000000000000000000000000000000000000000000815260040161006a906101f9565b60405180910390fd5b5f81116100b5576040517f08c379a00000000000000000000000000000000000000000000000000000000081526004016100ac90610261565b60405180910390fd5b335f5f015f6101000a81548173ffffffffffffffffffffffffffffffffffffffff021916908373ffffffffffffffffffffffffffffffffffffffff160217905550815f60010181905550805f600201819055505f5f6003015f6101000a81548160ff021916908315150217905550505061027f565b5f5ffd5b5f819050919050565b6101408161012e565b811461014a575f5ffd5b50565b5f8151905061015b81610137565b92915050565b5f5f604083850312156101775761017661012a565b5b5f6101848582860161014d565b92505060206101958582860161014d565b9150509250929050565b5f82825260208201905092915050565b7f436869207068692068616e67207468616e672070686169203e203000000000005f82015250565b5f6101e3601b8361019f565b91506101ee826101af565b602082019050919050565b5f6020820190508181035f830152610210816101d7565b9050919050565b7f54686f69206769616e20746875652070686169203e20300000000000000000005f82015250565b5f61024b60178361019f565b915061025682610217565b602082019050919050565b5f6020820190508181035f8301526102788161023f565b9050919050565b6129368061028c5f395ff3fe60806040526004361061009a575f3560e01c8063ae1a094c11610063578063ae1a094c14610100578063be68bb211461013c578063ddca361f14610167578063e6f869c314610194578063e89f62a61461019e578063f17b93a8146101ba5761009a565b80624ead341461009e578063185c8b8d146100a8578063619089d3146100c4578063836b4790146100ce5780638770f889146100e4575b5f5ffd5b6100a66101e7565b005b6100c260048036038101906100bd9190611a94565b610665565b005b6100cc6109c3565b005b3480156100d9575f5ffd5b506100e2610bf8565b005b6100fe60048036038101906100f99190611a94565b610df6565b005b34801561010b575f5ffd5b5061012660048036038101906101219190611b19565b611117565b6040516101339190611b53565b60405180910390f35b348015610147575f5ffd5b50610150611246565b60405161015e929190611b6c565b60405180910390f35b348015610172575f5ffd5b5061017b6113da565b60405161018b9493929190611ba2565b60405180910390f35b61019c611576565b005b6101b860048036038101906101b39190611a94565b6117b7565b005b3480156101c5575f5ffd5b506101ce611a16565b6040516101de9493929190611bff565b60405180910390f35b5f6003015f9054906101000a900460ff16610237576040517f08c379a000000000000000000000000000000000000000000000000000000000815260040161022e90611c9c565b60405180910390fd5b60045f015f9054906101000a900473ffffffffffffffffffffffffffffffffffffffff1673ffffffffffffffffffffffffffffffffffffffff163373ffffffffffffffffffffffffffffffffffffffff1614806102e157505f5f015f9054906101000a900473ffffffffffffffffffffffffffffffffffffffff1673ffffffffffffffffffffffffffffffffffffffff163373ffffffffffffffffffffffffffffffffffffffff16145b610320576040517f08c379a000000000000000000000000000000000000000000000000000000000815260040161031790611d2a565b60405180910390fd5b5f600a5f60045f015f9054906101000a900473ffffffffffffffffffffffffffffffffffffffff1673ffffffffffffffffffffffffffffffffffffffff1673ffffffffffffffffffffffffffffffffffffffff1681526020019081526020015f205411156105e8575f5f6002015490505f600a600460010154426103a49190611d75565b6103ae9190611dd5565b9050818111156103bc578190505b5f5f60010154600460020154836103d39190611d75565b6103dd9190611e05565b90505f81600a5f60045f015f9054906101000a900473ffffffffffffffffffffffffffffffffffffffff1673ffffffffffffffffffffffffffffffffffffffff1673ffffffffffffffffffffffffffffffffffffffff1681526020019081526020015f205461044c9190611d75565b90505f811115610500575f3373ffffffffffffffffffffffffffffffffffffffff168260405161047b90611e73565b5f6040518083038185875af1925050503d805f81146104b5576040519150601f19603f3d011682016040523d82523d5f602084013e6104ba565b606091505b50509050806104fe576040517f08c379a00000000000000000000000000000000000000000000000000000000081526004016104f590611ed1565b60405180910390fd5b505b5f82111561057e5781600a5f5f5f015f9054906101000a900473ffffffffffffffffffffffffffffffffffffffff1673ffffffffffffffffffffffffffffffffffffffff1673ffffffffffffffffffffffffffffffffffffffff1681526020019081526020015f205f8282546105769190611eef565b925050819055505b5f600a5f60045f015f9054906101000a900473ffffffffffffffffffffffffffffffffffffffff1673ffffffffffffffffffffffffffffffffffffffff1673ffffffffffffffffffffffffffffffffffffffff1681526020019081526020015f2081905550505050505b5f5f6003015f6101000a81548160ff0219169083151502179055505f60045f015f6101000a81548173ffffffffffffffffffffffffffffffffffffffff021916908373ffffffffffffffffffffffffffffffffffffffff1602179055505f6004600101819055505f6004600201819055505f600460030181905550565b5f5f015f9054906101000a900473ffffffffffffffffffffffffffffffffffffffff1673ffffffffffffffffffffffffffffffffffffffff163373ffffffffffffffffffffffffffffffffffffffff16146106f5576040517f08c379a00000000000000000000000000000000000000000000000000000000081526004016106ec90611f6c565b60405180910390fd5b5f6003015f9054906101000a900460ff16610745576040517f08c379a000000000000000000000000000000000000000000000000000000000815260040161073c90611fd4565b60405180910390fd5b5f6002015460046002015410610790576040517f08c379a00000000000000000000000000000000000000000000000000000000081526004016107879061203c565b60405180910390fd5b5f600a600460010154426107a49190611d75565b6107ae9190611dd5565b90505f819050828110156107f7576040517f08c379a00000000000000000000000000000000000000000000000000000000081526004016107ee906120a4565b60405180910390fd5b826004600201545f6002015461080d9190611d75565b101561084e576040517f08c379a000000000000000000000000000000000000000000000000000000000815260040161084590612132565b60405180910390fd5b5f5f600101548461085f9190611e05565b905080600a5f60045f015f9054906101000a900473ffffffffffffffffffffffffffffffffffffffff1673ffffffffffffffffffffffffffffffffffffffff1673ffffffffffffffffffffffffffffffffffffffff1681526020019081526020015f205f8282546108d09190611d75565b925050819055508360046002015f8282546108eb9190611eef565b925050819055505f5f5f015f9054906101000a900473ffffffffffffffffffffffffffffffffffffffff1673ffffffffffffffffffffffffffffffffffffffff168260405161093990611e73565b5f6040518083038185875af1925050503d805f8114610973576040519150601f19603f3d011682016040523d82523d5f602084013e610978565b606091505b50509050806109bc576040517f08c379a00000000000000000000000000000000000000000000000000000000081526004016109b390611ed1565b60405180910390fd5b5050505050565b5f6003015f9054906101000a900460ff1615610a14576040517f08c379a0000000000000000000000000000000000000000000000000000000008152600401610a0b9061219a565b60405180910390fd5b5f5f015f9054906101000a900473ffffffffffffffffffffffffffffffffffffffff1673ffffffffffffffffffffffffffffffffffffffff163373ffffffffffffffffffffffffffffffffffffffff1603610aa4576040517f08c379a0000000000000000000000000000000000000000000000000000000008152600401610a9b90612202565b60405180910390fd5b5f600201545f60010154610ab89190611e05565b341015610afa576040517f08c379a0000000000000000000000000000000000000000000000000000000008152600401610af190612290565b60405180910390fd5b3360045f015f6101000a81548173ffffffffffffffffffffffffffffffffffffffff021916908373ffffffffffffffffffffffffffffffffffffffff160217905550426004600101819055505f600460020181905550600a5f60020154610b619190611e05565b42610b6c9190611eef565b60046003018190555034600a5f60045f015f9054906101000a900473ffffffffffffffffffffffffffffffffffffffff1673ffffffffffffffffffffffffffffffffffffffff1673ffffffffffffffffffffffffffffffffffffffff1681526020019081526020015f208190555060015f6003015f6101000a81548160ff021916908315150217905550565b5f6003015f9054906101000a900460ff16610c48576040517f08c379a0000000000000000000000000000000000000000000000000000000008152600401610c3f90611c9c565b60405180910390fd5b5f5f015f9054906101000a900473ffffffffffffffffffffffffffffffffffffffff1673ffffffffffffffffffffffffffffffffffffffff163373ffffffffffffffffffffffffffffffffffffffff1614610cd8576040517f08c379a0000000000000000000000000000000000000000000000000000000008152600401610ccf9061231e565b60405180910390fd5b5f60085f015411610d1e576040517f08c379a0000000000000000000000000000000000000000000000000000000008152600401610d1590612386565b60405180910390fd5b600a60085f0154610d2f9190611e05565b60046003015f828254610d429190611eef565b9250508190555060085f01545f6002015f828254610d609190611eef565b92505081905550600860010154600a5f60045f015f9054906101000a900473ffffffffffffffffffffffffffffffffffffffff1673ffffffffffffffffffffffffffffffffffffffff1673ffffffffffffffffffffffffffffffffffffffff1681526020019081526020015f205f828254610ddb9190611eef565b9250508190555060085f5f82015f9055600182015f90555050565b60045f015f9054906101000a900473ffffffffffffffffffffffffffffffffffffffff1673ffffffffffffffffffffffffffffffffffffffff163373ffffffffffffffffffffffffffffffffffffffff1614610e87576040517f08c379a0000000000000000000000000000000000000000000000000000000008152600401610e7e90612414565b60405180910390fd5b5f8111610ec9576040517f08c379a0000000000000000000000000000000000000000000000000000000008152600401610ec09061247c565b60405180910390fd5b5f600a5f3373ffffffffffffffffffffffffffffffffffffffff1673ffffffffffffffffffffffffffffffffffffffff1681526020019081526020015f205490505f5f600101546004600201545f60020154610f259190611d75565b610f2f9190611e05565b90508082610f3d9190611d75565b91505f600860010154118015610f6a57506008600101545f6001015460085f0154610f689190611e05565b105b15610fc1575f6008600101545f6001015460085f0154610f8a9190611e05565b610f949190611d75565b90508083610fa29190611d75565b92508060086001015f828254610fb89190611eef565b92505081905550505b82821015611004576040517f08c379a0000000000000000000000000000000000000000000000000000000008152600401610ffb906124e4565b60405180910390fd5b5f3373ffffffffffffffffffffffffffffffffffffffff168360405161102990611e73565b5f6040518083038185875af1925050503d805f8114611063576040519150601f19603f3d011682016040523d82523d5f602084013e611068565b606091505b50509050806110ac576040517f08c379a00000000000000000000000000000000000000000000000000000000081526004016110a390611ed1565b60405180910390fd5b81600a5f60045f015f9054906101000a900473ffffffffffffffffffffffffffffffffffffffff1673ffffffffffffffffffffffffffffffffffffffff1673ffffffffffffffffffffffffffffffffffffffff1681526020019081526020015f208190555050505050565b5f60045f015f9054906101000a900473ffffffffffffffffffffffffffffffffffffffff1673ffffffffffffffffffffffffffffffffffffffff163373ffffffffffffffffffffffffffffffffffffffff1614806111c257505f5f015f9054906101000a900473ffffffffffffffffffffffffffffffffffffffff1673ffffffffffffffffffffffffffffffffffffffff163373ffffffffffffffffffffffffffffffffffffffff16145b611201576040517f08c379a00000000000000000000000000000000000000000000000000000000081526004016111f890612572565b60405180910390fd5b600a5f8373ffffffffffffffffffffffffffffffffffffffff1673ffffffffffffffffffffffffffffffffffffffff1681526020019081526020015f20549050919050565b5f5f5f6003015f9054906101000a900460ff16611298576040517f08c379a000000000000000000000000000000000000000000000000000000000815260040161128f90611c9c565b60405180910390fd5b60045f015f9054906101000a900473ffffffffffffffffffffffffffffffffffffffff1673ffffffffffffffffffffffffffffffffffffffff163373ffffffffffffffffffffffffffffffffffffffff16148061134257505f5f015f9054906101000a900473ffffffffffffffffffffffffffffffffffffffff1673ffffffffffffffffffffffffffffffffffffffff163373ffffffffffffffffffffffffffffffffffffffff16145b611381576040517f08c379a000000000000000000000000000000000000000000000000000000000815260040161137890612600565b60405180910390fd5b5f60085f0154116113c7576040517f08c379a00000000000000000000000000000000000000000000000000000000081526004016113be90612386565b60405180910390fd5b60085f0154600860010154915091509091565b5f5f5f5f5f73ffffffffffffffffffffffffffffffffffffffff1660045f015f9054906101000a900473ffffffffffffffffffffffffffffffffffffffff1673ffffffffffffffffffffffffffffffffffffffff1614806114e457505f5f015f9054906101000a900473ffffffffffffffffffffffffffffffffffffffff1673ffffffffffffffffffffffffffffffffffffffff163373ffffffffffffffffffffffffffffffffffffffff16141580156114e3575060045f015f9054906101000a900473ffffffffffffffffffffffffffffffffffffffff1673ffffffffffffffffffffffffffffffffffffffff163373ffffffffffffffffffffffffffffffffffffffff1614155b5b15611504575f6004600101546004600201545f9350935093509350611570565b5f5f905060046003015442101561153557600a426004600301546115289190611d75565b6115329190611dd5565b90505b60045f015f9054906101000a900473ffffffffffffffffffffffffffffffffffffffff16600460010154600460020154839450945094509450505b90919293565b5f6003015f9054906101000a900460ff166115c6576040517f08c379a00000000000000000000000000000000000000000000000000000000081526004016115bd90611c9c565b60405180910390fd5b5f5f015f9054906101000a900473ffffffffffffffffffffffffffffffffffffffff1673ffffffffffffffffffffffffffffffffffffffff163373ffffffffffffffffffffffffffffffffffffffff161480611670575060045f015f9054906101000a900473ffffffffffffffffffffffffffffffffffffffff1673ffffffffffffffffffffffffffffffffffffffff163373ffffffffffffffffffffffffffffffffffffffff16145b6116af576040517f08c379a00000000000000000000000000000000000000000000000000000000081526004016116a69061268e565b60405180910390fd5b5f60085f0154116116f5576040517f08c379a00000000000000000000000000000000000000000000000000000000081526004016116ec90612386565b60405180910390fd5b5f3373ffffffffffffffffffffffffffffffffffffffff1660086001015460405161171f90611e73565b5f6040518083038185875af1925050503d805f8114611759576040519150601f19603f3d011682016040523d82523d5f602084013e61175e565b606091505b50509050806117a2576040517f08c379a0000000000000000000000000000000000000000000000000000000008152600401611799906126f6565b60405180910390fd5b60085f5f82015f9055600182015f9055505050565b5f6003015f9054906101000a900460ff16611807576040517f08c379a00000000000000000000000000000000000000000000000000000000081526004016117fe90611c9c565b60405180910390fd5b60045f015f9054906101000a900473ffffffffffffffffffffffffffffffffffffffff1673ffffffffffffffffffffffffffffffffffffffff163373ffffffffffffffffffffffffffffffffffffffff1614611898576040517f08c379a000000000000000000000000000000000000000000000000000000000815260040161188f9061275e565b60405180910390fd5b60056004600301546118aa9190611eef565b4211156118ec576040517f08c379a00000000000000000000000000000000000000000000000000000000081526004016118e3906127ec565b60405180910390fd5b5f811161192e576040517f08c379a000000000000000000000000000000000000000000000000000000000815260040161192590612854565b60405180910390fd5b5f600101546004600201545f60020154836119499190611eef565b6119539190611d75565b61195d9190611e05565b34600a5f3373ffffffffffffffffffffffffffffffffffffffff1673ffffffffffffffffffffffffffffffffffffffff1681526020019081526020015f20546119a69190611eef565b10156119e7576040517f08c379a00000000000000000000000000000000000000000000000000000000081526004016119de906128e2565b60405180910390fd5b60405180604001604052808281526020013481525060085f820151815f01556020820151816001015590505050565b5f805f015f9054906101000a900473ffffffffffffffffffffffffffffffffffffffff1690806001015490806002015490806003015f9054906101000a900460ff16905084565b5f5ffd5b5f819050919050565b611a7381611a61565b8114611a7d575f5ffd5b50565b5f81359050611a8e81611a6a565b92915050565b5f60208284031215611aa957611aa8611a5d565b5b5f611ab684828501611a80565b91505092915050565b5f73ffffffffffffffffffffffffffffffffffffffff82169050919050565b5f611ae882611abf565b9050919050565b611af881611ade565b8114611b02575f5ffd5b50565b5f81359050611b1381611aef565b92915050565b5f60208284031215611b2e57611b2d611a5d565b5b5f611b3b84828501611b05565b91505092915050565b611b4d81611a61565b82525050565b5f602082019050611b665f830184611b44565b92915050565b5f604082019050611b7f5f830185611b44565b611b8c6020830184611b44565b9392505050565b611b9c81611ade565b82525050565b5f608082019050611bb55f830187611b93565b611bc26020830186611b44565b611bcf6040830185611b44565b611bdc6060830184611b44565b95945050505050565b5f8115159050919050565b611bf981611be5565b82525050565b5f608082019050611c125f830187611b93565b611c1f6020830186611b44565b611c2c6040830185611b44565b611c396060830184611bf0565b95945050505050565b5f82825260208201905092915050565b7f4368756120636f20686f7020646f6e67000000000000000000000000000000005f82015250565b5f611c86601083611c42565b9150611c9182611c52565b602082019050919050565b5f6020820190508181035f830152611cb381611c7a565b9050919050565b7f43686920636875206e686120686f6163206e67756f692074687565206d6f69205f8201527f636f20717579656e000000000000000000000000000000000000000000000000602082015250565b5f611d14602883611c42565b9150611d1f82611cba565b604082019050919050565b5f6020820190508181035f830152611d4181611d08565b9050919050565b7f4e487b71000000000000000000000000000000000000000000000000000000005f52601160045260245ffd5b5f611d7f82611a61565b9150611d8a83611a61565b9250828203905081811115611da257611da1611d48565b5b92915050565b7f4e487b71000000000000000000000000000000000000000000000000000000005f52601260045260245ffd5b5f611ddf82611a61565b9150611dea83611a61565b925082611dfa57611df9611da8565b5b828204905092915050565b5f611e0f82611a61565b9150611e1a83611a61565b9250828202611e2881611a61565b91508282048414831517611e3f57611e3e611d48565b5b5092915050565b5f81905092915050565b50565b5f611e5e5f83611e46565b9150611e6982611e50565b5f82019050919050565b5f611e7d82611e53565b9150819050919050565b7f43687579656e207469656e2074686174206261690000000000000000000000005f82015250565b5f611ebb601483611c42565b9150611ec682611e87565b602082019050919050565b5f6020820190508181035f830152611ee881611eaf565b9050919050565b5f611ef982611a61565b9150611f0483611a61565b9250828201905080821115611f1c57611f1b611d48565b5b92915050565b7f43686920636875206e6861206d6f692064756f6320727574207469656e0000005f82015250565b5f611f56601d83611c42565b9150611f6182611f22565b602082019050919050565b5f6020820190508181035f830152611f8381611f4a565b9050919050565b7f4368756120636f20686f7020646f6e6720686f70206c650000000000000000005f82015250565b5f611fbe601783611c42565b9150611fc982611f8a565b602082019050919050565b5f6020820190508181035f830152611feb81611fb2565b9050919050565b7f4e67756f692074687565206461207468616e6820746f616e20646179206475005f82015250565b5f612026601f83611c42565b915061203182611ff2565b602082019050919050565b5f6020820190508181035f8301526120538161201a565b9050919050565b7f4368756120636f207468616e67206e616f206d6f6920646520727574000000005f82015250565b5f61208e601c83611c42565b91506120998261205a565b602082019050919050565b5f6020820190508181035f8301526120bb81612082565b9050919050565b7f536f207468616e67206d756f6e20727574206c6f6e20686f6e20736f2074686f5f8201527f69206769616e20636f6e206c6169000000000000000000000000000000000000602082015250565b5f61211c602e83611c42565b9150612127826120c2565b604082019050919050565b5f6020820190508181035f83015261214981612110565b9050919050565b7f486f7020646f6e672064612064756f63206b79000000000000000000000000005f82015250565b5f612184601383611c42565b915061218f82612150565b602082019050919050565b5f6020820190508181035f8301526121b181612178565b9050919050565b7f436875206e6861206b686f6e6720746865207475206b790000000000000000005f82015250565b5f6121ec601783611c42565b91506121f7826121b8565b602082019050919050565b5f6020820190508181035f830152612219816121e0565b9050919050565b7f50686169206e6170206475207469656e2063686f20746f616e20626f206b79205f8201527f68616e0000000000000000000000000000000000000000000000000000000000602082015250565b5f61227a602383611c42565b915061228582612220565b604082019050919050565b5f6020820190508181035f8301526122a78161226e565b9050919050565b7f43686920636875206e6861206d6f692064756f632063686170206e68616e20675f8201527f69612068616e0000000000000000000000000000000000000000000000000000602082015250565b5f612308602683611c42565b9150612313826122ae565b604082019050919050565b5f6020820190508181035f830152612335816122fc565b9050919050565b7f4368756120636f2079657520636175206769612068616e0000000000000000005f82015250565b5f612370601783611c42565b915061237b8261233c565b602082019050919050565b5f6020820190508181035f83015261239d81612364565b9050919050565b7f436869206e67756f692074687565206d6f692064756f632072757420736f20645f8201527f7500000000000000000000000000000000000000000000000000000000000000602082015250565b5f6123fe602183611c42565b9150612409826123a4565b604082019050919050565b5f6020820190508181035f83015261242b816123f2565b9050919050565b7f536f207469656e2063616e20727574203e2030000000000000000000000000005f82015250565b5f612466601383611c42565b915061247182612432565b602082019050919050565b5f6020820190508181035f8301526124938161245a565b9050919050565b7f536f206475206b686f6e672064752064652074687563206869656e00000000005f82015250565b5f6124ce601b83611c42565b91506124d98261249a565b602082019050919050565b5f6020820190508181035f8301526124fb816124c2565b9050919050565b7f436869206e67756f69207468756520686f616320636875206e6861206d6f69205f8201527f64756f632078656d20736f206475000000000000000000000000000000000000602082015250565b5f61255c602e83611c42565b915061256782612502565b604082019050919050565b5f6020820190508181035f83015261258981612550565b9050919050565b7f436869206e67756f69207468756520686f616320636875206e6861206d6f69205f8201527f64756f632078656d2079657520636175206769612068616e0000000000000000602082015250565b5f6125ea603883611c42565b91506125f582612590565b604082019050919050565b5f6020820190508181035f830152612617816125de565b9050919050565b7f43686920636875206e686120686f6163206e67756f692074687565206d6f69205f8201527f64756f6320687579206769612068616e00000000000000000000000000000000602082015250565b5f612678603083611c42565b91506126838261261e565b604082019050919050565b5f6020820190508181035f8301526126a58161266c565b9050919050565b7f486f616e207469656e20746861742062616900000000000000000000000000005f82015250565b5f6126e0601283611c42565b91506126eb826126ac565b602082019050919050565b5f6020820190508181035f83015261270d816126d4565b9050919050565b7f436869206e67756f692074687565206d6f692064756f63206769612068616e005f82015250565b5f612748601f83611c42565b915061275382612714565b602082019050919050565b5f6020820190508181035f8301526127758161273c565b9050919050565b7f4461207175612074686f69206769616e2063686f2070686570206769612068615f8201527f6e00000000000000000000000000000000000000000000000000000000000000602082015250565b5f6127d6602183611c42565b91506127e18261277c565b604082019050919050565b5f6020820190508181035f830152612803816127ca565b9050919050565b7f50686169207468656d206974206e6861742031207468616e67000000000000005f82015250565b5f61283e601983611c42565b91506128498261280a565b602082019050919050565b5f6020820190508181035f83015261286b81612832565b9050919050565b7f536f20647520636f6e206c6169206b686f6e67206475206465206769612068615f8201527f6e00000000000000000000000000000000000000000000000000000000000000602082015250565b5f6128cc602183611c42565b91506128d782612872565b604082019050919050565b5f6020820190508181035f8301526128f9816128c0565b905091905056fea264697066735822122082fb9bba73f40ca822604cde627ac010ff3f7e7c71969459b74e5a5cc97a2b0164736f6c634300081e0033",
					"opcodes": "PUSH1 0x80 PUSH1 0x40 MSTORE CALLVALUE DUP1 ISZERO PUSH2 0xF JUMPI PUSH0 PUSH0 REVERT JUMPDEST POP PUSH1 0x40 MLOAD PUSH2 0x2BC2 CODESIZE SUB DUP1 PUSH2 0x2BC2 DUP4 CODECOPY DUP2 DUP2 ADD PUSH1 0x40 MSTORE DUP2 ADD SWAP1 PUSH2 0x31 SWAP2 SWAP1 PUSH2 0x161 JUMP JUMPDEST PUSH0 DUP3 GT PUSH2 0x73 JUMPI PUSH1 0x40 MLOAD PUSH32 0x8C379A000000000000000000000000000000000000000000000000000000000 DUP2 MSTORE PUSH1 0x4 ADD PUSH2 0x6A SWAP1 PUSH2 0x1F9 JUMP JUMPDEST PUSH1 0x40 MLOAD DUP1 SWAP2 SUB SWAP1 REVERT JUMPDEST PUSH0 DUP2 GT PUSH2 0xB5 JUMPI PUSH1 0x40 MLOAD PUSH32 0x8C379A000000000000000000000000000000000000000000000000000000000 DUP2 MSTORE PUSH1 0x4 ADD PUSH2 0xAC SWAP1 PUSH2 0x261 JUMP JUMPDEST PUSH1 0x40 MLOAD DUP1 SWAP2 SUB SWAP1 REVERT JUMPDEST CALLER PUSH0 PUSH0 ADD PUSH0 PUSH2 0x100 EXP DUP2 SLOAD DUP2 PUSH20 0xFFFFFFFFFFFFFFFFFFFFFFFFFFFFFFFFFFFFFFFF MUL NOT AND SWAP1 DUP4 PUSH20 0xFFFFFFFFFFFFFFFFFFFFFFFFFFFFFFFFFFFFFFFF AND MUL OR SWAP1 SSTORE POP DUP2 PUSH0 PUSH1 0x1 ADD DUP2 SWAP1 SSTORE POP DUP1 PUSH0 PUSH1 0x2 ADD DUP2 SWAP1 SSTORE POP PUSH0 PUSH0 PUSH1 0x3 ADD PUSH0 PUSH2 0x100 EXP DUP2 SLOAD DUP2 PUSH1 0xFF MUL NOT AND SWAP1 DUP4 ISZERO ISZERO MUL OR SWAP1 SSTORE POP POP POP PUSH2 0x27F JUMP JUMPDEST PUSH0 PUSH0 REVERT JUMPDEST PUSH0 DUP2 SWAP1 POP SWAP2 SWAP1 POP JUMP JUMPDEST PUSH2 0x140 DUP2 PUSH2 0x12E JUMP JUMPDEST DUP2 EQ PUSH2 0x14A JUMPI PUSH0 PUSH0 REVERT JUMPDEST POP JUMP JUMPDEST PUSH0 DUP2 MLOAD SWAP1 POP PUSH2 0x15B DUP2 PUSH2 0x137 JUMP JUMPDEST SWAP3 SWAP2 POP POP JUMP JUMPDEST PUSH0 PUSH0 PUSH1 0x40 DUP4 DUP6 SUB SLT ISZERO PUSH2 0x177 JUMPI PUSH2 0x176 PUSH2 0x12A JUMP JUMPDEST JUMPDEST PUSH0 PUSH2 0x184 DUP6 DUP3 DUP7 ADD PUSH2 0x14D JUMP JUMPDEST SWAP3 POP POP PUSH1 0x20 PUSH2 0x195 DUP6 DUP3 DUP7 ADD PUSH2 0x14D JUMP JUMPDEST SWAP2 POP POP SWAP3 POP SWAP3 SWAP1 POP JUMP JUMPDEST PUSH0 DUP3 DUP3 MSTORE PUSH1 0x20 DUP3 ADD SWAP1 POP SWAP3 SWAP2 POP POP JUMP JUMPDEST PUSH32 0x436869207068692068616E67207468616E672070686169203E20300000000000 PUSH0 DUP3 ADD MSTORE POP JUMP JUMPDEST PUSH0 PUSH2 0x1E3 PUSH1 0x1B DUP4 PUSH2 0x19F JUMP JUMPDEST SWAP2 POP PUSH2 0x1EE DUP3 PUSH2 0x1AF JUMP JUMPDEST PUSH1 0x20 DUP3 ADD SWAP1 POP SWAP2 SWAP1 POP JUMP JUMPDEST PUSH0 PUSH1 0x20 DUP3 ADD SWAP1 POP DUP2 DUP2 SUB PUSH0 DUP4 ADD MSTORE PUSH2 0x210 DUP2 PUSH2 0x1D7 JUMP JUMPDEST SWAP1 POP SWAP2 SWAP1 POP JUMP JUMPDEST PUSH32 0x54686F69206769616E20746875652070686169203E2030000000000000000000 PUSH0 DUP3 ADD MSTORE POP JUMP JUMPDEST PUSH0 PUSH2 0x24B PUSH1 0x17 DUP4 PUSH2 0x19F JUMP JUMPDEST SWAP2 POP PUSH2 0x256 DUP3 PUSH2 0x217 JUMP JUMPDEST PUSH1 0x20 DUP3 ADD SWAP1 POP SWAP2 SWAP1 POP JUMP JUMPDEST PUSH0 PUSH1 0x20 DUP3 ADD SWAP1 POP DUP2 DUP2 SUB PUSH0 DUP4 ADD MSTORE PUSH2 0x278 DUP2 PUSH2 0x23F JUMP JUMPDEST SWAP1 POP SWAP2 SWAP1 POP JUMP JUMPDEST PUSH2 0x2936 DUP1 PUSH2 0x28C PUSH0 CODECOPY PUSH0 RETURN INVALID PUSH1 0x80 PUSH1 0x40 MSTORE PUSH1 0x4 CALLDATASIZE LT PUSH2 0x9A JUMPI PUSH0 CALLDATALOAD PUSH1 0xE0 SHR DUP1 PUSH4 0xAE1A094C GT PUSH2 0x63 JUMPI DUP1 PUSH4 0xAE1A094C EQ PUSH2 0x100 JUMPI DUP1 PUSH4 0xBE68BB21 EQ PUSH2 0x13C JUMPI DUP1 PUSH4 0xDDCA361F EQ PUSH2 0x167 JUMPI DUP1 PUSH4 0xE6F869C3 EQ PUSH2 0x194 JUMPI DUP1 PUSH4 0xE89F62A6 EQ PUSH2 0x19E JUMPI DUP1 PUSH4 0xF17B93A8 EQ PUSH2 0x1BA JUMPI PUSH2 0x9A JUMP JUMPDEST DUP1 PUSH3 0x4EAD34 EQ PUSH2 0x9E JUMPI DUP1 PUSH4 0x185C8B8D EQ PUSH2 0xA8 JUMPI DUP1 PUSH4 0x619089D3 EQ PUSH2 0xC4 JUMPI DUP1 PUSH4 0x836B4790 EQ PUSH2 0xCE JUMPI DUP1 PUSH4 0x8770F889 EQ PUSH2 0xE4 JUMPI JUMPDEST PUSH0 PUSH0 REVERT JUMPDEST PUSH2 0xA6 PUSH2 0x1E7 JUMP JUMPDEST STOP JUMPDEST PUSH2 0xC2 PUSH1 0x4 DUP1 CALLDATASIZE SUB DUP2 ADD SWAP1 PUSH2 0xBD SWAP2 SWAP1 PUSH2 0x1A94 JUMP JUMPDEST PUSH2 0x665 JUMP JUMPDEST STOP JUMPDEST PUSH2 0xCC PUSH2 0x9C3 JUMP JUMPDEST STOP JUMPDEST CALLVALUE DUP1 ISZERO PUSH2 0xD9 JUMPI PUSH0 PUSH0 REVERT JUMPDEST POP PUSH2 0xE2 PUSH2 0xBF8 JUMP JUMPDEST STOP JUMPDEST PUSH2 0xFE PUSH1 0x4 DUP1 CALLDATASIZE SUB DUP2 ADD SWAP1 PUSH2 0xF9 SWAP2 SWAP1 PUSH2 0x1A94 JUMP JUMPDEST PUSH2 0xDF6 JUMP JUMPDEST STOP JUMPDEST CALLVALUE DUP1 ISZERO PUSH2 0x10B JUMPI PUSH0 PUSH0 REVERT JUMPDEST POP PUSH2 0x126 PUSH1 0x4 DUP1 CALLDATASIZE SUB DUP2 ADD SWAP1 PUSH2 0x121 SWAP2 SWAP1 PUSH2 0x1B19 JUMP JUMPDEST PUSH2 0x1117 JUMP JUMPDEST PUSH1 0x40 MLOAD PUSH2 0x133 SWAP2 SWAP1 PUSH2 0x1B53 JUMP JUMPDEST PUSH1 0x40 MLOAD DUP1 SWAP2 SUB SWAP1 RETURN JUMPDEST CALLVALUE DUP1 ISZERO PUSH2 0x147 JUMPI PUSH0 PUSH0 REVERT JUMPDEST POP PUSH2 0x150 PUSH2 0x1246 JUMP JUMPDEST PUSH1 0x40 MLOAD PUSH2 0x15E SWAP3 SWAP2 SWAP1 PUSH2 0x1B6C JUMP JUMPDEST PUSH1 0x40 MLOAD DUP1 SWAP2 SUB SWAP1 RETURN JUMPDEST CALLVALUE DUP1 ISZERO PUSH2 0x172 JUMPI PUSH0 PUSH0 REVERT JUMPDEST POP PUSH2 0x17B PUSH2 0x13DA JUMP JUMPDEST PUSH1 0x40 MLOAD PUSH2 0x18B SWAP5 SWAP4 SWAP3 SWAP2 SWAP1 PUSH2 0x1BA2 JUMP JUMPDEST PUSH1 0x40 MLOAD DUP1 SWAP2 SUB SWAP1 RETURN JUMPDEST PUSH2 0x19C PUSH2 0x1576 JUMP JUMPDEST STOP JUMPDEST PUSH2 0x1B8 PUSH1 0x4 DUP1 CALLDATASIZE SUB DUP2 ADD SWAP1 PUSH2 0x1B3 SWAP2 SWAP1 PUSH2 0x1A94 JUMP JUMPDEST PUSH2 0x17B7 JUMP JUMPDEST STOP JUMPDEST CALLVALUE DUP1 ISZERO PUSH2 0x1C5 JUMPI PUSH0 PUSH0 REVERT JUMPDEST POP PUSH2 0x1CE PUSH2 0x1A16 JUMP JUMPDEST PUSH1 0x40 MLOAD PUSH2 0x1DE SWAP5 SWAP4 SWAP3 SWAP2 SWAP1 PUSH2 0x1BFF JUMP JUMPDEST PUSH1 0x40 MLOAD DUP1 SWAP2 SUB SWAP1 RETURN JUMPDEST PUSH0 PUSH1 0x3 ADD PUSH0 SWAP1 SLOAD SWAP1 PUSH2 0x100 EXP SWAP1 DIV PUSH1 0xFF AND PUSH2 0x237 JUMPI PUSH1 0x40 MLOAD PUSH32 0x8C379A000000000000000000000000000000000000000000000000000000000 DUP2 MSTORE PUSH1 0x4 ADD PUSH2 0x22E SWAP1 PUSH2 0x1C9C JUMP JUMPDEST PUSH1 0x40 MLOAD DUP1 SWAP2 SUB SWAP1 REVERT JUMPDEST PUSH1 0x4 PUSH0 ADD PUSH0 SWAP1 SLOAD SWAP1 PUSH2 0x100 EXP SWAP1 DIV PUSH20 0xFFFFFFFFFFFFFFFFFFFFFFFFFFFFFFFFFFFFFFFF AND PUSH20 0xFFFFFFFFFFFFFFFFFFFFFFFFFFFFFFFFFFFFFFFF AND CALLER PUSH20 0xFFFFFFFFFFFFFFFFFFFFFFFFFFFFFFFFFFFFFFFF AND EQ DUP1 PUSH2 0x2E1 JUMPI POP PUSH0 PUSH0 ADD PUSH0 SWAP1 SLOAD SWAP1 PUSH2 0x100 EXP SWAP1 DIV PUSH20 0xFFFFFFFFFFFFFFFFFFFFFFFFFFFFFFFFFFFFFFFF AND PUSH20 0xFFFFFFFFFFFFFFFFFFFFFFFFFFFFFFFFFFFFFFFF AND CALLER PUSH20 0xFFFFFFFFFFFFFFFFFFFFFFFFFFFFFFFFFFFFFFFF AND EQ JUMPDEST PUSH2 0x320 JUMPI PUSH1 0x40 MLOAD PUSH32 0x8C379A000000000000000000000000000000000000000000000000000000000 DUP2 MSTORE PUSH1 0x4 ADD PUSH2 0x317 SWAP1 PUSH2 0x1D2A JUMP JUMPDEST PUSH1 0x40 MLOAD DUP1 SWAP2 SUB SWAP1 REVERT JUMPDEST PUSH0 PUSH1 0xA PUSH0 PUSH1 0x4 PUSH0 ADD PUSH0 SWAP1 SLOAD SWAP1 PUSH2 0x100 EXP SWAP1 DIV PUSH20 0xFFFFFFFFFFFFFFFFFFFFFFFFFFFFFFFFFFFFFFFF AND PUSH20 0xFFFFFFFFFFFFFFFFFFFFFFFFFFFFFFFFFFFFFFFF AND PUSH20 0xFFFFFFFFFFFFFFFFFFFFFFFFFFFFFFFFFFFFFFFF AND DUP2 MSTORE PUSH1 0x20 ADD SWAP1 DUP2 MSTORE PUSH1 0x20 ADD PUSH0 KECCAK256 SLOAD GT ISZERO PUSH2 0x5E8 JUMPI PUSH0 PUSH0 PUSH1 0x2 ADD SLOAD SWAP1 POP PUSH0 PUSH1 0xA PUSH1 0x4 PUSH1 0x1 ADD SLOAD TIMESTAMP PUSH2 0x3A4 SWAP2 SWAP1 PUSH2 0x1D75 JUMP JUMPDEST PUSH2 0x3AE SWAP2 SWAP1 PUSH2 0x1DD5 JUMP JUMPDEST SWAP1 POP DUP2 DUP2 GT ISZERO PUSH2 0x3BC JUMPI DUP2 SWAP1 POP JUMPDEST PUSH0 PUSH0 PUSH1 0x1 ADD SLOAD PUSH1 0x4 PUSH1 0x2 ADD SLOAD DUP4 PUSH2 0x3D3 SWAP2 SWAP1 PUSH2 0x1D75 JUMP JUMPDEST PUSH2 0x3DD SWAP2 SWAP1 PUSH2 0x1E05 JUMP JUMPDEST SWAP1 POP PUSH0 DUP2 PUSH1 0xA PUSH0 PUSH1 0x4 PUSH0 ADD PUSH0 SWAP1 SLOAD SWAP1 PUSH2 0x100 EXP SWAP1 DIV PUSH20 0xFFFFFFFFFFFFFFFFFFFFFFFFFFFFFFFFFFFFFFFF AND PUSH20 0xFFFFFFFFFFFFFFFFFFFFFFFFFFFFFFFFFFFFFFFF AND PUSH20 0xFFFFFFFFFFFFFFFFFFFFFFFFFFFFFFFFFFFFFFFF AND DUP2 MSTORE PUSH1 0x20 ADD SWAP1 DUP2 MSTORE PUSH1 0x20 ADD PUSH0 KECCAK256 SLOAD PUSH2 0x44C SWAP2 SWAP1 PUSH2 0x1D75 JUMP JUMPDEST SWAP1 POP PUSH0 DUP2 GT ISZERO PUSH2 0x500 JUMPI PUSH0 CALLER PUSH20 0xFFFFFFFFFFFFFFFFFFFFFFFFFFFFFFFFFFFFFFFF AND DUP3 PUSH1 0x40 MLOAD PUSH2 0x47B SWAP1 PUSH2 0x1E73 JUMP JUMPDEST PUSH0 PUSH1 0x40 MLOAD DUP1 DUP4 SUB DUP2 DUP6 DUP8 GAS CALL SWAP3 POP POP POP RETURNDATASIZE DUP1 PUSH0 DUP2 EQ PUSH2 0x4B5 JUMPI PUSH1 0x40 MLOAD SWAP2 POP PUSH1 0x1F NOT PUSH1 0x3F RETURNDATASIZE ADD AND DUP3 ADD PUSH1 0x40 MSTORE RETURNDATASIZE DUP3 MSTORE RETURNDATASIZE PUSH0 PUSH1 0x20 DUP5 ADD RETURNDATACOPY PUSH2 0x4BA JUMP JUMPDEST PUSH1 0x60 SWAP2 POP JUMPDEST POP POP SWAP1 POP DUP1 PUSH2 0x4FE JUMPI PUSH1 0x40 MLOAD PUSH32 0x8C379A000000000000000000000000000000000000000000000000000000000 DUP2 MSTORE PUSH1 0x4 ADD PUSH2 0x4F5 SWAP1 PUSH2 0x1ED1 JUMP JUMPDEST PUSH1 0x40 MLOAD DUP1 SWAP2 SUB SWAP1 REVERT JUMPDEST POP JUMPDEST PUSH0 DUP3 GT ISZERO PUSH2 0x57E JUMPI DUP2 PUSH1 0xA PUSH0 PUSH0 PUSH0 ADD PUSH0 SWAP1 SLOAD SWAP1 PUSH2 0x100 EXP SWAP1 DIV PUSH20 0xFFFFFFFFFFFFFFFFFFFFFFFFFFFFFFFFFFFFFFFF AND PUSH20 0xFFFFFFFFFFFFFFFFFFFFFFFFFFFFFFFFFFFFFFFF AND PUSH20 0xFFFFFFFFFFFFFFFFFFFFFFFFFFFFFFFFFFFFFFFF AND DUP2 MSTORE PUSH1 0x20 ADD SWAP1 DUP2 MSTORE PUSH1 0x20 ADD PUSH0 KECCAK256 PUSH0 DUP3 DUP3 SLOAD PUSH2 0x576 SWAP2 SWAP1 PUSH2 0x1EEF JUMP JUMPDEST SWAP3 POP POP DUP2 SWAP1 SSTORE POP JUMPDEST PUSH0 PUSH1 0xA PUSH0 PUSH1 0x4 PUSH0 ADD PUSH0 SWAP1 SLOAD SWAP1 PUSH2 0x100 EXP SWAP1 DIV PUSH20 0xFFFFFFFFFFFFFFFFFFFFFFFFFFFFFFFFFFFFFFFF AND PUSH20 0xFFFFFFFFFFFFFFFFFFFFFFFFFFFFFFFFFFFFFFFF AND PUSH20 0xFFFFFFFFFFFFFFFFFFFFFFFFFFFFFFFFFFFFFFFF AND DUP2 MSTORE PUSH1 0x20 ADD SWAP1 DUP2 MSTORE PUSH1 0x20 ADD PUSH0 KECCAK256 DUP2 SWAP1 SSTORE POP POP POP POP POP JUMPDEST PUSH0 PUSH0 PUSH1 0x3 ADD PUSH0 PUSH2 0x100 EXP DUP2 SLOAD DUP2 PUSH1 0xFF MUL NOT AND SWAP1 DUP4 ISZERO ISZERO MUL OR SWAP1 SSTORE POP PUSH0 PUSH1 0x4 PUSH0 ADD PUSH0 PUSH2 0x100 EXP DUP2 SLOAD DUP2 PUSH20 0xFFFFFFFFFFFFFFFFFFFFFFFFFFFFFFFFFFFFFFFF MUL NOT AND SWAP1 DUP4 PUSH20 0xFFFFFFFFFFFFFFFFFFFFFFFFFFFFFFFFFFFFFFFF AND MUL OR SWAP1 SSTORE POP PUSH0 PUSH1 0x4 PUSH1 0x1 ADD DUP2 SWAP1 SSTORE POP PUSH0 PUSH1 0x4 PUSH1 0x2 ADD DUP2 SWAP1 SSTORE POP PUSH0 PUSH1 0x4 PUSH1 0x3 ADD DUP2 SWAP1 SSTORE POP JUMP JUMPDEST PUSH0 PUSH0 ADD PUSH0 SWAP1 SLOAD SWAP1 PUSH2 0x100 EXP SWAP1 DIV PUSH20 0xFFFFFFFFFFFFFFFFFFFFFFFFFFFFFFFFFFFFFFFF AND PUSH20 0xFFFFFFFFFFFFFFFFFFFFFFFFFFFFFFFFFFFFFFFF AND CALLER PUSH20 0xFFFFFFFFFFFFFFFFFFFFFFFFFFFFFFFFFFFFFFFF AND EQ PUSH2 0x6F5 JUMPI PUSH1 0x40 MLOAD PUSH32 0x8C379A000000000000000000000000000000000000000000000000000000000 DUP2 MSTORE PUSH1 0x4 ADD PUSH2 0x6EC SWAP1 PUSH2 0x1F6C JUMP JUMPDEST PUSH1 0x40 MLOAD DUP1 SWAP2 SUB SWAP1 REVERT JUMPDEST PUSH0 PUSH1 0x3 ADD PUSH0 SWAP1 SLOAD SWAP1 PUSH2 0x100 EXP SWAP1 DIV PUSH1 0xFF AND PUSH2 0x745 JUMPI PUSH1 0x40 MLOAD PUSH32 0x8C379A000000000000000000000000000000000000000000000000000000000 DUP2 MSTORE PUSH1 0x4 ADD PUSH2 0x73C SWAP1 PUSH2 0x1FD4 JUMP JUMPDEST PUSH1 0x40 MLOAD DUP1 SWAP2 SUB SWAP1 REVERT JUMPDEST PUSH0 PUSH1 0x2 ADD SLOAD PUSH1 0x4 PUSH1 0x2 ADD SLOAD LT PUSH2 0x790 JUMPI PUSH1 0x40 MLOAD PUSH32 0x8C379A000000000000000000000000000000000000000000000000000000000 DUP2 MSTORE PUSH1 0x4 ADD PUSH2 0x787 SWAP1 PUSH2 0x203C JUMP JUMPDEST PUSH1 0x40 MLOAD DUP1 SWAP2 SUB SWAP1 REVERT JUMPDEST PUSH0 PUSH1 0xA PUSH1 0x4 PUSH1 0x1 ADD SLOAD TIMESTAMP PUSH2 0x7A4 SWAP2 SWAP1 PUSH2 0x1D75 JUMP JUMPDEST PUSH2 0x7AE SWAP2 SWAP1 PUSH2 0x1DD5 JUMP JUMPDEST SWAP1 POP PUSH0 DUP2 SWAP1 POP DUP3 DUP2 LT ISZERO PUSH2 0x7F7 JUMPI PUSH1 0x40 MLOAD PUSH32 0x8C379A000000000000000000000000000000000000000000000000000000000 DUP2 MSTORE PUSH1 0x4 ADD PUSH2 0x7EE SWAP1 PUSH2 0x20A4 JUMP JUMPDEST PUSH1 0x40 MLOAD DUP1 SWAP2 SUB SWAP1 REVERT JUMPDEST DUP3 PUSH1 0x4 PUSH1 0x2 ADD SLOAD PUSH0 PUSH1 0x2 ADD SLOAD PUSH2 0x80D SWAP2 SWAP1 PUSH2 0x1D75 JUMP JUMPDEST LT ISZERO PUSH2 0x84E JUMPI PUSH1 0x40 MLOAD PUSH32 0x8C379A000000000000000000000000000000000000000000000000000000000 DUP2 MSTORE PUSH1 0x4 ADD PUSH2 0x845 SWAP1 PUSH2 0x2132 JUMP JUMPDEST PUSH1 0x40 MLOAD DUP1 SWAP2 SUB SWAP1 REVERT JUMPDEST PUSH0 PUSH0 PUSH1 0x1 ADD SLOAD DUP5 PUSH2 0x85F SWAP2 SWAP1 PUSH2 0x1E05 JUMP JUMPDEST SWAP1 POP DUP1 PUSH1 0xA PUSH0 PUSH1 0x4 PUSH0 ADD PUSH0 SWAP1 SLOAD SWAP1 PUSH2 0x100 EXP SWAP1 DIV PUSH20 0xFFFFFFFFFFFFFFFFFFFFFFFFFFFFFFFFFFFFFFFF AND PUSH20 0xFFFFFFFFFFFFFFFFFFFFFFFFFFFFFFFFFFFFFFFF AND PUSH20 0xFFFFFFFFFFFFFFFFFFFFFFFFFFFFFFFFFFFFFFFF AND DUP2 MSTORE PUSH1 0x20 ADD SWAP1 DUP2 MSTORE PUSH1 0x20 ADD PUSH0 KECCAK256 PUSH0 DUP3 DUP3 SLOAD PUSH2 0x8D0 SWAP2 SWAP1 PUSH2 0x1D75 JUMP JUMPDEST SWAP3 POP POP DUP2 SWAP1 SSTORE POP DUP4 PUSH1 0x4 PUSH1 0x2 ADD PUSH0 DUP3 DUP3 SLOAD PUSH2 0x8EB SWAP2 SWAP1 PUSH2 0x1EEF JUMP JUMPDEST SWAP3 POP POP DUP2 SWAP1 SSTORE POP PUSH0 PUSH0 PUSH0 ADD PUSH0 SWAP1 SLOAD SWAP1 PUSH2 0x100 EXP SWAP1 DIV PUSH20 0xFFFFFFFFFFFFFFFFFFFFFFFFFFFFFFFFFFFFFFFF AND PUSH20 0xFFFFFFFFFFFFFFFFFFFFFFFFFFFFFFFFFFFFFFFF AND DUP3 PUSH1 0x40 MLOAD PUSH2 0x939 SWAP1 PUSH2 0x1E73 JUMP JUMPDEST PUSH0 PUSH1 0x40 MLOAD DUP1 DUP4 SUB DUP2 DUP6 DUP8 GAS CALL SWAP3 POP POP POP RETURNDATASIZE DUP1 PUSH0 DUP2 EQ PUSH2 0x973 JUMPI PUSH1 0x40 MLOAD SWAP2 POP PUSH1 0x1F NOT PUSH1 0x3F RETURNDATASIZE ADD AND DUP3 ADD PUSH1 0x40 MSTORE RETURNDATASIZE DUP3 MSTORE RETURNDATASIZE PUSH0 PUSH1 0x20 DUP5 ADD RETURNDATACOPY PUSH2 0x978 JUMP JUMPDEST PUSH1 0x60 SWAP2 POP JUMPDEST POP POP SWAP1 POP DUP1 PUSH2 0x9BC JUMPI PUSH1 0x40 MLOAD PUSH32 0x8C379A000000000000000000000000000000000000000000000000000000000 DUP2 MSTORE PUSH1 0x4 ADD PUSH2 0x9B3 SWAP1 PUSH2 0x1ED1 JUMP JUMPDEST PUSH1 0x40 MLOAD DUP1 SWAP2 SUB SWAP1 REVERT JUMPDEST POP POP POP POP POP JUMP JUMPDEST PUSH0 PUSH1 0x3 ADD PUSH0 SWAP1 SLOAD SWAP1 PUSH2 0x100 EXP SWAP1 DIV PUSH1 0xFF AND ISZERO PUSH2 0xA14 JUMPI PUSH1 0x40 MLOAD PUSH32 0x8C379A000000000000000000000000000000000000000000000000000000000 DUP2 MSTORE PUSH1 0x4 ADD PUSH2 0xA0B SWAP1 PUSH2 0x219A JUMP JUMPDEST PUSH1 0x40 MLOAD DUP1 SWAP2 SUB SWAP1 REVERT JUMPDEST PUSH0 PUSH0 ADD PUSH0 SWAP1 SLOAD SWAP1 PUSH2 0x100 EXP SWAP1 DIV PUSH20 0xFFFFFFFFFFFFFFFFFFFFFFFFFFFFFFFFFFFFFFFF AND PUSH20 0xFFFFFFFFFFFFFFFFFFFFFFFFFFFFFFFFFFFFFFFF AND CALLER PUSH20 0xFFFFFFFFFFFFFFFFFFFFFFFFFFFFFFFFFFFFFFFF AND SUB PUSH2 0xAA4 JUMPI PUSH1 0x40 MLOAD PUSH32 0x8C379A000000000000000000000000000000000000000000000000000000000 DUP2 MSTORE PUSH1 0x4 ADD PUSH2 0xA9B SWAP1 PUSH2 0x2202 JUMP JUMPDEST PUSH1 0x40 MLOAD DUP1 SWAP2 SUB SWAP1 REVERT JUMPDEST PUSH0 PUSH1 0x2 ADD SLOAD PUSH0 PUSH1 0x1 ADD SLOAD PUSH2 0xAB8 SWAP2 SWAP1 PUSH2 0x1E05 JUMP JUMPDEST CALLVALUE LT ISZERO PUSH2 0xAFA JUMPI PUSH1 0x40 MLOAD PUSH32 0x8C379A000000000000000000000000000000000000000000000000000000000 DUP2 MSTORE PUSH1 0x4 ADD PUSH2 0xAF1 SWAP1 PUSH2 0x2290 JUMP JUMPDEST PUSH1 0x40 MLOAD DUP1 SWAP2 SUB SWAP1 REVERT JUMPDEST CALLER PUSH1 0x4 PUSH0 ADD PUSH0 PUSH2 0x100 EXP DUP2 SLOAD DUP2 PUSH20 0xFFFFFFFFFFFFFFFFFFFFFFFFFFFFFFFFFFFFFFFF MUL NOT AND SWAP1 DUP4 PUSH20 0xFFFFFFFFFFFFFFFFFFFFFFFFFFFFFFFFFFFFFFFF AND MUL OR SWAP1 SSTORE POP TIMESTAMP PUSH1 0x4 PUSH1 0x1 ADD DUP2 SWAP1 SSTORE POP PUSH0 PUSH1 0x4 PUSH1 0x2 ADD DUP2 SWAP1 SSTORE POP PUSH1 0xA PUSH0 PUSH1 0x2 ADD SLOAD PUSH2 0xB61 SWAP2 SWAP1 PUSH2 0x1E05 JUMP JUMPDEST TIMESTAMP PUSH2 0xB6C SWAP2 SWAP1 PUSH2 0x1EEF JUMP JUMPDEST PUSH1 0x4 PUSH1 0x3 ADD DUP2 SWAP1 SSTORE POP CALLVALUE PUSH1 0xA PUSH0 PUSH1 0x4 PUSH0 ADD PUSH0 SWAP1 SLOAD SWAP1 PUSH2 0x100 EXP SWAP1 DIV PUSH20 0xFFFFFFFFFFFFFFFFFFFFFFFFFFFFFFFFFFFFFFFF AND PUSH20 0xFFFFFFFFFFFFFFFFFFFFFFFFFFFFFFFFFFFFFFFF AND PUSH20 0xFFFFFFFFFFFFFFFFFFFFFFFFFFFFFFFFFFFFFFFF AND DUP2 MSTORE PUSH1 0x20 ADD SWAP1 DUP2 MSTORE PUSH1 0x20 ADD PUSH0 KECCAK256 DUP2 SWAP1 SSTORE POP PUSH1 0x1 PUSH0 PUSH1 0x3 ADD PUSH0 PUSH2 0x100 EXP DUP2 SLOAD DUP2 PUSH1 0xFF MUL NOT AND SWAP1 DUP4 ISZERO ISZERO MUL OR SWAP1 SSTORE POP JUMP JUMPDEST PUSH0 PUSH1 0x3 ADD PUSH0 SWAP1 SLOAD SWAP1 PUSH2 0x100 EXP SWAP1 DIV PUSH1 0xFF AND PUSH2 0xC48 JUMPI PUSH1 0x40 MLOAD PUSH32 0x8C379A000000000000000000000000000000000000000000000000000000000 DUP2 MSTORE PUSH1 0x4 ADD PUSH2 0xC3F SWAP1 PUSH2 0x1C9C JUMP JUMPDEST PUSH1 0x40 MLOAD DUP1 SWAP2 SUB SWAP1 REVERT JUMPDEST PUSH0 PUSH0 ADD PUSH0 SWAP1 SLOAD SWAP1 PUSH2 0x100 EXP SWAP1 DIV PUSH20 0xFFFFFFFFFFFFFFFFFFFFFFFFFFFFFFFFFFFFFFFF AND PUSH20 0xFFFFFFFFFFFFFFFFFFFFFFFFFFFFFFFFFFFFFFFF AND CALLER PUSH20 0xFFFFFFFFFFFFFFFFFFFFFFFFFFFFFFFFFFFFFFFF AND EQ PUSH2 0xCD8 JUMPI PUSH1 0x40 MLOAD PUSH32 0x8C379A000000000000000000000000000000000000000000000000000000000 DUP2 MSTORE PUSH1 0x4 ADD PUSH2 0xCCF SWAP1 PUSH2 0x231E JUMP JUMPDEST PUSH1 0x40 MLOAD DUP1 SWAP2 SUB SWAP1 REVERT JUMPDEST PUSH0 PUSH1 0x8 PUSH0 ADD SLOAD GT PUSH2 0xD1E JUMPI PUSH1 0x40 MLOAD PUSH32 0x8C379A000000000000000000000000000000000000000000000000000000000 DUP2 MSTORE PUSH1 0x4 ADD PUSH2 0xD15 SWAP1 PUSH2 0x2386 JUMP JUMPDEST PUSH1 0x40 MLOAD DUP1 SWAP2 SUB SWAP1 REVERT JUMPDEST PUSH1 0xA PUSH1 0x8 PUSH0 ADD SLOAD PUSH2 0xD2F SWAP2 SWAP1 PUSH2 0x1E05 JUMP JUMPDEST PUSH1 0x4 PUSH1 0x3 ADD PUSH0 DUP3 DUP3 SLOAD PUSH2 0xD42 SWAP2 SWAP1 PUSH2 0x1EEF JUMP JUMPDEST SWAP3 POP POP DUP2 SWAP1 SSTORE POP PUSH1 0x8 PUSH0 ADD SLOAD PUSH0 PUSH1 0x2 ADD PUSH0 DUP3 DUP3 SLOAD PUSH2 0xD60 SWAP2 SWAP1 PUSH2 0x1EEF JUMP JUMPDEST SWAP3 POP POP DUP2 SWAP1 SSTORE POP PUSH1 0x8 PUSH1 0x1 ADD SLOAD PUSH1 0xA PUSH0 PUSH1 0x4 PUSH0 ADD PUSH0 SWAP1 SLOAD SWAP1 PUSH2 0x100 EXP SWAP1 DIV PUSH20 0xFFFFFFFFFFFFFFFFFFFFFFFFFFFFFFFFFFFFFFFF AND PUSH20 0xFFFFFFFFFFFFFFFFFFFFFFFFFFFFFFFFFFFFFFFF AND PUSH20 0xFFFFFFFFFFFFFFFFFFFFFFFFFFFFFFFFFFFFFFFF AND DUP2 MSTORE PUSH1 0x20 ADD SWAP1 DUP2 MSTORE PUSH1 0x20 ADD PUSH0 KECCAK256 PUSH0 DUP3 DUP3 SLOAD PUSH2 0xDDB SWAP2 SWAP1 PUSH2 0x1EEF JUMP JUMPDEST SWAP3 POP POP DUP2 SWAP1 SSTORE POP PUSH1 0x8 PUSH0 PUSH0 DUP3 ADD PUSH0 SWAP1 SSTORE PUSH1 0x1 DUP3 ADD PUSH0 SWAP1 SSTORE POP POP JUMP JUMPDEST PUSH1 0x4 PUSH0 ADD PUSH0 SWAP1 SLOAD SWAP1 PUSH2 0x100 EXP SWAP1 DIV PUSH20 0xFFFFFFFFFFFFFFFFFFFFFFFFFFFFFFFFFFFFFFFF AND PUSH20 0xFFFFFFFFFFFFFFFFFFFFFFFFFFFFFFFFFFFFFFFF AND CALLER PUSH20 0xFFFFFFFFFFFFFFFFFFFFFFFFFFFFFFFFFFFFFFFF AND EQ PUSH2 0xE87 JUMPI PUSH1 0x40 MLOAD PUSH32 0x8C379A000000000000000000000000000000000000000000000000000000000 DUP2 MSTORE PUSH1 0x4 ADD PUSH2 0xE7E SWAP1 PUSH2 0x2414 JUMP JUMPDEST PUSH1 0x40 MLOAD DUP1 SWAP2 SUB SWAP1 REVERT JUMPDEST PUSH0 DUP2 GT PUSH2 0xEC9 JUMPI PUSH1 0x40 MLOAD PUSH32 0x8C379A000000000000000000000000000000000000000000000000000000000 DUP2 MSTORE PUSH1 0x4 ADD PUSH2 0xEC0 SWAP1 PUSH2 0x247C JUMP JUMPDEST PUSH1 0x40 MLOAD DUP1 SWAP2 SUB SWAP1 REVERT JUMPDEST PUSH0 PUSH1 0xA PUSH0 CALLER PUSH20 0xFFFFFFFFFFFFFFFFFFFFFFFFFFFFFFFFFFFFFFFF AND PUSH20 0xFFFFFFFFFFFFFFFFFFFFFFFFFFFFFFFFFFFFFFFF AND DUP2 MSTORE PUSH1 0x20 ADD SWAP1 DUP2 MSTORE PUSH1 0x20 ADD PUSH0 KECCAK256 SLOAD SWAP1 POP PUSH0 PUSH0 PUSH1 0x1 ADD SLOAD PUSH1 0x4 PUSH1 0x2 ADD SLOAD PUSH0 PUSH1 0x2 ADD SLOAD PUSH2 0xF25 SWAP2 SWAP1 PUSH2 0x1D75 JUMP JUMPDEST PUSH2 0xF2F SWAP2 SWAP1 PUSH2 0x1E05 JUMP JUMPDEST SWAP1 POP DUP1 DUP3 PUSH2 0xF3D SWAP2 SWAP1 PUSH2 0x1D75 JUMP JUMPDEST SWAP2 POP PUSH0 PUSH1 0x8 PUSH1 0x1 ADD SLOAD GT DUP1 ISZERO PUSH2 0xF6A JUMPI POP PUSH1 0x8 PUSH1 0x1 ADD SLOAD PUSH0 PUSH1 0x1 ADD SLOAD PUSH1 0x8 PUSH0 ADD SLOAD PUSH2 0xF68 SWAP2 SWAP1 PUSH2 0x1E05 JUMP JUMPDEST LT JUMPDEST ISZERO PUSH2 0xFC1 JUMPI PUSH0 PUSH1 0x8 PUSH1 0x1 ADD SLOAD PUSH0 PUSH1 0x1 ADD SLOAD PUSH1 0x8 PUSH0 ADD SLOAD PUSH2 0xF8A SWAP2 SWAP1 PUSH2 0x1E05 JUMP JUMPDEST PUSH2 0xF94 SWAP2 SWAP1 PUSH2 0x1D75 JUMP JUMPDEST SWAP1 POP DUP1 DUP4 PUSH2 0xFA2 SWAP2 SWAP1 PUSH2 0x1D75 JUMP JUMPDEST SWAP3 POP DUP1 PUSH1 0x8 PUSH1 0x1 ADD PUSH0 DUP3 DUP3 SLOAD PUSH2 0xFB8 SWAP2 SWAP1 PUSH2 0x1EEF JUMP JUMPDEST SWAP3 POP POP DUP2 SWAP1 SSTORE POP POP JUMPDEST DUP3 DUP3 LT ISZERO PUSH2 0x1004 JUMPI PUSH1 0x40 MLOAD PUSH32 0x8C379A000000000000000000000000000000000000000000000000000000000 DUP2 MSTORE PUSH1 0x4 ADD PUSH2 0xFFB SWAP1 PUSH2 0x24E4 JUMP JUMPDEST PUSH1 0x40 MLOAD DUP1 SWAP2 SUB SWAP1 REVERT JUMPDEST PUSH0 CALLER PUSH20 0xFFFFFFFFFFFFFFFFFFFFFFFFFFFFFFFFFFFFFFFF AND DUP4 PUSH1 0x40 MLOAD PUSH2 0x1029 SWAP1 PUSH2 0x1E73 JUMP JUMPDEST PUSH0 PUSH1 0x40 MLOAD DUP1 DUP4 SUB DUP2 DUP6 DUP8 GAS CALL SWAP3 POP POP POP RETURNDATASIZE DUP1 PUSH0 DUP2 EQ PUSH2 0x1063 JUMPI PUSH1 0x40 MLOAD SWAP2 POP PUSH1 0x1F NOT PUSH1 0x3F RETURNDATASIZE ADD AND DUP3 ADD PUSH1 0x40 MSTORE RETURNDATASIZE DUP3 MSTORE RETURNDATASIZE PUSH0 PUSH1 0x20 DUP5 ADD RETURNDATACOPY PUSH2 0x1068 JUMP JUMPDEST PUSH1 0x60 SWAP2 POP JUMPDEST POP POP SWAP1 POP DUP1 PUSH2 0x10AC JUMPI PUSH1 0x40 MLOAD PUSH32 0x8C379A000000000000000000000000000000000000000000000000000000000 DUP2 MSTORE PUSH1 0x4 ADD PUSH2 0x10A3 SWAP1 PUSH2 0x1ED1 JUMP JUMPDEST PUSH1 0x40 MLOAD DUP1 SWAP2 SUB SWAP1 REVERT JUMPDEST DUP2 PUSH1 0xA PUSH0 PUSH1 0x4 PUSH0 ADD PUSH0 SWAP1 SLOAD SWAP1 PUSH2 0x100 EXP SWAP1 DIV PUSH20 0xFFFFFFFFFFFFFFFFFFFFFFFFFFFFFFFFFFFFFFFF AND PUSH20 0xFFFFFFFFFFFFFFFFFFFFFFFFFFFFFFFFFFFFFFFF AND PUSH20 0xFFFFFFFFFFFFFFFFFFFFFFFFFFFFFFFFFFFFFFFF AND DUP2 MSTORE PUSH1 0x20 ADD SWAP1 DUP2 MSTORE PUSH1 0x20 ADD PUSH0 KECCAK256 DUP2 SWAP1 SSTORE POP POP POP POP POP JUMP JUMPDEST PUSH0 PUSH1 0x4 PUSH0 ADD PUSH0 SWAP1 SLOAD SWAP1 PUSH2 0x100 EXP SWAP1 DIV PUSH20 0xFFFFFFFFFFFFFFFFFFFFFFFFFFFFFFFFFFFFFFFF AND PUSH20 0xFFFFFFFFFFFFFFFFFFFFFFFFFFFFFFFFFFFFFFFF AND CALLER PUSH20 0xFFFFFFFFFFFFFFFFFFFFFFFFFFFFFFFFFFFFFFFF AND EQ DUP1 PUSH2 0x11C2 JUMPI POP PUSH0 PUSH0 ADD PUSH0 SWAP1 SLOAD SWAP1 PUSH2 0x100 EXP SWAP1 DIV PUSH20 0xFFFFFFFFFFFFFFFFFFFFFFFFFFFFFFFFFFFFFFFF AND PUSH20 0xFFFFFFFFFFFFFFFFFFFFFFFFFFFFFFFFFFFFFFFF AND CALLER PUSH20 0xFFFFFFFFFFFFFFFFFFFFFFFFFFFFFFFFFFFFFFFF AND EQ JUMPDEST PUSH2 0x1201 JUMPI PUSH1 0x40 MLOAD PUSH32 0x8C379A000000000000000000000000000000000000000000000000000000000 DUP2 MSTORE PUSH1 0x4 ADD PUSH2 0x11F8 SWAP1 PUSH2 0x2572 JUMP JUMPDEST PUSH1 0x40 MLOAD DUP1 SWAP2 SUB SWAP1 REVERT JUMPDEST PUSH1 0xA PUSH0 DUP4 PUSH20 0xFFFFFFFFFFFFFFFFFFFFFFFFFFFFFFFFFFFFFFFF AND PUSH20 0xFFFFFFFFFFFFFFFFFFFFFFFFFFFFFFFFFFFFFFFF AND DUP2 MSTORE PUSH1 0x20 ADD SWAP1 DUP2 MSTORE PUSH1 0x20 ADD PUSH0 KECCAK256 SLOAD SWAP1 POP SWAP2 SWAP1 POP JUMP JUMPDEST PUSH0 PUSH0 PUSH0 PUSH1 0x3 ADD PUSH0 SWAP1 SLOAD SWAP1 PUSH2 0x100 EXP SWAP1 DIV PUSH1 0xFF AND PUSH2 0x1298 JUMPI PUSH1 0x40 MLOAD PUSH32 0x8C379A000000000000000000000000000000000000000000000000000000000 DUP2 MSTORE PUSH1 0x4 ADD PUSH2 0x128F SWAP1 PUSH2 0x1C9C JUMP JUMPDEST PUSH1 0x40 MLOAD DUP1 SWAP2 SUB SWAP1 REVERT JUMPDEST PUSH1 0x4 PUSH0 ADD PUSH0 SWAP1 SLOAD SWAP1 PUSH2 0x100 EXP SWAP1 DIV PUSH20 0xFFFFFFFFFFFFFFFFFFFFFFFFFFFFFFFFFFFFFFFF AND PUSH20 0xFFFFFFFFFFFFFFFFFFFFFFFFFFFFFFFFFFFFFFFF AND CALLER PUSH20 0xFFFFFFFFFFFFFFFFFFFFFFFFFFFFFFFFFFFFFFFF AND EQ DUP1 PUSH2 0x1342 JUMPI POP PUSH0 PUSH0 ADD PUSH0 SWAP1 SLOAD SWAP1 PUSH2 0x100 EXP SWAP1 DIV PUSH20 0xFFFFFFFFFFFFFFFFFFFFFFFFFFFFFFFFFFFFFFFF AND PUSH20 0xFFFFFFFFFFFFFFFFFFFFFFFFFFFFFFFFFFFFFFFF AND CALLER PUSH20 0xFFFFFFFFFFFFFFFFFFFFFFFFFFFFFFFFFFFFFFFF AND EQ JUMPDEST PUSH2 0x1381 JUMPI PUSH1 0x40 MLOAD PUSH32 0x8C379A000000000000000000000000000000000000000000000000000000000 DUP2 MSTORE PUSH1 0x4 ADD PUSH2 0x1378 SWAP1 PUSH2 0x2600 JUMP JUMPDEST PUSH1 0x40 MLOAD DUP1 SWAP2 SUB SWAP1 REVERT JUMPDEST PUSH0 PUSH1 0x8 PUSH0 ADD SLOAD GT PUSH2 0x13C7 JUMPI PUSH1 0x40 MLOAD PUSH32 0x8C379A000000000000000000000000000000000000000000000000000000000 DUP2 MSTORE PUSH1 0x4 ADD PUSH2 0x13BE SWAP1 PUSH2 0x2386 JUMP JUMPDEST PUSH1 0x40 MLOAD DUP1 SWAP2 SUB SWAP1 REVERT JUMPDEST PUSH1 0x8 PUSH0 ADD SLOAD PUSH1 0x8 PUSH1 0x1 ADD SLOAD SWAP2 POP SWAP2 POP SWAP1 SWAP2 JUMP JUMPDEST PUSH0 PUSH0 PUSH0 PUSH0 PUSH0 PUSH20 0xFFFFFFFFFFFFFFFFFFFFFFFFFFFFFFFFFFFFFFFF AND PUSH1 0x4 PUSH0 ADD PUSH0 SWAP1 SLOAD SWAP1 PUSH2 0x100 EXP SWAP1 DIV PUSH20 0xFFFFFFFFFFFFFFFFFFFFFFFFFFFFFFFFFFFFFFFF AND PUSH20 0xFFFFFFFFFFFFFFFFFFFFFFFFFFFFFFFFFFFFFFFF AND EQ DUP1 PUSH2 0x14E4 JUMPI POP PUSH0 PUSH0 ADD PUSH0 SWAP1 SLOAD SWAP1 PUSH2 0x100 EXP SWAP1 DIV PUSH20 0xFFFFFFFFFFFFFFFFFFFFFFFFFFFFFFFFFFFFFFFF AND PUSH20 0xFFFFFFFFFFFFFFFFFFFFFFFFFFFFFFFFFFFFFFFF AND CALLER PUSH20 0xFFFFFFFFFFFFFFFFFFFFFFFFFFFFFFFFFFFFFFFF AND EQ ISZERO DUP1 ISZERO PUSH2 0x14E3 JUMPI POP PUSH1 0x4 PUSH0 ADD PUSH0 SWAP1 SLOAD SWAP1 PUSH2 0x100 EXP SWAP1 DIV PUSH20 0xFFFFFFFFFFFFFFFFFFFFFFFFFFFFFFFFFFFFFFFF AND PUSH20 0xFFFFFFFFFFFFFFFFFFFFFFFFFFFFFFFFFFFFFFFF AND CALLER PUSH20 0xFFFFFFFFFFFFFFFFFFFFFFFFFFFFFFFFFFFFFFFF AND EQ ISZERO JUMPDEST JUMPDEST ISZERO PUSH2 0x1504 JUMPI PUSH0 PUSH1 0x4 PUSH1 0x1 ADD SLOAD PUSH1 0x4 PUSH1 0x2 ADD SLOAD PUSH0 SWAP4 POP SWAP4 POP SWAP4 POP SWAP4 POP PUSH2 0x1570 JUMP JUMPDEST PUSH0 PUSH0 SWAP1 POP PUSH1 0x4 PUSH1 0x3 ADD SLOAD TIMESTAMP LT ISZERO PUSH2 0x1535 JUMPI PUSH1 0xA TIMESTAMP PUSH1 0x4 PUSH1 0x3 ADD SLOAD PUSH2 0x1528 SWAP2 SWAP1 PUSH2 0x1D75 JUMP JUMPDEST PUSH2 0x1532 SWAP2 SWAP1 PUSH2 0x1DD5 JUMP JUMPDEST SWAP1 POP JUMPDEST PUSH1 0x4 PUSH0 ADD PUSH0 SWAP1 SLOAD SWAP1 PUSH2 0x100 EXP SWAP1 DIV PUSH20 0xFFFFFFFFFFFFFFFFFFFFFFFFFFFFFFFFFFFFFFFF AND PUSH1 0x4 PUSH1 0x1 ADD SLOAD PUSH1 0x4 PUSH1 0x2 ADD SLOAD DUP4 SWAP5 POP SWAP5 POP SWAP5 POP SWAP5 POP POP JUMPDEST SWAP1 SWAP2 SWAP3 SWAP4 JUMP JUMPDEST PUSH0 PUSH1 0x3 ADD PUSH0 SWAP1 SLOAD SWAP1 PUSH2 0x100 EXP SWAP1 DIV PUSH1 0xFF AND PUSH2 0x15C6 JUMPI PUSH1 0x40 MLOAD PUSH32 0x8C379A000000000000000000000000000000000000000000000000000000000 DUP2 MSTORE PUSH1 0x4 ADD PUSH2 0x15BD SWAP1 PUSH2 0x1C9C JUMP JUMPDEST PUSH1 0x40 MLOAD DUP1 SWAP2 SUB SWAP1 REVERT JUMPDEST PUSH0 PUSH0 ADD PUSH0 SWAP1 SLOAD SWAP1 PUSH2 0x100 EXP SWAP1 DIV PUSH20 0xFFFFFFFFFFFFFFFFFFFFFFFFFFFFFFFFFFFFFFFF AND PUSH20 0xFFFFFFFFFFFFFFFFFFFFFFFFFFFFFFFFFFFFFFFF AND CALLER PUSH20 0xFFFFFFFFFFFFFFFFFFFFFFFFFFFFFFFFFFFFFFFF AND EQ DUP1 PUSH2 0x1670 JUMPI POP PUSH1 0x4 PUSH0 ADD PUSH0 SWAP1 SLOAD SWAP1 PUSH2 0x100 EXP SWAP1 DIV PUSH20 0xFFFFFFFFFFFFFFFFFFFFFFFFFFFFFFFFFFFFFFFF AND PUSH20 0xFFFFFFFFFFFFFFFFFFFFFFFFFFFFFFFFFFFFFFFF AND CALLER PUSH20 0xFFFFFFFFFFFFFFFFFFFFFFFFFFFFFFFFFFFFFFFF AND EQ JUMPDEST PUSH2 0x16AF JUMPI PUSH1 0x40 MLOAD PUSH32 0x8C379A000000000000000000000000000000000000000000000000000000000 DUP2 MSTORE PUSH1 0x4 ADD PUSH2 0x16A6 SWAP1 PUSH2 0x268E JUMP JUMPDEST PUSH1 0x40 MLOAD DUP1 SWAP2 SUB SWAP1 REVERT JUMPDEST PUSH0 PUSH1 0x8 PUSH0 ADD SLOAD GT PUSH2 0x16F5 JUMPI PUSH1 0x40 MLOAD PUSH32 0x8C379A000000000000000000000000000000000000000000000000000000000 DUP2 MSTORE PUSH1 0x4 ADD PUSH2 0x16EC SWAP1 PUSH2 0x2386 JUMP JUMPDEST PUSH1 0x40 MLOAD DUP1 SWAP2 SUB SWAP1 REVERT JUMPDEST PUSH0 CALLER PUSH20 0xFFFFFFFFFFFFFFFFFFFFFFFFFFFFFFFFFFFFFFFF AND PUSH1 0x8 PUSH1 0x1 ADD SLOAD PUSH1 0x40 MLOAD PUSH2 0x171F SWAP1 PUSH2 0x1E73 JUMP JUMPDEST PUSH0 PUSH1 0x40 MLOAD DUP1 DUP4 SUB DUP2 DUP6 DUP8 GAS CALL SWAP3 POP POP POP RETURNDATASIZE DUP1 PUSH0 DUP2 EQ PUSH2 0x1759 JUMPI PUSH1 0x40 MLOAD SWAP2 POP PUSH1 0x1F NOT PUSH1 0x3F RETURNDATASIZE ADD AND DUP3 ADD PUSH1 0x40 MSTORE RETURNDATASIZE DUP3 MSTORE RETURNDATASIZE PUSH0 PUSH1 0x20 DUP5 ADD RETURNDATACOPY PUSH2 0x175E JUMP JUMPDEST PUSH1 0x60 SWAP2 POP JUMPDEST POP POP SWAP1 POP DUP1 PUSH2 0x17A2 JUMPI PUSH1 0x40 MLOAD PUSH32 0x8C379A000000000000000000000000000000000000000000000000000000000 DUP2 MSTORE PUSH1 0x4 ADD PUSH2 0x1799 SWAP1 PUSH2 0x26F6 JUMP JUMPDEST PUSH1 0x40 MLOAD DUP1 SWAP2 SUB SWAP1 REVERT JUMPDEST PUSH1 0x8 PUSH0 PUSH0 DUP3 ADD PUSH0 SWAP1 SSTORE PUSH1 0x1 DUP3 ADD PUSH0 SWAP1 SSTORE POP POP POP JUMP JUMPDEST PUSH0 PUSH1 0x3 ADD PUSH0 SWAP1 SLOAD SWAP1 PUSH2 0x100 EXP SWAP1 DIV PUSH1 0xFF AND PUSH2 0x1807 JUMPI PUSH1 0x40 MLOAD PUSH32 0x8C379A000000000000000000000000000000000000000000000000000000000 DUP2 MSTORE PUSH1 0x4 ADD PUSH2 0x17FE SWAP1 PUSH2 0x1C9C JUMP JUMPDEST PUSH1 0x40 MLOAD DUP1 SWAP2 SUB SWAP1 REVERT JUMPDEST PUSH1 0x4 PUSH0 ADD PUSH0 SWAP1 SLOAD SWAP1 PUSH2 0x100 EXP SWAP1 DIV PUSH20 0xFFFFFFFFFFFFFFFFFFFFFFFFFFFFFFFFFFFFFFFF AND PUSH20 0xFFFFFFFFFFFFFFFFFFFFFFFFFFFFFFFFFFFFFFFF AND CALLER PUSH20 0xFFFFFFFFFFFFFFFFFFFFFFFFFFFFFFFFFFFFFFFF AND EQ PUSH2 0x1898 JUMPI PUSH1 0x40 MLOAD PUSH32 0x8C379A000000000000000000000000000000000000000000000000000000000 DUP2 MSTORE PUSH1 0x4 ADD PUSH2 0x188F SWAP1 PUSH2 0x275E JUMP JUMPDEST PUSH1 0x40 MLOAD DUP1 SWAP2 SUB SWAP1 REVERT JUMPDEST PUSH1 0x5 PUSH1 0x4 PUSH1 0x3 ADD SLOAD PUSH2 0x18AA SWAP2 SWAP1 PUSH2 0x1EEF JUMP JUMPDEST TIMESTAMP GT ISZERO PUSH2 0x18EC JUMPI PUSH1 0x40 MLOAD PUSH32 0x8C379A000000000000000000000000000000000000000000000000000000000 DUP2 MSTORE PUSH1 0x4 ADD PUSH2 0x18E3 SWAP1 PUSH2 0x27EC JUMP JUMPDEST PUSH1 0x40 MLOAD DUP1 SWAP2 SUB SWAP1 REVERT JUMPDEST PUSH0 DUP2 GT PUSH2 0x192E JUMPI PUSH1 0x40 MLOAD PUSH32 0x8C379A000000000000000000000000000000000000000000000000000000000 DUP2 MSTORE PUSH1 0x4 ADD PUSH2 0x1925 SWAP1 PUSH2 0x2854 JUMP JUMPDEST PUSH1 0x40 MLOAD DUP1 SWAP2 SUB SWAP1 REVERT JUMPDEST PUSH0 PUSH1 0x1 ADD SLOAD PUSH1 0x4 PUSH1 0x2 ADD SLOAD PUSH0 PUSH1 0x2 ADD SLOAD DUP4 PUSH2 0x1949 SWAP2 SWAP1 PUSH2 0x1EEF JUMP JUMPDEST PUSH2 0x1953 SWAP2 SWAP1 PUSH2 0x1D75 JUMP JUMPDEST PUSH2 0x195D SWAP2 SWAP1 PUSH2 0x1E05 JUMP JUMPDEST CALLVALUE PUSH1 0xA PUSH0 CALLER PUSH20 0xFFFFFFFFFFFFFFFFFFFFFFFFFFFFFFFFFFFFFFFF AND PUSH20 0xFFFFFFFFFFFFFFFFFFFFFFFFFFFFFFFFFFFFFFFF AND DUP2 MSTORE PUSH1 0x20 ADD SWAP1 DUP2 MSTORE PUSH1 0x20 ADD PUSH0 KECCAK256 SLOAD PUSH2 0x19A6 SWAP2 SWAP1 PUSH2 0x1EEF JUMP JUMPDEST LT ISZERO PUSH2 0x19E7 JUMPI PUSH1 0x40 MLOAD PUSH32 0x8C379A000000000000000000000000000000000000000000000000000000000 DUP2 MSTORE PUSH1 0x4 ADD PUSH2 0x19DE SWAP1 PUSH2 0x28E2 JUMP JUMPDEST PUSH1 0x40 MLOAD DUP1 SWAP2 SUB SWAP1 REVERT JUMPDEST PUSH1 0x40 MLOAD DUP1 PUSH1 0x40 ADD PUSH1 0x40 MSTORE DUP1 DUP3 DUP2 MSTORE PUSH1 0x20 ADD CALLVALUE DUP2 MSTORE POP PUSH1 0x8 PUSH0 DUP3 ADD MLOAD DUP2 PUSH0 ADD SSTORE PUSH1 0x20 DUP3 ADD MLOAD DUP2 PUSH1 0x1 ADD SSTORE SWAP1 POP POP POP JUMP JUMPDEST PUSH0 DUP1 PUSH0 ADD PUSH0 SWAP1 SLOAD SWAP1 PUSH2 0x100 EXP SWAP1 DIV PUSH20 0xFFFFFFFFFFFFFFFFFFFFFFFFFFFFFFFFFFFFFFFF AND SWAP1 DUP1 PUSH1 0x1 ADD SLOAD SWAP1 DUP1 PUSH1 0x2 ADD SLOAD SWAP1 DUP1 PUSH1 0x3 ADD PUSH0 SWAP1 SLOAD SWAP1 PUSH2 0x100 EXP SWAP1 DIV PUSH1 0xFF AND SWAP1 POP DUP5 JUMP JUMPDEST PUSH0 PUSH0 REVERT JUMPDEST PUSH0 DUP2 SWAP1 POP SWAP2 SWAP1 POP JUMP JUMPDEST PUSH2 0x1A73 DUP2 PUSH2 0x1A61 JUMP JUMPDEST DUP2 EQ PUSH2 0x1A7D JUMPI PUSH0 PUSH0 REVERT JUMPDEST POP JUMP JUMPDEST PUSH0 DUP2 CALLDATALOAD SWAP1 POP PUSH2 0x1A8E DUP2 PUSH2 0x1A6A JUMP JUMPDEST SWAP3 SWAP2 POP POP JUMP JUMPDEST PUSH0 PUSH1 0x20 DUP3 DUP5 SUB SLT ISZERO PUSH2 0x1AA9 JUMPI PUSH2 0x1AA8 PUSH2 0x1A5D JUMP JUMPDEST JUMPDEST PUSH0 PUSH2 0x1AB6 DUP5 DUP3 DUP6 ADD PUSH2 0x1A80 JUMP JUMPDEST SWAP2 POP POP SWAP3 SWAP2 POP POP JUMP JUMPDEST PUSH0 PUSH20 0xFFFFFFFFFFFFFFFFFFFFFFFFFFFFFFFFFFFFFFFF DUP3 AND SWAP1 POP SWAP2 SWAP1 POP JUMP JUMPDEST PUSH0 PUSH2 0x1AE8 DUP3 PUSH2 0x1ABF JUMP JUMPDEST SWAP1 POP SWAP2 SWAP1 POP JUMP JUMPDEST PUSH2 0x1AF8 DUP2 PUSH2 0x1ADE JUMP JUMPDEST DUP2 EQ PUSH2 0x1B02 JUMPI PUSH0 PUSH0 REVERT JUMPDEST POP JUMP JUMPDEST PUSH0 DUP2 CALLDATALOAD SWAP1 POP PUSH2 0x1B13 DUP2 PUSH2 0x1AEF JUMP JUMPDEST SWAP3 SWAP2 POP POP JUMP JUMPDEST PUSH0 PUSH1 0x20 DUP3 DUP5 SUB SLT ISZERO PUSH2 0x1B2E JUMPI PUSH2 0x1B2D PUSH2 0x1A5D JUMP JUMPDEST JUMPDEST PUSH0 PUSH2 0x1B3B DUP5 DUP3 DUP6 ADD PUSH2 0x1B05 JUMP JUMPDEST SWAP2 POP POP SWAP3 SWAP2 POP POP JUMP JUMPDEST PUSH2 0x1B4D DUP2 PUSH2 0x1A61 JUMP JUMPDEST DUP3 MSTORE POP POP JUMP JUMPDEST PUSH0 PUSH1 0x20 DUP3 ADD SWAP1 POP PUSH2 0x1B66 PUSH0 DUP4 ADD DUP5 PUSH2 0x1B44 JUMP JUMPDEST SWAP3 SWAP2 POP POP JUMP JUMPDEST PUSH0 PUSH1 0x40 DUP3 ADD SWAP1 POP PUSH2 0x1B7F PUSH0 DUP4 ADD DUP6 PUSH2 0x1B44 JUMP JUMPDEST PUSH2 0x1B8C PUSH1 0x20 DUP4 ADD DUP5 PUSH2 0x1B44 JUMP JUMPDEST SWAP4 SWAP3 POP POP POP JUMP JUMPDEST PUSH2 0x1B9C DUP2 PUSH2 0x1ADE JUMP JUMPDEST DUP3 MSTORE POP POP JUMP JUMPDEST PUSH0 PUSH1 0x80 DUP3 ADD SWAP1 POP PUSH2 0x1BB5 PUSH0 DUP4 ADD DUP8 PUSH2 0x1B93 JUMP JUMPDEST PUSH2 0x1BC2 PUSH1 0x20 DUP4 ADD DUP7 PUSH2 0x1B44 JUMP JUMPDEST PUSH2 0x1BCF PUSH1 0x40 DUP4 ADD DUP6 PUSH2 0x1B44 JUMP JUMPDEST PUSH2 0x1BDC PUSH1 0x60 DUP4 ADD DUP5 PUSH2 0x1B44 JUMP JUMPDEST SWAP6 SWAP5 POP POP POP POP POP JUMP JUMPDEST PUSH0 DUP2 ISZERO ISZERO SWAP1 POP SWAP2 SWAP1 POP JUMP JUMPDEST PUSH2 0x1BF9 DUP2 PUSH2 0x1BE5 JUMP JUMPDEST DUP3 MSTORE POP POP JUMP JUMPDEST PUSH0 PUSH1 0x80 DUP3 ADD SWAP1 POP PUSH2 0x1C12 PUSH0 DUP4 ADD DUP8 PUSH2 0x1B93 JUMP JUMPDEST PUSH2 0x1C1F PUSH1 0x20 DUP4 ADD DUP7 PUSH2 0x1B44 JUMP JUMPDEST PUSH2 0x1C2C PUSH1 0x40 DUP4 ADD DUP6 PUSH2 0x1B44 JUMP JUMPDEST PUSH2 0x1C39 PUSH1 0x60 DUP4 ADD DUP5 PUSH2 0x1BF0 JUMP JUMPDEST SWAP6 SWAP5 POP POP POP POP POP JUMP JUMPDEST PUSH0 DUP3 DUP3 MSTORE PUSH1 0x20 DUP3 ADD SWAP1 POP SWAP3 SWAP2 POP POP JUMP JUMPDEST PUSH32 0x4368756120636F20686F7020646F6E6700000000000000000000000000000000 PUSH0 DUP3 ADD MSTORE POP JUMP JUMPDEST PUSH0 PUSH2 0x1C86 PUSH1 0x10 DUP4 PUSH2 0x1C42 JUMP JUMPDEST SWAP2 POP PUSH2 0x1C91 DUP3 PUSH2 0x1C52 JUMP JUMPDEST PUSH1 0x20 DUP3 ADD SWAP1 POP SWAP2 SWAP1 POP JUMP JUMPDEST PUSH0 PUSH1 0x20 DUP3 ADD SWAP1 POP DUP2 DUP2 SUB PUSH0 DUP4 ADD MSTORE PUSH2 0x1CB3 DUP2 PUSH2 0x1C7A JUMP JUMPDEST SWAP1 POP SWAP2 SWAP1 POP JUMP JUMPDEST PUSH32 0x43686920636875206E686120686F6163206E67756F692074687565206D6F6920 PUSH0 DUP3 ADD MSTORE PUSH32 0x636F20717579656E000000000000000000000000000000000000000000000000 PUSH1 0x20 DUP3 ADD MSTORE POP JUMP JUMPDEST PUSH0 PUSH2 0x1D14 PUSH1 0x28 DUP4 PUSH2 0x1C42 JUMP JUMPDEST SWAP2 POP PUSH2 0x1D1F DUP3 PUSH2 0x1CBA JUMP JUMPDEST PUSH1 0x40 DUP3 ADD SWAP1 POP SWAP2 SWAP1 POP JUMP JUMPDEST PUSH0 PUSH1 0x20 DUP3 ADD SWAP1 POP DUP2 DUP2 SUB PUSH0 DUP4 ADD MSTORE PUSH2 0x1D41 DUP2 PUSH2 0x1D08 JUMP JUMPDEST SWAP1 POP SWAP2 SWAP1 POP JUMP JUMPDEST PUSH32 0x4E487B7100000000000000000000000000000000000000000000000000000000 PUSH0 MSTORE PUSH1 0x11 PUSH1 0x4 MSTORE PUSH1 0x24 PUSH0 REVERT JUMPDEST PUSH0 PUSH2 0x1D7F DUP3 PUSH2 0x1A61 JUMP JUMPDEST SWAP2 POP PUSH2 0x1D8A DUP4 PUSH2 0x1A61 JUMP JUMPDEST SWAP3 POP DUP3 DUP3 SUB SWAP1 POP DUP2 DUP2 GT ISZERO PUSH2 0x1DA2 JUMPI PUSH2 0x1DA1 PUSH2 0x1D48 JUMP JUMPDEST JUMPDEST SWAP3 SWAP2 POP POP JUMP JUMPDEST PUSH32 0x4E487B7100000000000000000000000000000000000000000000000000000000 PUSH0 MSTORE PUSH1 0x12 PUSH1 0x4 MSTORE PUSH1 0x24 PUSH0 REVERT JUMPDEST PUSH0 PUSH2 0x1DDF DUP3 PUSH2 0x1A61 JUMP JUMPDEST SWAP2 POP PUSH2 0x1DEA DUP4 PUSH2 0x1A61 JUMP JUMPDEST SWAP3 POP DUP3 PUSH2 0x1DFA JUMPI PUSH2 0x1DF9 PUSH2 0x1DA8 JUMP JUMPDEST JUMPDEST DUP3 DUP3 DIV SWAP1 POP SWAP3 SWAP2 POP POP JUMP JUMPDEST PUSH0 PUSH2 0x1E0F DUP3 PUSH2 0x1A61 JUMP JUMPDEST SWAP2 POP PUSH2 0x1E1A DUP4 PUSH2 0x1A61 JUMP JUMPDEST SWAP3 POP DUP3 DUP3 MUL PUSH2 0x1E28 DUP2 PUSH2 0x1A61 JUMP JUMPDEST SWAP2 POP DUP3 DUP3 DIV DUP5 EQ DUP4 ISZERO OR PUSH2 0x1E3F JUMPI PUSH2 0x1E3E PUSH2 0x1D48 JUMP JUMPDEST JUMPDEST POP SWAP3 SWAP2 POP POP JUMP JUMPDEST PUSH0 DUP2 SWAP1 POP SWAP3 SWAP2 POP POP JUMP JUMPDEST POP JUMP JUMPDEST PUSH0 PUSH2 0x1E5E PUSH0 DUP4 PUSH2 0x1E46 JUMP JUMPDEST SWAP2 POP PUSH2 0x1E69 DUP3 PUSH2 0x1E50 JUMP JUMPDEST PUSH0 DUP3 ADD SWAP1 POP SWAP2 SWAP1 POP JUMP JUMPDEST PUSH0 PUSH2 0x1E7D DUP3 PUSH2 0x1E53 JUMP JUMPDEST SWAP2 POP DUP2 SWAP1 POP SWAP2 SWAP1 POP JUMP JUMPDEST PUSH32 0x43687579656E207469656E207468617420626169000000000000000000000000 PUSH0 DUP3 ADD MSTORE POP JUMP JUMPDEST PUSH0 PUSH2 0x1EBB PUSH1 0x14 DUP4 PUSH2 0x1C42 JUMP JUMPDEST SWAP2 POP PUSH2 0x1EC6 DUP3 PUSH2 0x1E87 JUMP JUMPDEST PUSH1 0x20 DUP3 ADD SWAP1 POP SWAP2 SWAP1 POP JUMP JUMPDEST PUSH0 PUSH1 0x20 DUP3 ADD SWAP1 POP DUP2 DUP2 SUB PUSH0 DUP4 ADD MSTORE PUSH2 0x1EE8 DUP2 PUSH2 0x1EAF JUMP JUMPDEST SWAP1 POP SWAP2 SWAP1 POP JUMP JUMPDEST PUSH0 PUSH2 0x1EF9 DUP3 PUSH2 0x1A61 JUMP JUMPDEST SWAP2 POP PUSH2 0x1F04 DUP4 PUSH2 0x1A61 JUMP JUMPDEST SWAP3 POP DUP3 DUP3 ADD SWAP1 POP DUP1 DUP3 GT ISZERO PUSH2 0x1F1C JUMPI PUSH2 0x1F1B PUSH2 0x1D48 JUMP JUMPDEST JUMPDEST SWAP3 SWAP2 POP POP JUMP JUMPDEST PUSH32 0x43686920636875206E6861206D6F692064756F6320727574207469656E000000 PUSH0 DUP3 ADD MSTORE POP JUMP JUMPDEST PUSH0 PUSH2 0x1F56 PUSH1 0x1D DUP4 PUSH2 0x1C42 JUMP JUMPDEST SWAP2 POP PUSH2 0x1F61 DUP3 PUSH2 0x1F22 JUMP JUMPDEST PUSH1 0x20 DUP3 ADD SWAP1 POP SWAP2 SWAP1 POP JUMP JUMPDEST PUSH0 PUSH1 0x20 DUP3 ADD SWAP1 POP DUP2 DUP2 SUB PUSH0 DUP4 ADD MSTORE PUSH2 0x1F83 DUP2 PUSH2 0x1F4A JUMP JUMPDEST SWAP1 POP SWAP2 SWAP1 POP JUMP JUMPDEST PUSH32 0x4368756120636F20686F7020646F6E6720686F70206C65000000000000000000 PUSH0 DUP3 ADD MSTORE POP JUMP JUMPDEST PUSH0 PUSH2 0x1FBE PUSH1 0x17 DUP4 PUSH2 0x1C42 JUMP JUMPDEST SWAP2 POP PUSH2 0x1FC9 DUP3 PUSH2 0x1F8A JUMP JUMPDEST PUSH1 0x20 DUP3 ADD SWAP1 POP SWAP2 SWAP1 POP JUMP JUMPDEST PUSH0 PUSH1 0x20 DUP3 ADD SWAP1 POP DUP2 DUP2 SUB PUSH0 DUP4 ADD MSTORE PUSH2 0x1FEB DUP2 PUSH2 0x1FB2 JUMP JUMPDEST SWAP1 POP SWAP2 SWAP1 POP JUMP JUMPDEST PUSH32 0x4E67756F692074687565206461207468616E6820746F616E2064617920647500 PUSH0 DUP3 ADD MSTORE POP JUMP JUMPDEST PUSH0 PUSH2 0x2026 PUSH1 0x1F DUP4 PUSH2 0x1C42 JUMP JUMPDEST SWAP2 POP PUSH2 0x2031 DUP3 PUSH2 0x1FF2 JUMP JUMPDEST PUSH1 0x20 DUP3 ADD SWAP1 POP SWAP2 SWAP1 POP JUMP JUMPDEST PUSH0 PUSH1 0x20 DUP3 ADD SWAP1 POP DUP2 DUP2 SUB PUSH0 DUP4 ADD MSTORE PUSH2 0x2053 DUP2 PUSH2 0x201A JUMP JUMPDEST SWAP1 POP SWAP2 SWAP1 POP JUMP JUMPDEST PUSH32 0x4368756120636F207468616E67206E616F206D6F692064652072757400000000 PUSH0 DUP3 ADD MSTORE POP JUMP JUMPDEST PUSH0 PUSH2 0x208E PUSH1 0x1C DUP4 PUSH2 0x1C42 JUMP JUMPDEST SWAP2 POP PUSH2 0x2099 DUP3 PUSH2 0x205A JUMP JUMPDEST PUSH1 0x20 DUP3 ADD SWAP1 POP SWAP2 SWAP1 POP JUMP JUMPDEST PUSH0 PUSH1 0x20 DUP3 ADD SWAP1 POP DUP2 DUP2 SUB PUSH0 DUP4 ADD MSTORE PUSH2 0x20BB DUP2 PUSH2 0x2082 JUMP JUMPDEST SWAP1 POP SWAP2 SWAP1 POP JUMP JUMPDEST PUSH32 0x536F207468616E67206D756F6E20727574206C6F6E20686F6E20736F2074686F PUSH0 DUP3 ADD MSTORE PUSH32 0x69206769616E20636F6E206C6169000000000000000000000000000000000000 PUSH1 0x20 DUP3 ADD MSTORE POP JUMP JUMPDEST PUSH0 PUSH2 0x211C PUSH1 0x2E DUP4 PUSH2 0x1C42 JUMP JUMPDEST SWAP2 POP PUSH2 0x2127 DUP3 PUSH2 0x20C2 JUMP JUMPDEST PUSH1 0x40 DUP3 ADD SWAP1 POP SWAP2 SWAP1 POP JUMP JUMPDEST PUSH0 PUSH1 0x20 DUP3 ADD SWAP1 POP DUP2 DUP2 SUB PUSH0 DUP4 ADD MSTORE PUSH2 0x2149 DUP2 PUSH2 0x2110 JUMP JUMPDEST SWAP1 POP SWAP2 SWAP1 POP JUMP JUMPDEST PUSH32 0x486F7020646F6E672064612064756F63206B7900000000000000000000000000 PUSH0 DUP3 ADD MSTORE POP JUMP JUMPDEST PUSH0 PUSH2 0x2184 PUSH1 0x13 DUP4 PUSH2 0x1C42 JUMP JUMPDEST SWAP2 POP PUSH2 0x218F DUP3 PUSH2 0x2150 JUMP JUMPDEST PUSH1 0x20 DUP3 ADD SWAP1 POP SWAP2 SWAP1 POP JUMP JUMPDEST PUSH0 PUSH1 0x20 DUP3 ADD SWAP1 POP DUP2 DUP2 SUB PUSH0 DUP4 ADD MSTORE PUSH2 0x21B1 DUP2 PUSH2 0x2178 JUMP JUMPDEST SWAP1 POP SWAP2 SWAP1 POP JUMP JUMPDEST PUSH32 0x436875206E6861206B686F6E6720746865207475206B79000000000000000000 PUSH0 DUP3 ADD MSTORE POP JUMP JUMPDEST PUSH0 PUSH2 0x21EC PUSH1 0x17 DUP4 PUSH2 0x1C42 JUMP JUMPDEST SWAP2 POP PUSH2 0x21F7 DUP3 PUSH2 0x21B8 JUMP JUMPDEST PUSH1 0x20 DUP3 ADD SWAP1 POP SWAP2 SWAP1 POP JUMP JUMPDEST PUSH0 PUSH1 0x20 DUP3 ADD SWAP1 POP DUP2 DUP2 SUB PUSH0 DUP4 ADD MSTORE PUSH2 0x2219 DUP2 PUSH2 0x21E0 JUMP JUMPDEST SWAP1 POP SWAP2 SWAP1 POP JUMP JUMPDEST PUSH32 0x50686169206E6170206475207469656E2063686F20746F616E20626F206B7920 PUSH0 DUP3 ADD MSTORE PUSH32 0x68616E0000000000000000000000000000000000000000000000000000000000 PUSH1 0x20 DUP3 ADD MSTORE POP JUMP JUMPDEST PUSH0 PUSH2 0x227A PUSH1 0x23 DUP4 PUSH2 0x1C42 JUMP JUMPDEST SWAP2 POP PUSH2 0x2285 DUP3 PUSH2 0x2220 JUMP JUMPDEST PUSH1 0x40 DUP3 ADD SWAP1 POP SWAP2 SWAP1 POP JUMP JUMPDEST PUSH0 PUSH1 0x20 DUP3 ADD SWAP1 POP DUP2 DUP2 SUB PUSH0 DUP4 ADD MSTORE PUSH2 0x22A7 DUP2 PUSH2 0x226E JUMP JUMPDEST SWAP1 POP SWAP2 SWAP1 POP JUMP JUMPDEST PUSH32 0x43686920636875206E6861206D6F692064756F632063686170206E68616E2067 PUSH0 DUP3 ADD MSTORE PUSH32 0x69612068616E0000000000000000000000000000000000000000000000000000 PUSH1 0x20 DUP3 ADD MSTORE POP JUMP JUMPDEST PUSH0 PUSH2 0x2308 PUSH1 0x26 DUP4 PUSH2 0x1C42 JUMP JUMPDEST SWAP2 POP PUSH2 0x2313 DUP3 PUSH2 0x22AE JUMP JUMPDEST PUSH1 0x40 DUP3 ADD SWAP1 POP SWAP2 SWAP1 POP JUMP JUMPDEST PUSH0 PUSH1 0x20 DUP3 ADD SWAP1 POP DUP2 DUP2 SUB PUSH0 DUP4 ADD MSTORE PUSH2 0x2335 DUP2 PUSH2 0x22FC JUMP JUMPDEST SWAP1 POP SWAP2 SWAP1 POP JUMP JUMPDEST PUSH32 0x4368756120636F2079657520636175206769612068616E000000000000000000 PUSH0 DUP3 ADD MSTORE POP JUMP JUMPDEST PUSH0 PUSH2 0x2370 PUSH1 0x17 DUP4 PUSH2 0x1C42 JUMP JUMPDEST SWAP2 POP PUSH2 0x237B DUP3 PUSH2 0x233C JUMP JUMPDEST PUSH1 0x20 DUP3 ADD SWAP1 POP SWAP2 SWAP1 POP JUMP JUMPDEST PUSH0 PUSH1 0x20 DUP3 ADD SWAP1 POP DUP2 DUP2 SUB PUSH0 DUP4 ADD MSTORE PUSH2 0x239D DUP2 PUSH2 0x2364 JUMP JUMPDEST SWAP1 POP SWAP2 SWAP1 POP JUMP JUMPDEST PUSH32 0x436869206E67756F692074687565206D6F692064756F632072757420736F2064 PUSH0 DUP3 ADD MSTORE PUSH32 0x7500000000000000000000000000000000000000000000000000000000000000 PUSH1 0x20 DUP3 ADD MSTORE POP JUMP JUMPDEST PUSH0 PUSH2 0x23FE PUSH1 0x21 DUP4 PUSH2 0x1C42 JUMP JUMPDEST SWAP2 POP PUSH2 0x2409 DUP3 PUSH2 0x23A4 JUMP JUMPDEST PUSH1 0x40 DUP3 ADD SWAP1 POP SWAP2 SWAP1 POP JUMP JUMPDEST PUSH0 PUSH1 0x20 DUP3 ADD SWAP1 POP DUP2 DUP2 SUB PUSH0 DUP4 ADD MSTORE PUSH2 0x242B DUP2 PUSH2 0x23F2 JUMP JUMPDEST SWAP1 POP SWAP2 SWAP1 POP JUMP JUMPDEST PUSH32 0x536F207469656E2063616E20727574203E203000000000000000000000000000 PUSH0 DUP3 ADD MSTORE POP JUMP JUMPDEST PUSH0 PUSH2 0x2466 PUSH1 0x13 DUP4 PUSH2 0x1C42 JUMP JUMPDEST SWAP2 POP PUSH2 0x2471 DUP3 PUSH2 0x2432 JUMP JUMPDEST PUSH1 0x20 DUP3 ADD SWAP1 POP SWAP2 SWAP1 POP JUMP JUMPDEST PUSH0 PUSH1 0x20 DUP3 ADD SWAP1 POP DUP2 DUP2 SUB PUSH0 DUP4 ADD MSTORE PUSH2 0x2493 DUP2 PUSH2 0x245A JUMP JUMPDEST SWAP1 POP SWAP2 SWAP1 POP JUMP JUMPDEST PUSH32 0x536F206475206B686F6E672064752064652074687563206869656E0000000000 PUSH0 DUP3 ADD MSTORE POP JUMP JUMPDEST PUSH0 PUSH2 0x24CE PUSH1 0x1B DUP4 PUSH2 0x1C42 JUMP JUMPDEST SWAP2 POP PUSH2 0x24D9 DUP3 PUSH2 0x249A JUMP JUMPDEST PUSH1 0x20 DUP3 ADD SWAP1 POP SWAP2 SWAP1 POP JUMP JUMPDEST PUSH0 PUSH1 0x20 DUP3 ADD SWAP1 POP DUP2 DUP2 SUB PUSH0 DUP4 ADD MSTORE PUSH2 0x24FB DUP2 PUSH2 0x24C2 JUMP JUMPDEST SWAP1 POP SWAP2 SWAP1 POP JUMP JUMPDEST PUSH32 0x436869206E67756F69207468756520686F616320636875206E6861206D6F6920 PUSH0 DUP3 ADD MSTORE PUSH32 0x64756F632078656D20736F206475000000000000000000000000000000000000 PUSH1 0x20 DUP3 ADD MSTORE POP JUMP JUMPDEST PUSH0 PUSH2 0x255C PUSH1 0x2E DUP4 PUSH2 0x1C42 JUMP JUMPDEST SWAP2 POP PUSH2 0x2567 DUP3 PUSH2 0x2502 JUMP JUMPDEST PUSH1 0x40 DUP3 ADD SWAP1 POP SWAP2 SWAP1 POP JUMP JUMPDEST PUSH0 PUSH1 0x20 DUP3 ADD SWAP1 POP DUP2 DUP2 SUB PUSH0 DUP4 ADD MSTORE PUSH2 0x2589 DUP2 PUSH2 0x2550 JUMP JUMPDEST SWAP1 POP SWAP2 SWAP1 POP JUMP JUMPDEST PUSH32 0x436869206E67756F69207468756520686F616320636875206E6861206D6F6920 PUSH0 DUP3 ADD MSTORE PUSH32 0x64756F632078656D2079657520636175206769612068616E0000000000000000 PUSH1 0x20 DUP3 ADD MSTORE POP JUMP JUMPDEST PUSH0 PUSH2 0x25EA PUSH1 0x38 DUP4 PUSH2 0x1C42 JUMP JUMPDEST SWAP2 POP PUSH2 0x25F5 DUP3 PUSH2 0x2590 JUMP JUMPDEST PUSH1 0x40 DUP3 ADD SWAP1 POP SWAP2 SWAP1 POP JUMP JUMPDEST PUSH0 PUSH1 0x20 DUP3 ADD SWAP1 POP DUP2 DUP2 SUB PUSH0 DUP4 ADD MSTORE PUSH2 0x2617 DUP2 PUSH2 0x25DE JUMP JUMPDEST SWAP1 POP SWAP2 SWAP1 POP JUMP JUMPDEST PUSH32 0x43686920636875206E686120686F6163206E67756F692074687565206D6F6920 PUSH0 DUP3 ADD MSTORE PUSH32 0x64756F6320687579206769612068616E00000000000000000000000000000000 PUSH1 0x20 DUP3 ADD MSTORE POP JUMP JUMPDEST PUSH0 PUSH2 0x2678 PUSH1 0x30 DUP4 PUSH2 0x1C42 JUMP JUMPDEST SWAP2 POP PUSH2 0x2683 DUP3 PUSH2 0x261E JUMP JUMPDEST PUSH1 0x40 DUP3 ADD SWAP1 POP SWAP2 SWAP1 POP JUMP JUMPDEST PUSH0 PUSH1 0x20 DUP3 ADD SWAP1 POP DUP2 DUP2 SUB PUSH0 DUP4 ADD MSTORE PUSH2 0x26A5 DUP2 PUSH2 0x266C JUMP JUMPDEST SWAP1 POP SWAP2 SWAP1 POP JUMP JUMPDEST PUSH32 0x486F616E207469656E2074686174206261690000000000000000000000000000 PUSH0 DUP3 ADD MSTORE POP JUMP JUMPDEST PUSH0 PUSH2 0x26E0 PUSH1 0x12 DUP4 PUSH2 0x1C42 JUMP JUMPDEST SWAP2 POP PUSH2 0x26EB DUP3 PUSH2 0x26AC JUMP JUMPDEST PUSH1 0x20 DUP3 ADD SWAP1 POP SWAP2 SWAP1 POP JUMP JUMPDEST PUSH0 PUSH1 0x20 DUP3 ADD SWAP1 POP DUP2 DUP2 SUB PUSH0 DUP4 ADD MSTORE PUSH2 0x270D DUP2 PUSH2 0x26D4 JUMP JUMPDEST SWAP1 POP SWAP2 SWAP1 POP JUMP JUMPDEST PUSH32 0x436869206E67756F692074687565206D6F692064756F63206769612068616E00 PUSH0 DUP3 ADD MSTORE POP JUMP JUMPDEST PUSH0 PUSH2 0x2748 PUSH1 0x1F DUP4 PUSH2 0x1C42 JUMP JUMPDEST SWAP2 POP PUSH2 0x2753 DUP3 PUSH2 0x2714 JUMP JUMPDEST PUSH1 0x20 DUP3 ADD SWAP1 POP SWAP2 SWAP1 POP JUMP JUMPDEST PUSH0 PUSH1 0x20 DUP3 ADD SWAP1 POP DUP2 DUP2 SUB PUSH0 DUP4 ADD MSTORE PUSH2 0x2775 DUP2 PUSH2 0x273C JUMP JUMPDEST SWAP1 POP SWAP2 SWAP1 POP JUMP JUMPDEST PUSH32 0x4461207175612074686F69206769616E2063686F207068657020676961206861 PUSH0 DUP3 ADD MSTORE PUSH32 0x6E00000000000000000000000000000000000000000000000000000000000000 PUSH1 0x20 DUP3 ADD MSTORE POP JUMP JUMPDEST PUSH0 PUSH2 0x27D6 PUSH1 0x21 DUP4 PUSH2 0x1C42 JUMP JUMPDEST SWAP2 POP PUSH2 0x27E1 DUP3 PUSH2 0x277C JUMP JUMPDEST PUSH1 0x40 DUP3 ADD SWAP1 POP SWAP2 SWAP1 POP JUMP JUMPDEST PUSH0 PUSH1 0x20 DUP3 ADD SWAP1 POP DUP2 DUP2 SUB PUSH0 DUP4 ADD MSTORE PUSH2 0x2803 DUP2 PUSH2 0x27CA JUMP JUMPDEST SWAP1 POP SWAP2 SWAP1 POP JUMP JUMPDEST PUSH32 0x50686169207468656D206974206E6861742031207468616E6700000000000000 PUSH0 DUP3 ADD MSTORE POP JUMP JUMPDEST PUSH0 PUSH2 0x283E PUSH1 0x19 DUP4 PUSH2 0x1C42 JUMP JUMPDEST SWAP2 POP PUSH2 0x2849 DUP3 PUSH2 0x280A JUMP JUMPDEST PUSH1 0x20 DUP3 ADD SWAP1 POP SWAP2 SWAP1 POP JUMP JUMPDEST PUSH0 PUSH1 0x20 DUP3 ADD SWAP1 POP DUP2 DUP2 SUB PUSH0 DUP4 ADD MSTORE PUSH2 0x286B DUP2 PUSH2 0x2832 JUMP JUMPDEST SWAP1 POP SWAP2 SWAP1 POP JUMP JUMPDEST PUSH32 0x536F20647520636F6E206C6169206B686F6E6720647520646520676961206861 PUSH0 DUP3 ADD MSTORE PUSH32 0x6E00000000000000000000000000000000000000000000000000000000000000 PUSH1 0x20 DUP3 ADD MSTORE POP JUMP JUMPDEST PUSH0 PUSH2 0x28CC PUSH1 0x21 DUP4 PUSH2 0x1C42 JUMP JUMPDEST SWAP2 POP PUSH2 0x28D7 DUP3 PUSH2 0x2872 JUMP JUMPDEST PUSH1 0x40 DUP3 ADD SWAP1 POP SWAP2 SWAP1 POP JUMP JUMPDEST PUSH0 PUSH1 0x20 DUP3 ADD SWAP1 POP DUP2 DUP2 SUB PUSH0 DUP4 ADD MSTORE PUSH2 0x28F9 DUP2 PUSH2 0x28C0 JUMP JUMPDEST SWAP1 POP SWAP2 SWAP1 POP JUMP INVALID LOG2 PUSH5 0x6970667358 0x22 SLT KECCAK256 DUP3 EXTSTATICCALL SWAP12 0xBA PUSH20 0xF40CA822604CDE627AC010FF3F7E7C71969459B7 0x4E GAS TLOAD 0xC9 PUSH27 0x2B0164736F6C634300081E00330000000000000000000000000000 "
				},
				"gasEstimates": {
					"creation": {
						"codeDepositCost": "2110000",
						"executionCost": "infinite",
						"totalCost": "infinite"
					},
					"external": {
						"chamDutHopDong()": "infinite",
						"chapNhanYeuCauGiaHan()": "infinite",
						"huyYeuCauGiaHan()": "infinite",
						"kyHopDong()": "infinite",
						"rutSoDu(uint256)": "infinite",
						"rutTien(uint256)": "infinite",
						"thongTinNha()": "infinite",
						"xemSoDu(address)": "7181",
						"xemTinhTrangThue()": "infinite",
						"xemYeuCauGiaHanHopDong()": "infinite",
						"yeuCauGiaHan(uint256)": "infinite"
					}
				},
				"methodIdentifiers": {
					"chamDutHopDong()": "004ead34",
					"chapNhanYeuCauGiaHan()": "836b4790",
					"huyYeuCauGiaHan()": "e6f869c3",
					"kyHopDong()": "619089d3",
					"rutSoDu(uint256)": "8770f889",
					"rutTien(uint256)": "185c8b8d",
					"thongTinNha()": "f17b93a8",
					"xemSoDu(address)": "ae1a094c",
					"xemTinhTrangThue()": "ddca361f",
					"xemYeuCauGiaHanHopDong()": "be68bb21",
					"yeuCauGiaHan(uint256)": "e89f62a6"
				}
			},
			"storageLayout": {
				"storage": [
					{
						"astId": 27,
						"contract": "contracts/RealEstate.sol:HopDongThueCanHo",
						"label": "thongTinNha",
						"offset": 0,
						"slot": "0",
						"type": "t_struct(ThongTinNha)10_storage"
					},
					{
						"astId": 30,
						"contract": "contracts/RealEstate.sol:HopDongThueCanHo",
						"label": "thongTinThue",
						"offset": 0,
						"slot": "4",
						"type": "t_struct(ThongTinThue)19_storage"
					},
					{
						"astId": 33,
						"contract": "contracts/RealEstate.sol:HopDongThueCanHo",
						"label": "deNghiGiaHan",
						"offset": 0,
						"slot": "8",
						"type": "t_struct(DeNghiGiaHan)24_storage"
					},
					{
						"astId": 37,
						"contract": "contracts/RealEstate.sol:HopDongThueCanHo",
						"label": "soDuTaiKhoan",
						"offset": 0,
						"slot": "10",
						"type": "t_mapping(t_address,t_uint256)"
					}
				],
				"types": {
					"t_address": {
						"encoding": "inplace",
						"label": "address",
						"numberOfBytes": "20"
					},
					"t_bool": {
						"encoding": "inplace",
						"label": "bool",
						"numberOfBytes": "1"
					},
					"t_mapping(t_address,t_uint256)": {
						"encoding": "mapping",
						"key": "t_address",
						"label": "mapping(address => uint256)",
						"numberOfBytes": "32",
						"value": "t_uint256"
					},
					"t_struct(DeNghiGiaHan)24_storage": {
						"encoding": "inplace",
						"label": "struct HopDongThueCanHo.DeNghiGiaHan",
						"members": [
							{
								"astId": 21,
								"contract": "contracts/RealEstate.sol:HopDongThueCanHo",
								"label": "soThangThem",
								"offset": 0,
								"slot": "0",
								"type": "t_uint256"
							},
							{
								"astId": 23,
								"contract": "contracts/RealEstate.sol:HopDongThueCanHo",
								"label": "soTienDaChuyen",
								"offset": 0,
								"slot": "1",
								"type": "t_uint256"
							}
						],
						"numberOfBytes": "64"
					},
					"t_struct(ThongTinNha)10_storage": {
						"encoding": "inplace",
						"label": "struct HopDongThueCanHo.ThongTinNha",
						"members": [
							{
								"astId": 3,
								"contract": "contracts/RealEstate.sol:HopDongThueCanHo",
								"label": "chuNha",
								"offset": 0,
								"slot": "0",
								"type": "t_address"
							},
							{
								"astId": 5,
								"contract": "contracts/RealEstate.sol:HopDongThueCanHo",
								"label": "chiPhiHangThang",
								"offset": 0,
								"slot": "1",
								"type": "t_uint256"
							},
							{
								"astId": 7,
								"contract": "contracts/RealEstate.sol:HopDongThueCanHo",
								"label": "thoiGianThueThang",
								"offset": 0,
								"slot": "2",
								"type": "t_uint256"
							},
							{
								"astId": 9,
								"contract": "contracts/RealEstate.sol:HopDongThueCanHo",
								"label": "hopDongDuocKy",
								"offset": 0,
								"slot": "3",
								"type": "t_bool"
							}
						],
						"numberOfBytes": "128"
					},
					"t_struct(ThongTinThue)19_storage": {
						"encoding": "inplace",
						"label": "struct HopDongThueCanHo.ThongTinThue",
						"members": [
							{
								"astId": 12,
								"contract": "contracts/RealEstate.sol:HopDongThueCanHo",
								"label": "nguoiThue",
								"offset": 0,
								"slot": "0",
								"type": "t_address"
							},
							{
								"astId": 14,
								"contract": "contracts/RealEstate.sol:HopDongThueCanHo",
								"label": "thoiDiemBatDau",
								"offset": 0,
								"slot": "1",
								"type": "t_uint256"
							},
							{
								"astId": 16,
								"contract": "contracts/RealEstate.sol:HopDongThueCanHo",
								"label": "soThangDaThanhToan",
								"offset": 0,
								"slot": "2",
								"type": "t_uint256"
							},
							{
								"astId": 18,
								"contract": "contracts/RealEstate.sol:HopDongThueCanHo",
								"label": "thoiDiemKetThuc",
								"offset": 0,
								"slot": "3",
								"type": "t_uint256"
							}
						],
						"numberOfBytes": "128"
					},
					"t_uint256": {
						"encoding": "inplace",
						"label": "uint256",
						"numberOfBytes": "32"
					}
				}
			},
			"userdoc": {
				"kind": "user",
				"methods": {},
				"version": 1
			}
		}
	}
}