{
	"data": {
		"bytecode": {
			"linkReferences": {},
			"object": "608060405234801561000f575f5ffd5b50604051611e85380380611e8583398181016040528101906100319190610161565b5f8211610073576040517f08c379a000000000000000000000000000000000000000000000000000000000815260040161006a906101f9565b60405180910390fd5b5f81116100b5576040517f08c379a00000000000000000000000000000000000000000000000000000000081526004016100ac90610261565b60405180910390fd5b335f5f015f6101000a81548173ffffffffffffffffffffffffffffffffffffffff021916908373ffffffffffffffffffffffffffffffffffffffff160217905550815f60010181905550805f600201819055505f5f6003015f6101000a81548160ff021916908315150217905550505061027f565b5f5ffd5b5f819050919050565b6101408161012e565b811461014a575f5ffd5b50565b5f8151905061015b81610137565b92915050565b5f5f604083850312156101775761017661012a565b5b5f6101848582860161014d565b92505060206101958582860161014d565b9150509250929050565b5f82825260208201905092915050565b7f436869207068692068616e67207468616e672070686169203e203000000000005f82015250565b5f6101e3601b8361019f565b91506101ee826101af565b602082019050919050565b5f6020820190508181035f830152610210816101d7565b9050919050565b7f54686f69206769616e20746875652070686169203e20300000000000000000005f82015250565b5f61024b60178361019f565b915061025682610217565b602082019050919050565b5f6020820190508181035f8301526102788161023f565b9050919050565b611bf98061028c5f395ff3fe60806040526004361061006e575f3560e01c8063b76501271161004d578063b7650127146100ba578063ddca361f146100d6578063f17b93a814610103578063f57967c0146101305761006e565b80624ead3414610072578063185c8b8d14610088578063619089d3146100b0575b5f5ffd5b34801561007d575f5ffd5b5061008661016c565b005b348015610093575f5ffd5b506100ae60048036038101906100a99190611114565b610581565b005b6100b8610992565b005b6100d460048036038101906100cf9190611114565b610bc7565b005b3480156100e1575f5ffd5b506100ea610ee5565b6040516100fa949392919061118d565b60405180910390f35b34801561010e575f5ffd5b50610117611081565b60405161012794939291906111ea565b60405180910390f35b34801561013b575f5ffd5b5061015660048036038101906101519190611257565b6110c8565b6040516101639190611282565b60405180910390f35b5f6003015f9054906101000a900460ff166101bc576040517f08c379a00000000000000000000000000000000000000000000000000000000081526004016101b3906112f5565b60405180910390fd5b60045f015f9054906101000a900473ffffffffffffffffffffffffffffffffffffffff1673ffffffffffffffffffffffffffffffffffffffff163373ffffffffffffffffffffffffffffffffffffffff16148061026657505f5f015f9054906101000a900473ffffffffffffffffffffffffffffffffffffffff1673ffffffffffffffffffffffffffffffffffffffff163373ffffffffffffffffffffffffffffffffffffffff16145b6102a5576040517f08c379a000000000000000000000000000000000000000000000000000000000815260040161029c90611383565b60405180910390fd5b5f5f6002015490505f600a600460010154426102c191906113ce565b6102cb919061142e565b9050818111156102d9578190505b5f5f60010154600460020154836102f091906113ce565b6102fa919061145e565b90505f8160085f60045f015f9054906101000a900473ffffffffffffffffffffffffffffffffffffffff1673ffffffffffffffffffffffffffffffffffffffff1673ffffffffffffffffffffffffffffffffffffffff1681526020019081526020015f205461036991906113ce565b90505f811115610482575f3373ffffffffffffffffffffffffffffffffffffffff1682604051610398906114cc565b5f6040518083038185875af1925050503d805f81146103d2576040519150601f19603f3d011682016040523d82523d5f602084013e6103d7565b606091505b505090508061041b576040517f08c379a00000000000000000000000000000000000000000000000000000000081526004016104129061152a565b60405180910390fd5b5f60085f60045f015f9054906101000a900473ffffffffffffffffffffffffffffffffffffffff1673ffffffffffffffffffffffffffffffffffffffff1673ffffffffffffffffffffffffffffffffffffffff1681526020019081526020015f2081905550505b5f821115610500578160085f5f5f015f9054906101000a900473ffffffffffffffffffffffffffffffffffffffff1673ffffffffffffffffffffffffffffffffffffffff1673ffffffffffffffffffffffffffffffffffffffff1681526020019081526020015f205f8282546104f89190611548565b925050819055505b5f5f6003015f6101000a81548160ff0219169083151502179055505f60045f015f6101000a81548173ffffffffffffffffffffffffffffffffffffffff021916908373ffffffffffffffffffffffffffffffffffffffff1602179055505f6004600101819055505f6004600201819055505f60046003018190555050505050565b5f5f015f9054906101000a900473ffffffffffffffffffffffffffffffffffffffff1673ffffffffffffffffffffffffffffffffffffffff163373ffffffffffffffffffffffffffffffffffffffff1614610611576040517f08c379a0000000000000000000000000000000000000000000000000000000008152600401610608906115c5565b60405180910390fd5b5f6003015f9054906101000a900460ff16610661576040517f08c379a00000000000000000000000000000000000000000000000000000000081526004016106589061162d565b60405180910390fd5b5f60020154600460020154106106ac576040517f08c379a00000000000000000000000000000000000000000000000000000000081526004016106a390611695565b60405180910390fd5b5f600a600460010154426106c091906113ce565b6106ca919061142e565b90505f81905082811015610713576040517f08c379a000000000000000000000000000000000000000000000000000000000815260040161070a906116fd565b60405180910390fd5b826004600201545f6002015461072991906113ce565b101561076a576040517f08c379a00000000000000000000000000000000000000000000000000000000081526004016107619061178b565b60405180910390fd5b5f5f600101548461077b919061145e565b90508060085f60045f015f9054906101000a900473ffffffffffffffffffffffffffffffffffffffff1673ffffffffffffffffffffffffffffffffffffffff1673ffffffffffffffffffffffffffffffffffffffff1681526020019081526020015f20541015610820576040517f08c379a0000000000000000000000000000000000000000000000000000000008152600401610817906117f3565b60405180910390fd5b8060085f60045f015f9054906101000a900473ffffffffffffffffffffffffffffffffffffffff1673ffffffffffffffffffffffffffffffffffffffff1673ffffffffffffffffffffffffffffffffffffffff1681526020019081526020015f205f82825461088f91906113ce565b925050819055508060085f5f5f015f9054906101000a900473ffffffffffffffffffffffffffffffffffffffff1673ffffffffffffffffffffffffffffffffffffffff1673ffffffffffffffffffffffffffffffffffffffff1681526020019081526020015f205f8282546109049190611548565b925050819055508360046002015f82825461091f9190611548565b925050819055505f5f015f9054906101000a900473ffffffffffffffffffffffffffffffffffffffff1673ffffffffffffffffffffffffffffffffffffffff166108fc8290811502906040515f60405180830381858888f1935050505015801561098b573d5f5f3e3d5ffd5b5050505050565b5f6003015f9054906101000a900460ff16156109e3576040517f08c379a00000000000000000000000000000000000000000000000000000000081526004016109da9061185b565b60405180910390fd5b5f5f015f9054906101000a900473ffffffffffffffffffffffffffffffffffffffff1673ffffffffffffffffffffffffffffffffffffffff163373ffffffffffffffffffffffffffffffffffffffff1603610a73576040517f08c379a0000000000000000000000000000000000000000000000000000000008152600401610a6a906118c3565b60405180910390fd5b5f600201545f60010154610a87919061145e565b341015610ac9576040517f08c379a0000000000000000000000000000000000000000000000000000000008152600401610ac090611951565b60405180910390fd5b3360045f015f6101000a81548173ffffffffffffffffffffffffffffffffffffffff021916908373ffffffffffffffffffffffffffffffffffffffff160217905550426004600101819055505f600460020181905550600a5f60020154610b30919061145e565b42610b3b9190611548565b6004600301819055503460085f60045f015f9054906101000a900473ffffffffffffffffffffffffffffffffffffffff1673ffffffffffffffffffffffffffffffffffffffff1673ffffffffffffffffffffffffffffffffffffffff1681526020019081526020015f208190555060015f6003015f6101000a81548160ff021916908315150217905550565b5f6003015f9054906101000a900460ff16610c17576040517f08c379a0000000000000000000000000000000000000000000000000000000008152600401610c0e906112f5565b60405180910390fd5b60045f015f9054906101000a900473ffffffffffffffffffffffffffffffffffffffff1673ffffffffffffffffffffffffffffffffffffffff163373ffffffffffffffffffffffffffffffffffffffff1614610ca8576040517f08c379a0000000000000000000000000000000000000000000000000000000008152600401610c9f906119b9565b60405180910390fd5b6005600460030154610cba9190611548565b421115610cfc576040517f08c379a0000000000000000000000000000000000000000000000000000000008152600401610cf390611a47565b60405180910390fd5b5f8111610d3e576040517f08c379a0000000000000000000000000000000000000000000000000000000008152600401610d3590611aaf565b60405180910390fd5b5f600101546004600201545f6002015483610d599190611548565b610d6391906113ce565b610d6d919061145e565b3460085f3373ffffffffffffffffffffffffffffffffffffffff1673ffffffffffffffffffffffffffffffffffffffff1681526020019081526020015f2054610db69190611548565b1015610df7576040517f08c379a0000000000000000000000000000000000000000000000000000000008152600401610dee90611b3d565b60405180910390fd5b5f815f60010154610e08919061145e565b905080341015610e4d576040517f08c379a0000000000000000000000000000000000000000000000000000000008152600401610e4490611ba5565b60405180910390fd5b600a82610e5a919061145e565b60046003015f828254610e6d9190611548565b92505081905550815f6002015f828254610e879190611548565b925050819055503460085f3373ffffffffffffffffffffffffffffffffffffffff1673ffffffffffffffffffffffffffffffffffffffff1681526020019081526020015f205f828254610eda9190611548565b925050819055505050565b5f5f5f5f5f73ffffffffffffffffffffffffffffffffffffffff1660045f015f9054906101000a900473ffffffffffffffffffffffffffffffffffffffff1673ffffffffffffffffffffffffffffffffffffffff161480610fef57505f5f015f9054906101000a900473ffffffffffffffffffffffffffffffffffffffff1673ffffffffffffffffffffffffffffffffffffffff163373ffffffffffffffffffffffffffffffffffffffff1614158015610fee575060045f015f9054906101000a900473ffffffffffffffffffffffffffffffffffffffff1673ffffffffffffffffffffffffffffffffffffffff163373ffffffffffffffffffffffffffffffffffffffff1614155b5b1561100f575f6004600101546004600201545f935093509350935061107b565b5f5f905060046003015442101561104057600a4260046003015461103391906113ce565b61103d919061142e565b90505b60045f015f9054906101000a900473ffffffffffffffffffffffffffffffffffffffff16600460010154600460020154839450945094509450505b90919293565b5f805f015f9054906101000a900473ffffffffffffffffffffffffffffffffffffffff1690806001015490806002015490806003015f9054906101000a900460ff16905084565b6008602052805f5260405f205f915090505481565b5f5ffd5b5f819050919050565b6110f3816110e1565b81146110fd575f5ffd5b50565b5f8135905061110e816110ea565b92915050565b5f60208284031215611129576111286110dd565b5b5f61113684828501611100565b91505092915050565b5f73ffffffffffffffffffffffffffffffffffffffff82169050919050565b5f6111688261113f565b9050919050565b6111788161115e565b82525050565b611187816110e1565b82525050565b5f6080820190506111a05f83018761116f565b6111ad602083018661117e565b6111ba604083018561117e565b6111c7606083018461117e565b95945050505050565b5f8115159050919050565b6111e4816111d0565b82525050565b5f6080820190506111fd5f83018761116f565b61120a602083018661117e565b611217604083018561117e565b61122460608301846111db565b95945050505050565b6112368161115e565b8114611240575f5ffd5b50565b5f813590506112518161122d565b92915050565b5f6020828403121561126c5761126b6110dd565b5b5f61127984828501611243565b91505092915050565b5f6020820190506112955f83018461117e565b92915050565b5f82825260208201905092915050565b7f4368756120636f20686f7020646f6e67000000000000000000000000000000005f82015250565b5f6112df60108361129b565b91506112ea826112ab565b602082019050919050565b5f6020820190508181035f83015261130c816112d3565b9050919050565b7f43686920636875206e686120686f6163206e67756f692074687565206d6f69205f8201527f636f20717579656e000000000000000000000000000000000000000000000000602082015250565b5f61136d60288361129b565b915061137882611313565b604082019050919050565b5f6020820190508181035f83015261139a81611361565b9050919050565b7f4e487b71000000000000000000000000000000000000000000000000000000005f52601160045260245ffd5b5f6113d8826110e1565b91506113e3836110e1565b92508282039050818111156113fb576113fa6113a1565b5b92915050565b7f4e487b71000000000000000000000000000000000000000000000000000000005f52601260045260245ffd5b5f611438826110e1565b9150611443836110e1565b92508261145357611452611401565b5b828204905092915050565b5f611468826110e1565b9150611473836110e1565b9250828202611481816110e1565b91508282048414831517611498576114976113a1565b5b5092915050565b5f81905092915050565b50565b5f6114b75f8361149f565b91506114c2826114a9565b5f82019050919050565b5f6114d6826114ac565b9150819050919050565b7f43687579656e207469656e2074686174206261690000000000000000000000005f82015250565b5f61151460148361129b565b915061151f826114e0565b602082019050919050565b5f6020820190508181035f83015261154181611508565b9050919050565b5f611552826110e1565b915061155d836110e1565b9250828201905080821115611575576115746113a1565b5b92915050565b7f43686920636875206e6861206d6f692064756f6320727574207469656e0000005f82015250565b5f6115af601d8361129b565b91506115ba8261157b565b602082019050919050565b5f6020820190508181035f8301526115dc816115a3565b9050919050565b7f4368756120636f20686f7020646f6e6720686f70206c650000000000000000005f82015250565b5f61161760178361129b565b9150611622826115e3565b602082019050919050565b5f6020820190508181035f8301526116448161160b565b9050919050565b7f4e67756f692074687565206461207468616e6820746f616e20646179206475005f82015250565b5f61167f601f8361129b565b915061168a8261164b565b602082019050919050565b5f6020820190508181035f8301526116ac81611673565b9050919050565b7f4368756120636f207468616e67206e616f206d6f6920646520727574000000005f82015250565b5f6116e7601c8361129b565b91506116f2826116b3565b602082019050919050565b5f6020820190508181035f830152611714816116db565b9050919050565b7f536f207468616e67206d756f6e20727574206c6f6e20686f6e20736f2074686f5f8201527f69206769616e20636f6e206c6169000000000000000000000000000000000000602082015250565b5f611775602e8361129b565b91506117808261171b565b604082019050919050565b5f6020820190508181035f8301526117a281611769565b9050919050565b7f536f206475206b686f6e672064750000000000000000000000000000000000005f82015250565b5f6117dd600e8361129b565b91506117e8826117a9565b602082019050919050565b5f6020820190508181035f83015261180a816117d1565b9050919050565b7f486f7020646f6e672064612064756f63206b79000000000000000000000000005f82015250565b5f61184560138361129b565b915061185082611811565b602082019050919050565b5f6020820190508181035f83015261187281611839565b9050919050565b7f436875206e6861206b686f6e6720746865207475206b790000000000000000005f82015250565b5f6118ad60178361129b565b91506118b882611879565b602082019050919050565b5f6020820190508181035f8301526118da816118a1565b9050919050565b7f50686169206e6170206475207469656e2063686f20746f616e20626f206b79205f8201527f68616e0000000000000000000000000000000000000000000000000000000000602082015250565b5f61193b60238361129b565b9150611946826118e1565b604082019050919050565b5f6020820190508181035f8301526119688161192f565b9050919050565b7f436869206e67756f692074687565206d6f692064756f63206769612068616e005f82015250565b5f6119a3601f8361129b565b91506119ae8261196f565b602082019050919050565b5f6020820190508181035f8301526119d081611997565b9050919050565b7f4461207175612074686f69206769616e2063686f2070686570206769612068615f8201527f6e00000000000000000000000000000000000000000000000000000000000000602082015250565b5f611a3160218361129b565b9150611a3c826119d7565b604082019050919050565b5f6020820190508181035f830152611a5e81611a25565b9050919050565b7f50686169207468656d206974206e6861742031207468616e67000000000000005f82015250565b5f611a9960198361129b565b9150611aa482611a65565b602082019050919050565b5f6020820190508181035f830152611ac681611a8d565b9050919050565b7f536f20647520636f6e206c6169206b686f6e67206475206465206769616e20685f8201527f616e000000000000000000000000000000000000000000000000000000000000602082015250565b5f611b2760228361129b565b9150611b3282611acd565b604082019050919050565b5f6020820190508181035f830152611b5481611b1b565b9050919050565b7f5469656e20677569206b686f6e672064750000000000000000000000000000005f82015250565b5f611b8f60118361129b565b9150611b9a82611b5b565b602082019050919050565b5f6020820190508181035f830152611bbc81611b83565b905091905056fea264697066735822122048cee9e6db1c861f7463d456ab34f254ac534af6c0a89ba91fe4549cb1151d7a64736f6c634300081e0033",
			"opcodes": "PUSH1 0x80 PUSH1 0x40 MSTORE CALLVALUE DUP1 ISZERO PUSH2 0xF JUMPI PUSH0 PUSH0 REVERT JUMPDEST POP PUSH1 0x40 MLOAD PUSH2 0x1E85 CODESIZE SUB DUP1 PUSH2 0x1E85 DUP4 CODECOPY DUP2 DUP2 ADD PUSH1 0x40 MSTORE DUP2 ADD SWAP1 PUSH2 0x31 SWAP2 SWAP1 PUSH2 0x161 JUMP JUMPDEST PUSH0 DUP3 GT PUSH2 0x73 JUMPI PUSH1 0x40 MLOAD PUSH32 0x8C379A000000000000000000000000000000000000000000000000000000000 DUP2 MSTORE PUSH1 0x4 ADD PUSH2 0x6A SWAP1 PUSH2 0x1F9 JUMP JUMPDEST PUSH1 0x40 MLOAD DUP1 SWAP2 SUB SWAP1 REVERT JUMPDEST PUSH0 DUP2 GT PUSH2 0xB5 JUMPI PUSH1 0x40 MLOAD PUSH32 0x8C379A000000000000000000000000000000000000000000000000000000000 DUP2 MSTORE PUSH1 0x4 ADD PUSH2 0xAC SWAP1 PUSH2 0x261 JUMP JUMPDEST PUSH1 0x40 MLOAD DUP1 SWAP2 SUB SWAP1 REVERT JUMPDEST CALLER PUSH0 PUSH0 ADD PUSH0 PUSH2 0x100 EXP DUP2 SLOAD DUP2 PUSH20 0xFFFFFFFFFFFFFFFFFFFFFFFFFFFFFFFFFFFFFFFF MUL NOT AND SWAP1 DUP4 PUSH20 0xFFFFFFFFFFFFFFFFFFFFFFFFFFFFFFFFFFFFFFFF AND MUL OR SWAP1 SSTORE POP DUP2 PUSH0 PUSH1 0x1 ADD DUP2 SWAP1 SSTORE POP DUP1 PUSH0 PUSH1 0x2 ADD DUP2 SWAP1 SSTORE POP PUSH0 PUSH0 PUSH1 0x3 ADD PUSH0 PUSH2 0x100 EXP DUP2 SLOAD DUP2 PUSH1 0xFF MUL NOT AND SWAP1 DUP4 ISZERO ISZERO MUL OR SWAP1 SSTORE POP POP POP PUSH2 0x27F JUMP JUMPDEST PUSH0 PUSH0 REVERT JUMPDEST PUSH0 DUP2 SWAP1 POP SWAP2 SWAP1 POP JUMP JUMPDEST PUSH2 0x140 DUP2 PUSH2 0x12E JUMP JUMPDEST DUP2 EQ PUSH2 0x14A JUMPI PUSH0 PUSH0 REVERT JUMPDEST POP JUMP JUMPDEST PUSH0 DUP2 MLOAD SWAP1 POP PUSH2 0x15B DUP2 PUSH2 0x137 JUMP JUMPDEST SWAP3 SWAP2 POP POP JUMP JUMPDEST PUSH0 PUSH0 PUSH1 0x40 DUP4 DUP6 SUB SLT ISZERO PUSH2 0x177 JUMPI PUSH2 0x176 PUSH2 0x12A JUMP JUMPDEST JUMPDEST PUSH0 PUSH2 0x184 DUP6 DUP3 DUP7 ADD PUSH2 0x14D JUMP JUMPDEST SWAP3 POP POP PUSH1 0x20 PUSH2 0x195 DUP6 DUP3 DUP7 ADD PUSH2 0x14D JUMP JUMPDEST SWAP2 POP POP SWAP3 POP SWAP3 SWAP1 POP JUMP JUMPDEST PUSH0 DUP3 DUP3 MSTORE PUSH1 0x20 DUP3 ADD SWAP1 POP SWAP3 SWAP2 POP POP JUMP JUMPDEST PUSH32 0x436869207068692068616E67207468616E672070686169203E20300000000000 PUSH0 DUP3 ADD MSTORE POP JUMP JUMPDEST PUSH0 PUSH2 0x1E3 PUSH1 0x1B DUP4 PUSH2 0x19F JUMP JUMPDEST SWAP2 POP PUSH2 0x1EE DUP3 PUSH2 0x1AF JUMP JUMPDEST PUSH1 0x20 DUP3 ADD SWAP1 POP SWAP2 SWAP1 POP JUMP JUMPDEST PUSH0 PUSH1 0x20 DUP3 ADD SWAP1 POP DUP2 DUP2 SUB PUSH0 DUP4 ADD MSTORE PUSH2 0x210 DUP2 PUSH2 0x1D7 JUMP JUMPDEST SWAP1 POP SWAP2 SWAP1 POP JUMP JUMPDEST PUSH32 0x54686F69206769616E20746875652070686169203E2030000000000000000000 PUSH0 DUP3 ADD MSTORE POP JUMP JUMPDEST PUSH0 PUSH2 0x24B PUSH1 0x17 DUP4 PUSH2 0x19F JUMP JUMPDEST SWAP2 POP PUSH2 0x256 DUP3 PUSH2 0x217 JUMP JUMPDEST PUSH1 0x20 DUP3 ADD SWAP1 POP SWAP2 SWAP1 POP JUMP JUMPDEST PUSH0 PUSH1 0x20 DUP3 ADD SWAP1 POP DUP2 DUP2 SUB PUSH0 DUP4 ADD MSTORE PUSH2 0x278 DUP2 PUSH2 0x23F JUMP JUMPDEST SWAP1 POP SWAP2 SWAP1 POP JUMP JUMPDEST PUSH2 0x1BF9 DUP1 PUSH2 0x28C PUSH0 CODECOPY PUSH0 RETURN INVALID PUSH1 0x80 PUSH1 0x40 MSTORE PUSH1 0x4 CALLDATASIZE LT PUSH2 0x6E JUMPI PUSH0 CALLDATALOAD PUSH1 0xE0 SHR DUP1 PUSH4 0xB7650127 GT PUSH2 0x4D JUMPI DUP1 PUSH4 0xB7650127 EQ PUSH2 0xBA JUMPI DUP1 PUSH4 0xDDCA361F EQ PUSH2 0xD6 JUMPI DUP1 PUSH4 0xF17B93A8 EQ PUSH2 0x103 JUMPI DUP1 PUSH4 0xF57967C0 EQ PUSH2 0x130 JUMPI PUSH2 0x6E JUMP JUMPDEST DUP1 PUSH3 0x4EAD34 EQ PUSH2 0x72 JUMPI DUP1 PUSH4 0x185C8B8D EQ PUSH2 0x88 JUMPI DUP1 PUSH4 0x619089D3 EQ PUSH2 0xB0 JUMPI JUMPDEST PUSH0 PUSH0 REVERT JUMPDEST CALLVALUE DUP1 ISZERO PUSH2 0x7D JUMPI PUSH0 PUSH0 REVERT JUMPDEST POP PUSH2 0x86 PUSH2 0x16C JUMP JUMPDEST STOP JUMPDEST CALLVALUE DUP1 ISZERO PUSH2 0x93 JUMPI PUSH0 PUSH0 REVERT JUMPDEST POP PUSH2 0xAE PUSH1 0x4 DUP1 CALLDATASIZE SUB DUP2 ADD SWAP1 PUSH2 0xA9 SWAP2 SWAP1 PUSH2 0x1114 JUMP JUMPDEST PUSH2 0x581 JUMP JUMPDEST STOP JUMPDEST PUSH2 0xB8 PUSH2 0x992 JUMP JUMPDEST STOP JUMPDEST PUSH2 0xD4 PUSH1 0x4 DUP1 CALLDATASIZE SUB DUP2 ADD SWAP1 PUSH2 0xCF SWAP2 SWAP1 PUSH2 0x1114 JUMP JUMPDEST PUSH2 0xBC7 JUMP JUMPDEST STOP JUMPDEST CALLVALUE DUP1 ISZERO PUSH2 0xE1 JUMPI PUSH0 PUSH0 REVERT JUMPDEST POP PUSH2 0xEA PUSH2 0xEE5 JUMP JUMPDEST PUSH1 0x40 MLOAD PUSH2 0xFA SWAP5 SWAP4 SWAP3 SWAP2 SWAP1 PUSH2 0x118D JUMP JUMPDEST PUSH1 0x40 MLOAD DUP1 SWAP2 SUB SWAP1 RETURN JUMPDEST CALLVALUE DUP1 ISZERO PUSH2 0x10E JUMPI PUSH0 PUSH0 REVERT JUMPDEST POP PUSH2 0x117 PUSH2 0x1081 JUMP JUMPDEST PUSH1 0x40 MLOAD PUSH2 0x127 SWAP5 SWAP4 SWAP3 SWAP2 SWAP1 PUSH2 0x11EA JUMP JUMPDEST PUSH1 0x40 MLOAD DUP1 SWAP2 SUB SWAP1 RETURN JUMPDEST CALLVALUE DUP1 ISZERO PUSH2 0x13B JUMPI PUSH0 PUSH0 REVERT JUMPDEST POP PUSH2 0x156 PUSH1 0x4 DUP1 CALLDATASIZE SUB DUP2 ADD SWAP1 PUSH2 0x151 SWAP2 SWAP1 PUSH2 0x1257 JUMP JUMPDEST PUSH2 0x10C8 JUMP JUMPDEST PUSH1 0x40 MLOAD PUSH2 0x163 SWAP2 SWAP1 PUSH2 0x1282 JUMP JUMPDEST PUSH1 0x40 MLOAD DUP1 SWAP2 SUB SWAP1 RETURN JUMPDEST PUSH0 PUSH1 0x3 ADD PUSH0 SWAP1 SLOAD SWAP1 PUSH2 0x100 EXP SWAP1 DIV PUSH1 0xFF AND PUSH2 0x1BC JUMPI PUSH1 0x40 MLOAD PUSH32 0x8C379A000000000000000000000000000000000000000000000000000000000 DUP2 MSTORE PUSH1 0x4 ADD PUSH2 0x1B3 SWAP1 PUSH2 0x12F5 JUMP JUMPDEST PUSH1 0x40 MLOAD DUP1 SWAP2 SUB SWAP1 REVERT JUMPDEST PUSH1 0x4 PUSH0 ADD PUSH0 SWAP1 SLOAD SWAP1 PUSH2 0x100 EXP SWAP1 DIV PUSH20 0xFFFFFFFFFFFFFFFFFFFFFFFFFFFFFFFFFFFFFFFF AND PUSH20 0xFFFFFFFFFFFFFFFFFFFFFFFFFFFFFFFFFFFFFFFF AND CALLER PUSH20 0xFFFFFFFFFFFFFFFFFFFFFFFFFFFFFFFFFFFFFFFF AND EQ DUP1 PUSH2 0x266 JUMPI POP PUSH0 PUSH0 ADD PUSH0 SWAP1 SLOAD SWAP1 PUSH2 0x100 EXP SWAP1 DIV PUSH20 0xFFFFFFFFFFFFFFFFFFFFFFFFFFFFFFFFFFFFFFFF AND PUSH20 0xFFFFFFFFFFFFFFFFFFFFFFFFFFFFFFFFFFFFFFFF AND CALLER PUSH20 0xFFFFFFFFFFFFFFFFFFFFFFFFFFFFFFFFFFFFFFFF AND EQ JUMPDEST PUSH2 0x2A5 JUMPI PUSH1 0x40 MLOAD PUSH32 0x8C379A000000000000000000000000000000000000000000000000000000000 DUP2 MSTORE PUSH1 0x4 ADD PUSH2 0x29C SWAP1 PUSH2 0x1383 JUMP JUMPDEST PUSH1 0x40 MLOAD DUP1 SWAP2 SUB SWAP1 REVERT JUMPDEST PUSH0 PUSH0 PUSH1 0x2 ADD SLOAD SWAP1 POP PUSH0 PUSH1 0xA PUSH1 0x4 PUSH1 0x1 ADD SLOAD TIMESTAMP PUSH2 0x2C1 SWAP2 SWAP1 PUSH2 0x13CE JUMP JUMPDEST PUSH2 0x2CB SWAP2 SWAP1 PUSH2 0x142E JUMP JUMPDEST SWAP1 POP DUP2 DUP2 GT ISZERO PUSH2 0x2D9 JUMPI DUP2 SWAP1 POP JUMPDEST PUSH0 PUSH0 PUSH1 0x1 ADD SLOAD PUSH1 0x4 PUSH1 0x2 ADD SLOAD DUP4 PUSH2 0x2F0 SWAP2 SWAP1 PUSH2 0x13CE JUMP JUMPDEST PUSH2 0x2FA SWAP2 SWAP1 PUSH2 0x145E JUMP JUMPDEST SWAP1 POP PUSH0 DUP2 PUSH1 0x8 PUSH0 PUSH1 0x4 PUSH0 ADD PUSH0 SWAP1 SLOAD SWAP1 PUSH2 0x100 EXP SWAP1 DIV PUSH20 0xFFFFFFFFFFFFFFFFFFFFFFFFFFFFFFFFFFFFFFFF AND PUSH20 0xFFFFFFFFFFFFFFFFFFFFFFFFFFFFFFFFFFFFFFFF AND PUSH20 0xFFFFFFFFFFFFFFFFFFFFFFFFFFFFFFFFFFFFFFFF AND DUP2 MSTORE PUSH1 0x20 ADD SWAP1 DUP2 MSTORE PUSH1 0x20 ADD PUSH0 KECCAK256 SLOAD PUSH2 0x369 SWAP2 SWAP1 PUSH2 0x13CE JUMP JUMPDEST SWAP1 POP PUSH0 DUP2 GT ISZERO PUSH2 0x482 JUMPI PUSH0 CALLER PUSH20 0xFFFFFFFFFFFFFFFFFFFFFFFFFFFFFFFFFFFFFFFF AND DUP3 PUSH1 0x40 MLOAD PUSH2 0x398 SWAP1 PUSH2 0x14CC JUMP JUMPDEST PUSH0 PUSH1 0x40 MLOAD DUP1 DUP4 SUB DUP2 DUP6 DUP8 GAS CALL SWAP3 POP POP POP RETURNDATASIZE DUP1 PUSH0 DUP2 EQ PUSH2 0x3D2 JUMPI PUSH1 0x40 MLOAD SWAP2 POP PUSH1 0x1F NOT PUSH1 0x3F RETURNDATASIZE ADD AND DUP3 ADD PUSH1 0x40 MSTORE RETURNDATASIZE DUP3 MSTORE RETURNDATASIZE PUSH0 PUSH1 0x20 DUP5 ADD RETURNDATACOPY PUSH2 0x3D7 JUMP JUMPDEST PUSH1 0x60 SWAP2 POP JUMPDEST POP POP SWAP1 POP DUP1 PUSH2 0x41B JUMPI PUSH1 0x40 MLOAD PUSH32 0x8C379A000000000000000000000000000000000000000000000000000000000 DUP2 MSTORE PUSH1 0x4 ADD PUSH2 0x412 SWAP1 PUSH2 0x152A JUMP JUMPDEST PUSH1 0x40 MLOAD DUP1 SWAP2 SUB SWAP1 REVERT JUMPDEST PUSH0 PUSH1 0x8 PUSH0 PUSH1 0x4 PUSH0 ADD PUSH0 SWAP1 SLOAD SWAP1 PUSH2 0x100 EXP SWAP1 DIV PUSH20 0xFFFFFFFFFFFFFFFFFFFFFFFFFFFFFFFFFFFFFFFF AND PUSH20 0xFFFFFFFFFFFFFFFFFFFFFFFFFFFFFFFFFFFFFFFF AND PUSH20 0xFFFFFFFFFFFFFFFFFFFFFFFFFFFFFFFFFFFFFFFF AND DUP2 MSTORE PUSH1 0x20 ADD SWAP1 DUP2 MSTORE PUSH1 0x20 ADD PUSH0 KECCAK256 DUP2 SWAP1 SSTORE POP POP JUMPDEST PUSH0 DUP3 GT ISZERO PUSH2 0x500 JUMPI DUP2 PUSH1 0x8 PUSH0 PUSH0 PUSH0 ADD PUSH0 SWAP1 SLOAD SWAP1 PUSH2 0x100 EXP SWAP1 DIV PUSH20 0xFFFFFFFFFFFFFFFFFFFFFFFFFFFFFFFFFFFFFFFF AND PUSH20 0xFFFFFFFFFFFFFFFFFFFFFFFFFFFFFFFFFFFFFFFF AND PUSH20 0xFFFFFFFFFFFFFFFFFFFFFFFFFFFFFFFFFFFFFFFF AND DUP2 MSTORE PUSH1 0x20 ADD SWAP1 DUP2 MSTORE PUSH1 0x20 ADD PUSH0 KECCAK256 PUSH0 DUP3 DUP3 SLOAD PUSH2 0x4F8 SWAP2 SWAP1 PUSH2 0x1548 JUMP JUMPDEST SWAP3 POP POP DUP2 SWAP1 SSTORE POP JUMPDEST PUSH0 PUSH0 PUSH1 0x3 ADD PUSH0 PUSH2 0x100 EXP DUP2 SLOAD DUP2 PUSH1 0xFF MUL NOT AND SWAP1 DUP4 ISZERO ISZERO MUL OR SWAP1 SSTORE POP PUSH0 PUSH1 0x4 PUSH0 ADD PUSH0 PUSH2 0x100 EXP DUP2 SLOAD DUP2 PUSH20 0xFFFFFFFFFFFFFFFFFFFFFFFFFFFFFFFFFFFFFFFF MUL NOT AND SWAP1 DUP4 PUSH20 0xFFFFFFFFFFFFFFFFFFFFFFFFFFFFFFFFFFFFFFFF AND MUL OR SWAP1 SSTORE POP PUSH0 PUSH1 0x4 PUSH1 0x1 ADD DUP2 SWAP1 SSTORE POP PUSH0 PUSH1 0x4 PUSH1 0x2 ADD DUP2 SWAP1 SSTORE POP PUSH0 PUSH1 0x4 PUSH1 0x3 ADD DUP2 SWAP1 SSTORE POP POP POP POP POP JUMP JUMPDEST PUSH0 PUSH0 ADD PUSH0 SWAP1 SLOAD SWAP1 PUSH2 0x100 EXP SWAP1 DIV PUSH20 0xFFFFFFFFFFFFFFFFFFFFFFFFFFFFFFFFFFFFFFFF AND PUSH20 0xFFFFFFFFFFFFFFFFFFFFFFFFFFFFFFFFFFFFFFFF AND CALLER PUSH20 0xFFFFFFFFFFFFFFFFFFFFFFFFFFFFFFFFFFFFFFFF AND EQ PUSH2 0x611 JUMPI PUSH1 0x40 MLOAD PUSH32 0x8C379A000000000000000000000000000000000000000000000000000000000 DUP2 MSTORE PUSH1 0x4 ADD PUSH2 0x608 SWAP1 PUSH2 0x15C5 JUMP JUMPDEST PUSH1 0x40 MLOAD DUP1 SWAP2 SUB SWAP1 REVERT JUMPDEST PUSH0 PUSH1 0x3 ADD PUSH0 SWAP1 SLOAD SWAP1 PUSH2 0x100 EXP SWAP1 DIV PUSH1 0xFF AND PUSH2 0x661 JUMPI PUSH1 0x40 MLOAD PUSH32 0x8C379A000000000000000000000000000000000000000000000000000000000 DUP2 MSTORE PUSH1 0x4 ADD PUSH2 0x658 SWAP1 PUSH2 0x162D JUMP JUMPDEST PUSH1 0x40 MLOAD DUP1 SWAP2 SUB SWAP1 REVERT JUMPDEST PUSH0 PUSH1 0x2 ADD SLOAD PUSH1 0x4 PUSH1 0x2 ADD SLOAD LT PUSH2 0x6AC JUMPI PUSH1 0x40 MLOAD PUSH32 0x8C379A000000000000000000000000000000000000000000000000000000000 DUP2 MSTORE PUSH1 0x4 ADD PUSH2 0x6A3 SWAP1 PUSH2 0x1695 JUMP JUMPDEST PUSH1 0x40 MLOAD DUP1 SWAP2 SUB SWAP1 REVERT JUMPDEST PUSH0 PUSH1 0xA PUSH1 0x4 PUSH1 0x1 ADD SLOAD TIMESTAMP PUSH2 0x6C0 SWAP2 SWAP1 PUSH2 0x13CE JUMP JUMPDEST PUSH2 0x6CA SWAP2 SWAP1 PUSH2 0x142E JUMP JUMPDEST SWAP1 POP PUSH0 DUP2 SWAP1 POP DUP3 DUP2 LT ISZERO PUSH2 0x713 JUMPI PUSH1 0x40 MLOAD PUSH32 0x8C379A000000000000000000000000000000000000000000000000000000000 DUP2 MSTORE PUSH1 0x4 ADD PUSH2 0x70A SWAP1 PUSH2 0x16FD JUMP JUMPDEST PUSH1 0x40 MLOAD DUP1 SWAP2 SUB SWAP1 REVERT JUMPDEST DUP3 PUSH1 0x4 PUSH1 0x2 ADD SLOAD PUSH0 PUSH1 0x2 ADD SLOAD PUSH2 0x729 SWAP2 SWAP1 PUSH2 0x13CE JUMP JUMPDEST LT ISZERO PUSH2 0x76A JUMPI PUSH1 0x40 MLOAD PUSH32 0x8C379A000000000000000000000000000000000000000000000000000000000 DUP2 MSTORE PUSH1 0x4 ADD PUSH2 0x761 SWAP1 PUSH2 0x178B JUMP JUMPDEST PUSH1 0x40 MLOAD DUP1 SWAP2 SUB SWAP1 REVERT JUMPDEST PUSH0 PUSH0 PUSH1 0x1 ADD SLOAD DUP5 PUSH2 0x77B SWAP2 SWAP1 PUSH2 0x145E JUMP JUMPDEST SWAP1 POP DUP1 PUSH1 0x8 PUSH0 PUSH1 0x4 PUSH0 ADD PUSH0 SWAP1 SLOAD SWAP1 PUSH2 0x100 EXP SWAP1 DIV PUSH20 0xFFFFFFFFFFFFFFFFFFFFFFFFFFFFFFFFFFFFFFFF AND PUSH20 0xFFFFFFFFFFFFFFFFFFFFFFFFFFFFFFFFFFFFFFFF AND PUSH20 0xFFFFFFFFFFFFFFFFFFFFFFFFFFFFFFFFFFFFFFFF AND DUP2 MSTORE PUSH1 0x20 ADD SWAP1 DUP2 MSTORE PUSH1 0x20 ADD PUSH0 KECCAK256 SLOAD LT ISZERO PUSH2 0x820 JUMPI PUSH1 0x40 MLOAD PUSH32 0x8C379A000000000000000000000000000000000000000000000000000000000 DUP2 MSTORE PUSH1 0x4 ADD PUSH2 0x817 SWAP1 PUSH2 0x17F3 JUMP JUMPDEST PUSH1 0x40 MLOAD DUP1 SWAP2 SUB SWAP1 REVERT JUMPDEST DUP1 PUSH1 0x8 PUSH0 PUSH1 0x4 PUSH0 ADD PUSH0 SWAP1 SLOAD SWAP1 PUSH2 0x100 EXP SWAP1 DIV PUSH20 0xFFFFFFFFFFFFFFFFFFFFFFFFFFFFFFFFFFFFFFFF AND PUSH20 0xFFFFFFFFFFFFFFFFFFFFFFFFFFFFFFFFFFFFFFFF AND PUSH20 0xFFFFFFFFFFFFFFFFFFFFFFFFFFFFFFFFFFFFFFFF AND DUP2 MSTORE PUSH1 0x20 ADD SWAP1 DUP2 MSTORE PUSH1 0x20 ADD PUSH0 KECCAK256 PUSH0 DUP3 DUP3 SLOAD PUSH2 0x88F SWAP2 SWAP1 PUSH2 0x13CE JUMP JUMPDEST SWAP3 POP POP DUP2 SWAP1 SSTORE POP DUP1 PUSH1 0x8 PUSH0 PUSH0 PUSH0 ADD PUSH0 SWAP1 SLOAD SWAP1 PUSH2 0x100 EXP SWAP1 DIV PUSH20 0xFFFFFFFFFFFFFFFFFFFFFFFFFFFFFFFFFFFFFFFF AND PUSH20 0xFFFFFFFFFFFFFFFFFFFFFFFFFFFFFFFFFFFFFFFF AND PUSH20 0xFFFFFFFFFFFFFFFFFFFFFFFFFFFFFFFFFFFFFFFF AND DUP2 MSTORE PUSH1 0x20 ADD SWAP1 DUP2 MSTORE PUSH1 0x20 ADD PUSH0 KECCAK256 PUSH0 DUP3 DUP3 SLOAD PUSH2 0x904 SWAP2 SWAP1 PUSH2 0x1548 JUMP JUMPDEST SWAP3 POP POP DUP2 SWAP1 SSTORE POP DUP4 PUSH1 0x4 PUSH1 0x2 ADD PUSH0 DUP3 DUP3 SLOAD PUSH2 0x91F SWAP2 SWAP1 PUSH2 0x1548 JUMP JUMPDEST SWAP3 POP POP DUP2 SWAP1 SSTORE POP PUSH0 PUSH0 ADD PUSH0 SWAP1 SLOAD SWAP1 PUSH2 0x100 EXP SWAP1 DIV PUSH20 0xFFFFFFFFFFFFFFFFFFFFFFFFFFFFFFFFFFFFFFFF AND PUSH20 0xFFFFFFFFFFFFFFFFFFFFFFFFFFFFFFFFFFFFFFFF AND PUSH2 0x8FC DUP3 SWAP1 DUP2 ISZERO MUL SWAP1 PUSH1 0x40 MLOAD PUSH0 PUSH1 0x40 MLOAD DUP1 DUP4 SUB DUP2 DUP6 DUP9 DUP9 CALL SWAP4 POP POP POP POP ISZERO DUP1 ISZERO PUSH2 0x98B JUMPI RETURNDATASIZE PUSH0 PUSH0 RETURNDATACOPY RETURNDATASIZE PUSH0 REVERT JUMPDEST POP POP POP POP POP JUMP JUMPDEST PUSH0 PUSH1 0x3 ADD PUSH0 SWAP1 SLOAD SWAP1 PUSH2 0x100 EXP SWAP1 DIV PUSH1 0xFF AND ISZERO PUSH2 0x9E3 JUMPI PUSH1 0x40 MLOAD PUSH32 0x8C379A000000000000000000000000000000000000000000000000000000000 DUP2 MSTORE PUSH1 0x4 ADD PUSH2 0x9DA SWAP1 PUSH2 0x185B JUMP JUMPDEST PUSH1 0x40 MLOAD DUP1 SWAP2 SUB SWAP1 REVERT JUMPDEST PUSH0 PUSH0 ADD PUSH0 SWAP1 SLOAD SWAP1 PUSH2 0x100 EXP SWAP1 DIV PUSH20 0xFFFFFFFFFFFFFFFFFFFFFFFFFFFFFFFFFFFFFFFF AND PUSH20 0xFFFFFFFFFFFFFFFFFFFFFFFFFFFFFFFFFFFFFFFF AND CALLER PUSH20 0xFFFFFFFFFFFFFFFFFFFFFFFFFFFFFFFFFFFFFFFF AND SUB PUSH2 0xA73 JUMPI PUSH1 0x40 MLOAD PUSH32 0x8C379A000000000000000000000000000000000000000000000000000000000 DUP2 MSTORE PUSH1 0x4 ADD PUSH2 0xA6A SWAP1 PUSH2 0x18C3 JUMP JUMPDEST PUSH1 0x40 MLOAD DUP1 SWAP2 SUB SWAP1 REVERT JUMPDEST PUSH0 PUSH1 0x2 ADD SLOAD PUSH0 PUSH1 0x1 ADD SLOAD PUSH2 0xA87 SWAP2 SWAP1 PUSH2 0x145E JUMP JUMPDEST CALLVALUE LT ISZERO PUSH2 0xAC9 JUMPI PUSH1 0x40 MLOAD PUSH32 0x8C379A000000000000000000000000000000000000000000000000000000000 DUP2 MSTORE PUSH1 0x4 ADD PUSH2 0xAC0 SWAP1 PUSH2 0x1951 JUMP JUMPDEST PUSH1 0x40 MLOAD DUP1 SWAP2 SUB SWAP1 REVERT JUMPDEST CALLER PUSH1 0x4 PUSH0 ADD PUSH0 PUSH2 0x100 EXP DUP2 SLOAD DUP2 PUSH20 0xFFFFFFFFFFFFFFFFFFFFFFFFFFFFFFFFFFFFFFFF MUL NOT AND SWAP1 DUP4 PUSH20 0xFFFFFFFFFFFFFFFFFFFFFFFFFFFFFFFFFFFFFFFF AND MUL OR SWAP1 SSTORE POP TIMESTAMP PUSH1 0x4 PUSH1 0x1 ADD DUP2 SWAP1 SSTORE POP PUSH0 PUSH1 0x4 PUSH1 0x2 ADD DUP2 SWAP1 SSTORE POP PUSH1 0xA PUSH0 PUSH1 0x2 ADD SLOAD PUSH2 0xB30 SWAP2 SWAP1 PUSH2 0x145E JUMP JUMPDEST TIMESTAMP PUSH2 0xB3B SWAP2 SWAP1 PUSH2 0x1548 JUMP JUMPDEST PUSH1 0x4 PUSH1 0x3 ADD DUP2 SWAP1 SSTORE POP CALLVALUE PUSH1 0x8 PUSH0 PUSH1 0x4 PUSH0 ADD PUSH0 SWAP1 SLOAD SWAP1 PUSH2 0x100 EXP SWAP1 DIV PUSH20 0xFFFFFFFFFFFFFFFFFFFFFFFFFFFFFFFFFFFFFFFF AND PUSH20 0xFFFFFFFFFFFFFFFFFFFFFFFFFFFFFFFFFFFFFFFF AND PUSH20 0xFFFFFFFFFFFFFFFFFFFFFFFFFFFFFFFFFFFFFFFF AND DUP2 MSTORE PUSH1 0x20 ADD SWAP1 DUP2 MSTORE PUSH1 0x20 ADD PUSH0 KECCAK256 DUP2 SWAP1 SSTORE POP PUSH1 0x1 PUSH0 PUSH1 0x3 ADD PUSH0 PUSH2 0x100 EXP DUP2 SLOAD DUP2 PUSH1 0xFF MUL NOT AND SWAP1 DUP4 ISZERO ISZERO MUL OR SWAP1 SSTORE POP JUMP JUMPDEST PUSH0 PUSH1 0x3 ADD PUSH0 SWAP1 SLOAD SWAP1 PUSH2 0x100 EXP SWAP1 DIV PUSH1 0xFF AND PUSH2 0xC17 JUMPI PUSH1 0x40 MLOAD PUSH32 0x8C379A000000000000000000000000000000000000000000000000000000000 DUP2 MSTORE PUSH1 0x4 ADD PUSH2 0xC0E SWAP1 PUSH2 0x12F5 JUMP JUMPDEST PUSH1 0x40 MLOAD DUP1 SWAP2 SUB SWAP1 REVERT JUMPDEST PUSH1 0x4 PUSH0 ADD PUSH0 SWAP1 SLOAD SWAP1 PUSH2 0x100 EXP SWAP1 DIV PUSH20 0xFFFFFFFFFFFFFFFFFFFFFFFFFFFFFFFFFFFFFFFF AND PUSH20 0xFFFFFFFFFFFFFFFFFFFFFFFFFFFFFFFFFFFFFFFF AND CALLER PUSH20 0xFFFFFFFFFFFFFFFFFFFFFFFFFFFFFFFFFFFFFFFF AND EQ PUSH2 0xCA8 JUMPI PUSH1 0x40 MLOAD PUSH32 0x8C379A000000000000000000000000000000000000000000000000000000000 DUP2 MSTORE PUSH1 0x4 ADD PUSH2 0xC9F SWAP1 PUSH2 0x19B9 JUMP JUMPDEST PUSH1 0x40 MLOAD DUP1 SWAP2 SUB SWAP1 REVERT JUMPDEST PUSH1 0x5 PUSH1 0x4 PUSH1 0x3 ADD SLOAD PUSH2 0xCBA SWAP2 SWAP1 PUSH2 0x1548 JUMP JUMPDEST TIMESTAMP GT ISZERO PUSH2 0xCFC JUMPI PUSH1 0x40 MLOAD PUSH32 0x8C379A000000000000000000000000000000000000000000000000000000000 DUP2 MSTORE PUSH1 0x4 ADD PUSH2 0xCF3 SWAP1 PUSH2 0x1A47 JUMP JUMPDEST PUSH1 0x40 MLOAD DUP1 SWAP2 SUB SWAP1 REVERT JUMPDEST PUSH0 DUP2 GT PUSH2 0xD3E JUMPI PUSH1 0x40 MLOAD PUSH32 0x8C379A000000000000000000000000000000000000000000000000000000000 DUP2 MSTORE PUSH1 0x4 ADD PUSH2 0xD35 SWAP1 PUSH2 0x1AAF JUMP JUMPDEST PUSH1 0x40 MLOAD DUP1 SWAP2 SUB SWAP1 REVERT JUMPDEST PUSH0 PUSH1 0x1 ADD SLOAD PUSH1 0x4 PUSH1 0x2 ADD SLOAD PUSH0 PUSH1 0x2 ADD SLOAD DUP4 PUSH2 0xD59 SWAP2 SWAP1 PUSH2 0x1548 JUMP JUMPDEST PUSH2 0xD63 SWAP2 SWAP1 PUSH2 0x13CE JUMP JUMPDEST PUSH2 0xD6D SWAP2 SWAP1 PUSH2 0x145E JUMP JUMPDEST CALLVALUE PUSH1 0x8 PUSH0 CALLER PUSH20 0xFFFFFFFFFFFFFFFFFFFFFFFFFFFFFFFFFFFFFFFF AND PUSH20 0xFFFFFFFFFFFFFFFFFFFFFFFFFFFFFFFFFFFFFFFF AND DUP2 MSTORE PUSH1 0x20 ADD SWAP1 DUP2 MSTORE PUSH1 0x20 ADD PUSH0 KECCAK256 SLOAD PUSH2 0xDB6 SWAP2 SWAP1 PUSH2 0x1548 JUMP JUMPDEST LT ISZERO PUSH2 0xDF7 JUMPI PUSH1 0x40 MLOAD PUSH32 0x8C379A000000000000000000000000000000000000000000000000000000000 DUP2 MSTORE PUSH1 0x4 ADD PUSH2 0xDEE SWAP1 PUSH2 0x1B3D JUMP JUMPDEST PUSH1 0x40 MLOAD DUP1 SWAP2 SUB SWAP1 REVERT JUMPDEST PUSH0 DUP2 PUSH0 PUSH1 0x1 ADD SLOAD PUSH2 0xE08 SWAP2 SWAP1 PUSH2 0x145E JUMP JUMPDEST SWAP1 POP DUP1 CALLVALUE LT ISZERO PUSH2 0xE4D JUMPI PUSH1 0x40 MLOAD PUSH32 0x8C379A000000000000000000000000000000000000000000000000000000000 DUP2 MSTORE PUSH1 0x4 ADD PUSH2 0xE44 SWAP1 PUSH2 0x1BA5 JUMP JUMPDEST PUSH1 0x40 MLOAD DUP1 SWAP2 SUB SWAP1 REVERT JUMPDEST PUSH1 0xA DUP3 PUSH2 0xE5A SWAP2 SWAP1 PUSH2 0x145E JUMP JUMPDEST PUSH1 0x4 PUSH1 0x3 ADD PUSH0 DUP3 DUP3 SLOAD PUSH2 0xE6D SWAP2 SWAP1 PUSH2 0x1548 JUMP JUMPDEST SWAP3 POP POP DUP2 SWAP1 SSTORE POP DUP2 PUSH0 PUSH1 0x2 ADD PUSH0 DUP3 DUP3 SLOAD PUSH2 0xE87 SWAP2 SWAP1 PUSH2 0x1548 JUMP JUMPDEST SWAP3 POP POP DUP2 SWAP1 SSTORE POP CALLVALUE PUSH1 0x8 PUSH0 CALLER PUSH20 0xFFFFFFFFFFFFFFFFFFFFFFFFFFFFFFFFFFFFFFFF AND PUSH20 0xFFFFFFFFFFFFFFFFFFFFFFFFFFFFFFFFFFFFFFFF AND DUP2 MSTORE PUSH1 0x20 ADD SWAP1 DUP2 MSTORE PUSH1 0x20 ADD PUSH0 KECCAK256 PUSH0 DUP3 DUP3 SLOAD PUSH2 0xEDA SWAP2 SWAP1 PUSH2 0x1548 JUMP JUMPDEST SWAP3 POP POP DUP2 SWAP1 SSTORE POP POP POP JUMP JUMPDEST PUSH0 PUSH0 PUSH0 PUSH0 PUSH0 PUSH20 0xFFFFFFFFFFFFFFFFFFFFFFFFFFFFFFFFFFFFFFFF AND PUSH1 0x4 PUSH0 ADD PUSH0 SWAP1 SLOAD SWAP1 PUSH2 0x100 EXP SWAP1 DIV PUSH20 0xFFFFFFFFFFFFFFFFFFFFFFFFFFFFFFFFFFFFFFFF AND PUSH20 0xFFFFFFFFFFFFFFFFFFFFFFFFFFFFFFFFFFFFFFFF AND EQ DUP1 PUSH2 0xFEF JUMPI POP PUSH0 PUSH0 ADD PUSH0 SWAP1 SLOAD SWAP1 PUSH2 0x100 EXP SWAP1 DIV PUSH20 0xFFFFFFFFFFFFFFFFFFFFFFFFFFFFFFFFFFFFFFFF AND PUSH20 0xFFFFFFFFFFFFFFFFFFFFFFFFFFFFFFFFFFFFFFFF AND CALLER PUSH20 0xFFFFFFFFFFFFFFFFFFFFFFFFFFFFFFFFFFFFFFFF AND EQ ISZERO DUP1 ISZERO PUSH2 0xFEE JUMPI POP PUSH1 0x4 PUSH0 ADD PUSH0 SWAP1 SLOAD SWAP1 PUSH2 0x100 EXP SWAP1 DIV PUSH20 0xFFFFFFFFFFFFFFFFFFFFFFFFFFFFFFFFFFFFFFFF AND PUSH20 0xFFFFFFFFFFFFFFFFFFFFFFFFFFFFFFFFFFFFFFFF AND CALLER PUSH20 0xFFFFFFFFFFFFFFFFFFFFFFFFFFFFFFFFFFFFFFFF AND EQ ISZERO JUMPDEST JUMPDEST ISZERO PUSH2 0x100F JUMPI PUSH0 PUSH1 0x4 PUSH1 0x1 ADD SLOAD PUSH1 0x4 PUSH1 0x2 ADD SLOAD PUSH0 SWAP4 POP SWAP4 POP SWAP4 POP SWAP4 POP PUSH2 0x107B JUMP JUMPDEST PUSH0 PUSH0 SWAP1 POP PUSH1 0x4 PUSH1 0x3 ADD SLOAD TIMESTAMP LT ISZERO PUSH2 0x1040 JUMPI PUSH1 0xA TIMESTAMP PUSH1 0x4 PUSH1 0x3 ADD SLOAD PUSH2 0x1033 SWAP2 SWAP1 PUSH2 0x13CE JUMP JUMPDEST PUSH2 0x103D SWAP2 SWAP1 PUSH2 0x142E JUMP JUMPDEST SWAP1 POP JUMPDEST PUSH1 0x4 PUSH0 ADD PUSH0 SWAP1 SLOAD SWAP1 PUSH2 0x100 EXP SWAP1 DIV PUSH20 0xFFFFFFFFFFFFFFFFFFFFFFFFFFFFFFFFFFFFFFFF AND PUSH1 0x4 PUSH1 0x1 ADD SLOAD PUSH1 0x4 PUSH1 0x2 ADD SLOAD DUP4 SWAP5 POP SWAP5 POP SWAP5 POP SWAP5 POP POP JUMPDEST SWAP1 SWAP2 SWAP3 SWAP4 JUMP JUMPDEST PUSH0 DUP1 PUSH0 ADD PUSH0 SWAP1 SLOAD SWAP1 PUSH2 0x100 EXP SWAP1 DIV PUSH20 0xFFFFFFFFFFFFFFFFFFFFFFFFFFFFFFFFFFFFFFFF AND SWAP1 DUP1 PUSH1 0x1 ADD SLOAD SWAP1 DUP1 PUSH1 0x2 ADD SLOAD SWAP1 DUP1 PUSH1 0x3 ADD PUSH0 SWAP1 SLOAD SWAP1 PUSH2 0x100 EXP SWAP1 DIV PUSH1 0xFF AND SWAP1 POP DUP5 JUMP JUMPDEST PUSH1 0x8 PUSH1 0x20 MSTORE DUP1 PUSH0 MSTORE PUSH1 0x40 PUSH0 KECCAK256 PUSH0 SWAP2 POP SWAP1 POP SLOAD DUP2 JUMP JUMPDEST PUSH0 PUSH0 REVERT JUMPDEST PUSH0 DUP2 SWAP1 POP SWAP2 SWAP1 POP JUMP JUMPDEST PUSH2 0x10F3 DUP2 PUSH2 0x10E1 JUMP JUMPDEST DUP2 EQ PUSH2 0x10FD JUMPI PUSH0 PUSH0 REVERT JUMPDEST POP JUMP JUMPDEST PUSH0 DUP2 CALLDATALOAD SWAP1 POP PUSH2 0x110E DUP2 PUSH2 0x10EA JUMP JUMPDEST SWAP3 SWAP2 POP POP JUMP JUMPDEST PUSH0 PUSH1 0x20 DUP3 DUP5 SUB SLT ISZERO PUSH2 0x1129 JUMPI PUSH2 0x1128 PUSH2 0x10DD JUMP JUMPDEST JUMPDEST PUSH0 PUSH2 0x1136 DUP5 DUP3 DUP6 ADD PUSH2 0x1100 JUMP JUMPDEST SWAP2 POP POP SWAP3 SWAP2 POP POP JUMP JUMPDEST PUSH0 PUSH20 0xFFFFFFFFFFFFFFFFFFFFFFFFFFFFFFFFFFFFFFFF DUP3 AND SWAP1 POP SWAP2 SWAP1 POP JUMP JUMPDEST PUSH0 PUSH2 0x1168 DUP3 PUSH2 0x113F JUMP JUMPDEST SWAP1 POP SWAP2 SWAP1 POP JUMP JUMPDEST PUSH2 0x1178 DUP2 PUSH2 0x115E JUMP JUMPDEST DUP3 MSTORE POP POP JUMP JUMPDEST PUSH2 0x1187 DUP2 PUSH2 0x10E1 JUMP JUMPDEST DUP3 MSTORE POP POP JUMP JUMPDEST PUSH0 PUSH1 0x80 DUP3 ADD SWAP1 POP PUSH2 0x11A0 PUSH0 DUP4 ADD DUP8 PUSH2 0x116F JUMP JUMPDEST PUSH2 0x11AD PUSH1 0x20 DUP4 ADD DUP7 PUSH2 0x117E JUMP JUMPDEST PUSH2 0x11BA PUSH1 0x40 DUP4 ADD DUP6 PUSH2 0x117E JUMP JUMPDEST PUSH2 0x11C7 PUSH1 0x60 DUP4 ADD DUP5 PUSH2 0x117E JUMP JUMPDEST SWAP6 SWAP5 POP POP POP POP POP JUMP JUMPDEST PUSH0 DUP2 ISZERO ISZERO SWAP1 POP SWAP2 SWAP1 POP JUMP JUMPDEST PUSH2 0x11E4 DUP2 PUSH2 0x11D0 JUMP JUMPDEST DUP3 MSTORE POP POP JUMP JUMPDEST PUSH0 PUSH1 0x80 DUP3 ADD SWAP1 POP PUSH2 0x11FD PUSH0 DUP4 ADD DUP8 PUSH2 0x116F JUMP JUMPDEST PUSH2 0x120A PUSH1 0x20 DUP4 ADD DUP7 PUSH2 0x117E JUMP JUMPDEST PUSH2 0x1217 PUSH1 0x40 DUP4 ADD DUP6 PUSH2 0x117E JUMP JUMPDEST PUSH2 0x1224 PUSH1 0x60 DUP4 ADD DUP5 PUSH2 0x11DB JUMP JUMPDEST SWAP6 SWAP5 POP POP POP POP POP JUMP JUMPDEST PUSH2 0x1236 DUP2 PUSH2 0x115E JUMP JUMPDEST DUP2 EQ PUSH2 0x1240 JUMPI PUSH0 PUSH0 REVERT JUMPDEST POP JUMP JUMPDEST PUSH0 DUP2 CALLDATALOAD SWAP1 POP PUSH2 0x1251 DUP2 PUSH2 0x122D JUMP JUMPDEST SWAP3 SWAP2 POP POP JUMP JUMPDEST PUSH0 PUSH1 0x20 DUP3 DUP5 SUB SLT ISZERO PUSH2 0x126C JUMPI PUSH2 0x126B PUSH2 0x10DD JUMP JUMPDEST JUMPDEST PUSH0 PUSH2 0x1279 DUP5 DUP3 DUP6 ADD PUSH2 0x1243 JUMP JUMPDEST SWAP2 POP POP SWAP3 SWAP2 POP POP JUMP JUMPDEST PUSH0 PUSH1 0x20 DUP3 ADD SWAP1 POP PUSH2 0x1295 PUSH0 DUP4 ADD DUP5 PUSH2 0x117E JUMP JUMPDEST SWAP3 SWAP2 POP POP JUMP JUMPDEST PUSH0 DUP3 DUP3 MSTORE PUSH1 0x20 DUP3 ADD SWAP1 POP SWAP3 SWAP2 POP POP JUMP JUMPDEST PUSH32 0x4368756120636F20686F7020646F6E6700000000000000000000000000000000 PUSH0 DUP3 ADD MSTORE POP JUMP JUMPDEST PUSH0 PUSH2 0x12DF PUSH1 0x10 DUP4 PUSH2 0x129B JUMP JUMPDEST SWAP2 POP PUSH2 0x12EA DUP3 PUSH2 0x12AB JUMP JUMPDEST PUSH1 0x20 DUP3 ADD SWAP1 POP SWAP2 SWAP1 POP JUMP JUMPDEST PUSH0 PUSH1 0x20 DUP3 ADD SWAP1 POP DUP2 DUP2 SUB PUSH0 DUP4 ADD MSTORE PUSH2 0x130C DUP2 PUSH2 0x12D3 JUMP JUMPDEST SWAP1 POP SWAP2 SWAP1 POP JUMP JUMPDEST PUSH32 0x43686920636875206E686120686F6163206E67756F692074687565206D6F6920 PUSH0 DUP3 ADD MSTORE PUSH32 0x636F20717579656E000000000000000000000000000000000000000000000000 PUSH1 0x20 DUP3 ADD MSTORE POP JUMP JUMPDEST PUSH0 PUSH2 0x136D PUSH1 0x28 DUP4 PUSH2 0x129B JUMP JUMPDEST SWAP2 POP PUSH2 0x1378 DUP3 PUSH2 0x1313 JUMP JUMPDEST PUSH1 0x40 DUP3 ADD SWAP1 POP SWAP2 SWAP1 POP JUMP JUMPDEST PUSH0 PUSH1 0x20 DUP3 ADD SWAP1 POP DUP2 DUP2 SUB PUSH0 DUP4 ADD MSTORE PUSH2 0x139A DUP2 PUSH2 0x1361 JUMP JUMPDEST SWAP1 POP SWAP2 SWAP1 POP JUMP JUMPDEST PUSH32 0x4E487B7100000000000000000000000000000000000000000000000000000000 PUSH0 MSTORE PUSH1 0x11 PUSH1 0x4 MSTORE PUSH1 0x24 PUSH0 REVERT JUMPDEST PUSH0 PUSH2 0x13D8 DUP3 PUSH2 0x10E1 JUMP JUMPDEST SWAP2 POP PUSH2 0x13E3 DUP4 PUSH2 0x10E1 JUMP JUMPDEST SWAP3 POP DUP3 DUP3 SUB SWAP1 POP DUP2 DUP2 GT ISZERO PUSH2 0x13FB JUMPI PUSH2 0x13FA PUSH2 0x13A1 JUMP JUMPDEST JUMPDEST SWAP3 SWAP2 POP POP JUMP JUMPDEST PUSH32 0x4E487B7100000000000000000000000000000000000000000000000000000000 PUSH0 MSTORE PUSH1 0x12 PUSH1 0x4 MSTORE PUSH1 0x24 PUSH0 REVERT JUMPDEST PUSH0 PUSH2 0x1438 DUP3 PUSH2 0x10E1 JUMP JUMPDEST SWAP2 POP PUSH2 0x1443 DUP4 PUSH2 0x10E1 JUMP JUMPDEST SWAP3 POP DUP3 PUSH2 0x1453 JUMPI PUSH2 0x1452 PUSH2 0x1401 JUMP JUMPDEST JUMPDEST DUP3 DUP3 DIV SWAP1 POP SWAP3 SWAP2 POP POP JUMP JUMPDEST PUSH0 PUSH2 0x1468 DUP3 PUSH2 0x10E1 JUMP JUMPDEST SWAP2 POP PUSH2 0x1473 DUP4 PUSH2 0x10E1 JUMP JUMPDEST SWAP3 POP DUP3 DUP3 MUL PUSH2 0x1481 DUP2 PUSH2 0x10E1 JUMP JUMPDEST SWAP2 POP DUP3 DUP3 DIV DUP5 EQ DUP4 ISZERO OR PUSH2 0x1498 JUMPI PUSH2 0x1497 PUSH2 0x13A1 JUMP JUMPDEST JUMPDEST POP SWAP3 SWAP2 POP POP JUMP JUMPDEST PUSH0 DUP2 SWAP1 POP SWAP3 SWAP2 POP POP JUMP JUMPDEST POP JUMP JUMPDEST PUSH0 PUSH2 0x14B7 PUSH0 DUP4 PUSH2 0x149F JUMP JUMPDEST SWAP2 POP PUSH2 0x14C2 DUP3 PUSH2 0x14A9 JUMP JUMPDEST PUSH0 DUP3 ADD SWAP1 POP SWAP2 SWAP1 POP JUMP JUMPDEST PUSH0 PUSH2 0x14D6 DUP3 PUSH2 0x14AC JUMP JUMPDEST SWAP2 POP DUP2 SWAP1 POP SWAP2 SWAP1 POP JUMP JUMPDEST PUSH32 0x43687579656E207469656E207468617420626169000000000000000000000000 PUSH0 DUP3 ADD MSTORE POP JUMP JUMPDEST PUSH0 PUSH2 0x1514 PUSH1 0x14 DUP4 PUSH2 0x129B JUMP JUMPDEST SWAP2 POP PUSH2 0x151F DUP3 PUSH2 0x14E0 JUMP JUMPDEST PUSH1 0x20 DUP3 ADD SWAP1 POP SWAP2 SWAP1 POP JUMP JUMPDEST PUSH0 PUSH1 0x20 DUP3 ADD SWAP1 POP DUP2 DUP2 SUB PUSH0 DUP4 ADD MSTORE PUSH2 0x1541 DUP2 PUSH2 0x1508 JUMP JUMPDEST SWAP1 POP SWAP2 SWAP1 POP JUMP JUMPDEST PUSH0 PUSH2 0x1552 DUP3 PUSH2 0x10E1 JUMP JUMPDEST SWAP2 POP PUSH2 0x155D DUP4 PUSH2 0x10E1 JUMP JUMPDEST SWAP3 POP DUP3 DUP3 ADD SWAP1 POP DUP1 DUP3 GT ISZERO PUSH2 0x1575 JUMPI PUSH2 0x1574 PUSH2 0x13A1 JUMP JUMPDEST JUMPDEST SWAP3 SWAP2 POP POP JUMP JUMPDEST PUSH32 0x43686920636875206E6861206D6F692064756F6320727574207469656E000000 PUSH0 DUP3 ADD MSTORE POP JUMP JUMPDEST PUSH0 PUSH2 0x15AF PUSH1 0x1D DUP4 PUSH2 0x129B JUMP JUMPDEST SWAP2 POP PUSH2 0x15BA DUP3 PUSH2 0x157B JUMP JUMPDEST PUSH1 0x20 DUP3 ADD SWAP1 POP SWAP2 SWAP1 POP JUMP JUMPDEST PUSH0 PUSH1 0x20 DUP3 ADD SWAP1 POP DUP2 DUP2 SUB PUSH0 DUP4 ADD MSTORE PUSH2 0x15DC DUP2 PUSH2 0x15A3 JUMP JUMPDEST SWAP1 POP SWAP2 SWAP1 POP JUMP JUMPDEST PUSH32 0x4368756120636F20686F7020646F6E6720686F70206C65000000000000000000 PUSH0 DUP3 ADD MSTORE POP JUMP JUMPDEST PUSH0 PUSH2 0x1617 PUSH1 0x17 DUP4 PUSH2 0x129B JUMP JUMPDEST SWAP2 POP PUSH2 0x1622 DUP3 PUSH2 0x15E3 JUMP JUMPDEST PUSH1 0x20 DUP3 ADD SWAP1 POP SWAP2 SWAP1 POP JUMP JUMPDEST PUSH0 PUSH1 0x20 DUP3 ADD SWAP1 POP DUP2 DUP2 SUB PUSH0 DUP4 ADD MSTORE PUSH2 0x1644 DUP2 PUSH2 0x160B JUMP JUMPDEST SWAP1 POP SWAP2 SWAP1 POP JUMP JUMPDEST PUSH32 0x4E67756F692074687565206461207468616E6820746F616E2064617920647500 PUSH0 DUP3 ADD MSTORE POP JUMP JUMPDEST PUSH0 PUSH2 0x167F PUSH1 0x1F DUP4 PUSH2 0x129B JUMP JUMPDEST SWAP2 POP PUSH2 0x168A DUP3 PUSH2 0x164B JUMP JUMPDEST PUSH1 0x20 DUP3 ADD SWAP1 POP SWAP2 SWAP1 POP JUMP JUMPDEST PUSH0 PUSH1 0x20 DUP3 ADD SWAP1 POP DUP2 DUP2 SUB PUSH0 DUP4 ADD MSTORE PUSH2 0x16AC DUP2 PUSH2 0x1673 JUMP JUMPDEST SWAP1 POP SWAP2 SWAP1 POP JUMP JUMPDEST PUSH32 0x4368756120636F207468616E67206E616F206D6F692064652072757400000000 PUSH0 DUP3 ADD MSTORE POP JUMP JUMPDEST PUSH0 PUSH2 0x16E7 PUSH1 0x1C DUP4 PUSH2 0x129B JUMP JUMPDEST SWAP2 POP PUSH2 0x16F2 DUP3 PUSH2 0x16B3 JUMP JUMPDEST PUSH1 0x20 DUP3 ADD SWAP1 POP SWAP2 SWAP1 POP JUMP JUMPDEST PUSH0 PUSH1 0x20 DUP3 ADD SWAP1 POP DUP2 DUP2 SUB PUSH0 DUP4 ADD MSTORE PUSH2 0x1714 DUP2 PUSH2 0x16DB JUMP JUMPDEST SWAP1 POP SWAP2 SWAP1 POP JUMP JUMPDEST PUSH32 0x536F207468616E67206D756F6E20727574206C6F6E20686F6E20736F2074686F PUSH0 DUP3 ADD MSTORE PUSH32 0x69206769616E20636F6E206C6169000000000000000000000000000000000000 PUSH1 0x20 DUP3 ADD MSTORE POP JUMP JUMPDEST PUSH0 PUSH2 0x1775 PUSH1 0x2E DUP4 PUSH2 0x129B JUMP JUMPDEST SWAP2 POP PUSH2 0x1780 DUP3 PUSH2 0x171B JUMP JUMPDEST PUSH1 0x40 DUP3 ADD SWAP1 POP SWAP2 SWAP1 POP JUMP JUMPDEST PUSH0 PUSH1 0x20 DUP3 ADD SWAP1 POP DUP2 DUP2 SUB PUSH0 DUP4 ADD MSTORE PUSH2 0x17A2 DUP2 PUSH2 0x1769 JUMP JUMPDEST SWAP1 POP SWAP2 SWAP1 POP JUMP JUMPDEST PUSH32 0x536F206475206B686F6E67206475000000000000000000000000000000000000 PUSH0 DUP3 ADD MSTORE POP JUMP JUMPDEST PUSH0 PUSH2 0x17DD PUSH1 0xE DUP4 PUSH2 0x129B JUMP JUMPDEST SWAP2 POP PUSH2 0x17E8 DUP3 PUSH2 0x17A9 JUMP JUMPDEST PUSH1 0x20 DUP3 ADD SWAP1 POP SWAP2 SWAP1 POP JUMP JUMPDEST PUSH0 PUSH1 0x20 DUP3 ADD SWAP1 POP DUP2 DUP2 SUB PUSH0 DUP4 ADD MSTORE PUSH2 0x180A DUP2 PUSH2 0x17D1 JUMP JUMPDEST SWAP1 POP SWAP2 SWAP1 POP JUMP JUMPDEST PUSH32 0x486F7020646F6E672064612064756F63206B7900000000000000000000000000 PUSH0 DUP3 ADD MSTORE POP JUMP JUMPDEST PUSH0 PUSH2 0x1845 PUSH1 0x13 DUP4 PUSH2 0x129B JUMP JUMPDEST SWAP2 POP PUSH2 0x1850 DUP3 PUSH2 0x1811 JUMP JUMPDEST PUSH1 0x20 DUP3 ADD SWAP1 POP SWAP2 SWAP1 POP JUMP JUMPDEST PUSH0 PUSH1 0x20 DUP3 ADD SWAP1 POP DUP2 DUP2 SUB PUSH0 DUP4 ADD MSTORE PUSH2 0x1872 DUP2 PUSH2 0x1839 JUMP JUMPDEST SWAP1 POP SWAP2 SWAP1 POP JUMP JUMPDEST PUSH32 0x436875206E6861206B686F6E6720746865207475206B79000000000000000000 PUSH0 DUP3 ADD MSTORE POP JUMP JUMPDEST PUSH0 PUSH2 0x18AD PUSH1 0x17 DUP4 PUSH2 0x129B JUMP JUMPDEST SWAP2 POP PUSH2 0x18B8 DUP3 PUSH2 0x1879 JUMP JUMPDEST PUSH1 0x20 DUP3 ADD SWAP1 POP SWAP2 SWAP1 POP JUMP JUMPDEST PUSH0 PUSH1 0x20 DUP3 ADD SWAP1 POP DUP2 DUP2 SUB PUSH0 DUP4 ADD MSTORE PUSH2 0x18DA DUP2 PUSH2 0x18A1 JUMP JUMPDEST SWAP1 POP SWAP2 SWAP1 POP JUMP JUMPDEST PUSH32 0x50686169206E6170206475207469656E2063686F20746F616E20626F206B7920 PUSH0 DUP3 ADD MSTORE PUSH32 0x68616E0000000000000000000000000000000000000000000000000000000000 PUSH1 0x20 DUP3 ADD MSTORE POP JUMP JUMPDEST PUSH0 PUSH2 0x193B PUSH1 0x23 DUP4 PUSH2 0x129B JUMP JUMPDEST SWAP2 POP PUSH2 0x1946 DUP3 PUSH2 0x18E1 JUMP JUMPDEST PUSH1 0x40 DUP3 ADD SWAP1 POP SWAP2 SWAP1 POP JUMP JUMPDEST PUSH0 PUSH1 0x20 DUP3 ADD SWAP1 POP DUP2 DUP2 SUB PUSH0 DUP4 ADD MSTORE PUSH2 0x1968 DUP2 PUSH2 0x192F JUMP JUMPDEST SWAP1 POP SWAP2 SWAP1 POP JUMP JUMPDEST PUSH32 0x436869206E67756F692074687565206D6F692064756F63206769612068616E00 PUSH0 DUP3 ADD MSTORE POP JUMP JUMPDEST PUSH0 PUSH2 0x19A3 PUSH1 0x1F DUP4 PUSH2 0x129B JUMP JUMPDEST SWAP2 POP PUSH2 0x19AE DUP3 PUSH2 0x196F JUMP JUMPDEST PUSH1 0x20 DUP3 ADD SWAP1 POP SWAP2 SWAP1 POP JUMP JUMPDEST PUSH0 PUSH1 0x20 DUP3 ADD SWAP1 POP DUP2 DUP2 SUB PUSH0 DUP4 ADD MSTORE PUSH2 0x19D0 DUP2 PUSH2 0x1997 JUMP JUMPDEST SWAP1 POP SWAP2 SWAP1 POP JUMP JUMPDEST PUSH32 0x4461207175612074686F69206769616E2063686F207068657020676961206861 PUSH0 DUP3 ADD MSTORE PUSH32 0x6E00000000000000000000000000000000000000000000000000000000000000 PUSH1 0x20 DUP3 ADD MSTORE POP JUMP JUMPDEST PUSH0 PUSH2 0x1A31 PUSH1 0x21 DUP4 PUSH2 0x129B JUMP JUMPDEST SWAP2 POP PUSH2 0x1A3C DUP3 PUSH2 0x19D7 JUMP JUMPDEST PUSH1 0x40 DUP3 ADD SWAP1 POP SWAP2 SWAP1 POP JUMP JUMPDEST PUSH0 PUSH1 0x20 DUP3 ADD SWAP1 POP DUP2 DUP2 SUB PUSH0 DUP4 ADD MSTORE PUSH2 0x1A5E DUP2 PUSH2 0x1A25 JUMP JUMPDEST SWAP1 POP SWAP2 SWAP1 POP JUMP JUMPDEST PUSH32 0x50686169207468656D206974206E6861742031207468616E6700000000000000 PUSH0 DUP3 ADD MSTORE POP JUMP JUMPDEST PUSH0 PUSH2 0x1A99 PUSH1 0x19 DUP4 PUSH2 0x129B JUMP JUMPDEST SWAP2 POP PUSH2 0x1AA4 DUP3 PUSH2 0x1A65 JUMP JUMPDEST PUSH1 0x20 DUP3 ADD SWAP1 POP SWAP2 SWAP1 POP JUMP JUMPDEST PUSH0 PUSH1 0x20 DUP3 ADD SWAP1 POP DUP2 DUP2 SUB PUSH0 DUP4 ADD MSTORE PUSH2 0x1AC6 DUP2 PUSH2 0x1A8D JUMP JUMPDEST SWAP1 POP SWAP2 SWAP1 POP JUMP JUMPDEST PUSH32 0x536F20647520636F6E206C6169206B686F6E67206475206465206769616E2068 PUSH0 DUP3 ADD MSTORE PUSH32 0x616E000000000000000000000000000000000000000000000000000000000000 PUSH1 0x20 DUP3 ADD MSTORE POP JUMP JUMPDEST PUSH0 PUSH2 0x1B27 PUSH1 0x22 DUP4 PUSH2 0x129B JUMP JUMPDEST SWAP2 POP PUSH2 0x1B32 DUP3 PUSH2 0x1ACD JUMP JUMPDEST PUSH1 0x40 DUP3 ADD SWAP1 POP SWAP2 SWAP1 POP JUMP JUMPDEST PUSH0 PUSH1 0x20 DUP3 ADD SWAP1 POP DUP2 DUP2 SUB PUSH0 DUP4 ADD MSTORE PUSH2 0x1B54 DUP2 PUSH2 0x1B1B JUMP JUMPDEST SWAP1 POP SWAP2 SWAP1 POP JUMP JUMPDEST PUSH32 0x5469656E20677569206B686F6E67206475000000000000000000000000000000 PUSH0 DUP3 ADD MSTORE POP JUMP JUMPDEST PUSH0 PUSH2 0x1B8F PUSH1 0x11 DUP4 PUSH2 0x129B JUMP JUMPDEST SWAP2 POP PUSH2 0x1B9A DUP3 PUSH2 0x1B5B JUMP JUMPDEST PUSH1 0x20 DUP3 ADD SWAP1 POP SWAP2 SWAP1 POP JUMP JUMPDEST PUSH0 PUSH1 0x20 DUP3 ADD SWAP1 POP DUP2 DUP2 SUB PUSH0 DUP4 ADD MSTORE PUSH2 0x1BBC DUP2 PUSH2 0x1B83 JUMP JUMPDEST SWAP1 POP SWAP2 SWAP1 POP JUMP INVALID LOG2 PUSH5 0x6970667358 0x22 SLT KECCAK256 BASEFEE 0xCE 0xE9 DUPN 0xDB SHR DUP7 0x1F PUSH21 0x63D456AB34F254AC534AF6C0A89BA91FE4549CB115 SAR PUSH27 0x64736F6C634300081E003300000000000000000000000000000000 "
		},
		"gasEstimates": {
			"creation": {
				"codeDepositCost": "1432200",
				"executionCost": "infinite",
				"totalCost": "infinite"
			},
			"external": {
				"chamDutHopDong()": "infinite",
				"giaHanHopDong(uint256)": "infinite",
				"kyHopDong()": "infinite",
				"rutTien(uint256)": "infinite",
				"soDuTaiKhoan(address)": "2868",
				"thongTinNha()": "infinite",
				"xemTinhTrangThue()": "infinite"
			}
		},
		"methodIdentifiers": {
			"chamDutHopDong()": "004ead34",
			"giaHanHopDong(uint256)": "b7650127",
			"kyHopDong()": "619089d3",
			"rutTien(uint256)": "185c8b8d",
			"soDuTaiKhoan(address)": "f57967c0",
			"thongTinNha()": "f17b93a8",
			"xemTinhTrangThue()": "ddca361f"
		}
	},
	"abi": [
		{
			"inputs": [
				{
					"internalType": "uint256",
					"name": "_chiPhiHangThang",
					"type": "uint256"
				},
				{
					"internalType": "uint256",
					"name": "_thoiGianThueThang",
					"type": "uint256"
				}
			],
			"stateMutability": "nonpayable",
			"type": "constructor"
		},
		{
			"inputs": [],
			"name": "chamDutHopDong",
			"outputs": [],
			"stateMutability": "nonpayable",
			"type": "function"
		},
		{
			"inputs": [
				{
					"internalType": "uint256",
					"name": "soThangThem",
					"type": "uint256"
				}
			],
			"name": "giaHanHopDong",
			"outputs": [],
			"stateMutability": "payable",
			"type": "function"
		},
		{
			"inputs": [],
			"name": "kyHopDong",
			"outputs": [],
			"stateMutability": "payable",
			"type": "function"
		},
		{
			"inputs": [
				{
					"internalType": "uint256",
					"name": "soThangMuonRut",
					"type": "uint256"
				}
			],
			"name": "rutTien",
			"outputs": [],
			"stateMutability": "nonpayable",
			"type": "function"
		},
		{
			"inputs": [
				{
					"internalType": "address",
					"name": "",
					"type": "address"
				}
			],
			"name": "soDuTaiKhoan",
			"outputs": [
				{
					"internalType": "uint256",
					"name": "",
					"type": "uint256"
				}
			],
			"stateMutability": "view",
			"type": "function"
		},
		{
			"inputs": [],
			"name": "thongTinNha",
			"outputs": [
				{
					"internalType": "address",
					"name": "chuNha",
					"type": "address"
				},
				{
					"internalType": "uint256",
					"name": "chiPhiHangThang",
					"type": "uint256"
				},
				{
					"internalType": "uint256",
					"name": "thoiGianThueThang",
					"type": "uint256"
				},
				{
					"internalType": "bool",
					"name": "hopDongDuocKy",
					"type": "bool"
				}
			],
			"stateMutability": "view",
			"type": "function"
		},
		{
			"inputs": [],
			"name": "xemTinhTrangThue",
			"outputs": [
				{
					"internalType": "address",
					"name": "nguoiThue",
					"type": "address"
				},
				{
					"internalType": "uint256",
					"name": "thoiDiemBatDau",
					"type": "uint256"
				},
				{
					"internalType": "uint256",
					"name": "soThangDaThanhToan",
					"type": "uint256"
				},
				{
					"internalType": "uint256",
					"name": "thoiGianConLai",
					"type": "uint256"
				}
			],
			"stateMutability": "view",
			"type": "function"
		}
	]
}